{
	"data": {
		"bytecode": {
			"linkReferences": {},
			"object": "6080604052600560005534801561001557600080fd5b50610e55806100256000396000f3fe608060405234801561001057600080fd5b50600436106100625760003560e01c8063622b52f81461006757806395ffebf514610083578063a9ceebfc1461009f578063bab7a47d146100bb578063bc8bc2b4146100d7578063f2d697a014610109575b600080fd5b610081600480360381019061007c9190610651565b610127565b005b61009d600480360381019061009891906107c4565b61022f565b005b6100b960048036038101906100b49190610651565b6102de565b005b6100d560048036038101906100d09190610651565b610440565b005b6100f160048036038101906100ec9190610651565b610532565b60405161010093929190610912565b60405180910390f35b610111610601565b60405161011e9190610950565b60405180910390f35b806000600281111561013c5761013b61088c565b5b600182815481106101505761014f61096b565b5b906000526020600020906003020160010160009054906101000a900460ff1660028111156101815761018061088c565b5b146101c1576040517f08c379a00000000000000000000000000000000000000000000000000000000081526004016101b8906109e6565b60405180910390fd5b6000600183815481106101d7576101d661096b565b5b9060005260206000209060030201905060018160010160006101000a81548160ff0219169083600281111561020f5761020e61088c565b5b0217905550600054426102229190610a35565b8160020181905550505050565b60016040518060600160405280838152602001600060028111156102565761025561088c565b5b815260200160008152509080600181540180825580915050600190039060005260206000209060030201600090919091909150600082015181600001908161029e9190610c75565b5060208201518160010160006101000a81548160ff021916908360028111156102ca576102c961088c565b5b021790555060408201518160020155505050565b600160028111156102f2576102f161088c565b5b600182815481106103065761030561096b565b5b906000526020600020906003020160010160009054906101000a900460ff1660028111156103375761033661088c565b5b14610377576040517f08c379a000000000000000000000000000000000000000000000000000000000815260040161036e90610d93565b60405180910390fd5b426001828154811061038c5761038b61096b565b5b90600052602060002090600302016002015410156103df576040517f08c379a00000000000000000000000000000000000000000000000000000000081526004016103d690610dff565b60405180910390fd5b6000600182815481106103f5576103f461096b565b5b9060005260206000209060030201905060008160010160006101000a81548160ff0219169083600281111561042d5761042c61088c565b5b0217905550600081600201819055505050565b80600060028111156104555761045461088c565b5b600182815481106104695761046861096b565b5b906000526020600020906003020160010160009054906101000a900460ff16600281111561049a5761049961088c565b5b146104da576040517f08c379a00000000000000000000000000000000000000000000000000000000081526004016104d1906109e6565b60405180910390fd5b6000600183815481106104f0576104ef61096b565b5b9060005260206000209060030201905060028160010160006101000a81548160ff021916908360028111156105285761052761088c565b5b0217905550505050565b6001818154811061054257600080fd5b906000526020600020906003020160009150905080600001805461056590610a98565b80601f016020809104026020016040519081016040528092919081815260200182805461059190610a98565b80156105de5780601f106105b3576101008083540402835291602001916105de565b820191906000526020600020905b8154815290600101906020018083116105c157829003601f168201915b5050505050908060010160009054906101000a900460ff16908060020154905083565b60005481565b6000604051905090565b600080fd5b600080fd5b6000819050919050565b61062e8161061b565b811461063957600080fd5b50565b60008135905061064b81610625565b92915050565b60006020828403121561066757610666610611565b5b60006106758482850161063c565b91505092915050565b600080fd5b600080fd5b6000601f19601f8301169050919050565b7f4e487b7100000000000000000000000000000000000000000000000000000000600052604160045260246000fd5b6106d182610688565b810181811067ffffffffffffffff821117156106f0576106ef610699565b5b80604052505050565b6000610703610607565b905061070f82826106c8565b919050565b600067ffffffffffffffff82111561072f5761072e610699565b5b61073882610688565b9050602081019050919050565b82818337600083830152505050565b600061076761076284610714565b6106f9565b90508281526020810184848401111561078357610782610683565b5b61078e848285610745565b509392505050565b600082601f8301126107ab576107aa61067e565b5b81356107bb848260208601610754565b91505092915050565b6000602082840312156107da576107d9610611565b5b600082013567ffffffffffffffff8111156107f8576107f7610616565b5b61080484828501610796565b91505092915050565b600081519050919050565b600082825260208201905092915050565b60005b8381101561084757808201518184015260208101905061082c565b60008484015250505050565b600061085e8261080d565b6108688185610818565b9350610878818560208601610829565b61088181610688565b840191505092915050565b7f4e487b7100000000000000000000000000000000000000000000000000000000600052602160045260246000fd5b600381106108cc576108cb61088c565b5b50565b60008190506108dd826108bb565b919050565b60006108ed826108cf565b9050919050565b6108fd816108e2565b82525050565b61090c8161061b565b82525050565b6000606082019050818103600083015261092c8186610853565b905061093b60208301856108f4565b6109486040830184610903565b949350505050565b60006020820190506109656000830184610903565b92915050565b7f4e487b7100000000000000000000000000000000000000000000000000000000600052603260045260246000fd5b7f6f6e6c7920544f444f0000000000000000000000000000000000000000000000600082015250565b60006109d0600983610818565b91506109db8261099a565b602082019050919050565b600060208201905081810360008301526109ff816109c3565b9050919050565b7f4e487b7100000000000000000000000000000000000000000000000000000000600052601160045260246000fd5b6000610a408261061b565b9150610a4b8361061b565b9250828201905080821115610a6357610a62610a06565b5b92915050565b7f4e487b7100000000000000000000000000000000000000000000000000000000600052602260045260246000fd5b60006002820490506001821680610ab057607f821691505b602082108103610ac357610ac2610a69565b5b50919050565b60008190508160005260206000209050919050565b60006020601f8301049050919050565b600082821b905092915050565b600060088302610b2b7fffffffffffffffffffffffffffffffffffffffffffffffffffffffffffffffff82610aee565b610b358683610aee565b95508019841693508086168417925050509392505050565b6000819050919050565b6000610b72610b6d610b688461061b565b610b4d565b61061b565b9050919050565b6000819050919050565b610b8c83610b57565b610ba0610b9882610b79565b848454610afb565b825550505050565b600090565b610bb5610ba8565b610bc0818484610b83565b505050565b5b81811015610be457610bd9600082610bad565b600181019050610bc6565b5050565b601f821115610c2957610bfa81610ac9565b610c0384610ade565b81016020851015610c12578190505b610c26610c1e85610ade565b830182610bc5565b50505b505050565b600082821c905092915050565b6000610c4c60001984600802610c2e565b1980831691505092915050565b6000610c658383610c3b565b9150826002028217905092915050565b610c7e8261080d565b67ffffffffffffffff811115610c9757610c96610699565b5b610ca18254610a98565b610cac828285610be8565b600060209050601f831160018114610cdf5760008415610ccd578287015190505b610cd78582610c59565b865550610d3f565b601f198416610ced86610ac9565b60005b82811015610d1557848901518255600182019150602085019450602081019050610cf0565b86831015610d325784890151610d2e601f891682610c3b565b8355505b6001600288020188555050505b505050505050565b7f6f6e6c792050454e44494e470000000000000000000000000000000000000000600082015250565b6000610d7d600c83610818565b9150610d8882610d47565b602082019050919050565b60006020820190508181036000830152610dac81610d70565b9050919050565b7f70656e64696e6720657870697265640000000000000000000000000000000000600082015250565b6000610de9600f83610818565b9150610df482610db3565b602082019050919050565b60006020820190508181036000830152610e1881610ddc565b905091905056fea264697066735822122051cfedacce449b1e03b9130f2acdce0fc6057eb21317b8ac7baf02666eb0594664736f6c63430008130033",
			"opcodes": "PUSH1 0x80 PUSH1 0x40 MSTORE PUSH1 0x5 PUSH1 0x0 SSTORE CALLVALUE DUP1 ISZERO PUSH2 0x15 JUMPI PUSH1 0x0 DUP1 REVERT JUMPDEST POP PUSH2 0xE55 DUP1 PUSH2 0x25 PUSH1 0x0 CODECOPY PUSH1 0x0 RETURN INVALID PUSH1 0x80 PUSH1 0x40 MSTORE CALLVALUE DUP1 ISZERO PUSH2 0x10 JUMPI PUSH1 0x0 DUP1 REVERT JUMPDEST POP PUSH1 0x4 CALLDATASIZE LT PUSH2 0x62 JUMPI PUSH1 0x0 CALLDATALOAD PUSH1 0xE0 SHR DUP1 PUSH4 0x622B52F8 EQ PUSH2 0x67 JUMPI DUP1 PUSH4 0x95FFEBF5 EQ PUSH2 0x83 JUMPI DUP1 PUSH4 0xA9CEEBFC EQ PUSH2 0x9F JUMPI DUP1 PUSH4 0xBAB7A47D EQ PUSH2 0xBB JUMPI DUP1 PUSH4 0xBC8BC2B4 EQ PUSH2 0xD7 JUMPI DUP1 PUSH4 0xF2D697A0 EQ PUSH2 0x109 JUMPI JUMPDEST PUSH1 0x0 DUP1 REVERT JUMPDEST PUSH2 0x81 PUSH1 0x4 DUP1 CALLDATASIZE SUB DUP2 ADD SWAP1 PUSH2 0x7C SWAP2 SWAP1 PUSH2 0x651 JUMP JUMPDEST PUSH2 0x127 JUMP JUMPDEST STOP JUMPDEST PUSH2 0x9D PUSH1 0x4 DUP1 CALLDATASIZE SUB DUP2 ADD SWAP1 PUSH2 0x98 SWAP2 SWAP1 PUSH2 0x7C4 JUMP JUMPDEST PUSH2 0x22F JUMP JUMPDEST STOP JUMPDEST PUSH2 0xB9 PUSH1 0x4 DUP1 CALLDATASIZE SUB DUP2 ADD SWAP1 PUSH2 0xB4 SWAP2 SWAP1 PUSH2 0x651 JUMP JUMPDEST PUSH2 0x2DE JUMP JUMPDEST STOP JUMPDEST PUSH2 0xD5 PUSH1 0x4 DUP1 CALLDATASIZE SUB DUP2 ADD SWAP1 PUSH2 0xD0 SWAP2 SWAP1 PUSH2 0x651 JUMP JUMPDEST PUSH2 0x440 JUMP JUMPDEST STOP JUMPDEST PUSH2 0xF1 PUSH1 0x4 DUP1 CALLDATASIZE SUB DUP2 ADD SWAP1 PUSH2 0xEC SWAP2 SWAP1 PUSH2 0x651 JUMP JUMPDEST PUSH2 0x532 JUMP JUMPDEST PUSH1 0x40 MLOAD PUSH2 0x100 SWAP4 SWAP3 SWAP2 SWAP1 PUSH2 0x912 JUMP JUMPDEST PUSH1 0x40 MLOAD DUP1 SWAP2 SUB SWAP1 RETURN JUMPDEST PUSH2 0x111 PUSH2 0x601 JUMP JUMPDEST PUSH1 0x40 MLOAD PUSH2 0x11E SWAP2 SWAP1 PUSH2 0x950 JUMP JUMPDEST PUSH1 0x40 MLOAD DUP1 SWAP2 SUB SWAP1 RETURN JUMPDEST DUP1 PUSH1 0x0 PUSH1 0x2 DUP2 GT ISZERO PUSH2 0x13C JUMPI PUSH2 0x13B PUSH2 0x88C JUMP JUMPDEST JUMPDEST PUSH1 0x1 DUP3 DUP2 SLOAD DUP2 LT PUSH2 0x150 JUMPI PUSH2 0x14F PUSH2 0x96B JUMP JUMPDEST JUMPDEST SWAP1 PUSH1 0x0 MSTORE PUSH1 0x20 PUSH1 0x0 KECCAK256 SWAP1 PUSH1 0x3 MUL ADD PUSH1 0x1 ADD PUSH1 0x0 SWAP1 SLOAD SWAP1 PUSH2 0x100 EXP SWAP1 DIV PUSH1 0xFF AND PUSH1 0x2 DUP2 GT ISZERO PUSH2 0x181 JUMPI PUSH2 0x180 PUSH2 0x88C JUMP JUMPDEST JUMPDEST EQ PUSH2 0x1C1 JUMPI PUSH1 0x40 MLOAD PUSH32 0x8C379A000000000000000000000000000000000000000000000000000000000 DUP2 MSTORE PUSH1 0x4 ADD PUSH2 0x1B8 SWAP1 PUSH2 0x9E6 JUMP JUMPDEST PUSH1 0x40 MLOAD DUP1 SWAP2 SUB SWAP1 REVERT JUMPDEST PUSH1 0x0 PUSH1 0x1 DUP4 DUP2 SLOAD DUP2 LT PUSH2 0x1D7 JUMPI PUSH2 0x1D6 PUSH2 0x96B JUMP JUMPDEST JUMPDEST SWAP1 PUSH1 0x0 MSTORE PUSH1 0x20 PUSH1 0x0 KECCAK256 SWAP1 PUSH1 0x3 MUL ADD SWAP1 POP PUSH1 0x1 DUP2 PUSH1 0x1 ADD PUSH1 0x0 PUSH2 0x100 EXP DUP2 SLOAD DUP2 PUSH1 0xFF MUL NOT AND SWAP1 DUP4 PUSH1 0x2 DUP2 GT ISZERO PUSH2 0x20F JUMPI PUSH2 0x20E PUSH2 0x88C JUMP JUMPDEST JUMPDEST MUL OR SWAP1 SSTORE POP PUSH1 0x0 SLOAD TIMESTAMP PUSH2 0x222 SWAP2 SWAP1 PUSH2 0xA35 JUMP JUMPDEST DUP2 PUSH1 0x2 ADD DUP2 SWAP1 SSTORE POP POP POP POP JUMP JUMPDEST PUSH1 0x1 PUSH1 0x40 MLOAD DUP1 PUSH1 0x60 ADD PUSH1 0x40 MSTORE DUP1 DUP4 DUP2 MSTORE PUSH1 0x20 ADD PUSH1 0x0 PUSH1 0x2 DUP2 GT ISZERO PUSH2 0x256 JUMPI PUSH2 0x255 PUSH2 0x88C JUMP JUMPDEST JUMPDEST DUP2 MSTORE PUSH1 0x20 ADD PUSH1 0x0 DUP2 MSTORE POP SWAP1 DUP1 PUSH1 0x1 DUP2 SLOAD ADD DUP1 DUP3 SSTORE DUP1 SWAP2 POP POP PUSH1 0x1 SWAP1 SUB SWAP1 PUSH1 0x0 MSTORE PUSH1 0x20 PUSH1 0x0 KECCAK256 SWAP1 PUSH1 0x3 MUL ADD PUSH1 0x0 SWAP1 SWAP2 SWAP1 SWAP2 SWAP1 SWAP2 POP PUSH1 0x0 DUP3 ADD MLOAD DUP2 PUSH1 0x0 ADD SWAP1 DUP2 PUSH2 0x29E SWAP2 SWAP1 PUSH2 0xC75 JUMP JUMPDEST POP PUSH1 0x20 DUP3 ADD MLOAD DUP2 PUSH1 0x1 ADD PUSH1 0x0 PUSH2 0x100 EXP DUP2 SLOAD DUP2 PUSH1 0xFF MUL NOT AND SWAP1 DUP4 PUSH1 0x2 DUP2 GT ISZERO PUSH2 0x2CA JUMPI PUSH2 0x2C9 PUSH2 0x88C JUMP JUMPDEST JUMPDEST MUL OR SWAP1 SSTORE POP PUSH1 0x40 DUP3 ADD MLOAD DUP2 PUSH1 0x2 ADD SSTORE POP POP POP JUMP JUMPDEST PUSH1 0x1 PUSH1 0x2 DUP2 GT ISZERO PUSH2 0x2F2 JUMPI PUSH2 0x2F1 PUSH2 0x88C JUMP JUMPDEST JUMPDEST PUSH1 0x1 DUP3 DUP2 SLOAD DUP2 LT PUSH2 0x306 JUMPI PUSH2 0x305 PUSH2 0x96B JUMP JUMPDEST JUMPDEST SWAP1 PUSH1 0x0 MSTORE PUSH1 0x20 PUSH1 0x0 KECCAK256 SWAP1 PUSH1 0x3 MUL ADD PUSH1 0x1 ADD PUSH1 0x0 SWAP1 SLOAD SWAP1 PUSH2 0x100 EXP SWAP1 DIV PUSH1 0xFF AND PUSH1 0x2 DUP2 GT ISZERO PUSH2 0x337 JUMPI PUSH2 0x336 PUSH2 0x88C JUMP JUMPDEST JUMPDEST EQ PUSH2 0x377 JUMPI PUSH1 0x40 MLOAD PUSH32 0x8C379A000000000000000000000000000000000000000000000000000000000 DUP2 MSTORE PUSH1 0x4 ADD PUSH2 0x36E SWAP1 PUSH2 0xD93 JUMP JUMPDEST PUSH1 0x40 MLOAD DUP1 SWAP2 SUB SWAP1 REVERT JUMPDEST TIMESTAMP PUSH1 0x1 DUP3 DUP2 SLOAD DUP2 LT PUSH2 0x38C JUMPI PUSH2 0x38B PUSH2 0x96B JUMP JUMPDEST JUMPDEST SWAP1 PUSH1 0x0 MSTORE PUSH1 0x20 PUSH1 0x0 KECCAK256 SWAP1 PUSH1 0x3 MUL ADD PUSH1 0x2 ADD SLOAD LT ISZERO PUSH2 0x3DF JUMPI PUSH1 0x40 MLOAD PUSH32 0x8C379A000000000000000000000000000000000000000000000000000000000 DUP2 MSTORE PUSH1 0x4 ADD PUSH2 0x3D6 SWAP1 PUSH2 0xDFF JUMP JUMPDEST PUSH1 0x40 MLOAD DUP1 SWAP2 SUB SWAP1 REVERT JUMPDEST PUSH1 0x0 PUSH1 0x1 DUP3 DUP2 SLOAD DUP2 LT PUSH2 0x3F5 JUMPI PUSH2 0x3F4 PUSH2 0x96B JUMP JUMPDEST JUMPDEST SWAP1 PUSH1 0x0 MSTORE PUSH1 0x20 PUSH1 0x0 KECCAK256 SWAP1 PUSH1 0x3 MUL ADD SWAP1 POP PUSH1 0x0 DUP2 PUSH1 0x1 ADD PUSH1 0x0 PUSH2 0x100 EXP DUP2 SLOAD DUP2 PUSH1 0xFF MUL NOT AND SWAP1 DUP4 PUSH1 0x2 DUP2 GT ISZERO PUSH2 0x42D JUMPI PUSH2 0x42C PUSH2 0x88C JUMP JUMPDEST JUMPDEST MUL OR SWAP1 SSTORE POP PUSH1 0x0 DUP2 PUSH1 0x2 ADD DUP2 SWAP1 SSTORE POP POP POP JUMP JUMPDEST DUP1 PUSH1 0x0 PUSH1 0x2 DUP2 GT ISZERO PUSH2 0x455 JUMPI PUSH2 0x454 PUSH2 0x88C JUMP JUMPDEST JUMPDEST PUSH1 0x1 DUP3 DUP2 SLOAD DUP2 LT PUSH2 0x469 JUMPI PUSH2 0x468 PUSH2 0x96B JUMP JUMPDEST JUMPDEST SWAP1 PUSH1 0x0 MSTORE PUSH1 0x20 PUSH1 0x0 KECCAK256 SWAP1 PUSH1 0x3 MUL ADD PUSH1 0x1 ADD PUSH1 0x0 SWAP1 SLOAD SWAP1 PUSH2 0x100 EXP SWAP1 DIV PUSH1 0xFF AND PUSH1 0x2 DUP2 GT ISZERO PUSH2 0x49A JUMPI PUSH2 0x499 PUSH2 0x88C JUMP JUMPDEST JUMPDEST EQ PUSH2 0x4DA JUMPI PUSH1 0x40 MLOAD PUSH32 0x8C379A000000000000000000000000000000000000000000000000000000000 DUP2 MSTORE PUSH1 0x4 ADD PUSH2 0x4D1 SWAP1 PUSH2 0x9E6 JUMP JUMPDEST PUSH1 0x40 MLOAD DUP1 SWAP2 SUB SWAP1 REVERT JUMPDEST PUSH1 0x0 PUSH1 0x1 DUP4 DUP2 SLOAD DUP2 LT PUSH2 0x4F0 JUMPI PUSH2 0x4EF PUSH2 0x96B JUMP JUMPDEST JUMPDEST SWAP1 PUSH1 0x0 MSTORE PUSH1 0x20 PUSH1 0x0 KECCAK256 SWAP1 PUSH1 0x3 MUL ADD SWAP1 POP PUSH1 0x2 DUP2 PUSH1 0x1 ADD PUSH1 0x0 PUSH2 0x100 EXP DUP2 SLOAD DUP2 PUSH1 0xFF MUL NOT AND SWAP1 DUP4 PUSH1 0x2 DUP2 GT ISZERO PUSH2 0x528 JUMPI PUSH2 0x527 PUSH2 0x88C JUMP JUMPDEST JUMPDEST MUL OR SWAP1 SSTORE POP POP POP POP JUMP JUMPDEST PUSH1 0x1 DUP2 DUP2 SLOAD DUP2 LT PUSH2 0x542 JUMPI PUSH1 0x0 DUP1 REVERT JUMPDEST SWAP1 PUSH1 0x0 MSTORE PUSH1 0x20 PUSH1 0x0 KECCAK256 SWAP1 PUSH1 0x3 MUL ADD PUSH1 0x0 SWAP2 POP SWAP1 POP DUP1 PUSH1 0x0 ADD DUP1 SLOAD PUSH2 0x565 SWAP1 PUSH2 0xA98 JUMP JUMPDEST DUP1 PUSH1 0x1F ADD PUSH1 0x20 DUP1 SWAP2 DIV MUL PUSH1 0x20 ADD PUSH1 0x40 MLOAD SWAP1 DUP2 ADD PUSH1 0x40 MSTORE DUP1 SWAP3 SWAP2 SWAP1 DUP2 DUP2 MSTORE PUSH1 0x20 ADD DUP3 DUP1 SLOAD PUSH2 0x591 SWAP1 PUSH2 0xA98 JUMP JUMPDEST DUP1 ISZERO PUSH2 0x5DE JUMPI DUP1 PUSH1 0x1F LT PUSH2 0x5B3 JUMPI PUSH2 0x100 DUP1 DUP4 SLOAD DIV MUL DUP4 MSTORE SWAP2 PUSH1 0x20 ADD SWAP2 PUSH2 0x5DE JUMP JUMPDEST DUP3 ADD SWAP2 SWAP1 PUSH1 0x0 MSTORE PUSH1 0x20 PUSH1 0x0 KECCAK256 SWAP1 JUMPDEST DUP2 SLOAD DUP2 MSTORE SWAP1 PUSH1 0x1 ADD SWAP1 PUSH1 0x20 ADD DUP1 DUP4 GT PUSH2 0x5C1 JUMPI DUP3 SWAP1 SUB PUSH1 0x1F AND DUP3 ADD SWAP2 JUMPDEST POP POP POP POP POP SWAP1 DUP1 PUSH1 0x1 ADD PUSH1 0x0 SWAP1 SLOAD SWAP1 PUSH2 0x100 EXP SWAP1 DIV PUSH1 0xFF AND SWAP1 DUP1 PUSH1 0x2 ADD SLOAD SWAP1 POP DUP4 JUMP JUMPDEST PUSH1 0x0 SLOAD DUP2 JUMP JUMPDEST PUSH1 0x0 PUSH1 0x40 MLOAD SWAP1 POP SWAP1 JUMP JUMPDEST PUSH1 0x0 DUP1 REVERT JUMPDEST PUSH1 0x0 DUP1 REVERT JUMPDEST PUSH1 0x0 DUP2 SWAP1 POP SWAP2 SWAP1 POP JUMP JUMPDEST PUSH2 0x62E DUP2 PUSH2 0x61B JUMP JUMPDEST DUP2 EQ PUSH2 0x639 JUMPI PUSH1 0x0 DUP1 REVERT JUMPDEST POP JUMP JUMPDEST PUSH1 0x0 DUP2 CALLDATALOAD SWAP1 POP PUSH2 0x64B DUP2 PUSH2 0x625 JUMP JUMPDEST SWAP3 SWAP2 POP POP JUMP JUMPDEST PUSH1 0x0 PUSH1 0x20 DUP3 DUP5 SUB SLT ISZERO PUSH2 0x667 JUMPI PUSH2 0x666 PUSH2 0x611 JUMP JUMPDEST JUMPDEST PUSH1 0x0 PUSH2 0x675 DUP5 DUP3 DUP6 ADD PUSH2 0x63C JUMP JUMPDEST SWAP2 POP POP SWAP3 SWAP2 POP POP JUMP JUMPDEST PUSH1 0x0 DUP1 REVERT JUMPDEST PUSH1 0x0 DUP1 REVERT JUMPDEST PUSH1 0x0 PUSH1 0x1F NOT PUSH1 0x1F DUP4 ADD AND SWAP1 POP SWAP2 SWAP1 POP JUMP JUMPDEST PUSH32 0x4E487B7100000000000000000000000000000000000000000000000000000000 PUSH1 0x0 MSTORE PUSH1 0x41 PUSH1 0x4 MSTORE PUSH1 0x24 PUSH1 0x0 REVERT JUMPDEST PUSH2 0x6D1 DUP3 PUSH2 0x688 JUMP JUMPDEST DUP2 ADD DUP2 DUP2 LT PUSH8 0xFFFFFFFFFFFFFFFF DUP3 GT OR ISZERO PUSH2 0x6F0 JUMPI PUSH2 0x6EF PUSH2 0x699 JUMP JUMPDEST JUMPDEST DUP1 PUSH1 0x40 MSTORE POP POP POP JUMP JUMPDEST PUSH1 0x0 PUSH2 0x703 PUSH2 0x607 JUMP JUMPDEST SWAP1 POP PUSH2 0x70F DUP3 DUP3 PUSH2 0x6C8 JUMP JUMPDEST SWAP2 SWAP1 POP JUMP JUMPDEST PUSH1 0x0 PUSH8 0xFFFFFFFFFFFFFFFF DUP3 GT ISZERO PUSH2 0x72F JUMPI PUSH2 0x72E PUSH2 0x699 JUMP JUMPDEST JUMPDEST PUSH2 0x738 DUP3 PUSH2 0x688 JUMP JUMPDEST SWAP1 POP PUSH1 0x20 DUP2 ADD SWAP1 POP SWAP2 SWAP1 POP JUMP JUMPDEST DUP3 DUP2 DUP4 CALLDATACOPY PUSH1 0x0 DUP4 DUP4 ADD MSTORE POP POP POP JUMP JUMPDEST PUSH1 0x0 PUSH2 0x767 PUSH2 0x762 DUP5 PUSH2 0x714 JUMP JUMPDEST PUSH2 0x6F9 JUMP JUMPDEST SWAP1 POP DUP3 DUP2 MSTORE PUSH1 0x20 DUP2 ADD DUP5 DUP5 DUP5 ADD GT ISZERO PUSH2 0x783 JUMPI PUSH2 0x782 PUSH2 0x683 JUMP JUMPDEST JUMPDEST PUSH2 0x78E DUP5 DUP3 DUP6 PUSH2 0x745 JUMP JUMPDEST POP SWAP4 SWAP3 POP POP POP JUMP JUMPDEST PUSH1 0x0 DUP3 PUSH1 0x1F DUP4 ADD SLT PUSH2 0x7AB JUMPI PUSH2 0x7AA PUSH2 0x67E JUMP JUMPDEST JUMPDEST DUP2 CALLDATALOAD PUSH2 0x7BB DUP5 DUP3 PUSH1 0x20 DUP7 ADD PUSH2 0x754 JUMP JUMPDEST SWAP2 POP POP SWAP3 SWAP2 POP POP JUMP JUMPDEST PUSH1 0x0 PUSH1 0x20 DUP3 DUP5 SUB SLT ISZERO PUSH2 0x7DA JUMPI PUSH2 0x7D9 PUSH2 0x611 JUMP JUMPDEST JUMPDEST PUSH1 0x0 DUP3 ADD CALLDATALOAD PUSH8 0xFFFFFFFFFFFFFFFF DUP2 GT ISZERO PUSH2 0x7F8 JUMPI PUSH2 0x7F7 PUSH2 0x616 JUMP JUMPDEST JUMPDEST PUSH2 0x804 DUP5 DUP3 DUP6 ADD PUSH2 0x796 JUMP JUMPDEST SWAP2 POP POP SWAP3 SWAP2 POP POP JUMP JUMPDEST PUSH1 0x0 DUP2 MLOAD SWAP1 POP SWAP2 SWAP1 POP JUMP JUMPDEST PUSH1 0x0 DUP3 DUP3 MSTORE PUSH1 0x20 DUP3 ADD SWAP1 POP SWAP3 SWAP2 POP POP JUMP JUMPDEST PUSH1 0x0 JUMPDEST DUP4 DUP2 LT ISZERO PUSH2 0x847 JUMPI DUP1 DUP3 ADD MLOAD DUP2 DUP5 ADD MSTORE PUSH1 0x20 DUP2 ADD SWAP1 POP PUSH2 0x82C JUMP JUMPDEST PUSH1 0x0 DUP5 DUP5 ADD MSTORE POP POP POP POP JUMP JUMPDEST PUSH1 0x0 PUSH2 0x85E DUP3 PUSH2 0x80D JUMP JUMPDEST PUSH2 0x868 DUP2 DUP6 PUSH2 0x818 JUMP JUMPDEST SWAP4 POP PUSH2 0x878 DUP2 DUP6 PUSH1 0x20 DUP7 ADD PUSH2 0x829 JUMP JUMPDEST PUSH2 0x881 DUP2 PUSH2 0x688 JUMP JUMPDEST DUP5 ADD SWAP2 POP POP SWAP3 SWAP2 POP POP JUMP JUMPDEST PUSH32 0x4E487B7100000000000000000000000000000000000000000000000000000000 PUSH1 0x0 MSTORE PUSH1 0x21 PUSH1 0x4 MSTORE PUSH1 0x24 PUSH1 0x0 REVERT JUMPDEST PUSH1 0x3 DUP2 LT PUSH2 0x8CC JUMPI PUSH2 0x8CB PUSH2 0x88C JUMP JUMPDEST JUMPDEST POP JUMP JUMPDEST PUSH1 0x0 DUP2 SWAP1 POP PUSH2 0x8DD DUP3 PUSH2 0x8BB JUMP JUMPDEST SWAP2 SWAP1 POP JUMP JUMPDEST PUSH1 0x0 PUSH2 0x8ED DUP3 PUSH2 0x8CF JUMP JUMPDEST SWAP1 POP SWAP2 SWAP1 POP JUMP JUMPDEST PUSH2 0x8FD DUP2 PUSH2 0x8E2 JUMP JUMPDEST DUP3 MSTORE POP POP JUMP JUMPDEST PUSH2 0x90C DUP2 PUSH2 0x61B JUMP JUMPDEST DUP3 MSTORE POP POP JUMP JUMPDEST PUSH1 0x0 PUSH1 0x60 DUP3 ADD SWAP1 POP DUP2 DUP2 SUB PUSH1 0x0 DUP4 ADD MSTORE PUSH2 0x92C DUP2 DUP7 PUSH2 0x853 JUMP JUMPDEST SWAP1 POP PUSH2 0x93B PUSH1 0x20 DUP4 ADD DUP6 PUSH2 0x8F4 JUMP JUMPDEST PUSH2 0x948 PUSH1 0x40 DUP4 ADD DUP5 PUSH2 0x903 JUMP JUMPDEST SWAP5 SWAP4 POP POP POP POP JUMP JUMPDEST PUSH1 0x0 PUSH1 0x20 DUP3 ADD SWAP1 POP PUSH2 0x965 PUSH1 0x0 DUP4 ADD DUP5 PUSH2 0x903 JUMP JUMPDEST SWAP3 SWAP2 POP POP JUMP JUMPDEST PUSH32 0x4E487B7100000000000000000000000000000000000000000000000000000000 PUSH1 0x0 MSTORE PUSH1 0x32 PUSH1 0x4 MSTORE PUSH1 0x24 PUSH1 0x0 REVERT JUMPDEST PUSH32 0x6F6E6C7920544F444F0000000000000000000000000000000000000000000000 PUSH1 0x0 DUP3 ADD MSTORE POP JUMP JUMPDEST PUSH1 0x0 PUSH2 0x9D0 PUSH1 0x9 DUP4 PUSH2 0x818 JUMP JUMPDEST SWAP2 POP PUSH2 0x9DB DUP3 PUSH2 0x99A JUMP JUMPDEST PUSH1 0x20 DUP3 ADD SWAP1 POP SWAP2 SWAP1 POP JUMP JUMPDEST PUSH1 0x0 PUSH1 0x20 DUP3 ADD SWAP1 POP DUP2 DUP2 SUB PUSH1 0x0 DUP4 ADD MSTORE PUSH2 0x9FF DUP2 PUSH2 0x9C3 JUMP JUMPDEST SWAP1 POP SWAP2 SWAP1 POP JUMP JUMPDEST PUSH32 0x4E487B7100000000000000000000000000000000000000000000000000000000 PUSH1 0x0 MSTORE PUSH1 0x11 PUSH1 0x4 MSTORE PUSH1 0x24 PUSH1 0x0 REVERT JUMPDEST PUSH1 0x0 PUSH2 0xA40 DUP3 PUSH2 0x61B JUMP JUMPDEST SWAP2 POP PUSH2 0xA4B DUP4 PUSH2 0x61B JUMP JUMPDEST SWAP3 POP DUP3 DUP3 ADD SWAP1 POP DUP1 DUP3 GT ISZERO PUSH2 0xA63 JUMPI PUSH2 0xA62 PUSH2 0xA06 JUMP JUMPDEST JUMPDEST SWAP3 SWAP2 POP POP JUMP JUMPDEST PUSH32 0x4E487B7100000000000000000000000000000000000000000000000000000000 PUSH1 0x0 MSTORE PUSH1 0x22 PUSH1 0x4 MSTORE PUSH1 0x24 PUSH1 0x0 REVERT JUMPDEST PUSH1 0x0 PUSH1 0x2 DUP3 DIV SWAP1 POP PUSH1 0x1 DUP3 AND DUP1 PUSH2 0xAB0 JUMPI PUSH1 0x7F DUP3 AND SWAP2 POP JUMPDEST PUSH1 0x20 DUP3 LT DUP2 SUB PUSH2 0xAC3 JUMPI PUSH2 0xAC2 PUSH2 0xA69 JUMP JUMPDEST JUMPDEST POP SWAP2 SWAP1 POP JUMP JUMPDEST PUSH1 0x0 DUP2 SWAP1 POP DUP2 PUSH1 0x0 MSTORE PUSH1 0x20 PUSH1 0x0 KECCAK256 SWAP1 POP SWAP2 SWAP1 POP JUMP JUMPDEST PUSH1 0x0 PUSH1 0x20 PUSH1 0x1F DUP4 ADD DIV SWAP1 POP SWAP2 SWAP1 POP JUMP JUMPDEST PUSH1 0x0 DUP3 DUP3 SHL SWAP1 POP SWAP3 SWAP2 POP POP JUMP JUMPDEST PUSH1 0x0 PUSH1 0x8 DUP4 MUL PUSH2 0xB2B PUSH32 0xFFFFFFFFFFFFFFFFFFFFFFFFFFFFFFFFFFFFFFFFFFFFFFFFFFFFFFFFFFFFFFFF DUP3 PUSH2 0xAEE JUMP JUMPDEST PUSH2 0xB35 DUP7 DUP4 PUSH2 0xAEE JUMP JUMPDEST SWAP6 POP DUP1 NOT DUP5 AND SWAP4 POP DUP1 DUP7 AND DUP5 OR SWAP3 POP POP POP SWAP4 SWAP3 POP POP POP JUMP JUMPDEST PUSH1 0x0 DUP2 SWAP1 POP SWAP2 SWAP1 POP JUMP JUMPDEST PUSH1 0x0 PUSH2 0xB72 PUSH2 0xB6D PUSH2 0xB68 DUP5 PUSH2 0x61B JUMP JUMPDEST PUSH2 0xB4D JUMP JUMPDEST PUSH2 0x61B JUMP JUMPDEST SWAP1 POP SWAP2 SWAP1 POP JUMP JUMPDEST PUSH1 0x0 DUP2 SWAP1 POP SWAP2 SWAP1 POP JUMP JUMPDEST PUSH2 0xB8C DUP4 PUSH2 0xB57 JUMP JUMPDEST PUSH2 0xBA0 PUSH2 0xB98 DUP3 PUSH2 0xB79 JUMP JUMPDEST DUP5 DUP5 SLOAD PUSH2 0xAFB JUMP JUMPDEST DUP3 SSTORE POP POP POP POP JUMP JUMPDEST PUSH1 0x0 SWAP1 JUMP JUMPDEST PUSH2 0xBB5 PUSH2 0xBA8 JUMP JUMPDEST PUSH2 0xBC0 DUP2 DUP5 DUP5 PUSH2 0xB83 JUMP JUMPDEST POP POP POP JUMP JUMPDEST JUMPDEST DUP2 DUP2 LT ISZERO PUSH2 0xBE4 JUMPI PUSH2 0xBD9 PUSH1 0x0 DUP3 PUSH2 0xBAD JUMP JUMPDEST PUSH1 0x1 DUP2 ADD SWAP1 POP PUSH2 0xBC6 JUMP JUMPDEST POP POP JUMP JUMPDEST PUSH1 0x1F DUP3 GT ISZERO PUSH2 0xC29 JUMPI PUSH2 0xBFA DUP2 PUSH2 0xAC9 JUMP JUMPDEST PUSH2 0xC03 DUP5 PUSH2 0xADE JUMP JUMPDEST DUP2 ADD PUSH1 0x20 DUP6 LT ISZERO PUSH2 0xC12 JUMPI DUP2 SWAP1 POP JUMPDEST PUSH2 0xC26 PUSH2 0xC1E DUP6 PUSH2 0xADE JUMP JUMPDEST DUP4 ADD DUP3 PUSH2 0xBC5 JUMP JUMPDEST POP POP JUMPDEST POP POP POP JUMP JUMPDEST PUSH1 0x0 DUP3 DUP3 SHR SWAP1 POP SWAP3 SWAP2 POP POP JUMP JUMPDEST PUSH1 0x0 PUSH2 0xC4C PUSH1 0x0 NOT DUP5 PUSH1 0x8 MUL PUSH2 0xC2E JUMP JUMPDEST NOT DUP1 DUP4 AND SWAP2 POP POP SWAP3 SWAP2 POP POP JUMP JUMPDEST PUSH1 0x0 PUSH2 0xC65 DUP4 DUP4 PUSH2 0xC3B JUMP JUMPDEST SWAP2 POP DUP3 PUSH1 0x2 MUL DUP3 OR SWAP1 POP SWAP3 SWAP2 POP POP JUMP JUMPDEST PUSH2 0xC7E DUP3 PUSH2 0x80D JUMP JUMPDEST PUSH8 0xFFFFFFFFFFFFFFFF DUP2 GT ISZERO PUSH2 0xC97 JUMPI PUSH2 0xC96 PUSH2 0x699 JUMP JUMPDEST JUMPDEST PUSH2 0xCA1 DUP3 SLOAD PUSH2 0xA98 JUMP JUMPDEST PUSH2 0xCAC DUP3 DUP3 DUP6 PUSH2 0xBE8 JUMP JUMPDEST PUSH1 0x0 PUSH1 0x20 SWAP1 POP PUSH1 0x1F DUP4 GT PUSH1 0x1 DUP2 EQ PUSH2 0xCDF JUMPI PUSH1 0x0 DUP5 ISZERO PUSH2 0xCCD JUMPI DUP3 DUP8 ADD MLOAD SWAP1 POP JUMPDEST PUSH2 0xCD7 DUP6 DUP3 PUSH2 0xC59 JUMP JUMPDEST DUP7 SSTORE POP PUSH2 0xD3F JUMP JUMPDEST PUSH1 0x1F NOT DUP5 AND PUSH2 0xCED DUP7 PUSH2 0xAC9 JUMP JUMPDEST PUSH1 0x0 JUMPDEST DUP3 DUP2 LT ISZERO PUSH2 0xD15 JUMPI DUP5 DUP10 ADD MLOAD DUP3 SSTORE PUSH1 0x1 DUP3 ADD SWAP2 POP PUSH1 0x20 DUP6 ADD SWAP5 POP PUSH1 0x20 DUP2 ADD SWAP1 POP PUSH2 0xCF0 JUMP JUMPDEST DUP7 DUP4 LT ISZERO PUSH2 0xD32 JUMPI DUP5 DUP10 ADD MLOAD PUSH2 0xD2E PUSH1 0x1F DUP10 AND DUP3 PUSH2 0xC3B JUMP JUMPDEST DUP4 SSTORE POP JUMPDEST PUSH1 0x1 PUSH1 0x2 DUP9 MUL ADD DUP9 SSTORE POP POP POP JUMPDEST POP POP POP POP POP POP JUMP JUMPDEST PUSH32 0x6F6E6C792050454E44494E470000000000000000000000000000000000000000 PUSH1 0x0 DUP3 ADD MSTORE POP JUMP JUMPDEST PUSH1 0x0 PUSH2 0xD7D PUSH1 0xC DUP4 PUSH2 0x818 JUMP JUMPDEST SWAP2 POP PUSH2 0xD88 DUP3 PUSH2 0xD47 JUMP JUMPDEST PUSH1 0x20 DUP3 ADD SWAP1 POP SWAP2 SWAP1 POP JUMP JUMPDEST PUSH1 0x0 PUSH1 0x20 DUP3 ADD SWAP1 POP DUP2 DUP2 SUB PUSH1 0x0 DUP4 ADD MSTORE PUSH2 0xDAC DUP2 PUSH2 0xD70 JUMP JUMPDEST SWAP1 POP SWAP2 SWAP1 POP JUMP JUMPDEST PUSH32 0x70656E64696E6720657870697265640000000000000000000000000000000000 PUSH1 0x0 DUP3 ADD MSTORE POP JUMP JUMPDEST PUSH1 0x0 PUSH2 0xDE9 PUSH1 0xF DUP4 PUSH2 0x818 JUMP JUMPDEST SWAP2 POP PUSH2 0xDF4 DUP3 PUSH2 0xDB3 JUMP JUMPDEST PUSH1 0x20 DUP3 ADD SWAP1 POP SWAP2 SWAP1 POP JUMP JUMPDEST PUSH1 0x0 PUSH1 0x20 DUP3 ADD SWAP1 POP DUP2 DUP2 SUB PUSH1 0x0 DUP4 ADD MSTORE PUSH2 0xE18 DUP2 PUSH2 0xDDC JUMP JUMPDEST SWAP1 POP SWAP2 SWAP1 POP JUMP INVALID LOG2 PUSH5 0x6970667358 0x22 SLT KECCAK256 MLOAD 0xCF 0xED 0xAC 0xCE PREVRANDAO SWAP12 0x1E SUB 0xB9 SGT 0xF 0x2A 0xCD 0xCE 0xF 0xC6 SDIV PUSH31 0xB21317B8AC7BAF02666EB0594664736F6C6343000813003300000000000000 "
		},
		"gasEstimates": {
			"creation": {
				"codeDepositCost": "733800",
				"executionCost": "22872",
				"totalCost": "756672"
			},
			"external": {
				"addTodo(string)": "infinite",
				"expiredPeriod()": "2517",
				"movePendingToTodo(uint256)": "40675",
				"moveTodoToPending(uint256)": "infinite",
				"setTodoCompleted(uint256)": "31360",
				"todos(uint256)": "infinite"
			}
		},
		"methodIdentifiers": {
			"addTodo(string)": "95ffebf5",
			"expiredPeriod()": "f2d697a0",
			"movePendingToTodo(uint256)": "a9ceebfc",
			"moveTodoToPending(uint256)": "622b52f8",
			"setTodoCompleted(uint256)": "bab7a47d",
			"todos(uint256)": "bc8bc2b4"
		}
	},
	"abi": [
		{
			"inputs": [],
			"stateMutability": "nonpayable",
			"type": "constructor"
		},
		{
			"inputs": [
				{
					"internalType": "string",
					"name": "_title",
					"type": "string"
				}
			],
			"name": "addTodo",
			"outputs": [],
			"stateMutability": "nonpayable",
			"type": "function"
		},
		{
			"inputs": [],
			"name": "expiredPeriod",
			"outputs": [
				{
					"internalType": "uint256",
					"name": "",
					"type": "uint256"
				}
			],
			"stateMutability": "view",
			"type": "function"
		},
		{
			"inputs": [
				{
					"internalType": "uint256",
					"name": "_index",
					"type": "uint256"
				}
			],
			"name": "movePendingToTodo",
			"outputs": [],
			"stateMutability": "nonpayable",
			"type": "function"
		},
		{
			"inputs": [
				{
					"internalType": "uint256",
					"name": "_index",
					"type": "uint256"
				}
			],
			"name": "moveTodoToPending",
			"outputs": [],
			"stateMutability": "nonpayable",
			"type": "function"
		},
		{
			"inputs": [
				{
					"internalType": "uint256",
					"name": "_index",
					"type": "uint256"
				}
			],
			"name": "setTodoCompleted",
			"outputs": [],
			"stateMutability": "nonpayable",
			"type": "function"
		},
		{
			"inputs": [
				{
					"internalType": "uint256",
					"name": "",
					"type": "uint256"
				}
			],
			"name": "todos",
			"outputs": [
				{
					"internalType": "string",
					"name": "title",
					"type": "string"
				},
				{
					"internalType": "enum TodoList.Status",
					"name": "status",
					"type": "uint8"
				},
				{
					"internalType": "uint256",
					"name": "expired",
					"type": "uint256"
				}
			],
			"stateMutability": "view",
			"type": "function"
		}
	]
}