{
	"data": {
		"bytecode": {
			"linkReferences": {},
			"object": "60a060405260405180604001604052806000815260200160008152506002600082015181600001556020820151816001015550503480156200004057600080fd5b5060405162009483380380620094838339818101604052810190620000669190620002f3565b620000866200007a620001bd60201b60201c565b620001c560201b60201c565b8373ffffffffffffffffffffffffffffffffffffffff1660808173ffffffffffffffffffffffffffffffffffffffff168152505082600c60006001815260200190815260200160002060006101000a81548173ffffffffffffffffffffffffffffffffffffffff021916908373ffffffffffffffffffffffffffffffffffffffff16021790555081600c60006002815260200190815260200160002060006101000a81548173ffffffffffffffffffffffffffffffffffffffff021916908373ffffffffffffffffffffffffffffffffffffffff16021790555080600c60006003815260200190815260200160002060006101000a81548173ffffffffffffffffffffffffffffffffffffffff021916908373ffffffffffffffffffffffffffffffffffffffff1602179055505050505062000365565b600033905090565b60008060009054906101000a900473ffffffffffffffffffffffffffffffffffffffff169050816000806101000a81548173ffffffffffffffffffffffffffffffffffffffff021916908373ffffffffffffffffffffffffffffffffffffffff1602179055508173ffffffffffffffffffffffffffffffffffffffff168173ffffffffffffffffffffffffffffffffffffffff167f8be0079c531659141344cd1fd0a4f28419497f9722a3daafe3b4186f6b6457e060405160405180910390a35050565b600080fd5b600073ffffffffffffffffffffffffffffffffffffffff82169050919050565b6000620002bb826200028e565b9050919050565b620002cd81620002ae565b8114620002d957600080fd5b50565b600081519050620002ed81620002c2565b92915050565b6000806000806080858703121562000310576200030f62000289565b5b60006200032087828801620002dc565b94505060206200033387828801620002dc565b93505060406200034687828801620002dc565b92505060606200035987828801620002dc565b91505092959194509250565b6080516190d1620003b260003960008181612428015281816128fe0152818161312c01528181614f0d015281816151b6015281816154c201528181615b8501526164ab01526190d16000f3fe608060405234801561001057600080fd5b50600436106102735760003560e01c80639860037e11610151578063d346cbd9116100c3578063e4e8184711610087578063e4e81847146107a5578063ed23c906146107c1578063f2fde38b146107dd578063f4c6f602146107f9578063f567918914610829578063fe31446c1461085957610273565b8063d346cbd9146106f0578063d363dc171461070c578063d7464ee914610728578063d9f11fb214610759578063e0347e4f1461078957610273565b8063aceb362911610115578063aceb362914610633578063b4f957521461064f578063b682e85914610680578063bb628f201461069c578063bd5023a9146106b8578063c63389c3146106d457610273565b80639860037e1461056557806398ada4a2146105955780639dcaafb4146105c6578063ac4afa38146105e2578063ac7ad9ba1461061557610273565b8063304f88c0116101ea578063715018a6116101ae578063715018a6146104da578063770dade5146104e45780637f60d338146105055780638279e760146105215780638da5cb5b1461052b5780638ecbffa71461054957610273565b8063304f88c014610439578063381b46821461046a57806346583a051461048657806351eb05a6146104a257806357a26300146104be57610273565b80630bb4d82a1161023c5780630bb4d82a146103555780630ed368f11461038557806320a325d0146103b557806326fb2249146103d15780632c018f91146103ed5780632ee2de661461041d57610273565b8062191b441461027857806304238994146102a857806305ece226146102d857806307f5fa4a1461030957806309e833c614610325575b600080fd5b610292600480360381019061028d919061737b565b610875565b60405161029f919061751a565b60405180910390f35b6102c260048036038101906102bd919061737b565b610889565b6040516102cf919061751a565b60405180910390f35b6102f260048036038101906102ed919061737b565b610b23565b604051610300929190617564565b60405180910390f35b610323600480360381019061031e91906175f2565b610b47565b005b61033f600480360381019061033a91906176b3565b610b72565b60405161034c9190617790565b60405180910390f35b61036f600480360381019061036a91906177ab565b610c9c565b60405161037c9190617837565b60405180910390f35b61039f600480360381019061039a919061737b565b610ccf565b6040516103ac919061751a565b60405180910390f35b6103cf60048036038101906103ca91906178a8565b611012565b005b6103eb60048036038101906103e6919061794b565b611023565b005b610407600480360381019061040291906179cc565b61104b565b6040516104149190617a1f565b60405180910390f35b6104376004803603810190610432919061737b565b611409565b005b610453600480360381019061044e91906176b3565b6114bb565b604051610461929190617a8f565b60405180910390f35b610484600480360381019061047f91906178a8565b611524565b005b6104a0600480360381019061049b9190617b0e565b611535565b005b6104bc60048036038101906104b791906177ab565b611545565b005b6104d860048036038101906104d39190617b5b565b6118db565b005b6104e26118ed565b005b6104ec611901565b6040516104fc9493929190617c52565b60405180910390f35b61051f600480360381019061051a91906177ab565b6122fd565b005b61052961230a565b005b610533612315565b6040516105409190617ca9565b60405180910390f35b610563600480360381019061055e9190617b0e565b61233e565b005b61057f600480360381019061057a919061737b565b61234e565b60405161058c919061751a565b60405180910390f35b6105af60048036038101906105aa91906176b3565b612362565b6040516105bd929190617564565b60405180910390f35b6105e060048036038101906105db91906177ab565b612393565b005b6105fc60048036038101906105f791906177ab565b6123a0565b60405161060c9493929190617cff565b60405180910390f35b61061d612426565b60405161062a9190617d65565b60405180910390f35b61064d60048036038101906106489190617d80565b61244a565b005b610669600480360381019061066491906176b3565b61245c565b604051610677929190617a8f565b60405180910390f35b61069a60048036038101906106959190617b5b565b6124c5565b005b6106b660048036038101906106b19190617de0565b6124d7565b005b6106d260048036038101906106cd9190617e5b565b612855565b005b6106ee60048036038101906106e99190617b0e565b6129f2565b005b61070a60048036038101906107059190617ef1565b612a03565b005b610726600480360381019061072191906177ab565b612a2b565b005b610742600480360381019061073d9190617f72565b612aea565b604051610750929190617fc5565b60405180910390f35b610773600480360381019061076e919061737b565b612ef5565b6040516107809190618069565b60405180910390f35b6107a3600480360381019061079e9190618084565b613050565b005b6107bf60048036038101906107ba9190617e5b565b613063565b005b6107db60048036038101906107d69190617d80565b61321e565b005b6107f760048036038101906107f2919061737b565b613230565b005b610813600480360381019061080e919061737b565b6132b4565b604051610820919061751a565b60405180910390f35b610843600480360381019061083e919061737b565b6132c8565b6040516108509190617a1f565b60405180910390f35b610873600480360381019061086e9190617b0e565b61335f565b005b6060610882826003613370565b9050919050565b6060600061089683612ef5565b905060006108a38461234e565b905060006108b0856132b4565b905060006108bd86610875565b905060006108ca87610ccf565b90506000600182518451865188516108e29190618134565b6108ec9190618134565b6108f69190618134565b6109009190618134565b905060008167ffffffffffffffff81111561091e5761091d61818a565b5b60405190808252806020026020018201604052801561095757816020015b6109446171a3565b81526020019060019003908161093c5790505b5090506000878282815181106109705761096f6181b9565b5b602002602001018190525080610985906181e8565b905060005b87518110156109e9578781815181106109a6576109a56181b9565b5b60200260200101518383815181106109c1576109c06181b9565b5b6020026020010181905250816109d6906181e8565b9150806109e2906181e8565b905061098a565b5060005b8651811015610a4c57868181518110610a0957610a086181b9565b5b6020026020010151838381518110610a2457610a236181b9565b5b602002602001018190525081610a39906181e8565b915080610a45906181e8565b90506109ed565b5060005b8551811015610aaf57858181518110610a6c57610a6b6181b9565b5b6020026020010151838381518110610a8757610a866181b9565b5b602002602001018190525081610a9c906181e8565b915080610aa8906181e8565b9050610a50565b5060005b8451811015610b1257848181518110610acf57610ace6181b9565b5b6020026020010151838381518110610aea57610ae96181b9565b5b602002602001018190525081610aff906181e8565b915080610b0b906181e8565b9050610ab3565b508198505050505050505050919050565b60016020528060005260406000206000915090508060000154908060010154905082565b610b516003611545565b610b5e60018686846138c1565b610b6b60028484846138c1565b5050505050565b610b7a6171df565b60048360048110610b8e57610b8d6181b9565b5b600202016001018281548110610ba757610ba66181b9565b5b90600052602060002090600202016040518060800160405290816000820160009054906101000a900465ffffffffffff1665ffffffffffff1665ffffffffffff1681526020016000820160069054906101000a900465ffffffffffff1665ffffffffffff1665ffffffffffff16815260200160008201600c9054906101000a90046bffffffffffffffffffffffff166bffffffffffffffffffffffff166bffffffffffffffffffffffff1681526020016001820160009054906101000a90046bffffffffffffffffffffffff166bffffffffffffffffffffffff166bffffffffffffffffffffffff1681525050905092915050565b600c6020528060005260406000206000915054906101000a900473ffffffffffffffffffffffffffffffffffffffff1681565b60606000610d8c600c60006001815260200190815260200160002060009054906101000a900473ffffffffffffffffffffffffffffffffffffffff1673ffffffffffffffffffffffffffffffffffffffff166370a08231856040518263ffffffff1660e01b8152600401610d439190617ca9565b602060405180830381865afa158015610d60573d6000803e3d6000fd5b505050506040513d601f19601f82011682018060405250810190610d849190618246565b846001613d86565b90506000610e49600c60006002815260200190815260200160002060009054906101000a900473ffffffffffffffffffffffffffffffffffffffff1673ffffffffffffffffffffffffffffffffffffffff166370a08231866040518263ffffffff1660e01b8152600401610e009190617ca9565b602060405180830381865afa158015610e1d573d6000803e3d6000fd5b505050506040513d601f19601f82011682018060405250810190610e419190618246565b856002613d86565b905060008183610e599190618134565b90506000811415610ec357600067ffffffffffffffff811115610e7f57610e7e61818a565b5b604051908082528060200260200182016040528015610eb857816020015b610ea56171a3565b815260200190600190039081610e9d5790505b50935050505061100d565b6000610ed18487600161400c565b90506000610ee18488600261400c565b905060008367ffffffffffffffff811115610eff57610efe61818a565b5b604051908082528060200260200182016040528015610f3857816020015b610f256171a3565b815260200190600190039081610f1d5790505b5090506000805b8451811015610f9e57848181518110610f5b57610f5a6181b9565b5b6020026020010151838381518110610f7657610f756181b9565b5b602002602001018190525081610f8b906181e8565b915080610f97906181e8565b9050610f3f565b5060005b835181101561100157838181518110610fbe57610fbd6181b9565b5b6020026020010151838381518110610fd957610fd86181b9565b5b602002602001018190525081610fee906181e8565b915080610ffa906181e8565b9050610fa2565b50819750505050505050505b919050565b61101f60018383336145b9565b5050565b61102d6003611545565b611039600185856147a1565b611045600283836147a1565b50505050565b60008060048560048110611062576110616181b9565b5b600202016040518060a00160405290816000820160009054906101000a900465ffffffffffff1665ffffffffffff1665ffffffffffff1681526020016000820160069054906101000a900461ffff1661ffff1661ffff1681526020016000820160089054906101000a90046bffffffffffffffffffffffff166bffffffffffffffffffffffff166bffffffffffffffffffffffff1681526020016000820160149054906101000a90046bffffffffffffffffffffffff166bffffffffffffffffffffffff166bffffffffffffffffffffffff16815260200160018201805480602002602001604051908101604052809291908181526020016000905b8282101561126457838290600052602060002090600202016040518060800160405290816000820160009054906101000a900465ffffffffffff1665ffffffffffff1665ffffffffffff1681526020016000820160069054906101000a900465ffffffffffff1665ffffffffffff1665ffffffffffff16815260200160008201600c9054906101000a90046bffffffffffffffffffffffff166bffffffffffffffffffffffff166bffffffffffffffffffffffff1681526020016001820160009054906101000a90046bffffffffffffffffffffffff166bffffffffffffffffffffffff166bffffffffffffffffffffffff16815250508152602001906001019061115e565b5050505081525050905060008086146112a057600d600087815260200190815260200160002060008581526020019081526020016000206112e0565b600160008673ffffffffffffffffffffffffffffffffffffffff1673ffffffffffffffffffffffffffffffffffffffff1681526020019081526020016000205b604051806040016040529081600082015481526020016001820154815250509050600061132187846000015165ffffffffffff1661131c61501f565b612aea565b509050600083606001516bffffffffffffffffffffffff169050610e10846000015165ffffffffffff166113559190618134565b421180156113765750600084604001516bffffffffffffffffffffffff1614155b156113ba5783604001516bffffffffffffffffffffffff16670de0b6b3a7640000836113a29190618273565b6113ac91906182fc565b816113b79190618134565b90505b670de0b6b3a76400006113f284602001516113e38487600001516113de9190618273565b615059565b6113ed919061832d565b6150c6565b6113fc91906182fc565b9450505050509392505050565b6114136000611545565b6000600160003373ffffffffffffffffffffffffffffffffffffffff1673ffffffffffffffffffffffffffffffffffffffff1681526020019081526020016000209050600061146460008385615113565b90503373ffffffffffffffffffffffffffffffffffffffff167f030f754a3e747235920c21afeca14e881b260d41c7e657ada6c0b049f7eebca982856040516114ae9291906183c1565b60405180910390a2505050565b600e602052816000526040600020602052806000526040600020600091509150508060000160009054906101000a90047effffffffffffffffffffffffffffffffffffffffffffffffffffffffffffff169080600001601f9054906101000a900460ff16905082565b61153160028383336145b9565b5050565b6115416001838361525d565b5050565b60006004826004811061155b5761155a6181b9565b5b60020201905080600101600081548110611578576115776181b9565b5b906000526020600020906002020160000160009054906101000a900465ffffffffffff1665ffffffffffff164210156115b157506118d8565b610e108160000160009054906101000a900465ffffffffffff1665ffffffffffff166115dd9190618134565b42116115e957506118d8565b6000816001016001836001018054905061160391906183ea565b81548110611614576116136181b9565b5b906000526020600020906002020160000160069054906101000a900465ffffffffffff169050600061164c61164761501f565b61556c565b905060008360000160089054906101000a90046bffffffffffffffffffffffff166bffffffffffffffffffffffff1614156116ce578165ffffffffffff168165ffffffffffff161161169e57806116a0565b815b8360000160006101000a81548165ffffffffffff021916908365ffffffffffff1602179055505050506118d8565b600080611702868660000160009054906101000a900465ffffffffffff1665ffffffffffff168565ffffffffffff16612aea565b91509150808560000160069054906101000a900461ffff1661ffff161461174b5761172c816155c1565b8560000160066101000a81548161ffff021916908361ffff1602179055505b6117d18560000160089054906101000a90046bffffffffffffffffffffffff166bffffffffffffffffffffffff16670de0b6b3a76400008461178d9190618273565b61179791906182fc565b8660000160149054906101000a90046bffffffffffffffffffffffff166bffffffffffffffffffffffff166117cc9190618134565b615612565b8560000160146101000a8154816bffffffffffffffffffffffff02191690836bffffffffffffffffffffffff1602179055508365ffffffffffff168365ffffffffffff16116118205782611822565b835b8560000160006101000a81548165ffffffffffff021916908365ffffffffffff160217905550857f3be3541fc42237d611b30329040bfa4569541d156560acdbbae57640d20b8f468660000160009054906101000a900465ffffffffffff168760000160089054906101000a90046bffffffffffffffffffffffff168860000160149054906101000a90046bffffffffffffffffffffffff166040516118ca93929190618480565b60405180910390a250505050505b50565b6118e860028484846145b9565b505050565b6118f561566d565b6118ff60006156eb565b565b611909617233565b611911617233565b611919617233565b611921617233565b60006004600060048110611938576119376181b9565b5b600202016040518060a00160405290816000820160009054906101000a900465ffffffffffff1665ffffffffffff1665ffffffffffff1681526020016000820160069054906101000a900461ffff1661ffff1661ffff1681526020016000820160089054906101000a90046bffffffffffffffffffffffff166bffffffffffffffffffffffff166bffffffffffffffffffffffff1681526020016000820160149054906101000a90046bffffffffffffffffffffffff166bffffffffffffffffffffffff166bffffffffffffffffffffffff16815260200160018201805480602002602001604051908101604052809291908181526020016000905b82821015611b3a57838290600052602060002090600202016040518060800160405290816000820160009054906101000a900465ffffffffffff1665ffffffffffff1665ffffffffffff1681526020016000820160069054906101000a900465ffffffffffff1665ffffffffffff1665ffffffffffff16815260200160008201600c9054906101000a90046bffffffffffffffffffffffff166bffffffffffffffffffffffff166bffffffffffffffffffffffff1681526020016001820160009054906101000a90046bffffffffffffffffffffffff166bffffffffffffffffffffffff166bffffffffffffffffffffffff168152505081526020019060010190611a34565b5050505081525050905060006004600160048110611b5b57611b5a6181b9565b5b600202016040518060a00160405290816000820160009054906101000a900465ffffffffffff1665ffffffffffff1665ffffffffffff1681526020016000820160069054906101000a900461ffff1661ffff1661ffff1681526020016000820160089054906101000a90046bffffffffffffffffffffffff166bffffffffffffffffffffffff166bffffffffffffffffffffffff1681526020016000820160149054906101000a90046bffffffffffffffffffffffff166bffffffffffffffffffffffff166bffffffffffffffffffffffff16815260200160018201805480602002602001604051908101604052809291908181526020016000905b82821015611d5d57838290600052602060002090600202016040518060800160405290816000820160009054906101000a900465ffffffffffff1665ffffffffffff1665ffffffffffff1681526020016000820160069054906101000a900465ffffffffffff1665ffffffffffff1665ffffffffffff16815260200160008201600c9054906101000a90046bffffffffffffffffffffffff166bffffffffffffffffffffffff166bffffffffffffffffffffffff1681526020016001820160009054906101000a90046bffffffffffffffffffffffff166bffffffffffffffffffffffff166bffffffffffffffffffffffff168152505081526020019060010190611c57565b5050505081525050905060006004600260048110611d7e57611d7d6181b9565b5b600202016040518060a00160405290816000820160009054906101000a900465ffffffffffff1665ffffffffffff1665ffffffffffff1681526020016000820160069054906101000a900461ffff1661ffff1661ffff1681526020016000820160089054906101000a90046bffffffffffffffffffffffff166bffffffffffffffffffffffff166bffffffffffffffffffffffff1681526020016000820160149054906101000a90046bffffffffffffffffffffffff166bffffffffffffffffffffffff166bffffffffffffffffffffffff16815260200160018201805480602002602001604051908101604052809291908181526020016000905b82821015611f8057838290600052602060002090600202016040518060800160405290816000820160009054906101000a900465ffffffffffff1665ffffffffffff1665ffffffffffff1681526020016000820160069054906101000a900465ffffffffffff1665ffffffffffff1665ffffffffffff16815260200160008201600c9054906101000a90046bffffffffffffffffffffffff166bffffffffffffffffffffffff166bffffffffffffffffffffffff1681526020016001820160009054906101000a90046bffffffffffffffffffffffff166bffffffffffffffffffffffff166bffffffffffffffffffffffff168152505081526020019060010190611e7a565b5050505081525050905060006004600360048110611fa157611fa06181b9565b5b600202016040518060a00160405290816000820160009054906101000a900465ffffffffffff1665ffffffffffff1665ffffffffffff1681526020016000820160069054906101000a900461ffff1661ffff1661ffff1681526020016000820160089054906101000a90046bffffffffffffffffffffffff166bffffffffffffffffffffffff166bffffffffffffffffffffffff1681526020016000820160149054906101000a90046bffffffffffffffffffffffff166bffffffffffffffffffffffff166bffffffffffffffffffffffff16815260200160018201805480602002602001604051908101604052809291908181526020016000905b828210156121a357838290600052602060002090600202016040518060800160405290816000820160009054906101000a900465ffffffffffff1665ffffffffffff1665ffffffffffff1681526020016000820160069054906101000a900465ffffffffffff1665ffffffffffff1665ffffffffffff16815260200160008201600c9054906101000a90046bffffffffffffffffffffffff166bffffffffffffffffffffffff166bffffffffffffffffffffffff1681526020016001820160009054906101000a90046bffffffffffffffffffffffff166bffffffffffffffffffffffff166bffffffffffffffffffffffff16815250508152602001906001019061209d565b5050505081525050905060006121b8856157af565b905060405180606001604052806000815260200186604001516bffffffffffffffffffffffff168152602001866080015183815181106121fb576121fa6181b9565b5b602002602001015181525060405180606001604052806001815260200186604001516bffffffffffffffffffffffff16815260200186608001518481518110612247576122466181b9565b5b602002602001015181525060405180606001604052806002815260200186604001516bffffffffffffffffffffffff16815260200186608001518581518110612293576122926181b9565b5b602002602001015181525060405180606001604052806003815260200186604001516bffffffffffffffffffffffff168152602001866080015186815181106122df576122de6181b9565b5b60200260200101518152509850985098509850505050505090919293565b6123078133613063565b50565b61231333611409565b565b60008060009054906101000a900473ffffffffffffffffffffffffffffffffffffffff16905090565b61234a6002838361525d565b5050565b606061235b826001613370565b9050919050565b600d602052816000526040600020602052806000526040600020600091509150508060000154908060010154905082565b61239d8133612855565b50565b600481600481106123b057600080fd5b600202016000915090508060000160009054906101000a900465ffffffffffff16908060000160069054906101000a900461ffff16908060000160089054906101000a90046bffffffffffffffffffffffff16908060000160149054906101000a90046bffffffffffffffffffffffff16905084565b7f000000000000000000000000000000000000000000000000000000000000000081565b61245760018484846158bd565b505050565b600f602052816000526040600020602052806000526040600020600091509150508060000160009054906101000a90047effffffffffffffffffffffffffffffffffffffffffffffffffffffffffffff169080600001601f9054906101000a900460ff16905082565b6124d260018484846145b9565b505050565b6124df61566d565b600385111561251a576040517f0afa7ee800000000000000000000000000000000000000000000000000000000815260040160405180910390fd5b818310612553576040517fd67e310900000000000000000000000000000000000000000000000000000000815260040160405180910390fd5b600061255e84615c2e565b11806125725750600061257084615c56565b115b156125a9576040517ff7985df100000000000000000000000000000000000000000000000000000000815260040160405180910390fd5b60006125b483615c2e565b11806125c8575060006125c683615c56565b115b156125ff576040517f8b853e2500000000000000000000000000000000000000000000000000000000815260040160405180910390fd5b600060048660048110612615576126146181b9565b5b60020201905060008160010180549050905060008111156126b7578160010160018261264191906183ea565b81548110612652576126516181b9565b5b906000526020600020906002020160000160069054906101000a900465ffffffffffff1665ffffffffffff1685146126b6576040517f9424dcd900000000000000000000000000000000000000000000000000000000815260040160405180910390fd5b5b600085856126c591906183ea565b9050600081610e10896126d89190618273565b6126e291906182fc565b9050600060405180608001604052806126fa8a61556c565b65ffffffffffff1681526020016127108961556c565b65ffffffffffff16815260200161272684615612565b6bffffffffffffffffffffffff16815260200161274288615612565b6bffffffffffffffffffffffff1681525090508460010181908060018154018082558091505060019003906000526020600020906002020160009091909190915060008201518160000160006101000a81548165ffffffffffff021916908365ffffffffffff16021790555060208201518160000160066101000a81548165ffffffffffff021916908365ffffffffffff160217905550604082015181600001600c6101000a8154816bffffffffffffffffffffffff02191690836bffffffffffffffffffffffff16021790555060608201518160010160006101000a8154816bffffffffffffffffffffffff02191690836bffffffffffffffffffffffff160217905550505050505050505050505050565b670de0b6b3a7640000600161286a9190618273565b8210156128a3576040517f50e75a8000000000000000000000000000000000000000000000000000000000815260040160405180910390fd5b6128ad6000611545565b6000600160008373ffffffffffffffffffffffffffffffffffffffff1673ffffffffffffffffffffffffffffffffffffffff16815260200190815260200160002090506128fc60008285615c6c565b7f000000000000000000000000000000000000000000000000000000000000000073ffffffffffffffffffffffffffffffffffffffff166323b872dd3330866040518463ffffffff1660e01b8152600401612959939291906184b7565b6020604051808303816000875af1158015612978573d6000803e3d6000fd5b505050506040513d601f19601f8201168201806040525081019061299c919061851a565b503373ffffffffffffffffffffffffffffffffffffffff167fe31c7b8d08ee7db0afa68782e1028ef92305caeea8626633ad44d413e30f6b2f84846040516129e59291906183c1565b60405180910390a2505050565b6129ff60028383336158bd565b5050565b612a0d6003611545565b612a1960018585615d62565b612a2560028383615d62565b50505050565b612a3361566d565b60048160048110612a4757612a466181b9565b5b60020201600101805480612a5e57612a5d618547565b5b6001900381819060005260206000209060020201600080820160006101000a81549065ffffffffffff02191690556000820160066101000a81549065ffffffffffff021916905560008201600c6101000a8154906bffffffffffffffffffffffff02191690556001820160006101000a8154906bffffffffffffffffffffffff02191690555050905550565b600080600060048660048110612b0357612b026181b9565b5b600202016040518060a00160405290816000820160009054906101000a900465ffffffffffff1665ffffffffffff1665ffffffffffff1681526020016000820160069054906101000a900461ffff1661ffff1661ffff1681526020016000820160089054906101000a90046bffffffffffffffffffffffff166bffffffffffffffffffffffff166bffffffffffffffffffffffff1681526020016000820160149054906101000a90046bffffffffffffffffffffffff166bffffffffffffffffffffffff166bffffffffffffffffffffffff16815260200160018201805480602002602001604051908101604052809291908181526020016000905b82821015612d0557838290600052602060002090600202016040518060800160405290816000820160009054906101000a900465ffffffffffff1665ffffffffffff1665ffffffffffff1681526020016000820160069054906101000a900465ffffffffffff1665ffffffffffff1665ffffffffffff16815260200160008201600c9054906101000a90046bffffffffffffffffffffffff166bffffffffffffffffffffffff166bffffffffffffffffffffffff1681526020016001820160009054906101000a90046bffffffffffffffffffffffff166bffffffffffffffffffffffff166bffffffffffffffffffffffff168152505081526020019060010190612bff565b505050508152505090506000816020015161ffff1690508160800151600081518110612d3457612d336181b9565b5b60200260200101516000015165ffffffffffff16851015612d5d57600081935093505050612eed565b5b81608001518181518110612d7557612d746181b9565b5b60200260200101516020015165ffffffffffff1686118015612dc0575081608001518181518110612da957612da86181b9565b5b60200260200101516020015165ffffffffffff1685115b15612dd057806001019050612d5e565b6000612dda6171df565b6000806000866080015151905060008690505b81811015612ed25787608001518181518110612e0c57612e0b6181b9565b5b60200260200101519450846000015165ffffffffffff168c1115612e30578b612e3e565b846000015165ffffffffffff165b9350846020015165ffffffffffff168b1115612e6657846020015165ffffffffffff16612e68565b8a5b9250610e1085604001516bffffffffffffffffffffffff168585612e8c91906183ea565b612e969190618273565b612ea091906182fc565b86612eab9190618134565b9550828b11612ec7578581995099505050505050505050612eed565b806001019050612ded565b5084600182612ee191906183ea565b98509850505050505050505b935093915050565b612efd6171a3565b600080600160008573ffffffffffffffffffffffffffffffffffffffff1673ffffffffffffffffffffffffffffffffffffffff1681526020019081526020016000206000015490506000808211612f55576000612fd5565b3073ffffffffffffffffffffffffffffffffffffffff16632c018f91600087866040518463ffffffff1660e01b8152600401612f93939291906185b1565b602060405180830381865afa158015612fb0573d6000803e3d6000fd5b505050506040513d601f19601f82011682018060405250810190612fd49190618246565b5b90506000808311612fe7576000612ff5565b612ff46000876000616554565b5b90506040518060c0016040528060008152602001858152602001848152602001838152602001828152602001600260405180604001604052908160008201548152602001600182015481525050815250945050505050919050565b61305d8484848433610b47565b50505050565b61306d6000611545565b6000600160003373ffffffffffffffffffffffffffffffffffffffff1673ffffffffffffffffffffffffffffffffffffffff1681526020019081526020016000209050806000015483141561311e5760006130ca60008385615113565b90503373ffffffffffffffffffffffffffffffffffffffff167f030f754a3e747235920c21afeca14e881b260d41c7e657ada6c0b049f7eebca982856040516131149291906183c1565b60405180910390a2505b61312a60008285616877565b7f000000000000000000000000000000000000000000000000000000000000000073ffffffffffffffffffffffffffffffffffffffff1663a9059cbb83856040518363ffffffff1660e01b81526004016131859291906185e8565b6020604051808303816000875af11580156131a4573d6000803e3d6000fd5b505050506040513d601f19601f820116820180604052508101906131c8919061851a565b503373ffffffffffffffffffffffffffffffffffffffff167f56c54ba9bd38d8fd62012e42c7ee564519b09763c426d331b3661b537ead19b284846040516132119291906183c1565b60405180910390a2505050565b61322b60028484846158bd565b505050565b61323861566d565b600073ffffffffffffffffffffffffffffffffffffffff168173ffffffffffffffffffffffffffffffffffffffff1614156132a8576040517f08c379a000000000000000000000000000000000000000000000000000000000815260040161329f90618694565b60405180910390fd5b6132b1816156eb565b50565b60606132c1826002613370565b9050919050565b600080600160008473ffffffffffffffffffffffffffffffffffffffff1673ffffffffffffffffffffffffffffffffffffffff16815260200190815260200160002060000154905061331b6001846169ab565b816133269190618134565b90506133336002846169ab565b8161333e9190618134565b905061334983616b74565b816133549190618134565b905080915050919050565b61336c60018383336158bd565b5050565b60606000600c600084815260200190815260200160002060009054906101000a900473ffffffffffffffffffffffffffffffffffffffff1673ffffffffffffffffffffffffffffffffffffffff166370a08231856040518263ffffffff1660e01b81526004016133e09190617ca9565b602060405180830381865afa1580156133fd573d6000803e3d6000fd5b505050506040513d601f19601f820116820180604052508101906134219190618246565b9050600080821161348657600067ffffffffffffffff8111156134475761344661818a565b5b60405190808252806020026020018201604052801561348057816020015b61346d6171a3565b8152602001906001900390816134655790505b506134db565b8167ffffffffffffffff8111156134a05761349f61818a565b5b6040519080825280602002602001820160405280156134d957816020015b6134c66171a3565b8152602001906001900390816134be5790505b505b905060008214156134f05780925050506138bb565b60005b828110156138b4576000600c600087815260200190815260200160002060009054906101000a900473ffffffffffffffffffffffffffffffffffffffff1673ffffffffffffffffffffffffffffffffffffffff16632f745c5988846040518363ffffffff1660e01b815260040161356b9291906185e8565b602060405180830381865afa158015613588573d6000803e3d6000fd5b505050506040513d601f19601f820116820180604052508101906135ac9190618246565b90506000600d6000888152602001908152602001600020600083815260200190815260200160002060000154905060008082116135ea576000613669565b3073ffffffffffffffffffffffffffffffffffffffff16632c018f91898b866040518463ffffffff1660e01b8152600401613627939291906186b4565b602060405180830381865afa158015613644573d6000803e3d6000fd5b505050506040513d601f19601f820116820180604052508101906136689190618246565b5b9050600080831161367b576000613687565b613686898b86616554565b5b90506000600260405180604001604052908160008201548152602001600182015481525050905060038a141561384d57600f6000868152602001908152602001600020600060018152602001908152602001600020600001601f9054906101000a900460ff1615613783576040518060400160405280600f600088815260200190815260200160002060006001815260200190815260200160002060000160009054906101000a90047effffffffffffffffffffffffffffffffffffffffffffffffffffffffffffff167effffffffffffffffffffffffffffffffffffffffffffffffffffffffffffff1681526020016001815250905061384c565b600f6000868152602001908152602001600020600060028152602001908152602001600020600001601f9054906101000a900460ff161561384b576040518060400160405280600f600088815260200190815260200160002060006002815260200190815260200160002060000160009054906101000a90047effffffffffffffffffffffffffffffffffffffffffffffffffffffffffffff167effffffffffffffffffffffffffffffffffffffffffffffffffffffffffffff168152602001600281525090505b5b5b60006040518060c001604052808c815260200187815260200186815260200185815260200184815260200183815250905080888881518110613892576138916181b9565b5b6020026020010181905250505050505050806138ad906181e8565b90506134f3565b5080925050505b92915050565b60008383905090506000806000806000805b86811015613d79578989828181106138ee576138ed6181b9565b5b90506040020160000160208101906139069190618733565b6fffffffffffffffffffffffffffffffff1695503373ffffffffffffffffffffffffffffffffffffffff16600c60008d815260200190815260200160002060009054906101000a900473ffffffffffffffffffffffffffffffffffffffff1673ffffffffffffffffffffffffffffffffffffffff16636352211e886040518263ffffffff1660e01b815260040161399d9190617a1f565b602060405180830381865afa1580156139ba573d6000803e3d6000fd5b505050506040513d601f19601f820116820180604052508101906139de9190618775565b73ffffffffffffffffffffffffffffffffffffffff1614613a2b576040517f2b19ae7500000000000000000000000000000000000000000000000000000000815260040160405180910390fd5b898982818110613a3e57613a3d6181b9565b5b9050604002016020016020810190613a569190618733565b6fffffffffffffffffffffffffffffffff1694503373ffffffffffffffffffffffffffffffffffffffff16600c60006003815260200190815260200160002060009054906101000a900473ffffffffffffffffffffffffffffffffffffffff1673ffffffffffffffffffffffffffffffffffffffff16636352211e876040518263ffffffff1660e01b8152600401613aee9190617a1f565b602060405180830381865afa158015613b0b573d6000803e3d6000fd5b505050506040513d601f19601f82011682018060405250810190613b2f9190618775565b73ffffffffffffffffffffffffffffffffffffffff1614613b7c576040517f2c8348bb00000000000000000000000000000000000000000000000000000000815260040160405180910390fd5b600e60008c815260200190815260200160002060008781526020019081526020016000209250600f600086815260200190815260200160002060008c81526020019081526020016000209150848360000160009054906101000a90047effffffffffffffffffffffffffffffffffffffffffffffffffffffffffffff167effffffffffffffffffffffffffffffffffffffffffffffffffffffffffffff16141580613c36575082600001601f9054906101000a900460ff16155b80613c915750858260000160009054906101000a90047effffffffffffffffffffffffffffffffffffffffffffffffffffffffffffff167effffffffffffffffffffffffffffffffffffffffffffffffffffffffffffff1614155b80613cab575081600001601f9054906101000a900460ff16155b15613ce2576040517fccc819da00000000000000000000000000000000000000000000000000000000815260040160405180910390fd5b600d600060038152602001908152602001600020600086815260200190815260200160002093506000613d176003868b615113565b90503373ffffffffffffffffffffffffffffffffffffffff167f89d57e873af45054d40b801ca64ca06a1627c5682ab9be494a9f2846ef157d8a828e8a8a604051613d6594939291906187a2565b60405180910390a2816001019150506138d3565b5050505050505050505050565b60008060005b85811015614000576000600c600086815260200190815260200160002060009054906101000a900473ffffffffffffffffffffffffffffffffffffffff1673ffffffffffffffffffffffffffffffffffffffff16632f745c5987846040518363ffffffff1660e01b8152600401613e049291906185e8565b602060405180830381865afa158015613e21573d6000803e3d6000fd5b505050506040513d601f19601f82011682018060405250810190613e459190618246565b9050600e60008681526020019081526020016000206000828152602001908152602001600020600001601f9054906101000a900460ff1615613fee576000600e6000878152602001908152602001600020600083815260200190815260200160002060000160009054906101000a90047effffffffffffffffffffffffffffffffffffffffffffffffffffffffffffff167effffffffffffffffffffffffffffffffffffffffffffffffffffffffffffff1690506000600c60006003815260200190815260200160002060009054906101000a900473ffffffffffffffffffffffffffffffffffffffff1673ffffffffffffffffffffffffffffffffffffffff16636352211e836040518263ffffffff1660e01b8152600401613f689190617a1f565b602060405180830381865afa158015613f85573d6000803e3d6000fd5b505050506040513d601f19601f82011682018060405250810190613fa99190618775565b90508773ffffffffffffffffffffffffffffffffffffffff168173ffffffffffffffffffffffffffffffffffffffff1614613feb5784613fe8906181e8565b94505b50505b5080613ff9906181e8565b9050613d8c565b50809150509392505050565b606060008467ffffffffffffffff81111561402a5761402961818a565b5b60405190808252806020026020018201604052801561406357816020015b6140506171a3565b8152602001906001900390816140485790505b509050600080600090505b600c600086815260200190815260200160002060009054906101000a900473ffffffffffffffffffffffffffffffffffffffff1673ffffffffffffffffffffffffffffffffffffffff166370a08231876040518263ffffffff1660e01b81526004016140da9190617ca9565b602060405180830381865afa1580156140f7573d6000803e3d6000fd5b505050506040513d601f19601f8201168201806040525081019061411b9190618246565b8110156145ac576000600c600087815260200190815260200160002060009054906101000a900473ffffffffffffffffffffffffffffffffffffffff1673ffffffffffffffffffffffffffffffffffffffff16632f745c5988846040518363ffffffff1660e01b81526004016141929291906185e8565b602060405180830381865afa1580156141af573d6000803e3d6000fd5b505050506040513d601f19601f820116820180604052508101906141d39190618246565b9050600e60008781526020019081526020016000206000828152602001908152602001600020600001601f9054906101000a900460ff161561459a576000600e6000888152602001908152602001600020600083815260200190815260200160002060000160009054906101000a90047effffffffffffffffffffffffffffffffffffffffffffffffffffffffffffff167effffffffffffffffffffffffffffffffffffffffffffffffffffffffffffff1690506000600c60006003815260200190815260200160002060009054906101000a900473ffffffffffffffffffffffffffffffffffffffff1673ffffffffffffffffffffffffffffffffffffffff16636352211e836040518263ffffffff1660e01b81526004016142f69190617a1f565b602060405180830381865afa158015614313573d6000803e3d6000fd5b505050506040513d601f19601f820116820180604052508101906143379190618775565b90508873ffffffffffffffffffffffffffffffffffffffff168173ffffffffffffffffffffffffffffffffffffffff1614614597576000600d600060038152602001908152602001600020600084815260200190815260200160002060000154905060008082116143a9576000614429565b3073ffffffffffffffffffffffffffffffffffffffff16632c018f91600385876040518463ffffffff1660e01b81526004016143e7939291906186b4565b602060405180830381865afa158015614404573d6000803e3d6000fd5b505050506040513d601f19601f820116820180604052508101906144289190618246565b5b9050600080831161443b576000614448565b61444760038587616554565b5b905060006002604051806040016040529081600082015481526020016001820154815250509050600f600087815260200190815260200160002060008d8152602001908152602001600020600001601f9054906101000a900460ff1615614534576040518060400160405280600f600089815260200190815260200160002060008f815260200190815260200160002060000160009054906101000a90047effffffffffffffffffffffffffffffffffffffffffffffffffffffffffffff167effffffffffffffffffffffffffffffffffffffffffffffffffffffffffffff1681526020018d81525090505b60006040518060c0016040528060038152602001888152602001868152602001858152602001848152602001838152509050808b8b8151811061457a576145796181b9565b5b60200260200101819052508961458f906181e8565b995050505050505b50505b50806145a5906181e8565b905061406e565b5081925050509392505050565b6145c284611545565b600080600085859050905060005b81811015614797578686828181106145eb576145ea6181b9565b5b9050602002013593503373ffffffffffffffffffffffffffffffffffffffff16600c60008a815260200190815260200160002060009054906101000a900473ffffffffffffffffffffffffffffffffffffffff1673ffffffffffffffffffffffffffffffffffffffff16636352211e866040518263ffffffff1660e01b81526004016146779190617a1f565b602060405180830381865afa158015614694573d6000803e3d6000fd5b505050506040513d601f19601f820116820180604052508101906146b89190618775565b73ffffffffffffffffffffffffffffffffffffffff1614614705576040517f5cd8319200000000000000000000000000000000000000000000000000000000815260040160405180910390fd5b6000600d60008a815260200190815260200160002060008681526020019081526020016000209050614738898288615113565b9350883373ffffffffffffffffffffffffffffffffffffffff167fd334b3114fc25cbd72389ff9c361d5f8b0924e35fa237c65ac209a2cdcf4ba138688604051614783929190617fc5565b60405180910390a3816001019150506145d0565b5050505050505050565b6000806147ac61725a565b60008060008088889050905060005b81811015615012578989828181106147d6576147d56181b9565b5b9050608002018036038101906147ec9190618961565b9550600c60008c815260200190815260200160002060009054906101000a900473ffffffffffffffffffffffffffffffffffffffff1673ffffffffffffffffffffffffffffffffffffffff16636352211e87600001516040518263ffffffff1660e01b815260040161485e91906189bf565b602060405180830381865afa15801561487b573d6000803e3d6000fd5b505050506040513d601f19601f8201168201806040525081019061489f9190618775565b9750600c60006003815260200190815260200160002060009054906101000a900473ffffffffffffffffffffffffffffffffffffffff1673ffffffffffffffffffffffffffffffffffffffff16636352211e87602001516040518263ffffffff1660e01b815260040161491291906189bf565b602060405180830381865afa15801561492f573d6000803e3d6000fd5b505050506040513d601f19601f820116820180604052508101906149539190618775565b96503373ffffffffffffffffffffffffffffffffffffffff168873ffffffffffffffffffffffffffffffffffffffff16146149ee573373ffffffffffffffffffffffffffffffffffffffff168773ffffffffffffffffffffffffffffffffffffffff16146149ed576040517f4a2f386500000000000000000000000000000000000000000000000000000000815260040160405180910390fd5b5b600e60008c81526020019081526020016000206000876000015163ffffffff1681526020019081526020016000209450600f6000876020015163ffffffff16815260200190815260200160002060008c81526020019081526020016000209350856020015163ffffffff168560000160009054906101000a90047effffffffffffffffffffffffffffffffffffffffffffffffffffffffffffff167effffffffffffffffffffffffffffffffffffffffffffffffffffffffffffff16141580614ac6575084600001601f9054906101000a900460ff16155b80614b2b5750856000015163ffffffff168460000160009054906101000a90047effffffffffffffffffffffffffffffffffffffffffffffffffffffffffffff167effffffffffffffffffffffffffffffffffffffffffffffffffffffffffffff1614155b80614b45575083600001601f9054906101000a900460ff16155b15614b7c576040517fccc819da00000000000000000000000000000000000000000000000000000000815260040160405180910390fd5b600d6000600381526020019081526020016000206000876020015163ffffffff16815260200190815260200160002092508560600151614c12578260000154866040015176ffffffffffffffffffffffffffffffffffffffffffffff161415614c11576040517f4614cb0200000000000000000000000000000000000000000000000000000000815260040160405180910390fd5b5b8673ffffffffffffffffffffffffffffffffffffffff168873ffffffffffffffffffffffffffffffffffffffff1614614c81578560600151614c80576040517fe373a08500000000000000000000000000000000000000000000000000000000815260040160405180910390fd5b5b856060015115614ec9576000614c996003858a615113565b9050604051806040016040528060007effffffffffffffffffffffffffffffffffffffffffffffffffffffffffffff16815260200160001515815250600e60008e81526020019081526020016000206000896000015163ffffffff16815260200190815260200160002060008201518160000160006101000a8154817effffffffffffffffffffffffffffffffffffffffffffffffffffffffffffff02191690837effffffffffffffffffffffffffffffffffffffffffffffffffffffffffffff160217905550602082015181600001601f6101000a81548160ff021916908315150217905550905050604051806040016040528060007effffffffffffffffffffffffffffffffffffffffffffffffffffffffffffff16815260200160001515815250600f6000896020015163ffffffff16815260200190815260200160002060008e815260200190815260200160002060008201518160000160006101000a8154817effffffffffffffffffffffffffffffffffffffffffffffffffffffffffffff02191690837effffffffffffffffffffffffffffffffffffffffffffffffffffffffffffff160217905550602082015181600001601f6101000a81548160ff0219169083151502179055509050503373ffffffffffffffffffffffffffffffffffffffff167f89d57e873af45054d40b801ca64ca06a1627c5682ab9be494a9f2846ef157d8a828e8a600001518b60200151604051614ebf94939291906189da565b60405180910390a2505b60008660600151614ef757866040015176ffffffffffffffffffffffffffffffffffffffffffffff16614efd565b83600001545b9050614f0b60038583616877565b7f000000000000000000000000000000000000000000000000000000000000000073ffffffffffffffffffffffffffffffffffffffff1663a9059cbb8a836040518363ffffffff1660e01b8152600401614f669291906185e8565b6020604051808303816000875af1158015614f85573d6000803e3d6000fd5b505050506040513d601f19601f82011682018060405250810190614fa9919061851a565b503373ffffffffffffffffffffffffffffffffffffffff167f63a13470c4507d4f2c9d1bad1b7d603229456f8ebe7d3048d5cd8a02cf8d1ee6828e8a600001518b60200151604051614ffe94939291906189da565b60405180910390a2816001019150506147bb565b5050505050505050505050565b600061502a42615c56565b603c61503542615c2e565b61503f9190618273565b6150499190618134565b4261505491906183ea565b905090565b60007f7fffffffffffffffffffffffffffffffffffffffffffffffffffffffffffffff8211156150be576040517f08c379a00000000000000000000000000000000000000000000000000000000081526004016150b590618a91565b60405180910390fd5b819050919050565b60008082121561510b576040517f08c379a000000000000000000000000000000000000000000000000000000000815260040161510290618afd565b60405180910390fd5b819050919050565b6000806004856004811061512a576151296181b9565b5b60020201905060006151748260000160149054906101000a90046bffffffffffffffffffffffff166bffffffffffffffffffffffff16866000015461516f9190618273565b615059565b9050670de0b6b3a7640000615197866001015483615192919061832d565b6150c6565b6151a191906182fc565b925080856001018190555060008314615254577f000000000000000000000000000000000000000000000000000000000000000073ffffffffffffffffffffffffffffffffffffffff1663a9059cbb85856040518363ffffffff1660e01b815260040161520f9291906185e8565b6020604051808303816000875af115801561522e573d6000803e3d6000fd5b505050506040513d601f19601f82011682018060405250810190615252919061851a565b505b50509392505050565b61526683611545565b6000806000808585905090506000805b828110156154b657878782818110615291576152906181b9565b5b90506040020160000160208101906152a99190618b1d565b63ffffffff169550600d60008a8152602001908152602001600020600087815260200190815260200160002093506000846000015414156153f6573373ffffffffffffffffffffffffffffffffffffffff16600c60008b815260200190815260200160002060009054906101000a900473ffffffffffffffffffffffffffffffffffffffff1673ffffffffffffffffffffffffffffffffffffffff16636352211e886040518263ffffffff1660e01b81526004016153679190617a1f565b602060405180830381865afa158015615384573d6000803e3d6000fd5b505050506040513d601f19601f820116820180604052508101906153a89190618775565b73ffffffffffffffffffffffffffffffffffffffff16146153f5576040517f5cd8319200000000000000000000000000000000000000000000000000000000815260040160405180910390fd5b5b878782818110615409576154086181b9565b5b90506040020160200160208101906154219190618b9e565b7bffffffffffffffffffffffffffffffffffffffffffffffffffffffff16945061544c898587617063565b84826154589190618134565b9150883373ffffffffffffffffffffffffffffffffffffffff167f8863bdbe28273fa04cbc67c9e51785cff607a419b43ee367e4c3c01edb1d7b5687896040516154a3929190617fc5565b60405180910390a3806001019050615276565b506000811115615562577f000000000000000000000000000000000000000000000000000000000000000073ffffffffffffffffffffffffffffffffffffffff166323b872dd3330846040518463ffffffff1660e01b815260040161551d939291906184b7565b6020604051808303816000875af115801561553c573d6000803e3d6000fd5b505050506040513d601f19601f82011682018060405250810190615560919061851a565b505b5050505050505050565b600065ffffffffffff80168211156155b9576040517f08c379a00000000000000000000000000000000000000000000000000000000081526004016155b090618c3d565b60405180910390fd5b819050919050565b600061ffff801682111561560a576040517f08c379a000000000000000000000000000000000000000000000000000000000815260040161560190618ccf565b60405180910390fd5b819050919050565b60006bffffffffffffffffffffffff8016821115615665576040517f08c379a000000000000000000000000000000000000000000000000000000000815260040161565c90618d61565b60405180910390fd5b819050919050565b61567561719b565b73ffffffffffffffffffffffffffffffffffffffff16615693612315565b73ffffffffffffffffffffffffffffffffffffffff16146156e9576040517f08c379a00000000000000000000000000000000000000000000000000000000081526004016156e090618dcd565b60405180910390fd5b565b60008060009054906101000a900473ffffffffffffffffffffffffffffffffffffffff169050816000806101000a81548173ffffffffffffffffffffffffffffffffffffffff021916908373ffffffffffffffffffffffffffffffffffffffff1602179055508173ffffffffffffffffffffffffffffffffffffffff168173ffffffffffffffffffffffffffffffffffffffff167f8be0079c531659141344cd1fd0a4f28419497f9722a3daafe3b4186f6b6457e060405160405180910390a35050565b600080826020015161ffff169050826080015181815181106157d4576157d36181b9565b5b60200260200101516000015165ffffffffffff164210156157f857809150506158b8565b826020015161ffff1690505b82608001515181101561587d5760008360800151828151811061582a576158296181b9565b5b6020026020010151905042816000015165ffffffffffff161115801561585c5750806020015165ffffffffffff164211155b1561586b5781925050506158b8565b5080615876906181e8565b9050615804565b6040517f08c379a00000000000000000000000000000000000000000000000000000000081526004016158af90618e39565b60405180910390fd5b919050565b6158c684611545565b600080600085859050905060008060005b83811015615b79578888828181106158f2576158f16181b9565b5b905060400201600001602081019061590a9190618b1d565b63ffffffff1695503373ffffffffffffffffffffffffffffffffffffffff16600c60008c815260200190815260200160002060009054906101000a900473ffffffffffffffffffffffffffffffffffffffff1673ffffffffffffffffffffffffffffffffffffffff16636352211e886040518263ffffffff1660e01b81526004016159959190617a1f565b602060405180830381865afa1580156159b2573d6000803e3d6000fd5b505050506040513d601f19601f820116820180604052508101906159d69190618775565b73ffffffffffffffffffffffffffffffffffffffff1614615a23576040517f5cd8319200000000000000000000000000000000000000000000000000000000815260040160405180910390fd5b888882818110615a3657615a356181b9565b5b9050604002016020016020810190615a4e9190618b9e565b7bffffffffffffffffffffffffffffffffffffffffffffffffffffffff169450600d60008b8152602001908152602001600020600087815260200190815260200160002091508160000154851415615b02576000615aad8b848a615113565b90508a3373ffffffffffffffffffffffffffffffffffffffff167fd334b3114fc25cbd72389ff9c361d5f8b0924e35fa237c65ac209a2cdcf4ba13838a604051615af8929190617fc5565b60405180910390a3505b615b0d8a8387616877565b8483615b199190618134565b9250893373ffffffffffffffffffffffffffffffffffffffff167f46916533b23d6665275e4143ec7eeb4b6b4ae92178ebbfe99f112564d2c7b1aa878a8a604051615b66939291906186b4565b60405180910390a38060010190506158d7565b506000821115615c23577f000000000000000000000000000000000000000000000000000000000000000073ffffffffffffffffffffffffffffffffffffffff1663a9059cbb87846040518363ffffffff1660e01b8152600401615bde9291906185e8565b6020604051808303816000875af1158015615bfd573d6000803e3d6000fd5b505050506040513d601f19601f82011682018060405250810190615c21919061851a565b505b505050505050505050565b600080610e1083615c3f9190618e59565b9050603c81615c4e91906182fc565b915050919050565b6000603c82615c659190618e59565b9050919050565b600060048460048110615c8257615c816181b9565b5b60020201905081836000016000828254615c9c9190618134565b92505081905550615cac82615612565b8160000160088282829054906101000a90046bffffffffffffffffffffffff16615cd69190618e8a565b92506101000a8154816bffffffffffffffffffffffff02191690836bffffffffffffffffffffffff160217905550615d428160000160149054906101000a90046bffffffffffffffffffffffff166bffffffffffffffffffffffff1683615d3d9190618273565b615059565b836001016000828254615d559190618ecc565b9250508190555050505050565b60008282905090506000615d746172a9565b6000805b8481101561649f57868682818110615d9357615d926181b9565b5b905060600201803603810190615da99190618fc4565b9250600d6000600381526020019081526020016000206000846020015163ffffffff168152602001908152602001600020915060008260000154141561628b573373ffffffffffffffffffffffffffffffffffffffff16600c60008a815260200190815260200160002060009054906101000a900473ffffffffffffffffffffffffffffffffffffffff1673ffffffffffffffffffffffffffffffffffffffff16636352211e85600001516040518263ffffffff1660e01b8152600401615e7091906189bf565b602060405180830381865afa158015615e8d573d6000803e3d6000fd5b505050506040513d601f19601f82011682018060405250810190615eb19190618775565b73ffffffffffffffffffffffffffffffffffffffff16141580615f0f5750600e60008981526020019081526020016000206000846000015163ffffffff168152602001908152602001600020600001601f9054906101000a900460ff165b15615f46576040517fa3fdbb5200000000000000000000000000000000000000000000000000000000815260040160405180910390fd5b3373ffffffffffffffffffffffffffffffffffffffff16600c60006003815260200190815260200160002060009054906101000a900473ffffffffffffffffffffffffffffffffffffffff1673ffffffffffffffffffffffffffffffffffffffff16636352211e85602001516040518263ffffffff1660e01b8152600401615fce91906189bf565b602060405180830381865afa158015615feb573d6000803e3d6000fd5b505050506040513d601f19601f8201168201806040525081019061600f9190618775565b73ffffffffffffffffffffffffffffffffffffffff1614158061606d5750600f6000846020015163ffffffff1681526020019081526020016000206000898152602001908152602001600020600001601f9054906101000a900460ff165b156160a4576040517fde72b61e00000000000000000000000000000000000000000000000000000000815260040160405180910390fd5b6040518060400160405280846020015163ffffffff167effffffffffffffffffffffffffffffffffffffffffffffffffffffffffffff16815260200160011515815250600e60008a81526020019081526020016000206000856000015163ffffffff16815260200190815260200160002060008201518160000160006101000a8154817effffffffffffffffffffffffffffffffffffffffffffffffffffffffffffff02191690837effffffffffffffffffffffffffffffffffffffffffffffffffffffffffffff160217905550602082015181600001601f6101000a81548160ff0219169083151502179055509050506040518060400160405280846000015163ffffffff167effffffffffffffffffffffffffffffffffffffffffffffffffffffffffffff16815260200160011515815250600f6000856020015163ffffffff16815260200190815260200160002060008a815260200190815260200160002060008201518160000160006101000a8154817effffffffffffffffffffffffffffffffffffffffffffffffffffffffffffff02191690837effffffffffffffffffffffffffffffffffffffffffffffffffffffffffffff160217905550602082015181600001601f6101000a81548160ff0219169083151502179055509050506163e0565b600f6000846020015163ffffffff168152602001908152602001600020600089815260200190815260200160002060000160009054906101000a90047effffffffffffffffffffffffffffffffffffffffffffffffffffffffffffff167effffffffffffffffffffffffffffffffffffffffffffffffffffffffffffff16836000015163ffffffff161415806163a85750600e60008981526020019081526020016000206000846000015163ffffffff16815260200190815260200160002060000160009054906101000a90047effffffffffffffffffffffffffffffffffffffffffffffffffffffffffffff167effffffffffffffffffffffffffffffffffffffffffffffffffffffffffffff16836020015163ffffffff1614155b156163df576040517fba52c1b500000000000000000000000000000000000000000000000000000000815260040160405180910390fd5b5b616409600383856040015176ffffffffffffffffffffffffffffffffffffffffffffff16617063565b826040015176ffffffffffffffffffffffffffffffffffffffffffffff16846164329190618134565b93503373ffffffffffffffffffffffffffffffffffffffff167fb3f27c1805319c01731f5717816fcfc579c3452c5ff4ffadc41284a7288f24ef84604001518a8660000151876020015160405161648c9493929190619022565b60405180910390a2806001019050615d78565b50600083111561654b577f000000000000000000000000000000000000000000000000000000000000000073ffffffffffffffffffffffffffffffffffffffff166323b872dd3330866040518463ffffffff1660e01b8152600401616506939291906184b7565b6020604051808303816000875af1158015616525573d6000803e3d6000fd5b505050506040513d601f19601f82011682018060405250810190616549919061851a565b505b50505050505050565b6000806004856004811061656b5761656a6181b9565b5b600202016040518060a00160405290816000820160009054906101000a900465ffffffffffff1665ffffffffffff1665ffffffffffff1681526020016000820160069054906101000a900461ffff1661ffff1661ffff1681526020016000820160089054906101000a90046bffffffffffffffffffffffff166bffffffffffffffffffffffff166bffffffffffffffffffffffff1681526020016000820160149054906101000a90046bffffffffffffffffffffffff166bffffffffffffffffffffffff166bffffffffffffffffffffffff16815260200160018201805480602002602001604051908101604052809291908181526020016000905b8282101561676d57838290600052602060002090600202016040518060800160405290816000820160009054906101000a900465ffffffffffff1665ffffffffffff1665ffffffffffff1681526020016000820160069054906101000a900465ffffffffffff1665ffffffffffff1665ffffffffffff16815260200160008201600c9054906101000a90046bffffffffffffffffffffffff166bffffffffffffffffffffffff166bffffffffffffffffffffffff1681526020016001820160009054906101000a90046bffffffffffffffffffffffff166bffffffffffffffffffffffff166bffffffffffffffffffffffff168152505081526020019060010190616667565b5050505081525050905060008086146167a957600d600087815260200190815260200160002060008581526020019081526020016000206167e9565b600160008673ffffffffffffffffffffffffffffffffffffffff1673ffffffffffffffffffffffffffffffffffffffff1681526020019081526020016000205b604051806040016040529081600082015481526020016001820154815250509050600061681e87846020015161ffff16610b72565b905082604001516bffffffffffffffffffffffff16601882604001516bffffffffffffffffffffffff1684600001516168579190618273565b6168619190618273565b61686b91906182fc565b93505050509392505050565b81600001548111156168b5576040517f9acaefc700000000000000000000000000000000000000000000000000000000815260040160405180910390fd5b6000600484600481106168cb576168ca6181b9565b5b600202019050818360000160008282546168e591906183ea565b925050819055506168f582615612565b8160000160088282829054906101000a90046bffffffffffffffffffffffff1661691f9190619067565b92506101000a8154816bffffffffffffffffffffffff02191690836bffffffffffffffffffffffff16021790555061698b8160000160149054906101000a90046bffffffffffffffffffffffff166bffffffffffffffffffffffff16836169869190618273565b615059565b83600101600082825461699e919061832d565b9250508190555050505050565b600080600090506000600c600086815260200190815260200160002060009054906101000a900473ffffffffffffffffffffffffffffffffffffffff1673ffffffffffffffffffffffffffffffffffffffff166370a08231856040518263ffffffff1660e01b8152600401616a209190617ca9565b602060405180830381865afa158015616a3d573d6000803e3d6000fd5b505050506040513d601f19601f82011682018060405250810190616a619190618246565b905060005b81811015616b68576000600c600088815260200190815260200160002060009054906101000a900473ffffffffffffffffffffffffffffffffffffffff1673ffffffffffffffffffffffffffffffffffffffff16632f745c5987846040518363ffffffff1660e01b8152600401616ade9291906185e8565b602060405180830381865afa158015616afb573d6000803e3d6000fd5b505050506040513d601f19601f82011682018060405250810190616b1f9190618246565b9050600d600088815260200190815260200160002060008281526020019081526020016000206000015484616b549190618134565b93505080616b61906181e8565b9050616a66565b50819250505092915050565b600080600090506000600c60006001815260200190815260200160002060009054906101000a900473ffffffffffffffffffffffffffffffffffffffff1673ffffffffffffffffffffffffffffffffffffffff166370a08231856040518263ffffffff1660e01b8152600401616bea9190617ca9565b602060405180830381865afa158015616c07573d6000803e3d6000fd5b505050506040513d601f19601f82011682018060405250810190616c2b9190618246565b905060005b81811015616dea576000600c60006001815260200190815260200160002060009054906101000a900473ffffffffffffffffffffffffffffffffffffffff1673ffffffffffffffffffffffffffffffffffffffff16632f745c5987846040518363ffffffff1660e01b8152600401616ca99291906185e8565b602060405180830381865afa158015616cc6573d6000803e3d6000fd5b505050506040513d601f19601f82011682018060405250810190616cea9190618246565b9050600e6000600181526020019081526020016000206000828152602001908152602001600020600001601f9054906101000a900460ff1615616dd8576000600e600060018152602001908152602001600020600083815260200190815260200160002060000160009054906101000a90047effffffffffffffffffffffffffffffffffffffffffffffffffffffffffffff167effffffffffffffffffffffffffffffffffffffffffffffffffffffffffffff169050600d60006003815260200190815260200160002060008281526020019081526020016000206000015485616dd49190618134565b9450505b5080616de3906181e8565b9050616c30565b50600c60006002815260200190815260200160002060009054906101000a900473ffffffffffffffffffffffffffffffffffffffff1673ffffffffffffffffffffffffffffffffffffffff166370a08231856040518263ffffffff1660e01b8152600401616e589190617ca9565b602060405180830381865afa158015616e75573d6000803e3d6000fd5b505050506040513d601f19601f82011682018060405250810190616e999190618246565b905060005b81811015617058576000600c60006002815260200190815260200160002060009054906101000a900473ffffffffffffffffffffffffffffffffffffffff1673ffffffffffffffffffffffffffffffffffffffff16632f745c5987846040518363ffffffff1660e01b8152600401616f179291906185e8565b602060405180830381865afa158015616f34573d6000803e3d6000fd5b505050506040513d601f19601f82011682018060405250810190616f589190618246565b9050600e6000600281526020019081526020016000206000828152602001908152602001600020600001601f9054906101000a900460ff1615617046576000600e600060028152602001908152602001600020600083815260200190815260200160002060000160009054906101000a90047effffffffffffffffffffffffffffffffffffffffffffffffffffffffffffff167effffffffffffffffffffffffffffffffffffffffffffffffffffffffffffff169050600d600060038152602001908152602001600020600082815260200190815260200160002060000154856170429190618134565b9450505b5080617051906181e8565b9050616e9e565b508192505050919050565b670de0b6b3a764000060016170789190618273565b8110156170b1576040517f50e75a8000000000000000000000000000000000000000000000000000000000815260040160405180910390fd5b600483600481106170c5576170c46181b9565b5b60020201600101600484600481106170e0576170df6181b9565b5b6002020160000160069054906101000a900461ffff1661ffff168154811061710b5761710a6181b9565b5b906000526020600020906002020160010160009054906101000a90046bffffffffffffffffffffffff166bffffffffffffffffffffffff168260000154826171539190618134565b111561718b576040517ff03ac37400000000000000000000000000000000000000000000000000000000815260040160405180910390fd5b617196838383615c6c565b505050565b600033905090565b6040518060c0016040528060008152602001600081526020016000815260200160008152602001600081526020016171d96172ef565b81525090565b6040518060800160405280600065ffffffffffff168152602001600065ffffffffffff16815260200160006bffffffffffffffffffffffff16815260200160006bffffffffffffffffffffffff1681525090565b604051806060016040528060008152602001600081526020016172546171df565b81525090565b6040518060800160405280600063ffffffff168152602001600063ffffffff168152602001600076ffffffffffffffffffffffffffffffffffffffffffffff1681526020016000151581525090565b6040518060600160405280600063ffffffff168152602001600063ffffffff168152602001600076ffffffffffffffffffffffffffffffffffffffffffffff1681525090565b604051806040016040528060008152602001600081525090565b6000604051905090565b600080fd5b600080fd5b600073ffffffffffffffffffffffffffffffffffffffff82169050919050565b60006173488261731d565b9050919050565b6173588161733d565b811461736357600080fd5b50565b6000813590506173758161734f565b92915050565b60006020828403121561739157617390617313565b5b600061739f84828501617366565b91505092915050565b600081519050919050565b600082825260208201905092915050565b6000819050602082019050919050565b6000819050919050565b6173e7816173d4565b82525050565b60408201600082015161740360008501826173de565b50602082015161741660208501826173de565b50505050565b60e08201600082015161743260008501826173de565b50602082015161744560208501826173de565b50604082015161745860408501826173de565b50606082015161746b60608501826173de565b50608082015161747e60808501826173de565b5060a082015161749160a08501826173ed565b50505050565b60006174a3838361741c565b60e08301905092915050565b6000602082019050919050565b60006174c7826173a8565b6174d181856173b3565b93506174dc836173c4565b8060005b8381101561750d5781516174f48882617497565b97506174ff836174af565b9250506001810190506174e0565b5085935050505092915050565b6000602082019050818103600083015261753481846174bc565b905092915050565b617545816173d4565b82525050565b6000819050919050565b61755e8161754b565b82525050565b6000604082019050617579600083018561753c565b6175866020830184617555565b9392505050565b600080fd5b600080fd5b600080fd5b60008083601f8401126175b2576175b161758d565b5b8235905067ffffffffffffffff8111156175cf576175ce617592565b5b6020830191508360408202830111156175eb576175ea617597565b5b9250929050565b60008060008060006060868803121561760e5761760d617313565b5b600086013567ffffffffffffffff81111561762c5761762b617318565b5b6176388882890161759c565b9550955050602086013567ffffffffffffffff81111561765b5761765a617318565b5b6176678882890161759c565b9350935050604061767a88828901617366565b9150509295509295909350565b617690816173d4565b811461769b57600080fd5b50565b6000813590506176ad81617687565b92915050565b600080604083850312156176ca576176c9617313565b5b60006176d88582860161769e565b92505060206176e98582860161769e565b9150509250929050565b600065ffffffffffff82169050919050565b61770e816176f3565b82525050565b60006bffffffffffffffffffffffff82169050919050565b61773581617714565b82525050565b6080820160008201516177516000850182617705565b5060208201516177646020850182617705565b506040820151617777604085018261772c565b50606082015161778a606085018261772c565b50505050565b60006080820190506177a5600083018461773b565b92915050565b6000602082840312156177c1576177c0617313565b5b60006177cf8482850161769e565b91505092915050565b6000819050919050565b60006177fd6177f86177f38461731d565b6177d8565b61731d565b9050919050565b600061780f826177e2565b9050919050565b600061782182617804565b9050919050565b61783181617816565b82525050565b600060208201905061784c6000830184617828565b92915050565b60008083601f8401126178685761786761758d565b5b8235905067ffffffffffffffff81111561788557617884617592565b5b6020830191508360208202830111156178a1576178a0617597565b5b9250929050565b600080602083850312156178bf576178be617313565b5b600083013567ffffffffffffffff8111156178dd576178dc617318565b5b6178e985828601617852565b92509250509250929050565b60008083601f84011261790b5761790a61758d565b5b8235905067ffffffffffffffff81111561792857617927617592565b5b60208301915083608082028301111561794457617943617597565b5b9250929050565b6000806000806040858703121561796557617964617313565b5b600085013567ffffffffffffffff81111561798357617982617318565b5b61798f878288016178f5565b9450945050602085013567ffffffffffffffff8111156179b2576179b1617318565b5b6179be878288016178f5565b925092505092959194509250565b6000806000606084860312156179e5576179e4617313565b5b60006179f38682870161769e565b9350506020617a0486828701617366565b9250506040617a158682870161769e565b9150509250925092565b6000602082019050617a34600083018461753c565b92915050565b60007effffffffffffffffffffffffffffffffffffffffffffffffffffffffffffff82169050919050565b617a6e81617a3a565b82525050565b60008115159050919050565b617a8981617a74565b82525050565b6000604082019050617aa46000830185617a65565b617ab16020830184617a80565b9392505050565b60008083601f840112617ace57617acd61758d565b5b8235905067ffffffffffffffff811115617aeb57617aea617592565b5b602083019150836040820283011115617b0757617b06617597565b5b9250929050565b60008060208385031215617b2557617b24617313565b5b600083013567ffffffffffffffff811115617b4357617b42617318565b5b617b4f85828601617ab8565b92509250509250929050565b600080600060408486031215617b7457617b73617313565b5b600084013567ffffffffffffffff811115617b9257617b91617318565b5b617b9e86828701617852565b93509350506020617bb186828701617366565b9150509250925092565b608082016000820151617bd16000850182617705565b506020820151617be46020850182617705565b506040820151617bf7604085018261772c565b506060820151617c0a606085018261772c565b50505050565b60c082016000820151617c2660008501826173de565b506020820151617c3960208501826173de565b506040820151617c4c6040850182617bbb565b50505050565b600061030082019050617c686000830187617c10565b617c7560c0830186617c10565b617c83610180830185617c10565b617c91610240830184617c10565b95945050505050565b617ca38161733d565b82525050565b6000602082019050617cbe6000830184617c9a565b92915050565b617ccd816176f3565b82525050565b600061ffff82169050919050565b617cea81617cd3565b82525050565b617cf981617714565b82525050565b6000608082019050617d146000830187617cc4565b617d216020830186617ce1565b617d2e6040830185617cf0565b617d3b6060830184617cf0565b95945050505050565b6000617d4f82617804565b9050919050565b617d5f81617d44565b82525050565b6000602082019050617d7a6000830184617d56565b92915050565b600080600060408486031215617d9957617d98617313565b5b600084013567ffffffffffffffff811115617db757617db6617318565b5b617dc386828701617ab8565b93509350506020617dd686828701617366565b9150509250925092565b600080600080600060a08688031215617dfc57617dfb617313565b5b6000617e0a8882890161769e565b9550506020617e1b8882890161769e565b9450506040617e2c8882890161769e565b9350506060617e3d8882890161769e565b9250506080617e4e8882890161769e565b9150509295509295909350565b60008060408385031215617e7257617e71617313565b5b6000617e808582860161769e565b9250506020617e9185828601617366565b9150509250929050565b60008083601f840112617eb157617eb061758d565b5b8235905067ffffffffffffffff811115617ece57617ecd617592565b5b602083019150836060820283011115617eea57617ee9617597565b5b9250929050565b60008060008060408587031215617f0b57617f0a617313565b5b600085013567ffffffffffffffff811115617f2957617f28617318565b5b617f3587828801617e9b565b9450945050602085013567ffffffffffffffff811115617f5857617f57617318565b5b617f6487828801617e9b565b925092505092959194509250565b600080600060608486031215617f8b57617f8a617313565b5b6000617f998682870161769e565b9350506020617faa8682870161769e565b9250506040617fbb8682870161769e565b9150509250925092565b6000604082019050617fda600083018561753c565b617fe7602083018461753c565b9392505050565b60e08201600082015161800460008501826173de565b50602082015161801760208501826173de565b50604082015161802a60408501826173de565b50606082015161803d60608501826173de565b50608082015161805060808501826173de565b5060a082015161806360a08501826173ed565b50505050565b600060e08201905061807e6000830184617fee565b92915050565b6000806000806040858703121561809e5761809d617313565b5b600085013567ffffffffffffffff8111156180bc576180bb617318565b5b6180c88782880161759c565b9450945050602085013567ffffffffffffffff8111156180eb576180ea617318565b5b6180f78782880161759c565b925092505092959194509250565b7f4e487b7100000000000000000000000000000000000000000000000000000000600052601160045260246000fd5b600061813f826173d4565b915061814a836173d4565b9250827fffffffffffffffffffffffffffffffffffffffffffffffffffffffffffffffff0382111561817f5761817e618105565b5b828201905092915050565b7f4e487b7100000000000000000000000000000000000000000000000000000000600052604160045260246000fd5b7f4e487b7100000000000000000000000000000000000000000000000000000000600052603260045260246000fd5b60006181f3826173d4565b91507fffffffffffffffffffffffffffffffffffffffffffffffffffffffffffffffff82141561822657618225618105565b5b600182019050919050565b60008151905061824081617687565b92915050565b60006020828403121561825c5761825b617313565b5b600061826a84828501618231565b91505092915050565b600061827e826173d4565b9150618289836173d4565b9250817fffffffffffffffffffffffffffffffffffffffffffffffffffffffffffffffff04831182151516156182c2576182c1618105565b5b828202905092915050565b7f4e487b7100000000000000000000000000000000000000000000000000000000600052601260045260246000fd5b6000618307826173d4565b9150618312836173d4565b925082618322576183216182cd565b5b828204905092915050565b60006183388261754b565b91506183438361754b565b9250827f80000000000000000000000000000000000000000000000000000000000000000182126000841215161561837e5761837d618105565b5b827f7fffffffffffffffffffffffffffffffffffffffffffffffffffffffffffffff0182136000841216156183b6576183b5618105565b5b828203905092915050565b60006040820190506183d6600083018561753c565b6183e36020830184617c9a565b9392505050565b60006183f5826173d4565b9150618400836173d4565b92508282101561841357618412618105565b5b828203905092915050565b600061843961843461842f846176f3565b6177d8565b6173d4565b9050919050565b6184498161841e565b82525050565b600061846a61846561846084617714565b6177d8565b6173d4565b9050919050565b61847a8161844f565b82525050565b60006060820190506184956000830186618440565b6184a26020830185618471565b6184af6040830184618471565b949350505050565b60006060820190506184cc6000830186617c9a565b6184d96020830185617c9a565b6184e6604083018461753c565b949350505050565b6184f781617a74565b811461850257600080fd5b50565b600081519050618514816184ee565b92915050565b6000602082840312156185305761852f617313565b5b600061853e84828501618505565b91505092915050565b7f4e487b7100000000000000000000000000000000000000000000000000000000600052603160045260246000fd5b6000819050919050565b600061859b61859661859184618576565b6177d8565b6173d4565b9050919050565b6185ab81618580565b82525050565b60006060820190506185c660008301866185a2565b6185d36020830185617c9a565b6185e0604083018461753c565b949350505050565b60006040820190506185fd6000830185617c9a565b61860a602083018461753c565b9392505050565b600082825260208201905092915050565b7f4f776e61626c653a206e6577206f776e657220697320746865207a65726f206160008201527f6464726573730000000000000000000000000000000000000000000000000000602082015250565b600061867e602683618611565b915061868982618622565b604082019050919050565b600060208201905081810360008301526186ad81618671565b9050919050565b60006060820190506186c9600083018661753c565b6186d66020830185617c9a565b6186e3604083018461753c565b949350505050565b60006fffffffffffffffffffffffffffffffff82169050919050565b618710816186eb565b811461871b57600080fd5b50565b60008135905061872d81618707565b92915050565b60006020828403121561874957618748617313565b5b60006187578482850161871e565b91505092915050565b60008151905061876f8161734f565b92915050565b60006020828403121561878b5761878a617313565b5b600061879984828501618760565b91505092915050565b60006080820190506187b7600083018761753c565b6187c4602083018661753c565b6187d1604083018561753c565b6187de606083018461753c565b95945050505050565b600080fd5b6000601f19601f8301169050919050565b618806826187ec565b810181811067ffffffffffffffff821117156188255761882461818a565b5b80604052505050565b6000618838617309565b905061884482826187fd565b919050565b600063ffffffff82169050919050565b61886281618849565b811461886d57600080fd5b50565b60008135905061887f81618859565b92915050565b600076ffffffffffffffffffffffffffffffffffffffffffffff82169050919050565b6188b181618885565b81146188bc57600080fd5b50565b6000813590506188ce816188a8565b92915050565b6000813590506188e3816184ee565b92915050565b6000608082840312156188ff576188fe6187e7565b5b618909608061882e565b9050600061891984828501618870565b600083015250602061892d84828501618870565b6020830152506040618941848285016188bf565b6040830152506060618955848285016188d4565b60608301525092915050565b60006080828403121561897757618976617313565b5b6000618985848285016188e9565b91505092915050565b60006189a96189a461899f84618849565b6177d8565b6173d4565b9050919050565b6189b98161898e565b82525050565b60006020820190506189d460008301846189b0565b92915050565b60006080820190506189ef600083018761753c565b6189fc602083018661753c565b618a0960408301856189b0565b618a1660608301846189b0565b95945050505050565b7f53616665436173743a2076616c756520646f65736e27742066697420696e206160008201527f6e20696e74323536000000000000000000000000000000000000000000000000602082015250565b6000618a7b602883618611565b9150618a8682618a1f565b604082019050919050565b60006020820190508181036000830152618aaa81618a6e565b9050919050565b7f53616665436173743a2076616c7565206d75737420626520706f736974697665600082015250565b6000618ae7602083618611565b9150618af282618ab1565b602082019050919050565b60006020820190508181036000830152618b1681618ada565b9050919050565b600060208284031215618b3357618b32617313565b5b6000618b4184828501618870565b91505092915050565b60007bffffffffffffffffffffffffffffffffffffffffffffffffffffffff82169050919050565b618b7b81618b4a565b8114618b8657600080fd5b50565b600081359050618b9881618b72565b92915050565b600060208284031215618bb457618bb3617313565b5b6000618bc284828501618b89565b91505092915050565b7f53616665436173743a2076616c756520646f65736e27742066697420696e203460008201527f3820626974730000000000000000000000000000000000000000000000000000602082015250565b6000618c27602683618611565b9150618c3282618bcb565b604082019050919050565b60006020820190508181036000830152618c5681618c1a565b9050919050565b7f53616665436173743a2076616c756520646f65736e27742066697420696e203160008201527f3620626974730000000000000000000000000000000000000000000000000000602082015250565b6000618cb9602683618611565b9150618cc482618c5d565b604082019050919050565b60006020820190508181036000830152618ce881618cac565b9050919050565b7f53616665436173743a2076616c756520646f65736e27742066697420696e203960008201527f3620626974730000000000000000000000000000000000000000000000000000602082015250565b6000618d4b602683618611565b9150618d5682618cef565b604082019050919050565b60006020820190508181036000830152618d7a81618d3e565b9050919050565b7f4f776e61626c653a2063616c6c6572206973206e6f7420746865206f776e6572600082015250565b6000618db7602083618611565b9150618dc282618d81565b602082019050919050565b60006020820190508181036000830152618de681618daa565b9050919050565b7f646973747269627574696f6e20656e6465640000000000000000000000000000600082015250565b6000618e23601283618611565b9150618e2e82618ded565b602082019050919050565b60006020820190508181036000830152618e5281618e16565b9050919050565b6000618e64826173d4565b9150618e6f836173d4565b925082618e7f57618e7e6182cd565b5b828206905092915050565b6000618e9582617714565b9150618ea083617714565b9250826bffffffffffffffffffffffff03821115618ec157618ec0618105565b5b828201905092915050565b6000618ed78261754b565b9150618ee28361754b565b9250817f7fffffffffffffffffffffffffffffffffffffffffffffffffffffffffffffff03831360008312151615618f1d57618f1c618105565b5b817f8000000000000000000000000000000000000000000000000000000000000000038312600083121615618f5557618f54618105565b5b828201905092915050565b600060608284031215618f7657618f756187e7565b5b618f80606061882e565b90506000618f9084828501618870565b6000830152506020618fa484828501618870565b6020830152506040618fb8848285016188bf565b60408301525092915050565b600060608284031215618fda57618fd9617313565b5b6000618fe884828501618f60565b91505092915050565b600061900c61900761900284618885565b6177d8565b6173d4565b9050919050565b61901c81618ff1565b82525050565b60006080820190506190376000830187619013565b619044602083018661753c565b61905160408301856189b0565b61905e60608301846189b0565b95945050505050565b600061907282617714565b915061907d83617714565b9250828210156190905761908f618105565b5b82820390509291505056fea2646970667358221220878a7f919575e690f06e52e862f8f28f2d231c76fc9119b0219f0de1ed8327e664736f6c634300080a0033",
			"opcodes": "PUSH1 0xA0 PUSH1 0x40 MSTORE PUSH1 0x40 MLOAD DUP1 PUSH1 0x40 ADD PUSH1 0x40 MSTORE DUP1 PUSH1 0x0 DUP2 MSTORE PUSH1 0x20 ADD PUSH1 0x0 DUP2 MSTORE POP PUSH1 0x2 PUSH1 0x0 DUP3 ADD MLOAD DUP2 PUSH1 0x0 ADD SSTORE PUSH1 0x20 DUP3 ADD MLOAD DUP2 PUSH1 0x1 ADD SSTORE POP POP CALLVALUE DUP1 ISZERO PUSH3 0x40 JUMPI PUSH1 0x0 DUP1 REVERT JUMPDEST POP PUSH1 0x40 MLOAD PUSH3 0x9483 CODESIZE SUB DUP1 PUSH3 0x9483 DUP4 CODECOPY DUP2 DUP2 ADD PUSH1 0x40 MSTORE DUP2 ADD SWAP1 PUSH3 0x66 SWAP2 SWAP1 PUSH3 0x2F3 JUMP JUMPDEST PUSH3 0x86 PUSH3 0x7A PUSH3 0x1BD PUSH1 0x20 SHL PUSH1 0x20 SHR JUMP JUMPDEST PUSH3 0x1C5 PUSH1 0x20 SHL PUSH1 0x20 SHR JUMP JUMPDEST DUP4 PUSH20 0xFFFFFFFFFFFFFFFFFFFFFFFFFFFFFFFFFFFFFFFF AND PUSH1 0x80 DUP2 PUSH20 0xFFFFFFFFFFFFFFFFFFFFFFFFFFFFFFFFFFFFFFFF AND DUP2 MSTORE POP POP DUP3 PUSH1 0xC PUSH1 0x0 PUSH1 0x1 DUP2 MSTORE PUSH1 0x20 ADD SWAP1 DUP2 MSTORE PUSH1 0x20 ADD PUSH1 0x0 KECCAK256 PUSH1 0x0 PUSH2 0x100 EXP DUP2 SLOAD DUP2 PUSH20 0xFFFFFFFFFFFFFFFFFFFFFFFFFFFFFFFFFFFFFFFF MUL NOT AND SWAP1 DUP4 PUSH20 0xFFFFFFFFFFFFFFFFFFFFFFFFFFFFFFFFFFFFFFFF AND MUL OR SWAP1 SSTORE POP DUP2 PUSH1 0xC PUSH1 0x0 PUSH1 0x2 DUP2 MSTORE PUSH1 0x20 ADD SWAP1 DUP2 MSTORE PUSH1 0x20 ADD PUSH1 0x0 KECCAK256 PUSH1 0x0 PUSH2 0x100 EXP DUP2 SLOAD DUP2 PUSH20 0xFFFFFFFFFFFFFFFFFFFFFFFFFFFFFFFFFFFFFFFF MUL NOT AND SWAP1 DUP4 PUSH20 0xFFFFFFFFFFFFFFFFFFFFFFFFFFFFFFFFFFFFFFFF AND MUL OR SWAP1 SSTORE POP DUP1 PUSH1 0xC PUSH1 0x0 PUSH1 0x3 DUP2 MSTORE PUSH1 0x20 ADD SWAP1 DUP2 MSTORE PUSH1 0x20 ADD PUSH1 0x0 KECCAK256 PUSH1 0x0 PUSH2 0x100 EXP DUP2 SLOAD DUP2 PUSH20 0xFFFFFFFFFFFFFFFFFFFFFFFFFFFFFFFFFFFFFFFF MUL NOT AND SWAP1 DUP4 PUSH20 0xFFFFFFFFFFFFFFFFFFFFFFFFFFFFFFFFFFFFFFFF AND MUL OR SWAP1 SSTORE POP POP POP POP POP PUSH3 0x365 JUMP JUMPDEST PUSH1 0x0 CALLER SWAP1 POP SWAP1 JUMP JUMPDEST PUSH1 0x0 DUP1 PUSH1 0x0 SWAP1 SLOAD SWAP1 PUSH2 0x100 EXP SWAP1 DIV PUSH20 0xFFFFFFFFFFFFFFFFFFFFFFFFFFFFFFFFFFFFFFFF AND SWAP1 POP DUP2 PUSH1 0x0 DUP1 PUSH2 0x100 EXP DUP2 SLOAD DUP2 PUSH20 0xFFFFFFFFFFFFFFFFFFFFFFFFFFFFFFFFFFFFFFFF MUL NOT AND SWAP1 DUP4 PUSH20 0xFFFFFFFFFFFFFFFFFFFFFFFFFFFFFFFFFFFFFFFF AND MUL OR SWAP1 SSTORE POP DUP2 PUSH20 0xFFFFFFFFFFFFFFFFFFFFFFFFFFFFFFFFFFFFFFFF AND DUP2 PUSH20 0xFFFFFFFFFFFFFFFFFFFFFFFFFFFFFFFFFFFFFFFF AND PUSH32 0x8BE0079C531659141344CD1FD0A4F28419497F9722A3DAAFE3B4186F6B6457E0 PUSH1 0x40 MLOAD PUSH1 0x40 MLOAD DUP1 SWAP2 SUB SWAP1 LOG3 POP POP JUMP JUMPDEST PUSH1 0x0 DUP1 REVERT JUMPDEST PUSH1 0x0 PUSH20 0xFFFFFFFFFFFFFFFFFFFFFFFFFFFFFFFFFFFFFFFF DUP3 AND SWAP1 POP SWAP2 SWAP1 POP JUMP JUMPDEST PUSH1 0x0 PUSH3 0x2BB DUP3 PUSH3 0x28E JUMP JUMPDEST SWAP1 POP SWAP2 SWAP1 POP JUMP JUMPDEST PUSH3 0x2CD DUP2 PUSH3 0x2AE JUMP JUMPDEST DUP2 EQ PUSH3 0x2D9 JUMPI PUSH1 0x0 DUP1 REVERT JUMPDEST POP JUMP JUMPDEST PUSH1 0x0 DUP2 MLOAD SWAP1 POP PUSH3 0x2ED DUP2 PUSH3 0x2C2 JUMP JUMPDEST SWAP3 SWAP2 POP POP JUMP JUMPDEST PUSH1 0x0 DUP1 PUSH1 0x0 DUP1 PUSH1 0x80 DUP6 DUP8 SUB SLT ISZERO PUSH3 0x310 JUMPI PUSH3 0x30F PUSH3 0x289 JUMP JUMPDEST JUMPDEST PUSH1 0x0 PUSH3 0x320 DUP8 DUP3 DUP9 ADD PUSH3 0x2DC JUMP JUMPDEST SWAP5 POP POP PUSH1 0x20 PUSH3 0x333 DUP8 DUP3 DUP9 ADD PUSH3 0x2DC JUMP JUMPDEST SWAP4 POP POP PUSH1 0x40 PUSH3 0x346 DUP8 DUP3 DUP9 ADD PUSH3 0x2DC JUMP JUMPDEST SWAP3 POP POP PUSH1 0x60 PUSH3 0x359 DUP8 DUP3 DUP9 ADD PUSH3 0x2DC JUMP JUMPDEST SWAP2 POP POP SWAP3 SWAP6 SWAP2 SWAP5 POP SWAP3 POP JUMP JUMPDEST PUSH1 0x80 MLOAD PUSH2 0x90D1 PUSH3 0x3B2 PUSH1 0x0 CODECOPY PUSH1 0x0 DUP2 DUP2 PUSH2 0x2428 ADD MSTORE DUP2 DUP2 PUSH2 0x28FE ADD MSTORE DUP2 DUP2 PUSH2 0x312C ADD MSTORE DUP2 DUP2 PUSH2 0x4F0D ADD MSTORE DUP2 DUP2 PUSH2 0x51B6 ADD MSTORE DUP2 DUP2 PUSH2 0x54C2 ADD MSTORE DUP2 DUP2 PUSH2 0x5B85 ADD MSTORE PUSH2 0x64AB ADD MSTORE PUSH2 0x90D1 PUSH1 0x0 RETURN INVALID PUSH1 0x80 PUSH1 0x40 MSTORE CALLVALUE DUP1 ISZERO PUSH2 0x10 JUMPI PUSH1 0x0 DUP1 REVERT JUMPDEST POP PUSH1 0x4 CALLDATASIZE LT PUSH2 0x273 JUMPI PUSH1 0x0 CALLDATALOAD PUSH1 0xE0 SHR DUP1 PUSH4 0x9860037E GT PUSH2 0x151 JUMPI DUP1 PUSH4 0xD346CBD9 GT PUSH2 0xC3 JUMPI DUP1 PUSH4 0xE4E81847 GT PUSH2 0x87 JUMPI DUP1 PUSH4 0xE4E81847 EQ PUSH2 0x7A5 JUMPI DUP1 PUSH4 0xED23C906 EQ PUSH2 0x7C1 JUMPI DUP1 PUSH4 0xF2FDE38B EQ PUSH2 0x7DD JUMPI DUP1 PUSH4 0xF4C6F602 EQ PUSH2 0x7F9 JUMPI DUP1 PUSH4 0xF5679189 EQ PUSH2 0x829 JUMPI DUP1 PUSH4 0xFE31446C EQ PUSH2 0x859 JUMPI PUSH2 0x273 JUMP JUMPDEST DUP1 PUSH4 0xD346CBD9 EQ PUSH2 0x6F0 JUMPI DUP1 PUSH4 0xD363DC17 EQ PUSH2 0x70C JUMPI DUP1 PUSH4 0xD7464EE9 EQ PUSH2 0x728 JUMPI DUP1 PUSH4 0xD9F11FB2 EQ PUSH2 0x759 JUMPI DUP1 PUSH4 0xE0347E4F EQ PUSH2 0x789 JUMPI PUSH2 0x273 JUMP JUMPDEST DUP1 PUSH4 0xACEB3629 GT PUSH2 0x115 JUMPI DUP1 PUSH4 0xACEB3629 EQ PUSH2 0x633 JUMPI DUP1 PUSH4 0xB4F95752 EQ PUSH2 0x64F JUMPI DUP1 PUSH4 0xB682E859 EQ PUSH2 0x680 JUMPI DUP1 PUSH4 0xBB628F20 EQ PUSH2 0x69C JUMPI DUP1 PUSH4 0xBD5023A9 EQ PUSH2 0x6B8 JUMPI DUP1 PUSH4 0xC63389C3 EQ PUSH2 0x6D4 JUMPI PUSH2 0x273 JUMP JUMPDEST DUP1 PUSH4 0x9860037E EQ PUSH2 0x565 JUMPI DUP1 PUSH4 0x98ADA4A2 EQ PUSH2 0x595 JUMPI DUP1 PUSH4 0x9DCAAFB4 EQ PUSH2 0x5C6 JUMPI DUP1 PUSH4 0xAC4AFA38 EQ PUSH2 0x5E2 JUMPI DUP1 PUSH4 0xAC7AD9BA EQ PUSH2 0x615 JUMPI PUSH2 0x273 JUMP JUMPDEST DUP1 PUSH4 0x304F88C0 GT PUSH2 0x1EA JUMPI DUP1 PUSH4 0x715018A6 GT PUSH2 0x1AE JUMPI DUP1 PUSH4 0x715018A6 EQ PUSH2 0x4DA JUMPI DUP1 PUSH4 0x770DADE5 EQ PUSH2 0x4E4 JUMPI DUP1 PUSH4 0x7F60D338 EQ PUSH2 0x505 JUMPI DUP1 PUSH4 0x8279E760 EQ PUSH2 0x521 JUMPI DUP1 PUSH4 0x8DA5CB5B EQ PUSH2 0x52B JUMPI DUP1 PUSH4 0x8ECBFFA7 EQ PUSH2 0x549 JUMPI PUSH2 0x273 JUMP JUMPDEST DUP1 PUSH4 0x304F88C0 EQ PUSH2 0x439 JUMPI DUP1 PUSH4 0x381B4682 EQ PUSH2 0x46A JUMPI DUP1 PUSH4 0x46583A05 EQ PUSH2 0x486 JUMPI DUP1 PUSH4 0x51EB05A6 EQ PUSH2 0x4A2 JUMPI DUP1 PUSH4 0x57A26300 EQ PUSH2 0x4BE JUMPI PUSH2 0x273 JUMP JUMPDEST DUP1 PUSH4 0xBB4D82A GT PUSH2 0x23C JUMPI DUP1 PUSH4 0xBB4D82A EQ PUSH2 0x355 JUMPI DUP1 PUSH4 0xED368F1 EQ PUSH2 0x385 JUMPI DUP1 PUSH4 0x20A325D0 EQ PUSH2 0x3B5 JUMPI DUP1 PUSH4 0x26FB2249 EQ PUSH2 0x3D1 JUMPI DUP1 PUSH4 0x2C018F91 EQ PUSH2 0x3ED JUMPI DUP1 PUSH4 0x2EE2DE66 EQ PUSH2 0x41D JUMPI PUSH2 0x273 JUMP JUMPDEST DUP1 PUSH3 0x191B44 EQ PUSH2 0x278 JUMPI DUP1 PUSH4 0x4238994 EQ PUSH2 0x2A8 JUMPI DUP1 PUSH4 0x5ECE226 EQ PUSH2 0x2D8 JUMPI DUP1 PUSH4 0x7F5FA4A EQ PUSH2 0x309 JUMPI DUP1 PUSH4 0x9E833C6 EQ PUSH2 0x325 JUMPI JUMPDEST PUSH1 0x0 DUP1 REVERT JUMPDEST PUSH2 0x292 PUSH1 0x4 DUP1 CALLDATASIZE SUB DUP2 ADD SWAP1 PUSH2 0x28D SWAP2 SWAP1 PUSH2 0x737B JUMP JUMPDEST PUSH2 0x875 JUMP JUMPDEST PUSH1 0x40 MLOAD PUSH2 0x29F SWAP2 SWAP1 PUSH2 0x751A JUMP JUMPDEST PUSH1 0x40 MLOAD DUP1 SWAP2 SUB SWAP1 RETURN JUMPDEST PUSH2 0x2C2 PUSH1 0x4 DUP1 CALLDATASIZE SUB DUP2 ADD SWAP1 PUSH2 0x2BD SWAP2 SWAP1 PUSH2 0x737B JUMP JUMPDEST PUSH2 0x889 JUMP JUMPDEST PUSH1 0x40 MLOAD PUSH2 0x2CF SWAP2 SWAP1 PUSH2 0x751A JUMP JUMPDEST PUSH1 0x40 MLOAD DUP1 SWAP2 SUB SWAP1 RETURN JUMPDEST PUSH2 0x2F2 PUSH1 0x4 DUP1 CALLDATASIZE SUB DUP2 ADD SWAP1 PUSH2 0x2ED SWAP2 SWAP1 PUSH2 0x737B JUMP JUMPDEST PUSH2 0xB23 JUMP JUMPDEST PUSH1 0x40 MLOAD PUSH2 0x300 SWAP3 SWAP2 SWAP1 PUSH2 0x7564 JUMP JUMPDEST PUSH1 0x40 MLOAD DUP1 SWAP2 SUB SWAP1 RETURN JUMPDEST PUSH2 0x323 PUSH1 0x4 DUP1 CALLDATASIZE SUB DUP2 ADD SWAP1 PUSH2 0x31E SWAP2 SWAP1 PUSH2 0x75F2 JUMP JUMPDEST PUSH2 0xB47 JUMP JUMPDEST STOP JUMPDEST PUSH2 0x33F PUSH1 0x4 DUP1 CALLDATASIZE SUB DUP2 ADD SWAP1 PUSH2 0x33A SWAP2 SWAP1 PUSH2 0x76B3 JUMP JUMPDEST PUSH2 0xB72 JUMP JUMPDEST PUSH1 0x40 MLOAD PUSH2 0x34C SWAP2 SWAP1 PUSH2 0x7790 JUMP JUMPDEST PUSH1 0x40 MLOAD DUP1 SWAP2 SUB SWAP1 RETURN JUMPDEST PUSH2 0x36F PUSH1 0x4 DUP1 CALLDATASIZE SUB DUP2 ADD SWAP1 PUSH2 0x36A SWAP2 SWAP1 PUSH2 0x77AB JUMP JUMPDEST PUSH2 0xC9C JUMP JUMPDEST PUSH1 0x40 MLOAD PUSH2 0x37C SWAP2 SWAP1 PUSH2 0x7837 JUMP JUMPDEST PUSH1 0x40 MLOAD DUP1 SWAP2 SUB SWAP1 RETURN JUMPDEST PUSH2 0x39F PUSH1 0x4 DUP1 CALLDATASIZE SUB DUP2 ADD SWAP1 PUSH2 0x39A SWAP2 SWAP1 PUSH2 0x737B JUMP JUMPDEST PUSH2 0xCCF JUMP JUMPDEST PUSH1 0x40 MLOAD PUSH2 0x3AC SWAP2 SWAP1 PUSH2 0x751A JUMP JUMPDEST PUSH1 0x40 MLOAD DUP1 SWAP2 SUB SWAP1 RETURN JUMPDEST PUSH2 0x3CF PUSH1 0x4 DUP1 CALLDATASIZE SUB DUP2 ADD SWAP1 PUSH2 0x3CA SWAP2 SWAP1 PUSH2 0x78A8 JUMP JUMPDEST PUSH2 0x1012 JUMP JUMPDEST STOP JUMPDEST PUSH2 0x3EB PUSH1 0x4 DUP1 CALLDATASIZE SUB DUP2 ADD SWAP1 PUSH2 0x3E6 SWAP2 SWAP1 PUSH2 0x794B JUMP JUMPDEST PUSH2 0x1023 JUMP JUMPDEST STOP JUMPDEST PUSH2 0x407 PUSH1 0x4 DUP1 CALLDATASIZE SUB DUP2 ADD SWAP1 PUSH2 0x402 SWAP2 SWAP1 PUSH2 0x79CC JUMP JUMPDEST PUSH2 0x104B JUMP JUMPDEST PUSH1 0x40 MLOAD PUSH2 0x414 SWAP2 SWAP1 PUSH2 0x7A1F JUMP JUMPDEST PUSH1 0x40 MLOAD DUP1 SWAP2 SUB SWAP1 RETURN JUMPDEST PUSH2 0x437 PUSH1 0x4 DUP1 CALLDATASIZE SUB DUP2 ADD SWAP1 PUSH2 0x432 SWAP2 SWAP1 PUSH2 0x737B JUMP JUMPDEST PUSH2 0x1409 JUMP JUMPDEST STOP JUMPDEST PUSH2 0x453 PUSH1 0x4 DUP1 CALLDATASIZE SUB DUP2 ADD SWAP1 PUSH2 0x44E SWAP2 SWAP1 PUSH2 0x76B3 JUMP JUMPDEST PUSH2 0x14BB JUMP JUMPDEST PUSH1 0x40 MLOAD PUSH2 0x461 SWAP3 SWAP2 SWAP1 PUSH2 0x7A8F JUMP JUMPDEST PUSH1 0x40 MLOAD DUP1 SWAP2 SUB SWAP1 RETURN JUMPDEST PUSH2 0x484 PUSH1 0x4 DUP1 CALLDATASIZE SUB DUP2 ADD SWAP1 PUSH2 0x47F SWAP2 SWAP1 PUSH2 0x78A8 JUMP JUMPDEST PUSH2 0x1524 JUMP JUMPDEST STOP JUMPDEST PUSH2 0x4A0 PUSH1 0x4 DUP1 CALLDATASIZE SUB DUP2 ADD SWAP1 PUSH2 0x49B SWAP2 SWAP1 PUSH2 0x7B0E JUMP JUMPDEST PUSH2 0x1535 JUMP JUMPDEST STOP JUMPDEST PUSH2 0x4BC PUSH1 0x4 DUP1 CALLDATASIZE SUB DUP2 ADD SWAP1 PUSH2 0x4B7 SWAP2 SWAP1 PUSH2 0x77AB JUMP JUMPDEST PUSH2 0x1545 JUMP JUMPDEST STOP JUMPDEST PUSH2 0x4D8 PUSH1 0x4 DUP1 CALLDATASIZE SUB DUP2 ADD SWAP1 PUSH2 0x4D3 SWAP2 SWAP1 PUSH2 0x7B5B JUMP JUMPDEST PUSH2 0x18DB JUMP JUMPDEST STOP JUMPDEST PUSH2 0x4E2 PUSH2 0x18ED JUMP JUMPDEST STOP JUMPDEST PUSH2 0x4EC PUSH2 0x1901 JUMP JUMPDEST PUSH1 0x40 MLOAD PUSH2 0x4FC SWAP5 SWAP4 SWAP3 SWAP2 SWAP1 PUSH2 0x7C52 JUMP JUMPDEST PUSH1 0x40 MLOAD DUP1 SWAP2 SUB SWAP1 RETURN JUMPDEST PUSH2 0x51F PUSH1 0x4 DUP1 CALLDATASIZE SUB DUP2 ADD SWAP1 PUSH2 0x51A SWAP2 SWAP1 PUSH2 0x77AB JUMP JUMPDEST PUSH2 0x22FD JUMP JUMPDEST STOP JUMPDEST PUSH2 0x529 PUSH2 0x230A JUMP JUMPDEST STOP JUMPDEST PUSH2 0x533 PUSH2 0x2315 JUMP JUMPDEST PUSH1 0x40 MLOAD PUSH2 0x540 SWAP2 SWAP1 PUSH2 0x7CA9 JUMP JUMPDEST PUSH1 0x40 MLOAD DUP1 SWAP2 SUB SWAP1 RETURN JUMPDEST PUSH2 0x563 PUSH1 0x4 DUP1 CALLDATASIZE SUB DUP2 ADD SWAP1 PUSH2 0x55E SWAP2 SWAP1 PUSH2 0x7B0E JUMP JUMPDEST PUSH2 0x233E JUMP JUMPDEST STOP JUMPDEST PUSH2 0x57F PUSH1 0x4 DUP1 CALLDATASIZE SUB DUP2 ADD SWAP1 PUSH2 0x57A SWAP2 SWAP1 PUSH2 0x737B JUMP JUMPDEST PUSH2 0x234E JUMP JUMPDEST PUSH1 0x40 MLOAD PUSH2 0x58C SWAP2 SWAP1 PUSH2 0x751A JUMP JUMPDEST PUSH1 0x40 MLOAD DUP1 SWAP2 SUB SWAP1 RETURN JUMPDEST PUSH2 0x5AF PUSH1 0x4 DUP1 CALLDATASIZE SUB DUP2 ADD SWAP1 PUSH2 0x5AA SWAP2 SWAP1 PUSH2 0x76B3 JUMP JUMPDEST PUSH2 0x2362 JUMP JUMPDEST PUSH1 0x40 MLOAD PUSH2 0x5BD SWAP3 SWAP2 SWAP1 PUSH2 0x7564 JUMP JUMPDEST PUSH1 0x40 MLOAD DUP1 SWAP2 SUB SWAP1 RETURN JUMPDEST PUSH2 0x5E0 PUSH1 0x4 DUP1 CALLDATASIZE SUB DUP2 ADD SWAP1 PUSH2 0x5DB SWAP2 SWAP1 PUSH2 0x77AB JUMP JUMPDEST PUSH2 0x2393 JUMP JUMPDEST STOP JUMPDEST PUSH2 0x5FC PUSH1 0x4 DUP1 CALLDATASIZE SUB DUP2 ADD SWAP1 PUSH2 0x5F7 SWAP2 SWAP1 PUSH2 0x77AB JUMP JUMPDEST PUSH2 0x23A0 JUMP JUMPDEST PUSH1 0x40 MLOAD PUSH2 0x60C SWAP5 SWAP4 SWAP3 SWAP2 SWAP1 PUSH2 0x7CFF JUMP JUMPDEST PUSH1 0x40 MLOAD DUP1 SWAP2 SUB SWAP1 RETURN JUMPDEST PUSH2 0x61D PUSH2 0x2426 JUMP JUMPDEST PUSH1 0x40 MLOAD PUSH2 0x62A SWAP2 SWAP1 PUSH2 0x7D65 JUMP JUMPDEST PUSH1 0x40 MLOAD DUP1 SWAP2 SUB SWAP1 RETURN JUMPDEST PUSH2 0x64D PUSH1 0x4 DUP1 CALLDATASIZE SUB DUP2 ADD SWAP1 PUSH2 0x648 SWAP2 SWAP1 PUSH2 0x7D80 JUMP JUMPDEST PUSH2 0x244A JUMP JUMPDEST STOP JUMPDEST PUSH2 0x669 PUSH1 0x4 DUP1 CALLDATASIZE SUB DUP2 ADD SWAP1 PUSH2 0x664 SWAP2 SWAP1 PUSH2 0x76B3 JUMP JUMPDEST PUSH2 0x245C JUMP JUMPDEST PUSH1 0x40 MLOAD PUSH2 0x677 SWAP3 SWAP2 SWAP1 PUSH2 0x7A8F JUMP JUMPDEST PUSH1 0x40 MLOAD DUP1 SWAP2 SUB SWAP1 RETURN JUMPDEST PUSH2 0x69A PUSH1 0x4 DUP1 CALLDATASIZE SUB DUP2 ADD SWAP1 PUSH2 0x695 SWAP2 SWAP1 PUSH2 0x7B5B JUMP JUMPDEST PUSH2 0x24C5 JUMP JUMPDEST STOP JUMPDEST PUSH2 0x6B6 PUSH1 0x4 DUP1 CALLDATASIZE SUB DUP2 ADD SWAP1 PUSH2 0x6B1 SWAP2 SWAP1 PUSH2 0x7DE0 JUMP JUMPDEST PUSH2 0x24D7 JUMP JUMPDEST STOP JUMPDEST PUSH2 0x6D2 PUSH1 0x4 DUP1 CALLDATASIZE SUB DUP2 ADD SWAP1 PUSH2 0x6CD SWAP2 SWAP1 PUSH2 0x7E5B JUMP JUMPDEST PUSH2 0x2855 JUMP JUMPDEST STOP JUMPDEST PUSH2 0x6EE PUSH1 0x4 DUP1 CALLDATASIZE SUB DUP2 ADD SWAP1 PUSH2 0x6E9 SWAP2 SWAP1 PUSH2 0x7B0E JUMP JUMPDEST PUSH2 0x29F2 JUMP JUMPDEST STOP JUMPDEST PUSH2 0x70A PUSH1 0x4 DUP1 CALLDATASIZE SUB DUP2 ADD SWAP1 PUSH2 0x705 SWAP2 SWAP1 PUSH2 0x7EF1 JUMP JUMPDEST PUSH2 0x2A03 JUMP JUMPDEST STOP JUMPDEST PUSH2 0x726 PUSH1 0x4 DUP1 CALLDATASIZE SUB DUP2 ADD SWAP1 PUSH2 0x721 SWAP2 SWAP1 PUSH2 0x77AB JUMP JUMPDEST PUSH2 0x2A2B JUMP JUMPDEST STOP JUMPDEST PUSH2 0x742 PUSH1 0x4 DUP1 CALLDATASIZE SUB DUP2 ADD SWAP1 PUSH2 0x73D SWAP2 SWAP1 PUSH2 0x7F72 JUMP JUMPDEST PUSH2 0x2AEA JUMP JUMPDEST PUSH1 0x40 MLOAD PUSH2 0x750 SWAP3 SWAP2 SWAP1 PUSH2 0x7FC5 JUMP JUMPDEST PUSH1 0x40 MLOAD DUP1 SWAP2 SUB SWAP1 RETURN JUMPDEST PUSH2 0x773 PUSH1 0x4 DUP1 CALLDATASIZE SUB DUP2 ADD SWAP1 PUSH2 0x76E SWAP2 SWAP1 PUSH2 0x737B JUMP JUMPDEST PUSH2 0x2EF5 JUMP JUMPDEST PUSH1 0x40 MLOAD PUSH2 0x780 SWAP2 SWAP1 PUSH2 0x8069 JUMP JUMPDEST PUSH1 0x40 MLOAD DUP1 SWAP2 SUB SWAP1 RETURN JUMPDEST PUSH2 0x7A3 PUSH1 0x4 DUP1 CALLDATASIZE SUB DUP2 ADD SWAP1 PUSH2 0x79E SWAP2 SWAP1 PUSH2 0x8084 JUMP JUMPDEST PUSH2 0x3050 JUMP JUMPDEST STOP JUMPDEST PUSH2 0x7BF PUSH1 0x4 DUP1 CALLDATASIZE SUB DUP2 ADD SWAP1 PUSH2 0x7BA SWAP2 SWAP1 PUSH2 0x7E5B JUMP JUMPDEST PUSH2 0x3063 JUMP JUMPDEST STOP JUMPDEST PUSH2 0x7DB PUSH1 0x4 DUP1 CALLDATASIZE SUB DUP2 ADD SWAP1 PUSH2 0x7D6 SWAP2 SWAP1 PUSH2 0x7D80 JUMP JUMPDEST PUSH2 0x321E JUMP JUMPDEST STOP JUMPDEST PUSH2 0x7F7 PUSH1 0x4 DUP1 CALLDATASIZE SUB DUP2 ADD SWAP1 PUSH2 0x7F2 SWAP2 SWAP1 PUSH2 0x737B JUMP JUMPDEST PUSH2 0x3230 JUMP JUMPDEST STOP JUMPDEST PUSH2 0x813 PUSH1 0x4 DUP1 CALLDATASIZE SUB DUP2 ADD SWAP1 PUSH2 0x80E SWAP2 SWAP1 PUSH2 0x737B JUMP JUMPDEST PUSH2 0x32B4 JUMP JUMPDEST PUSH1 0x40 MLOAD PUSH2 0x820 SWAP2 SWAP1 PUSH2 0x751A JUMP JUMPDEST PUSH1 0x40 MLOAD DUP1 SWAP2 SUB SWAP1 RETURN JUMPDEST PUSH2 0x843 PUSH1 0x4 DUP1 CALLDATASIZE SUB DUP2 ADD SWAP1 PUSH2 0x83E SWAP2 SWAP1 PUSH2 0x737B JUMP JUMPDEST PUSH2 0x32C8 JUMP JUMPDEST PUSH1 0x40 MLOAD PUSH2 0x850 SWAP2 SWAP1 PUSH2 0x7A1F JUMP JUMPDEST PUSH1 0x40 MLOAD DUP1 SWAP2 SUB SWAP1 RETURN JUMPDEST PUSH2 0x873 PUSH1 0x4 DUP1 CALLDATASIZE SUB DUP2 ADD SWAP1 PUSH2 0x86E SWAP2 SWAP1 PUSH2 0x7B0E JUMP JUMPDEST PUSH2 0x335F JUMP JUMPDEST STOP JUMPDEST PUSH1 0x60 PUSH2 0x882 DUP3 PUSH1 0x3 PUSH2 0x3370 JUMP JUMPDEST SWAP1 POP SWAP2 SWAP1 POP JUMP JUMPDEST PUSH1 0x60 PUSH1 0x0 PUSH2 0x896 DUP4 PUSH2 0x2EF5 JUMP JUMPDEST SWAP1 POP PUSH1 0x0 PUSH2 0x8A3 DUP5 PUSH2 0x234E JUMP JUMPDEST SWAP1 POP PUSH1 0x0 PUSH2 0x8B0 DUP6 PUSH2 0x32B4 JUMP JUMPDEST SWAP1 POP PUSH1 0x0 PUSH2 0x8BD DUP7 PUSH2 0x875 JUMP JUMPDEST SWAP1 POP PUSH1 0x0 PUSH2 0x8CA DUP8 PUSH2 0xCCF JUMP JUMPDEST SWAP1 POP PUSH1 0x0 PUSH1 0x1 DUP3 MLOAD DUP5 MLOAD DUP7 MLOAD DUP9 MLOAD PUSH2 0x8E2 SWAP2 SWAP1 PUSH2 0x8134 JUMP JUMPDEST PUSH2 0x8EC SWAP2 SWAP1 PUSH2 0x8134 JUMP JUMPDEST PUSH2 0x8F6 SWAP2 SWAP1 PUSH2 0x8134 JUMP JUMPDEST PUSH2 0x900 SWAP2 SWAP1 PUSH2 0x8134 JUMP JUMPDEST SWAP1 POP PUSH1 0x0 DUP2 PUSH8 0xFFFFFFFFFFFFFFFF DUP2 GT ISZERO PUSH2 0x91E JUMPI PUSH2 0x91D PUSH2 0x818A JUMP JUMPDEST JUMPDEST PUSH1 0x40 MLOAD SWAP1 DUP1 DUP3 MSTORE DUP1 PUSH1 0x20 MUL PUSH1 0x20 ADD DUP3 ADD PUSH1 0x40 MSTORE DUP1 ISZERO PUSH2 0x957 JUMPI DUP2 PUSH1 0x20 ADD JUMPDEST PUSH2 0x944 PUSH2 0x71A3 JUMP JUMPDEST DUP2 MSTORE PUSH1 0x20 ADD SWAP1 PUSH1 0x1 SWAP1 SUB SWAP1 DUP2 PUSH2 0x93C JUMPI SWAP1 POP JUMPDEST POP SWAP1 POP PUSH1 0x0 DUP8 DUP3 DUP3 DUP2 MLOAD DUP2 LT PUSH2 0x970 JUMPI PUSH2 0x96F PUSH2 0x81B9 JUMP JUMPDEST JUMPDEST PUSH1 0x20 MUL PUSH1 0x20 ADD ADD DUP2 SWAP1 MSTORE POP DUP1 PUSH2 0x985 SWAP1 PUSH2 0x81E8 JUMP JUMPDEST SWAP1 POP PUSH1 0x0 JUMPDEST DUP8 MLOAD DUP2 LT ISZERO PUSH2 0x9E9 JUMPI DUP8 DUP2 DUP2 MLOAD DUP2 LT PUSH2 0x9A6 JUMPI PUSH2 0x9A5 PUSH2 0x81B9 JUMP JUMPDEST JUMPDEST PUSH1 0x20 MUL PUSH1 0x20 ADD ADD MLOAD DUP4 DUP4 DUP2 MLOAD DUP2 LT PUSH2 0x9C1 JUMPI PUSH2 0x9C0 PUSH2 0x81B9 JUMP JUMPDEST JUMPDEST PUSH1 0x20 MUL PUSH1 0x20 ADD ADD DUP2 SWAP1 MSTORE POP DUP2 PUSH2 0x9D6 SWAP1 PUSH2 0x81E8 JUMP JUMPDEST SWAP2 POP DUP1 PUSH2 0x9E2 SWAP1 PUSH2 0x81E8 JUMP JUMPDEST SWAP1 POP PUSH2 0x98A JUMP JUMPDEST POP PUSH1 0x0 JUMPDEST DUP7 MLOAD DUP2 LT ISZERO PUSH2 0xA4C JUMPI DUP7 DUP2 DUP2 MLOAD DUP2 LT PUSH2 0xA09 JUMPI PUSH2 0xA08 PUSH2 0x81B9 JUMP JUMPDEST JUMPDEST PUSH1 0x20 MUL PUSH1 0x20 ADD ADD MLOAD DUP4 DUP4 DUP2 MLOAD DUP2 LT PUSH2 0xA24 JUMPI PUSH2 0xA23 PUSH2 0x81B9 JUMP JUMPDEST JUMPDEST PUSH1 0x20 MUL PUSH1 0x20 ADD ADD DUP2 SWAP1 MSTORE POP DUP2 PUSH2 0xA39 SWAP1 PUSH2 0x81E8 JUMP JUMPDEST SWAP2 POP DUP1 PUSH2 0xA45 SWAP1 PUSH2 0x81E8 JUMP JUMPDEST SWAP1 POP PUSH2 0x9ED JUMP JUMPDEST POP PUSH1 0x0 JUMPDEST DUP6 MLOAD DUP2 LT ISZERO PUSH2 0xAAF JUMPI DUP6 DUP2 DUP2 MLOAD DUP2 LT PUSH2 0xA6C JUMPI PUSH2 0xA6B PUSH2 0x81B9 JUMP JUMPDEST JUMPDEST PUSH1 0x20 MUL PUSH1 0x20 ADD ADD MLOAD DUP4 DUP4 DUP2 MLOAD DUP2 LT PUSH2 0xA87 JUMPI PUSH2 0xA86 PUSH2 0x81B9 JUMP JUMPDEST JUMPDEST PUSH1 0x20 MUL PUSH1 0x20 ADD ADD DUP2 SWAP1 MSTORE POP DUP2 PUSH2 0xA9C SWAP1 PUSH2 0x81E8 JUMP JUMPDEST SWAP2 POP DUP1 PUSH2 0xAA8 SWAP1 PUSH2 0x81E8 JUMP JUMPDEST SWAP1 POP PUSH2 0xA50 JUMP JUMPDEST POP PUSH1 0x0 JUMPDEST DUP5 MLOAD DUP2 LT ISZERO PUSH2 0xB12 JUMPI DUP5 DUP2 DUP2 MLOAD DUP2 LT PUSH2 0xACF JUMPI PUSH2 0xACE PUSH2 0x81B9 JUMP JUMPDEST JUMPDEST PUSH1 0x20 MUL PUSH1 0x20 ADD ADD MLOAD DUP4 DUP4 DUP2 MLOAD DUP2 LT PUSH2 0xAEA JUMPI PUSH2 0xAE9 PUSH2 0x81B9 JUMP JUMPDEST JUMPDEST PUSH1 0x20 MUL PUSH1 0x20 ADD ADD DUP2 SWAP1 MSTORE POP DUP2 PUSH2 0xAFF SWAP1 PUSH2 0x81E8 JUMP JUMPDEST SWAP2 POP DUP1 PUSH2 0xB0B SWAP1 PUSH2 0x81E8 JUMP JUMPDEST SWAP1 POP PUSH2 0xAB3 JUMP JUMPDEST POP DUP2 SWAP9 POP POP POP POP POP POP POP POP POP SWAP2 SWAP1 POP JUMP JUMPDEST PUSH1 0x1 PUSH1 0x20 MSTORE DUP1 PUSH1 0x0 MSTORE PUSH1 0x40 PUSH1 0x0 KECCAK256 PUSH1 0x0 SWAP2 POP SWAP1 POP DUP1 PUSH1 0x0 ADD SLOAD SWAP1 DUP1 PUSH1 0x1 ADD SLOAD SWAP1 POP DUP3 JUMP JUMPDEST PUSH2 0xB51 PUSH1 0x3 PUSH2 0x1545 JUMP JUMPDEST PUSH2 0xB5E PUSH1 0x1 DUP7 DUP7 DUP5 PUSH2 0x38C1 JUMP JUMPDEST PUSH2 0xB6B PUSH1 0x2 DUP5 DUP5 DUP5 PUSH2 0x38C1 JUMP JUMPDEST POP POP POP POP POP JUMP JUMPDEST PUSH2 0xB7A PUSH2 0x71DF JUMP JUMPDEST PUSH1 0x4 DUP4 PUSH1 0x4 DUP2 LT PUSH2 0xB8E JUMPI PUSH2 0xB8D PUSH2 0x81B9 JUMP JUMPDEST JUMPDEST PUSH1 0x2 MUL ADD PUSH1 0x1 ADD DUP3 DUP2 SLOAD DUP2 LT PUSH2 0xBA7 JUMPI PUSH2 0xBA6 PUSH2 0x81B9 JUMP JUMPDEST JUMPDEST SWAP1 PUSH1 0x0 MSTORE PUSH1 0x20 PUSH1 0x0 KECCAK256 SWAP1 PUSH1 0x2 MUL ADD PUSH1 0x40 MLOAD DUP1 PUSH1 0x80 ADD PUSH1 0x40 MSTORE SWAP1 DUP2 PUSH1 0x0 DUP3 ADD PUSH1 0x0 SWAP1 SLOAD SWAP1 PUSH2 0x100 EXP SWAP1 DIV PUSH6 0xFFFFFFFFFFFF AND PUSH6 0xFFFFFFFFFFFF AND PUSH6 0xFFFFFFFFFFFF AND DUP2 MSTORE PUSH1 0x20 ADD PUSH1 0x0 DUP3 ADD PUSH1 0x6 SWAP1 SLOAD SWAP1 PUSH2 0x100 EXP SWAP1 DIV PUSH6 0xFFFFFFFFFFFF AND PUSH6 0xFFFFFFFFFFFF AND PUSH6 0xFFFFFFFFFFFF AND DUP2 MSTORE PUSH1 0x20 ADD PUSH1 0x0 DUP3 ADD PUSH1 0xC SWAP1 SLOAD SWAP1 PUSH2 0x100 EXP SWAP1 DIV PUSH12 0xFFFFFFFFFFFFFFFFFFFFFFFF AND PUSH12 0xFFFFFFFFFFFFFFFFFFFFFFFF AND PUSH12 0xFFFFFFFFFFFFFFFFFFFFFFFF AND DUP2 MSTORE PUSH1 0x20 ADD PUSH1 0x1 DUP3 ADD PUSH1 0x0 SWAP1 SLOAD SWAP1 PUSH2 0x100 EXP SWAP1 DIV PUSH12 0xFFFFFFFFFFFFFFFFFFFFFFFF AND PUSH12 0xFFFFFFFFFFFFFFFFFFFFFFFF AND PUSH12 0xFFFFFFFFFFFFFFFFFFFFFFFF AND DUP2 MSTORE POP POP SWAP1 POP SWAP3 SWAP2 POP POP JUMP JUMPDEST PUSH1 0xC PUSH1 0x20 MSTORE DUP1 PUSH1 0x0 MSTORE PUSH1 0x40 PUSH1 0x0 KECCAK256 PUSH1 0x0 SWAP2 POP SLOAD SWAP1 PUSH2 0x100 EXP SWAP1 DIV PUSH20 0xFFFFFFFFFFFFFFFFFFFFFFFFFFFFFFFFFFFFFFFF AND DUP2 JUMP JUMPDEST PUSH1 0x60 PUSH1 0x0 PUSH2 0xD8C PUSH1 0xC PUSH1 0x0 PUSH1 0x1 DUP2 MSTORE PUSH1 0x20 ADD SWAP1 DUP2 MSTORE PUSH1 0x20 ADD PUSH1 0x0 KECCAK256 PUSH1 0x0 SWAP1 SLOAD SWAP1 PUSH2 0x100 EXP SWAP1 DIV PUSH20 0xFFFFFFFFFFFFFFFFFFFFFFFFFFFFFFFFFFFFFFFF AND PUSH20 0xFFFFFFFFFFFFFFFFFFFFFFFFFFFFFFFFFFFFFFFF AND PUSH4 0x70A08231 DUP6 PUSH1 0x40 MLOAD DUP3 PUSH4 0xFFFFFFFF AND PUSH1 0xE0 SHL DUP2 MSTORE PUSH1 0x4 ADD PUSH2 0xD43 SWAP2 SWAP1 PUSH2 0x7CA9 JUMP JUMPDEST PUSH1 0x20 PUSH1 0x40 MLOAD DUP1 DUP4 SUB DUP2 DUP7 GAS STATICCALL ISZERO DUP1 ISZERO PUSH2 0xD60 JUMPI RETURNDATASIZE PUSH1 0x0 DUP1 RETURNDATACOPY RETURNDATASIZE PUSH1 0x0 REVERT JUMPDEST POP POP POP POP PUSH1 0x40 MLOAD RETURNDATASIZE PUSH1 0x1F NOT PUSH1 0x1F DUP3 ADD AND DUP3 ADD DUP1 PUSH1 0x40 MSTORE POP DUP2 ADD SWAP1 PUSH2 0xD84 SWAP2 SWAP1 PUSH2 0x8246 JUMP JUMPDEST DUP5 PUSH1 0x1 PUSH2 0x3D86 JUMP JUMPDEST SWAP1 POP PUSH1 0x0 PUSH2 0xE49 PUSH1 0xC PUSH1 0x0 PUSH1 0x2 DUP2 MSTORE PUSH1 0x20 ADD SWAP1 DUP2 MSTORE PUSH1 0x20 ADD PUSH1 0x0 KECCAK256 PUSH1 0x0 SWAP1 SLOAD SWAP1 PUSH2 0x100 EXP SWAP1 DIV PUSH20 0xFFFFFFFFFFFFFFFFFFFFFFFFFFFFFFFFFFFFFFFF AND PUSH20 0xFFFFFFFFFFFFFFFFFFFFFFFFFFFFFFFFFFFFFFFF AND PUSH4 0x70A08231 DUP7 PUSH1 0x40 MLOAD DUP3 PUSH4 0xFFFFFFFF AND PUSH1 0xE0 SHL DUP2 MSTORE PUSH1 0x4 ADD PUSH2 0xE00 SWAP2 SWAP1 PUSH2 0x7CA9 JUMP JUMPDEST PUSH1 0x20 PUSH1 0x40 MLOAD DUP1 DUP4 SUB DUP2 DUP7 GAS STATICCALL ISZERO DUP1 ISZERO PUSH2 0xE1D JUMPI RETURNDATASIZE PUSH1 0x0 DUP1 RETURNDATACOPY RETURNDATASIZE PUSH1 0x0 REVERT JUMPDEST POP POP POP POP PUSH1 0x40 MLOAD RETURNDATASIZE PUSH1 0x1F NOT PUSH1 0x1F DUP3 ADD AND DUP3 ADD DUP1 PUSH1 0x40 MSTORE POP DUP2 ADD SWAP1 PUSH2 0xE41 SWAP2 SWAP1 PUSH2 0x8246 JUMP JUMPDEST DUP6 PUSH1 0x2 PUSH2 0x3D86 JUMP JUMPDEST SWAP1 POP PUSH1 0x0 DUP2 DUP4 PUSH2 0xE59 SWAP2 SWAP1 PUSH2 0x8134 JUMP JUMPDEST SWAP1 POP PUSH1 0x0 DUP2 EQ ISZERO PUSH2 0xEC3 JUMPI PUSH1 0x0 PUSH8 0xFFFFFFFFFFFFFFFF DUP2 GT ISZERO PUSH2 0xE7F JUMPI PUSH2 0xE7E PUSH2 0x818A JUMP JUMPDEST JUMPDEST PUSH1 0x40 MLOAD SWAP1 DUP1 DUP3 MSTORE DUP1 PUSH1 0x20 MUL PUSH1 0x20 ADD DUP3 ADD PUSH1 0x40 MSTORE DUP1 ISZERO PUSH2 0xEB8 JUMPI DUP2 PUSH1 0x20 ADD JUMPDEST PUSH2 0xEA5 PUSH2 0x71A3 JUMP JUMPDEST DUP2 MSTORE PUSH1 0x20 ADD SWAP1 PUSH1 0x1 SWAP1 SUB SWAP1 DUP2 PUSH2 0xE9D JUMPI SWAP1 POP JUMPDEST POP SWAP4 POP POP POP POP PUSH2 0x100D JUMP JUMPDEST PUSH1 0x0 PUSH2 0xED1 DUP5 DUP8 PUSH1 0x1 PUSH2 0x400C JUMP JUMPDEST SWAP1 POP PUSH1 0x0 PUSH2 0xEE1 DUP5 DUP9 PUSH1 0x2 PUSH2 0x400C JUMP JUMPDEST SWAP1 POP PUSH1 0x0 DUP4 PUSH8 0xFFFFFFFFFFFFFFFF DUP2 GT ISZERO PUSH2 0xEFF JUMPI PUSH2 0xEFE PUSH2 0x818A JUMP JUMPDEST JUMPDEST PUSH1 0x40 MLOAD SWAP1 DUP1 DUP3 MSTORE DUP1 PUSH1 0x20 MUL PUSH1 0x20 ADD DUP3 ADD PUSH1 0x40 MSTORE DUP1 ISZERO PUSH2 0xF38 JUMPI DUP2 PUSH1 0x20 ADD JUMPDEST PUSH2 0xF25 PUSH2 0x71A3 JUMP JUMPDEST DUP2 MSTORE PUSH1 0x20 ADD SWAP1 PUSH1 0x1 SWAP1 SUB SWAP1 DUP2 PUSH2 0xF1D JUMPI SWAP1 POP JUMPDEST POP SWAP1 POP PUSH1 0x0 DUP1 JUMPDEST DUP5 MLOAD DUP2 LT ISZERO PUSH2 0xF9E JUMPI DUP5 DUP2 DUP2 MLOAD DUP2 LT PUSH2 0xF5B JUMPI PUSH2 0xF5A PUSH2 0x81B9 JUMP JUMPDEST JUMPDEST PUSH1 0x20 MUL PUSH1 0x20 ADD ADD MLOAD DUP4 DUP4 DUP2 MLOAD DUP2 LT PUSH2 0xF76 JUMPI PUSH2 0xF75 PUSH2 0x81B9 JUMP JUMPDEST JUMPDEST PUSH1 0x20 MUL PUSH1 0x20 ADD ADD DUP2 SWAP1 MSTORE POP DUP2 PUSH2 0xF8B SWAP1 PUSH2 0x81E8 JUMP JUMPDEST SWAP2 POP DUP1 PUSH2 0xF97 SWAP1 PUSH2 0x81E8 JUMP JUMPDEST SWAP1 POP PUSH2 0xF3F JUMP JUMPDEST POP PUSH1 0x0 JUMPDEST DUP4 MLOAD DUP2 LT ISZERO PUSH2 0x1001 JUMPI DUP4 DUP2 DUP2 MLOAD DUP2 LT PUSH2 0xFBE JUMPI PUSH2 0xFBD PUSH2 0x81B9 JUMP JUMPDEST JUMPDEST PUSH1 0x20 MUL PUSH1 0x20 ADD ADD MLOAD DUP4 DUP4 DUP2 MLOAD DUP2 LT PUSH2 0xFD9 JUMPI PUSH2 0xFD8 PUSH2 0x81B9 JUMP JUMPDEST JUMPDEST PUSH1 0x20 MUL PUSH1 0x20 ADD ADD DUP2 SWAP1 MSTORE POP DUP2 PUSH2 0xFEE SWAP1 PUSH2 0x81E8 JUMP JUMPDEST SWAP2 POP DUP1 PUSH2 0xFFA SWAP1 PUSH2 0x81E8 JUMP JUMPDEST SWAP1 POP PUSH2 0xFA2 JUMP JUMPDEST POP DUP2 SWAP8 POP POP POP POP POP POP POP POP JUMPDEST SWAP2 SWAP1 POP JUMP JUMPDEST PUSH2 0x101F PUSH1 0x1 DUP4 DUP4 CALLER PUSH2 0x45B9 JUMP JUMPDEST POP POP JUMP JUMPDEST PUSH2 0x102D PUSH1 0x3 PUSH2 0x1545 JUMP JUMPDEST PUSH2 0x1039 PUSH1 0x1 DUP6 DUP6 PUSH2 0x47A1 JUMP JUMPDEST PUSH2 0x1045 PUSH1 0x2 DUP4 DUP4 PUSH2 0x47A1 JUMP JUMPDEST POP POP POP POP JUMP JUMPDEST PUSH1 0x0 DUP1 PUSH1 0x4 DUP6 PUSH1 0x4 DUP2 LT PUSH2 0x1062 JUMPI PUSH2 0x1061 PUSH2 0x81B9 JUMP JUMPDEST JUMPDEST PUSH1 0x2 MUL ADD PUSH1 0x40 MLOAD DUP1 PUSH1 0xA0 ADD PUSH1 0x40 MSTORE SWAP1 DUP2 PUSH1 0x0 DUP3 ADD PUSH1 0x0 SWAP1 SLOAD SWAP1 PUSH2 0x100 EXP SWAP1 DIV PUSH6 0xFFFFFFFFFFFF AND PUSH6 0xFFFFFFFFFFFF AND PUSH6 0xFFFFFFFFFFFF AND DUP2 MSTORE PUSH1 0x20 ADD PUSH1 0x0 DUP3 ADD PUSH1 0x6 SWAP1 SLOAD SWAP1 PUSH2 0x100 EXP SWAP1 DIV PUSH2 0xFFFF AND PUSH2 0xFFFF AND PUSH2 0xFFFF AND DUP2 MSTORE PUSH1 0x20 ADD PUSH1 0x0 DUP3 ADD PUSH1 0x8 SWAP1 SLOAD SWAP1 PUSH2 0x100 EXP SWAP1 DIV PUSH12 0xFFFFFFFFFFFFFFFFFFFFFFFF AND PUSH12 0xFFFFFFFFFFFFFFFFFFFFFFFF AND PUSH12 0xFFFFFFFFFFFFFFFFFFFFFFFF AND DUP2 MSTORE PUSH1 0x20 ADD PUSH1 0x0 DUP3 ADD PUSH1 0x14 SWAP1 SLOAD SWAP1 PUSH2 0x100 EXP SWAP1 DIV PUSH12 0xFFFFFFFFFFFFFFFFFFFFFFFF AND PUSH12 0xFFFFFFFFFFFFFFFFFFFFFFFF AND PUSH12 0xFFFFFFFFFFFFFFFFFFFFFFFF AND DUP2 MSTORE PUSH1 0x20 ADD PUSH1 0x1 DUP3 ADD DUP1 SLOAD DUP1 PUSH1 0x20 MUL PUSH1 0x20 ADD PUSH1 0x40 MLOAD SWAP1 DUP2 ADD PUSH1 0x40 MSTORE DUP1 SWAP3 SWAP2 SWAP1 DUP2 DUP2 MSTORE PUSH1 0x20 ADD PUSH1 0x0 SWAP1 JUMPDEST DUP3 DUP3 LT ISZERO PUSH2 0x1264 JUMPI DUP4 DUP3 SWAP1 PUSH1 0x0 MSTORE PUSH1 0x20 PUSH1 0x0 KECCAK256 SWAP1 PUSH1 0x2 MUL ADD PUSH1 0x40 MLOAD DUP1 PUSH1 0x80 ADD PUSH1 0x40 MSTORE SWAP1 DUP2 PUSH1 0x0 DUP3 ADD PUSH1 0x0 SWAP1 SLOAD SWAP1 PUSH2 0x100 EXP SWAP1 DIV PUSH6 0xFFFFFFFFFFFF AND PUSH6 0xFFFFFFFFFFFF AND PUSH6 0xFFFFFFFFFFFF AND DUP2 MSTORE PUSH1 0x20 ADD PUSH1 0x0 DUP3 ADD PUSH1 0x6 SWAP1 SLOAD SWAP1 PUSH2 0x100 EXP SWAP1 DIV PUSH6 0xFFFFFFFFFFFF AND PUSH6 0xFFFFFFFFFFFF AND PUSH6 0xFFFFFFFFFFFF AND DUP2 MSTORE PUSH1 0x20 ADD PUSH1 0x0 DUP3 ADD PUSH1 0xC SWAP1 SLOAD SWAP1 PUSH2 0x100 EXP SWAP1 DIV PUSH12 0xFFFFFFFFFFFFFFFFFFFFFFFF AND PUSH12 0xFFFFFFFFFFFFFFFFFFFFFFFF AND PUSH12 0xFFFFFFFFFFFFFFFFFFFFFFFF AND DUP2 MSTORE PUSH1 0x20 ADD PUSH1 0x1 DUP3 ADD PUSH1 0x0 SWAP1 SLOAD SWAP1 PUSH2 0x100 EXP SWAP1 DIV PUSH12 0xFFFFFFFFFFFFFFFFFFFFFFFF AND PUSH12 0xFFFFFFFFFFFFFFFFFFFFFFFF AND PUSH12 0xFFFFFFFFFFFFFFFFFFFFFFFF AND DUP2 MSTORE POP POP DUP2 MSTORE PUSH1 0x20 ADD SWAP1 PUSH1 0x1 ADD SWAP1 PUSH2 0x115E JUMP JUMPDEST POP POP POP POP DUP2 MSTORE POP POP SWAP1 POP PUSH1 0x0 DUP1 DUP7 EQ PUSH2 0x12A0 JUMPI PUSH1 0xD PUSH1 0x0 DUP8 DUP2 MSTORE PUSH1 0x20 ADD SWAP1 DUP2 MSTORE PUSH1 0x20 ADD PUSH1 0x0 KECCAK256 PUSH1 0x0 DUP6 DUP2 MSTORE PUSH1 0x20 ADD SWAP1 DUP2 MSTORE PUSH1 0x20 ADD PUSH1 0x0 KECCAK256 PUSH2 0x12E0 JUMP JUMPDEST PUSH1 0x1 PUSH1 0x0 DUP7 PUSH20 0xFFFFFFFFFFFFFFFFFFFFFFFFFFFFFFFFFFFFFFFF AND PUSH20 0xFFFFFFFFFFFFFFFFFFFFFFFFFFFFFFFFFFFFFFFF AND DUP2 MSTORE PUSH1 0x20 ADD SWAP1 DUP2 MSTORE PUSH1 0x20 ADD PUSH1 0x0 KECCAK256 JUMPDEST PUSH1 0x40 MLOAD DUP1 PUSH1 0x40 ADD PUSH1 0x40 MSTORE SWAP1 DUP2 PUSH1 0x0 DUP3 ADD SLOAD DUP2 MSTORE PUSH1 0x20 ADD PUSH1 0x1 DUP3 ADD SLOAD DUP2 MSTORE POP POP SWAP1 POP PUSH1 0x0 PUSH2 0x1321 DUP8 DUP5 PUSH1 0x0 ADD MLOAD PUSH6 0xFFFFFFFFFFFF AND PUSH2 0x131C PUSH2 0x501F JUMP JUMPDEST PUSH2 0x2AEA JUMP JUMPDEST POP SWAP1 POP PUSH1 0x0 DUP4 PUSH1 0x60 ADD MLOAD PUSH12 0xFFFFFFFFFFFFFFFFFFFFFFFF AND SWAP1 POP PUSH2 0xE10 DUP5 PUSH1 0x0 ADD MLOAD PUSH6 0xFFFFFFFFFFFF AND PUSH2 0x1355 SWAP2 SWAP1 PUSH2 0x8134 JUMP JUMPDEST TIMESTAMP GT DUP1 ISZERO PUSH2 0x1376 JUMPI POP PUSH1 0x0 DUP5 PUSH1 0x40 ADD MLOAD PUSH12 0xFFFFFFFFFFFFFFFFFFFFFFFF AND EQ ISZERO JUMPDEST ISZERO PUSH2 0x13BA JUMPI DUP4 PUSH1 0x40 ADD MLOAD PUSH12 0xFFFFFFFFFFFFFFFFFFFFFFFF AND PUSH8 0xDE0B6B3A7640000 DUP4 PUSH2 0x13A2 SWAP2 SWAP1 PUSH2 0x8273 JUMP JUMPDEST PUSH2 0x13AC SWAP2 SWAP1 PUSH2 0x82FC JUMP JUMPDEST DUP2 PUSH2 0x13B7 SWAP2 SWAP1 PUSH2 0x8134 JUMP JUMPDEST SWAP1 POP JUMPDEST PUSH8 0xDE0B6B3A7640000 PUSH2 0x13F2 DUP5 PUSH1 0x20 ADD MLOAD PUSH2 0x13E3 DUP5 DUP8 PUSH1 0x0 ADD MLOAD PUSH2 0x13DE SWAP2 SWAP1 PUSH2 0x8273 JUMP JUMPDEST PUSH2 0x5059 JUMP JUMPDEST PUSH2 0x13ED SWAP2 SWAP1 PUSH2 0x832D JUMP JUMPDEST PUSH2 0x50C6 JUMP JUMPDEST PUSH2 0x13FC SWAP2 SWAP1 PUSH2 0x82FC JUMP JUMPDEST SWAP5 POP POP POP POP POP SWAP4 SWAP3 POP POP POP JUMP JUMPDEST PUSH2 0x1413 PUSH1 0x0 PUSH2 0x1545 JUMP JUMPDEST PUSH1 0x0 PUSH1 0x1 PUSH1 0x0 CALLER PUSH20 0xFFFFFFFFFFFFFFFFFFFFFFFFFFFFFFFFFFFFFFFF AND PUSH20 0xFFFFFFFFFFFFFFFFFFFFFFFFFFFFFFFFFFFFFFFF AND DUP2 MSTORE PUSH1 0x20 ADD SWAP1 DUP2 MSTORE PUSH1 0x20 ADD PUSH1 0x0 KECCAK256 SWAP1 POP PUSH1 0x0 PUSH2 0x1464 PUSH1 0x0 DUP4 DUP6 PUSH2 0x5113 JUMP JUMPDEST SWAP1 POP CALLER PUSH20 0xFFFFFFFFFFFFFFFFFFFFFFFFFFFFFFFFFFFFFFFF AND PUSH32 0x30F754A3E747235920C21AFECA14E881B260D41C7E657ADA6C0B049F7EEBCA9 DUP3 DUP6 PUSH1 0x40 MLOAD PUSH2 0x14AE SWAP3 SWAP2 SWAP1 PUSH2 0x83C1 JUMP JUMPDEST PUSH1 0x40 MLOAD DUP1 SWAP2 SUB SWAP1 LOG2 POP POP POP JUMP JUMPDEST PUSH1 0xE PUSH1 0x20 MSTORE DUP2 PUSH1 0x0 MSTORE PUSH1 0x40 PUSH1 0x0 KECCAK256 PUSH1 0x20 MSTORE DUP1 PUSH1 0x0 MSTORE PUSH1 0x40 PUSH1 0x0 KECCAK256 PUSH1 0x0 SWAP2 POP SWAP2 POP POP DUP1 PUSH1 0x0 ADD PUSH1 0x0 SWAP1 SLOAD SWAP1 PUSH2 0x100 EXP SWAP1 DIV PUSH31 0xFFFFFFFFFFFFFFFFFFFFFFFFFFFFFFFFFFFFFFFFFFFFFFFFFFFFFFFFFFFFFF AND SWAP1 DUP1 PUSH1 0x0 ADD PUSH1 0x1F SWAP1 SLOAD SWAP1 PUSH2 0x100 EXP SWAP1 DIV PUSH1 0xFF AND SWAP1 POP DUP3 JUMP JUMPDEST PUSH2 0x1531 PUSH1 0x2 DUP4 DUP4 CALLER PUSH2 0x45B9 JUMP JUMPDEST POP POP JUMP JUMPDEST PUSH2 0x1541 PUSH1 0x1 DUP4 DUP4 PUSH2 0x525D JUMP JUMPDEST POP POP JUMP JUMPDEST PUSH1 0x0 PUSH1 0x4 DUP3 PUSH1 0x4 DUP2 LT PUSH2 0x155B JUMPI PUSH2 0x155A PUSH2 0x81B9 JUMP JUMPDEST JUMPDEST PUSH1 0x2 MUL ADD SWAP1 POP DUP1 PUSH1 0x1 ADD PUSH1 0x0 DUP2 SLOAD DUP2 LT PUSH2 0x1578 JUMPI PUSH2 0x1577 PUSH2 0x81B9 JUMP JUMPDEST JUMPDEST SWAP1 PUSH1 0x0 MSTORE PUSH1 0x20 PUSH1 0x0 KECCAK256 SWAP1 PUSH1 0x2 MUL ADD PUSH1 0x0 ADD PUSH1 0x0 SWAP1 SLOAD SWAP1 PUSH2 0x100 EXP SWAP1 DIV PUSH6 0xFFFFFFFFFFFF AND PUSH6 0xFFFFFFFFFFFF AND TIMESTAMP LT ISZERO PUSH2 0x15B1 JUMPI POP PUSH2 0x18D8 JUMP JUMPDEST PUSH2 0xE10 DUP2 PUSH1 0x0 ADD PUSH1 0x0 SWAP1 SLOAD SWAP1 PUSH2 0x100 EXP SWAP1 DIV PUSH6 0xFFFFFFFFFFFF AND PUSH6 0xFFFFFFFFFFFF AND PUSH2 0x15DD SWAP2 SWAP1 PUSH2 0x8134 JUMP JUMPDEST TIMESTAMP GT PUSH2 0x15E9 JUMPI POP PUSH2 0x18D8 JUMP JUMPDEST PUSH1 0x0 DUP2 PUSH1 0x1 ADD PUSH1 0x1 DUP4 PUSH1 0x1 ADD DUP1 SLOAD SWAP1 POP PUSH2 0x1603 SWAP2 SWAP1 PUSH2 0x83EA JUMP JUMPDEST DUP2 SLOAD DUP2 LT PUSH2 0x1614 JUMPI PUSH2 0x1613 PUSH2 0x81B9 JUMP JUMPDEST JUMPDEST SWAP1 PUSH1 0x0 MSTORE PUSH1 0x20 PUSH1 0x0 KECCAK256 SWAP1 PUSH1 0x2 MUL ADD PUSH1 0x0 ADD PUSH1 0x6 SWAP1 SLOAD SWAP1 PUSH2 0x100 EXP SWAP1 DIV PUSH6 0xFFFFFFFFFFFF AND SWAP1 POP PUSH1 0x0 PUSH2 0x164C PUSH2 0x1647 PUSH2 0x501F JUMP JUMPDEST PUSH2 0x556C JUMP JUMPDEST SWAP1 POP PUSH1 0x0 DUP4 PUSH1 0x0 ADD PUSH1 0x8 SWAP1 SLOAD SWAP1 PUSH2 0x100 EXP SWAP1 DIV PUSH12 0xFFFFFFFFFFFFFFFFFFFFFFFF AND PUSH12 0xFFFFFFFFFFFFFFFFFFFFFFFF AND EQ ISZERO PUSH2 0x16CE JUMPI DUP2 PUSH6 0xFFFFFFFFFFFF AND DUP2 PUSH6 0xFFFFFFFFFFFF AND GT PUSH2 0x169E JUMPI DUP1 PUSH2 0x16A0 JUMP JUMPDEST DUP2 JUMPDEST DUP4 PUSH1 0x0 ADD PUSH1 0x0 PUSH2 0x100 EXP DUP2 SLOAD DUP2 PUSH6 0xFFFFFFFFFFFF MUL NOT AND SWAP1 DUP4 PUSH6 0xFFFFFFFFFFFF AND MUL OR SWAP1 SSTORE POP POP POP POP PUSH2 0x18D8 JUMP JUMPDEST PUSH1 0x0 DUP1 PUSH2 0x1702 DUP7 DUP7 PUSH1 0x0 ADD PUSH1 0x0 SWAP1 SLOAD SWAP1 PUSH2 0x100 EXP SWAP1 DIV PUSH6 0xFFFFFFFFFFFF AND PUSH6 0xFFFFFFFFFFFF AND DUP6 PUSH6 0xFFFFFFFFFFFF AND PUSH2 0x2AEA JUMP JUMPDEST SWAP2 POP SWAP2 POP DUP1 DUP6 PUSH1 0x0 ADD PUSH1 0x6 SWAP1 SLOAD SWAP1 PUSH2 0x100 EXP SWAP1 DIV PUSH2 0xFFFF AND PUSH2 0xFFFF AND EQ PUSH2 0x174B JUMPI PUSH2 0x172C DUP2 PUSH2 0x55C1 JUMP JUMPDEST DUP6 PUSH1 0x0 ADD PUSH1 0x6 PUSH2 0x100 EXP DUP2 SLOAD DUP2 PUSH2 0xFFFF MUL NOT AND SWAP1 DUP4 PUSH2 0xFFFF AND MUL OR SWAP1 SSTORE POP JUMPDEST PUSH2 0x17D1 DUP6 PUSH1 0x0 ADD PUSH1 0x8 SWAP1 SLOAD SWAP1 PUSH2 0x100 EXP SWAP1 DIV PUSH12 0xFFFFFFFFFFFFFFFFFFFFFFFF AND PUSH12 0xFFFFFFFFFFFFFFFFFFFFFFFF AND PUSH8 0xDE0B6B3A7640000 DUP5 PUSH2 0x178D SWAP2 SWAP1 PUSH2 0x8273 JUMP JUMPDEST PUSH2 0x1797 SWAP2 SWAP1 PUSH2 0x82FC JUMP JUMPDEST DUP7 PUSH1 0x0 ADD PUSH1 0x14 SWAP1 SLOAD SWAP1 PUSH2 0x100 EXP SWAP1 DIV PUSH12 0xFFFFFFFFFFFFFFFFFFFFFFFF AND PUSH12 0xFFFFFFFFFFFFFFFFFFFFFFFF AND PUSH2 0x17CC SWAP2 SWAP1 PUSH2 0x8134 JUMP JUMPDEST PUSH2 0x5612 JUMP JUMPDEST DUP6 PUSH1 0x0 ADD PUSH1 0x14 PUSH2 0x100 EXP DUP2 SLOAD DUP2 PUSH12 0xFFFFFFFFFFFFFFFFFFFFFFFF MUL NOT AND SWAP1 DUP4 PUSH12 0xFFFFFFFFFFFFFFFFFFFFFFFF AND MUL OR SWAP1 SSTORE POP DUP4 PUSH6 0xFFFFFFFFFFFF AND DUP4 PUSH6 0xFFFFFFFFFFFF AND GT PUSH2 0x1820 JUMPI DUP3 PUSH2 0x1822 JUMP JUMPDEST DUP4 JUMPDEST DUP6 PUSH1 0x0 ADD PUSH1 0x0 PUSH2 0x100 EXP DUP2 SLOAD DUP2 PUSH6 0xFFFFFFFFFFFF MUL NOT AND SWAP1 DUP4 PUSH6 0xFFFFFFFFFFFF AND MUL OR SWAP1 SSTORE POP DUP6 PUSH32 0x3BE3541FC42237D611B30329040BFA4569541D156560ACDBBAE57640D20B8F46 DUP7 PUSH1 0x0 ADD PUSH1 0x0 SWAP1 SLOAD SWAP1 PUSH2 0x100 EXP SWAP1 DIV PUSH6 0xFFFFFFFFFFFF AND DUP8 PUSH1 0x0 ADD PUSH1 0x8 SWAP1 SLOAD SWAP1 PUSH2 0x100 EXP SWAP1 DIV PUSH12 0xFFFFFFFFFFFFFFFFFFFFFFFF AND DUP9 PUSH1 0x0 ADD PUSH1 0x14 SWAP1 SLOAD SWAP1 PUSH2 0x100 EXP SWAP1 DIV PUSH12 0xFFFFFFFFFFFFFFFFFFFFFFFF AND PUSH1 0x40 MLOAD PUSH2 0x18CA SWAP4 SWAP3 SWAP2 SWAP1 PUSH2 0x8480 JUMP JUMPDEST PUSH1 0x40 MLOAD DUP1 SWAP2 SUB SWAP1 LOG2 POP POP POP POP POP JUMPDEST POP JUMP JUMPDEST PUSH2 0x18E8 PUSH1 0x2 DUP5 DUP5 DUP5 PUSH2 0x45B9 JUMP JUMPDEST POP POP POP JUMP JUMPDEST PUSH2 0x18F5 PUSH2 0x566D JUMP JUMPDEST PUSH2 0x18FF PUSH1 0x0 PUSH2 0x56EB JUMP JUMPDEST JUMP JUMPDEST PUSH2 0x1909 PUSH2 0x7233 JUMP JUMPDEST PUSH2 0x1911 PUSH2 0x7233 JUMP JUMPDEST PUSH2 0x1919 PUSH2 0x7233 JUMP JUMPDEST PUSH2 0x1921 PUSH2 0x7233 JUMP JUMPDEST PUSH1 0x0 PUSH1 0x4 PUSH1 0x0 PUSH1 0x4 DUP2 LT PUSH2 0x1938 JUMPI PUSH2 0x1937 PUSH2 0x81B9 JUMP JUMPDEST JUMPDEST PUSH1 0x2 MUL ADD PUSH1 0x40 MLOAD DUP1 PUSH1 0xA0 ADD PUSH1 0x40 MSTORE SWAP1 DUP2 PUSH1 0x0 DUP3 ADD PUSH1 0x0 SWAP1 SLOAD SWAP1 PUSH2 0x100 EXP SWAP1 DIV PUSH6 0xFFFFFFFFFFFF AND PUSH6 0xFFFFFFFFFFFF AND PUSH6 0xFFFFFFFFFFFF AND DUP2 MSTORE PUSH1 0x20 ADD PUSH1 0x0 DUP3 ADD PUSH1 0x6 SWAP1 SLOAD SWAP1 PUSH2 0x100 EXP SWAP1 DIV PUSH2 0xFFFF AND PUSH2 0xFFFF AND PUSH2 0xFFFF AND DUP2 MSTORE PUSH1 0x20 ADD PUSH1 0x0 DUP3 ADD PUSH1 0x8 SWAP1 SLOAD SWAP1 PUSH2 0x100 EXP SWAP1 DIV PUSH12 0xFFFFFFFFFFFFFFFFFFFFFFFF AND PUSH12 0xFFFFFFFFFFFFFFFFFFFFFFFF AND PUSH12 0xFFFFFFFFFFFFFFFFFFFFFFFF AND DUP2 MSTORE PUSH1 0x20 ADD PUSH1 0x0 DUP3 ADD PUSH1 0x14 SWAP1 SLOAD SWAP1 PUSH2 0x100 EXP SWAP1 DIV PUSH12 0xFFFFFFFFFFFFFFFFFFFFFFFF AND PUSH12 0xFFFFFFFFFFFFFFFFFFFFFFFF AND PUSH12 0xFFFFFFFFFFFFFFFFFFFFFFFF AND DUP2 MSTORE PUSH1 0x20 ADD PUSH1 0x1 DUP3 ADD DUP1 SLOAD DUP1 PUSH1 0x20 MUL PUSH1 0x20 ADD PUSH1 0x40 MLOAD SWAP1 DUP2 ADD PUSH1 0x40 MSTORE DUP1 SWAP3 SWAP2 SWAP1 DUP2 DUP2 MSTORE PUSH1 0x20 ADD PUSH1 0x0 SWAP1 JUMPDEST DUP3 DUP3 LT ISZERO PUSH2 0x1B3A JUMPI DUP4 DUP3 SWAP1 PUSH1 0x0 MSTORE PUSH1 0x20 PUSH1 0x0 KECCAK256 SWAP1 PUSH1 0x2 MUL ADD PUSH1 0x40 MLOAD DUP1 PUSH1 0x80 ADD PUSH1 0x40 MSTORE SWAP1 DUP2 PUSH1 0x0 DUP3 ADD PUSH1 0x0 SWAP1 SLOAD SWAP1 PUSH2 0x100 EXP SWAP1 DIV PUSH6 0xFFFFFFFFFFFF AND PUSH6 0xFFFFFFFFFFFF AND PUSH6 0xFFFFFFFFFFFF AND DUP2 MSTORE PUSH1 0x20 ADD PUSH1 0x0 DUP3 ADD PUSH1 0x6 SWAP1 SLOAD SWAP1 PUSH2 0x100 EXP SWAP1 DIV PUSH6 0xFFFFFFFFFFFF AND PUSH6 0xFFFFFFFFFFFF AND PUSH6 0xFFFFFFFFFFFF AND DUP2 MSTORE PUSH1 0x20 ADD PUSH1 0x0 DUP3 ADD PUSH1 0xC SWAP1 SLOAD SWAP1 PUSH2 0x100 EXP SWAP1 DIV PUSH12 0xFFFFFFFFFFFFFFFFFFFFFFFF AND PUSH12 0xFFFFFFFFFFFFFFFFFFFFFFFF AND PUSH12 0xFFFFFFFFFFFFFFFFFFFFFFFF AND DUP2 MSTORE PUSH1 0x20 ADD PUSH1 0x1 DUP3 ADD PUSH1 0x0 SWAP1 SLOAD SWAP1 PUSH2 0x100 EXP SWAP1 DIV PUSH12 0xFFFFFFFFFFFFFFFFFFFFFFFF AND PUSH12 0xFFFFFFFFFFFFFFFFFFFFFFFF AND PUSH12 0xFFFFFFFFFFFFFFFFFFFFFFFF AND DUP2 MSTORE POP POP DUP2 MSTORE PUSH1 0x20 ADD SWAP1 PUSH1 0x1 ADD SWAP1 PUSH2 0x1A34 JUMP JUMPDEST POP POP POP POP DUP2 MSTORE POP POP SWAP1 POP PUSH1 0x0 PUSH1 0x4 PUSH1 0x1 PUSH1 0x4 DUP2 LT PUSH2 0x1B5B JUMPI PUSH2 0x1B5A PUSH2 0x81B9 JUMP JUMPDEST JUMPDEST PUSH1 0x2 MUL ADD PUSH1 0x40 MLOAD DUP1 PUSH1 0xA0 ADD PUSH1 0x40 MSTORE SWAP1 DUP2 PUSH1 0x0 DUP3 ADD PUSH1 0x0 SWAP1 SLOAD SWAP1 PUSH2 0x100 EXP SWAP1 DIV PUSH6 0xFFFFFFFFFFFF AND PUSH6 0xFFFFFFFFFFFF AND PUSH6 0xFFFFFFFFFFFF AND DUP2 MSTORE PUSH1 0x20 ADD PUSH1 0x0 DUP3 ADD PUSH1 0x6 SWAP1 SLOAD SWAP1 PUSH2 0x100 EXP SWAP1 DIV PUSH2 0xFFFF AND PUSH2 0xFFFF AND PUSH2 0xFFFF AND DUP2 MSTORE PUSH1 0x20 ADD PUSH1 0x0 DUP3 ADD PUSH1 0x8 SWAP1 SLOAD SWAP1 PUSH2 0x100 EXP SWAP1 DIV PUSH12 0xFFFFFFFFFFFFFFFFFFFFFFFF AND PUSH12 0xFFFFFFFFFFFFFFFFFFFFFFFF AND PUSH12 0xFFFFFFFFFFFFFFFFFFFFFFFF AND DUP2 MSTORE PUSH1 0x20 ADD PUSH1 0x0 DUP3 ADD PUSH1 0x14 SWAP1 SLOAD SWAP1 PUSH2 0x100 EXP SWAP1 DIV PUSH12 0xFFFFFFFFFFFFFFFFFFFFFFFF AND PUSH12 0xFFFFFFFFFFFFFFFFFFFFFFFF AND PUSH12 0xFFFFFFFFFFFFFFFFFFFFFFFF AND DUP2 MSTORE PUSH1 0x20 ADD PUSH1 0x1 DUP3 ADD DUP1 SLOAD DUP1 PUSH1 0x20 MUL PUSH1 0x20 ADD PUSH1 0x40 MLOAD SWAP1 DUP2 ADD PUSH1 0x40 MSTORE DUP1 SWAP3 SWAP2 SWAP1 DUP2 DUP2 MSTORE PUSH1 0x20 ADD PUSH1 0x0 SWAP1 JUMPDEST DUP3 DUP3 LT ISZERO PUSH2 0x1D5D JUMPI DUP4 DUP3 SWAP1 PUSH1 0x0 MSTORE PUSH1 0x20 PUSH1 0x0 KECCAK256 SWAP1 PUSH1 0x2 MUL ADD PUSH1 0x40 MLOAD DUP1 PUSH1 0x80 ADD PUSH1 0x40 MSTORE SWAP1 DUP2 PUSH1 0x0 DUP3 ADD PUSH1 0x0 SWAP1 SLOAD SWAP1 PUSH2 0x100 EXP SWAP1 DIV PUSH6 0xFFFFFFFFFFFF AND PUSH6 0xFFFFFFFFFFFF AND PUSH6 0xFFFFFFFFFFFF AND DUP2 MSTORE PUSH1 0x20 ADD PUSH1 0x0 DUP3 ADD PUSH1 0x6 SWAP1 SLOAD SWAP1 PUSH2 0x100 EXP SWAP1 DIV PUSH6 0xFFFFFFFFFFFF AND PUSH6 0xFFFFFFFFFFFF AND PUSH6 0xFFFFFFFFFFFF AND DUP2 MSTORE PUSH1 0x20 ADD PUSH1 0x0 DUP3 ADD PUSH1 0xC SWAP1 SLOAD SWAP1 PUSH2 0x100 EXP SWAP1 DIV PUSH12 0xFFFFFFFFFFFFFFFFFFFFFFFF AND PUSH12 0xFFFFFFFFFFFFFFFFFFFFFFFF AND PUSH12 0xFFFFFFFFFFFFFFFFFFFFFFFF AND DUP2 MSTORE PUSH1 0x20 ADD PUSH1 0x1 DUP3 ADD PUSH1 0x0 SWAP1 SLOAD SWAP1 PUSH2 0x100 EXP SWAP1 DIV PUSH12 0xFFFFFFFFFFFFFFFFFFFFFFFF AND PUSH12 0xFFFFFFFFFFFFFFFFFFFFFFFF AND PUSH12 0xFFFFFFFFFFFFFFFFFFFFFFFF AND DUP2 MSTORE POP POP DUP2 MSTORE PUSH1 0x20 ADD SWAP1 PUSH1 0x1 ADD SWAP1 PUSH2 0x1C57 JUMP JUMPDEST POP POP POP POP DUP2 MSTORE POP POP SWAP1 POP PUSH1 0x0 PUSH1 0x4 PUSH1 0x2 PUSH1 0x4 DUP2 LT PUSH2 0x1D7E JUMPI PUSH2 0x1D7D PUSH2 0x81B9 JUMP JUMPDEST JUMPDEST PUSH1 0x2 MUL ADD PUSH1 0x40 MLOAD DUP1 PUSH1 0xA0 ADD PUSH1 0x40 MSTORE SWAP1 DUP2 PUSH1 0x0 DUP3 ADD PUSH1 0x0 SWAP1 SLOAD SWAP1 PUSH2 0x100 EXP SWAP1 DIV PUSH6 0xFFFFFFFFFFFF AND PUSH6 0xFFFFFFFFFFFF AND PUSH6 0xFFFFFFFFFFFF AND DUP2 MSTORE PUSH1 0x20 ADD PUSH1 0x0 DUP3 ADD PUSH1 0x6 SWAP1 SLOAD SWAP1 PUSH2 0x100 EXP SWAP1 DIV PUSH2 0xFFFF AND PUSH2 0xFFFF AND PUSH2 0xFFFF AND DUP2 MSTORE PUSH1 0x20 ADD PUSH1 0x0 DUP3 ADD PUSH1 0x8 SWAP1 SLOAD SWAP1 PUSH2 0x100 EXP SWAP1 DIV PUSH12 0xFFFFFFFFFFFFFFFFFFFFFFFF AND PUSH12 0xFFFFFFFFFFFFFFFFFFFFFFFF AND PUSH12 0xFFFFFFFFFFFFFFFFFFFFFFFF AND DUP2 MSTORE PUSH1 0x20 ADD PUSH1 0x0 DUP3 ADD PUSH1 0x14 SWAP1 SLOAD SWAP1 PUSH2 0x100 EXP SWAP1 DIV PUSH12 0xFFFFFFFFFFFFFFFFFFFFFFFF AND PUSH12 0xFFFFFFFFFFFFFFFFFFFFFFFF AND PUSH12 0xFFFFFFFFFFFFFFFFFFFFFFFF AND DUP2 MSTORE PUSH1 0x20 ADD PUSH1 0x1 DUP3 ADD DUP1 SLOAD DUP1 PUSH1 0x20 MUL PUSH1 0x20 ADD PUSH1 0x40 MLOAD SWAP1 DUP2 ADD PUSH1 0x40 MSTORE DUP1 SWAP3 SWAP2 SWAP1 DUP2 DUP2 MSTORE PUSH1 0x20 ADD PUSH1 0x0 SWAP1 JUMPDEST DUP3 DUP3 LT ISZERO PUSH2 0x1F80 JUMPI DUP4 DUP3 SWAP1 PUSH1 0x0 MSTORE PUSH1 0x20 PUSH1 0x0 KECCAK256 SWAP1 PUSH1 0x2 MUL ADD PUSH1 0x40 MLOAD DUP1 PUSH1 0x80 ADD PUSH1 0x40 MSTORE SWAP1 DUP2 PUSH1 0x0 DUP3 ADD PUSH1 0x0 SWAP1 SLOAD SWAP1 PUSH2 0x100 EXP SWAP1 DIV PUSH6 0xFFFFFFFFFFFF AND PUSH6 0xFFFFFFFFFFFF AND PUSH6 0xFFFFFFFFFFFF AND DUP2 MSTORE PUSH1 0x20 ADD PUSH1 0x0 DUP3 ADD PUSH1 0x6 SWAP1 SLOAD SWAP1 PUSH2 0x100 EXP SWAP1 DIV PUSH6 0xFFFFFFFFFFFF AND PUSH6 0xFFFFFFFFFFFF AND PUSH6 0xFFFFFFFFFFFF AND DUP2 MSTORE PUSH1 0x20 ADD PUSH1 0x0 DUP3 ADD PUSH1 0xC SWAP1 SLOAD SWAP1 PUSH2 0x100 EXP SWAP1 DIV PUSH12 0xFFFFFFFFFFFFFFFFFFFFFFFF AND PUSH12 0xFFFFFFFFFFFFFFFFFFFFFFFF AND PUSH12 0xFFFFFFFFFFFFFFFFFFFFFFFF AND DUP2 MSTORE PUSH1 0x20 ADD PUSH1 0x1 DUP3 ADD PUSH1 0x0 SWAP1 SLOAD SWAP1 PUSH2 0x100 EXP SWAP1 DIV PUSH12 0xFFFFFFFFFFFFFFFFFFFFFFFF AND PUSH12 0xFFFFFFFFFFFFFFFFFFFFFFFF AND PUSH12 0xFFFFFFFFFFFFFFFFFFFFFFFF AND DUP2 MSTORE POP POP DUP2 MSTORE PUSH1 0x20 ADD SWAP1 PUSH1 0x1 ADD SWAP1 PUSH2 0x1E7A JUMP JUMPDEST POP POP POP POP DUP2 MSTORE POP POP SWAP1 POP PUSH1 0x0 PUSH1 0x4 PUSH1 0x3 PUSH1 0x4 DUP2 LT PUSH2 0x1FA1 JUMPI PUSH2 0x1FA0 PUSH2 0x81B9 JUMP JUMPDEST JUMPDEST PUSH1 0x2 MUL ADD PUSH1 0x40 MLOAD DUP1 PUSH1 0xA0 ADD PUSH1 0x40 MSTORE SWAP1 DUP2 PUSH1 0x0 DUP3 ADD PUSH1 0x0 SWAP1 SLOAD SWAP1 PUSH2 0x100 EXP SWAP1 DIV PUSH6 0xFFFFFFFFFFFF AND PUSH6 0xFFFFFFFFFFFF AND PUSH6 0xFFFFFFFFFFFF AND DUP2 MSTORE PUSH1 0x20 ADD PUSH1 0x0 DUP3 ADD PUSH1 0x6 SWAP1 SLOAD SWAP1 PUSH2 0x100 EXP SWAP1 DIV PUSH2 0xFFFF AND PUSH2 0xFFFF AND PUSH2 0xFFFF AND DUP2 MSTORE PUSH1 0x20 ADD PUSH1 0x0 DUP3 ADD PUSH1 0x8 SWAP1 SLOAD SWAP1 PUSH2 0x100 EXP SWAP1 DIV PUSH12 0xFFFFFFFFFFFFFFFFFFFFFFFF AND PUSH12 0xFFFFFFFFFFFFFFFFFFFFFFFF AND PUSH12 0xFFFFFFFFFFFFFFFFFFFFFFFF AND DUP2 MSTORE PUSH1 0x20 ADD PUSH1 0x0 DUP3 ADD PUSH1 0x14 SWAP1 SLOAD SWAP1 PUSH2 0x100 EXP SWAP1 DIV PUSH12 0xFFFFFFFFFFFFFFFFFFFFFFFF AND PUSH12 0xFFFFFFFFFFFFFFFFFFFFFFFF AND PUSH12 0xFFFFFFFFFFFFFFFFFFFFFFFF AND DUP2 MSTORE PUSH1 0x20 ADD PUSH1 0x1 DUP3 ADD DUP1 SLOAD DUP1 PUSH1 0x20 MUL PUSH1 0x20 ADD PUSH1 0x40 MLOAD SWAP1 DUP2 ADD PUSH1 0x40 MSTORE DUP1 SWAP3 SWAP2 SWAP1 DUP2 DUP2 MSTORE PUSH1 0x20 ADD PUSH1 0x0 SWAP1 JUMPDEST DUP3 DUP3 LT ISZERO PUSH2 0x21A3 JUMPI DUP4 DUP3 SWAP1 PUSH1 0x0 MSTORE PUSH1 0x20 PUSH1 0x0 KECCAK256 SWAP1 PUSH1 0x2 MUL ADD PUSH1 0x40 MLOAD DUP1 PUSH1 0x80 ADD PUSH1 0x40 MSTORE SWAP1 DUP2 PUSH1 0x0 DUP3 ADD PUSH1 0x0 SWAP1 SLOAD SWAP1 PUSH2 0x100 EXP SWAP1 DIV PUSH6 0xFFFFFFFFFFFF AND PUSH6 0xFFFFFFFFFFFF AND PUSH6 0xFFFFFFFFFFFF AND DUP2 MSTORE PUSH1 0x20 ADD PUSH1 0x0 DUP3 ADD PUSH1 0x6 SWAP1 SLOAD SWAP1 PUSH2 0x100 EXP SWAP1 DIV PUSH6 0xFFFFFFFFFFFF AND PUSH6 0xFFFFFFFFFFFF AND PUSH6 0xFFFFFFFFFFFF AND DUP2 MSTORE PUSH1 0x20 ADD PUSH1 0x0 DUP3 ADD PUSH1 0xC SWAP1 SLOAD SWAP1 PUSH2 0x100 EXP SWAP1 DIV PUSH12 0xFFFFFFFFFFFFFFFFFFFFFFFF AND PUSH12 0xFFFFFFFFFFFFFFFFFFFFFFFF AND PUSH12 0xFFFFFFFFFFFFFFFFFFFFFFFF AND DUP2 MSTORE PUSH1 0x20 ADD PUSH1 0x1 DUP3 ADD PUSH1 0x0 SWAP1 SLOAD SWAP1 PUSH2 0x100 EXP SWAP1 DIV PUSH12 0xFFFFFFFFFFFFFFFFFFFFFFFF AND PUSH12 0xFFFFFFFFFFFFFFFFFFFFFFFF AND PUSH12 0xFFFFFFFFFFFFFFFFFFFFFFFF AND DUP2 MSTORE POP POP DUP2 MSTORE PUSH1 0x20 ADD SWAP1 PUSH1 0x1 ADD SWAP1 PUSH2 0x209D JUMP JUMPDEST POP POP POP POP DUP2 MSTORE POP POP SWAP1 POP PUSH1 0x0 PUSH2 0x21B8 DUP6 PUSH2 0x57AF JUMP JUMPDEST SWAP1 POP PUSH1 0x40 MLOAD DUP1 PUSH1 0x60 ADD PUSH1 0x40 MSTORE DUP1 PUSH1 0x0 DUP2 MSTORE PUSH1 0x20 ADD DUP7 PUSH1 0x40 ADD MLOAD PUSH12 0xFFFFFFFFFFFFFFFFFFFFFFFF AND DUP2 MSTORE PUSH1 0x20 ADD DUP7 PUSH1 0x80 ADD MLOAD DUP4 DUP2 MLOAD DUP2 LT PUSH2 0x21FB JUMPI PUSH2 0x21FA PUSH2 0x81B9 JUMP JUMPDEST JUMPDEST PUSH1 0x20 MUL PUSH1 0x20 ADD ADD MLOAD DUP2 MSTORE POP PUSH1 0x40 MLOAD DUP1 PUSH1 0x60 ADD PUSH1 0x40 MSTORE DUP1 PUSH1 0x1 DUP2 MSTORE PUSH1 0x20 ADD DUP7 PUSH1 0x40 ADD MLOAD PUSH12 0xFFFFFFFFFFFFFFFFFFFFFFFF AND DUP2 MSTORE PUSH1 0x20 ADD DUP7 PUSH1 0x80 ADD MLOAD DUP5 DUP2 MLOAD DUP2 LT PUSH2 0x2247 JUMPI PUSH2 0x2246 PUSH2 0x81B9 JUMP JUMPDEST JUMPDEST PUSH1 0x20 MUL PUSH1 0x20 ADD ADD MLOAD DUP2 MSTORE POP PUSH1 0x40 MLOAD DUP1 PUSH1 0x60 ADD PUSH1 0x40 MSTORE DUP1 PUSH1 0x2 DUP2 MSTORE PUSH1 0x20 ADD DUP7 PUSH1 0x40 ADD MLOAD PUSH12 0xFFFFFFFFFFFFFFFFFFFFFFFF AND DUP2 MSTORE PUSH1 0x20 ADD DUP7 PUSH1 0x80 ADD MLOAD DUP6 DUP2 MLOAD DUP2 LT PUSH2 0x2293 JUMPI PUSH2 0x2292 PUSH2 0x81B9 JUMP JUMPDEST JUMPDEST PUSH1 0x20 MUL PUSH1 0x20 ADD ADD MLOAD DUP2 MSTORE POP PUSH1 0x40 MLOAD DUP1 PUSH1 0x60 ADD PUSH1 0x40 MSTORE DUP1 PUSH1 0x3 DUP2 MSTORE PUSH1 0x20 ADD DUP7 PUSH1 0x40 ADD MLOAD PUSH12 0xFFFFFFFFFFFFFFFFFFFFFFFF AND DUP2 MSTORE PUSH1 0x20 ADD DUP7 PUSH1 0x80 ADD MLOAD DUP7 DUP2 MLOAD DUP2 LT PUSH2 0x22DF JUMPI PUSH2 0x22DE PUSH2 0x81B9 JUMP JUMPDEST JUMPDEST PUSH1 0x20 MUL PUSH1 0x20 ADD ADD MLOAD DUP2 MSTORE POP SWAP9 POP SWAP9 POP SWAP9 POP SWAP9 POP POP POP POP POP POP SWAP1 SWAP2 SWAP3 SWAP4 JUMP JUMPDEST PUSH2 0x2307 DUP2 CALLER PUSH2 0x3063 JUMP JUMPDEST POP JUMP JUMPDEST PUSH2 0x2313 CALLER PUSH2 0x1409 JUMP JUMPDEST JUMP JUMPDEST PUSH1 0x0 DUP1 PUSH1 0x0 SWAP1 SLOAD SWAP1 PUSH2 0x100 EXP SWAP1 DIV PUSH20 0xFFFFFFFFFFFFFFFFFFFFFFFFFFFFFFFFFFFFFFFF AND SWAP1 POP SWAP1 JUMP JUMPDEST PUSH2 0x234A PUSH1 0x2 DUP4 DUP4 PUSH2 0x525D JUMP JUMPDEST POP POP JUMP JUMPDEST PUSH1 0x60 PUSH2 0x235B DUP3 PUSH1 0x1 PUSH2 0x3370 JUMP JUMPDEST SWAP1 POP SWAP2 SWAP1 POP JUMP JUMPDEST PUSH1 0xD PUSH1 0x20 MSTORE DUP2 PUSH1 0x0 MSTORE PUSH1 0x40 PUSH1 0x0 KECCAK256 PUSH1 0x20 MSTORE DUP1 PUSH1 0x0 MSTORE PUSH1 0x40 PUSH1 0x0 KECCAK256 PUSH1 0x0 SWAP2 POP SWAP2 POP POP DUP1 PUSH1 0x0 ADD SLOAD SWAP1 DUP1 PUSH1 0x1 ADD SLOAD SWAP1 POP DUP3 JUMP JUMPDEST PUSH2 0x239D DUP2 CALLER PUSH2 0x2855 JUMP JUMPDEST POP JUMP JUMPDEST PUSH1 0x4 DUP2 PUSH1 0x4 DUP2 LT PUSH2 0x23B0 JUMPI PUSH1 0x0 DUP1 REVERT JUMPDEST PUSH1 0x2 MUL ADD PUSH1 0x0 SWAP2 POP SWAP1 POP DUP1 PUSH1 0x0 ADD PUSH1 0x0 SWAP1 SLOAD SWAP1 PUSH2 0x100 EXP SWAP1 DIV PUSH6 0xFFFFFFFFFFFF AND SWAP1 DUP1 PUSH1 0x0 ADD PUSH1 0x6 SWAP1 SLOAD SWAP1 PUSH2 0x100 EXP SWAP1 DIV PUSH2 0xFFFF AND SWAP1 DUP1 PUSH1 0x0 ADD PUSH1 0x8 SWAP1 SLOAD SWAP1 PUSH2 0x100 EXP SWAP1 DIV PUSH12 0xFFFFFFFFFFFFFFFFFFFFFFFF AND SWAP1 DUP1 PUSH1 0x0 ADD PUSH1 0x14 SWAP1 SLOAD SWAP1 PUSH2 0x100 EXP SWAP1 DIV PUSH12 0xFFFFFFFFFFFFFFFFFFFFFFFF AND SWAP1 POP DUP5 JUMP JUMPDEST PUSH32 0x0 DUP2 JUMP JUMPDEST PUSH2 0x2457 PUSH1 0x1 DUP5 DUP5 DUP5 PUSH2 0x58BD JUMP JUMPDEST POP POP POP JUMP JUMPDEST PUSH1 0xF PUSH1 0x20 MSTORE DUP2 PUSH1 0x0 MSTORE PUSH1 0x40 PUSH1 0x0 KECCAK256 PUSH1 0x20 MSTORE DUP1 PUSH1 0x0 MSTORE PUSH1 0x40 PUSH1 0x0 KECCAK256 PUSH1 0x0 SWAP2 POP SWAP2 POP POP DUP1 PUSH1 0x0 ADD PUSH1 0x0 SWAP1 SLOAD SWAP1 PUSH2 0x100 EXP SWAP1 DIV PUSH31 0xFFFFFFFFFFFFFFFFFFFFFFFFFFFFFFFFFFFFFFFFFFFFFFFFFFFFFFFFFFFFFF AND SWAP1 DUP1 PUSH1 0x0 ADD PUSH1 0x1F SWAP1 SLOAD SWAP1 PUSH2 0x100 EXP SWAP1 DIV PUSH1 0xFF AND SWAP1 POP DUP3 JUMP JUMPDEST PUSH2 0x24D2 PUSH1 0x1 DUP5 DUP5 DUP5 PUSH2 0x45B9 JUMP JUMPDEST POP POP POP JUMP JUMPDEST PUSH2 0x24DF PUSH2 0x566D JUMP JUMPDEST PUSH1 0x3 DUP6 GT ISZERO PUSH2 0x251A JUMPI PUSH1 0x40 MLOAD PUSH32 0xAFA7EE800000000000000000000000000000000000000000000000000000000 DUP2 MSTORE PUSH1 0x4 ADD PUSH1 0x40 MLOAD DUP1 SWAP2 SUB SWAP1 REVERT JUMPDEST DUP2 DUP4 LT PUSH2 0x2553 JUMPI PUSH1 0x40 MLOAD PUSH32 0xD67E310900000000000000000000000000000000000000000000000000000000 DUP2 MSTORE PUSH1 0x4 ADD PUSH1 0x40 MLOAD DUP1 SWAP2 SUB SWAP1 REVERT JUMPDEST PUSH1 0x0 PUSH2 0x255E DUP5 PUSH2 0x5C2E JUMP JUMPDEST GT DUP1 PUSH2 0x2572 JUMPI POP PUSH1 0x0 PUSH2 0x2570 DUP5 PUSH2 0x5C56 JUMP JUMPDEST GT JUMPDEST ISZERO PUSH2 0x25A9 JUMPI PUSH1 0x40 MLOAD PUSH32 0xF7985DF100000000000000000000000000000000000000000000000000000000 DUP2 MSTORE PUSH1 0x4 ADD PUSH1 0x40 MLOAD DUP1 SWAP2 SUB SWAP1 REVERT JUMPDEST PUSH1 0x0 PUSH2 0x25B4 DUP4 PUSH2 0x5C2E JUMP JUMPDEST GT DUP1 PUSH2 0x25C8 JUMPI POP PUSH1 0x0 PUSH2 0x25C6 DUP4 PUSH2 0x5C56 JUMP JUMPDEST GT JUMPDEST ISZERO PUSH2 0x25FF JUMPI PUSH1 0x40 MLOAD PUSH32 0x8B853E2500000000000000000000000000000000000000000000000000000000 DUP2 MSTORE PUSH1 0x4 ADD PUSH1 0x40 MLOAD DUP1 SWAP2 SUB SWAP1 REVERT JUMPDEST PUSH1 0x0 PUSH1 0x4 DUP7 PUSH1 0x4 DUP2 LT PUSH2 0x2615 JUMPI PUSH2 0x2614 PUSH2 0x81B9 JUMP JUMPDEST JUMPDEST PUSH1 0x2 MUL ADD SWAP1 POP PUSH1 0x0 DUP2 PUSH1 0x1 ADD DUP1 SLOAD SWAP1 POP SWAP1 POP PUSH1 0x0 DUP2 GT ISZERO PUSH2 0x26B7 JUMPI DUP2 PUSH1 0x1 ADD PUSH1 0x1 DUP3 PUSH2 0x2641 SWAP2 SWAP1 PUSH2 0x83EA JUMP JUMPDEST DUP2 SLOAD DUP2 LT PUSH2 0x2652 JUMPI PUSH2 0x2651 PUSH2 0x81B9 JUMP JUMPDEST JUMPDEST SWAP1 PUSH1 0x0 MSTORE PUSH1 0x20 PUSH1 0x0 KECCAK256 SWAP1 PUSH1 0x2 MUL ADD PUSH1 0x0 ADD PUSH1 0x6 SWAP1 SLOAD SWAP1 PUSH2 0x100 EXP SWAP1 DIV PUSH6 0xFFFFFFFFFFFF AND PUSH6 0xFFFFFFFFFFFF AND DUP6 EQ PUSH2 0x26B6 JUMPI PUSH1 0x40 MLOAD PUSH32 0x9424DCD900000000000000000000000000000000000000000000000000000000 DUP2 MSTORE PUSH1 0x4 ADD PUSH1 0x40 MLOAD DUP1 SWAP2 SUB SWAP1 REVERT JUMPDEST JUMPDEST PUSH1 0x0 DUP6 DUP6 PUSH2 0x26C5 SWAP2 SWAP1 PUSH2 0x83EA JUMP JUMPDEST SWAP1 POP PUSH1 0x0 DUP2 PUSH2 0xE10 DUP10 PUSH2 0x26D8 SWAP2 SWAP1 PUSH2 0x8273 JUMP JUMPDEST PUSH2 0x26E2 SWAP2 SWAP1 PUSH2 0x82FC JUMP JUMPDEST SWAP1 POP PUSH1 0x0 PUSH1 0x40 MLOAD DUP1 PUSH1 0x80 ADD PUSH1 0x40 MSTORE DUP1 PUSH2 0x26FA DUP11 PUSH2 0x556C JUMP JUMPDEST PUSH6 0xFFFFFFFFFFFF AND DUP2 MSTORE PUSH1 0x20 ADD PUSH2 0x2710 DUP10 PUSH2 0x556C JUMP JUMPDEST PUSH6 0xFFFFFFFFFFFF AND DUP2 MSTORE PUSH1 0x20 ADD PUSH2 0x2726 DUP5 PUSH2 0x5612 JUMP JUMPDEST PUSH12 0xFFFFFFFFFFFFFFFFFFFFFFFF AND DUP2 MSTORE PUSH1 0x20 ADD PUSH2 0x2742 DUP9 PUSH2 0x5612 JUMP JUMPDEST PUSH12 0xFFFFFFFFFFFFFFFFFFFFFFFF AND DUP2 MSTORE POP SWAP1 POP DUP5 PUSH1 0x1 ADD DUP2 SWAP1 DUP1 PUSH1 0x1 DUP2 SLOAD ADD DUP1 DUP3 SSTORE DUP1 SWAP2 POP POP PUSH1 0x1 SWAP1 SUB SWAP1 PUSH1 0x0 MSTORE PUSH1 0x20 PUSH1 0x0 KECCAK256 SWAP1 PUSH1 0x2 MUL ADD PUSH1 0x0 SWAP1 SWAP2 SWAP1 SWAP2 SWAP1 SWAP2 POP PUSH1 0x0 DUP3 ADD MLOAD DUP2 PUSH1 0x0 ADD PUSH1 0x0 PUSH2 0x100 EXP DUP2 SLOAD DUP2 PUSH6 0xFFFFFFFFFFFF MUL NOT AND SWAP1 DUP4 PUSH6 0xFFFFFFFFFFFF AND MUL OR SWAP1 SSTORE POP PUSH1 0x20 DUP3 ADD MLOAD DUP2 PUSH1 0x0 ADD PUSH1 0x6 PUSH2 0x100 EXP DUP2 SLOAD DUP2 PUSH6 0xFFFFFFFFFFFF MUL NOT AND SWAP1 DUP4 PUSH6 0xFFFFFFFFFFFF AND MUL OR SWAP1 SSTORE POP PUSH1 0x40 DUP3 ADD MLOAD DUP2 PUSH1 0x0 ADD PUSH1 0xC PUSH2 0x100 EXP DUP2 SLOAD DUP2 PUSH12 0xFFFFFFFFFFFFFFFFFFFFFFFF MUL NOT AND SWAP1 DUP4 PUSH12 0xFFFFFFFFFFFFFFFFFFFFFFFF AND MUL OR SWAP1 SSTORE POP PUSH1 0x60 DUP3 ADD MLOAD DUP2 PUSH1 0x1 ADD PUSH1 0x0 PUSH2 0x100 EXP DUP2 SLOAD DUP2 PUSH12 0xFFFFFFFFFFFFFFFFFFFFFFFF MUL NOT AND SWAP1 DUP4 PUSH12 0xFFFFFFFFFFFFFFFFFFFFFFFF AND MUL OR SWAP1 SSTORE POP POP POP POP POP POP POP POP POP POP POP POP POP JUMP JUMPDEST PUSH8 0xDE0B6B3A7640000 PUSH1 0x1 PUSH2 0x286A SWAP2 SWAP1 PUSH2 0x8273 JUMP JUMPDEST DUP3 LT ISZERO PUSH2 0x28A3 JUMPI PUSH1 0x40 MLOAD PUSH32 0x50E75A8000000000000000000000000000000000000000000000000000000000 DUP2 MSTORE PUSH1 0x4 ADD PUSH1 0x40 MLOAD DUP1 SWAP2 SUB SWAP1 REVERT JUMPDEST PUSH2 0x28AD PUSH1 0x0 PUSH2 0x1545 JUMP JUMPDEST PUSH1 0x0 PUSH1 0x1 PUSH1 0x0 DUP4 PUSH20 0xFFFFFFFFFFFFFFFFFFFFFFFFFFFFFFFFFFFFFFFF AND PUSH20 0xFFFFFFFFFFFFFFFFFFFFFFFFFFFFFFFFFFFFFFFF AND DUP2 MSTORE PUSH1 0x20 ADD SWAP1 DUP2 MSTORE PUSH1 0x20 ADD PUSH1 0x0 KECCAK256 SWAP1 POP PUSH2 0x28FC PUSH1 0x0 DUP3 DUP6 PUSH2 0x5C6C JUMP JUMPDEST PUSH32 0x0 PUSH20 0xFFFFFFFFFFFFFFFFFFFFFFFFFFFFFFFFFFFFFFFF AND PUSH4 0x23B872DD CALLER ADDRESS DUP7 PUSH1 0x40 MLOAD DUP5 PUSH4 0xFFFFFFFF AND PUSH1 0xE0 SHL DUP2 MSTORE PUSH1 0x4 ADD PUSH2 0x2959 SWAP4 SWAP3 SWAP2 SWAP1 PUSH2 0x84B7 JUMP JUMPDEST PUSH1 0x20 PUSH1 0x40 MLOAD DUP1 DUP4 SUB DUP2 PUSH1 0x0 DUP8 GAS CALL ISZERO DUP1 ISZERO PUSH2 0x2978 JUMPI RETURNDATASIZE PUSH1 0x0 DUP1 RETURNDATACOPY RETURNDATASIZE PUSH1 0x0 REVERT JUMPDEST POP POP POP POP PUSH1 0x40 MLOAD RETURNDATASIZE PUSH1 0x1F NOT PUSH1 0x1F DUP3 ADD AND DUP3 ADD DUP1 PUSH1 0x40 MSTORE POP DUP2 ADD SWAP1 PUSH2 0x299C SWAP2 SWAP1 PUSH2 0x851A JUMP JUMPDEST POP CALLER PUSH20 0xFFFFFFFFFFFFFFFFFFFFFFFFFFFFFFFFFFFFFFFF AND PUSH32 0xE31C7B8D08EE7DB0AFA68782E1028EF92305CAEEA8626633AD44D413E30F6B2F DUP5 DUP5 PUSH1 0x40 MLOAD PUSH2 0x29E5 SWAP3 SWAP2 SWAP1 PUSH2 0x83C1 JUMP JUMPDEST PUSH1 0x40 MLOAD DUP1 SWAP2 SUB SWAP1 LOG2 POP POP POP JUMP JUMPDEST PUSH2 0x29FF PUSH1 0x2 DUP4 DUP4 CALLER PUSH2 0x58BD JUMP JUMPDEST POP POP JUMP JUMPDEST PUSH2 0x2A0D PUSH1 0x3 PUSH2 0x1545 JUMP JUMPDEST PUSH2 0x2A19 PUSH1 0x1 DUP6 DUP6 PUSH2 0x5D62 JUMP JUMPDEST PUSH2 0x2A25 PUSH1 0x2 DUP4 DUP4 PUSH2 0x5D62 JUMP JUMPDEST POP POP POP POP JUMP JUMPDEST PUSH2 0x2A33 PUSH2 0x566D JUMP JUMPDEST PUSH1 0x4 DUP2 PUSH1 0x4 DUP2 LT PUSH2 0x2A47 JUMPI PUSH2 0x2A46 PUSH2 0x81B9 JUMP JUMPDEST JUMPDEST PUSH1 0x2 MUL ADD PUSH1 0x1 ADD DUP1 SLOAD DUP1 PUSH2 0x2A5E JUMPI PUSH2 0x2A5D PUSH2 0x8547 JUMP JUMPDEST JUMPDEST PUSH1 0x1 SWAP1 SUB DUP2 DUP2 SWAP1 PUSH1 0x0 MSTORE PUSH1 0x20 PUSH1 0x0 KECCAK256 SWAP1 PUSH1 0x2 MUL ADD PUSH1 0x0 DUP1 DUP3 ADD PUSH1 0x0 PUSH2 0x100 EXP DUP2 SLOAD SWAP1 PUSH6 0xFFFFFFFFFFFF MUL NOT AND SWAP1 SSTORE PUSH1 0x0 DUP3 ADD PUSH1 0x6 PUSH2 0x100 EXP DUP2 SLOAD SWAP1 PUSH6 0xFFFFFFFFFFFF MUL NOT AND SWAP1 SSTORE PUSH1 0x0 DUP3 ADD PUSH1 0xC PUSH2 0x100 EXP DUP2 SLOAD SWAP1 PUSH12 0xFFFFFFFFFFFFFFFFFFFFFFFF MUL NOT AND SWAP1 SSTORE PUSH1 0x1 DUP3 ADD PUSH1 0x0 PUSH2 0x100 EXP DUP2 SLOAD SWAP1 PUSH12 0xFFFFFFFFFFFFFFFFFFFFFFFF MUL NOT AND SWAP1 SSTORE POP POP SWAP1 SSTORE POP JUMP JUMPDEST PUSH1 0x0 DUP1 PUSH1 0x0 PUSH1 0x4 DUP7 PUSH1 0x4 DUP2 LT PUSH2 0x2B03 JUMPI PUSH2 0x2B02 PUSH2 0x81B9 JUMP JUMPDEST JUMPDEST PUSH1 0x2 MUL ADD PUSH1 0x40 MLOAD DUP1 PUSH1 0xA0 ADD PUSH1 0x40 MSTORE SWAP1 DUP2 PUSH1 0x0 DUP3 ADD PUSH1 0x0 SWAP1 SLOAD SWAP1 PUSH2 0x100 EXP SWAP1 DIV PUSH6 0xFFFFFFFFFFFF AND PUSH6 0xFFFFFFFFFFFF AND PUSH6 0xFFFFFFFFFFFF AND DUP2 MSTORE PUSH1 0x20 ADD PUSH1 0x0 DUP3 ADD PUSH1 0x6 SWAP1 SLOAD SWAP1 PUSH2 0x100 EXP SWAP1 DIV PUSH2 0xFFFF AND PUSH2 0xFFFF AND PUSH2 0xFFFF AND DUP2 MSTORE PUSH1 0x20 ADD PUSH1 0x0 DUP3 ADD PUSH1 0x8 SWAP1 SLOAD SWAP1 PUSH2 0x100 EXP SWAP1 DIV PUSH12 0xFFFFFFFFFFFFFFFFFFFFFFFF AND PUSH12 0xFFFFFFFFFFFFFFFFFFFFFFFF AND PUSH12 0xFFFFFFFFFFFFFFFFFFFFFFFF AND DUP2 MSTORE PUSH1 0x20 ADD PUSH1 0x0 DUP3 ADD PUSH1 0x14 SWAP1 SLOAD SWAP1 PUSH2 0x100 EXP SWAP1 DIV PUSH12 0xFFFFFFFFFFFFFFFFFFFFFFFF AND PUSH12 0xFFFFFFFFFFFFFFFFFFFFFFFF AND PUSH12 0xFFFFFFFFFFFFFFFFFFFFFFFF AND DUP2 MSTORE PUSH1 0x20 ADD PUSH1 0x1 DUP3 ADD DUP1 SLOAD DUP1 PUSH1 0x20 MUL PUSH1 0x20 ADD PUSH1 0x40 MLOAD SWAP1 DUP2 ADD PUSH1 0x40 MSTORE DUP1 SWAP3 SWAP2 SWAP1 DUP2 DUP2 MSTORE PUSH1 0x20 ADD PUSH1 0x0 SWAP1 JUMPDEST DUP3 DUP3 LT ISZERO PUSH2 0x2D05 JUMPI DUP4 DUP3 SWAP1 PUSH1 0x0 MSTORE PUSH1 0x20 PUSH1 0x0 KECCAK256 SWAP1 PUSH1 0x2 MUL ADD PUSH1 0x40 MLOAD DUP1 PUSH1 0x80 ADD PUSH1 0x40 MSTORE SWAP1 DUP2 PUSH1 0x0 DUP3 ADD PUSH1 0x0 SWAP1 SLOAD SWAP1 PUSH2 0x100 EXP SWAP1 DIV PUSH6 0xFFFFFFFFFFFF AND PUSH6 0xFFFFFFFFFFFF AND PUSH6 0xFFFFFFFFFFFF AND DUP2 MSTORE PUSH1 0x20 ADD PUSH1 0x0 DUP3 ADD PUSH1 0x6 SWAP1 SLOAD SWAP1 PUSH2 0x100 EXP SWAP1 DIV PUSH6 0xFFFFFFFFFFFF AND PUSH6 0xFFFFFFFFFFFF AND PUSH6 0xFFFFFFFFFFFF AND DUP2 MSTORE PUSH1 0x20 ADD PUSH1 0x0 DUP3 ADD PUSH1 0xC SWAP1 SLOAD SWAP1 PUSH2 0x100 EXP SWAP1 DIV PUSH12 0xFFFFFFFFFFFFFFFFFFFFFFFF AND PUSH12 0xFFFFFFFFFFFFFFFFFFFFFFFF AND PUSH12 0xFFFFFFFFFFFFFFFFFFFFFFFF AND DUP2 MSTORE PUSH1 0x20 ADD PUSH1 0x1 DUP3 ADD PUSH1 0x0 SWAP1 SLOAD SWAP1 PUSH2 0x100 EXP SWAP1 DIV PUSH12 0xFFFFFFFFFFFFFFFFFFFFFFFF AND PUSH12 0xFFFFFFFFFFFFFFFFFFFFFFFF AND PUSH12 0xFFFFFFFFFFFFFFFFFFFFFFFF AND DUP2 MSTORE POP POP DUP2 MSTORE PUSH1 0x20 ADD SWAP1 PUSH1 0x1 ADD SWAP1 PUSH2 0x2BFF JUMP JUMPDEST POP POP POP POP DUP2 MSTORE POP POP SWAP1 POP PUSH1 0x0 DUP2 PUSH1 0x20 ADD MLOAD PUSH2 0xFFFF AND SWAP1 POP DUP2 PUSH1 0x80 ADD MLOAD PUSH1 0x0 DUP2 MLOAD DUP2 LT PUSH2 0x2D34 JUMPI PUSH2 0x2D33 PUSH2 0x81B9 JUMP JUMPDEST JUMPDEST PUSH1 0x20 MUL PUSH1 0x20 ADD ADD MLOAD PUSH1 0x0 ADD MLOAD PUSH6 0xFFFFFFFFFFFF AND DUP6 LT ISZERO PUSH2 0x2D5D JUMPI PUSH1 0x0 DUP2 SWAP4 POP SWAP4 POP POP POP PUSH2 0x2EED JUMP JUMPDEST JUMPDEST DUP2 PUSH1 0x80 ADD MLOAD DUP2 DUP2 MLOAD DUP2 LT PUSH2 0x2D75 JUMPI PUSH2 0x2D74 PUSH2 0x81B9 JUMP JUMPDEST JUMPDEST PUSH1 0x20 MUL PUSH1 0x20 ADD ADD MLOAD PUSH1 0x20 ADD MLOAD PUSH6 0xFFFFFFFFFFFF AND DUP7 GT DUP1 ISZERO PUSH2 0x2DC0 JUMPI POP DUP2 PUSH1 0x80 ADD MLOAD DUP2 DUP2 MLOAD DUP2 LT PUSH2 0x2DA9 JUMPI PUSH2 0x2DA8 PUSH2 0x81B9 JUMP JUMPDEST JUMPDEST PUSH1 0x20 MUL PUSH1 0x20 ADD ADD MLOAD PUSH1 0x20 ADD MLOAD PUSH6 0xFFFFFFFFFFFF AND DUP6 GT JUMPDEST ISZERO PUSH2 0x2DD0 JUMPI DUP1 PUSH1 0x1 ADD SWAP1 POP PUSH2 0x2D5E JUMP JUMPDEST PUSH1 0x0 PUSH2 0x2DDA PUSH2 0x71DF JUMP JUMPDEST PUSH1 0x0 DUP1 PUSH1 0x0 DUP7 PUSH1 0x80 ADD MLOAD MLOAD SWAP1 POP PUSH1 0x0 DUP7 SWAP1 POP JUMPDEST DUP2 DUP2 LT ISZERO PUSH2 0x2ED2 JUMPI DUP8 PUSH1 0x80 ADD MLOAD DUP2 DUP2 MLOAD DUP2 LT PUSH2 0x2E0C JUMPI PUSH2 0x2E0B PUSH2 0x81B9 JUMP JUMPDEST JUMPDEST PUSH1 0x20 MUL PUSH1 0x20 ADD ADD MLOAD SWAP5 POP DUP5 PUSH1 0x0 ADD MLOAD PUSH6 0xFFFFFFFFFFFF AND DUP13 GT ISZERO PUSH2 0x2E30 JUMPI DUP12 PUSH2 0x2E3E JUMP JUMPDEST DUP5 PUSH1 0x0 ADD MLOAD PUSH6 0xFFFFFFFFFFFF AND JUMPDEST SWAP4 POP DUP5 PUSH1 0x20 ADD MLOAD PUSH6 0xFFFFFFFFFFFF AND DUP12 GT ISZERO PUSH2 0x2E66 JUMPI DUP5 PUSH1 0x20 ADD MLOAD PUSH6 0xFFFFFFFFFFFF AND PUSH2 0x2E68 JUMP JUMPDEST DUP11 JUMPDEST SWAP3 POP PUSH2 0xE10 DUP6 PUSH1 0x40 ADD MLOAD PUSH12 0xFFFFFFFFFFFFFFFFFFFFFFFF AND DUP6 DUP6 PUSH2 0x2E8C SWAP2 SWAP1 PUSH2 0x83EA JUMP JUMPDEST PUSH2 0x2E96 SWAP2 SWAP1 PUSH2 0x8273 JUMP JUMPDEST PUSH2 0x2EA0 SWAP2 SWAP1 PUSH2 0x82FC JUMP JUMPDEST DUP7 PUSH2 0x2EAB SWAP2 SWAP1 PUSH2 0x8134 JUMP JUMPDEST SWAP6 POP DUP3 DUP12 GT PUSH2 0x2EC7 JUMPI DUP6 DUP2 SWAP10 POP SWAP10 POP POP POP POP POP POP POP POP POP PUSH2 0x2EED JUMP JUMPDEST DUP1 PUSH1 0x1 ADD SWAP1 POP PUSH2 0x2DED JUMP JUMPDEST POP DUP5 PUSH1 0x1 DUP3 PUSH2 0x2EE1 SWAP2 SWAP1 PUSH2 0x83EA JUMP JUMPDEST SWAP9 POP SWAP9 POP POP POP POP POP POP POP POP JUMPDEST SWAP4 POP SWAP4 SWAP2 POP POP JUMP JUMPDEST PUSH2 0x2EFD PUSH2 0x71A3 JUMP JUMPDEST PUSH1 0x0 DUP1 PUSH1 0x1 PUSH1 0x0 DUP6 PUSH20 0xFFFFFFFFFFFFFFFFFFFFFFFFFFFFFFFFFFFFFFFF AND PUSH20 0xFFFFFFFFFFFFFFFFFFFFFFFFFFFFFFFFFFFFFFFF AND DUP2 MSTORE PUSH1 0x20 ADD SWAP1 DUP2 MSTORE PUSH1 0x20 ADD PUSH1 0x0 KECCAK256 PUSH1 0x0 ADD SLOAD SWAP1 POP PUSH1 0x0 DUP1 DUP3 GT PUSH2 0x2F55 JUMPI PUSH1 0x0 PUSH2 0x2FD5 JUMP JUMPDEST ADDRESS PUSH20 0xFFFFFFFFFFFFFFFFFFFFFFFFFFFFFFFFFFFFFFFF AND PUSH4 0x2C018F91 PUSH1 0x0 DUP8 DUP7 PUSH1 0x40 MLOAD DUP5 PUSH4 0xFFFFFFFF AND PUSH1 0xE0 SHL DUP2 MSTORE PUSH1 0x4 ADD PUSH2 0x2F93 SWAP4 SWAP3 SWAP2 SWAP1 PUSH2 0x85B1 JUMP JUMPDEST PUSH1 0x20 PUSH1 0x40 MLOAD DUP1 DUP4 SUB DUP2 DUP7 GAS STATICCALL ISZERO DUP1 ISZERO PUSH2 0x2FB0 JUMPI RETURNDATASIZE PUSH1 0x0 DUP1 RETURNDATACOPY RETURNDATASIZE PUSH1 0x0 REVERT JUMPDEST POP POP POP POP PUSH1 0x40 MLOAD RETURNDATASIZE PUSH1 0x1F NOT PUSH1 0x1F DUP3 ADD AND DUP3 ADD DUP1 PUSH1 0x40 MSTORE POP DUP2 ADD SWAP1 PUSH2 0x2FD4 SWAP2 SWAP1 PUSH2 0x8246 JUMP JUMPDEST JUMPDEST SWAP1 POP PUSH1 0x0 DUP1 DUP4 GT PUSH2 0x2FE7 JUMPI PUSH1 0x0 PUSH2 0x2FF5 JUMP JUMPDEST PUSH2 0x2FF4 PUSH1 0x0 DUP8 PUSH1 0x0 PUSH2 0x6554 JUMP JUMPDEST JUMPDEST SWAP1 POP PUSH1 0x40 MLOAD DUP1 PUSH1 0xC0 ADD PUSH1 0x40 MSTORE DUP1 PUSH1 0x0 DUP2 MSTORE PUSH1 0x20 ADD DUP6 DUP2 MSTORE PUSH1 0x20 ADD DUP5 DUP2 MSTORE PUSH1 0x20 ADD DUP4 DUP2 MSTORE PUSH1 0x20 ADD DUP3 DUP2 MSTORE PUSH1 0x20 ADD PUSH1 0x2 PUSH1 0x40 MLOAD DUP1 PUSH1 0x40 ADD PUSH1 0x40 MSTORE SWAP1 DUP2 PUSH1 0x0 DUP3 ADD SLOAD DUP2 MSTORE PUSH1 0x20 ADD PUSH1 0x1 DUP3 ADD SLOAD DUP2 MSTORE POP POP DUP2 MSTORE POP SWAP5 POP POP POP POP POP SWAP2 SWAP1 POP JUMP JUMPDEST PUSH2 0x305D DUP5 DUP5 DUP5 DUP5 CALLER PUSH2 0xB47 JUMP JUMPDEST POP POP POP POP JUMP JUMPDEST PUSH2 0x306D PUSH1 0x0 PUSH2 0x1545 JUMP JUMPDEST PUSH1 0x0 PUSH1 0x1 PUSH1 0x0 CALLER PUSH20 0xFFFFFFFFFFFFFFFFFFFFFFFFFFFFFFFFFFFFFFFF AND PUSH20 0xFFFFFFFFFFFFFFFFFFFFFFFFFFFFFFFFFFFFFFFF AND DUP2 MSTORE PUSH1 0x20 ADD SWAP1 DUP2 MSTORE PUSH1 0x20 ADD PUSH1 0x0 KECCAK256 SWAP1 POP DUP1 PUSH1 0x0 ADD SLOAD DUP4 EQ ISZERO PUSH2 0x311E JUMPI PUSH1 0x0 PUSH2 0x30CA PUSH1 0x0 DUP4 DUP6 PUSH2 0x5113 JUMP JUMPDEST SWAP1 POP CALLER PUSH20 0xFFFFFFFFFFFFFFFFFFFFFFFFFFFFFFFFFFFFFFFF AND PUSH32 0x30F754A3E747235920C21AFECA14E881B260D41C7E657ADA6C0B049F7EEBCA9 DUP3 DUP6 PUSH1 0x40 MLOAD PUSH2 0x3114 SWAP3 SWAP2 SWAP1 PUSH2 0x83C1 JUMP JUMPDEST PUSH1 0x40 MLOAD DUP1 SWAP2 SUB SWAP1 LOG2 POP JUMPDEST PUSH2 0x312A PUSH1 0x0 DUP3 DUP6 PUSH2 0x6877 JUMP JUMPDEST PUSH32 0x0 PUSH20 0xFFFFFFFFFFFFFFFFFFFFFFFFFFFFFFFFFFFFFFFF AND PUSH4 0xA9059CBB DUP4 DUP6 PUSH1 0x40 MLOAD DUP4 PUSH4 0xFFFFFFFF AND PUSH1 0xE0 SHL DUP2 MSTORE PUSH1 0x4 ADD PUSH2 0x3185 SWAP3 SWAP2 SWAP1 PUSH2 0x85E8 JUMP JUMPDEST PUSH1 0x20 PUSH1 0x40 MLOAD DUP1 DUP4 SUB DUP2 PUSH1 0x0 DUP8 GAS CALL ISZERO DUP1 ISZERO PUSH2 0x31A4 JUMPI RETURNDATASIZE PUSH1 0x0 DUP1 RETURNDATACOPY RETURNDATASIZE PUSH1 0x0 REVERT JUMPDEST POP POP POP POP PUSH1 0x40 MLOAD RETURNDATASIZE PUSH1 0x1F NOT PUSH1 0x1F DUP3 ADD AND DUP3 ADD DUP1 PUSH1 0x40 MSTORE POP DUP2 ADD SWAP1 PUSH2 0x31C8 SWAP2 SWAP1 PUSH2 0x851A JUMP JUMPDEST POP CALLER PUSH20 0xFFFFFFFFFFFFFFFFFFFFFFFFFFFFFFFFFFFFFFFF AND PUSH32 0x56C54BA9BD38D8FD62012E42C7EE564519B09763C426D331B3661B537EAD19B2 DUP5 DUP5 PUSH1 0x40 MLOAD PUSH2 0x3211 SWAP3 SWAP2 SWAP1 PUSH2 0x83C1 JUMP JUMPDEST PUSH1 0x40 MLOAD DUP1 SWAP2 SUB SWAP1 LOG2 POP POP POP JUMP JUMPDEST PUSH2 0x322B PUSH1 0x2 DUP5 DUP5 DUP5 PUSH2 0x58BD JUMP JUMPDEST POP POP POP JUMP JUMPDEST PUSH2 0x3238 PUSH2 0x566D JUMP JUMPDEST PUSH1 0x0 PUSH20 0xFFFFFFFFFFFFFFFFFFFFFFFFFFFFFFFFFFFFFFFF AND DUP2 PUSH20 0xFFFFFFFFFFFFFFFFFFFFFFFFFFFFFFFFFFFFFFFF AND EQ ISZERO PUSH2 0x32A8 JUMPI PUSH1 0x40 MLOAD PUSH32 0x8C379A000000000000000000000000000000000000000000000000000000000 DUP2 MSTORE PUSH1 0x4 ADD PUSH2 0x329F SWAP1 PUSH2 0x8694 JUMP JUMPDEST PUSH1 0x40 MLOAD DUP1 SWAP2 SUB SWAP1 REVERT JUMPDEST PUSH2 0x32B1 DUP2 PUSH2 0x56EB JUMP JUMPDEST POP JUMP JUMPDEST PUSH1 0x60 PUSH2 0x32C1 DUP3 PUSH1 0x2 PUSH2 0x3370 JUMP JUMPDEST SWAP1 POP SWAP2 SWAP1 POP JUMP JUMPDEST PUSH1 0x0 DUP1 PUSH1 0x1 PUSH1 0x0 DUP5 PUSH20 0xFFFFFFFFFFFFFFFFFFFFFFFFFFFFFFFFFFFFFFFF AND PUSH20 0xFFFFFFFFFFFFFFFFFFFFFFFFFFFFFFFFFFFFFFFF AND DUP2 MSTORE PUSH1 0x20 ADD SWAP1 DUP2 MSTORE PUSH1 0x20 ADD PUSH1 0x0 KECCAK256 PUSH1 0x0 ADD SLOAD SWAP1 POP PUSH2 0x331B PUSH1 0x1 DUP5 PUSH2 0x69AB JUMP JUMPDEST DUP2 PUSH2 0x3326 SWAP2 SWAP1 PUSH2 0x8134 JUMP JUMPDEST SWAP1 POP PUSH2 0x3333 PUSH1 0x2 DUP5 PUSH2 0x69AB JUMP JUMPDEST DUP2 PUSH2 0x333E SWAP2 SWAP1 PUSH2 0x8134 JUMP JUMPDEST SWAP1 POP PUSH2 0x3349 DUP4 PUSH2 0x6B74 JUMP JUMPDEST DUP2 PUSH2 0x3354 SWAP2 SWAP1 PUSH2 0x8134 JUMP JUMPDEST SWAP1 POP DUP1 SWAP2 POP POP SWAP2 SWAP1 POP JUMP JUMPDEST PUSH2 0x336C PUSH1 0x1 DUP4 DUP4 CALLER PUSH2 0x58BD JUMP JUMPDEST POP POP JUMP JUMPDEST PUSH1 0x60 PUSH1 0x0 PUSH1 0xC PUSH1 0x0 DUP5 DUP2 MSTORE PUSH1 0x20 ADD SWAP1 DUP2 MSTORE PUSH1 0x20 ADD PUSH1 0x0 KECCAK256 PUSH1 0x0 SWAP1 SLOAD SWAP1 PUSH2 0x100 EXP SWAP1 DIV PUSH20 0xFFFFFFFFFFFFFFFFFFFFFFFFFFFFFFFFFFFFFFFF AND PUSH20 0xFFFFFFFFFFFFFFFFFFFFFFFFFFFFFFFFFFFFFFFF AND PUSH4 0x70A08231 DUP6 PUSH1 0x40 MLOAD DUP3 PUSH4 0xFFFFFFFF AND PUSH1 0xE0 SHL DUP2 MSTORE PUSH1 0x4 ADD PUSH2 0x33E0 SWAP2 SWAP1 PUSH2 0x7CA9 JUMP JUMPDEST PUSH1 0x20 PUSH1 0x40 MLOAD DUP1 DUP4 SUB DUP2 DUP7 GAS STATICCALL ISZERO DUP1 ISZERO PUSH2 0x33FD JUMPI RETURNDATASIZE PUSH1 0x0 DUP1 RETURNDATACOPY RETURNDATASIZE PUSH1 0x0 REVERT JUMPDEST POP POP POP POP PUSH1 0x40 MLOAD RETURNDATASIZE PUSH1 0x1F NOT PUSH1 0x1F DUP3 ADD AND DUP3 ADD DUP1 PUSH1 0x40 MSTORE POP DUP2 ADD SWAP1 PUSH2 0x3421 SWAP2 SWAP1 PUSH2 0x8246 JUMP JUMPDEST SWAP1 POP PUSH1 0x0 DUP1 DUP3 GT PUSH2 0x3486 JUMPI PUSH1 0x0 PUSH8 0xFFFFFFFFFFFFFFFF DUP2 GT ISZERO PUSH2 0x3447 JUMPI PUSH2 0x3446 PUSH2 0x818A JUMP JUMPDEST JUMPDEST PUSH1 0x40 MLOAD SWAP1 DUP1 DUP3 MSTORE DUP1 PUSH1 0x20 MUL PUSH1 0x20 ADD DUP3 ADD PUSH1 0x40 MSTORE DUP1 ISZERO PUSH2 0x3480 JUMPI DUP2 PUSH1 0x20 ADD JUMPDEST PUSH2 0x346D PUSH2 0x71A3 JUMP JUMPDEST DUP2 MSTORE PUSH1 0x20 ADD SWAP1 PUSH1 0x1 SWAP1 SUB SWAP1 DUP2 PUSH2 0x3465 JUMPI SWAP1 POP JUMPDEST POP PUSH2 0x34DB JUMP JUMPDEST DUP2 PUSH8 0xFFFFFFFFFFFFFFFF DUP2 GT ISZERO PUSH2 0x34A0 JUMPI PUSH2 0x349F PUSH2 0x818A JUMP JUMPDEST JUMPDEST PUSH1 0x40 MLOAD SWAP1 DUP1 DUP3 MSTORE DUP1 PUSH1 0x20 MUL PUSH1 0x20 ADD DUP3 ADD PUSH1 0x40 MSTORE DUP1 ISZERO PUSH2 0x34D9 JUMPI DUP2 PUSH1 0x20 ADD JUMPDEST PUSH2 0x34C6 PUSH2 0x71A3 JUMP JUMPDEST DUP2 MSTORE PUSH1 0x20 ADD SWAP1 PUSH1 0x1 SWAP1 SUB SWAP1 DUP2 PUSH2 0x34BE JUMPI SWAP1 POP JUMPDEST POP JUMPDEST SWAP1 POP PUSH1 0x0 DUP3 EQ ISZERO PUSH2 0x34F0 JUMPI DUP1 SWAP3 POP POP POP PUSH2 0x38BB JUMP JUMPDEST PUSH1 0x0 JUMPDEST DUP3 DUP2 LT ISZERO PUSH2 0x38B4 JUMPI PUSH1 0x0 PUSH1 0xC PUSH1 0x0 DUP8 DUP2 MSTORE PUSH1 0x20 ADD SWAP1 DUP2 MSTORE PUSH1 0x20 ADD PUSH1 0x0 KECCAK256 PUSH1 0x0 SWAP1 SLOAD SWAP1 PUSH2 0x100 EXP SWAP1 DIV PUSH20 0xFFFFFFFFFFFFFFFFFFFFFFFFFFFFFFFFFFFFFFFF AND PUSH20 0xFFFFFFFFFFFFFFFFFFFFFFFFFFFFFFFFFFFFFFFF AND PUSH4 0x2F745C59 DUP9 DUP5 PUSH1 0x40 MLOAD DUP4 PUSH4 0xFFFFFFFF AND PUSH1 0xE0 SHL DUP2 MSTORE PUSH1 0x4 ADD PUSH2 0x356B SWAP3 SWAP2 SWAP1 PUSH2 0x85E8 JUMP JUMPDEST PUSH1 0x20 PUSH1 0x40 MLOAD DUP1 DUP4 SUB DUP2 DUP7 GAS STATICCALL ISZERO DUP1 ISZERO PUSH2 0x3588 JUMPI RETURNDATASIZE PUSH1 0x0 DUP1 RETURNDATACOPY RETURNDATASIZE PUSH1 0x0 REVERT JUMPDEST POP POP POP POP PUSH1 0x40 MLOAD RETURNDATASIZE PUSH1 0x1F NOT PUSH1 0x1F DUP3 ADD AND DUP3 ADD DUP1 PUSH1 0x40 MSTORE POP DUP2 ADD SWAP1 PUSH2 0x35AC SWAP2 SWAP1 PUSH2 0x8246 JUMP JUMPDEST SWAP1 POP PUSH1 0x0 PUSH1 0xD PUSH1 0x0 DUP9 DUP2 MSTORE PUSH1 0x20 ADD SWAP1 DUP2 MSTORE PUSH1 0x20 ADD PUSH1 0x0 KECCAK256 PUSH1 0x0 DUP4 DUP2 MSTORE PUSH1 0x20 ADD SWAP1 DUP2 MSTORE PUSH1 0x20 ADD PUSH1 0x0 KECCAK256 PUSH1 0x0 ADD SLOAD SWAP1 POP PUSH1 0x0 DUP1 DUP3 GT PUSH2 0x35EA JUMPI PUSH1 0x0 PUSH2 0x3669 JUMP JUMPDEST ADDRESS PUSH20 0xFFFFFFFFFFFFFFFFFFFFFFFFFFFFFFFFFFFFFFFF AND PUSH4 0x2C018F91 DUP10 DUP12 DUP7 PUSH1 0x40 MLOAD DUP5 PUSH4 0xFFFFFFFF AND PUSH1 0xE0 SHL DUP2 MSTORE PUSH1 0x4 ADD PUSH2 0x3627 SWAP4 SWAP3 SWAP2 SWAP1 PUSH2 0x86B4 JUMP JUMPDEST PUSH1 0x20 PUSH1 0x40 MLOAD DUP1 DUP4 SUB DUP2 DUP7 GAS STATICCALL ISZERO DUP1 ISZERO PUSH2 0x3644 JUMPI RETURNDATASIZE PUSH1 0x0 DUP1 RETURNDATACOPY RETURNDATASIZE PUSH1 0x0 REVERT JUMPDEST POP POP POP POP PUSH1 0x40 MLOAD RETURNDATASIZE PUSH1 0x1F NOT PUSH1 0x1F DUP3 ADD AND DUP3 ADD DUP1 PUSH1 0x40 MSTORE POP DUP2 ADD SWAP1 PUSH2 0x3668 SWAP2 SWAP1 PUSH2 0x8246 JUMP JUMPDEST JUMPDEST SWAP1 POP PUSH1 0x0 DUP1 DUP4 GT PUSH2 0x367B JUMPI PUSH1 0x0 PUSH2 0x3687 JUMP JUMPDEST PUSH2 0x3686 DUP10 DUP12 DUP7 PUSH2 0x6554 JUMP JUMPDEST JUMPDEST SWAP1 POP PUSH1 0x0 PUSH1 0x2 PUSH1 0x40 MLOAD DUP1 PUSH1 0x40 ADD PUSH1 0x40 MSTORE SWAP1 DUP2 PUSH1 0x0 DUP3 ADD SLOAD DUP2 MSTORE PUSH1 0x20 ADD PUSH1 0x1 DUP3 ADD SLOAD DUP2 MSTORE POP POP SWAP1 POP PUSH1 0x3 DUP11 EQ ISZERO PUSH2 0x384D JUMPI PUSH1 0xF PUSH1 0x0 DUP7 DUP2 MSTORE PUSH1 0x20 ADD SWAP1 DUP2 MSTORE PUSH1 0x20 ADD PUSH1 0x0 KECCAK256 PUSH1 0x0 PUSH1 0x1 DUP2 MSTORE PUSH1 0x20 ADD SWAP1 DUP2 MSTORE PUSH1 0x20 ADD PUSH1 0x0 KECCAK256 PUSH1 0x0 ADD PUSH1 0x1F SWAP1 SLOAD SWAP1 PUSH2 0x100 EXP SWAP1 DIV PUSH1 0xFF AND ISZERO PUSH2 0x3783 JUMPI PUSH1 0x40 MLOAD DUP1 PUSH1 0x40 ADD PUSH1 0x40 MSTORE DUP1 PUSH1 0xF PUSH1 0x0 DUP9 DUP2 MSTORE PUSH1 0x20 ADD SWAP1 DUP2 MSTORE PUSH1 0x20 ADD PUSH1 0x0 KECCAK256 PUSH1 0x0 PUSH1 0x1 DUP2 MSTORE PUSH1 0x20 ADD SWAP1 DUP2 MSTORE PUSH1 0x20 ADD PUSH1 0x0 KECCAK256 PUSH1 0x0 ADD PUSH1 0x0 SWAP1 SLOAD SWAP1 PUSH2 0x100 EXP SWAP1 DIV PUSH31 0xFFFFFFFFFFFFFFFFFFFFFFFFFFFFFFFFFFFFFFFFFFFFFFFFFFFFFFFFFFFFFF AND PUSH31 0xFFFFFFFFFFFFFFFFFFFFFFFFFFFFFFFFFFFFFFFFFFFFFFFFFFFFFFFFFFFFFF AND DUP2 MSTORE PUSH1 0x20 ADD PUSH1 0x1 DUP2 MSTORE POP SWAP1 POP PUSH2 0x384C JUMP JUMPDEST PUSH1 0xF PUSH1 0x0 DUP7 DUP2 MSTORE PUSH1 0x20 ADD SWAP1 DUP2 MSTORE PUSH1 0x20 ADD PUSH1 0x0 KECCAK256 PUSH1 0x0 PUSH1 0x2 DUP2 MSTORE PUSH1 0x20 ADD SWAP1 DUP2 MSTORE PUSH1 0x20 ADD PUSH1 0x0 KECCAK256 PUSH1 0x0 ADD PUSH1 0x1F SWAP1 SLOAD SWAP1 PUSH2 0x100 EXP SWAP1 DIV PUSH1 0xFF AND ISZERO PUSH2 0x384B JUMPI PUSH1 0x40 MLOAD DUP1 PUSH1 0x40 ADD PUSH1 0x40 MSTORE DUP1 PUSH1 0xF PUSH1 0x0 DUP9 DUP2 MSTORE PUSH1 0x20 ADD SWAP1 DUP2 MSTORE PUSH1 0x20 ADD PUSH1 0x0 KECCAK256 PUSH1 0x0 PUSH1 0x2 DUP2 MSTORE PUSH1 0x20 ADD SWAP1 DUP2 MSTORE PUSH1 0x20 ADD PUSH1 0x0 KECCAK256 PUSH1 0x0 ADD PUSH1 0x0 SWAP1 SLOAD SWAP1 PUSH2 0x100 EXP SWAP1 DIV PUSH31 0xFFFFFFFFFFFFFFFFFFFFFFFFFFFFFFFFFFFFFFFFFFFFFFFFFFFFFFFFFFFFFF AND PUSH31 0xFFFFFFFFFFFFFFFFFFFFFFFFFFFFFFFFFFFFFFFFFFFFFFFFFFFFFFFFFFFFFF AND DUP2 MSTORE PUSH1 0x20 ADD PUSH1 0x2 DUP2 MSTORE POP SWAP1 POP JUMPDEST JUMPDEST JUMPDEST PUSH1 0x0 PUSH1 0x40 MLOAD DUP1 PUSH1 0xC0 ADD PUSH1 0x40 MSTORE DUP1 DUP13 DUP2 MSTORE PUSH1 0x20 ADD DUP8 DUP2 MSTORE PUSH1 0x20 ADD DUP7 DUP2 MSTORE PUSH1 0x20 ADD DUP6 DUP2 MSTORE PUSH1 0x20 ADD DUP5 DUP2 MSTORE PUSH1 0x20 ADD DUP4 DUP2 MSTORE POP SWAP1 POP DUP1 DUP9 DUP9 DUP2 MLOAD DUP2 LT PUSH2 0x3892 JUMPI PUSH2 0x3891 PUSH2 0x81B9 JUMP JUMPDEST JUMPDEST PUSH1 0x20 MUL PUSH1 0x20 ADD ADD DUP2 SWAP1 MSTORE POP POP POP POP POP POP POP DUP1 PUSH2 0x38AD SWAP1 PUSH2 0x81E8 JUMP JUMPDEST SWAP1 POP PUSH2 0x34F3 JUMP JUMPDEST POP DUP1 SWAP3 POP POP POP JUMPDEST SWAP3 SWAP2 POP POP JUMP JUMPDEST PUSH1 0x0 DUP4 DUP4 SWAP1 POP SWAP1 POP PUSH1 0x0 DUP1 PUSH1 0x0 DUP1 PUSH1 0x0 DUP1 JUMPDEST DUP7 DUP2 LT ISZERO PUSH2 0x3D79 JUMPI DUP10 DUP10 DUP3 DUP2 DUP2 LT PUSH2 0x38EE JUMPI PUSH2 0x38ED PUSH2 0x81B9 JUMP JUMPDEST JUMPDEST SWAP1 POP PUSH1 0x40 MUL ADD PUSH1 0x0 ADD PUSH1 0x20 DUP2 ADD SWAP1 PUSH2 0x3906 SWAP2 SWAP1 PUSH2 0x8733 JUMP JUMPDEST PUSH16 0xFFFFFFFFFFFFFFFFFFFFFFFFFFFFFFFF AND SWAP6 POP CALLER PUSH20 0xFFFFFFFFFFFFFFFFFFFFFFFFFFFFFFFFFFFFFFFF AND PUSH1 0xC PUSH1 0x0 DUP14 DUP2 MSTORE PUSH1 0x20 ADD SWAP1 DUP2 MSTORE PUSH1 0x20 ADD PUSH1 0x0 KECCAK256 PUSH1 0x0 SWAP1 SLOAD SWAP1 PUSH2 0x100 EXP SWAP1 DIV PUSH20 0xFFFFFFFFFFFFFFFFFFFFFFFFFFFFFFFFFFFFFFFF AND PUSH20 0xFFFFFFFFFFFFFFFFFFFFFFFFFFFFFFFFFFFFFFFF AND PUSH4 0x6352211E DUP9 PUSH1 0x40 MLOAD DUP3 PUSH4 0xFFFFFFFF AND PUSH1 0xE0 SHL DUP2 MSTORE PUSH1 0x4 ADD PUSH2 0x399D SWAP2 SWAP1 PUSH2 0x7A1F JUMP JUMPDEST PUSH1 0x20 PUSH1 0x40 MLOAD DUP1 DUP4 SUB DUP2 DUP7 GAS STATICCALL ISZERO DUP1 ISZERO PUSH2 0x39BA JUMPI RETURNDATASIZE PUSH1 0x0 DUP1 RETURNDATACOPY RETURNDATASIZE PUSH1 0x0 REVERT JUMPDEST POP POP POP POP PUSH1 0x40 MLOAD RETURNDATASIZE PUSH1 0x1F NOT PUSH1 0x1F DUP3 ADD AND DUP3 ADD DUP1 PUSH1 0x40 MSTORE POP DUP2 ADD SWAP1 PUSH2 0x39DE SWAP2 SWAP1 PUSH2 0x8775 JUMP JUMPDEST PUSH20 0xFFFFFFFFFFFFFFFFFFFFFFFFFFFFFFFFFFFFFFFF AND EQ PUSH2 0x3A2B JUMPI PUSH1 0x40 MLOAD PUSH32 0x2B19AE7500000000000000000000000000000000000000000000000000000000 DUP2 MSTORE PUSH1 0x4 ADD PUSH1 0x40 MLOAD DUP1 SWAP2 SUB SWAP1 REVERT JUMPDEST DUP10 DUP10 DUP3 DUP2 DUP2 LT PUSH2 0x3A3E JUMPI PUSH2 0x3A3D PUSH2 0x81B9 JUMP JUMPDEST JUMPDEST SWAP1 POP PUSH1 0x40 MUL ADD PUSH1 0x20 ADD PUSH1 0x20 DUP2 ADD SWAP1 PUSH2 0x3A56 SWAP2 SWAP1 PUSH2 0x8733 JUMP JUMPDEST PUSH16 0xFFFFFFFFFFFFFFFFFFFFFFFFFFFFFFFF AND SWAP5 POP CALLER PUSH20 0xFFFFFFFFFFFFFFFFFFFFFFFFFFFFFFFFFFFFFFFF AND PUSH1 0xC PUSH1 0x0 PUSH1 0x3 DUP2 MSTORE PUSH1 0x20 ADD SWAP1 DUP2 MSTORE PUSH1 0x20 ADD PUSH1 0x0 KECCAK256 PUSH1 0x0 SWAP1 SLOAD SWAP1 PUSH2 0x100 EXP SWAP1 DIV PUSH20 0xFFFFFFFFFFFFFFFFFFFFFFFFFFFFFFFFFFFFFFFF AND PUSH20 0xFFFFFFFFFFFFFFFFFFFFFFFFFFFFFFFFFFFFFFFF AND PUSH4 0x6352211E DUP8 PUSH1 0x40 MLOAD DUP3 PUSH4 0xFFFFFFFF AND PUSH1 0xE0 SHL DUP2 MSTORE PUSH1 0x4 ADD PUSH2 0x3AEE SWAP2 SWAP1 PUSH2 0x7A1F JUMP JUMPDEST PUSH1 0x20 PUSH1 0x40 MLOAD DUP1 DUP4 SUB DUP2 DUP7 GAS STATICCALL ISZERO DUP1 ISZERO PUSH2 0x3B0B JUMPI RETURNDATASIZE PUSH1 0x0 DUP1 RETURNDATACOPY RETURNDATASIZE PUSH1 0x0 REVERT JUMPDEST POP POP POP POP PUSH1 0x40 MLOAD RETURNDATASIZE PUSH1 0x1F NOT PUSH1 0x1F DUP3 ADD AND DUP3 ADD DUP1 PUSH1 0x40 MSTORE POP DUP2 ADD SWAP1 PUSH2 0x3B2F SWAP2 SWAP1 PUSH2 0x8775 JUMP JUMPDEST PUSH20 0xFFFFFFFFFFFFFFFFFFFFFFFFFFFFFFFFFFFFFFFF AND EQ PUSH2 0x3B7C JUMPI PUSH1 0x40 MLOAD PUSH32 0x2C8348BB00000000000000000000000000000000000000000000000000000000 DUP2 MSTORE PUSH1 0x4 ADD PUSH1 0x40 MLOAD DUP1 SWAP2 SUB SWAP1 REVERT JUMPDEST PUSH1 0xE PUSH1 0x0 DUP13 DUP2 MSTORE PUSH1 0x20 ADD SWAP1 DUP2 MSTORE PUSH1 0x20 ADD PUSH1 0x0 KECCAK256 PUSH1 0x0 DUP8 DUP2 MSTORE PUSH1 0x20 ADD SWAP1 DUP2 MSTORE PUSH1 0x20 ADD PUSH1 0x0 KECCAK256 SWAP3 POP PUSH1 0xF PUSH1 0x0 DUP7 DUP2 MSTORE PUSH1 0x20 ADD SWAP1 DUP2 MSTORE PUSH1 0x20 ADD PUSH1 0x0 KECCAK256 PUSH1 0x0 DUP13 DUP2 MSTORE PUSH1 0x20 ADD SWAP1 DUP2 MSTORE PUSH1 0x20 ADD PUSH1 0x0 KECCAK256 SWAP2 POP DUP5 DUP4 PUSH1 0x0 ADD PUSH1 0x0 SWAP1 SLOAD SWAP1 PUSH2 0x100 EXP SWAP1 DIV PUSH31 0xFFFFFFFFFFFFFFFFFFFFFFFFFFFFFFFFFFFFFFFFFFFFFFFFFFFFFFFFFFFFFF AND PUSH31 0xFFFFFFFFFFFFFFFFFFFFFFFFFFFFFFFFFFFFFFFFFFFFFFFFFFFFFFFFFFFFFF AND EQ ISZERO DUP1 PUSH2 0x3C36 JUMPI POP DUP3 PUSH1 0x0 ADD PUSH1 0x1F SWAP1 SLOAD SWAP1 PUSH2 0x100 EXP SWAP1 DIV PUSH1 0xFF AND ISZERO JUMPDEST DUP1 PUSH2 0x3C91 JUMPI POP DUP6 DUP3 PUSH1 0x0 ADD PUSH1 0x0 SWAP1 SLOAD SWAP1 PUSH2 0x100 EXP SWAP1 DIV PUSH31 0xFFFFFFFFFFFFFFFFFFFFFFFFFFFFFFFFFFFFFFFFFFFFFFFFFFFFFFFFFFFFFF AND PUSH31 0xFFFFFFFFFFFFFFFFFFFFFFFFFFFFFFFFFFFFFFFFFFFFFFFFFFFFFFFFFFFFFF AND EQ ISZERO JUMPDEST DUP1 PUSH2 0x3CAB JUMPI POP DUP2 PUSH1 0x0 ADD PUSH1 0x1F SWAP1 SLOAD SWAP1 PUSH2 0x100 EXP SWAP1 DIV PUSH1 0xFF AND ISZERO JUMPDEST ISZERO PUSH2 0x3CE2 JUMPI PUSH1 0x40 MLOAD PUSH32 0xCCC819DA00000000000000000000000000000000000000000000000000000000 DUP2 MSTORE PUSH1 0x4 ADD PUSH1 0x40 MLOAD DUP1 SWAP2 SUB SWAP1 REVERT JUMPDEST PUSH1 0xD PUSH1 0x0 PUSH1 0x3 DUP2 MSTORE PUSH1 0x20 ADD SWAP1 DUP2 MSTORE PUSH1 0x20 ADD PUSH1 0x0 KECCAK256 PUSH1 0x0 DUP7 DUP2 MSTORE PUSH1 0x20 ADD SWAP1 DUP2 MSTORE PUSH1 0x20 ADD PUSH1 0x0 KECCAK256 SWAP4 POP PUSH1 0x0 PUSH2 0x3D17 PUSH1 0x3 DUP7 DUP12 PUSH2 0x5113 JUMP JUMPDEST SWAP1 POP CALLER PUSH20 0xFFFFFFFFFFFFFFFFFFFFFFFFFFFFFFFFFFFFFFFF AND PUSH32 0x89D57E873AF45054D40B801CA64CA06A1627C5682AB9BE494A9F2846EF157D8A DUP3 DUP15 DUP11 DUP11 PUSH1 0x40 MLOAD PUSH2 0x3D65 SWAP5 SWAP4 SWAP3 SWAP2 SWAP1 PUSH2 0x87A2 JUMP JUMPDEST PUSH1 0x40 MLOAD DUP1 SWAP2 SUB SWAP1 LOG2 DUP2 PUSH1 0x1 ADD SWAP2 POP POP PUSH2 0x38D3 JUMP JUMPDEST POP POP POP POP POP POP POP POP POP POP POP JUMP JUMPDEST PUSH1 0x0 DUP1 PUSH1 0x0 JUMPDEST DUP6 DUP2 LT ISZERO PUSH2 0x4000 JUMPI PUSH1 0x0 PUSH1 0xC PUSH1 0x0 DUP7 DUP2 MSTORE PUSH1 0x20 ADD SWAP1 DUP2 MSTORE PUSH1 0x20 ADD PUSH1 0x0 KECCAK256 PUSH1 0x0 SWAP1 SLOAD SWAP1 PUSH2 0x100 EXP SWAP1 DIV PUSH20 0xFFFFFFFFFFFFFFFFFFFFFFFFFFFFFFFFFFFFFFFF AND PUSH20 0xFFFFFFFFFFFFFFFFFFFFFFFFFFFFFFFFFFFFFFFF AND PUSH4 0x2F745C59 DUP8 DUP5 PUSH1 0x40 MLOAD DUP4 PUSH4 0xFFFFFFFF AND PUSH1 0xE0 SHL DUP2 MSTORE PUSH1 0x4 ADD PUSH2 0x3E04 SWAP3 SWAP2 SWAP1 PUSH2 0x85E8 JUMP JUMPDEST PUSH1 0x20 PUSH1 0x40 MLOAD DUP1 DUP4 SUB DUP2 DUP7 GAS STATICCALL ISZERO DUP1 ISZERO PUSH2 0x3E21 JUMPI RETURNDATASIZE PUSH1 0x0 DUP1 RETURNDATACOPY RETURNDATASIZE PUSH1 0x0 REVERT JUMPDEST POP POP POP POP PUSH1 0x40 MLOAD RETURNDATASIZE PUSH1 0x1F NOT PUSH1 0x1F DUP3 ADD AND DUP3 ADD DUP1 PUSH1 0x40 MSTORE POP DUP2 ADD SWAP1 PUSH2 0x3E45 SWAP2 SWAP1 PUSH2 0x8246 JUMP JUMPDEST SWAP1 POP PUSH1 0xE PUSH1 0x0 DUP7 DUP2 MSTORE PUSH1 0x20 ADD SWAP1 DUP2 MSTORE PUSH1 0x20 ADD PUSH1 0x0 KECCAK256 PUSH1 0x0 DUP3 DUP2 MSTORE PUSH1 0x20 ADD SWAP1 DUP2 MSTORE PUSH1 0x20 ADD PUSH1 0x0 KECCAK256 PUSH1 0x0 ADD PUSH1 0x1F SWAP1 SLOAD SWAP1 PUSH2 0x100 EXP SWAP1 DIV PUSH1 0xFF AND ISZERO PUSH2 0x3FEE JUMPI PUSH1 0x0 PUSH1 0xE PUSH1 0x0 DUP8 DUP2 MSTORE PUSH1 0x20 ADD SWAP1 DUP2 MSTORE PUSH1 0x20 ADD PUSH1 0x0 KECCAK256 PUSH1 0x0 DUP4 DUP2 MSTORE PUSH1 0x20 ADD SWAP1 DUP2 MSTORE PUSH1 0x20 ADD PUSH1 0x0 KECCAK256 PUSH1 0x0 ADD PUSH1 0x0 SWAP1 SLOAD SWAP1 PUSH2 0x100 EXP SWAP1 DIV PUSH31 0xFFFFFFFFFFFFFFFFFFFFFFFFFFFFFFFFFFFFFFFFFFFFFFFFFFFFFFFFFFFFFF AND PUSH31 0xFFFFFFFFFFFFFFFFFFFFFFFFFFFFFFFFFFFFFFFFFFFFFFFFFFFFFFFFFFFFFF AND SWAP1 POP PUSH1 0x0 PUSH1 0xC PUSH1 0x0 PUSH1 0x3 DUP2 MSTORE PUSH1 0x20 ADD SWAP1 DUP2 MSTORE PUSH1 0x20 ADD PUSH1 0x0 KECCAK256 PUSH1 0x0 SWAP1 SLOAD SWAP1 PUSH2 0x100 EXP SWAP1 DIV PUSH20 0xFFFFFFFFFFFFFFFFFFFFFFFFFFFFFFFFFFFFFFFF AND PUSH20 0xFFFFFFFFFFFFFFFFFFFFFFFFFFFFFFFFFFFFFFFF AND PUSH4 0x6352211E DUP4 PUSH1 0x40 MLOAD DUP3 PUSH4 0xFFFFFFFF AND PUSH1 0xE0 SHL DUP2 MSTORE PUSH1 0x4 ADD PUSH2 0x3F68 SWAP2 SWAP1 PUSH2 0x7A1F JUMP JUMPDEST PUSH1 0x20 PUSH1 0x40 MLOAD DUP1 DUP4 SUB DUP2 DUP7 GAS STATICCALL ISZERO DUP1 ISZERO PUSH2 0x3F85 JUMPI RETURNDATASIZE PUSH1 0x0 DUP1 RETURNDATACOPY RETURNDATASIZE PUSH1 0x0 REVERT JUMPDEST POP POP POP POP PUSH1 0x40 MLOAD RETURNDATASIZE PUSH1 0x1F NOT PUSH1 0x1F DUP3 ADD AND DUP3 ADD DUP1 PUSH1 0x40 MSTORE POP DUP2 ADD SWAP1 PUSH2 0x3FA9 SWAP2 SWAP1 PUSH2 0x8775 JUMP JUMPDEST SWAP1 POP DUP8 PUSH20 0xFFFFFFFFFFFFFFFFFFFFFFFFFFFFFFFFFFFFFFFF AND DUP2 PUSH20 0xFFFFFFFFFFFFFFFFFFFFFFFFFFFFFFFFFFFFFFFF AND EQ PUSH2 0x3FEB JUMPI DUP5 PUSH2 0x3FE8 SWAP1 PUSH2 0x81E8 JUMP JUMPDEST SWAP5 POP JUMPDEST POP POP JUMPDEST POP DUP1 PUSH2 0x3FF9 SWAP1 PUSH2 0x81E8 JUMP JUMPDEST SWAP1 POP PUSH2 0x3D8C JUMP JUMPDEST POP DUP1 SWAP2 POP POP SWAP4 SWAP3 POP POP POP JUMP JUMPDEST PUSH1 0x60 PUSH1 0x0 DUP5 PUSH8 0xFFFFFFFFFFFFFFFF DUP2 GT ISZERO PUSH2 0x402A JUMPI PUSH2 0x4029 PUSH2 0x818A JUMP JUMPDEST JUMPDEST PUSH1 0x40 MLOAD SWAP1 DUP1 DUP3 MSTORE DUP1 PUSH1 0x20 MUL PUSH1 0x20 ADD DUP3 ADD PUSH1 0x40 MSTORE DUP1 ISZERO PUSH2 0x4063 JUMPI DUP2 PUSH1 0x20 ADD JUMPDEST PUSH2 0x4050 PUSH2 0x71A3 JUMP JUMPDEST DUP2 MSTORE PUSH1 0x20 ADD SWAP1 PUSH1 0x1 SWAP1 SUB SWAP1 DUP2 PUSH2 0x4048 JUMPI SWAP1 POP JUMPDEST POP SWAP1 POP PUSH1 0x0 DUP1 PUSH1 0x0 SWAP1 POP JUMPDEST PUSH1 0xC PUSH1 0x0 DUP7 DUP2 MSTORE PUSH1 0x20 ADD SWAP1 DUP2 MSTORE PUSH1 0x20 ADD PUSH1 0x0 KECCAK256 PUSH1 0x0 SWAP1 SLOAD SWAP1 PUSH2 0x100 EXP SWAP1 DIV PUSH20 0xFFFFFFFFFFFFFFFFFFFFFFFFFFFFFFFFFFFFFFFF AND PUSH20 0xFFFFFFFFFFFFFFFFFFFFFFFFFFFFFFFFFFFFFFFF AND PUSH4 0x70A08231 DUP8 PUSH1 0x40 MLOAD DUP3 PUSH4 0xFFFFFFFF AND PUSH1 0xE0 SHL DUP2 MSTORE PUSH1 0x4 ADD PUSH2 0x40DA SWAP2 SWAP1 PUSH2 0x7CA9 JUMP JUMPDEST PUSH1 0x20 PUSH1 0x40 MLOAD DUP1 DUP4 SUB DUP2 DUP7 GAS STATICCALL ISZERO DUP1 ISZERO PUSH2 0x40F7 JUMPI RETURNDATASIZE PUSH1 0x0 DUP1 RETURNDATACOPY RETURNDATASIZE PUSH1 0x0 REVERT JUMPDEST POP POP POP POP PUSH1 0x40 MLOAD RETURNDATASIZE PUSH1 0x1F NOT PUSH1 0x1F DUP3 ADD AND DUP3 ADD DUP1 PUSH1 0x40 MSTORE POP DUP2 ADD SWAP1 PUSH2 0x411B SWAP2 SWAP1 PUSH2 0x8246 JUMP JUMPDEST DUP2 LT ISZERO PUSH2 0x45AC JUMPI PUSH1 0x0 PUSH1 0xC PUSH1 0x0 DUP8 DUP2 MSTORE PUSH1 0x20 ADD SWAP1 DUP2 MSTORE PUSH1 0x20 ADD PUSH1 0x0 KECCAK256 PUSH1 0x0 SWAP1 SLOAD SWAP1 PUSH2 0x100 EXP SWAP1 DIV PUSH20 0xFFFFFFFFFFFFFFFFFFFFFFFFFFFFFFFFFFFFFFFF AND PUSH20 0xFFFFFFFFFFFFFFFFFFFFFFFFFFFFFFFFFFFFFFFF AND PUSH4 0x2F745C59 DUP9 DUP5 PUSH1 0x40 MLOAD DUP4 PUSH4 0xFFFFFFFF AND PUSH1 0xE0 SHL DUP2 MSTORE PUSH1 0x4 ADD PUSH2 0x4192 SWAP3 SWAP2 SWAP1 PUSH2 0x85E8 JUMP JUMPDEST PUSH1 0x20 PUSH1 0x40 MLOAD DUP1 DUP4 SUB DUP2 DUP7 GAS STATICCALL ISZERO DUP1 ISZERO PUSH2 0x41AF JUMPI RETURNDATASIZE PUSH1 0x0 DUP1 RETURNDATACOPY RETURNDATASIZE PUSH1 0x0 REVERT JUMPDEST POP POP POP POP PUSH1 0x40 MLOAD RETURNDATASIZE PUSH1 0x1F NOT PUSH1 0x1F DUP3 ADD AND DUP3 ADD DUP1 PUSH1 0x40 MSTORE POP DUP2 ADD SWAP1 PUSH2 0x41D3 SWAP2 SWAP1 PUSH2 0x8246 JUMP JUMPDEST SWAP1 POP PUSH1 0xE PUSH1 0x0 DUP8 DUP2 MSTORE PUSH1 0x20 ADD SWAP1 DUP2 MSTORE PUSH1 0x20 ADD PUSH1 0x0 KECCAK256 PUSH1 0x0 DUP3 DUP2 MSTORE PUSH1 0x20 ADD SWAP1 DUP2 MSTORE PUSH1 0x20 ADD PUSH1 0x0 KECCAK256 PUSH1 0x0 ADD PUSH1 0x1F SWAP1 SLOAD SWAP1 PUSH2 0x100 EXP SWAP1 DIV PUSH1 0xFF AND ISZERO PUSH2 0x459A JUMPI PUSH1 0x0 PUSH1 0xE PUSH1 0x0 DUP9 DUP2 MSTORE PUSH1 0x20 ADD SWAP1 DUP2 MSTORE PUSH1 0x20 ADD PUSH1 0x0 KECCAK256 PUSH1 0x0 DUP4 DUP2 MSTORE PUSH1 0x20 ADD SWAP1 DUP2 MSTORE PUSH1 0x20 ADD PUSH1 0x0 KECCAK256 PUSH1 0x0 ADD PUSH1 0x0 SWAP1 SLOAD SWAP1 PUSH2 0x100 EXP SWAP1 DIV PUSH31 0xFFFFFFFFFFFFFFFFFFFFFFFFFFFFFFFFFFFFFFFFFFFFFFFFFFFFFFFFFFFFFF AND PUSH31 0xFFFFFFFFFFFFFFFFFFFFFFFFFFFFFFFFFFFFFFFFFFFFFFFFFFFFFFFFFFFFFF AND SWAP1 POP PUSH1 0x0 PUSH1 0xC PUSH1 0x0 PUSH1 0x3 DUP2 MSTORE PUSH1 0x20 ADD SWAP1 DUP2 MSTORE PUSH1 0x20 ADD PUSH1 0x0 KECCAK256 PUSH1 0x0 SWAP1 SLOAD SWAP1 PUSH2 0x100 EXP SWAP1 DIV PUSH20 0xFFFFFFFFFFFFFFFFFFFFFFFFFFFFFFFFFFFFFFFF AND PUSH20 0xFFFFFFFFFFFFFFFFFFFFFFFFFFFFFFFFFFFFFFFF AND PUSH4 0x6352211E DUP4 PUSH1 0x40 MLOAD DUP3 PUSH4 0xFFFFFFFF AND PUSH1 0xE0 SHL DUP2 MSTORE PUSH1 0x4 ADD PUSH2 0x42F6 SWAP2 SWAP1 PUSH2 0x7A1F JUMP JUMPDEST PUSH1 0x20 PUSH1 0x40 MLOAD DUP1 DUP4 SUB DUP2 DUP7 GAS STATICCALL ISZERO DUP1 ISZERO PUSH2 0x4313 JUMPI RETURNDATASIZE PUSH1 0x0 DUP1 RETURNDATACOPY RETURNDATASIZE PUSH1 0x0 REVERT JUMPDEST POP POP POP POP PUSH1 0x40 MLOAD RETURNDATASIZE PUSH1 0x1F NOT PUSH1 0x1F DUP3 ADD AND DUP3 ADD DUP1 PUSH1 0x40 MSTORE POP DUP2 ADD SWAP1 PUSH2 0x4337 SWAP2 SWAP1 PUSH2 0x8775 JUMP JUMPDEST SWAP1 POP DUP9 PUSH20 0xFFFFFFFFFFFFFFFFFFFFFFFFFFFFFFFFFFFFFFFF AND DUP2 PUSH20 0xFFFFFFFFFFFFFFFFFFFFFFFFFFFFFFFFFFFFFFFF AND EQ PUSH2 0x4597 JUMPI PUSH1 0x0 PUSH1 0xD PUSH1 0x0 PUSH1 0x3 DUP2 MSTORE PUSH1 0x20 ADD SWAP1 DUP2 MSTORE PUSH1 0x20 ADD PUSH1 0x0 KECCAK256 PUSH1 0x0 DUP5 DUP2 MSTORE PUSH1 0x20 ADD SWAP1 DUP2 MSTORE PUSH1 0x20 ADD PUSH1 0x0 KECCAK256 PUSH1 0x0 ADD SLOAD SWAP1 POP PUSH1 0x0 DUP1 DUP3 GT PUSH2 0x43A9 JUMPI PUSH1 0x0 PUSH2 0x4429 JUMP JUMPDEST ADDRESS PUSH20 0xFFFFFFFFFFFFFFFFFFFFFFFFFFFFFFFFFFFFFFFF AND PUSH4 0x2C018F91 PUSH1 0x3 DUP6 DUP8 PUSH1 0x40 MLOAD DUP5 PUSH4 0xFFFFFFFF AND PUSH1 0xE0 SHL DUP2 MSTORE PUSH1 0x4 ADD PUSH2 0x43E7 SWAP4 SWAP3 SWAP2 SWAP1 PUSH2 0x86B4 JUMP JUMPDEST PUSH1 0x20 PUSH1 0x40 MLOAD DUP1 DUP4 SUB DUP2 DUP7 GAS STATICCALL ISZERO DUP1 ISZERO PUSH2 0x4404 JUMPI RETURNDATASIZE PUSH1 0x0 DUP1 RETURNDATACOPY RETURNDATASIZE PUSH1 0x0 REVERT JUMPDEST POP POP POP POP PUSH1 0x40 MLOAD RETURNDATASIZE PUSH1 0x1F NOT PUSH1 0x1F DUP3 ADD AND DUP3 ADD DUP1 PUSH1 0x40 MSTORE POP DUP2 ADD SWAP1 PUSH2 0x4428 SWAP2 SWAP1 PUSH2 0x8246 JUMP JUMPDEST JUMPDEST SWAP1 POP PUSH1 0x0 DUP1 DUP4 GT PUSH2 0x443B JUMPI PUSH1 0x0 PUSH2 0x4448 JUMP JUMPDEST PUSH2 0x4447 PUSH1 0x3 DUP6 DUP8 PUSH2 0x6554 JUMP JUMPDEST JUMPDEST SWAP1 POP PUSH1 0x0 PUSH1 0x2 PUSH1 0x40 MLOAD DUP1 PUSH1 0x40 ADD PUSH1 0x40 MSTORE SWAP1 DUP2 PUSH1 0x0 DUP3 ADD SLOAD DUP2 MSTORE PUSH1 0x20 ADD PUSH1 0x1 DUP3 ADD SLOAD DUP2 MSTORE POP POP SWAP1 POP PUSH1 0xF PUSH1 0x0 DUP8 DUP2 MSTORE PUSH1 0x20 ADD SWAP1 DUP2 MSTORE PUSH1 0x20 ADD PUSH1 0x0 KECCAK256 PUSH1 0x0 DUP14 DUP2 MSTORE PUSH1 0x20 ADD SWAP1 DUP2 MSTORE PUSH1 0x20 ADD PUSH1 0x0 KECCAK256 PUSH1 0x0 ADD PUSH1 0x1F SWAP1 SLOAD SWAP1 PUSH2 0x100 EXP SWAP1 DIV PUSH1 0xFF AND ISZERO PUSH2 0x4534 JUMPI PUSH1 0x40 MLOAD DUP1 PUSH1 0x40 ADD PUSH1 0x40 MSTORE DUP1 PUSH1 0xF PUSH1 0x0 DUP10 DUP2 MSTORE PUSH1 0x20 ADD SWAP1 DUP2 MSTORE PUSH1 0x20 ADD PUSH1 0x0 KECCAK256 PUSH1 0x0 DUP16 DUP2 MSTORE PUSH1 0x20 ADD SWAP1 DUP2 MSTORE PUSH1 0x20 ADD PUSH1 0x0 KECCAK256 PUSH1 0x0 ADD PUSH1 0x0 SWAP1 SLOAD SWAP1 PUSH2 0x100 EXP SWAP1 DIV PUSH31 0xFFFFFFFFFFFFFFFFFFFFFFFFFFFFFFFFFFFFFFFFFFFFFFFFFFFFFFFFFFFFFF AND PUSH31 0xFFFFFFFFFFFFFFFFFFFFFFFFFFFFFFFFFFFFFFFFFFFFFFFFFFFFFFFFFFFFFF AND DUP2 MSTORE PUSH1 0x20 ADD DUP14 DUP2 MSTORE POP SWAP1 POP JUMPDEST PUSH1 0x0 PUSH1 0x40 MLOAD DUP1 PUSH1 0xC0 ADD PUSH1 0x40 MSTORE DUP1 PUSH1 0x3 DUP2 MSTORE PUSH1 0x20 ADD DUP9 DUP2 MSTORE PUSH1 0x20 ADD DUP7 DUP2 MSTORE PUSH1 0x20 ADD DUP6 DUP2 MSTORE PUSH1 0x20 ADD DUP5 DUP2 MSTORE PUSH1 0x20 ADD DUP4 DUP2 MSTORE POP SWAP1 POP DUP1 DUP12 DUP12 DUP2 MLOAD DUP2 LT PUSH2 0x457A JUMPI PUSH2 0x4579 PUSH2 0x81B9 JUMP JUMPDEST JUMPDEST PUSH1 0x20 MUL PUSH1 0x20 ADD ADD DUP2 SWAP1 MSTORE POP DUP10 PUSH2 0x458F SWAP1 PUSH2 0x81E8 JUMP JUMPDEST SWAP10 POP POP POP POP POP POP JUMPDEST POP POP JUMPDEST POP DUP1 PUSH2 0x45A5 SWAP1 PUSH2 0x81E8 JUMP JUMPDEST SWAP1 POP PUSH2 0x406E JUMP JUMPDEST POP DUP2 SWAP3 POP POP POP SWAP4 SWAP3 POP POP POP JUMP JUMPDEST PUSH2 0x45C2 DUP5 PUSH2 0x1545 JUMP JUMPDEST PUSH1 0x0 DUP1 PUSH1 0x0 DUP6 DUP6 SWAP1 POP SWAP1 POP PUSH1 0x0 JUMPDEST DUP2 DUP2 LT ISZERO PUSH2 0x4797 JUMPI DUP7 DUP7 DUP3 DUP2 DUP2 LT PUSH2 0x45EB JUMPI PUSH2 0x45EA PUSH2 0x81B9 JUMP JUMPDEST JUMPDEST SWAP1 POP PUSH1 0x20 MUL ADD CALLDATALOAD SWAP4 POP CALLER PUSH20 0xFFFFFFFFFFFFFFFFFFFFFFFFFFFFFFFFFFFFFFFF AND PUSH1 0xC PUSH1 0x0 DUP11 DUP2 MSTORE PUSH1 0x20 ADD SWAP1 DUP2 MSTORE PUSH1 0x20 ADD PUSH1 0x0 KECCAK256 PUSH1 0x0 SWAP1 SLOAD SWAP1 PUSH2 0x100 EXP SWAP1 DIV PUSH20 0xFFFFFFFFFFFFFFFFFFFFFFFFFFFFFFFFFFFFFFFF AND PUSH20 0xFFFFFFFFFFFFFFFFFFFFFFFFFFFFFFFFFFFFFFFF AND PUSH4 0x6352211E DUP7 PUSH1 0x40 MLOAD DUP3 PUSH4 0xFFFFFFFF AND PUSH1 0xE0 SHL DUP2 MSTORE PUSH1 0x4 ADD PUSH2 0x4677 SWAP2 SWAP1 PUSH2 0x7A1F JUMP JUMPDEST PUSH1 0x20 PUSH1 0x40 MLOAD DUP1 DUP4 SUB DUP2 DUP7 GAS STATICCALL ISZERO DUP1 ISZERO PUSH2 0x4694 JUMPI RETURNDATASIZE PUSH1 0x0 DUP1 RETURNDATACOPY RETURNDATASIZE PUSH1 0x0 REVERT JUMPDEST POP POP POP POP PUSH1 0x40 MLOAD RETURNDATASIZE PUSH1 0x1F NOT PUSH1 0x1F DUP3 ADD AND DUP3 ADD DUP1 PUSH1 0x40 MSTORE POP DUP2 ADD SWAP1 PUSH2 0x46B8 SWAP2 SWAP1 PUSH2 0x8775 JUMP JUMPDEST PUSH20 0xFFFFFFFFFFFFFFFFFFFFFFFFFFFFFFFFFFFFFFFF AND EQ PUSH2 0x4705 JUMPI PUSH1 0x40 MLOAD PUSH32 0x5CD8319200000000000000000000000000000000000000000000000000000000 DUP2 MSTORE PUSH1 0x4 ADD PUSH1 0x40 MLOAD DUP1 SWAP2 SUB SWAP1 REVERT JUMPDEST PUSH1 0x0 PUSH1 0xD PUSH1 0x0 DUP11 DUP2 MSTORE PUSH1 0x20 ADD SWAP1 DUP2 MSTORE PUSH1 0x20 ADD PUSH1 0x0 KECCAK256 PUSH1 0x0 DUP7 DUP2 MSTORE PUSH1 0x20 ADD SWAP1 DUP2 MSTORE PUSH1 0x20 ADD PUSH1 0x0 KECCAK256 SWAP1 POP PUSH2 0x4738 DUP10 DUP3 DUP9 PUSH2 0x5113 JUMP JUMPDEST SWAP4 POP DUP9 CALLER PUSH20 0xFFFFFFFFFFFFFFFFFFFFFFFFFFFFFFFFFFFFFFFF AND PUSH32 0xD334B3114FC25CBD72389FF9C361D5F8B0924E35FA237C65AC209A2CDCF4BA13 DUP7 DUP9 PUSH1 0x40 MLOAD PUSH2 0x4783 SWAP3 SWAP2 SWAP1 PUSH2 0x7FC5 JUMP JUMPDEST PUSH1 0x40 MLOAD DUP1 SWAP2 SUB SWAP1 LOG3 DUP2 PUSH1 0x1 ADD SWAP2 POP POP PUSH2 0x45D0 JUMP JUMPDEST POP POP POP POP POP POP POP POP JUMP JUMPDEST PUSH1 0x0 DUP1 PUSH2 0x47AC PUSH2 0x725A JUMP JUMPDEST PUSH1 0x0 DUP1 PUSH1 0x0 DUP1 DUP9 DUP9 SWAP1 POP SWAP1 POP PUSH1 0x0 JUMPDEST DUP2 DUP2 LT ISZERO PUSH2 0x5012 JUMPI DUP10 DUP10 DUP3 DUP2 DUP2 LT PUSH2 0x47D6 JUMPI PUSH2 0x47D5 PUSH2 0x81B9 JUMP JUMPDEST JUMPDEST SWAP1 POP PUSH1 0x80 MUL ADD DUP1 CALLDATASIZE SUB DUP2 ADD SWAP1 PUSH2 0x47EC SWAP2 SWAP1 PUSH2 0x8961 JUMP JUMPDEST SWAP6 POP PUSH1 0xC PUSH1 0x0 DUP13 DUP2 MSTORE PUSH1 0x20 ADD SWAP1 DUP2 MSTORE PUSH1 0x20 ADD PUSH1 0x0 KECCAK256 PUSH1 0x0 SWAP1 SLOAD SWAP1 PUSH2 0x100 EXP SWAP1 DIV PUSH20 0xFFFFFFFFFFFFFFFFFFFFFFFFFFFFFFFFFFFFFFFF AND PUSH20 0xFFFFFFFFFFFFFFFFFFFFFFFFFFFFFFFFFFFFFFFF AND PUSH4 0x6352211E DUP8 PUSH1 0x0 ADD MLOAD PUSH1 0x40 MLOAD DUP3 PUSH4 0xFFFFFFFF AND PUSH1 0xE0 SHL DUP2 MSTORE PUSH1 0x4 ADD PUSH2 0x485E SWAP2 SWAP1 PUSH2 0x89BF JUMP JUMPDEST PUSH1 0x20 PUSH1 0x40 MLOAD DUP1 DUP4 SUB DUP2 DUP7 GAS STATICCALL ISZERO DUP1 ISZERO PUSH2 0x487B JUMPI RETURNDATASIZE PUSH1 0x0 DUP1 RETURNDATACOPY RETURNDATASIZE PUSH1 0x0 REVERT JUMPDEST POP POP POP POP PUSH1 0x40 MLOAD RETURNDATASIZE PUSH1 0x1F NOT PUSH1 0x1F DUP3 ADD AND DUP3 ADD DUP1 PUSH1 0x40 MSTORE POP DUP2 ADD SWAP1 PUSH2 0x489F SWAP2 SWAP1 PUSH2 0x8775 JUMP JUMPDEST SWAP8 POP PUSH1 0xC PUSH1 0x0 PUSH1 0x3 DUP2 MSTORE PUSH1 0x20 ADD SWAP1 DUP2 MSTORE PUSH1 0x20 ADD PUSH1 0x0 KECCAK256 PUSH1 0x0 SWAP1 SLOAD SWAP1 PUSH2 0x100 EXP SWAP1 DIV PUSH20 0xFFFFFFFFFFFFFFFFFFFFFFFFFFFFFFFFFFFFFFFF AND PUSH20 0xFFFFFFFFFFFFFFFFFFFFFFFFFFFFFFFFFFFFFFFF AND PUSH4 0x6352211E DUP8 PUSH1 0x20 ADD MLOAD PUSH1 0x40 MLOAD DUP3 PUSH4 0xFFFFFFFF AND PUSH1 0xE0 SHL DUP2 MSTORE PUSH1 0x4 ADD PUSH2 0x4912 SWAP2 SWAP1 PUSH2 0x89BF JUMP JUMPDEST PUSH1 0x20 PUSH1 0x40 MLOAD DUP1 DUP4 SUB DUP2 DUP7 GAS STATICCALL ISZERO DUP1 ISZERO PUSH2 0x492F JUMPI RETURNDATASIZE PUSH1 0x0 DUP1 RETURNDATACOPY RETURNDATASIZE PUSH1 0x0 REVERT JUMPDEST POP POP POP POP PUSH1 0x40 MLOAD RETURNDATASIZE PUSH1 0x1F NOT PUSH1 0x1F DUP3 ADD AND DUP3 ADD DUP1 PUSH1 0x40 MSTORE POP DUP2 ADD SWAP1 PUSH2 0x4953 SWAP2 SWAP1 PUSH2 0x8775 JUMP JUMPDEST SWAP7 POP CALLER PUSH20 0xFFFFFFFFFFFFFFFFFFFFFFFFFFFFFFFFFFFFFFFF AND DUP9 PUSH20 0xFFFFFFFFFFFFFFFFFFFFFFFFFFFFFFFFFFFFFFFF AND EQ PUSH2 0x49EE JUMPI CALLER PUSH20 0xFFFFFFFFFFFFFFFFFFFFFFFFFFFFFFFFFFFFFFFF AND DUP8 PUSH20 0xFFFFFFFFFFFFFFFFFFFFFFFFFFFFFFFFFFFFFFFF AND EQ PUSH2 0x49ED JUMPI PUSH1 0x40 MLOAD PUSH32 0x4A2F386500000000000000000000000000000000000000000000000000000000 DUP2 MSTORE PUSH1 0x4 ADD PUSH1 0x40 MLOAD DUP1 SWAP2 SUB SWAP1 REVERT JUMPDEST JUMPDEST PUSH1 0xE PUSH1 0x0 DUP13 DUP2 MSTORE PUSH1 0x20 ADD SWAP1 DUP2 MSTORE PUSH1 0x20 ADD PUSH1 0x0 KECCAK256 PUSH1 0x0 DUP8 PUSH1 0x0 ADD MLOAD PUSH4 0xFFFFFFFF AND DUP2 MSTORE PUSH1 0x20 ADD SWAP1 DUP2 MSTORE PUSH1 0x20 ADD PUSH1 0x0 KECCAK256 SWAP5 POP PUSH1 0xF PUSH1 0x0 DUP8 PUSH1 0x20 ADD MLOAD PUSH4 0xFFFFFFFF AND DUP2 MSTORE PUSH1 0x20 ADD SWAP1 DUP2 MSTORE PUSH1 0x20 ADD PUSH1 0x0 KECCAK256 PUSH1 0x0 DUP13 DUP2 MSTORE PUSH1 0x20 ADD SWAP1 DUP2 MSTORE PUSH1 0x20 ADD PUSH1 0x0 KECCAK256 SWAP4 POP DUP6 PUSH1 0x20 ADD MLOAD PUSH4 0xFFFFFFFF AND DUP6 PUSH1 0x0 ADD PUSH1 0x0 SWAP1 SLOAD SWAP1 PUSH2 0x100 EXP SWAP1 DIV PUSH31 0xFFFFFFFFFFFFFFFFFFFFFFFFFFFFFFFFFFFFFFFFFFFFFFFFFFFFFFFFFFFFFF AND PUSH31 0xFFFFFFFFFFFFFFFFFFFFFFFFFFFFFFFFFFFFFFFFFFFFFFFFFFFFFFFFFFFFFF AND EQ ISZERO DUP1 PUSH2 0x4AC6 JUMPI POP DUP5 PUSH1 0x0 ADD PUSH1 0x1F SWAP1 SLOAD SWAP1 PUSH2 0x100 EXP SWAP1 DIV PUSH1 0xFF AND ISZERO JUMPDEST DUP1 PUSH2 0x4B2B JUMPI POP DUP6 PUSH1 0x0 ADD MLOAD PUSH4 0xFFFFFFFF AND DUP5 PUSH1 0x0 ADD PUSH1 0x0 SWAP1 SLOAD SWAP1 PUSH2 0x100 EXP SWAP1 DIV PUSH31 0xFFFFFFFFFFFFFFFFFFFFFFFFFFFFFFFFFFFFFFFFFFFFFFFFFFFFFFFFFFFFFF AND PUSH31 0xFFFFFFFFFFFFFFFFFFFFFFFFFFFFFFFFFFFFFFFFFFFFFFFFFFFFFFFFFFFFFF AND EQ ISZERO JUMPDEST DUP1 PUSH2 0x4B45 JUMPI POP DUP4 PUSH1 0x0 ADD PUSH1 0x1F SWAP1 SLOAD SWAP1 PUSH2 0x100 EXP SWAP1 DIV PUSH1 0xFF AND ISZERO JUMPDEST ISZERO PUSH2 0x4B7C JUMPI PUSH1 0x40 MLOAD PUSH32 0xCCC819DA00000000000000000000000000000000000000000000000000000000 DUP2 MSTORE PUSH1 0x4 ADD PUSH1 0x40 MLOAD DUP1 SWAP2 SUB SWAP1 REVERT JUMPDEST PUSH1 0xD PUSH1 0x0 PUSH1 0x3 DUP2 MSTORE PUSH1 0x20 ADD SWAP1 DUP2 MSTORE PUSH1 0x20 ADD PUSH1 0x0 KECCAK256 PUSH1 0x0 DUP8 PUSH1 0x20 ADD MLOAD PUSH4 0xFFFFFFFF AND DUP2 MSTORE PUSH1 0x20 ADD SWAP1 DUP2 MSTORE PUSH1 0x20 ADD PUSH1 0x0 KECCAK256 SWAP3 POP DUP6 PUSH1 0x60 ADD MLOAD PUSH2 0x4C12 JUMPI DUP3 PUSH1 0x0 ADD SLOAD DUP7 PUSH1 0x40 ADD MLOAD PUSH23 0xFFFFFFFFFFFFFFFFFFFFFFFFFFFFFFFFFFFFFFFFFFFFFF AND EQ ISZERO PUSH2 0x4C11 JUMPI PUSH1 0x40 MLOAD PUSH32 0x4614CB0200000000000000000000000000000000000000000000000000000000 DUP2 MSTORE PUSH1 0x4 ADD PUSH1 0x40 MLOAD DUP1 SWAP2 SUB SWAP1 REVERT JUMPDEST JUMPDEST DUP7 PUSH20 0xFFFFFFFFFFFFFFFFFFFFFFFFFFFFFFFFFFFFFFFF AND DUP9 PUSH20 0xFFFFFFFFFFFFFFFFFFFFFFFFFFFFFFFFFFFFFFFF AND EQ PUSH2 0x4C81 JUMPI DUP6 PUSH1 0x60 ADD MLOAD PUSH2 0x4C80 JUMPI PUSH1 0x40 MLOAD PUSH32 0xE373A08500000000000000000000000000000000000000000000000000000000 DUP2 MSTORE PUSH1 0x4 ADD PUSH1 0x40 MLOAD DUP1 SWAP2 SUB SWAP1 REVERT JUMPDEST JUMPDEST DUP6 PUSH1 0x60 ADD MLOAD ISZERO PUSH2 0x4EC9 JUMPI PUSH1 0x0 PUSH2 0x4C99 PUSH1 0x3 DUP6 DUP11 PUSH2 0x5113 JUMP JUMPDEST SWAP1 POP PUSH1 0x40 MLOAD DUP1 PUSH1 0x40 ADD PUSH1 0x40 MSTORE DUP1 PUSH1 0x0 PUSH31 0xFFFFFFFFFFFFFFFFFFFFFFFFFFFFFFFFFFFFFFFFFFFFFFFFFFFFFFFFFFFFFF AND DUP2 MSTORE PUSH1 0x20 ADD PUSH1 0x0 ISZERO ISZERO DUP2 MSTORE POP PUSH1 0xE PUSH1 0x0 DUP15 DUP2 MSTORE PUSH1 0x20 ADD SWAP1 DUP2 MSTORE PUSH1 0x20 ADD PUSH1 0x0 KECCAK256 PUSH1 0x0 DUP10 PUSH1 0x0 ADD MLOAD PUSH4 0xFFFFFFFF AND DUP2 MSTORE PUSH1 0x20 ADD SWAP1 DUP2 MSTORE PUSH1 0x20 ADD PUSH1 0x0 KECCAK256 PUSH1 0x0 DUP3 ADD MLOAD DUP2 PUSH1 0x0 ADD PUSH1 0x0 PUSH2 0x100 EXP DUP2 SLOAD DUP2 PUSH31 0xFFFFFFFFFFFFFFFFFFFFFFFFFFFFFFFFFFFFFFFFFFFFFFFFFFFFFFFFFFFFFF MUL NOT AND SWAP1 DUP4 PUSH31 0xFFFFFFFFFFFFFFFFFFFFFFFFFFFFFFFFFFFFFFFFFFFFFFFFFFFFFFFFFFFFFF AND MUL OR SWAP1 SSTORE POP PUSH1 0x20 DUP3 ADD MLOAD DUP2 PUSH1 0x0 ADD PUSH1 0x1F PUSH2 0x100 EXP DUP2 SLOAD DUP2 PUSH1 0xFF MUL NOT AND SWAP1 DUP4 ISZERO ISZERO MUL OR SWAP1 SSTORE POP SWAP1 POP POP PUSH1 0x40 MLOAD DUP1 PUSH1 0x40 ADD PUSH1 0x40 MSTORE DUP1 PUSH1 0x0 PUSH31 0xFFFFFFFFFFFFFFFFFFFFFFFFFFFFFFFFFFFFFFFFFFFFFFFFFFFFFFFFFFFFFF AND DUP2 MSTORE PUSH1 0x20 ADD PUSH1 0x0 ISZERO ISZERO DUP2 MSTORE POP PUSH1 0xF PUSH1 0x0 DUP10 PUSH1 0x20 ADD MLOAD PUSH4 0xFFFFFFFF AND DUP2 MSTORE PUSH1 0x20 ADD SWAP1 DUP2 MSTORE PUSH1 0x20 ADD PUSH1 0x0 KECCAK256 PUSH1 0x0 DUP15 DUP2 MSTORE PUSH1 0x20 ADD SWAP1 DUP2 MSTORE PUSH1 0x20 ADD PUSH1 0x0 KECCAK256 PUSH1 0x0 DUP3 ADD MLOAD DUP2 PUSH1 0x0 ADD PUSH1 0x0 PUSH2 0x100 EXP DUP2 SLOAD DUP2 PUSH31 0xFFFFFFFFFFFFFFFFFFFFFFFFFFFFFFFFFFFFFFFFFFFFFFFFFFFFFFFFFFFFFF MUL NOT AND SWAP1 DUP4 PUSH31 0xFFFFFFFFFFFFFFFFFFFFFFFFFFFFFFFFFFFFFFFFFFFFFFFFFFFFFFFFFFFFFF AND MUL OR SWAP1 SSTORE POP PUSH1 0x20 DUP3 ADD MLOAD DUP2 PUSH1 0x0 ADD PUSH1 0x1F PUSH2 0x100 EXP DUP2 SLOAD DUP2 PUSH1 0xFF MUL NOT AND SWAP1 DUP4 ISZERO ISZERO MUL OR SWAP1 SSTORE POP SWAP1 POP POP CALLER PUSH20 0xFFFFFFFFFFFFFFFFFFFFFFFFFFFFFFFFFFFFFFFF AND PUSH32 0x89D57E873AF45054D40B801CA64CA06A1627C5682AB9BE494A9F2846EF157D8A DUP3 DUP15 DUP11 PUSH1 0x0 ADD MLOAD DUP12 PUSH1 0x20 ADD MLOAD PUSH1 0x40 MLOAD PUSH2 0x4EBF SWAP5 SWAP4 SWAP3 SWAP2 SWAP1 PUSH2 0x89DA JUMP JUMPDEST PUSH1 0x40 MLOAD DUP1 SWAP2 SUB SWAP1 LOG2 POP JUMPDEST PUSH1 0x0 DUP7 PUSH1 0x60 ADD MLOAD PUSH2 0x4EF7 JUMPI DUP7 PUSH1 0x40 ADD MLOAD PUSH23 0xFFFFFFFFFFFFFFFFFFFFFFFFFFFFFFFFFFFFFFFFFFFFFF AND PUSH2 0x4EFD JUMP JUMPDEST DUP4 PUSH1 0x0 ADD SLOAD JUMPDEST SWAP1 POP PUSH2 0x4F0B PUSH1 0x3 DUP6 DUP4 PUSH2 0x6877 JUMP JUMPDEST PUSH32 0x0 PUSH20 0xFFFFFFFFFFFFFFFFFFFFFFFFFFFFFFFFFFFFFFFF AND PUSH4 0xA9059CBB DUP11 DUP4 PUSH1 0x40 MLOAD DUP4 PUSH4 0xFFFFFFFF AND PUSH1 0xE0 SHL DUP2 MSTORE PUSH1 0x4 ADD PUSH2 0x4F66 SWAP3 SWAP2 SWAP1 PUSH2 0x85E8 JUMP JUMPDEST PUSH1 0x20 PUSH1 0x40 MLOAD DUP1 DUP4 SUB DUP2 PUSH1 0x0 DUP8 GAS CALL ISZERO DUP1 ISZERO PUSH2 0x4F85 JUMPI RETURNDATASIZE PUSH1 0x0 DUP1 RETURNDATACOPY RETURNDATASIZE PUSH1 0x0 REVERT JUMPDEST POP POP POP POP PUSH1 0x40 MLOAD RETURNDATASIZE PUSH1 0x1F NOT PUSH1 0x1F DUP3 ADD AND DUP3 ADD DUP1 PUSH1 0x40 MSTORE POP DUP2 ADD SWAP1 PUSH2 0x4FA9 SWAP2 SWAP1 PUSH2 0x851A JUMP JUMPDEST POP CALLER PUSH20 0xFFFFFFFFFFFFFFFFFFFFFFFFFFFFFFFFFFFFFFFF AND PUSH32 0x63A13470C4507D4F2C9D1BAD1B7D603229456F8EBE7D3048D5CD8A02CF8D1EE6 DUP3 DUP15 DUP11 PUSH1 0x0 ADD MLOAD DUP12 PUSH1 0x20 ADD MLOAD PUSH1 0x40 MLOAD PUSH2 0x4FFE SWAP5 SWAP4 SWAP3 SWAP2 SWAP1 PUSH2 0x89DA JUMP JUMPDEST PUSH1 0x40 MLOAD DUP1 SWAP2 SUB SWAP1 LOG2 DUP2 PUSH1 0x1 ADD SWAP2 POP POP PUSH2 0x47BB JUMP JUMPDEST POP POP POP POP POP POP POP POP POP POP POP JUMP JUMPDEST PUSH1 0x0 PUSH2 0x502A TIMESTAMP PUSH2 0x5C56 JUMP JUMPDEST PUSH1 0x3C PUSH2 0x5035 TIMESTAMP PUSH2 0x5C2E JUMP JUMPDEST PUSH2 0x503F SWAP2 SWAP1 PUSH2 0x8273 JUMP JUMPDEST PUSH2 0x5049 SWAP2 SWAP1 PUSH2 0x8134 JUMP JUMPDEST TIMESTAMP PUSH2 0x5054 SWAP2 SWAP1 PUSH2 0x83EA JUMP JUMPDEST SWAP1 POP SWAP1 JUMP JUMPDEST PUSH1 0x0 PUSH32 0x7FFFFFFFFFFFFFFFFFFFFFFFFFFFFFFFFFFFFFFFFFFFFFFFFFFFFFFFFFFFFFFF DUP3 GT ISZERO PUSH2 0x50BE JUMPI PUSH1 0x40 MLOAD PUSH32 0x8C379A000000000000000000000000000000000000000000000000000000000 DUP2 MSTORE PUSH1 0x4 ADD PUSH2 0x50B5 SWAP1 PUSH2 0x8A91 JUMP JUMPDEST PUSH1 0x40 MLOAD DUP1 SWAP2 SUB SWAP1 REVERT JUMPDEST DUP2 SWAP1 POP SWAP2 SWAP1 POP JUMP JUMPDEST PUSH1 0x0 DUP1 DUP3 SLT ISZERO PUSH2 0x510B JUMPI PUSH1 0x40 MLOAD PUSH32 0x8C379A000000000000000000000000000000000000000000000000000000000 DUP2 MSTORE PUSH1 0x4 ADD PUSH2 0x5102 SWAP1 PUSH2 0x8AFD JUMP JUMPDEST PUSH1 0x40 MLOAD DUP1 SWAP2 SUB SWAP1 REVERT JUMPDEST DUP2 SWAP1 POP SWAP2 SWAP1 POP JUMP JUMPDEST PUSH1 0x0 DUP1 PUSH1 0x4 DUP6 PUSH1 0x4 DUP2 LT PUSH2 0x512A JUMPI PUSH2 0x5129 PUSH2 0x81B9 JUMP JUMPDEST JUMPDEST PUSH1 0x2 MUL ADD SWAP1 POP PUSH1 0x0 PUSH2 0x5174 DUP3 PUSH1 0x0 ADD PUSH1 0x14 SWAP1 SLOAD SWAP1 PUSH2 0x100 EXP SWAP1 DIV PUSH12 0xFFFFFFFFFFFFFFFFFFFFFFFF AND PUSH12 0xFFFFFFFFFFFFFFFFFFFFFFFF AND DUP7 PUSH1 0x0 ADD SLOAD PUSH2 0x516F SWAP2 SWAP1 PUSH2 0x8273 JUMP JUMPDEST PUSH2 0x5059 JUMP JUMPDEST SWAP1 POP PUSH8 0xDE0B6B3A7640000 PUSH2 0x5197 DUP7 PUSH1 0x1 ADD SLOAD DUP4 PUSH2 0x5192 SWAP2 SWAP1 PUSH2 0x832D JUMP JUMPDEST PUSH2 0x50C6 JUMP JUMPDEST PUSH2 0x51A1 SWAP2 SWAP1 PUSH2 0x82FC JUMP JUMPDEST SWAP3 POP DUP1 DUP6 PUSH1 0x1 ADD DUP2 SWAP1 SSTORE POP PUSH1 0x0 DUP4 EQ PUSH2 0x5254 JUMPI PUSH32 0x0 PUSH20 0xFFFFFFFFFFFFFFFFFFFFFFFFFFFFFFFFFFFFFFFF AND PUSH4 0xA9059CBB DUP6 DUP6 PUSH1 0x40 MLOAD DUP4 PUSH4 0xFFFFFFFF AND PUSH1 0xE0 SHL DUP2 MSTORE PUSH1 0x4 ADD PUSH2 0x520F SWAP3 SWAP2 SWAP1 PUSH2 0x85E8 JUMP JUMPDEST PUSH1 0x20 PUSH1 0x40 MLOAD DUP1 DUP4 SUB DUP2 PUSH1 0x0 DUP8 GAS CALL ISZERO DUP1 ISZERO PUSH2 0x522E JUMPI RETURNDATASIZE PUSH1 0x0 DUP1 RETURNDATACOPY RETURNDATASIZE PUSH1 0x0 REVERT JUMPDEST POP POP POP POP PUSH1 0x40 MLOAD RETURNDATASIZE PUSH1 0x1F NOT PUSH1 0x1F DUP3 ADD AND DUP3 ADD DUP1 PUSH1 0x40 MSTORE POP DUP2 ADD SWAP1 PUSH2 0x5252 SWAP2 SWAP1 PUSH2 0x851A JUMP JUMPDEST POP JUMPDEST POP POP SWAP4 SWAP3 POP POP POP JUMP JUMPDEST PUSH2 0x5266 DUP4 PUSH2 0x1545 JUMP JUMPDEST PUSH1 0x0 DUP1 PUSH1 0x0 DUP1 DUP6 DUP6 SWAP1 POP SWAP1 POP PUSH1 0x0 DUP1 JUMPDEST DUP3 DUP2 LT ISZERO PUSH2 0x54B6 JUMPI DUP8 DUP8 DUP3 DUP2 DUP2 LT PUSH2 0x5291 JUMPI PUSH2 0x5290 PUSH2 0x81B9 JUMP JUMPDEST JUMPDEST SWAP1 POP PUSH1 0x40 MUL ADD PUSH1 0x0 ADD PUSH1 0x20 DUP2 ADD SWAP1 PUSH2 0x52A9 SWAP2 SWAP1 PUSH2 0x8B1D JUMP JUMPDEST PUSH4 0xFFFFFFFF AND SWAP6 POP PUSH1 0xD PUSH1 0x0 DUP11 DUP2 MSTORE PUSH1 0x20 ADD SWAP1 DUP2 MSTORE PUSH1 0x20 ADD PUSH1 0x0 KECCAK256 PUSH1 0x0 DUP8 DUP2 MSTORE PUSH1 0x20 ADD SWAP1 DUP2 MSTORE PUSH1 0x20 ADD PUSH1 0x0 KECCAK256 SWAP4 POP PUSH1 0x0 DUP5 PUSH1 0x0 ADD SLOAD EQ ISZERO PUSH2 0x53F6 JUMPI CALLER PUSH20 0xFFFFFFFFFFFFFFFFFFFFFFFFFFFFFFFFFFFFFFFF AND PUSH1 0xC PUSH1 0x0 DUP12 DUP2 MSTORE PUSH1 0x20 ADD SWAP1 DUP2 MSTORE PUSH1 0x20 ADD PUSH1 0x0 KECCAK256 PUSH1 0x0 SWAP1 SLOAD SWAP1 PUSH2 0x100 EXP SWAP1 DIV PUSH20 0xFFFFFFFFFFFFFFFFFFFFFFFFFFFFFFFFFFFFFFFF AND PUSH20 0xFFFFFFFFFFFFFFFFFFFFFFFFFFFFFFFFFFFFFFFF AND PUSH4 0x6352211E DUP9 PUSH1 0x40 MLOAD DUP3 PUSH4 0xFFFFFFFF AND PUSH1 0xE0 SHL DUP2 MSTORE PUSH1 0x4 ADD PUSH2 0x5367 SWAP2 SWAP1 PUSH2 0x7A1F JUMP JUMPDEST PUSH1 0x20 PUSH1 0x40 MLOAD DUP1 DUP4 SUB DUP2 DUP7 GAS STATICCALL ISZERO DUP1 ISZERO PUSH2 0x5384 JUMPI RETURNDATASIZE PUSH1 0x0 DUP1 RETURNDATACOPY RETURNDATASIZE PUSH1 0x0 REVERT JUMPDEST POP POP POP POP PUSH1 0x40 MLOAD RETURNDATASIZE PUSH1 0x1F NOT PUSH1 0x1F DUP3 ADD AND DUP3 ADD DUP1 PUSH1 0x40 MSTORE POP DUP2 ADD SWAP1 PUSH2 0x53A8 SWAP2 SWAP1 PUSH2 0x8775 JUMP JUMPDEST PUSH20 0xFFFFFFFFFFFFFFFFFFFFFFFFFFFFFFFFFFFFFFFF AND EQ PUSH2 0x53F5 JUMPI PUSH1 0x40 MLOAD PUSH32 0x5CD8319200000000000000000000000000000000000000000000000000000000 DUP2 MSTORE PUSH1 0x4 ADD PUSH1 0x40 MLOAD DUP1 SWAP2 SUB SWAP1 REVERT JUMPDEST JUMPDEST DUP8 DUP8 DUP3 DUP2 DUP2 LT PUSH2 0x5409 JUMPI PUSH2 0x5408 PUSH2 0x81B9 JUMP JUMPDEST JUMPDEST SWAP1 POP PUSH1 0x40 MUL ADD PUSH1 0x20 ADD PUSH1 0x20 DUP2 ADD SWAP1 PUSH2 0x5421 SWAP2 SWAP1 PUSH2 0x8B9E JUMP JUMPDEST PUSH28 0xFFFFFFFFFFFFFFFFFFFFFFFFFFFFFFFFFFFFFFFFFFFFFFFFFFFFFFFF AND SWAP5 POP PUSH2 0x544C DUP10 DUP6 DUP8 PUSH2 0x7063 JUMP JUMPDEST DUP5 DUP3 PUSH2 0x5458 SWAP2 SWAP1 PUSH2 0x8134 JUMP JUMPDEST SWAP2 POP DUP9 CALLER PUSH20 0xFFFFFFFFFFFFFFFFFFFFFFFFFFFFFFFFFFFFFFFF AND PUSH32 0x8863BDBE28273FA04CBC67C9E51785CFF607A419B43EE367E4C3C01EDB1D7B56 DUP8 DUP10 PUSH1 0x40 MLOAD PUSH2 0x54A3 SWAP3 SWAP2 SWAP1 PUSH2 0x7FC5 JUMP JUMPDEST PUSH1 0x40 MLOAD DUP1 SWAP2 SUB SWAP1 LOG3 DUP1 PUSH1 0x1 ADD SWAP1 POP PUSH2 0x5276 JUMP JUMPDEST POP PUSH1 0x0 DUP2 GT ISZERO PUSH2 0x5562 JUMPI PUSH32 0x0 PUSH20 0xFFFFFFFFFFFFFFFFFFFFFFFFFFFFFFFFFFFFFFFF AND PUSH4 0x23B872DD CALLER ADDRESS DUP5 PUSH1 0x40 MLOAD DUP5 PUSH4 0xFFFFFFFF AND PUSH1 0xE0 SHL DUP2 MSTORE PUSH1 0x4 ADD PUSH2 0x551D SWAP4 SWAP3 SWAP2 SWAP1 PUSH2 0x84B7 JUMP JUMPDEST PUSH1 0x20 PUSH1 0x40 MLOAD DUP1 DUP4 SUB DUP2 PUSH1 0x0 DUP8 GAS CALL ISZERO DUP1 ISZERO PUSH2 0x553C JUMPI RETURNDATASIZE PUSH1 0x0 DUP1 RETURNDATACOPY RETURNDATASIZE PUSH1 0x0 REVERT JUMPDEST POP POP POP POP PUSH1 0x40 MLOAD RETURNDATASIZE PUSH1 0x1F NOT PUSH1 0x1F DUP3 ADD AND DUP3 ADD DUP1 PUSH1 0x40 MSTORE POP DUP2 ADD SWAP1 PUSH2 0x5560 SWAP2 SWAP1 PUSH2 0x851A JUMP JUMPDEST POP JUMPDEST POP POP POP POP POP POP POP POP JUMP JUMPDEST PUSH1 0x0 PUSH6 0xFFFFFFFFFFFF DUP1 AND DUP3 GT ISZERO PUSH2 0x55B9 JUMPI PUSH1 0x40 MLOAD PUSH32 0x8C379A000000000000000000000000000000000000000000000000000000000 DUP2 MSTORE PUSH1 0x4 ADD PUSH2 0x55B0 SWAP1 PUSH2 0x8C3D JUMP JUMPDEST PUSH1 0x40 MLOAD DUP1 SWAP2 SUB SWAP1 REVERT JUMPDEST DUP2 SWAP1 POP SWAP2 SWAP1 POP JUMP JUMPDEST PUSH1 0x0 PUSH2 0xFFFF DUP1 AND DUP3 GT ISZERO PUSH2 0x560A JUMPI PUSH1 0x40 MLOAD PUSH32 0x8C379A000000000000000000000000000000000000000000000000000000000 DUP2 MSTORE PUSH1 0x4 ADD PUSH2 0x5601 SWAP1 PUSH2 0x8CCF JUMP JUMPDEST PUSH1 0x40 MLOAD DUP1 SWAP2 SUB SWAP1 REVERT JUMPDEST DUP2 SWAP1 POP SWAP2 SWAP1 POP JUMP JUMPDEST PUSH1 0x0 PUSH12 0xFFFFFFFFFFFFFFFFFFFFFFFF DUP1 AND DUP3 GT ISZERO PUSH2 0x5665 JUMPI PUSH1 0x40 MLOAD PUSH32 0x8C379A000000000000000000000000000000000000000000000000000000000 DUP2 MSTORE PUSH1 0x4 ADD PUSH2 0x565C SWAP1 PUSH2 0x8D61 JUMP JUMPDEST PUSH1 0x40 MLOAD DUP1 SWAP2 SUB SWAP1 REVERT JUMPDEST DUP2 SWAP1 POP SWAP2 SWAP1 POP JUMP JUMPDEST PUSH2 0x5675 PUSH2 0x719B JUMP JUMPDEST PUSH20 0xFFFFFFFFFFFFFFFFFFFFFFFFFFFFFFFFFFFFFFFF AND PUSH2 0x5693 PUSH2 0x2315 JUMP JUMPDEST PUSH20 0xFFFFFFFFFFFFFFFFFFFFFFFFFFFFFFFFFFFFFFFF AND EQ PUSH2 0x56E9 JUMPI PUSH1 0x40 MLOAD PUSH32 0x8C379A000000000000000000000000000000000000000000000000000000000 DUP2 MSTORE PUSH1 0x4 ADD PUSH2 0x56E0 SWAP1 PUSH2 0x8DCD JUMP JUMPDEST PUSH1 0x40 MLOAD DUP1 SWAP2 SUB SWAP1 REVERT JUMPDEST JUMP JUMPDEST PUSH1 0x0 DUP1 PUSH1 0x0 SWAP1 SLOAD SWAP1 PUSH2 0x100 EXP SWAP1 DIV PUSH20 0xFFFFFFFFFFFFFFFFFFFFFFFFFFFFFFFFFFFFFFFF AND SWAP1 POP DUP2 PUSH1 0x0 DUP1 PUSH2 0x100 EXP DUP2 SLOAD DUP2 PUSH20 0xFFFFFFFFFFFFFFFFFFFFFFFFFFFFFFFFFFFFFFFF MUL NOT AND SWAP1 DUP4 PUSH20 0xFFFFFFFFFFFFFFFFFFFFFFFFFFFFFFFFFFFFFFFF AND MUL OR SWAP1 SSTORE POP DUP2 PUSH20 0xFFFFFFFFFFFFFFFFFFFFFFFFFFFFFFFFFFFFFFFF AND DUP2 PUSH20 0xFFFFFFFFFFFFFFFFFFFFFFFFFFFFFFFFFFFFFFFF AND PUSH32 0x8BE0079C531659141344CD1FD0A4F28419497F9722A3DAAFE3B4186F6B6457E0 PUSH1 0x40 MLOAD PUSH1 0x40 MLOAD DUP1 SWAP2 SUB SWAP1 LOG3 POP POP JUMP JUMPDEST PUSH1 0x0 DUP1 DUP3 PUSH1 0x20 ADD MLOAD PUSH2 0xFFFF AND SWAP1 POP DUP3 PUSH1 0x80 ADD MLOAD DUP2 DUP2 MLOAD DUP2 LT PUSH2 0x57D4 JUMPI PUSH2 0x57D3 PUSH2 0x81B9 JUMP JUMPDEST JUMPDEST PUSH1 0x20 MUL PUSH1 0x20 ADD ADD MLOAD PUSH1 0x0 ADD MLOAD PUSH6 0xFFFFFFFFFFFF AND TIMESTAMP LT ISZERO PUSH2 0x57F8 JUMPI DUP1 SWAP2 POP POP PUSH2 0x58B8 JUMP JUMPDEST DUP3 PUSH1 0x20 ADD MLOAD PUSH2 0xFFFF AND SWAP1 POP JUMPDEST DUP3 PUSH1 0x80 ADD MLOAD MLOAD DUP2 LT ISZERO PUSH2 0x587D JUMPI PUSH1 0x0 DUP4 PUSH1 0x80 ADD MLOAD DUP3 DUP2 MLOAD DUP2 LT PUSH2 0x582A JUMPI PUSH2 0x5829 PUSH2 0x81B9 JUMP JUMPDEST JUMPDEST PUSH1 0x20 MUL PUSH1 0x20 ADD ADD MLOAD SWAP1 POP TIMESTAMP DUP2 PUSH1 0x0 ADD MLOAD PUSH6 0xFFFFFFFFFFFF AND GT ISZERO DUP1 ISZERO PUSH2 0x585C JUMPI POP DUP1 PUSH1 0x20 ADD MLOAD PUSH6 0xFFFFFFFFFFFF AND TIMESTAMP GT ISZERO JUMPDEST ISZERO PUSH2 0x586B JUMPI DUP2 SWAP3 POP POP POP PUSH2 0x58B8 JUMP JUMPDEST POP DUP1 PUSH2 0x5876 SWAP1 PUSH2 0x81E8 JUMP JUMPDEST SWAP1 POP PUSH2 0x5804 JUMP JUMPDEST PUSH1 0x40 MLOAD PUSH32 0x8C379A000000000000000000000000000000000000000000000000000000000 DUP2 MSTORE PUSH1 0x4 ADD PUSH2 0x58AF SWAP1 PUSH2 0x8E39 JUMP JUMPDEST PUSH1 0x40 MLOAD DUP1 SWAP2 SUB SWAP1 REVERT JUMPDEST SWAP2 SWAP1 POP JUMP JUMPDEST PUSH2 0x58C6 DUP5 PUSH2 0x1545 JUMP JUMPDEST PUSH1 0x0 DUP1 PUSH1 0x0 DUP6 DUP6 SWAP1 POP SWAP1 POP PUSH1 0x0 DUP1 PUSH1 0x0 JUMPDEST DUP4 DUP2 LT ISZERO PUSH2 0x5B79 JUMPI DUP9 DUP9 DUP3 DUP2 DUP2 LT PUSH2 0x58F2 JUMPI PUSH2 0x58F1 PUSH2 0x81B9 JUMP JUMPDEST JUMPDEST SWAP1 POP PUSH1 0x40 MUL ADD PUSH1 0x0 ADD PUSH1 0x20 DUP2 ADD SWAP1 PUSH2 0x590A SWAP2 SWAP1 PUSH2 0x8B1D JUMP JUMPDEST PUSH4 0xFFFFFFFF AND SWAP6 POP CALLER PUSH20 0xFFFFFFFFFFFFFFFFFFFFFFFFFFFFFFFFFFFFFFFF AND PUSH1 0xC PUSH1 0x0 DUP13 DUP2 MSTORE PUSH1 0x20 ADD SWAP1 DUP2 MSTORE PUSH1 0x20 ADD PUSH1 0x0 KECCAK256 PUSH1 0x0 SWAP1 SLOAD SWAP1 PUSH2 0x100 EXP SWAP1 DIV PUSH20 0xFFFFFFFFFFFFFFFFFFFFFFFFFFFFFFFFFFFFFFFF AND PUSH20 0xFFFFFFFFFFFFFFFFFFFFFFFFFFFFFFFFFFFFFFFF AND PUSH4 0x6352211E DUP9 PUSH1 0x40 MLOAD DUP3 PUSH4 0xFFFFFFFF AND PUSH1 0xE0 SHL DUP2 MSTORE PUSH1 0x4 ADD PUSH2 0x5995 SWAP2 SWAP1 PUSH2 0x7A1F JUMP JUMPDEST PUSH1 0x20 PUSH1 0x40 MLOAD DUP1 DUP4 SUB DUP2 DUP7 GAS STATICCALL ISZERO DUP1 ISZERO PUSH2 0x59B2 JUMPI RETURNDATASIZE PUSH1 0x0 DUP1 RETURNDATACOPY RETURNDATASIZE PUSH1 0x0 REVERT JUMPDEST POP POP POP POP PUSH1 0x40 MLOAD RETURNDATASIZE PUSH1 0x1F NOT PUSH1 0x1F DUP3 ADD AND DUP3 ADD DUP1 PUSH1 0x40 MSTORE POP DUP2 ADD SWAP1 PUSH2 0x59D6 SWAP2 SWAP1 PUSH2 0x8775 JUMP JUMPDEST PUSH20 0xFFFFFFFFFFFFFFFFFFFFFFFFFFFFFFFFFFFFFFFF AND EQ PUSH2 0x5A23 JUMPI PUSH1 0x40 MLOAD PUSH32 0x5CD8319200000000000000000000000000000000000000000000000000000000 DUP2 MSTORE PUSH1 0x4 ADD PUSH1 0x40 MLOAD DUP1 SWAP2 SUB SWAP1 REVERT JUMPDEST DUP9 DUP9 DUP3 DUP2 DUP2 LT PUSH2 0x5A36 JUMPI PUSH2 0x5A35 PUSH2 0x81B9 JUMP JUMPDEST JUMPDEST SWAP1 POP PUSH1 0x40 MUL ADD PUSH1 0x20 ADD PUSH1 0x20 DUP2 ADD SWAP1 PUSH2 0x5A4E SWAP2 SWAP1 PUSH2 0x8B9E JUMP JUMPDEST PUSH28 0xFFFFFFFFFFFFFFFFFFFFFFFFFFFFFFFFFFFFFFFFFFFFFFFFFFFFFFFF AND SWAP5 POP PUSH1 0xD PUSH1 0x0 DUP12 DUP2 MSTORE PUSH1 0x20 ADD SWAP1 DUP2 MSTORE PUSH1 0x20 ADD PUSH1 0x0 KECCAK256 PUSH1 0x0 DUP8 DUP2 MSTORE PUSH1 0x20 ADD SWAP1 DUP2 MSTORE PUSH1 0x20 ADD PUSH1 0x0 KECCAK256 SWAP2 POP DUP2 PUSH1 0x0 ADD SLOAD DUP6 EQ ISZERO PUSH2 0x5B02 JUMPI PUSH1 0x0 PUSH2 0x5AAD DUP12 DUP5 DUP11 PUSH2 0x5113 JUMP JUMPDEST SWAP1 POP DUP11 CALLER PUSH20 0xFFFFFFFFFFFFFFFFFFFFFFFFFFFFFFFFFFFFFFFF AND PUSH32 0xD334B3114FC25CBD72389FF9C361D5F8B0924E35FA237C65AC209A2CDCF4BA13 DUP4 DUP11 PUSH1 0x40 MLOAD PUSH2 0x5AF8 SWAP3 SWAP2 SWAP1 PUSH2 0x7FC5 JUMP JUMPDEST PUSH1 0x40 MLOAD DUP1 SWAP2 SUB SWAP1 LOG3 POP JUMPDEST PUSH2 0x5B0D DUP11 DUP4 DUP8 PUSH2 0x6877 JUMP JUMPDEST DUP5 DUP4 PUSH2 0x5B19 SWAP2 SWAP1 PUSH2 0x8134 JUMP JUMPDEST SWAP3 POP DUP10 CALLER PUSH20 0xFFFFFFFFFFFFFFFFFFFFFFFFFFFFFFFFFFFFFFFF AND PUSH32 0x46916533B23D6665275E4143EC7EEB4B6B4AE92178EBBFE99F112564D2C7B1AA DUP8 DUP11 DUP11 PUSH1 0x40 MLOAD PUSH2 0x5B66 SWAP4 SWAP3 SWAP2 SWAP1 PUSH2 0x86B4 JUMP JUMPDEST PUSH1 0x40 MLOAD DUP1 SWAP2 SUB SWAP1 LOG3 DUP1 PUSH1 0x1 ADD SWAP1 POP PUSH2 0x58D7 JUMP JUMPDEST POP PUSH1 0x0 DUP3 GT ISZERO PUSH2 0x5C23 JUMPI PUSH32 0x0 PUSH20 0xFFFFFFFFFFFFFFFFFFFFFFFFFFFFFFFFFFFFFFFF AND PUSH4 0xA9059CBB DUP8 DUP5 PUSH1 0x40 MLOAD DUP4 PUSH4 0xFFFFFFFF AND PUSH1 0xE0 SHL DUP2 MSTORE PUSH1 0x4 ADD PUSH2 0x5BDE SWAP3 SWAP2 SWAP1 PUSH2 0x85E8 JUMP JUMPDEST PUSH1 0x20 PUSH1 0x40 MLOAD DUP1 DUP4 SUB DUP2 PUSH1 0x0 DUP8 GAS CALL ISZERO DUP1 ISZERO PUSH2 0x5BFD JUMPI RETURNDATASIZE PUSH1 0x0 DUP1 RETURNDATACOPY RETURNDATASIZE PUSH1 0x0 REVERT JUMPDEST POP POP POP POP PUSH1 0x40 MLOAD RETURNDATASIZE PUSH1 0x1F NOT PUSH1 0x1F DUP3 ADD AND DUP3 ADD DUP1 PUSH1 0x40 MSTORE POP DUP2 ADD SWAP1 PUSH2 0x5C21 SWAP2 SWAP1 PUSH2 0x851A JUMP JUMPDEST POP JUMPDEST POP POP POP POP POP POP POP POP POP JUMP JUMPDEST PUSH1 0x0 DUP1 PUSH2 0xE10 DUP4 PUSH2 0x5C3F SWAP2 SWAP1 PUSH2 0x8E59 JUMP JUMPDEST SWAP1 POP PUSH1 0x3C DUP2 PUSH2 0x5C4E SWAP2 SWAP1 PUSH2 0x82FC JUMP JUMPDEST SWAP2 POP POP SWAP2 SWAP1 POP JUMP JUMPDEST PUSH1 0x0 PUSH1 0x3C DUP3 PUSH2 0x5C65 SWAP2 SWAP1 PUSH2 0x8E59 JUMP JUMPDEST SWAP1 POP SWAP2 SWAP1 POP JUMP JUMPDEST PUSH1 0x0 PUSH1 0x4 DUP5 PUSH1 0x4 DUP2 LT PUSH2 0x5C82 JUMPI PUSH2 0x5C81 PUSH2 0x81B9 JUMP JUMPDEST JUMPDEST PUSH1 0x2 MUL ADD SWAP1 POP DUP2 DUP4 PUSH1 0x0 ADD PUSH1 0x0 DUP3 DUP3 SLOAD PUSH2 0x5C9C SWAP2 SWAP1 PUSH2 0x8134 JUMP JUMPDEST SWAP3 POP POP DUP2 SWAP1 SSTORE POP PUSH2 0x5CAC DUP3 PUSH2 0x5612 JUMP JUMPDEST DUP2 PUSH1 0x0 ADD PUSH1 0x8 DUP3 DUP3 DUP3 SWAP1 SLOAD SWAP1 PUSH2 0x100 EXP SWAP1 DIV PUSH12 0xFFFFFFFFFFFFFFFFFFFFFFFF AND PUSH2 0x5CD6 SWAP2 SWAP1 PUSH2 0x8E8A JUMP JUMPDEST SWAP3 POP PUSH2 0x100 EXP DUP2 SLOAD DUP2 PUSH12 0xFFFFFFFFFFFFFFFFFFFFFFFF MUL NOT AND SWAP1 DUP4 PUSH12 0xFFFFFFFFFFFFFFFFFFFFFFFF AND MUL OR SWAP1 SSTORE POP PUSH2 0x5D42 DUP2 PUSH1 0x0 ADD PUSH1 0x14 SWAP1 SLOAD SWAP1 PUSH2 0x100 EXP SWAP1 DIV PUSH12 0xFFFFFFFFFFFFFFFFFFFFFFFF AND PUSH12 0xFFFFFFFFFFFFFFFFFFFFFFFF AND DUP4 PUSH2 0x5D3D SWAP2 SWAP1 PUSH2 0x8273 JUMP JUMPDEST PUSH2 0x5059 JUMP JUMPDEST DUP4 PUSH1 0x1 ADD PUSH1 0x0 DUP3 DUP3 SLOAD PUSH2 0x5D55 SWAP2 SWAP1 PUSH2 0x8ECC JUMP JUMPDEST SWAP3 POP POP DUP2 SWAP1 SSTORE POP POP POP POP POP JUMP JUMPDEST PUSH1 0x0 DUP3 DUP3 SWAP1 POP SWAP1 POP PUSH1 0x0 PUSH2 0x5D74 PUSH2 0x72A9 JUMP JUMPDEST PUSH1 0x0 DUP1 JUMPDEST DUP5 DUP2 LT ISZERO PUSH2 0x649F JUMPI DUP7 DUP7 DUP3 DUP2 DUP2 LT PUSH2 0x5D93 JUMPI PUSH2 0x5D92 PUSH2 0x81B9 JUMP JUMPDEST JUMPDEST SWAP1 POP PUSH1 0x60 MUL ADD DUP1 CALLDATASIZE SUB DUP2 ADD SWAP1 PUSH2 0x5DA9 SWAP2 SWAP1 PUSH2 0x8FC4 JUMP JUMPDEST SWAP3 POP PUSH1 0xD PUSH1 0x0 PUSH1 0x3 DUP2 MSTORE PUSH1 0x20 ADD SWAP1 DUP2 MSTORE PUSH1 0x20 ADD PUSH1 0x0 KECCAK256 PUSH1 0x0 DUP5 PUSH1 0x20 ADD MLOAD PUSH4 0xFFFFFFFF AND DUP2 MSTORE PUSH1 0x20 ADD SWAP1 DUP2 MSTORE PUSH1 0x20 ADD PUSH1 0x0 KECCAK256 SWAP2 POP PUSH1 0x0 DUP3 PUSH1 0x0 ADD SLOAD EQ ISZERO PUSH2 0x628B JUMPI CALLER PUSH20 0xFFFFFFFFFFFFFFFFFFFFFFFFFFFFFFFFFFFFFFFF AND PUSH1 0xC PUSH1 0x0 DUP11 DUP2 MSTORE PUSH1 0x20 ADD SWAP1 DUP2 MSTORE PUSH1 0x20 ADD PUSH1 0x0 KECCAK256 PUSH1 0x0 SWAP1 SLOAD SWAP1 PUSH2 0x100 EXP SWAP1 DIV PUSH20 0xFFFFFFFFFFFFFFFFFFFFFFFFFFFFFFFFFFFFFFFF AND PUSH20 0xFFFFFFFFFFFFFFFFFFFFFFFFFFFFFFFFFFFFFFFF AND PUSH4 0x6352211E DUP6 PUSH1 0x0 ADD MLOAD PUSH1 0x40 MLOAD DUP3 PUSH4 0xFFFFFFFF AND PUSH1 0xE0 SHL DUP2 MSTORE PUSH1 0x4 ADD PUSH2 0x5E70 SWAP2 SWAP1 PUSH2 0x89BF JUMP JUMPDEST PUSH1 0x20 PUSH1 0x40 MLOAD DUP1 DUP4 SUB DUP2 DUP7 GAS STATICCALL ISZERO DUP1 ISZERO PUSH2 0x5E8D JUMPI RETURNDATASIZE PUSH1 0x0 DUP1 RETURNDATACOPY RETURNDATASIZE PUSH1 0x0 REVERT JUMPDEST POP POP POP POP PUSH1 0x40 MLOAD RETURNDATASIZE PUSH1 0x1F NOT PUSH1 0x1F DUP3 ADD AND DUP3 ADD DUP1 PUSH1 0x40 MSTORE POP DUP2 ADD SWAP1 PUSH2 0x5EB1 SWAP2 SWAP1 PUSH2 0x8775 JUMP JUMPDEST PUSH20 0xFFFFFFFFFFFFFFFFFFFFFFFFFFFFFFFFFFFFFFFF AND EQ ISZERO DUP1 PUSH2 0x5F0F JUMPI POP PUSH1 0xE PUSH1 0x0 DUP10 DUP2 MSTORE PUSH1 0x20 ADD SWAP1 DUP2 MSTORE PUSH1 0x20 ADD PUSH1 0x0 KECCAK256 PUSH1 0x0 DUP5 PUSH1 0x0 ADD MLOAD PUSH4 0xFFFFFFFF AND DUP2 MSTORE PUSH1 0x20 ADD SWAP1 DUP2 MSTORE PUSH1 0x20 ADD PUSH1 0x0 KECCAK256 PUSH1 0x0 ADD PUSH1 0x1F SWAP1 SLOAD SWAP1 PUSH2 0x100 EXP SWAP1 DIV PUSH1 0xFF AND JUMPDEST ISZERO PUSH2 0x5F46 JUMPI PUSH1 0x40 MLOAD PUSH32 0xA3FDBB5200000000000000000000000000000000000000000000000000000000 DUP2 MSTORE PUSH1 0x4 ADD PUSH1 0x40 MLOAD DUP1 SWAP2 SUB SWAP1 REVERT JUMPDEST CALLER PUSH20 0xFFFFFFFFFFFFFFFFFFFFFFFFFFFFFFFFFFFFFFFF AND PUSH1 0xC PUSH1 0x0 PUSH1 0x3 DUP2 MSTORE PUSH1 0x20 ADD SWAP1 DUP2 MSTORE PUSH1 0x20 ADD PUSH1 0x0 KECCAK256 PUSH1 0x0 SWAP1 SLOAD SWAP1 PUSH2 0x100 EXP SWAP1 DIV PUSH20 0xFFFFFFFFFFFFFFFFFFFFFFFFFFFFFFFFFFFFFFFF AND PUSH20 0xFFFFFFFFFFFFFFFFFFFFFFFFFFFFFFFFFFFFFFFF AND PUSH4 0x6352211E DUP6 PUSH1 0x20 ADD MLOAD PUSH1 0x40 MLOAD DUP3 PUSH4 0xFFFFFFFF AND PUSH1 0xE0 SHL DUP2 MSTORE PUSH1 0x4 ADD PUSH2 0x5FCE SWAP2 SWAP1 PUSH2 0x89BF JUMP JUMPDEST PUSH1 0x20 PUSH1 0x40 MLOAD DUP1 DUP4 SUB DUP2 DUP7 GAS STATICCALL ISZERO DUP1 ISZERO PUSH2 0x5FEB JUMPI RETURNDATASIZE PUSH1 0x0 DUP1 RETURNDATACOPY RETURNDATASIZE PUSH1 0x0 REVERT JUMPDEST POP POP POP POP PUSH1 0x40 MLOAD RETURNDATASIZE PUSH1 0x1F NOT PUSH1 0x1F DUP3 ADD AND DUP3 ADD DUP1 PUSH1 0x40 MSTORE POP DUP2 ADD SWAP1 PUSH2 0x600F SWAP2 SWAP1 PUSH2 0x8775 JUMP JUMPDEST PUSH20 0xFFFFFFFFFFFFFFFFFFFFFFFFFFFFFFFFFFFFFFFF AND EQ ISZERO DUP1 PUSH2 0x606D JUMPI POP PUSH1 0xF PUSH1 0x0 DUP5 PUSH1 0x20 ADD MLOAD PUSH4 0xFFFFFFFF AND DUP2 MSTORE PUSH1 0x20 ADD SWAP1 DUP2 MSTORE PUSH1 0x20 ADD PUSH1 0x0 KECCAK256 PUSH1 0x0 DUP10 DUP2 MSTORE PUSH1 0x20 ADD SWAP1 DUP2 MSTORE PUSH1 0x20 ADD PUSH1 0x0 KECCAK256 PUSH1 0x0 ADD PUSH1 0x1F SWAP1 SLOAD SWAP1 PUSH2 0x100 EXP SWAP1 DIV PUSH1 0xFF AND JUMPDEST ISZERO PUSH2 0x60A4 JUMPI PUSH1 0x40 MLOAD PUSH32 0xDE72B61E00000000000000000000000000000000000000000000000000000000 DUP2 MSTORE PUSH1 0x4 ADD PUSH1 0x40 MLOAD DUP1 SWAP2 SUB SWAP1 REVERT JUMPDEST PUSH1 0x40 MLOAD DUP1 PUSH1 0x40 ADD PUSH1 0x40 MSTORE DUP1 DUP5 PUSH1 0x20 ADD MLOAD PUSH4 0xFFFFFFFF AND PUSH31 0xFFFFFFFFFFFFFFFFFFFFFFFFFFFFFFFFFFFFFFFFFFFFFFFFFFFFFFFFFFFFFF AND DUP2 MSTORE PUSH1 0x20 ADD PUSH1 0x1 ISZERO ISZERO DUP2 MSTORE POP PUSH1 0xE PUSH1 0x0 DUP11 DUP2 MSTORE PUSH1 0x20 ADD SWAP1 DUP2 MSTORE PUSH1 0x20 ADD PUSH1 0x0 KECCAK256 PUSH1 0x0 DUP6 PUSH1 0x0 ADD MLOAD PUSH4 0xFFFFFFFF AND DUP2 MSTORE PUSH1 0x20 ADD SWAP1 DUP2 MSTORE PUSH1 0x20 ADD PUSH1 0x0 KECCAK256 PUSH1 0x0 DUP3 ADD MLOAD DUP2 PUSH1 0x0 ADD PUSH1 0x0 PUSH2 0x100 EXP DUP2 SLOAD DUP2 PUSH31 0xFFFFFFFFFFFFFFFFFFFFFFFFFFFFFFFFFFFFFFFFFFFFFFFFFFFFFFFFFFFFFF MUL NOT AND SWAP1 DUP4 PUSH31 0xFFFFFFFFFFFFFFFFFFFFFFFFFFFFFFFFFFFFFFFFFFFFFFFFFFFFFFFFFFFFFF AND MUL OR SWAP1 SSTORE POP PUSH1 0x20 DUP3 ADD MLOAD DUP2 PUSH1 0x0 ADD PUSH1 0x1F PUSH2 0x100 EXP DUP2 SLOAD DUP2 PUSH1 0xFF MUL NOT AND SWAP1 DUP4 ISZERO ISZERO MUL OR SWAP1 SSTORE POP SWAP1 POP POP PUSH1 0x40 MLOAD DUP1 PUSH1 0x40 ADD PUSH1 0x40 MSTORE DUP1 DUP5 PUSH1 0x0 ADD MLOAD PUSH4 0xFFFFFFFF AND PUSH31 0xFFFFFFFFFFFFFFFFFFFFFFFFFFFFFFFFFFFFFFFFFFFFFFFFFFFFFFFFFFFFFF AND DUP2 MSTORE PUSH1 0x20 ADD PUSH1 0x1 ISZERO ISZERO DUP2 MSTORE POP PUSH1 0xF PUSH1 0x0 DUP6 PUSH1 0x20 ADD MLOAD PUSH4 0xFFFFFFFF AND DUP2 MSTORE PUSH1 0x20 ADD SWAP1 DUP2 MSTORE PUSH1 0x20 ADD PUSH1 0x0 KECCAK256 PUSH1 0x0 DUP11 DUP2 MSTORE PUSH1 0x20 ADD SWAP1 DUP2 MSTORE PUSH1 0x20 ADD PUSH1 0x0 KECCAK256 PUSH1 0x0 DUP3 ADD MLOAD DUP2 PUSH1 0x0 ADD PUSH1 0x0 PUSH2 0x100 EXP DUP2 SLOAD DUP2 PUSH31 0xFFFFFFFFFFFFFFFFFFFFFFFFFFFFFFFFFFFFFFFFFFFFFFFFFFFFFFFFFFFFFF MUL NOT AND SWAP1 DUP4 PUSH31 0xFFFFFFFFFFFFFFFFFFFFFFFFFFFFFFFFFFFFFFFFFFFFFFFFFFFFFFFFFFFFFF AND MUL OR SWAP1 SSTORE POP PUSH1 0x20 DUP3 ADD MLOAD DUP2 PUSH1 0x0 ADD PUSH1 0x1F PUSH2 0x100 EXP DUP2 SLOAD DUP2 PUSH1 0xFF MUL NOT AND SWAP1 DUP4 ISZERO ISZERO MUL OR SWAP1 SSTORE POP SWAP1 POP POP PUSH2 0x63E0 JUMP JUMPDEST PUSH1 0xF PUSH1 0x0 DUP5 PUSH1 0x20 ADD MLOAD PUSH4 0xFFFFFFFF AND DUP2 MSTORE PUSH1 0x20 ADD SWAP1 DUP2 MSTORE PUSH1 0x20 ADD PUSH1 0x0 KECCAK256 PUSH1 0x0 DUP10 DUP2 MSTORE PUSH1 0x20 ADD SWAP1 DUP2 MSTORE PUSH1 0x20 ADD PUSH1 0x0 KECCAK256 PUSH1 0x0 ADD PUSH1 0x0 SWAP1 SLOAD SWAP1 PUSH2 0x100 EXP SWAP1 DIV PUSH31 0xFFFFFFFFFFFFFFFFFFFFFFFFFFFFFFFFFFFFFFFFFFFFFFFFFFFFFFFFFFFFFF AND PUSH31 0xFFFFFFFFFFFFFFFFFFFFFFFFFFFFFFFFFFFFFFFFFFFFFFFFFFFFFFFFFFFFFF AND DUP4 PUSH1 0x0 ADD MLOAD PUSH4 0xFFFFFFFF AND EQ ISZERO DUP1 PUSH2 0x63A8 JUMPI POP PUSH1 0xE PUSH1 0x0 DUP10 DUP2 MSTORE PUSH1 0x20 ADD SWAP1 DUP2 MSTORE PUSH1 0x20 ADD PUSH1 0x0 KECCAK256 PUSH1 0x0 DUP5 PUSH1 0x0 ADD MLOAD PUSH4 0xFFFFFFFF AND DUP2 MSTORE PUSH1 0x20 ADD SWAP1 DUP2 MSTORE PUSH1 0x20 ADD PUSH1 0x0 KECCAK256 PUSH1 0x0 ADD PUSH1 0x0 SWAP1 SLOAD SWAP1 PUSH2 0x100 EXP SWAP1 DIV PUSH31 0xFFFFFFFFFFFFFFFFFFFFFFFFFFFFFFFFFFFFFFFFFFFFFFFFFFFFFFFFFFFFFF AND PUSH31 0xFFFFFFFFFFFFFFFFFFFFFFFFFFFFFFFFFFFFFFFFFFFFFFFFFFFFFFFFFFFFFF AND DUP4 PUSH1 0x20 ADD MLOAD PUSH4 0xFFFFFFFF AND EQ ISZERO JUMPDEST ISZERO PUSH2 0x63DF JUMPI PUSH1 0x40 MLOAD PUSH32 0xBA52C1B500000000000000000000000000000000000000000000000000000000 DUP2 MSTORE PUSH1 0x4 ADD PUSH1 0x40 MLOAD DUP1 SWAP2 SUB SWAP1 REVERT JUMPDEST JUMPDEST PUSH2 0x6409 PUSH1 0x3 DUP4 DUP6 PUSH1 0x40 ADD MLOAD PUSH23 0xFFFFFFFFFFFFFFFFFFFFFFFFFFFFFFFFFFFFFFFFFFFFFF AND PUSH2 0x7063 JUMP JUMPDEST DUP3 PUSH1 0x40 ADD MLOAD PUSH23 0xFFFFFFFFFFFFFFFFFFFFFFFFFFFFFFFFFFFFFFFFFFFFFF AND DUP5 PUSH2 0x6432 SWAP2 SWAP1 PUSH2 0x8134 JUMP JUMPDEST SWAP4 POP CALLER PUSH20 0xFFFFFFFFFFFFFFFFFFFFFFFFFFFFFFFFFFFFFFFF AND PUSH32 0xB3F27C1805319C01731F5717816FCFC579C3452C5FF4FFADC41284A7288F24EF DUP5 PUSH1 0x40 ADD MLOAD DUP11 DUP7 PUSH1 0x0 ADD MLOAD DUP8 PUSH1 0x20 ADD MLOAD PUSH1 0x40 MLOAD PUSH2 0x648C SWAP5 SWAP4 SWAP3 SWAP2 SWAP1 PUSH2 0x9022 JUMP JUMPDEST PUSH1 0x40 MLOAD DUP1 SWAP2 SUB SWAP1 LOG2 DUP1 PUSH1 0x1 ADD SWAP1 POP PUSH2 0x5D78 JUMP JUMPDEST POP PUSH1 0x0 DUP4 GT ISZERO PUSH2 0x654B JUMPI PUSH32 0x0 PUSH20 0xFFFFFFFFFFFFFFFFFFFFFFFFFFFFFFFFFFFFFFFF AND PUSH4 0x23B872DD CALLER ADDRESS DUP7 PUSH1 0x40 MLOAD DUP5 PUSH4 0xFFFFFFFF AND PUSH1 0xE0 SHL DUP2 MSTORE PUSH1 0x4 ADD PUSH2 0x6506 SWAP4 SWAP3 SWAP2 SWAP1 PUSH2 0x84B7 JUMP JUMPDEST PUSH1 0x20 PUSH1 0x40 MLOAD DUP1 DUP4 SUB DUP2 PUSH1 0x0 DUP8 GAS CALL ISZERO DUP1 ISZERO PUSH2 0x6525 JUMPI RETURNDATASIZE PUSH1 0x0 DUP1 RETURNDATACOPY RETURNDATASIZE PUSH1 0x0 REVERT JUMPDEST POP POP POP POP PUSH1 0x40 MLOAD RETURNDATASIZE PUSH1 0x1F NOT PUSH1 0x1F DUP3 ADD AND DUP3 ADD DUP1 PUSH1 0x40 MSTORE POP DUP2 ADD SWAP1 PUSH2 0x6549 SWAP2 SWAP1 PUSH2 0x851A JUMP JUMPDEST POP JUMPDEST POP POP POP POP POP POP POP JUMP JUMPDEST PUSH1 0x0 DUP1 PUSH1 0x4 DUP6 PUSH1 0x4 DUP2 LT PUSH2 0x656B JUMPI PUSH2 0x656A PUSH2 0x81B9 JUMP JUMPDEST JUMPDEST PUSH1 0x2 MUL ADD PUSH1 0x40 MLOAD DUP1 PUSH1 0xA0 ADD PUSH1 0x40 MSTORE SWAP1 DUP2 PUSH1 0x0 DUP3 ADD PUSH1 0x0 SWAP1 SLOAD SWAP1 PUSH2 0x100 EXP SWAP1 DIV PUSH6 0xFFFFFFFFFFFF AND PUSH6 0xFFFFFFFFFFFF AND PUSH6 0xFFFFFFFFFFFF AND DUP2 MSTORE PUSH1 0x20 ADD PUSH1 0x0 DUP3 ADD PUSH1 0x6 SWAP1 SLOAD SWAP1 PUSH2 0x100 EXP SWAP1 DIV PUSH2 0xFFFF AND PUSH2 0xFFFF AND PUSH2 0xFFFF AND DUP2 MSTORE PUSH1 0x20 ADD PUSH1 0x0 DUP3 ADD PUSH1 0x8 SWAP1 SLOAD SWAP1 PUSH2 0x100 EXP SWAP1 DIV PUSH12 0xFFFFFFFFFFFFFFFFFFFFFFFF AND PUSH12 0xFFFFFFFFFFFFFFFFFFFFFFFF AND PUSH12 0xFFFFFFFFFFFFFFFFFFFFFFFF AND DUP2 MSTORE PUSH1 0x20 ADD PUSH1 0x0 DUP3 ADD PUSH1 0x14 SWAP1 SLOAD SWAP1 PUSH2 0x100 EXP SWAP1 DIV PUSH12 0xFFFFFFFFFFFFFFFFFFFFFFFF AND PUSH12 0xFFFFFFFFFFFFFFFFFFFFFFFF AND PUSH12 0xFFFFFFFFFFFFFFFFFFFFFFFF AND DUP2 MSTORE PUSH1 0x20 ADD PUSH1 0x1 DUP3 ADD DUP1 SLOAD DUP1 PUSH1 0x20 MUL PUSH1 0x20 ADD PUSH1 0x40 MLOAD SWAP1 DUP2 ADD PUSH1 0x40 MSTORE DUP1 SWAP3 SWAP2 SWAP1 DUP2 DUP2 MSTORE PUSH1 0x20 ADD PUSH1 0x0 SWAP1 JUMPDEST DUP3 DUP3 LT ISZERO PUSH2 0x676D JUMPI DUP4 DUP3 SWAP1 PUSH1 0x0 MSTORE PUSH1 0x20 PUSH1 0x0 KECCAK256 SWAP1 PUSH1 0x2 MUL ADD PUSH1 0x40 MLOAD DUP1 PUSH1 0x80 ADD PUSH1 0x40 MSTORE SWAP1 DUP2 PUSH1 0x0 DUP3 ADD PUSH1 0x0 SWAP1 SLOAD SWAP1 PUSH2 0x100 EXP SWAP1 DIV PUSH6 0xFFFFFFFFFFFF AND PUSH6 0xFFFFFFFFFFFF AND PUSH6 0xFFFFFFFFFFFF AND DUP2 MSTORE PUSH1 0x20 ADD PUSH1 0x0 DUP3 ADD PUSH1 0x6 SWAP1 SLOAD SWAP1 PUSH2 0x100 EXP SWAP1 DIV PUSH6 0xFFFFFFFFFFFF AND PUSH6 0xFFFFFFFFFFFF AND PUSH6 0xFFFFFFFFFFFF AND DUP2 MSTORE PUSH1 0x20 ADD PUSH1 0x0 DUP3 ADD PUSH1 0xC SWAP1 SLOAD SWAP1 PUSH2 0x100 EXP SWAP1 DIV PUSH12 0xFFFFFFFFFFFFFFFFFFFFFFFF AND PUSH12 0xFFFFFFFFFFFFFFFFFFFFFFFF AND PUSH12 0xFFFFFFFFFFFFFFFFFFFFFFFF AND DUP2 MSTORE PUSH1 0x20 ADD PUSH1 0x1 DUP3 ADD PUSH1 0x0 SWAP1 SLOAD SWAP1 PUSH2 0x100 EXP SWAP1 DIV PUSH12 0xFFFFFFFFFFFFFFFFFFFFFFFF AND PUSH12 0xFFFFFFFFFFFFFFFFFFFFFFFF AND PUSH12 0xFFFFFFFFFFFFFFFFFFFFFFFF AND DUP2 MSTORE POP POP DUP2 MSTORE PUSH1 0x20 ADD SWAP1 PUSH1 0x1 ADD SWAP1 PUSH2 0x6667 JUMP JUMPDEST POP POP POP POP DUP2 MSTORE POP POP SWAP1 POP PUSH1 0x0 DUP1 DUP7 EQ PUSH2 0x67A9 JUMPI PUSH1 0xD PUSH1 0x0 DUP8 DUP2 MSTORE PUSH1 0x20 ADD SWAP1 DUP2 MSTORE PUSH1 0x20 ADD PUSH1 0x0 KECCAK256 PUSH1 0x0 DUP6 DUP2 MSTORE PUSH1 0x20 ADD SWAP1 DUP2 MSTORE PUSH1 0x20 ADD PUSH1 0x0 KECCAK256 PUSH2 0x67E9 JUMP JUMPDEST PUSH1 0x1 PUSH1 0x0 DUP7 PUSH20 0xFFFFFFFFFFFFFFFFFFFFFFFFFFFFFFFFFFFFFFFF AND PUSH20 0xFFFFFFFFFFFFFFFFFFFFFFFFFFFFFFFFFFFFFFFF AND DUP2 MSTORE PUSH1 0x20 ADD SWAP1 DUP2 MSTORE PUSH1 0x20 ADD PUSH1 0x0 KECCAK256 JUMPDEST PUSH1 0x40 MLOAD DUP1 PUSH1 0x40 ADD PUSH1 0x40 MSTORE SWAP1 DUP2 PUSH1 0x0 DUP3 ADD SLOAD DUP2 MSTORE PUSH1 0x20 ADD PUSH1 0x1 DUP3 ADD SLOAD DUP2 MSTORE POP POP SWAP1 POP PUSH1 0x0 PUSH2 0x681E DUP8 DUP5 PUSH1 0x20 ADD MLOAD PUSH2 0xFFFF AND PUSH2 0xB72 JUMP JUMPDEST SWAP1 POP DUP3 PUSH1 0x40 ADD MLOAD PUSH12 0xFFFFFFFFFFFFFFFFFFFFFFFF AND PUSH1 0x18 DUP3 PUSH1 0x40 ADD MLOAD PUSH12 0xFFFFFFFFFFFFFFFFFFFFFFFF AND DUP5 PUSH1 0x0 ADD MLOAD PUSH2 0x6857 SWAP2 SWAP1 PUSH2 0x8273 JUMP JUMPDEST PUSH2 0x6861 SWAP2 SWAP1 PUSH2 0x8273 JUMP JUMPDEST PUSH2 0x686B SWAP2 SWAP1 PUSH2 0x82FC JUMP JUMPDEST SWAP4 POP POP POP POP SWAP4 SWAP3 POP POP POP JUMP JUMPDEST DUP2 PUSH1 0x0 ADD SLOAD DUP2 GT ISZERO PUSH2 0x68B5 JUMPI PUSH1 0x40 MLOAD PUSH32 0x9ACAEFC700000000000000000000000000000000000000000000000000000000 DUP2 MSTORE PUSH1 0x4 ADD PUSH1 0x40 MLOAD DUP1 SWAP2 SUB SWAP1 REVERT JUMPDEST PUSH1 0x0 PUSH1 0x4 DUP5 PUSH1 0x4 DUP2 LT PUSH2 0x68CB JUMPI PUSH2 0x68CA PUSH2 0x81B9 JUMP JUMPDEST JUMPDEST PUSH1 0x2 MUL ADD SWAP1 POP DUP2 DUP4 PUSH1 0x0 ADD PUSH1 0x0 DUP3 DUP3 SLOAD PUSH2 0x68E5 SWAP2 SWAP1 PUSH2 0x83EA JUMP JUMPDEST SWAP3 POP POP DUP2 SWAP1 SSTORE POP PUSH2 0x68F5 DUP3 PUSH2 0x5612 JUMP JUMPDEST DUP2 PUSH1 0x0 ADD PUSH1 0x8 DUP3 DUP3 DUP3 SWAP1 SLOAD SWAP1 PUSH2 0x100 EXP SWAP1 DIV PUSH12 0xFFFFFFFFFFFFFFFFFFFFFFFF AND PUSH2 0x691F SWAP2 SWAP1 PUSH2 0x9067 JUMP JUMPDEST SWAP3 POP PUSH2 0x100 EXP DUP2 SLOAD DUP2 PUSH12 0xFFFFFFFFFFFFFFFFFFFFFFFF MUL NOT AND SWAP1 DUP4 PUSH12 0xFFFFFFFFFFFFFFFFFFFFFFFF AND MUL OR SWAP1 SSTORE POP PUSH2 0x698B DUP2 PUSH1 0x0 ADD PUSH1 0x14 SWAP1 SLOAD SWAP1 PUSH2 0x100 EXP SWAP1 DIV PUSH12 0xFFFFFFFFFFFFFFFFFFFFFFFF AND PUSH12 0xFFFFFFFFFFFFFFFFFFFFFFFF AND DUP4 PUSH2 0x6986 SWAP2 SWAP1 PUSH2 0x8273 JUMP JUMPDEST PUSH2 0x5059 JUMP JUMPDEST DUP4 PUSH1 0x1 ADD PUSH1 0x0 DUP3 DUP3 SLOAD PUSH2 0x699E SWAP2 SWAP1 PUSH2 0x832D JUMP JUMPDEST SWAP3 POP POP DUP2 SWAP1 SSTORE POP POP POP POP POP JUMP JUMPDEST PUSH1 0x0 DUP1 PUSH1 0x0 SWAP1 POP PUSH1 0x0 PUSH1 0xC PUSH1 0x0 DUP7 DUP2 MSTORE PUSH1 0x20 ADD SWAP1 DUP2 MSTORE PUSH1 0x20 ADD PUSH1 0x0 KECCAK256 PUSH1 0x0 SWAP1 SLOAD SWAP1 PUSH2 0x100 EXP SWAP1 DIV PUSH20 0xFFFFFFFFFFFFFFFFFFFFFFFFFFFFFFFFFFFFFFFF AND PUSH20 0xFFFFFFFFFFFFFFFFFFFFFFFFFFFFFFFFFFFFFFFF AND PUSH4 0x70A08231 DUP6 PUSH1 0x40 MLOAD DUP3 PUSH4 0xFFFFFFFF AND PUSH1 0xE0 SHL DUP2 MSTORE PUSH1 0x4 ADD PUSH2 0x6A20 SWAP2 SWAP1 PUSH2 0x7CA9 JUMP JUMPDEST PUSH1 0x20 PUSH1 0x40 MLOAD DUP1 DUP4 SUB DUP2 DUP7 GAS STATICCALL ISZERO DUP1 ISZERO PUSH2 0x6A3D JUMPI RETURNDATASIZE PUSH1 0x0 DUP1 RETURNDATACOPY RETURNDATASIZE PUSH1 0x0 REVERT JUMPDEST POP POP POP POP PUSH1 0x40 MLOAD RETURNDATASIZE PUSH1 0x1F NOT PUSH1 0x1F DUP3 ADD AND DUP3 ADD DUP1 PUSH1 0x40 MSTORE POP DUP2 ADD SWAP1 PUSH2 0x6A61 SWAP2 SWAP1 PUSH2 0x8246 JUMP JUMPDEST SWAP1 POP PUSH1 0x0 JUMPDEST DUP2 DUP2 LT ISZERO PUSH2 0x6B68 JUMPI PUSH1 0x0 PUSH1 0xC PUSH1 0x0 DUP9 DUP2 MSTORE PUSH1 0x20 ADD SWAP1 DUP2 MSTORE PUSH1 0x20 ADD PUSH1 0x0 KECCAK256 PUSH1 0x0 SWAP1 SLOAD SWAP1 PUSH2 0x100 EXP SWAP1 DIV PUSH20 0xFFFFFFFFFFFFFFFFFFFFFFFFFFFFFFFFFFFFFFFF AND PUSH20 0xFFFFFFFFFFFFFFFFFFFFFFFFFFFFFFFFFFFFFFFF AND PUSH4 0x2F745C59 DUP8 DUP5 PUSH1 0x40 MLOAD DUP4 PUSH4 0xFFFFFFFF AND PUSH1 0xE0 SHL DUP2 MSTORE PUSH1 0x4 ADD PUSH2 0x6ADE SWAP3 SWAP2 SWAP1 PUSH2 0x85E8 JUMP JUMPDEST PUSH1 0x20 PUSH1 0x40 MLOAD DUP1 DUP4 SUB DUP2 DUP7 GAS STATICCALL ISZERO DUP1 ISZERO PUSH2 0x6AFB JUMPI RETURNDATASIZE PUSH1 0x0 DUP1 RETURNDATACOPY RETURNDATASIZE PUSH1 0x0 REVERT JUMPDEST POP POP POP POP PUSH1 0x40 MLOAD RETURNDATASIZE PUSH1 0x1F NOT PUSH1 0x1F DUP3 ADD AND DUP3 ADD DUP1 PUSH1 0x40 MSTORE POP DUP2 ADD SWAP1 PUSH2 0x6B1F SWAP2 SWAP1 PUSH2 0x8246 JUMP JUMPDEST SWAP1 POP PUSH1 0xD PUSH1 0x0 DUP9 DUP2 MSTORE PUSH1 0x20 ADD SWAP1 DUP2 MSTORE PUSH1 0x20 ADD PUSH1 0x0 KECCAK256 PUSH1 0x0 DUP3 DUP2 MSTORE PUSH1 0x20 ADD SWAP1 DUP2 MSTORE PUSH1 0x20 ADD PUSH1 0x0 KECCAK256 PUSH1 0x0 ADD SLOAD DUP5 PUSH2 0x6B54 SWAP2 SWAP1 PUSH2 0x8134 JUMP JUMPDEST SWAP4 POP POP DUP1 PUSH2 0x6B61 SWAP1 PUSH2 0x81E8 JUMP JUMPDEST SWAP1 POP PUSH2 0x6A66 JUMP JUMPDEST POP DUP2 SWAP3 POP POP POP SWAP3 SWAP2 POP POP JUMP JUMPDEST PUSH1 0x0 DUP1 PUSH1 0x0 SWAP1 POP PUSH1 0x0 PUSH1 0xC PUSH1 0x0 PUSH1 0x1 DUP2 MSTORE PUSH1 0x20 ADD SWAP1 DUP2 MSTORE PUSH1 0x20 ADD PUSH1 0x0 KECCAK256 PUSH1 0x0 SWAP1 SLOAD SWAP1 PUSH2 0x100 EXP SWAP1 DIV PUSH20 0xFFFFFFFFFFFFFFFFFFFFFFFFFFFFFFFFFFFFFFFF AND PUSH20 0xFFFFFFFFFFFFFFFFFFFFFFFFFFFFFFFFFFFFFFFF AND PUSH4 0x70A08231 DUP6 PUSH1 0x40 MLOAD DUP3 PUSH4 0xFFFFFFFF AND PUSH1 0xE0 SHL DUP2 MSTORE PUSH1 0x4 ADD PUSH2 0x6BEA SWAP2 SWAP1 PUSH2 0x7CA9 JUMP JUMPDEST PUSH1 0x20 PUSH1 0x40 MLOAD DUP1 DUP4 SUB DUP2 DUP7 GAS STATICCALL ISZERO DUP1 ISZERO PUSH2 0x6C07 JUMPI RETURNDATASIZE PUSH1 0x0 DUP1 RETURNDATACOPY RETURNDATASIZE PUSH1 0x0 REVERT JUMPDEST POP POP POP POP PUSH1 0x40 MLOAD RETURNDATASIZE PUSH1 0x1F NOT PUSH1 0x1F DUP3 ADD AND DUP3 ADD DUP1 PUSH1 0x40 MSTORE POP DUP2 ADD SWAP1 PUSH2 0x6C2B SWAP2 SWAP1 PUSH2 0x8246 JUMP JUMPDEST SWAP1 POP PUSH1 0x0 JUMPDEST DUP2 DUP2 LT ISZERO PUSH2 0x6DEA JUMPI PUSH1 0x0 PUSH1 0xC PUSH1 0x0 PUSH1 0x1 DUP2 MSTORE PUSH1 0x20 ADD SWAP1 DUP2 MSTORE PUSH1 0x20 ADD PUSH1 0x0 KECCAK256 PUSH1 0x0 SWAP1 SLOAD SWAP1 PUSH2 0x100 EXP SWAP1 DIV PUSH20 0xFFFFFFFFFFFFFFFFFFFFFFFFFFFFFFFFFFFFFFFF AND PUSH20 0xFFFFFFFFFFFFFFFFFFFFFFFFFFFFFFFFFFFFFFFF AND PUSH4 0x2F745C59 DUP8 DUP5 PUSH1 0x40 MLOAD DUP4 PUSH4 0xFFFFFFFF AND PUSH1 0xE0 SHL DUP2 MSTORE PUSH1 0x4 ADD PUSH2 0x6CA9 SWAP3 SWAP2 SWAP1 PUSH2 0x85E8 JUMP JUMPDEST PUSH1 0x20 PUSH1 0x40 MLOAD DUP1 DUP4 SUB DUP2 DUP7 GAS STATICCALL ISZERO DUP1 ISZERO PUSH2 0x6CC6 JUMPI RETURNDATASIZE PUSH1 0x0 DUP1 RETURNDATACOPY RETURNDATASIZE PUSH1 0x0 REVERT JUMPDEST POP POP POP POP PUSH1 0x40 MLOAD RETURNDATASIZE PUSH1 0x1F NOT PUSH1 0x1F DUP3 ADD AND DUP3 ADD DUP1 PUSH1 0x40 MSTORE POP DUP2 ADD SWAP1 PUSH2 0x6CEA SWAP2 SWAP1 PUSH2 0x8246 JUMP JUMPDEST SWAP1 POP PUSH1 0xE PUSH1 0x0 PUSH1 0x1 DUP2 MSTORE PUSH1 0x20 ADD SWAP1 DUP2 MSTORE PUSH1 0x20 ADD PUSH1 0x0 KECCAK256 PUSH1 0x0 DUP3 DUP2 MSTORE PUSH1 0x20 ADD SWAP1 DUP2 MSTORE PUSH1 0x20 ADD PUSH1 0x0 KECCAK256 PUSH1 0x0 ADD PUSH1 0x1F SWAP1 SLOAD SWAP1 PUSH2 0x100 EXP SWAP1 DIV PUSH1 0xFF AND ISZERO PUSH2 0x6DD8 JUMPI PUSH1 0x0 PUSH1 0xE PUSH1 0x0 PUSH1 0x1 DUP2 MSTORE PUSH1 0x20 ADD SWAP1 DUP2 MSTORE PUSH1 0x20 ADD PUSH1 0x0 KECCAK256 PUSH1 0x0 DUP4 DUP2 MSTORE PUSH1 0x20 ADD SWAP1 DUP2 MSTORE PUSH1 0x20 ADD PUSH1 0x0 KECCAK256 PUSH1 0x0 ADD PUSH1 0x0 SWAP1 SLOAD SWAP1 PUSH2 0x100 EXP SWAP1 DIV PUSH31 0xFFFFFFFFFFFFFFFFFFFFFFFFFFFFFFFFFFFFFFFFFFFFFFFFFFFFFFFFFFFFFF AND PUSH31 0xFFFFFFFFFFFFFFFFFFFFFFFFFFFFFFFFFFFFFFFFFFFFFFFFFFFFFFFFFFFFFF AND SWAP1 POP PUSH1 0xD PUSH1 0x0 PUSH1 0x3 DUP2 MSTORE PUSH1 0x20 ADD SWAP1 DUP2 MSTORE PUSH1 0x20 ADD PUSH1 0x0 KECCAK256 PUSH1 0x0 DUP3 DUP2 MSTORE PUSH1 0x20 ADD SWAP1 DUP2 MSTORE PUSH1 0x20 ADD PUSH1 0x0 KECCAK256 PUSH1 0x0 ADD SLOAD DUP6 PUSH2 0x6DD4 SWAP2 SWAP1 PUSH2 0x8134 JUMP JUMPDEST SWAP5 POP POP JUMPDEST POP DUP1 PUSH2 0x6DE3 SWAP1 PUSH2 0x81E8 JUMP JUMPDEST SWAP1 POP PUSH2 0x6C30 JUMP JUMPDEST POP PUSH1 0xC PUSH1 0x0 PUSH1 0x2 DUP2 MSTORE PUSH1 0x20 ADD SWAP1 DUP2 MSTORE PUSH1 0x20 ADD PUSH1 0x0 KECCAK256 PUSH1 0x0 SWAP1 SLOAD SWAP1 PUSH2 0x100 EXP SWAP1 DIV PUSH20 0xFFFFFFFFFFFFFFFFFFFFFFFFFFFFFFFFFFFFFFFF AND PUSH20 0xFFFFFFFFFFFFFFFFFFFFFFFFFFFFFFFFFFFFFFFF AND PUSH4 0x70A08231 DUP6 PUSH1 0x40 MLOAD DUP3 PUSH4 0xFFFFFFFF AND PUSH1 0xE0 SHL DUP2 MSTORE PUSH1 0x4 ADD PUSH2 0x6E58 SWAP2 SWAP1 PUSH2 0x7CA9 JUMP JUMPDEST PUSH1 0x20 PUSH1 0x40 MLOAD DUP1 DUP4 SUB DUP2 DUP7 GAS STATICCALL ISZERO DUP1 ISZERO PUSH2 0x6E75 JUMPI RETURNDATASIZE PUSH1 0x0 DUP1 RETURNDATACOPY RETURNDATASIZE PUSH1 0x0 REVERT JUMPDEST POP POP POP POP PUSH1 0x40 MLOAD RETURNDATASIZE PUSH1 0x1F NOT PUSH1 0x1F DUP3 ADD AND DUP3 ADD DUP1 PUSH1 0x40 MSTORE POP DUP2 ADD SWAP1 PUSH2 0x6E99 SWAP2 SWAP1 PUSH2 0x8246 JUMP JUMPDEST SWAP1 POP PUSH1 0x0 JUMPDEST DUP2 DUP2 LT ISZERO PUSH2 0x7058 JUMPI PUSH1 0x0 PUSH1 0xC PUSH1 0x0 PUSH1 0x2 DUP2 MSTORE PUSH1 0x20 ADD SWAP1 DUP2 MSTORE PUSH1 0x20 ADD PUSH1 0x0 KECCAK256 PUSH1 0x0 SWAP1 SLOAD SWAP1 PUSH2 0x100 EXP SWAP1 DIV PUSH20 0xFFFFFFFFFFFFFFFFFFFFFFFFFFFFFFFFFFFFFFFF AND PUSH20 0xFFFFFFFFFFFFFFFFFFFFFFFFFFFFFFFFFFFFFFFF AND PUSH4 0x2F745C59 DUP8 DUP5 PUSH1 0x40 MLOAD DUP4 PUSH4 0xFFFFFFFF AND PUSH1 0xE0 SHL DUP2 MSTORE PUSH1 0x4 ADD PUSH2 0x6F17 SWAP3 SWAP2 SWAP1 PUSH2 0x85E8 JUMP JUMPDEST PUSH1 0x20 PUSH1 0x40 MLOAD DUP1 DUP4 SUB DUP2 DUP7 GAS STATICCALL ISZERO DUP1 ISZERO PUSH2 0x6F34 JUMPI RETURNDATASIZE PUSH1 0x0 DUP1 RETURNDATACOPY RETURNDATASIZE PUSH1 0x0 REVERT JUMPDEST POP POP POP POP PUSH1 0x40 MLOAD RETURNDATASIZE PUSH1 0x1F NOT PUSH1 0x1F DUP3 ADD AND DUP3 ADD DUP1 PUSH1 0x40 MSTORE POP DUP2 ADD SWAP1 PUSH2 0x6F58 SWAP2 SWAP1 PUSH2 0x8246 JUMP JUMPDEST SWAP1 POP PUSH1 0xE PUSH1 0x0 PUSH1 0x2 DUP2 MSTORE PUSH1 0x20 ADD SWAP1 DUP2 MSTORE PUSH1 0x20 ADD PUSH1 0x0 KECCAK256 PUSH1 0x0 DUP3 DUP2 MSTORE PUSH1 0x20 ADD SWAP1 DUP2 MSTORE PUSH1 0x20 ADD PUSH1 0x0 KECCAK256 PUSH1 0x0 ADD PUSH1 0x1F SWAP1 SLOAD SWAP1 PUSH2 0x100 EXP SWAP1 DIV PUSH1 0xFF AND ISZERO PUSH2 0x7046 JUMPI PUSH1 0x0 PUSH1 0xE PUSH1 0x0 PUSH1 0x2 DUP2 MSTORE PUSH1 0x20 ADD SWAP1 DUP2 MSTORE PUSH1 0x20 ADD PUSH1 0x0 KECCAK256 PUSH1 0x0 DUP4 DUP2 MSTORE PUSH1 0x20 ADD SWAP1 DUP2 MSTORE PUSH1 0x20 ADD PUSH1 0x0 KECCAK256 PUSH1 0x0 ADD PUSH1 0x0 SWAP1 SLOAD SWAP1 PUSH2 0x100 EXP SWAP1 DIV PUSH31 0xFFFFFFFFFFFFFFFFFFFFFFFFFFFFFFFFFFFFFFFFFFFFFFFFFFFFFFFFFFFFFF AND PUSH31 0xFFFFFFFFFFFFFFFFFFFFFFFFFFFFFFFFFFFFFFFFFFFFFFFFFFFFFFFFFFFFFF AND SWAP1 POP PUSH1 0xD PUSH1 0x0 PUSH1 0x3 DUP2 MSTORE PUSH1 0x20 ADD SWAP1 DUP2 MSTORE PUSH1 0x20 ADD PUSH1 0x0 KECCAK256 PUSH1 0x0 DUP3 DUP2 MSTORE PUSH1 0x20 ADD SWAP1 DUP2 MSTORE PUSH1 0x20 ADD PUSH1 0x0 KECCAK256 PUSH1 0x0 ADD SLOAD DUP6 PUSH2 0x7042 SWAP2 SWAP1 PUSH2 0x8134 JUMP JUMPDEST SWAP5 POP POP JUMPDEST POP DUP1 PUSH2 0x7051 SWAP1 PUSH2 0x81E8 JUMP JUMPDEST SWAP1 POP PUSH2 0x6E9E JUMP JUMPDEST POP DUP2 SWAP3 POP POP POP SWAP2 SWAP1 POP JUMP JUMPDEST PUSH8 0xDE0B6B3A7640000 PUSH1 0x1 PUSH2 0x7078 SWAP2 SWAP1 PUSH2 0x8273 JUMP JUMPDEST DUP2 LT ISZERO PUSH2 0x70B1 JUMPI PUSH1 0x40 MLOAD PUSH32 0x50E75A8000000000000000000000000000000000000000000000000000000000 DUP2 MSTORE PUSH1 0x4 ADD PUSH1 0x40 MLOAD DUP1 SWAP2 SUB SWAP1 REVERT JUMPDEST PUSH1 0x4 DUP4 PUSH1 0x4 DUP2 LT PUSH2 0x70C5 JUMPI PUSH2 0x70C4 PUSH2 0x81B9 JUMP JUMPDEST JUMPDEST PUSH1 0x2 MUL ADD PUSH1 0x1 ADD PUSH1 0x4 DUP5 PUSH1 0x4 DUP2 LT PUSH2 0x70E0 JUMPI PUSH2 0x70DF PUSH2 0x81B9 JUMP JUMPDEST JUMPDEST PUSH1 0x2 MUL ADD PUSH1 0x0 ADD PUSH1 0x6 SWAP1 SLOAD SWAP1 PUSH2 0x100 EXP SWAP1 DIV PUSH2 0xFFFF AND PUSH2 0xFFFF AND DUP2 SLOAD DUP2 LT PUSH2 0x710B JUMPI PUSH2 0x710A PUSH2 0x81B9 JUMP JUMPDEST JUMPDEST SWAP1 PUSH1 0x0 MSTORE PUSH1 0x20 PUSH1 0x0 KECCAK256 SWAP1 PUSH1 0x2 MUL ADD PUSH1 0x1 ADD PUSH1 0x0 SWAP1 SLOAD SWAP1 PUSH2 0x100 EXP SWAP1 DIV PUSH12 0xFFFFFFFFFFFFFFFFFFFFFFFF AND PUSH12 0xFFFFFFFFFFFFFFFFFFFFFFFF AND DUP3 PUSH1 0x0 ADD SLOAD DUP3 PUSH2 0x7153 SWAP2 SWAP1 PUSH2 0x8134 JUMP JUMPDEST GT ISZERO PUSH2 0x718B JUMPI PUSH1 0x40 MLOAD PUSH32 0xF03AC37400000000000000000000000000000000000000000000000000000000 DUP2 MSTORE PUSH1 0x4 ADD PUSH1 0x40 MLOAD DUP1 SWAP2 SUB SWAP1 REVERT JUMPDEST PUSH2 0x7196 DUP4 DUP4 DUP4 PUSH2 0x5C6C JUMP JUMPDEST POP POP POP JUMP JUMPDEST PUSH1 0x0 CALLER SWAP1 POP SWAP1 JUMP JUMPDEST PUSH1 0x40 MLOAD DUP1 PUSH1 0xC0 ADD PUSH1 0x40 MSTORE DUP1 PUSH1 0x0 DUP2 MSTORE PUSH1 0x20 ADD PUSH1 0x0 DUP2 MSTORE PUSH1 0x20 ADD PUSH1 0x0 DUP2 MSTORE PUSH1 0x20 ADD PUSH1 0x0 DUP2 MSTORE PUSH1 0x20 ADD PUSH1 0x0 DUP2 MSTORE PUSH1 0x20 ADD PUSH2 0x71D9 PUSH2 0x72EF JUMP JUMPDEST DUP2 MSTORE POP SWAP1 JUMP JUMPDEST PUSH1 0x40 MLOAD DUP1 PUSH1 0x80 ADD PUSH1 0x40 MSTORE DUP1 PUSH1 0x0 PUSH6 0xFFFFFFFFFFFF AND DUP2 MSTORE PUSH1 0x20 ADD PUSH1 0x0 PUSH6 0xFFFFFFFFFFFF AND DUP2 MSTORE PUSH1 0x20 ADD PUSH1 0x0 PUSH12 0xFFFFFFFFFFFFFFFFFFFFFFFF AND DUP2 MSTORE PUSH1 0x20 ADD PUSH1 0x0 PUSH12 0xFFFFFFFFFFFFFFFFFFFFFFFF AND DUP2 MSTORE POP SWAP1 JUMP JUMPDEST PUSH1 0x40 MLOAD DUP1 PUSH1 0x60 ADD PUSH1 0x40 MSTORE DUP1 PUSH1 0x0 DUP2 MSTORE PUSH1 0x20 ADD PUSH1 0x0 DUP2 MSTORE PUSH1 0x20 ADD PUSH2 0x7254 PUSH2 0x71DF JUMP JUMPDEST DUP2 MSTORE POP SWAP1 JUMP JUMPDEST PUSH1 0x40 MLOAD DUP1 PUSH1 0x80 ADD PUSH1 0x40 MSTORE DUP1 PUSH1 0x0 PUSH4 0xFFFFFFFF AND DUP2 MSTORE PUSH1 0x20 ADD PUSH1 0x0 PUSH4 0xFFFFFFFF AND DUP2 MSTORE PUSH1 0x20 ADD PUSH1 0x0 PUSH23 0xFFFFFFFFFFFFFFFFFFFFFFFFFFFFFFFFFFFFFFFFFFFFFF AND DUP2 MSTORE PUSH1 0x20 ADD PUSH1 0x0 ISZERO ISZERO DUP2 MSTORE POP SWAP1 JUMP JUMPDEST PUSH1 0x40 MLOAD DUP1 PUSH1 0x60 ADD PUSH1 0x40 MSTORE DUP1 PUSH1 0x0 PUSH4 0xFFFFFFFF AND DUP2 MSTORE PUSH1 0x20 ADD PUSH1 0x0 PUSH4 0xFFFFFFFF AND DUP2 MSTORE PUSH1 0x20 ADD PUSH1 0x0 PUSH23 0xFFFFFFFFFFFFFFFFFFFFFFFFFFFFFFFFFFFFFFFFFFFFFF AND DUP2 MSTORE POP SWAP1 JUMP JUMPDEST PUSH1 0x40 MLOAD DUP1 PUSH1 0x40 ADD PUSH1 0x40 MSTORE DUP1 PUSH1 0x0 DUP2 MSTORE PUSH1 0x20 ADD PUSH1 0x0 DUP2 MSTORE POP SWAP1 JUMP JUMPDEST PUSH1 0x0 PUSH1 0x40 MLOAD SWAP1 POP SWAP1 JUMP JUMPDEST PUSH1 0x0 DUP1 REVERT JUMPDEST PUSH1 0x0 DUP1 REVERT JUMPDEST PUSH1 0x0 PUSH20 0xFFFFFFFFFFFFFFFFFFFFFFFFFFFFFFFFFFFFFFFF DUP3 AND SWAP1 POP SWAP2 SWAP1 POP JUMP JUMPDEST PUSH1 0x0 PUSH2 0x7348 DUP3 PUSH2 0x731D JUMP JUMPDEST SWAP1 POP SWAP2 SWAP1 POP JUMP JUMPDEST PUSH2 0x7358 DUP2 PUSH2 0x733D JUMP JUMPDEST DUP2 EQ PUSH2 0x7363 JUMPI PUSH1 0x0 DUP1 REVERT JUMPDEST POP JUMP JUMPDEST PUSH1 0x0 DUP2 CALLDATALOAD SWAP1 POP PUSH2 0x7375 DUP2 PUSH2 0x734F JUMP JUMPDEST SWAP3 SWAP2 POP POP JUMP JUMPDEST PUSH1 0x0 PUSH1 0x20 DUP3 DUP5 SUB SLT ISZERO PUSH2 0x7391 JUMPI PUSH2 0x7390 PUSH2 0x7313 JUMP JUMPDEST JUMPDEST PUSH1 0x0 PUSH2 0x739F DUP5 DUP3 DUP6 ADD PUSH2 0x7366 JUMP JUMPDEST SWAP2 POP POP SWAP3 SWAP2 POP POP JUMP JUMPDEST PUSH1 0x0 DUP2 MLOAD SWAP1 POP SWAP2 SWAP1 POP JUMP JUMPDEST PUSH1 0x0 DUP3 DUP3 MSTORE PUSH1 0x20 DUP3 ADD SWAP1 POP SWAP3 SWAP2 POP POP JUMP JUMPDEST PUSH1 0x0 DUP2 SWAP1 POP PUSH1 0x20 DUP3 ADD SWAP1 POP SWAP2 SWAP1 POP JUMP JUMPDEST PUSH1 0x0 DUP2 SWAP1 POP SWAP2 SWAP1 POP JUMP JUMPDEST PUSH2 0x73E7 DUP2 PUSH2 0x73D4 JUMP JUMPDEST DUP3 MSTORE POP POP JUMP JUMPDEST PUSH1 0x40 DUP3 ADD PUSH1 0x0 DUP3 ADD MLOAD PUSH2 0x7403 PUSH1 0x0 DUP6 ADD DUP3 PUSH2 0x73DE JUMP JUMPDEST POP PUSH1 0x20 DUP3 ADD MLOAD PUSH2 0x7416 PUSH1 0x20 DUP6 ADD DUP3 PUSH2 0x73DE JUMP JUMPDEST POP POP POP POP JUMP JUMPDEST PUSH1 0xE0 DUP3 ADD PUSH1 0x0 DUP3 ADD MLOAD PUSH2 0x7432 PUSH1 0x0 DUP6 ADD DUP3 PUSH2 0x73DE JUMP JUMPDEST POP PUSH1 0x20 DUP3 ADD MLOAD PUSH2 0x7445 PUSH1 0x20 DUP6 ADD DUP3 PUSH2 0x73DE JUMP JUMPDEST POP PUSH1 0x40 DUP3 ADD MLOAD PUSH2 0x7458 PUSH1 0x40 DUP6 ADD DUP3 PUSH2 0x73DE JUMP JUMPDEST POP PUSH1 0x60 DUP3 ADD MLOAD PUSH2 0x746B PUSH1 0x60 DUP6 ADD DUP3 PUSH2 0x73DE JUMP JUMPDEST POP PUSH1 0x80 DUP3 ADD MLOAD PUSH2 0x747E PUSH1 0x80 DUP6 ADD DUP3 PUSH2 0x73DE JUMP JUMPDEST POP PUSH1 0xA0 DUP3 ADD MLOAD PUSH2 0x7491 PUSH1 0xA0 DUP6 ADD DUP3 PUSH2 0x73ED JUMP JUMPDEST POP POP POP POP JUMP JUMPDEST PUSH1 0x0 PUSH2 0x74A3 DUP4 DUP4 PUSH2 0x741C JUMP JUMPDEST PUSH1 0xE0 DUP4 ADD SWAP1 POP SWAP3 SWAP2 POP POP JUMP JUMPDEST PUSH1 0x0 PUSH1 0x20 DUP3 ADD SWAP1 POP SWAP2 SWAP1 POP JUMP JUMPDEST PUSH1 0x0 PUSH2 0x74C7 DUP3 PUSH2 0x73A8 JUMP JUMPDEST PUSH2 0x74D1 DUP2 DUP6 PUSH2 0x73B3 JUMP JUMPDEST SWAP4 POP PUSH2 0x74DC DUP4 PUSH2 0x73C4 JUMP JUMPDEST DUP1 PUSH1 0x0 JUMPDEST DUP4 DUP2 LT ISZERO PUSH2 0x750D JUMPI DUP2 MLOAD PUSH2 0x74F4 DUP9 DUP3 PUSH2 0x7497 JUMP JUMPDEST SWAP8 POP PUSH2 0x74FF DUP4 PUSH2 0x74AF JUMP JUMPDEST SWAP3 POP POP PUSH1 0x1 DUP2 ADD SWAP1 POP PUSH2 0x74E0 JUMP JUMPDEST POP DUP6 SWAP4 POP POP POP POP SWAP3 SWAP2 POP POP JUMP JUMPDEST PUSH1 0x0 PUSH1 0x20 DUP3 ADD SWAP1 POP DUP2 DUP2 SUB PUSH1 0x0 DUP4 ADD MSTORE PUSH2 0x7534 DUP2 DUP5 PUSH2 0x74BC JUMP JUMPDEST SWAP1 POP SWAP3 SWAP2 POP POP JUMP JUMPDEST PUSH2 0x7545 DUP2 PUSH2 0x73D4 JUMP JUMPDEST DUP3 MSTORE POP POP JUMP JUMPDEST PUSH1 0x0 DUP2 SWAP1 POP SWAP2 SWAP1 POP JUMP JUMPDEST PUSH2 0x755E DUP2 PUSH2 0x754B JUMP JUMPDEST DUP3 MSTORE POP POP JUMP JUMPDEST PUSH1 0x0 PUSH1 0x40 DUP3 ADD SWAP1 POP PUSH2 0x7579 PUSH1 0x0 DUP4 ADD DUP6 PUSH2 0x753C JUMP JUMPDEST PUSH2 0x7586 PUSH1 0x20 DUP4 ADD DUP5 PUSH2 0x7555 JUMP JUMPDEST SWAP4 SWAP3 POP POP POP JUMP JUMPDEST PUSH1 0x0 DUP1 REVERT JUMPDEST PUSH1 0x0 DUP1 REVERT JUMPDEST PUSH1 0x0 DUP1 REVERT JUMPDEST PUSH1 0x0 DUP1 DUP4 PUSH1 0x1F DUP5 ADD SLT PUSH2 0x75B2 JUMPI PUSH2 0x75B1 PUSH2 0x758D JUMP JUMPDEST JUMPDEST DUP3 CALLDATALOAD SWAP1 POP PUSH8 0xFFFFFFFFFFFFFFFF DUP2 GT ISZERO PUSH2 0x75CF JUMPI PUSH2 0x75CE PUSH2 0x7592 JUMP JUMPDEST JUMPDEST PUSH1 0x20 DUP4 ADD SWAP2 POP DUP4 PUSH1 0x40 DUP3 MUL DUP4 ADD GT ISZERO PUSH2 0x75EB JUMPI PUSH2 0x75EA PUSH2 0x7597 JUMP JUMPDEST JUMPDEST SWAP3 POP SWAP3 SWAP1 POP JUMP JUMPDEST PUSH1 0x0 DUP1 PUSH1 0x0 DUP1 PUSH1 0x0 PUSH1 0x60 DUP7 DUP9 SUB SLT ISZERO PUSH2 0x760E JUMPI PUSH2 0x760D PUSH2 0x7313 JUMP JUMPDEST JUMPDEST PUSH1 0x0 DUP7 ADD CALLDATALOAD PUSH8 0xFFFFFFFFFFFFFFFF DUP2 GT ISZERO PUSH2 0x762C JUMPI PUSH2 0x762B PUSH2 0x7318 JUMP JUMPDEST JUMPDEST PUSH2 0x7638 DUP9 DUP3 DUP10 ADD PUSH2 0x759C JUMP JUMPDEST SWAP6 POP SWAP6 POP POP PUSH1 0x20 DUP7 ADD CALLDATALOAD PUSH8 0xFFFFFFFFFFFFFFFF DUP2 GT ISZERO PUSH2 0x765B JUMPI PUSH2 0x765A PUSH2 0x7318 JUMP JUMPDEST JUMPDEST PUSH2 0x7667 DUP9 DUP3 DUP10 ADD PUSH2 0x759C JUMP JUMPDEST SWAP4 POP SWAP4 POP POP PUSH1 0x40 PUSH2 0x767A DUP9 DUP3 DUP10 ADD PUSH2 0x7366 JUMP JUMPDEST SWAP2 POP POP SWAP3 SWAP6 POP SWAP3 SWAP6 SWAP1 SWAP4 POP JUMP JUMPDEST PUSH2 0x7690 DUP2 PUSH2 0x73D4 JUMP JUMPDEST DUP2 EQ PUSH2 0x769B JUMPI PUSH1 0x0 DUP1 REVERT JUMPDEST POP JUMP JUMPDEST PUSH1 0x0 DUP2 CALLDATALOAD SWAP1 POP PUSH2 0x76AD DUP2 PUSH2 0x7687 JUMP JUMPDEST SWAP3 SWAP2 POP POP JUMP JUMPDEST PUSH1 0x0 DUP1 PUSH1 0x40 DUP4 DUP6 SUB SLT ISZERO PUSH2 0x76CA JUMPI PUSH2 0x76C9 PUSH2 0x7313 JUMP JUMPDEST JUMPDEST PUSH1 0x0 PUSH2 0x76D8 DUP6 DUP3 DUP7 ADD PUSH2 0x769E JUMP JUMPDEST SWAP3 POP POP PUSH1 0x20 PUSH2 0x76E9 DUP6 DUP3 DUP7 ADD PUSH2 0x769E JUMP JUMPDEST SWAP2 POP POP SWAP3 POP SWAP3 SWAP1 POP JUMP JUMPDEST PUSH1 0x0 PUSH6 0xFFFFFFFFFFFF DUP3 AND SWAP1 POP SWAP2 SWAP1 POP JUMP JUMPDEST PUSH2 0x770E DUP2 PUSH2 0x76F3 JUMP JUMPDEST DUP3 MSTORE POP POP JUMP JUMPDEST PUSH1 0x0 PUSH12 0xFFFFFFFFFFFFFFFFFFFFFFFF DUP3 AND SWAP1 POP SWAP2 SWAP1 POP JUMP JUMPDEST PUSH2 0x7735 DUP2 PUSH2 0x7714 JUMP JUMPDEST DUP3 MSTORE POP POP JUMP JUMPDEST PUSH1 0x80 DUP3 ADD PUSH1 0x0 DUP3 ADD MLOAD PUSH2 0x7751 PUSH1 0x0 DUP6 ADD DUP3 PUSH2 0x7705 JUMP JUMPDEST POP PUSH1 0x20 DUP3 ADD MLOAD PUSH2 0x7764 PUSH1 0x20 DUP6 ADD DUP3 PUSH2 0x7705 JUMP JUMPDEST POP PUSH1 0x40 DUP3 ADD MLOAD PUSH2 0x7777 PUSH1 0x40 DUP6 ADD DUP3 PUSH2 0x772C JUMP JUMPDEST POP PUSH1 0x60 DUP3 ADD MLOAD PUSH2 0x778A PUSH1 0x60 DUP6 ADD DUP3 PUSH2 0x772C JUMP JUMPDEST POP POP POP POP JUMP JUMPDEST PUSH1 0x0 PUSH1 0x80 DUP3 ADD SWAP1 POP PUSH2 0x77A5 PUSH1 0x0 DUP4 ADD DUP5 PUSH2 0x773B JUMP JUMPDEST SWAP3 SWAP2 POP POP JUMP JUMPDEST PUSH1 0x0 PUSH1 0x20 DUP3 DUP5 SUB SLT ISZERO PUSH2 0x77C1 JUMPI PUSH2 0x77C0 PUSH2 0x7313 JUMP JUMPDEST JUMPDEST PUSH1 0x0 PUSH2 0x77CF DUP5 DUP3 DUP6 ADD PUSH2 0x769E JUMP JUMPDEST SWAP2 POP POP SWAP3 SWAP2 POP POP JUMP JUMPDEST PUSH1 0x0 DUP2 SWAP1 POP SWAP2 SWAP1 POP JUMP JUMPDEST PUSH1 0x0 PUSH2 0x77FD PUSH2 0x77F8 PUSH2 0x77F3 DUP5 PUSH2 0x731D JUMP JUMPDEST PUSH2 0x77D8 JUMP JUMPDEST PUSH2 0x731D JUMP JUMPDEST SWAP1 POP SWAP2 SWAP1 POP JUMP JUMPDEST PUSH1 0x0 PUSH2 0x780F DUP3 PUSH2 0x77E2 JUMP JUMPDEST SWAP1 POP SWAP2 SWAP1 POP JUMP JUMPDEST PUSH1 0x0 PUSH2 0x7821 DUP3 PUSH2 0x7804 JUMP JUMPDEST SWAP1 POP SWAP2 SWAP1 POP JUMP JUMPDEST PUSH2 0x7831 DUP2 PUSH2 0x7816 JUMP JUMPDEST DUP3 MSTORE POP POP JUMP JUMPDEST PUSH1 0x0 PUSH1 0x20 DUP3 ADD SWAP1 POP PUSH2 0x784C PUSH1 0x0 DUP4 ADD DUP5 PUSH2 0x7828 JUMP JUMPDEST SWAP3 SWAP2 POP POP JUMP JUMPDEST PUSH1 0x0 DUP1 DUP4 PUSH1 0x1F DUP5 ADD SLT PUSH2 0x7868 JUMPI PUSH2 0x7867 PUSH2 0x758D JUMP JUMPDEST JUMPDEST DUP3 CALLDATALOAD SWAP1 POP PUSH8 0xFFFFFFFFFFFFFFFF DUP2 GT ISZERO PUSH2 0x7885 JUMPI PUSH2 0x7884 PUSH2 0x7592 JUMP JUMPDEST JUMPDEST PUSH1 0x20 DUP4 ADD SWAP2 POP DUP4 PUSH1 0x20 DUP3 MUL DUP4 ADD GT ISZERO PUSH2 0x78A1 JUMPI PUSH2 0x78A0 PUSH2 0x7597 JUMP JUMPDEST JUMPDEST SWAP3 POP SWAP3 SWAP1 POP JUMP JUMPDEST PUSH1 0x0 DUP1 PUSH1 0x20 DUP4 DUP6 SUB SLT ISZERO PUSH2 0x78BF JUMPI PUSH2 0x78BE PUSH2 0x7313 JUMP JUMPDEST JUMPDEST PUSH1 0x0 DUP4 ADD CALLDATALOAD PUSH8 0xFFFFFFFFFFFFFFFF DUP2 GT ISZERO PUSH2 0x78DD JUMPI PUSH2 0x78DC PUSH2 0x7318 JUMP JUMPDEST JUMPDEST PUSH2 0x78E9 DUP6 DUP3 DUP7 ADD PUSH2 0x7852 JUMP JUMPDEST SWAP3 POP SWAP3 POP POP SWAP3 POP SWAP3 SWAP1 POP JUMP JUMPDEST PUSH1 0x0 DUP1 DUP4 PUSH1 0x1F DUP5 ADD SLT PUSH2 0x790B JUMPI PUSH2 0x790A PUSH2 0x758D JUMP JUMPDEST JUMPDEST DUP3 CALLDATALOAD SWAP1 POP PUSH8 0xFFFFFFFFFFFFFFFF DUP2 GT ISZERO PUSH2 0x7928 JUMPI PUSH2 0x7927 PUSH2 0x7592 JUMP JUMPDEST JUMPDEST PUSH1 0x20 DUP4 ADD SWAP2 POP DUP4 PUSH1 0x80 DUP3 MUL DUP4 ADD GT ISZERO PUSH2 0x7944 JUMPI PUSH2 0x7943 PUSH2 0x7597 JUMP JUMPDEST JUMPDEST SWAP3 POP SWAP3 SWAP1 POP JUMP JUMPDEST PUSH1 0x0 DUP1 PUSH1 0x0 DUP1 PUSH1 0x40 DUP6 DUP8 SUB SLT ISZERO PUSH2 0x7965 JUMPI PUSH2 0x7964 PUSH2 0x7313 JUMP JUMPDEST JUMPDEST PUSH1 0x0 DUP6 ADD CALLDATALOAD PUSH8 0xFFFFFFFFFFFFFFFF DUP2 GT ISZERO PUSH2 0x7983 JUMPI PUSH2 0x7982 PUSH2 0x7318 JUMP JUMPDEST JUMPDEST PUSH2 0x798F DUP8 DUP3 DUP9 ADD PUSH2 0x78F5 JUMP JUMPDEST SWAP5 POP SWAP5 POP POP PUSH1 0x20 DUP6 ADD CALLDATALOAD PUSH8 0xFFFFFFFFFFFFFFFF DUP2 GT ISZERO PUSH2 0x79B2 JUMPI PUSH2 0x79B1 PUSH2 0x7318 JUMP JUMPDEST JUMPDEST PUSH2 0x79BE DUP8 DUP3 DUP9 ADD PUSH2 0x78F5 JUMP JUMPDEST SWAP3 POP SWAP3 POP POP SWAP3 SWAP6 SWAP2 SWAP5 POP SWAP3 POP JUMP JUMPDEST PUSH1 0x0 DUP1 PUSH1 0x0 PUSH1 0x60 DUP5 DUP7 SUB SLT ISZERO PUSH2 0x79E5 JUMPI PUSH2 0x79E4 PUSH2 0x7313 JUMP JUMPDEST JUMPDEST PUSH1 0x0 PUSH2 0x79F3 DUP7 DUP3 DUP8 ADD PUSH2 0x769E JUMP JUMPDEST SWAP4 POP POP PUSH1 0x20 PUSH2 0x7A04 DUP7 DUP3 DUP8 ADD PUSH2 0x7366 JUMP JUMPDEST SWAP3 POP POP PUSH1 0x40 PUSH2 0x7A15 DUP7 DUP3 DUP8 ADD PUSH2 0x769E JUMP JUMPDEST SWAP2 POP POP SWAP3 POP SWAP3 POP SWAP3 JUMP JUMPDEST PUSH1 0x0 PUSH1 0x20 DUP3 ADD SWAP1 POP PUSH2 0x7A34 PUSH1 0x0 DUP4 ADD DUP5 PUSH2 0x753C JUMP JUMPDEST SWAP3 SWAP2 POP POP JUMP JUMPDEST PUSH1 0x0 PUSH31 0xFFFFFFFFFFFFFFFFFFFFFFFFFFFFFFFFFFFFFFFFFFFFFFFFFFFFFFFFFFFFFF DUP3 AND SWAP1 POP SWAP2 SWAP1 POP JUMP JUMPDEST PUSH2 0x7A6E DUP2 PUSH2 0x7A3A JUMP JUMPDEST DUP3 MSTORE POP POP JUMP JUMPDEST PUSH1 0x0 DUP2 ISZERO ISZERO SWAP1 POP SWAP2 SWAP1 POP JUMP JUMPDEST PUSH2 0x7A89 DUP2 PUSH2 0x7A74 JUMP JUMPDEST DUP3 MSTORE POP POP JUMP JUMPDEST PUSH1 0x0 PUSH1 0x40 DUP3 ADD SWAP1 POP PUSH2 0x7AA4 PUSH1 0x0 DUP4 ADD DUP6 PUSH2 0x7A65 JUMP JUMPDEST PUSH2 0x7AB1 PUSH1 0x20 DUP4 ADD DUP5 PUSH2 0x7A80 JUMP JUMPDEST SWAP4 SWAP3 POP POP POP JUMP JUMPDEST PUSH1 0x0 DUP1 DUP4 PUSH1 0x1F DUP5 ADD SLT PUSH2 0x7ACE JUMPI PUSH2 0x7ACD PUSH2 0x758D JUMP JUMPDEST JUMPDEST DUP3 CALLDATALOAD SWAP1 POP PUSH8 0xFFFFFFFFFFFFFFFF DUP2 GT ISZERO PUSH2 0x7AEB JUMPI PUSH2 0x7AEA PUSH2 0x7592 JUMP JUMPDEST JUMPDEST PUSH1 0x20 DUP4 ADD SWAP2 POP DUP4 PUSH1 0x40 DUP3 MUL DUP4 ADD GT ISZERO PUSH2 0x7B07 JUMPI PUSH2 0x7B06 PUSH2 0x7597 JUMP JUMPDEST JUMPDEST SWAP3 POP SWAP3 SWAP1 POP JUMP JUMPDEST PUSH1 0x0 DUP1 PUSH1 0x20 DUP4 DUP6 SUB SLT ISZERO PUSH2 0x7B25 JUMPI PUSH2 0x7B24 PUSH2 0x7313 JUMP JUMPDEST JUMPDEST PUSH1 0x0 DUP4 ADD CALLDATALOAD PUSH8 0xFFFFFFFFFFFFFFFF DUP2 GT ISZERO PUSH2 0x7B43 JUMPI PUSH2 0x7B42 PUSH2 0x7318 JUMP JUMPDEST JUMPDEST PUSH2 0x7B4F DUP6 DUP3 DUP7 ADD PUSH2 0x7AB8 JUMP JUMPDEST SWAP3 POP SWAP3 POP POP SWAP3 POP SWAP3 SWAP1 POP JUMP JUMPDEST PUSH1 0x0 DUP1 PUSH1 0x0 PUSH1 0x40 DUP5 DUP7 SUB SLT ISZERO PUSH2 0x7B74 JUMPI PUSH2 0x7B73 PUSH2 0x7313 JUMP JUMPDEST JUMPDEST PUSH1 0x0 DUP5 ADD CALLDATALOAD PUSH8 0xFFFFFFFFFFFFFFFF DUP2 GT ISZERO PUSH2 0x7B92 JUMPI PUSH2 0x7B91 PUSH2 0x7318 JUMP JUMPDEST JUMPDEST PUSH2 0x7B9E DUP7 DUP3 DUP8 ADD PUSH2 0x7852 JUMP JUMPDEST SWAP4 POP SWAP4 POP POP PUSH1 0x20 PUSH2 0x7BB1 DUP7 DUP3 DUP8 ADD PUSH2 0x7366 JUMP JUMPDEST SWAP2 POP POP SWAP3 POP SWAP3 POP SWAP3 JUMP JUMPDEST PUSH1 0x80 DUP3 ADD PUSH1 0x0 DUP3 ADD MLOAD PUSH2 0x7BD1 PUSH1 0x0 DUP6 ADD DUP3 PUSH2 0x7705 JUMP JUMPDEST POP PUSH1 0x20 DUP3 ADD MLOAD PUSH2 0x7BE4 PUSH1 0x20 DUP6 ADD DUP3 PUSH2 0x7705 JUMP JUMPDEST POP PUSH1 0x40 DUP3 ADD MLOAD PUSH2 0x7BF7 PUSH1 0x40 DUP6 ADD DUP3 PUSH2 0x772C JUMP JUMPDEST POP PUSH1 0x60 DUP3 ADD MLOAD PUSH2 0x7C0A PUSH1 0x60 DUP6 ADD DUP3 PUSH2 0x772C JUMP JUMPDEST POP POP POP POP JUMP JUMPDEST PUSH1 0xC0 DUP3 ADD PUSH1 0x0 DUP3 ADD MLOAD PUSH2 0x7C26 PUSH1 0x0 DUP6 ADD DUP3 PUSH2 0x73DE JUMP JUMPDEST POP PUSH1 0x20 DUP3 ADD MLOAD PUSH2 0x7C39 PUSH1 0x20 DUP6 ADD DUP3 PUSH2 0x73DE JUMP JUMPDEST POP PUSH1 0x40 DUP3 ADD MLOAD PUSH2 0x7C4C PUSH1 0x40 DUP6 ADD DUP3 PUSH2 0x7BBB JUMP JUMPDEST POP POP POP POP JUMP JUMPDEST PUSH1 0x0 PUSH2 0x300 DUP3 ADD SWAP1 POP PUSH2 0x7C68 PUSH1 0x0 DUP4 ADD DUP8 PUSH2 0x7C10 JUMP JUMPDEST PUSH2 0x7C75 PUSH1 0xC0 DUP4 ADD DUP7 PUSH2 0x7C10 JUMP JUMPDEST PUSH2 0x7C83 PUSH2 0x180 DUP4 ADD DUP6 PUSH2 0x7C10 JUMP JUMPDEST PUSH2 0x7C91 PUSH2 0x240 DUP4 ADD DUP5 PUSH2 0x7C10 JUMP JUMPDEST SWAP6 SWAP5 POP POP POP POP POP JUMP JUMPDEST PUSH2 0x7CA3 DUP2 PUSH2 0x733D JUMP JUMPDEST DUP3 MSTORE POP POP JUMP JUMPDEST PUSH1 0x0 PUSH1 0x20 DUP3 ADD SWAP1 POP PUSH2 0x7CBE PUSH1 0x0 DUP4 ADD DUP5 PUSH2 0x7C9A JUMP JUMPDEST SWAP3 SWAP2 POP POP JUMP JUMPDEST PUSH2 0x7CCD DUP2 PUSH2 0x76F3 JUMP JUMPDEST DUP3 MSTORE POP POP JUMP JUMPDEST PUSH1 0x0 PUSH2 0xFFFF DUP3 AND SWAP1 POP SWAP2 SWAP1 POP JUMP JUMPDEST PUSH2 0x7CEA DUP2 PUSH2 0x7CD3 JUMP JUMPDEST DUP3 MSTORE POP POP JUMP JUMPDEST PUSH2 0x7CF9 DUP2 PUSH2 0x7714 JUMP JUMPDEST DUP3 MSTORE POP POP JUMP JUMPDEST PUSH1 0x0 PUSH1 0x80 DUP3 ADD SWAP1 POP PUSH2 0x7D14 PUSH1 0x0 DUP4 ADD DUP8 PUSH2 0x7CC4 JUMP JUMPDEST PUSH2 0x7D21 PUSH1 0x20 DUP4 ADD DUP7 PUSH2 0x7CE1 JUMP JUMPDEST PUSH2 0x7D2E PUSH1 0x40 DUP4 ADD DUP6 PUSH2 0x7CF0 JUMP JUMPDEST PUSH2 0x7D3B PUSH1 0x60 DUP4 ADD DUP5 PUSH2 0x7CF0 JUMP JUMPDEST SWAP6 SWAP5 POP POP POP POP POP JUMP JUMPDEST PUSH1 0x0 PUSH2 0x7D4F DUP3 PUSH2 0x7804 JUMP JUMPDEST SWAP1 POP SWAP2 SWAP1 POP JUMP JUMPDEST PUSH2 0x7D5F DUP2 PUSH2 0x7D44 JUMP JUMPDEST DUP3 MSTORE POP POP JUMP JUMPDEST PUSH1 0x0 PUSH1 0x20 DUP3 ADD SWAP1 POP PUSH2 0x7D7A PUSH1 0x0 DUP4 ADD DUP5 PUSH2 0x7D56 JUMP JUMPDEST SWAP3 SWAP2 POP POP JUMP JUMPDEST PUSH1 0x0 DUP1 PUSH1 0x0 PUSH1 0x40 DUP5 DUP7 SUB SLT ISZERO PUSH2 0x7D99 JUMPI PUSH2 0x7D98 PUSH2 0x7313 JUMP JUMPDEST JUMPDEST PUSH1 0x0 DUP5 ADD CALLDATALOAD PUSH8 0xFFFFFFFFFFFFFFFF DUP2 GT ISZERO PUSH2 0x7DB7 JUMPI PUSH2 0x7DB6 PUSH2 0x7318 JUMP JUMPDEST JUMPDEST PUSH2 0x7DC3 DUP7 DUP3 DUP8 ADD PUSH2 0x7AB8 JUMP JUMPDEST SWAP4 POP SWAP4 POP POP PUSH1 0x20 PUSH2 0x7DD6 DUP7 DUP3 DUP8 ADD PUSH2 0x7366 JUMP JUMPDEST SWAP2 POP POP SWAP3 POP SWAP3 POP SWAP3 JUMP JUMPDEST PUSH1 0x0 DUP1 PUSH1 0x0 DUP1 PUSH1 0x0 PUSH1 0xA0 DUP7 DUP9 SUB SLT ISZERO PUSH2 0x7DFC JUMPI PUSH2 0x7DFB PUSH2 0x7313 JUMP JUMPDEST JUMPDEST PUSH1 0x0 PUSH2 0x7E0A DUP9 DUP3 DUP10 ADD PUSH2 0x769E JUMP JUMPDEST SWAP6 POP POP PUSH1 0x20 PUSH2 0x7E1B DUP9 DUP3 DUP10 ADD PUSH2 0x769E JUMP JUMPDEST SWAP5 POP POP PUSH1 0x40 PUSH2 0x7E2C DUP9 DUP3 DUP10 ADD PUSH2 0x769E JUMP JUMPDEST SWAP4 POP POP PUSH1 0x60 PUSH2 0x7E3D DUP9 DUP3 DUP10 ADD PUSH2 0x769E JUMP JUMPDEST SWAP3 POP POP PUSH1 0x80 PUSH2 0x7E4E DUP9 DUP3 DUP10 ADD PUSH2 0x769E JUMP JUMPDEST SWAP2 POP POP SWAP3 SWAP6 POP SWAP3 SWAP6 SWAP1 SWAP4 POP JUMP JUMPDEST PUSH1 0x0 DUP1 PUSH1 0x40 DUP4 DUP6 SUB SLT ISZERO PUSH2 0x7E72 JUMPI PUSH2 0x7E71 PUSH2 0x7313 JUMP JUMPDEST JUMPDEST PUSH1 0x0 PUSH2 0x7E80 DUP6 DUP3 DUP7 ADD PUSH2 0x769E JUMP JUMPDEST SWAP3 POP POP PUSH1 0x20 PUSH2 0x7E91 DUP6 DUP3 DUP7 ADD PUSH2 0x7366 JUMP JUMPDEST SWAP2 POP POP SWAP3 POP SWAP3 SWAP1 POP JUMP JUMPDEST PUSH1 0x0 DUP1 DUP4 PUSH1 0x1F DUP5 ADD SLT PUSH2 0x7EB1 JUMPI PUSH2 0x7EB0 PUSH2 0x758D JUMP JUMPDEST JUMPDEST DUP3 CALLDATALOAD SWAP1 POP PUSH8 0xFFFFFFFFFFFFFFFF DUP2 GT ISZERO PUSH2 0x7ECE JUMPI PUSH2 0x7ECD PUSH2 0x7592 JUMP JUMPDEST JUMPDEST PUSH1 0x20 DUP4 ADD SWAP2 POP DUP4 PUSH1 0x60 DUP3 MUL DUP4 ADD GT ISZERO PUSH2 0x7EEA JUMPI PUSH2 0x7EE9 PUSH2 0x7597 JUMP JUMPDEST JUMPDEST SWAP3 POP SWAP3 SWAP1 POP JUMP JUMPDEST PUSH1 0x0 DUP1 PUSH1 0x0 DUP1 PUSH1 0x40 DUP6 DUP8 SUB SLT ISZERO PUSH2 0x7F0B JUMPI PUSH2 0x7F0A PUSH2 0x7313 JUMP JUMPDEST JUMPDEST PUSH1 0x0 DUP6 ADD CALLDATALOAD PUSH8 0xFFFFFFFFFFFFFFFF DUP2 GT ISZERO PUSH2 0x7F29 JUMPI PUSH2 0x7F28 PUSH2 0x7318 JUMP JUMPDEST JUMPDEST PUSH2 0x7F35 DUP8 DUP3 DUP9 ADD PUSH2 0x7E9B JUMP JUMPDEST SWAP5 POP SWAP5 POP POP PUSH1 0x20 DUP6 ADD CALLDATALOAD PUSH8 0xFFFFFFFFFFFFFFFF DUP2 GT ISZERO PUSH2 0x7F58 JUMPI PUSH2 0x7F57 PUSH2 0x7318 JUMP JUMPDEST JUMPDEST PUSH2 0x7F64 DUP8 DUP3 DUP9 ADD PUSH2 0x7E9B JUMP JUMPDEST SWAP3 POP SWAP3 POP POP SWAP3 SWAP6 SWAP2 SWAP5 POP SWAP3 POP JUMP JUMPDEST PUSH1 0x0 DUP1 PUSH1 0x0 PUSH1 0x60 DUP5 DUP7 SUB SLT ISZERO PUSH2 0x7F8B JUMPI PUSH2 0x7F8A PUSH2 0x7313 JUMP JUMPDEST JUMPDEST PUSH1 0x0 PUSH2 0x7F99 DUP7 DUP3 DUP8 ADD PUSH2 0x769E JUMP JUMPDEST SWAP4 POP POP PUSH1 0x20 PUSH2 0x7FAA DUP7 DUP3 DUP8 ADD PUSH2 0x769E JUMP JUMPDEST SWAP3 POP POP PUSH1 0x40 PUSH2 0x7FBB DUP7 DUP3 DUP8 ADD PUSH2 0x769E JUMP JUMPDEST SWAP2 POP POP SWAP3 POP SWAP3 POP SWAP3 JUMP JUMPDEST PUSH1 0x0 PUSH1 0x40 DUP3 ADD SWAP1 POP PUSH2 0x7FDA PUSH1 0x0 DUP4 ADD DUP6 PUSH2 0x753C JUMP JUMPDEST PUSH2 0x7FE7 PUSH1 0x20 DUP4 ADD DUP5 PUSH2 0x753C JUMP JUMPDEST SWAP4 SWAP3 POP POP POP JUMP JUMPDEST PUSH1 0xE0 DUP3 ADD PUSH1 0x0 DUP3 ADD MLOAD PUSH2 0x8004 PUSH1 0x0 DUP6 ADD DUP3 PUSH2 0x73DE JUMP JUMPDEST POP PUSH1 0x20 DUP3 ADD MLOAD PUSH2 0x8017 PUSH1 0x20 DUP6 ADD DUP3 PUSH2 0x73DE JUMP JUMPDEST POP PUSH1 0x40 DUP3 ADD MLOAD PUSH2 0x802A PUSH1 0x40 DUP6 ADD DUP3 PUSH2 0x73DE JUMP JUMPDEST POP PUSH1 0x60 DUP3 ADD MLOAD PUSH2 0x803D PUSH1 0x60 DUP6 ADD DUP3 PUSH2 0x73DE JUMP JUMPDEST POP PUSH1 0x80 DUP3 ADD MLOAD PUSH2 0x8050 PUSH1 0x80 DUP6 ADD DUP3 PUSH2 0x73DE JUMP JUMPDEST POP PUSH1 0xA0 DUP3 ADD MLOAD PUSH2 0x8063 PUSH1 0xA0 DUP6 ADD DUP3 PUSH2 0x73ED JUMP JUMPDEST POP POP POP POP JUMP JUMPDEST PUSH1 0x0 PUSH1 0xE0 DUP3 ADD SWAP1 POP PUSH2 0x807E PUSH1 0x0 DUP4 ADD DUP5 PUSH2 0x7FEE JUMP JUMPDEST SWAP3 SWAP2 POP POP JUMP JUMPDEST PUSH1 0x0 DUP1 PUSH1 0x0 DUP1 PUSH1 0x40 DUP6 DUP8 SUB SLT ISZERO PUSH2 0x809E JUMPI PUSH2 0x809D PUSH2 0x7313 JUMP JUMPDEST JUMPDEST PUSH1 0x0 DUP6 ADD CALLDATALOAD PUSH8 0xFFFFFFFFFFFFFFFF DUP2 GT ISZERO PUSH2 0x80BC JUMPI PUSH2 0x80BB PUSH2 0x7318 JUMP JUMPDEST JUMPDEST PUSH2 0x80C8 DUP8 DUP3 DUP9 ADD PUSH2 0x759C JUMP JUMPDEST SWAP5 POP SWAP5 POP POP PUSH1 0x20 DUP6 ADD CALLDATALOAD PUSH8 0xFFFFFFFFFFFFFFFF DUP2 GT ISZERO PUSH2 0x80EB JUMPI PUSH2 0x80EA PUSH2 0x7318 JUMP JUMPDEST JUMPDEST PUSH2 0x80F7 DUP8 DUP3 DUP9 ADD PUSH2 0x759C JUMP JUMPDEST SWAP3 POP SWAP3 POP POP SWAP3 SWAP6 SWAP2 SWAP5 POP SWAP3 POP JUMP JUMPDEST PUSH32 0x4E487B7100000000000000000000000000000000000000000000000000000000 PUSH1 0x0 MSTORE PUSH1 0x11 PUSH1 0x4 MSTORE PUSH1 0x24 PUSH1 0x0 REVERT JUMPDEST PUSH1 0x0 PUSH2 0x813F DUP3 PUSH2 0x73D4 JUMP JUMPDEST SWAP2 POP PUSH2 0x814A DUP4 PUSH2 0x73D4 JUMP JUMPDEST SWAP3 POP DUP3 PUSH32 0xFFFFFFFFFFFFFFFFFFFFFFFFFFFFFFFFFFFFFFFFFFFFFFFFFFFFFFFFFFFFFFFF SUB DUP3 GT ISZERO PUSH2 0x817F JUMPI PUSH2 0x817E PUSH2 0x8105 JUMP JUMPDEST JUMPDEST DUP3 DUP3 ADD SWAP1 POP SWAP3 SWAP2 POP POP JUMP JUMPDEST PUSH32 0x4E487B7100000000000000000000000000000000000000000000000000000000 PUSH1 0x0 MSTORE PUSH1 0x41 PUSH1 0x4 MSTORE PUSH1 0x24 PUSH1 0x0 REVERT JUMPDEST PUSH32 0x4E487B7100000000000000000000000000000000000000000000000000000000 PUSH1 0x0 MSTORE PUSH1 0x32 PUSH1 0x4 MSTORE PUSH1 0x24 PUSH1 0x0 REVERT JUMPDEST PUSH1 0x0 PUSH2 0x81F3 DUP3 PUSH2 0x73D4 JUMP JUMPDEST SWAP2 POP PUSH32 0xFFFFFFFFFFFFFFFFFFFFFFFFFFFFFFFFFFFFFFFFFFFFFFFFFFFFFFFFFFFFFFFF DUP3 EQ ISZERO PUSH2 0x8226 JUMPI PUSH2 0x8225 PUSH2 0x8105 JUMP JUMPDEST JUMPDEST PUSH1 0x1 DUP3 ADD SWAP1 POP SWAP2 SWAP1 POP JUMP JUMPDEST PUSH1 0x0 DUP2 MLOAD SWAP1 POP PUSH2 0x8240 DUP2 PUSH2 0x7687 JUMP JUMPDEST SWAP3 SWAP2 POP POP JUMP JUMPDEST PUSH1 0x0 PUSH1 0x20 DUP3 DUP5 SUB SLT ISZERO PUSH2 0x825C JUMPI PUSH2 0x825B PUSH2 0x7313 JUMP JUMPDEST JUMPDEST PUSH1 0x0 PUSH2 0x826A DUP5 DUP3 DUP6 ADD PUSH2 0x8231 JUMP JUMPDEST SWAP2 POP POP SWAP3 SWAP2 POP POP JUMP JUMPDEST PUSH1 0x0 PUSH2 0x827E DUP3 PUSH2 0x73D4 JUMP JUMPDEST SWAP2 POP PUSH2 0x8289 DUP4 PUSH2 0x73D4 JUMP JUMPDEST SWAP3 POP DUP2 PUSH32 0xFFFFFFFFFFFFFFFFFFFFFFFFFFFFFFFFFFFFFFFFFFFFFFFFFFFFFFFFFFFFFFFF DIV DUP4 GT DUP3 ISZERO ISZERO AND ISZERO PUSH2 0x82C2 JUMPI PUSH2 0x82C1 PUSH2 0x8105 JUMP JUMPDEST JUMPDEST DUP3 DUP3 MUL SWAP1 POP SWAP3 SWAP2 POP POP JUMP JUMPDEST PUSH32 0x4E487B7100000000000000000000000000000000000000000000000000000000 PUSH1 0x0 MSTORE PUSH1 0x12 PUSH1 0x4 MSTORE PUSH1 0x24 PUSH1 0x0 REVERT JUMPDEST PUSH1 0x0 PUSH2 0x8307 DUP3 PUSH2 0x73D4 JUMP JUMPDEST SWAP2 POP PUSH2 0x8312 DUP4 PUSH2 0x73D4 JUMP JUMPDEST SWAP3 POP DUP3 PUSH2 0x8322 JUMPI PUSH2 0x8321 PUSH2 0x82CD JUMP JUMPDEST JUMPDEST DUP3 DUP3 DIV SWAP1 POP SWAP3 SWAP2 POP POP JUMP JUMPDEST PUSH1 0x0 PUSH2 0x8338 DUP3 PUSH2 0x754B JUMP JUMPDEST SWAP2 POP PUSH2 0x8343 DUP4 PUSH2 0x754B JUMP JUMPDEST SWAP3 POP DUP3 PUSH32 0x8000000000000000000000000000000000000000000000000000000000000000 ADD DUP3 SLT PUSH1 0x0 DUP5 SLT ISZERO AND ISZERO PUSH2 0x837E JUMPI PUSH2 0x837D PUSH2 0x8105 JUMP JUMPDEST JUMPDEST DUP3 PUSH32 0x7FFFFFFFFFFFFFFFFFFFFFFFFFFFFFFFFFFFFFFFFFFFFFFFFFFFFFFFFFFFFFFF ADD DUP3 SGT PUSH1 0x0 DUP5 SLT AND ISZERO PUSH2 0x83B6 JUMPI PUSH2 0x83B5 PUSH2 0x8105 JUMP JUMPDEST JUMPDEST DUP3 DUP3 SUB SWAP1 POP SWAP3 SWAP2 POP POP JUMP JUMPDEST PUSH1 0x0 PUSH1 0x40 DUP3 ADD SWAP1 POP PUSH2 0x83D6 PUSH1 0x0 DUP4 ADD DUP6 PUSH2 0x753C JUMP JUMPDEST PUSH2 0x83E3 PUSH1 0x20 DUP4 ADD DUP5 PUSH2 0x7C9A JUMP JUMPDEST SWAP4 SWAP3 POP POP POP JUMP JUMPDEST PUSH1 0x0 PUSH2 0x83F5 DUP3 PUSH2 0x73D4 JUMP JUMPDEST SWAP2 POP PUSH2 0x8400 DUP4 PUSH2 0x73D4 JUMP JUMPDEST SWAP3 POP DUP3 DUP3 LT ISZERO PUSH2 0x8413 JUMPI PUSH2 0x8412 PUSH2 0x8105 JUMP JUMPDEST JUMPDEST DUP3 DUP3 SUB SWAP1 POP SWAP3 SWAP2 POP POP JUMP JUMPDEST PUSH1 0x0 PUSH2 0x8439 PUSH2 0x8434 PUSH2 0x842F DUP5 PUSH2 0x76F3 JUMP JUMPDEST PUSH2 0x77D8 JUMP JUMPDEST PUSH2 0x73D4 JUMP JUMPDEST SWAP1 POP SWAP2 SWAP1 POP JUMP JUMPDEST PUSH2 0x8449 DUP2 PUSH2 0x841E JUMP JUMPDEST DUP3 MSTORE POP POP JUMP JUMPDEST PUSH1 0x0 PUSH2 0x846A PUSH2 0x8465 PUSH2 0x8460 DUP5 PUSH2 0x7714 JUMP JUMPDEST PUSH2 0x77D8 JUMP JUMPDEST PUSH2 0x73D4 JUMP JUMPDEST SWAP1 POP SWAP2 SWAP1 POP JUMP JUMPDEST PUSH2 0x847A DUP2 PUSH2 0x844F JUMP JUMPDEST DUP3 MSTORE POP POP JUMP JUMPDEST PUSH1 0x0 PUSH1 0x60 DUP3 ADD SWAP1 POP PUSH2 0x8495 PUSH1 0x0 DUP4 ADD DUP7 PUSH2 0x8440 JUMP JUMPDEST PUSH2 0x84A2 PUSH1 0x20 DUP4 ADD DUP6 PUSH2 0x8471 JUMP JUMPDEST PUSH2 0x84AF PUSH1 0x40 DUP4 ADD DUP5 PUSH2 0x8471 JUMP JUMPDEST SWAP5 SWAP4 POP POP POP POP JUMP JUMPDEST PUSH1 0x0 PUSH1 0x60 DUP3 ADD SWAP1 POP PUSH2 0x84CC PUSH1 0x0 DUP4 ADD DUP7 PUSH2 0x7C9A JUMP JUMPDEST PUSH2 0x84D9 PUSH1 0x20 DUP4 ADD DUP6 PUSH2 0x7C9A JUMP JUMPDEST PUSH2 0x84E6 PUSH1 0x40 DUP4 ADD DUP5 PUSH2 0x753C JUMP JUMPDEST SWAP5 SWAP4 POP POP POP POP JUMP JUMPDEST PUSH2 0x84F7 DUP2 PUSH2 0x7A74 JUMP JUMPDEST DUP2 EQ PUSH2 0x8502 JUMPI PUSH1 0x0 DUP1 REVERT JUMPDEST POP JUMP JUMPDEST PUSH1 0x0 DUP2 MLOAD SWAP1 POP PUSH2 0x8514 DUP2 PUSH2 0x84EE JUMP JUMPDEST SWAP3 SWAP2 POP POP JUMP JUMPDEST PUSH1 0x0 PUSH1 0x20 DUP3 DUP5 SUB SLT ISZERO PUSH2 0x8530 JUMPI PUSH2 0x852F PUSH2 0x7313 JUMP JUMPDEST JUMPDEST PUSH1 0x0 PUSH2 0x853E DUP5 DUP3 DUP6 ADD PUSH2 0x8505 JUMP JUMPDEST SWAP2 POP POP SWAP3 SWAP2 POP POP JUMP JUMPDEST PUSH32 0x4E487B7100000000000000000000000000000000000000000000000000000000 PUSH1 0x0 MSTORE PUSH1 0x31 PUSH1 0x4 MSTORE PUSH1 0x24 PUSH1 0x0 REVERT JUMPDEST PUSH1 0x0 DUP2 SWAP1 POP SWAP2 SWAP1 POP JUMP JUMPDEST PUSH1 0x0 PUSH2 0x859B PUSH2 0x8596 PUSH2 0x8591 DUP5 PUSH2 0x8576 JUMP JUMPDEST PUSH2 0x77D8 JUMP JUMPDEST PUSH2 0x73D4 JUMP JUMPDEST SWAP1 POP SWAP2 SWAP1 POP JUMP JUMPDEST PUSH2 0x85AB DUP2 PUSH2 0x8580 JUMP JUMPDEST DUP3 MSTORE POP POP JUMP JUMPDEST PUSH1 0x0 PUSH1 0x60 DUP3 ADD SWAP1 POP PUSH2 0x85C6 PUSH1 0x0 DUP4 ADD DUP7 PUSH2 0x85A2 JUMP JUMPDEST PUSH2 0x85D3 PUSH1 0x20 DUP4 ADD DUP6 PUSH2 0x7C9A JUMP JUMPDEST PUSH2 0x85E0 PUSH1 0x40 DUP4 ADD DUP5 PUSH2 0x753C JUMP JUMPDEST SWAP5 SWAP4 POP POP POP POP JUMP JUMPDEST PUSH1 0x0 PUSH1 0x40 DUP3 ADD SWAP1 POP PUSH2 0x85FD PUSH1 0x0 DUP4 ADD DUP6 PUSH2 0x7C9A JUMP JUMPDEST PUSH2 0x860A PUSH1 0x20 DUP4 ADD DUP5 PUSH2 0x753C JUMP JUMPDEST SWAP4 SWAP3 POP POP POP JUMP JUMPDEST PUSH1 0x0 DUP3 DUP3 MSTORE PUSH1 0x20 DUP3 ADD SWAP1 POP SWAP3 SWAP2 POP POP JUMP JUMPDEST PUSH32 0x4F776E61626C653A206E6577206F776E657220697320746865207A65726F2061 PUSH1 0x0 DUP3 ADD MSTORE PUSH32 0x6464726573730000000000000000000000000000000000000000000000000000 PUSH1 0x20 DUP3 ADD MSTORE POP JUMP JUMPDEST PUSH1 0x0 PUSH2 0x867E PUSH1 0x26 DUP4 PUSH2 0x8611 JUMP JUMPDEST SWAP2 POP PUSH2 0x8689 DUP3 PUSH2 0x8622 JUMP JUMPDEST PUSH1 0x40 DUP3 ADD SWAP1 POP SWAP2 SWAP1 POP JUMP JUMPDEST PUSH1 0x0 PUSH1 0x20 DUP3 ADD SWAP1 POP DUP2 DUP2 SUB PUSH1 0x0 DUP4 ADD MSTORE PUSH2 0x86AD DUP2 PUSH2 0x8671 JUMP JUMPDEST SWAP1 POP SWAP2 SWAP1 POP JUMP JUMPDEST PUSH1 0x0 PUSH1 0x60 DUP3 ADD SWAP1 POP PUSH2 0x86C9 PUSH1 0x0 DUP4 ADD DUP7 PUSH2 0x753C JUMP JUMPDEST PUSH2 0x86D6 PUSH1 0x20 DUP4 ADD DUP6 PUSH2 0x7C9A JUMP JUMPDEST PUSH2 0x86E3 PUSH1 0x40 DUP4 ADD DUP5 PUSH2 0x753C JUMP JUMPDEST SWAP5 SWAP4 POP POP POP POP JUMP JUMPDEST PUSH1 0x0 PUSH16 0xFFFFFFFFFFFFFFFFFFFFFFFFFFFFFFFF DUP3 AND SWAP1 POP SWAP2 SWAP1 POP JUMP JUMPDEST PUSH2 0x8710 DUP2 PUSH2 0x86EB JUMP JUMPDEST DUP2 EQ PUSH2 0x871B JUMPI PUSH1 0x0 DUP1 REVERT JUMPDEST POP JUMP JUMPDEST PUSH1 0x0 DUP2 CALLDATALOAD SWAP1 POP PUSH2 0x872D DUP2 PUSH2 0x8707 JUMP JUMPDEST SWAP3 SWAP2 POP POP JUMP JUMPDEST PUSH1 0x0 PUSH1 0x20 DUP3 DUP5 SUB SLT ISZERO PUSH2 0x8749 JUMPI PUSH2 0x8748 PUSH2 0x7313 JUMP JUMPDEST JUMPDEST PUSH1 0x0 PUSH2 0x8757 DUP5 DUP3 DUP6 ADD PUSH2 0x871E JUMP JUMPDEST SWAP2 POP POP SWAP3 SWAP2 POP POP JUMP JUMPDEST PUSH1 0x0 DUP2 MLOAD SWAP1 POP PUSH2 0x876F DUP2 PUSH2 0x734F JUMP JUMPDEST SWAP3 SWAP2 POP POP JUMP JUMPDEST PUSH1 0x0 PUSH1 0x20 DUP3 DUP5 SUB SLT ISZERO PUSH2 0x878B JUMPI PUSH2 0x878A PUSH2 0x7313 JUMP JUMPDEST JUMPDEST PUSH1 0x0 PUSH2 0x8799 DUP5 DUP3 DUP6 ADD PUSH2 0x8760 JUMP JUMPDEST SWAP2 POP POP SWAP3 SWAP2 POP POP JUMP JUMPDEST PUSH1 0x0 PUSH1 0x80 DUP3 ADD SWAP1 POP PUSH2 0x87B7 PUSH1 0x0 DUP4 ADD DUP8 PUSH2 0x753C JUMP JUMPDEST PUSH2 0x87C4 PUSH1 0x20 DUP4 ADD DUP7 PUSH2 0x753C JUMP JUMPDEST PUSH2 0x87D1 PUSH1 0x40 DUP4 ADD DUP6 PUSH2 0x753C JUMP JUMPDEST PUSH2 0x87DE PUSH1 0x60 DUP4 ADD DUP5 PUSH2 0x753C JUMP JUMPDEST SWAP6 SWAP5 POP POP POP POP POP JUMP JUMPDEST PUSH1 0x0 DUP1 REVERT JUMPDEST PUSH1 0x0 PUSH1 0x1F NOT PUSH1 0x1F DUP4 ADD AND SWAP1 POP SWAP2 SWAP1 POP JUMP JUMPDEST PUSH2 0x8806 DUP3 PUSH2 0x87EC JUMP JUMPDEST DUP2 ADD DUP2 DUP2 LT PUSH8 0xFFFFFFFFFFFFFFFF DUP3 GT OR ISZERO PUSH2 0x8825 JUMPI PUSH2 0x8824 PUSH2 0x818A JUMP JUMPDEST JUMPDEST DUP1 PUSH1 0x40 MSTORE POP POP POP JUMP JUMPDEST PUSH1 0x0 PUSH2 0x8838 PUSH2 0x7309 JUMP JUMPDEST SWAP1 POP PUSH2 0x8844 DUP3 DUP3 PUSH2 0x87FD JUMP JUMPDEST SWAP2 SWAP1 POP JUMP JUMPDEST PUSH1 0x0 PUSH4 0xFFFFFFFF DUP3 AND SWAP1 POP SWAP2 SWAP1 POP JUMP JUMPDEST PUSH2 0x8862 DUP2 PUSH2 0x8849 JUMP JUMPDEST DUP2 EQ PUSH2 0x886D JUMPI PUSH1 0x0 DUP1 REVERT JUMPDEST POP JUMP JUMPDEST PUSH1 0x0 DUP2 CALLDATALOAD SWAP1 POP PUSH2 0x887F DUP2 PUSH2 0x8859 JUMP JUMPDEST SWAP3 SWAP2 POP POP JUMP JUMPDEST PUSH1 0x0 PUSH23 0xFFFFFFFFFFFFFFFFFFFFFFFFFFFFFFFFFFFFFFFFFFFFFF DUP3 AND SWAP1 POP SWAP2 SWAP1 POP JUMP JUMPDEST PUSH2 0x88B1 DUP2 PUSH2 0x8885 JUMP JUMPDEST DUP2 EQ PUSH2 0x88BC JUMPI PUSH1 0x0 DUP1 REVERT JUMPDEST POP JUMP JUMPDEST PUSH1 0x0 DUP2 CALLDATALOAD SWAP1 POP PUSH2 0x88CE DUP2 PUSH2 0x88A8 JUMP JUMPDEST SWAP3 SWAP2 POP POP JUMP JUMPDEST PUSH1 0x0 DUP2 CALLDATALOAD SWAP1 POP PUSH2 0x88E3 DUP2 PUSH2 0x84EE JUMP JUMPDEST SWAP3 SWAP2 POP POP JUMP JUMPDEST PUSH1 0x0 PUSH1 0x80 DUP3 DUP5 SUB SLT ISZERO PUSH2 0x88FF JUMPI PUSH2 0x88FE PUSH2 0x87E7 JUMP JUMPDEST JUMPDEST PUSH2 0x8909 PUSH1 0x80 PUSH2 0x882E JUMP JUMPDEST SWAP1 POP PUSH1 0x0 PUSH2 0x8919 DUP5 DUP3 DUP6 ADD PUSH2 0x8870 JUMP JUMPDEST PUSH1 0x0 DUP4 ADD MSTORE POP PUSH1 0x20 PUSH2 0x892D DUP5 DUP3 DUP6 ADD PUSH2 0x8870 JUMP JUMPDEST PUSH1 0x20 DUP4 ADD MSTORE POP PUSH1 0x40 PUSH2 0x8941 DUP5 DUP3 DUP6 ADD PUSH2 0x88BF JUMP JUMPDEST PUSH1 0x40 DUP4 ADD MSTORE POP PUSH1 0x60 PUSH2 0x8955 DUP5 DUP3 DUP6 ADD PUSH2 0x88D4 JUMP JUMPDEST PUSH1 0x60 DUP4 ADD MSTORE POP SWAP3 SWAP2 POP POP JUMP JUMPDEST PUSH1 0x0 PUSH1 0x80 DUP3 DUP5 SUB SLT ISZERO PUSH2 0x8977 JUMPI PUSH2 0x8976 PUSH2 0x7313 JUMP JUMPDEST JUMPDEST PUSH1 0x0 PUSH2 0x8985 DUP5 DUP3 DUP6 ADD PUSH2 0x88E9 JUMP JUMPDEST SWAP2 POP POP SWAP3 SWAP2 POP POP JUMP JUMPDEST PUSH1 0x0 PUSH2 0x89A9 PUSH2 0x89A4 PUSH2 0x899F DUP5 PUSH2 0x8849 JUMP JUMPDEST PUSH2 0x77D8 JUMP JUMPDEST PUSH2 0x73D4 JUMP JUMPDEST SWAP1 POP SWAP2 SWAP1 POP JUMP JUMPDEST PUSH2 0x89B9 DUP2 PUSH2 0x898E JUMP JUMPDEST DUP3 MSTORE POP POP JUMP JUMPDEST PUSH1 0x0 PUSH1 0x20 DUP3 ADD SWAP1 POP PUSH2 0x89D4 PUSH1 0x0 DUP4 ADD DUP5 PUSH2 0x89B0 JUMP JUMPDEST SWAP3 SWAP2 POP POP JUMP JUMPDEST PUSH1 0x0 PUSH1 0x80 DUP3 ADD SWAP1 POP PUSH2 0x89EF PUSH1 0x0 DUP4 ADD DUP8 PUSH2 0x753C JUMP JUMPDEST PUSH2 0x89FC PUSH1 0x20 DUP4 ADD DUP7 PUSH2 0x753C JUMP JUMPDEST PUSH2 0x8A09 PUSH1 0x40 DUP4 ADD DUP6 PUSH2 0x89B0 JUMP JUMPDEST PUSH2 0x8A16 PUSH1 0x60 DUP4 ADD DUP5 PUSH2 0x89B0 JUMP JUMPDEST SWAP6 SWAP5 POP POP POP POP POP JUMP JUMPDEST PUSH32 0x53616665436173743A2076616C756520646F65736E27742066697420696E2061 PUSH1 0x0 DUP3 ADD MSTORE PUSH32 0x6E20696E74323536000000000000000000000000000000000000000000000000 PUSH1 0x20 DUP3 ADD MSTORE POP JUMP JUMPDEST PUSH1 0x0 PUSH2 0x8A7B PUSH1 0x28 DUP4 PUSH2 0x8611 JUMP JUMPDEST SWAP2 POP PUSH2 0x8A86 DUP3 PUSH2 0x8A1F JUMP JUMPDEST PUSH1 0x40 DUP3 ADD SWAP1 POP SWAP2 SWAP1 POP JUMP JUMPDEST PUSH1 0x0 PUSH1 0x20 DUP3 ADD SWAP1 POP DUP2 DUP2 SUB PUSH1 0x0 DUP4 ADD MSTORE PUSH2 0x8AAA DUP2 PUSH2 0x8A6E JUMP JUMPDEST SWAP1 POP SWAP2 SWAP1 POP JUMP JUMPDEST PUSH32 0x53616665436173743A2076616C7565206D75737420626520706F736974697665 PUSH1 0x0 DUP3 ADD MSTORE POP JUMP JUMPDEST PUSH1 0x0 PUSH2 0x8AE7 PUSH1 0x20 DUP4 PUSH2 0x8611 JUMP JUMPDEST SWAP2 POP PUSH2 0x8AF2 DUP3 PUSH2 0x8AB1 JUMP JUMPDEST PUSH1 0x20 DUP3 ADD SWAP1 POP SWAP2 SWAP1 POP JUMP JUMPDEST PUSH1 0x0 PUSH1 0x20 DUP3 ADD SWAP1 POP DUP2 DUP2 SUB PUSH1 0x0 DUP4 ADD MSTORE PUSH2 0x8B16 DUP2 PUSH2 0x8ADA JUMP JUMPDEST SWAP1 POP SWAP2 SWAP1 POP JUMP JUMPDEST PUSH1 0x0 PUSH1 0x20 DUP3 DUP5 SUB SLT ISZERO PUSH2 0x8B33 JUMPI PUSH2 0x8B32 PUSH2 0x7313 JUMP JUMPDEST JUMPDEST PUSH1 0x0 PUSH2 0x8B41 DUP5 DUP3 DUP6 ADD PUSH2 0x8870 JUMP JUMPDEST SWAP2 POP POP SWAP3 SWAP2 POP POP JUMP JUMPDEST PUSH1 0x0 PUSH28 0xFFFFFFFFFFFFFFFFFFFFFFFFFFFFFFFFFFFFFFFFFFFFFFFFFFFFFFFF DUP3 AND SWAP1 POP SWAP2 SWAP1 POP JUMP JUMPDEST PUSH2 0x8B7B DUP2 PUSH2 0x8B4A JUMP JUMPDEST DUP2 EQ PUSH2 0x8B86 JUMPI PUSH1 0x0 DUP1 REVERT JUMPDEST POP JUMP JUMPDEST PUSH1 0x0 DUP2 CALLDATALOAD SWAP1 POP PUSH2 0x8B98 DUP2 PUSH2 0x8B72 JUMP JUMPDEST SWAP3 SWAP2 POP POP JUMP JUMPDEST PUSH1 0x0 PUSH1 0x20 DUP3 DUP5 SUB SLT ISZERO PUSH2 0x8BB4 JUMPI PUSH2 0x8BB3 PUSH2 0x7313 JUMP JUMPDEST JUMPDEST PUSH1 0x0 PUSH2 0x8BC2 DUP5 DUP3 DUP6 ADD PUSH2 0x8B89 JUMP JUMPDEST SWAP2 POP POP SWAP3 SWAP2 POP POP JUMP JUMPDEST PUSH32 0x53616665436173743A2076616C756520646F65736E27742066697420696E2034 PUSH1 0x0 DUP3 ADD MSTORE PUSH32 0x3820626974730000000000000000000000000000000000000000000000000000 PUSH1 0x20 DUP3 ADD MSTORE POP JUMP JUMPDEST PUSH1 0x0 PUSH2 0x8C27 PUSH1 0x26 DUP4 PUSH2 0x8611 JUMP JUMPDEST SWAP2 POP PUSH2 0x8C32 DUP3 PUSH2 0x8BCB JUMP JUMPDEST PUSH1 0x40 DUP3 ADD SWAP1 POP SWAP2 SWAP1 POP JUMP JUMPDEST PUSH1 0x0 PUSH1 0x20 DUP3 ADD SWAP1 POP DUP2 DUP2 SUB PUSH1 0x0 DUP4 ADD MSTORE PUSH2 0x8C56 DUP2 PUSH2 0x8C1A JUMP JUMPDEST SWAP1 POP SWAP2 SWAP1 POP JUMP JUMPDEST PUSH32 0x53616665436173743A2076616C756520646F65736E27742066697420696E2031 PUSH1 0x0 DUP3 ADD MSTORE PUSH32 0x3620626974730000000000000000000000000000000000000000000000000000 PUSH1 0x20 DUP3 ADD MSTORE POP JUMP JUMPDEST PUSH1 0x0 PUSH2 0x8CB9 PUSH1 0x26 DUP4 PUSH2 0x8611 JUMP JUMPDEST SWAP2 POP PUSH2 0x8CC4 DUP3 PUSH2 0x8C5D JUMP JUMPDEST PUSH1 0x40 DUP3 ADD SWAP1 POP SWAP2 SWAP1 POP JUMP JUMPDEST PUSH1 0x0 PUSH1 0x20 DUP3 ADD SWAP1 POP DUP2 DUP2 SUB PUSH1 0x0 DUP4 ADD MSTORE PUSH2 0x8CE8 DUP2 PUSH2 0x8CAC JUMP JUMPDEST SWAP1 POP SWAP2 SWAP1 POP JUMP JUMPDEST PUSH32 0x53616665436173743A2076616C756520646F65736E27742066697420696E2039 PUSH1 0x0 DUP3 ADD MSTORE PUSH32 0x3620626974730000000000000000000000000000000000000000000000000000 PUSH1 0x20 DUP3 ADD MSTORE POP JUMP JUMPDEST PUSH1 0x0 PUSH2 0x8D4B PUSH1 0x26 DUP4 PUSH2 0x8611 JUMP JUMPDEST SWAP2 POP PUSH2 0x8D56 DUP3 PUSH2 0x8CEF JUMP JUMPDEST PUSH1 0x40 DUP3 ADD SWAP1 POP SWAP2 SWAP1 POP JUMP JUMPDEST PUSH1 0x0 PUSH1 0x20 DUP3 ADD SWAP1 POP DUP2 DUP2 SUB PUSH1 0x0 DUP4 ADD MSTORE PUSH2 0x8D7A DUP2 PUSH2 0x8D3E JUMP JUMPDEST SWAP1 POP SWAP2 SWAP1 POP JUMP JUMPDEST PUSH32 0x4F776E61626C653A2063616C6C6572206973206E6F7420746865206F776E6572 PUSH1 0x0 DUP3 ADD MSTORE POP JUMP JUMPDEST PUSH1 0x0 PUSH2 0x8DB7 PUSH1 0x20 DUP4 PUSH2 0x8611 JUMP JUMPDEST SWAP2 POP PUSH2 0x8DC2 DUP3 PUSH2 0x8D81 JUMP JUMPDEST PUSH1 0x20 DUP3 ADD SWAP1 POP SWAP2 SWAP1 POP JUMP JUMPDEST PUSH1 0x0 PUSH1 0x20 DUP3 ADD SWAP1 POP DUP2 DUP2 SUB PUSH1 0x0 DUP4 ADD MSTORE PUSH2 0x8DE6 DUP2 PUSH2 0x8DAA JUMP JUMPDEST SWAP1 POP SWAP2 SWAP1 POP JUMP JUMPDEST PUSH32 0x646973747269627574696F6E20656E6465640000000000000000000000000000 PUSH1 0x0 DUP3 ADD MSTORE POP JUMP JUMPDEST PUSH1 0x0 PUSH2 0x8E23 PUSH1 0x12 DUP4 PUSH2 0x8611 JUMP JUMPDEST SWAP2 POP PUSH2 0x8E2E DUP3 PUSH2 0x8DED JUMP JUMPDEST PUSH1 0x20 DUP3 ADD SWAP1 POP SWAP2 SWAP1 POP JUMP JUMPDEST PUSH1 0x0 PUSH1 0x20 DUP3 ADD SWAP1 POP DUP2 DUP2 SUB PUSH1 0x0 DUP4 ADD MSTORE PUSH2 0x8E52 DUP2 PUSH2 0x8E16 JUMP JUMPDEST SWAP1 POP SWAP2 SWAP1 POP JUMP JUMPDEST PUSH1 0x0 PUSH2 0x8E64 DUP3 PUSH2 0x73D4 JUMP JUMPDEST SWAP2 POP PUSH2 0x8E6F DUP4 PUSH2 0x73D4 JUMP JUMPDEST SWAP3 POP DUP3 PUSH2 0x8E7F JUMPI PUSH2 0x8E7E PUSH2 0x82CD JUMP JUMPDEST JUMPDEST DUP3 DUP3 MOD SWAP1 POP SWAP3 SWAP2 POP POP JUMP JUMPDEST PUSH1 0x0 PUSH2 0x8E95 DUP3 PUSH2 0x7714 JUMP JUMPDEST SWAP2 POP PUSH2 0x8EA0 DUP4 PUSH2 0x7714 JUMP JUMPDEST SWAP3 POP DUP3 PUSH12 0xFFFFFFFFFFFFFFFFFFFFFFFF SUB DUP3 GT ISZERO PUSH2 0x8EC1 JUMPI PUSH2 0x8EC0 PUSH2 0x8105 JUMP JUMPDEST JUMPDEST DUP3 DUP3 ADD SWAP1 POP SWAP3 SWAP2 POP POP JUMP JUMPDEST PUSH1 0x0 PUSH2 0x8ED7 DUP3 PUSH2 0x754B JUMP JUMPDEST SWAP2 POP PUSH2 0x8EE2 DUP4 PUSH2 0x754B JUMP JUMPDEST SWAP3 POP DUP2 PUSH32 0x7FFFFFFFFFFFFFFFFFFFFFFFFFFFFFFFFFFFFFFFFFFFFFFFFFFFFFFFFFFFFFFF SUB DUP4 SGT PUSH1 0x0 DUP4 SLT ISZERO AND ISZERO PUSH2 0x8F1D JUMPI PUSH2 0x8F1C PUSH2 0x8105 JUMP JUMPDEST JUMPDEST DUP2 PUSH32 0x8000000000000000000000000000000000000000000000000000000000000000 SUB DUP4 SLT PUSH1 0x0 DUP4 SLT AND ISZERO PUSH2 0x8F55 JUMPI PUSH2 0x8F54 PUSH2 0x8105 JUMP JUMPDEST JUMPDEST DUP3 DUP3 ADD SWAP1 POP SWAP3 SWAP2 POP POP JUMP JUMPDEST PUSH1 0x0 PUSH1 0x60 DUP3 DUP5 SUB SLT ISZERO PUSH2 0x8F76 JUMPI PUSH2 0x8F75 PUSH2 0x87E7 JUMP JUMPDEST JUMPDEST PUSH2 0x8F80 PUSH1 0x60 PUSH2 0x882E JUMP JUMPDEST SWAP1 POP PUSH1 0x0 PUSH2 0x8F90 DUP5 DUP3 DUP6 ADD PUSH2 0x8870 JUMP JUMPDEST PUSH1 0x0 DUP4 ADD MSTORE POP PUSH1 0x20 PUSH2 0x8FA4 DUP5 DUP3 DUP6 ADD PUSH2 0x8870 JUMP JUMPDEST PUSH1 0x20 DUP4 ADD MSTORE POP PUSH1 0x40 PUSH2 0x8FB8 DUP5 DUP3 DUP6 ADD PUSH2 0x88BF JUMP JUMPDEST PUSH1 0x40 DUP4 ADD MSTORE POP SWAP3 SWAP2 POP POP JUMP JUMPDEST PUSH1 0x0 PUSH1 0x60 DUP3 DUP5 SUB SLT ISZERO PUSH2 0x8FDA JUMPI PUSH2 0x8FD9 PUSH2 0x7313 JUMP JUMPDEST JUMPDEST PUSH1 0x0 PUSH2 0x8FE8 DUP5 DUP3 DUP6 ADD PUSH2 0x8F60 JUMP JUMPDEST SWAP2 POP POP SWAP3 SWAP2 POP POP JUMP JUMPDEST PUSH1 0x0 PUSH2 0x900C PUSH2 0x9007 PUSH2 0x9002 DUP5 PUSH2 0x8885 JUMP JUMPDEST PUSH2 0x77D8 JUMP JUMPDEST PUSH2 0x73D4 JUMP JUMPDEST SWAP1 POP SWAP2 SWAP1 POP JUMP JUMPDEST PUSH2 0x901C DUP2 PUSH2 0x8FF1 JUMP JUMPDEST DUP3 MSTORE POP POP JUMP JUMPDEST PUSH1 0x0 PUSH1 0x80 DUP3 ADD SWAP1 POP PUSH2 0x9037 PUSH1 0x0 DUP4 ADD DUP8 PUSH2 0x9013 JUMP JUMPDEST PUSH2 0x9044 PUSH1 0x20 DUP4 ADD DUP7 PUSH2 0x753C JUMP JUMPDEST PUSH2 0x9051 PUSH1 0x40 DUP4 ADD DUP6 PUSH2 0x89B0 JUMP JUMPDEST PUSH2 0x905E PUSH1 0x60 DUP4 ADD DUP5 PUSH2 0x89B0 JUMP JUMPDEST SWAP6 SWAP5 POP POP POP POP POP JUMP JUMPDEST PUSH1 0x0 PUSH2 0x9072 DUP3 PUSH2 0x7714 JUMP JUMPDEST SWAP2 POP PUSH2 0x907D DUP4 PUSH2 0x7714 JUMP JUMPDEST SWAP3 POP DUP3 DUP3 LT ISZERO PUSH2 0x9090 JUMPI PUSH2 0x908F PUSH2 0x8105 JUMP JUMPDEST JUMPDEST DUP3 DUP3 SUB SWAP1 POP SWAP3 SWAP2 POP POP JUMP INVALID LOG2 PUSH5 0x6970667358 0x22 SLT KECCAK256 DUP8 DUP11 PUSH32 0x919575E690F06E52E862F8F28F2D231C76FC9119B0219F0DE1ED8327E664736F PUSH13 0x634300080A0033000000000000 "
		},
		"gasEstimates": {
			"creation": {
				"codeDepositCost": "7414600",
				"executionCost": "infinite",
				"totalCost": "infinite"
			},
			"external": {
				"addTimeRange(uint256,uint256,uint256,uint256,uint256)": "infinite",
				"addressPosition(address)": "5131",
				"apeCoin()": "infinite",
				"bakcToMain(uint256,uint256)": "infinite",
				"claimApeCoin(address)": "infinite",
				"claimBAKC((uint128,uint128)[],(uint128,uint128)[],address)": "infinite",
				"claimBAYC(uint256[],address)": "infinite",
				"claimMAYC(uint256[],address)": "infinite",
				"claimSelfApeCoin()": "infinite",
				"claimSelfBAKC((uint128,uint128)[],(uint128,uint128)[])": "infinite",
				"claimSelfBAYC(uint256[])": "infinite",
				"claimSelfMAYC(uint256[])": "infinite",
				"depositApeCoin(uint256,address)": "infinite",
				"depositBAKC((uint32,uint32,uint184)[],(uint32,uint32,uint184)[])": "infinite",
				"depositBAYC((uint32,uint224)[])": "infinite",
				"depositMAYC((uint32,uint224)[])": "infinite",
				"depositSelfApeCoin(uint256)": "infinite",
				"getAllStakes(address)": "infinite",
				"getApeCoinStake(address)": "infinite",
				"getBakcStakes(address)": "infinite",
				"getBaycStakes(address)": "infinite",
				"getMaycStakes(address)": "infinite",
				"getPoolsUI()": "infinite",
				"getSplitStakes(address)": "infinite",
				"getTimeRangeBy(uint256,uint256)": "infinite",
				"mainToBakc(uint256,uint256)": "infinite",
				"nftContracts(uint256)": "infinite",
				"nftPosition(uint256,uint256)": "infinite",
				"owner()": "2655",
				"pendingRewards(uint256,address,uint256)": "infinite",
				"pools(uint256)": "infinite",
				"removeLastTimeRange(uint256)": "124185",
				"renounceOwnership()": "30443",
				"rewardsBy(uint256,uint256,uint256)": "infinite",
				"stakedTotal(address)": "infinite",
				"transferOwnership(address)": "30835",
				"updatePool(uint256)": "infinite",
				"withdrawApeCoin(uint256,address)": "infinite",
				"withdrawBAKC((uint32,uint32,uint184,bool)[],(uint32,uint32,uint184,bool)[])": "infinite",
				"withdrawBAYC((uint32,uint224)[],address)": "infinite",
				"withdrawMAYC((uint32,uint224)[],address)": "infinite",
				"withdrawSelfApeCoin(uint256)": "infinite",
				"withdrawSelfBAYC((uint32,uint224)[])": "infinite",
				"withdrawSelfMAYC((uint32,uint224)[])": "infinite"
			},
			"internal": {
				"_claim(uint256,struct ApeCoinStaking.Position storage pointer,address)": "infinite",
				"_claimNft(uint256,uint256[] calldata,address)": "infinite",
				"_claimPairNft(uint256,struct ApeCoinStaking.PairNft calldata[] calldata,address)": "infinite",
				"_deposit(uint256,struct ApeCoinStaking.Position storage pointer,uint256)": "infinite",
				"_depositNft(uint256,struct ApeCoinStaking.SingleNft calldata[] calldata)": "infinite",
				"_depositNftGuard(uint256,struct ApeCoinStaking.Position storage pointer,uint256)": "infinite",
				"_depositPairNft(uint256,struct ApeCoinStaking.PairNftDepositWithAmount calldata[] calldata)": "infinite",
				"_estimate24HourRewards(uint256,address,uint256)": "infinite",
				"_getSplitStakeCount(uint256,address,uint256)": "infinite",
				"_getSplitStakes(uint256,address,uint256)": "infinite",
				"_getStakes(address,uint256)": "infinite",
				"_stakedTotal(uint256,address)": "infinite",
				"_stakedTotalPair(address)": "infinite",
				"_withdraw(uint256,struct ApeCoinStaking.Position storage pointer,uint256)": "infinite",
				"_withdrawNft(uint256,struct ApeCoinStaking.SingleNft calldata[] calldata,address)": "infinite",
				"_withdrawPairNft(uint256,struct ApeCoinStaking.PairNftWithdrawWithAmount calldata[] calldata)": "infinite",
				"getCurrentTimeRangeIndex(struct ApeCoinStaking.Pool memory)": "infinite",
				"getMinute(uint256)": "infinite",
				"getPreviousTimestampHour()": "infinite",
				"getSecond(uint256)": "infinite"
			}
		},
		"methodIdentifiers": {
			"addTimeRange(uint256,uint256,uint256,uint256,uint256)": "bb628f20",
			"addressPosition(address)": "05ece226",
			"apeCoin()": "ac7ad9ba",
			"bakcToMain(uint256,uint256)": "b4f95752",
			"claimApeCoin(address)": "2ee2de66",
			"claimBAKC((uint128,uint128)[],(uint128,uint128)[],address)": "07f5fa4a",
			"claimBAYC(uint256[],address)": "b682e859",
			"claimMAYC(uint256[],address)": "57a26300",
			"claimSelfApeCoin()": "8279e760",
			"claimSelfBAKC((uint128,uint128)[],(uint128,uint128)[])": "e0347e4f",
			"claimSelfBAYC(uint256[])": "20a325d0",
			"claimSelfMAYC(uint256[])": "381b4682",
			"depositApeCoin(uint256,address)": "bd5023a9",
			"depositBAKC((uint32,uint32,uint184)[],(uint32,uint32,uint184)[])": "d346cbd9",
			"depositBAYC((uint32,uint224)[])": "46583a05",
			"depositMAYC((uint32,uint224)[])": "8ecbffa7",
			"depositSelfApeCoin(uint256)": "9dcaafb4",
			"getAllStakes(address)": "04238994",
			"getApeCoinStake(address)": "d9f11fb2",
			"getBakcStakes(address)": "00191b44",
			"getBaycStakes(address)": "9860037e",
			"getMaycStakes(address)": "f4c6f602",
			"getPoolsUI()": "770dade5",
			"getSplitStakes(address)": "0ed368f1",
			"getTimeRangeBy(uint256,uint256)": "09e833c6",
			"mainToBakc(uint256,uint256)": "304f88c0",
			"nftContracts(uint256)": "0bb4d82a",
			"nftPosition(uint256,uint256)": "98ada4a2",
			"owner()": "8da5cb5b",
			"pendingRewards(uint256,address,uint256)": "2c018f91",
			"pools(uint256)": "ac4afa38",
			"removeLastTimeRange(uint256)": "d363dc17",
			"renounceOwnership()": "715018a6",
			"rewardsBy(uint256,uint256,uint256)": "d7464ee9",
			"stakedTotal(address)": "f5679189",
			"transferOwnership(address)": "f2fde38b",
			"updatePool(uint256)": "51eb05a6",
			"withdrawApeCoin(uint256,address)": "e4e81847",
			"withdrawBAKC((uint32,uint32,uint184,bool)[],(uint32,uint32,uint184,bool)[])": "26fb2249",
			"withdrawBAYC((uint32,uint224)[],address)": "aceb3629",
			"withdrawMAYC((uint32,uint224)[],address)": "ed23c906",
			"withdrawSelfApeCoin(uint256)": "7f60d338",
			"withdrawSelfBAYC((uint32,uint224)[])": "fe31446c",
			"withdrawSelfMAYC((uint32,uint224)[])": "c63389c3"
		}
	},
	"abi": [
		{
			"inputs": [
				{
					"internalType": "address",
					"name": "_apeCoinContractAddress",
					"type": "address"
				},
				{
					"internalType": "address",
					"name": "_baycContractAddress",
					"type": "address"
				},
				{
					"internalType": "address",
					"name": "_maycContractAddress",
					"type": "address"
				},
				{
					"internalType": "address",
					"name": "_bakcContractAddress",
					"type": "address"
				}
			],
			"stateMutability": "nonpayable",
			"type": "constructor"
		},
		{
			"inputs": [],
			"name": "BAKCAlreadyPaired",
			"type": "error"
		},
		{
			"inputs": [],
			"name": "BAKCNotOwnedOrPaired",
			"type": "error"
		},
		{
			"inputs": [],
			"name": "CallerNotOwner",
			"type": "error"
		},
		{
			"inputs": [],
			"name": "DepositMoreThanOneAPE",
			"type": "error"
		},
		{
			"inputs": [],
			"name": "EndNotWholeHour",
			"type": "error"
		},
		{
			"inputs": [],
			"name": "ExceededCapAmount",
			"type": "error"
		},
		{
			"inputs": [],
			"name": "ExceededStakedAmount",
			"type": "error"
		},
		{
			"inputs": [],
			"name": "InvalidPoolId",
			"type": "error"
		},
		{
			"inputs": [],
			"name": "MainTokenNotOwnedOrPaired",
			"type": "error"
		},
		{
			"inputs": [],
			"name": "NeitherTokenInPairOwnedByCaller",
			"type": "error"
		},
		{
			"inputs": [],
			"name": "NotOwnerOfBAKC",
			"type": "error"
		},
		{
			"inputs": [],
			"name": "NotOwnerOfMain",
			"type": "error"
		},
		{
			"inputs": [],
			"name": "ProvidedTokensNotPaired",
			"type": "error"
		},
		{
			"inputs": [],
			"name": "SplitPairCantPartiallyWithdraw",
			"type": "error"
		},
		{
			"inputs": [],
			"name": "StartMustBeGreaterThanEnd",
			"type": "error"
		},
		{
			"inputs": [],
			"name": "StartMustEqualLastEnd",
			"type": "error"
		},
		{
			"inputs": [],
			"name": "StartNotWholeHour",
			"type": "error"
		},
		{
			"inputs": [],
			"name": "UncommitWrongParameters",
			"type": "error"
		},
		{
			"anonymous": false,
			"inputs": [
				{
					"indexed": true,
					"internalType": "address",
					"name": "user",
					"type": "address"
				},
				{
					"indexed": false,
					"internalType": "uint256",
					"name": "amount",
					"type": "uint256"
				},
				{
					"indexed": false,
					"internalType": "address",
					"name": "recipient",
					"type": "address"
				}
			],
			"name": "ClaimRewards",
			"type": "event"
		},
		{
			"anonymous": false,
			"inputs": [
				{
					"indexed": true,
					"internalType": "address",
					"name": "user",
					"type": "address"
				},
				{
					"indexed": true,
					"internalType": "uint256",
					"name": "poolId",
					"type": "uint256"
				},
				{
					"indexed": false,
					"internalType": "uint256",
					"name": "amount",
					"type": "uint256"
				},
				{
					"indexed": false,
					"internalType": "uint256",
					"name": "tokenId",
					"type": "uint256"
				}
			],
			"name": "ClaimRewardsNft",
			"type": "event"
		},
		{
			"anonymous": false,
			"inputs": [
				{
					"indexed": true,
					"internalType": "address",
					"name": "user",
					"type": "address"
				},
				{
					"indexed": false,
					"internalType": "uint256",
					"name": "amount",
					"type": "uint256"
				},
				{
					"indexed": false,
					"internalType": "uint256",
					"name": "mainTypePoolId",
					"type": "uint256"
				},
				{
					"indexed": false,
					"internalType": "uint256",
					"name": "mainTokenId",
					"type": "uint256"
				},
				{
					"indexed": false,
					"internalType": "uint256",
					"name": "bakcTokenId",
					"type": "uint256"
				}
			],
			"name": "ClaimRewardsPairNft",
			"type": "event"
		},
		{
			"anonymous": false,
			"inputs": [
				{
					"indexed": true,
					"internalType": "address",
					"name": "user",
					"type": "address"
				},
				{
					"indexed": false,
					"internalType": "uint256",
					"name": "amount",
					"type": "uint256"
				},
				{
					"indexed": false,
					"internalType": "address",
					"name": "recipient",
					"type": "address"
				}
			],
			"name": "Deposit",
			"type": "event"
		},
		{
			"anonymous": false,
			"inputs": [
				{
					"indexed": true,
					"internalType": "address",
					"name": "user",
					"type": "address"
				},
				{
					"indexed": true,
					"internalType": "uint256",
					"name": "poolId",
					"type": "uint256"
				},
				{
					"indexed": false,
					"internalType": "uint256",
					"name": "amount",
					"type": "uint256"
				},
				{
					"indexed": false,
					"internalType": "uint256",
					"name": "tokenId",
					"type": "uint256"
				}
			],
			"name": "DepositNft",
			"type": "event"
		},
		{
			"anonymous": false,
			"inputs": [
				{
					"indexed": true,
					"internalType": "address",
					"name": "user",
					"type": "address"
				},
				{
					"indexed": false,
					"internalType": "uint256",
					"name": "amount",
					"type": "uint256"
				},
				{
					"indexed": false,
					"internalType": "uint256",
					"name": "mainTypePoolId",
					"type": "uint256"
				},
				{
					"indexed": false,
					"internalType": "uint256",
					"name": "mainTokenId",
					"type": "uint256"
				},
				{
					"indexed": false,
					"internalType": "uint256",
					"name": "bakcTokenId",
					"type": "uint256"
				}
			],
			"name": "DepositPairNft",
			"type": "event"
		},
		{
			"anonymous": false,
			"inputs": [
				{
					"indexed": true,
					"internalType": "address",
					"name": "previousOwner",
					"type": "address"
				},
				{
					"indexed": true,
					"internalType": "address",
					"name": "newOwner",
					"type": "address"
				}
			],
			"name": "OwnershipTransferred",
			"type": "event"
		},
		{
			"anonymous": false,
			"inputs": [
				{
					"indexed": true,
					"internalType": "uint256",
					"name": "poolId",
					"type": "uint256"
				},
				{
					"indexed": false,
					"internalType": "uint256",
					"name": "lastRewardedBlock",
					"type": "uint256"
				},
				{
					"indexed": false,
					"internalType": "uint256",
					"name": "stakedAmount",
					"type": "uint256"
				},
				{
					"indexed": false,
					"internalType": "uint256",
					"name": "accumulatedRewardsPerShare",
					"type": "uint256"
				}
			],
			"name": "UpdatePool",
			"type": "event"
		},
		{
			"anonymous": false,
			"inputs": [
				{
					"indexed": true,
					"internalType": "address",
					"name": "user",
					"type": "address"
				},
				{
					"indexed": false,
					"internalType": "uint256",
					"name": "amount",
					"type": "uint256"
				},
				{
					"indexed": false,
					"internalType": "address",
					"name": "recipient",
					"type": "address"
				}
			],
			"name": "Withdraw",
			"type": "event"
		},
		{
			"anonymous": false,
			"inputs": [
				{
					"indexed": true,
					"internalType": "address",
					"name": "user",
					"type": "address"
				},
				{
					"indexed": true,
					"internalType": "uint256",
					"name": "poolId",
					"type": "uint256"
				},
				{
					"indexed": false,
					"internalType": "uint256",
					"name": "amount",
					"type": "uint256"
				},
				{
					"indexed": false,
					"internalType": "address",
					"name": "recipient",
					"type": "address"
				},
				{
					"indexed": false,
					"internalType": "uint256",
					"name": "tokenId",
					"type": "uint256"
				}
			],
			"name": "WithdrawNft",
			"type": "event"
		},
		{
			"anonymous": false,
			"inputs": [
				{
					"indexed": true,
					"internalType": "address",
					"name": "user",
					"type": "address"
				},
				{
					"indexed": false,
					"internalType": "uint256",
					"name": "amount",
					"type": "uint256"
				},
				{
					"indexed": false,
					"internalType": "uint256",
					"name": "mainTypePoolId",
					"type": "uint256"
				},
				{
					"indexed": false,
					"internalType": "uint256",
					"name": "mainTokenId",
					"type": "uint256"
				},
				{
					"indexed": false,
					"internalType": "uint256",
					"name": "bakcTokenId",
					"type": "uint256"
				}
			],
			"name": "WithdrawPairNft",
			"type": "event"
		},
		{
			"inputs": [
				{
					"internalType": "uint256",
					"name": "_poolId",
					"type": "uint256"
				},
				{
					"internalType": "uint256",
					"name": "_amount",
					"type": "uint256"
				},
				{
					"internalType": "uint256",
					"name": "_startTimestamp",
					"type": "uint256"
				},
				{
					"internalType": "uint256",
					"name": "_endTimeStamp",
					"type": "uint256"
				},
				{
					"internalType": "uint256",
					"name": "_capPerPosition",
					"type": "uint256"
				}
			],
			"name": "addTimeRange",
			"outputs": [],
			"stateMutability": "nonpayable",
			"type": "function"
		},
		{
			"inputs": [
				{
					"internalType": "address",
					"name": "",
					"type": "address"
				}
			],
			"name": "addressPosition",
			"outputs": [
				{
					"internalType": "uint256",
					"name": "stakedAmount",
					"type": "uint256"
				},
				{
					"internalType": "int256",
					"name": "rewardsDebt",
					"type": "int256"
				}
			],
			"stateMutability": "view",
			"type": "function"
		},
		{
			"inputs": [],
			"name": "apeCoin",
			"outputs": [
				{
					"internalType": "contract IERC20",
					"name": "",
					"type": "address"
				}
			],
			"stateMutability": "view",
			"type": "function"
		},
		{
			"inputs": [
				{
					"internalType": "uint256",
					"name": "",
					"type": "uint256"
				},
				{
					"internalType": "uint256",
					"name": "",
					"type": "uint256"
				}
			],
			"name": "bakcToMain",
			"outputs": [
				{
					"internalType": "uint248",
					"name": "tokenId",
					"type": "uint248"
				},
				{
					"internalType": "bool",
					"name": "isPaired",
					"type": "bool"
				}
			],
			"stateMutability": "view",
			"type": "function"
		},
		{
			"inputs": [
				{
					"internalType": "address",
					"name": "_recipient",
					"type": "address"
				}
			],
			"name": "claimApeCoin",
			"outputs": [],
			"stateMutability": "nonpayable",
			"type": "function"
		},
		{
			"inputs": [
				{
					"components": [
						{
							"internalType": "uint128",
							"name": "mainTokenId",
							"type": "uint128"
						},
						{
							"internalType": "uint128",
							"name": "bakcTokenId",
							"type": "uint128"
						}
					],
					"internalType": "struct ApeCoinStaking.PairNft[]",
					"name": "_baycPairs",
					"type": "tuple[]"
				},
				{
					"components": [
						{
							"internalType": "uint128",
							"name": "mainTokenId",
							"type": "uint128"
						},
						{
							"internalType": "uint128",
							"name": "bakcTokenId",
							"type": "uint128"
						}
					],
					"internalType": "struct ApeCoinStaking.PairNft[]",
					"name": "_maycPairs",
					"type": "tuple[]"
				},
				{
					"internalType": "address",
					"name": "_recipient",
					"type": "address"
				}
			],
			"name": "claimBAKC",
			"outputs": [],
			"stateMutability": "nonpayable",
			"type": "function"
		},
		{
			"inputs": [
				{
					"internalType": "uint256[]",
					"name": "_nfts",
					"type": "uint256[]"
				},
				{
					"internalType": "address",
					"name": "_recipient",
					"type": "address"
				}
			],
			"name": "claimBAYC",
			"outputs": [],
			"stateMutability": "nonpayable",
			"type": "function"
		},
		{
			"inputs": [
				{
					"internalType": "uint256[]",
					"name": "_nfts",
					"type": "uint256[]"
				},
				{
					"internalType": "address",
					"name": "_recipient",
					"type": "address"
				}
			],
			"name": "claimMAYC",
			"outputs": [],
			"stateMutability": "nonpayable",
			"type": "function"
		},
		{
			"inputs": [],
			"name": "claimSelfApeCoin",
			"outputs": [],
			"stateMutability": "nonpayable",
			"type": "function"
		},
		{
			"inputs": [
				{
					"components": [
						{
							"internalType": "uint128",
							"name": "mainTokenId",
							"type": "uint128"
						},
						{
							"internalType": "uint128",
							"name": "bakcTokenId",
							"type": "uint128"
						}
					],
					"internalType": "struct ApeCoinStaking.PairNft[]",
					"name": "_baycPairs",
					"type": "tuple[]"
				},
				{
					"components": [
						{
							"internalType": "uint128",
							"name": "mainTokenId",
							"type": "uint128"
						},
						{
							"internalType": "uint128",
							"name": "bakcTokenId",
							"type": "uint128"
						}
					],
					"internalType": "struct ApeCoinStaking.PairNft[]",
					"name": "_maycPairs",
					"type": "tuple[]"
				}
			],
			"name": "claimSelfBAKC",
			"outputs": [],
			"stateMutability": "nonpayable",
			"type": "function"
		},
		{
			"inputs": [
				{
					"internalType": "uint256[]",
					"name": "_nfts",
					"type": "uint256[]"
				}
			],
			"name": "claimSelfBAYC",
			"outputs": [],
			"stateMutability": "nonpayable",
			"type": "function"
		},
		{
			"inputs": [
				{
					"internalType": "uint256[]",
					"name": "_nfts",
					"type": "uint256[]"
				}
			],
			"name": "claimSelfMAYC",
			"outputs": [],
			"stateMutability": "nonpayable",
			"type": "function"
		},
		{
			"inputs": [
				{
					"internalType": "uint256",
					"name": "_amount",
					"type": "uint256"
				},
				{
					"internalType": "address",
					"name": "_recipient",
					"type": "address"
				}
			],
			"name": "depositApeCoin",
			"outputs": [],
			"stateMutability": "nonpayable",
			"type": "function"
		},
		{
			"inputs": [
				{
					"components": [
						{
							"internalType": "uint32",
							"name": "mainTokenId",
							"type": "uint32"
						},
						{
							"internalType": "uint32",
							"name": "bakcTokenId",
							"type": "uint32"
						},
						{
							"internalType": "uint184",
							"name": "amount",
							"type": "uint184"
						}
					],
					"internalType": "struct ApeCoinStaking.PairNftDepositWithAmount[]",
					"name": "_baycPairs",
					"type": "tuple[]"
				},
				{
					"components": [
						{
							"internalType": "uint32",
							"name": "mainTokenId",
							"type": "uint32"
						},
						{
							"internalType": "uint32",
							"name": "bakcTokenId",
							"type": "uint32"
						},
						{
							"internalType": "uint184",
							"name": "amount",
							"type": "uint184"
						}
					],
					"internalType": "struct ApeCoinStaking.PairNftDepositWithAmount[]",
					"name": "_maycPairs",
					"type": "tuple[]"
				}
			],
			"name": "depositBAKC",
			"outputs": [],
			"stateMutability": "nonpayable",
			"type": "function"
		},
		{
			"inputs": [
				{
					"components": [
						{
							"internalType": "uint32",
							"name": "tokenId",
							"type": "uint32"
						},
						{
							"internalType": "uint224",
							"name": "amount",
							"type": "uint224"
						}
					],
					"internalType": "struct ApeCoinStaking.SingleNft[]",
					"name": "_nfts",
					"type": "tuple[]"
				}
			],
			"name": "depositBAYC",
			"outputs": [],
			"stateMutability": "nonpayable",
			"type": "function"
		},
		{
			"inputs": [
				{
					"components": [
						{
							"internalType": "uint32",
							"name": "tokenId",
							"type": "uint32"
						},
						{
							"internalType": "uint224",
							"name": "amount",
							"type": "uint224"
						}
					],
					"internalType": "struct ApeCoinStaking.SingleNft[]",
					"name": "_nfts",
					"type": "tuple[]"
				}
			],
			"name": "depositMAYC",
			"outputs": [],
			"stateMutability": "nonpayable",
			"type": "function"
		},
		{
			"inputs": [
				{
					"internalType": "uint256",
					"name": "_amount",
					"type": "uint256"
				}
			],
			"name": "depositSelfApeCoin",
			"outputs": [],
			"stateMutability": "nonpayable",
			"type": "function"
		},
		{
			"inputs": [
				{
					"internalType": "address",
					"name": "_address",
					"type": "address"
				}
			],
			"name": "getAllStakes",
			"outputs": [
				{
					"components": [
						{
							"internalType": "uint256",
							"name": "poolId",
							"type": "uint256"
						},
						{
							"internalType": "uint256",
							"name": "tokenId",
							"type": "uint256"
						},
						{
							"internalType": "uint256",
							"name": "deposited",
							"type": "uint256"
						},
						{
							"internalType": "uint256",
							"name": "unclaimed",
							"type": "uint256"
						},
						{
							"internalType": "uint256",
							"name": "rewards24hr",
							"type": "uint256"
						},
						{
							"components": [
								{
									"internalType": "uint256",
									"name": "mainTokenId",
									"type": "uint256"
								},
								{
									"internalType": "uint256",
									"name": "mainTypePoolId",
									"type": "uint256"
								}
							],
							"internalType": "struct ApeCoinStaking.DashboardPair",
							"name": "pair",
							"type": "tuple"
						}
					],
					"internalType": "struct ApeCoinStaking.DashboardStake[]",
					"name": "",
					"type": "tuple[]"
				}
			],
			"stateMutability": "view",
			"type": "function"
		},
		{
			"inputs": [
				{
					"internalType": "address",
					"name": "_address",
					"type": "address"
				}
			],
			"name": "getApeCoinStake",
			"outputs": [
				{
					"components": [
						{
							"internalType": "uint256",
							"name": "poolId",
							"type": "uint256"
						},
						{
							"internalType": "uint256",
							"name": "tokenId",
							"type": "uint256"
						},
						{
							"internalType": "uint256",
							"name": "deposited",
							"type": "uint256"
						},
						{
							"internalType": "uint256",
							"name": "unclaimed",
							"type": "uint256"
						},
						{
							"internalType": "uint256",
							"name": "rewards24hr",
							"type": "uint256"
						},
						{
							"components": [
								{
									"internalType": "uint256",
									"name": "mainTokenId",
									"type": "uint256"
								},
								{
									"internalType": "uint256",
									"name": "mainTypePoolId",
									"type": "uint256"
								}
							],
							"internalType": "struct ApeCoinStaking.DashboardPair",
							"name": "pair",
							"type": "tuple"
						}
					],
					"internalType": "struct ApeCoinStaking.DashboardStake",
					"name": "",
					"type": "tuple"
				}
			],
			"stateMutability": "view",
			"type": "function"
		},
		{
			"inputs": [
				{
					"internalType": "address",
					"name": "_address",
					"type": "address"
				}
			],
			"name": "getBakcStakes",
			"outputs": [
				{
					"components": [
						{
							"internalType": "uint256",
							"name": "poolId",
							"type": "uint256"
						},
						{
							"internalType": "uint256",
							"name": "tokenId",
							"type": "uint256"
						},
						{
							"internalType": "uint256",
							"name": "deposited",
							"type": "uint256"
						},
						{
							"internalType": "uint256",
							"name": "unclaimed",
							"type": "uint256"
						},
						{
							"internalType": "uint256",
							"name": "rewards24hr",
							"type": "uint256"
						},
						{
							"components": [
								{
									"internalType": "uint256",
									"name": "mainTokenId",
									"type": "uint256"
								},
								{
									"internalType": "uint256",
									"name": "mainTypePoolId",
									"type": "uint256"
								}
							],
							"internalType": "struct ApeCoinStaking.DashboardPair",
							"name": "pair",
							"type": "tuple"
						}
					],
					"internalType": "struct ApeCoinStaking.DashboardStake[]",
					"name": "",
					"type": "tuple[]"
				}
			],
			"stateMutability": "view",
			"type": "function"
		},
		{
			"inputs": [
				{
					"internalType": "address",
					"name": "_address",
					"type": "address"
				}
			],
			"name": "getBaycStakes",
			"outputs": [
				{
					"components": [
						{
							"internalType": "uint256",
							"name": "poolId",
							"type": "uint256"
						},
						{
							"internalType": "uint256",
							"name": "tokenId",
							"type": "uint256"
						},
						{
							"internalType": "uint256",
							"name": "deposited",
							"type": "uint256"
						},
						{
							"internalType": "uint256",
							"name": "unclaimed",
							"type": "uint256"
						},
						{
							"internalType": "uint256",
							"name": "rewards24hr",
							"type": "uint256"
						},
						{
							"components": [
								{
									"internalType": "uint256",
									"name": "mainTokenId",
									"type": "uint256"
								},
								{
									"internalType": "uint256",
									"name": "mainTypePoolId",
									"type": "uint256"
								}
							],
							"internalType": "struct ApeCoinStaking.DashboardPair",
							"name": "pair",
							"type": "tuple"
						}
					],
					"internalType": "struct ApeCoinStaking.DashboardStake[]",
					"name": "",
					"type": "tuple[]"
				}
			],
			"stateMutability": "view",
			"type": "function"
		},
		{
			"inputs": [
				{
					"internalType": "address",
					"name": "_address",
					"type": "address"
				}
			],
			"name": "getMaycStakes",
			"outputs": [
				{
					"components": [
						{
							"internalType": "uint256",
							"name": "poolId",
							"type": "uint256"
						},
						{
							"internalType": "uint256",
							"name": "tokenId",
							"type": "uint256"
						},
						{
							"internalType": "uint256",
							"name": "deposited",
							"type": "uint256"
						},
						{
							"internalType": "uint256",
							"name": "unclaimed",
							"type": "uint256"
						},
						{
							"internalType": "uint256",
							"name": "rewards24hr",
							"type": "uint256"
						},
						{
							"components": [
								{
									"internalType": "uint256",
									"name": "mainTokenId",
									"type": "uint256"
								},
								{
									"internalType": "uint256",
									"name": "mainTypePoolId",
									"type": "uint256"
								}
							],
							"internalType": "struct ApeCoinStaking.DashboardPair",
							"name": "pair",
							"type": "tuple"
						}
					],
					"internalType": "struct ApeCoinStaking.DashboardStake[]",
					"name": "",
					"type": "tuple[]"
				}
			],
			"stateMutability": "view",
			"type": "function"
		},
		{
			"inputs": [],
			"name": "getPoolsUI",
			"outputs": [
				{
					"components": [
						{
							"internalType": "uint256",
							"name": "poolId",
							"type": "uint256"
						},
						{
							"internalType": "uint256",
							"name": "stakedAmount",
							"type": "uint256"
						},
						{
							"components": [
								{
									"internalType": "uint48",
									"name": "startTimestampHour",
									"type": "uint48"
								},
								{
									"internalType": "uint48",
									"name": "endTimestampHour",
									"type": "uint48"
								},
								{
									"internalType": "uint96",
									"name": "rewardsPerHour",
									"type": "uint96"
								},
								{
									"internalType": "uint96",
									"name": "capPerPosition",
									"type": "uint96"
								}
							],
							"internalType": "struct ApeCoinStaking.TimeRange",
							"name": "currentTimeRange",
							"type": "tuple"
						}
					],
					"internalType": "struct ApeCoinStaking.PoolUI",
					"name": "",
					"type": "tuple"
				},
				{
					"components": [
						{
							"internalType": "uint256",
							"name": "poolId",
							"type": "uint256"
						},
						{
							"internalType": "uint256",
							"name": "stakedAmount",
							"type": "uint256"
						},
						{
							"components": [
								{
									"internalType": "uint48",
									"name": "startTimestampHour",
									"type": "uint48"
								},
								{
									"internalType": "uint48",
									"name": "endTimestampHour",
									"type": "uint48"
								},
								{
									"internalType": "uint96",
									"name": "rewardsPerHour",
									"type": "uint96"
								},
								{
									"internalType": "uint96",
									"name": "capPerPosition",
									"type": "uint96"
								}
							],
							"internalType": "struct ApeCoinStaking.TimeRange",
							"name": "currentTimeRange",
							"type": "tuple"
						}
					],
					"internalType": "struct ApeCoinStaking.PoolUI",
					"name": "",
					"type": "tuple"
				},
				{
					"components": [
						{
							"internalType": "uint256",
							"name": "poolId",
							"type": "uint256"
						},
						{
							"internalType": "uint256",
							"name": "stakedAmount",
							"type": "uint256"
						},
						{
							"components": [
								{
									"internalType": "uint48",
									"name": "startTimestampHour",
									"type": "uint48"
								},
								{
									"internalType": "uint48",
									"name": "endTimestampHour",
									"type": "uint48"
								},
								{
									"internalType": "uint96",
									"name": "rewardsPerHour",
									"type": "uint96"
								},
								{
									"internalType": "uint96",
									"name": "capPerPosition",
									"type": "uint96"
								}
							],
							"internalType": "struct ApeCoinStaking.TimeRange",
							"name": "currentTimeRange",
							"type": "tuple"
						}
					],
					"internalType": "struct ApeCoinStaking.PoolUI",
					"name": "",
					"type": "tuple"
				},
				{
					"components": [
						{
							"internalType": "uint256",
							"name": "poolId",
							"type": "uint256"
						},
						{
							"internalType": "uint256",
							"name": "stakedAmount",
							"type": "uint256"
						},
						{
							"components": [
								{
									"internalType": "uint48",
									"name": "startTimestampHour",
									"type": "uint48"
								},
								{
									"internalType": "uint48",
									"name": "endTimestampHour",
									"type": "uint48"
								},
								{
									"internalType": "uint96",
									"name": "rewardsPerHour",
									"type": "uint96"
								},
								{
									"internalType": "uint96",
									"name": "capPerPosition",
									"type": "uint96"
								}
							],
							"internalType": "struct ApeCoinStaking.TimeRange",
							"name": "currentTimeRange",
							"type": "tuple"
						}
					],
					"internalType": "struct ApeCoinStaking.PoolUI",
					"name": "",
					"type": "tuple"
				}
			],
			"stateMutability": "view",
			"type": "function"
		},
		{
			"inputs": [
				{
					"internalType": "address",
					"name": "_address",
					"type": "address"
				}
			],
			"name": "getSplitStakes",
			"outputs": [
				{
					"components": [
						{
							"internalType": "uint256",
							"name": "poolId",
							"type": "uint256"
						},
						{
							"internalType": "uint256",
							"name": "tokenId",
							"type": "uint256"
						},
						{
							"internalType": "uint256",
							"name": "deposited",
							"type": "uint256"
						},
						{
							"internalType": "uint256",
							"name": "unclaimed",
							"type": "uint256"
						},
						{
							"internalType": "uint256",
							"name": "rewards24hr",
							"type": "uint256"
						},
						{
							"components": [
								{
									"internalType": "uint256",
									"name": "mainTokenId",
									"type": "uint256"
								},
								{
									"internalType": "uint256",
									"name": "mainTypePoolId",
									"type": "uint256"
								}
							],
							"internalType": "struct ApeCoinStaking.DashboardPair",
							"name": "pair",
							"type": "tuple"
						}
					],
					"internalType": "struct ApeCoinStaking.DashboardStake[]",
					"name": "",
					"type": "tuple[]"
				}
			],
			"stateMutability": "view",
			"type": "function"
		},
		{
			"inputs": [
				{
					"internalType": "uint256",
					"name": "_poolId",
					"type": "uint256"
				},
				{
					"internalType": "uint256",
					"name": "_index",
					"type": "uint256"
				}
			],
			"name": "getTimeRangeBy",
			"outputs": [
				{
					"components": [
						{
							"internalType": "uint48",
							"name": "startTimestampHour",
							"type": "uint48"
						},
						{
							"internalType": "uint48",
							"name": "endTimestampHour",
							"type": "uint48"
						},
						{
							"internalType": "uint96",
							"name": "rewardsPerHour",
							"type": "uint96"
						},
						{
							"internalType": "uint96",
							"name": "capPerPosition",
							"type": "uint96"
						}
					],
					"internalType": "struct ApeCoinStaking.TimeRange",
					"name": "",
					"type": "tuple"
				}
			],
			"stateMutability": "view",
			"type": "function"
		},
		{
			"inputs": [
				{
					"internalType": "uint256",
					"name": "",
					"type": "uint256"
				},
				{
					"internalType": "uint256",
					"name": "",
					"type": "uint256"
				}
			],
			"name": "mainToBakc",
			"outputs": [
				{
					"internalType": "uint248",
					"name": "tokenId",
					"type": "uint248"
				},
				{
					"internalType": "bool",
					"name": "isPaired",
					"type": "bool"
				}
			],
			"stateMutability": "view",
			"type": "function"
		},
		{
			"inputs": [
				{
					"internalType": "uint256",
					"name": "",
					"type": "uint256"
				}
			],
			"name": "nftContracts",
			"outputs": [
				{
					"internalType": "contract ERC721Enumerable",
					"name": "",
					"type": "address"
				}
			],
			"stateMutability": "view",
			"type": "function"
		},
		{
			"inputs": [
				{
					"internalType": "uint256",
					"name": "",
					"type": "uint256"
				},
				{
					"internalType": "uint256",
					"name": "",
					"type": "uint256"
				}
			],
			"name": "nftPosition",
			"outputs": [
				{
					"internalType": "uint256",
					"name": "stakedAmount",
					"type": "uint256"
				},
				{
					"internalType": "int256",
					"name": "rewardsDebt",
					"type": "int256"
				}
			],
			"stateMutability": "view",
			"type": "function"
		},
		{
			"inputs": [],
			"name": "owner",
			"outputs": [
				{
					"internalType": "address",
					"name": "",
					"type": "address"
				}
			],
			"stateMutability": "view",
			"type": "function"
		},
		{
			"inputs": [
				{
					"internalType": "uint256",
					"name": "_poolId",
					"type": "uint256"
				},
				{
					"internalType": "address",
					"name": "_address",
					"type": "address"
				},
				{
					"internalType": "uint256",
					"name": "_tokenId",
					"type": "uint256"
				}
			],
			"name": "pendingRewards",
			"outputs": [
				{
					"internalType": "uint256",
					"name": "",
					"type": "uint256"
				}
			],
			"stateMutability": "view",
			"type": "function"
		},
		{
			"inputs": [
				{
					"internalType": "uint256",
					"name": "",
					"type": "uint256"
				}
			],
			"name": "pools",
			"outputs": [
				{
					"internalType": "uint48",
					"name": "lastRewardedTimestampHour",
					"type": "uint48"
				},
				{
					"internalType": "uint16",
					"name": "lastRewardsRangeIndex",
					"type": "uint16"
				},
				{
					"internalType": "uint96",
					"name": "stakedAmount",
					"type": "uint96"
				},
				{
					"internalType": "uint96",
					"name": "accumulatedRewardsPerShare",
					"type": "uint96"
				}
			],
			"stateMutability": "view",
			"type": "function"
		},
		{
			"inputs": [
				{
					"internalType": "uint256",
					"name": "_poolId",
					"type": "uint256"
				}
			],
			"name": "removeLastTimeRange",
			"outputs": [],
			"stateMutability": "nonpayable",
			"type": "function"
		},
		{
			"inputs": [],
			"name": "renounceOwnership",
			"outputs": [],
			"stateMutability": "nonpayable",
			"type": "function"
		},
		{
			"inputs": [
				{
					"internalType": "uint256",
					"name": "_poolId",
					"type": "uint256"
				},
				{
					"internalType": "uint256",
					"name": "_from",
					"type": "uint256"
				},
				{
					"internalType": "uint256",
					"name": "_to",
					"type": "uint256"
				}
			],
			"name": "rewardsBy",
			"outputs": [
				{
					"internalType": "uint256",
					"name": "",
					"type": "uint256"
				},
				{
					"internalType": "uint256",
					"name": "",
					"type": "uint256"
				}
			],
			"stateMutability": "view",
			"type": "function"
		},
		{
			"inputs": [
				{
					"internalType": "address",
					"name": "_address",
					"type": "address"
				}
			],
			"name": "stakedTotal",
			"outputs": [
				{
					"internalType": "uint256",
					"name": "",
					"type": "uint256"
				}
			],
			"stateMutability": "view",
			"type": "function"
		},
		{
			"inputs": [
				{
					"internalType": "address",
					"name": "newOwner",
					"type": "address"
				}
			],
			"name": "transferOwnership",
			"outputs": [],
			"stateMutability": "nonpayable",
			"type": "function"
		},
		{
			"inputs": [
				{
					"internalType": "uint256",
					"name": "_poolId",
					"type": "uint256"
				}
			],
			"name": "updatePool",
			"outputs": [],
			"stateMutability": "nonpayable",
			"type": "function"
		},
		{
			"inputs": [
				{
					"internalType": "uint256",
					"name": "_amount",
					"type": "uint256"
				},
				{
					"internalType": "address",
					"name": "_recipient",
					"type": "address"
				}
			],
			"name": "withdrawApeCoin",
			"outputs": [],
			"stateMutability": "nonpayable",
			"type": "function"
		},
		{
			"inputs": [
				{
					"components": [
						{
							"internalType": "uint32",
							"name": "mainTokenId",
							"type": "uint32"
						},
						{
							"internalType": "uint32",
							"name": "bakcTokenId",
							"type": "uint32"
						},
						{
							"internalType": "uint184",
							"name": "amount",
							"type": "uint184"
						},
						{
							"internalType": "bool",
							"name": "isUncommit",
							"type": "bool"
						}
					],
					"internalType": "struct ApeCoinStaking.PairNftWithdrawWithAmount[]",
					"name": "_baycPairs",
					"type": "tuple[]"
				},
				{
					"components": [
						{
							"internalType": "uint32",
							"name": "mainTokenId",
							"type": "uint32"
						},
						{
							"internalType": "uint32",
							"name": "bakcTokenId",
							"type": "uint32"
						},
						{
							"internalType": "uint184",
							"name": "amount",
							"type": "uint184"
						},
						{
							"internalType": "bool",
							"name": "isUncommit",
							"type": "bool"
						}
					],
					"internalType": "struct ApeCoinStaking.PairNftWithdrawWithAmount[]",
					"name": "_maycPairs",
					"type": "tuple[]"
				}
			],
			"name": "withdrawBAKC",
			"outputs": [],
			"stateMutability": "nonpayable",
			"type": "function"
		},
		{
			"inputs": [
				{
					"components": [
						{
							"internalType": "uint32",
							"name": "tokenId",
							"type": "uint32"
						},
						{
							"internalType": "uint224",
							"name": "amount",
							"type": "uint224"
						}
					],
					"internalType": "struct ApeCoinStaking.SingleNft[]",
					"name": "_nfts",
					"type": "tuple[]"
				},
				{
					"internalType": "address",
					"name": "_recipient",
					"type": "address"
				}
			],
			"name": "withdrawBAYC",
			"outputs": [],
			"stateMutability": "nonpayable",
			"type": "function"
		},
		{
			"inputs": [
				{
					"components": [
						{
							"internalType": "uint32",
							"name": "tokenId",
							"type": "uint32"
						},
						{
							"internalType": "uint224",
							"name": "amount",
							"type": "uint224"
						}
					],
					"internalType": "struct ApeCoinStaking.SingleNft[]",
					"name": "_nfts",
					"type": "tuple[]"
				},
				{
					"internalType": "address",
					"name": "_recipient",
					"type": "address"
				}
			],
			"name": "withdrawMAYC",
			"outputs": [],
			"stateMutability": "nonpayable",
			"type": "function"
		},
		{
			"inputs": [
				{
					"internalType": "uint256",
					"name": "_amount",
					"type": "uint256"
				}
			],
			"name": "withdrawSelfApeCoin",
			"outputs": [],
			"stateMutability": "nonpayable",
			"type": "function"
		},
		{
			"inputs": [
				{
					"components": [
						{
							"internalType": "uint32",
							"name": "tokenId",
							"type": "uint32"
						},
						{
							"internalType": "uint224",
							"name": "amount",
							"type": "uint224"
						}
					],
					"internalType": "struct ApeCoinStaking.SingleNft[]",
					"name": "_nfts",
					"type": "tuple[]"
				}
			],
			"name": "withdrawSelfBAYC",
			"outputs": [],
			"stateMutability": "nonpayable",
			"type": "function"
		},
		{
			"inputs": [
				{
					"components": [
						{
							"internalType": "uint32",
							"name": "tokenId",
							"type": "uint32"
						},
						{
							"internalType": "uint224",
							"name": "amount",
							"type": "uint224"
						}
					],
					"internalType": "struct ApeCoinStaking.SingleNft[]",
					"name": "_nfts",
					"type": "tuple[]"
				}
			],
			"name": "withdrawSelfMAYC",
			"outputs": [],
			"stateMutability": "nonpayable",
			"type": "function"
		}
	]
}