{
	"data": {
		"bytecode": {
			"linkReferences": {},
			"object": "60806040523480156200001157600080fd5b5060405162001761380380620017618339818101604052810190620000379190620000fd565b80600160006101000a81548173ffffffffffffffffffffffffffffffffffffffff021916908373ffffffffffffffffffffffffffffffffffffffff160217905550506200012f565b600080fd5b600073ffffffffffffffffffffffffffffffffffffffff82169050919050565b6000620000b18262000084565b9050919050565b6000620000c582620000a4565b9050919050565b620000d781620000b8565b8114620000e357600080fd5b50565b600081519050620000f781620000cc565b92915050565b6000602082840312156200011657620001156200007f565b5b60006200012684828501620000e6565b91505092915050565b611622806200013f6000396000f3fe608060405234801561001057600080fd5b50600436106100935760003560e01c8063a638f2e211610066578063a638f2e214610139578063cf57ee6914610155578063cfd4766314610185578063cfdaa7a7146101b5578063d06fcba8146101e557610093565b80630e15561a14610098578063150b7a02146100b65780632e17de78146100e6578063584b62a114610102575b600080fd5b6100a0610203565b6040516100ad9190610c3d565b60405180910390f35b6100d060048036038101906100cb9190610e3c565b610209565b6040516100dd9190610efa565b60405180910390f35b61010060048036038101906100fb9190610f15565b61021d565b005b61011c60048036038101906101179190610f42565b610447565b604051610130989796959493929190610fac565b60405180910390f35b610153600480360381019061014e919061102a565b6104d9565b005b61016f600480360381019061016a919061107d565b6108ad565b60405161017c9190610c3d565b60405180910390f35b61019f600480360381019061019a9190610f42565b6108f8565b6040516101ac9190611179565b60405180910390f35b6101cf60048036038101906101ca9190610f42565b610a1f565b6040516101dc9190610c3d565b60405180910390f35b6101ed610ba1565b6040516101fa91906111f4565b60405180910390f35b60025481565b600063150b7a0260e01b9050949350505050565b60008060003373ffffffffffffffffffffffffffffffffffffffff1673ffffffffffffffffffffffffffffffffffffffff168152602001908152602001600020828154811061026f5761026e61120f565b5b906000526020600020906008020190508060070160009054906101000a900460ff16156102d1576040517f08c379a00000000000000000000000000000000000000000000000000000000081526004016102c8906112c1565b60405180910390fd5b4281600301541115610318576040517f08c379a000000000000000000000000000000000000000000000000000000000815260040161030f9061132d565b60405180910390fd5b60008160060154826005015461032e919061137c565b90508160050154826006018190555060018260070160006101000a81548160ff021916908315150217905550600160009054906101000a900473ffffffffffffffffffffffffffffffffffffffff1673ffffffffffffffffffffffffffffffffffffffff166342842e0e303385600101546040518463ffffffff1660e01b81526004016103bd939291906113b0565b600060405180830381600087803b1580156103d757600080fd5b505af11580156103eb573d6000803e3d6000fd5b5050505081600101543373ffffffffffffffffffffffffffffffffffffffff167f7fc4727e062e336010f2c282598ef5f14facb3de68cf8195c2f23e1454b2b74e8360405161043a9190610c3d565b60405180910390a3505050565b6000602052816000526040600020818154811061046357600080fd5b9060005260206000209060080201600091509150508060000160009054906101000a900473ffffffffffffffffffffffffffffffffffffffff16908060010154908060020154908060030154908060040154908060050154908060060154908060070160009054906101000a900460ff16905088565b3373ffffffffffffffffffffffffffffffffffffffff16600160009054906101000a900473ffffffffffffffffffffffffffffffffffffffff1673ffffffffffffffffffffffffffffffffffffffff16636352211e856040518263ffffffff1660e01b815260040161054b9190610c3d565b602060405180830381865afa158015610568573d6000803e3d6000fd5b505050506040513d601f19601f8201168201806040525081019061058c91906113fc565b73ffffffffffffffffffffffffffffffffffffffff16146105e2576040517f08c379a00000000000000000000000000000000000000000000000000000000081526004016105d99061149b565b60405180910390fd5b60008211610625576040517f08c379a000000000000000000000000000000000000000000000000000000000815260040161061c9061152d565b60405180910390fd5b600042905060008382610638919061154d565b9050600083856106489190611581565b9050600160009054906101000a900473ffffffffffffffffffffffffffffffffffffffff1673ffffffffffffffffffffffffffffffffffffffff166342842e0e3330896040518463ffffffff1660e01b81526004016106a9939291906113b0565b600060405180830381600087803b1580156106c357600080fd5b505af11580156106d7573d6000803e3d6000fd5b505050506000803373ffffffffffffffffffffffffffffffffffffffff1673ffffffffffffffffffffffffffffffffffffffff1681526020019081526020016000206040518061010001604052803373ffffffffffffffffffffffffffffffffffffffff1681526020018881526020018581526020018481526020018681526020018381526020016000815260200160001515815250908060018154018082558091505060019003906000526020600020906008020160009091909190915060008201518160000160006101000a81548173ffffffffffffffffffffffffffffffffffffffff021916908373ffffffffffffffffffffffffffffffffffffffff1602179055506020820151816001015560408201518160020155606082015181600301556080820151816004015560a0820151816005015560c0820151816006015560e08201518160070160006101000a81548160ff0219169083151502179055505050806002600082825461084d919061154d565b92505081905550853373ffffffffffffffffffffffffffffffffffffffff167fb4caaf29adda3eefee3ad552a8e85058589bf834c7466cae4ee58787f70589ed858560405161089d9291906115c3565b60405180910390a3505050505050565b60008060008373ffffffffffffffffffffffffffffffffffffffff1673ffffffffffffffffffffffffffffffffffffffff168152602001908152602001600020805490509050919050565b610900610bc7565b6000808473ffffffffffffffffffffffffffffffffffffffff1673ffffffffffffffffffffffffffffffffffffffff16815260200190815260200160002082815481106109505761094f61120f565b5b9060005260206000209060080201604051806101000160405290816000820160009054906101000a900473ffffffffffffffffffffffffffffffffffffffff1673ffffffffffffffffffffffffffffffffffffffff1673ffffffffffffffffffffffffffffffffffffffff1681526020016001820154815260200160028201548152602001600382015481526020016004820154815260200160058201548152602001600682015481526020016007820160009054906101000a900460ff161515151581525050905092915050565b6000806000808573ffffffffffffffffffffffffffffffffffffffff1673ffffffffffffffffffffffffffffffffffffffff1681526020019081526020016000208381548110610a7257610a7161120f565b5b9060005260206000209060080201604051806101000160405290816000820160009054906101000a900473ffffffffffffffffffffffffffffffffffffffff1673ffffffffffffffffffffffffffffffffffffffff1673ffffffffffffffffffffffffffffffffffffffff1681526020016001820154815260200160028201548152602001600382015481526020016004820154815260200160058201548152602001600682015481526020016007820160009054906101000a900460ff16151515158152505090508060e0015180610b4e5750428160600151115b15610b5d576000915050610b9b565b6000816040015142610b6f919061137c565b905060008260c00151836080015183610b889190611581565b610b92919061137c565b90508093505050505b92915050565b600160009054906101000a900473ffffffffffffffffffffffffffffffffffffffff1681565b604051806101000160405280600073ffffffffffffffffffffffffffffffffffffffff1681526020016000815260200160008152602001600081526020016000815260200160008152602001600081526020016000151581525090565b6000819050919050565b610c3781610c24565b82525050565b6000602082019050610c526000830184610c2e565b92915050565b6000604051905090565b600080fd5b600080fd5b600073ffffffffffffffffffffffffffffffffffffffff82169050919050565b6000610c9782610c6c565b9050919050565b610ca781610c8c565b8114610cb257600080fd5b50565b600081359050610cc481610c9e565b92915050565b610cd381610c24565b8114610cde57600080fd5b50565b600081359050610cf081610cca565b92915050565b600080fd5b600080fd5b6000601f19601f8301169050919050565b7f4e487b7100000000000000000000000000000000000000000000000000000000600052604160045260246000fd5b610d4982610d00565b810181811067ffffffffffffffff82111715610d6857610d67610d11565b5b80604052505050565b6000610d7b610c58565b9050610d878282610d40565b919050565b600067ffffffffffffffff821115610da757610da6610d11565b5b610db082610d00565b9050602081019050919050565b82818337600083830152505050565b6000610ddf610dda84610d8c565b610d71565b905082815260208101848484011115610dfb57610dfa610cfb565b5b610e06848285610dbd565b509392505050565b600082601f830112610e2357610e22610cf6565b5b8135610e33848260208601610dcc565b91505092915050565b60008060008060808587031215610e5657610e55610c62565b5b6000610e6487828801610cb5565b9450506020610e7587828801610cb5565b9350506040610e8687828801610ce1565b925050606085013567ffffffffffffffff811115610ea757610ea6610c67565b5b610eb387828801610e0e565b91505092959194509250565b60007fffffffff0000000000000000000000000000000000000000000000000000000082169050919050565b610ef481610ebf565b82525050565b6000602082019050610f0f6000830184610eeb565b92915050565b600060208284031215610f2b57610f2a610c62565b5b6000610f3984828501610ce1565b91505092915050565b60008060408385031215610f5957610f58610c62565b5b6000610f6785828601610cb5565b9250506020610f7885828601610ce1565b9150509250929050565b610f8b81610c8c565b82525050565b60008115159050919050565b610fa681610f91565b82525050565b600061010082019050610fc2600083018b610f82565b610fcf602083018a610c2e565b610fdc6040830189610c2e565b610fe96060830188610c2e565b610ff66080830187610c2e565b61100360a0830186610c2e565b61101060c0830185610c2e565b61101d60e0830184610f9d565b9998505050505050505050565b60008060006060848603121561104357611042610c62565b5b600061105186828701610ce1565b935050602061106286828701610ce1565b925050604061107386828701610ce1565b9150509250925092565b60006020828403121561109357611092610c62565b5b60006110a184828501610cb5565b91505092915050565b6110b381610c8c565b82525050565b6110c281610c24565b82525050565b6110d181610f91565b82525050565b610100820160008201516110ee60008501826110aa565b50602082015161110160208501826110b9565b50604082015161111460408501826110b9565b50606082015161112760608501826110b9565b50608082015161113a60808501826110b9565b5060a082015161114d60a08501826110b9565b5060c082015161116060c08501826110b9565b5060e082015161117360e08501826110c8565b50505050565b60006101008201905061118f60008301846110d7565b92915050565b6000819050919050565b60006111ba6111b56111b084610c6c565b611195565b610c6c565b9050919050565b60006111cc8261119f565b9050919050565b60006111de826111c1565b9050919050565b6111ee816111d3565b82525050565b600060208201905061120960008301846111e5565b92915050565b7f4e487b7100000000000000000000000000000000000000000000000000000000600052603260045260246000fd5b600082825260208201905092915050565b7f4e46545374616b696e673a2072657761726420616c726561647920776974686460008201527f7261776e00000000000000000000000000000000000000000000000000000000602082015250565b60006112ab60248361123e565b91506112b68261124f565b604082019050919050565b600060208201905081810360008301526112da8161129e565b9050919050565b7f4e46545374616b696e673a207374616b65206e6f742079657420656e64656400600082015250565b6000611317601f8361123e565b9150611322826112e1565b602082019050919050565b600060208201905081810360008301526113468161130a565b9050919050565b7f4e487b7100000000000000000000000000000000000000000000000000000000600052601160045260246000fd5b600061138782610c24565b915061139283610c24565b92508282039050818111156113aa576113a961134d565b5b92915050565b60006060820190506113c56000830186610f82565b6113d26020830185610f82565b6113df6040830184610c2e565b949350505050565b6000815190506113f681610c9e565b92915050565b60006020828403121561141257611411610c62565b5b6000611420848285016113e7565b91505092915050565b7f4e46545374616b696e673a2063616c6c6572206973206e6f74204e4654206f7760008201527f6e65720000000000000000000000000000000000000000000000000000000000602082015250565b600061148560238361123e565b915061149082611429565b604082019050919050565b600060208201905081810360008301526114b481611478565b9050919050565b7f4e46545374616b696e673a206475726174696f6e206d7573742062652067726560008201527f61746572207468616e207a65726f000000000000000000000000000000000000602082015250565b6000611517602e8361123e565b9150611522826114bb565b604082019050919050565b600060208201905081810360008301526115468161150a565b9050919050565b600061155882610c24565b915061156383610c24565b925082820190508082111561157b5761157a61134d565b5b92915050565b600061158c82610c24565b915061159783610c24565b92508282026115a581610c24565b915082820484148315176115bc576115bb61134d565b5b5092915050565b60006040820190506115d86000830185610c2e565b6115e56020830184610c2e565b939250505056fea26469706673582212203c93e1afe275f9fda8011458d2b8111deaea12525fc089b032c0e0445ca8cf6d64736f6c63430008110033",
			"opcodes": "PUSH1 0x80 PUSH1 0x40 MSTORE CALLVALUE DUP1 ISZERO PUSH3 0x11 JUMPI PUSH1 0x0 DUP1 REVERT JUMPDEST POP PUSH1 0x40 MLOAD PUSH3 0x1761 CODESIZE SUB DUP1 PUSH3 0x1761 DUP4 CODECOPY DUP2 DUP2 ADD PUSH1 0x40 MSTORE DUP2 ADD SWAP1 PUSH3 0x37 SWAP2 SWAP1 PUSH3 0xFD JUMP JUMPDEST DUP1 PUSH1 0x1 PUSH1 0x0 PUSH2 0x100 EXP DUP2 SLOAD DUP2 PUSH20 0xFFFFFFFFFFFFFFFFFFFFFFFFFFFFFFFFFFFFFFFF MUL NOT AND SWAP1 DUP4 PUSH20 0xFFFFFFFFFFFFFFFFFFFFFFFFFFFFFFFFFFFFFFFF AND MUL OR SWAP1 SSTORE POP POP PUSH3 0x12F JUMP JUMPDEST PUSH1 0x0 DUP1 REVERT JUMPDEST PUSH1 0x0 PUSH20 0xFFFFFFFFFFFFFFFFFFFFFFFFFFFFFFFFFFFFFFFF DUP3 AND SWAP1 POP SWAP2 SWAP1 POP JUMP JUMPDEST PUSH1 0x0 PUSH3 0xB1 DUP3 PUSH3 0x84 JUMP JUMPDEST SWAP1 POP SWAP2 SWAP1 POP JUMP JUMPDEST PUSH1 0x0 PUSH3 0xC5 DUP3 PUSH3 0xA4 JUMP JUMPDEST SWAP1 POP SWAP2 SWAP1 POP JUMP JUMPDEST PUSH3 0xD7 DUP2 PUSH3 0xB8 JUMP JUMPDEST DUP2 EQ PUSH3 0xE3 JUMPI PUSH1 0x0 DUP1 REVERT JUMPDEST POP JUMP JUMPDEST PUSH1 0x0 DUP2 MLOAD SWAP1 POP PUSH3 0xF7 DUP2 PUSH3 0xCC JUMP JUMPDEST SWAP3 SWAP2 POP POP JUMP JUMPDEST PUSH1 0x0 PUSH1 0x20 DUP3 DUP5 SUB SLT ISZERO PUSH3 0x116 JUMPI PUSH3 0x115 PUSH3 0x7F JUMP JUMPDEST JUMPDEST PUSH1 0x0 PUSH3 0x126 DUP5 DUP3 DUP6 ADD PUSH3 0xE6 JUMP JUMPDEST SWAP2 POP POP SWAP3 SWAP2 POP POP JUMP JUMPDEST PUSH2 0x1622 DUP1 PUSH3 0x13F PUSH1 0x0 CODECOPY PUSH1 0x0 RETURN INVALID PUSH1 0x80 PUSH1 0x40 MSTORE CALLVALUE DUP1 ISZERO PUSH2 0x10 JUMPI PUSH1 0x0 DUP1 REVERT JUMPDEST POP PUSH1 0x4 CALLDATASIZE LT PUSH2 0x93 JUMPI PUSH1 0x0 CALLDATALOAD PUSH1 0xE0 SHR DUP1 PUSH4 0xA638F2E2 GT PUSH2 0x66 JUMPI DUP1 PUSH4 0xA638F2E2 EQ PUSH2 0x139 JUMPI DUP1 PUSH4 0xCF57EE69 EQ PUSH2 0x155 JUMPI DUP1 PUSH4 0xCFD47663 EQ PUSH2 0x185 JUMPI DUP1 PUSH4 0xCFDAA7A7 EQ PUSH2 0x1B5 JUMPI DUP1 PUSH4 0xD06FCBA8 EQ PUSH2 0x1E5 JUMPI PUSH2 0x93 JUMP JUMPDEST DUP1 PUSH4 0xE15561A EQ PUSH2 0x98 JUMPI DUP1 PUSH4 0x150B7A02 EQ PUSH2 0xB6 JUMPI DUP1 PUSH4 0x2E17DE78 EQ PUSH2 0xE6 JUMPI DUP1 PUSH4 0x584B62A1 EQ PUSH2 0x102 JUMPI JUMPDEST PUSH1 0x0 DUP1 REVERT JUMPDEST PUSH2 0xA0 PUSH2 0x203 JUMP JUMPDEST PUSH1 0x40 MLOAD PUSH2 0xAD SWAP2 SWAP1 PUSH2 0xC3D JUMP JUMPDEST PUSH1 0x40 MLOAD DUP1 SWAP2 SUB SWAP1 RETURN JUMPDEST PUSH2 0xD0 PUSH1 0x4 DUP1 CALLDATASIZE SUB DUP2 ADD SWAP1 PUSH2 0xCB SWAP2 SWAP1 PUSH2 0xE3C JUMP JUMPDEST PUSH2 0x209 JUMP JUMPDEST PUSH1 0x40 MLOAD PUSH2 0xDD SWAP2 SWAP1 PUSH2 0xEFA JUMP JUMPDEST PUSH1 0x40 MLOAD DUP1 SWAP2 SUB SWAP1 RETURN JUMPDEST PUSH2 0x100 PUSH1 0x4 DUP1 CALLDATASIZE SUB DUP2 ADD SWAP1 PUSH2 0xFB SWAP2 SWAP1 PUSH2 0xF15 JUMP JUMPDEST PUSH2 0x21D JUMP JUMPDEST STOP JUMPDEST PUSH2 0x11C PUSH1 0x4 DUP1 CALLDATASIZE SUB DUP2 ADD SWAP1 PUSH2 0x117 SWAP2 SWAP1 PUSH2 0xF42 JUMP JUMPDEST PUSH2 0x447 JUMP JUMPDEST PUSH1 0x40 MLOAD PUSH2 0x130 SWAP9 SWAP8 SWAP7 SWAP6 SWAP5 SWAP4 SWAP3 SWAP2 SWAP1 PUSH2 0xFAC JUMP JUMPDEST PUSH1 0x40 MLOAD DUP1 SWAP2 SUB SWAP1 RETURN JUMPDEST PUSH2 0x153 PUSH1 0x4 DUP1 CALLDATASIZE SUB DUP2 ADD SWAP1 PUSH2 0x14E SWAP2 SWAP1 PUSH2 0x102A JUMP JUMPDEST PUSH2 0x4D9 JUMP JUMPDEST STOP JUMPDEST PUSH2 0x16F PUSH1 0x4 DUP1 CALLDATASIZE SUB DUP2 ADD SWAP1 PUSH2 0x16A SWAP2 SWAP1 PUSH2 0x107D JUMP JUMPDEST PUSH2 0x8AD JUMP JUMPDEST PUSH1 0x40 MLOAD PUSH2 0x17C SWAP2 SWAP1 PUSH2 0xC3D JUMP JUMPDEST PUSH1 0x40 MLOAD DUP1 SWAP2 SUB SWAP1 RETURN JUMPDEST PUSH2 0x19F PUSH1 0x4 DUP1 CALLDATASIZE SUB DUP2 ADD SWAP1 PUSH2 0x19A SWAP2 SWAP1 PUSH2 0xF42 JUMP JUMPDEST PUSH2 0x8F8 JUMP JUMPDEST PUSH1 0x40 MLOAD PUSH2 0x1AC SWAP2 SWAP1 PUSH2 0x1179 JUMP JUMPDEST PUSH1 0x40 MLOAD DUP1 SWAP2 SUB SWAP1 RETURN JUMPDEST PUSH2 0x1CF PUSH1 0x4 DUP1 CALLDATASIZE SUB DUP2 ADD SWAP1 PUSH2 0x1CA SWAP2 SWAP1 PUSH2 0xF42 JUMP JUMPDEST PUSH2 0xA1F JUMP JUMPDEST PUSH1 0x40 MLOAD PUSH2 0x1DC SWAP2 SWAP1 PUSH2 0xC3D JUMP JUMPDEST PUSH1 0x40 MLOAD DUP1 SWAP2 SUB SWAP1 RETURN JUMPDEST PUSH2 0x1ED PUSH2 0xBA1 JUMP JUMPDEST PUSH1 0x40 MLOAD PUSH2 0x1FA SWAP2 SWAP1 PUSH2 0x11F4 JUMP JUMPDEST PUSH1 0x40 MLOAD DUP1 SWAP2 SUB SWAP1 RETURN JUMPDEST PUSH1 0x2 SLOAD DUP2 JUMP JUMPDEST PUSH1 0x0 PUSH4 0x150B7A02 PUSH1 0xE0 SHL SWAP1 POP SWAP5 SWAP4 POP POP POP POP JUMP JUMPDEST PUSH1 0x0 DUP1 PUSH1 0x0 CALLER PUSH20 0xFFFFFFFFFFFFFFFFFFFFFFFFFFFFFFFFFFFFFFFF AND PUSH20 0xFFFFFFFFFFFFFFFFFFFFFFFFFFFFFFFFFFFFFFFF AND DUP2 MSTORE PUSH1 0x20 ADD SWAP1 DUP2 MSTORE PUSH1 0x20 ADD PUSH1 0x0 KECCAK256 DUP3 DUP2 SLOAD DUP2 LT PUSH2 0x26F JUMPI PUSH2 0x26E PUSH2 0x120F JUMP JUMPDEST JUMPDEST SWAP1 PUSH1 0x0 MSTORE PUSH1 0x20 PUSH1 0x0 KECCAK256 SWAP1 PUSH1 0x8 MUL ADD SWAP1 POP DUP1 PUSH1 0x7 ADD PUSH1 0x0 SWAP1 SLOAD SWAP1 PUSH2 0x100 EXP SWAP1 DIV PUSH1 0xFF AND ISZERO PUSH2 0x2D1 JUMPI PUSH1 0x40 MLOAD PUSH32 0x8C379A000000000000000000000000000000000000000000000000000000000 DUP2 MSTORE PUSH1 0x4 ADD PUSH2 0x2C8 SWAP1 PUSH2 0x12C1 JUMP JUMPDEST PUSH1 0x40 MLOAD DUP1 SWAP2 SUB SWAP1 REVERT JUMPDEST TIMESTAMP DUP2 PUSH1 0x3 ADD SLOAD GT ISZERO PUSH2 0x318 JUMPI PUSH1 0x40 MLOAD PUSH32 0x8C379A000000000000000000000000000000000000000000000000000000000 DUP2 MSTORE PUSH1 0x4 ADD PUSH2 0x30F SWAP1 PUSH2 0x132D JUMP JUMPDEST PUSH1 0x40 MLOAD DUP1 SWAP2 SUB SWAP1 REVERT JUMPDEST PUSH1 0x0 DUP2 PUSH1 0x6 ADD SLOAD DUP3 PUSH1 0x5 ADD SLOAD PUSH2 0x32E SWAP2 SWAP1 PUSH2 0x137C JUMP JUMPDEST SWAP1 POP DUP2 PUSH1 0x5 ADD SLOAD DUP3 PUSH1 0x6 ADD DUP2 SWAP1 SSTORE POP PUSH1 0x1 DUP3 PUSH1 0x7 ADD PUSH1 0x0 PUSH2 0x100 EXP DUP2 SLOAD DUP2 PUSH1 0xFF MUL NOT AND SWAP1 DUP4 ISZERO ISZERO MUL OR SWAP1 SSTORE POP PUSH1 0x1 PUSH1 0x0 SWAP1 SLOAD SWAP1 PUSH2 0x100 EXP SWAP1 DIV PUSH20 0xFFFFFFFFFFFFFFFFFFFFFFFFFFFFFFFFFFFFFFFF AND PUSH20 0xFFFFFFFFFFFFFFFFFFFFFFFFFFFFFFFFFFFFFFFF AND PUSH4 0x42842E0E ADDRESS CALLER DUP6 PUSH1 0x1 ADD SLOAD PUSH1 0x40 MLOAD DUP5 PUSH4 0xFFFFFFFF AND PUSH1 0xE0 SHL DUP2 MSTORE PUSH1 0x4 ADD PUSH2 0x3BD SWAP4 SWAP3 SWAP2 SWAP1 PUSH2 0x13B0 JUMP JUMPDEST PUSH1 0x0 PUSH1 0x40 MLOAD DUP1 DUP4 SUB DUP2 PUSH1 0x0 DUP8 DUP1 EXTCODESIZE ISZERO DUP1 ISZERO PUSH2 0x3D7 JUMPI PUSH1 0x0 DUP1 REVERT JUMPDEST POP GAS CALL ISZERO DUP1 ISZERO PUSH2 0x3EB JUMPI RETURNDATASIZE PUSH1 0x0 DUP1 RETURNDATACOPY RETURNDATASIZE PUSH1 0x0 REVERT JUMPDEST POP POP POP POP DUP2 PUSH1 0x1 ADD SLOAD CALLER PUSH20 0xFFFFFFFFFFFFFFFFFFFFFFFFFFFFFFFFFFFFFFFF AND PUSH32 0x7FC4727E062E336010F2C282598EF5F14FACB3DE68CF8195C2F23E1454B2B74E DUP4 PUSH1 0x40 MLOAD PUSH2 0x43A SWAP2 SWAP1 PUSH2 0xC3D JUMP JUMPDEST PUSH1 0x40 MLOAD DUP1 SWAP2 SUB SWAP1 LOG3 POP POP POP JUMP JUMPDEST PUSH1 0x0 PUSH1 0x20 MSTORE DUP2 PUSH1 0x0 MSTORE PUSH1 0x40 PUSH1 0x0 KECCAK256 DUP2 DUP2 SLOAD DUP2 LT PUSH2 0x463 JUMPI PUSH1 0x0 DUP1 REVERT JUMPDEST SWAP1 PUSH1 0x0 MSTORE PUSH1 0x20 PUSH1 0x0 KECCAK256 SWAP1 PUSH1 0x8 MUL ADD PUSH1 0x0 SWAP2 POP SWAP2 POP POP DUP1 PUSH1 0x0 ADD PUSH1 0x0 SWAP1 SLOAD SWAP1 PUSH2 0x100 EXP SWAP1 DIV PUSH20 0xFFFFFFFFFFFFFFFFFFFFFFFFFFFFFFFFFFFFFFFF AND SWAP1 DUP1 PUSH1 0x1 ADD SLOAD SWAP1 DUP1 PUSH1 0x2 ADD SLOAD SWAP1 DUP1 PUSH1 0x3 ADD SLOAD SWAP1 DUP1 PUSH1 0x4 ADD SLOAD SWAP1 DUP1 PUSH1 0x5 ADD SLOAD SWAP1 DUP1 PUSH1 0x6 ADD SLOAD SWAP1 DUP1 PUSH1 0x7 ADD PUSH1 0x0 SWAP1 SLOAD SWAP1 PUSH2 0x100 EXP SWAP1 DIV PUSH1 0xFF AND SWAP1 POP DUP9 JUMP JUMPDEST CALLER PUSH20 0xFFFFFFFFFFFFFFFFFFFFFFFFFFFFFFFFFFFFFFFF AND PUSH1 0x1 PUSH1 0x0 SWAP1 SLOAD SWAP1 PUSH2 0x100 EXP SWAP1 DIV PUSH20 0xFFFFFFFFFFFFFFFFFFFFFFFFFFFFFFFFFFFFFFFF AND PUSH20 0xFFFFFFFFFFFFFFFFFFFFFFFFFFFFFFFFFFFFFFFF AND PUSH4 0x6352211E DUP6 PUSH1 0x40 MLOAD DUP3 PUSH4 0xFFFFFFFF AND PUSH1 0xE0 SHL DUP2 MSTORE PUSH1 0x4 ADD PUSH2 0x54B SWAP2 SWAP1 PUSH2 0xC3D JUMP JUMPDEST PUSH1 0x20 PUSH1 0x40 MLOAD DUP1 DUP4 SUB DUP2 DUP7 GAS STATICCALL ISZERO DUP1 ISZERO PUSH2 0x568 JUMPI RETURNDATASIZE PUSH1 0x0 DUP1 RETURNDATACOPY RETURNDATASIZE PUSH1 0x0 REVERT JUMPDEST POP POP POP POP PUSH1 0x40 MLOAD RETURNDATASIZE PUSH1 0x1F NOT PUSH1 0x1F DUP3 ADD AND DUP3 ADD DUP1 PUSH1 0x40 MSTORE POP DUP2 ADD SWAP1 PUSH2 0x58C SWAP2 SWAP1 PUSH2 0x13FC JUMP JUMPDEST PUSH20 0xFFFFFFFFFFFFFFFFFFFFFFFFFFFFFFFFFFFFFFFF AND EQ PUSH2 0x5E2 JUMPI PUSH1 0x40 MLOAD PUSH32 0x8C379A000000000000000000000000000000000000000000000000000000000 DUP2 MSTORE PUSH1 0x4 ADD PUSH2 0x5D9 SWAP1 PUSH2 0x149B JUMP JUMPDEST PUSH1 0x40 MLOAD DUP1 SWAP2 SUB SWAP1 REVERT JUMPDEST PUSH1 0x0 DUP3 GT PUSH2 0x625 JUMPI PUSH1 0x40 MLOAD PUSH32 0x8C379A000000000000000000000000000000000000000000000000000000000 DUP2 MSTORE PUSH1 0x4 ADD PUSH2 0x61C SWAP1 PUSH2 0x152D JUMP JUMPDEST PUSH1 0x40 MLOAD DUP1 SWAP2 SUB SWAP1 REVERT JUMPDEST PUSH1 0x0 TIMESTAMP SWAP1 POP PUSH1 0x0 DUP4 DUP3 PUSH2 0x638 SWAP2 SWAP1 PUSH2 0x154D JUMP JUMPDEST SWAP1 POP PUSH1 0x0 DUP4 DUP6 PUSH2 0x648 SWAP2 SWAP1 PUSH2 0x1581 JUMP JUMPDEST SWAP1 POP PUSH1 0x1 PUSH1 0x0 SWAP1 SLOAD SWAP1 PUSH2 0x100 EXP SWAP1 DIV PUSH20 0xFFFFFFFFFFFFFFFFFFFFFFFFFFFFFFFFFFFFFFFF AND PUSH20 0xFFFFFFFFFFFFFFFFFFFFFFFFFFFFFFFFFFFFFFFF AND PUSH4 0x42842E0E CALLER ADDRESS DUP10 PUSH1 0x40 MLOAD DUP5 PUSH4 0xFFFFFFFF AND PUSH1 0xE0 SHL DUP2 MSTORE PUSH1 0x4 ADD PUSH2 0x6A9 SWAP4 SWAP3 SWAP2 SWAP1 PUSH2 0x13B0 JUMP JUMPDEST PUSH1 0x0 PUSH1 0x40 MLOAD DUP1 DUP4 SUB DUP2 PUSH1 0x0 DUP8 DUP1 EXTCODESIZE ISZERO DUP1 ISZERO PUSH2 0x6C3 JUMPI PUSH1 0x0 DUP1 REVERT JUMPDEST POP GAS CALL ISZERO DUP1 ISZERO PUSH2 0x6D7 JUMPI RETURNDATASIZE PUSH1 0x0 DUP1 RETURNDATACOPY RETURNDATASIZE PUSH1 0x0 REVERT JUMPDEST POP POP POP POP PUSH1 0x0 DUP1 CALLER PUSH20 0xFFFFFFFFFFFFFFFFFFFFFFFFFFFFFFFFFFFFFFFF AND PUSH20 0xFFFFFFFFFFFFFFFFFFFFFFFFFFFFFFFFFFFFFFFF AND DUP2 MSTORE PUSH1 0x20 ADD SWAP1 DUP2 MSTORE PUSH1 0x20 ADD PUSH1 0x0 KECCAK256 PUSH1 0x40 MLOAD DUP1 PUSH2 0x100 ADD PUSH1 0x40 MSTORE DUP1 CALLER PUSH20 0xFFFFFFFFFFFFFFFFFFFFFFFFFFFFFFFFFFFFFFFF AND DUP2 MSTORE PUSH1 0x20 ADD DUP9 DUP2 MSTORE PUSH1 0x20 ADD DUP6 DUP2 MSTORE PUSH1 0x20 ADD DUP5 DUP2 MSTORE PUSH1 0x20 ADD DUP7 DUP2 MSTORE PUSH1 0x20 ADD DUP4 DUP2 MSTORE PUSH1 0x20 ADD PUSH1 0x0 DUP2 MSTORE PUSH1 0x20 ADD PUSH1 0x0 ISZERO ISZERO DUP2 MSTORE POP SWAP1 DUP1 PUSH1 0x1 DUP2 SLOAD ADD DUP1 DUP3 SSTORE DUP1 SWAP2 POP POP PUSH1 0x1 SWAP1 SUB SWAP1 PUSH1 0x0 MSTORE PUSH1 0x20 PUSH1 0x0 KECCAK256 SWAP1 PUSH1 0x8 MUL ADD PUSH1 0x0 SWAP1 SWAP2 SWAP1 SWAP2 SWAP1 SWAP2 POP PUSH1 0x0 DUP3 ADD MLOAD DUP2 PUSH1 0x0 ADD PUSH1 0x0 PUSH2 0x100 EXP DUP2 SLOAD DUP2 PUSH20 0xFFFFFFFFFFFFFFFFFFFFFFFFFFFFFFFFFFFFFFFF MUL NOT AND SWAP1 DUP4 PUSH20 0xFFFFFFFFFFFFFFFFFFFFFFFFFFFFFFFFFFFFFFFF AND MUL OR SWAP1 SSTORE POP PUSH1 0x20 DUP3 ADD MLOAD DUP2 PUSH1 0x1 ADD SSTORE PUSH1 0x40 DUP3 ADD MLOAD DUP2 PUSH1 0x2 ADD SSTORE PUSH1 0x60 DUP3 ADD MLOAD DUP2 PUSH1 0x3 ADD SSTORE PUSH1 0x80 DUP3 ADD MLOAD DUP2 PUSH1 0x4 ADD SSTORE PUSH1 0xA0 DUP3 ADD MLOAD DUP2 PUSH1 0x5 ADD SSTORE PUSH1 0xC0 DUP3 ADD MLOAD DUP2 PUSH1 0x6 ADD SSTORE PUSH1 0xE0 DUP3 ADD MLOAD DUP2 PUSH1 0x7 ADD PUSH1 0x0 PUSH2 0x100 EXP DUP2 SLOAD DUP2 PUSH1 0xFF MUL NOT AND SWAP1 DUP4 ISZERO ISZERO MUL OR SWAP1 SSTORE POP POP POP DUP1 PUSH1 0x2 PUSH1 0x0 DUP3 DUP3 SLOAD PUSH2 0x84D SWAP2 SWAP1 PUSH2 0x154D JUMP JUMPDEST SWAP3 POP POP DUP2 SWAP1 SSTORE POP DUP6 CALLER PUSH20 0xFFFFFFFFFFFFFFFFFFFFFFFFFFFFFFFFFFFFFFFF AND PUSH32 0xB4CAAF29ADDA3EEFEE3AD552A8E85058589BF834C7466CAE4EE58787F70589ED DUP6 DUP6 PUSH1 0x40 MLOAD PUSH2 0x89D SWAP3 SWAP2 SWAP1 PUSH2 0x15C3 JUMP JUMPDEST PUSH1 0x40 MLOAD DUP1 SWAP2 SUB SWAP1 LOG3 POP POP POP POP POP POP JUMP JUMPDEST PUSH1 0x0 DUP1 PUSH1 0x0 DUP4 PUSH20 0xFFFFFFFFFFFFFFFFFFFFFFFFFFFFFFFFFFFFFFFF AND PUSH20 0xFFFFFFFFFFFFFFFFFFFFFFFFFFFFFFFFFFFFFFFF AND DUP2 MSTORE PUSH1 0x20 ADD SWAP1 DUP2 MSTORE PUSH1 0x20 ADD PUSH1 0x0 KECCAK256 DUP1 SLOAD SWAP1 POP SWAP1 POP SWAP2 SWAP1 POP JUMP JUMPDEST PUSH2 0x900 PUSH2 0xBC7 JUMP JUMPDEST PUSH1 0x0 DUP1 DUP5 PUSH20 0xFFFFFFFFFFFFFFFFFFFFFFFFFFFFFFFFFFFFFFFF AND PUSH20 0xFFFFFFFFFFFFFFFFFFFFFFFFFFFFFFFFFFFFFFFF AND DUP2 MSTORE PUSH1 0x20 ADD SWAP1 DUP2 MSTORE PUSH1 0x20 ADD PUSH1 0x0 KECCAK256 DUP3 DUP2 SLOAD DUP2 LT PUSH2 0x950 JUMPI PUSH2 0x94F PUSH2 0x120F JUMP JUMPDEST JUMPDEST SWAP1 PUSH1 0x0 MSTORE PUSH1 0x20 PUSH1 0x0 KECCAK256 SWAP1 PUSH1 0x8 MUL ADD PUSH1 0x40 MLOAD DUP1 PUSH2 0x100 ADD PUSH1 0x40 MSTORE SWAP1 DUP2 PUSH1 0x0 DUP3 ADD PUSH1 0x0 SWAP1 SLOAD SWAP1 PUSH2 0x100 EXP SWAP1 DIV PUSH20 0xFFFFFFFFFFFFFFFFFFFFFFFFFFFFFFFFFFFFFFFF AND PUSH20 0xFFFFFFFFFFFFFFFFFFFFFFFFFFFFFFFFFFFFFFFF AND PUSH20 0xFFFFFFFFFFFFFFFFFFFFFFFFFFFFFFFFFFFFFFFF AND DUP2 MSTORE PUSH1 0x20 ADD PUSH1 0x1 DUP3 ADD SLOAD DUP2 MSTORE PUSH1 0x20 ADD PUSH1 0x2 DUP3 ADD SLOAD DUP2 MSTORE PUSH1 0x20 ADD PUSH1 0x3 DUP3 ADD SLOAD DUP2 MSTORE PUSH1 0x20 ADD PUSH1 0x4 DUP3 ADD SLOAD DUP2 MSTORE PUSH1 0x20 ADD PUSH1 0x5 DUP3 ADD SLOAD DUP2 MSTORE PUSH1 0x20 ADD PUSH1 0x6 DUP3 ADD SLOAD DUP2 MSTORE PUSH1 0x20 ADD PUSH1 0x7 DUP3 ADD PUSH1 0x0 SWAP1 SLOAD SWAP1 PUSH2 0x100 EXP SWAP1 DIV PUSH1 0xFF AND ISZERO ISZERO ISZERO ISZERO DUP2 MSTORE POP POP SWAP1 POP SWAP3 SWAP2 POP POP JUMP JUMPDEST PUSH1 0x0 DUP1 PUSH1 0x0 DUP1 DUP6 PUSH20 0xFFFFFFFFFFFFFFFFFFFFFFFFFFFFFFFFFFFFFFFF AND PUSH20 0xFFFFFFFFFFFFFFFFFFFFFFFFFFFFFFFFFFFFFFFF AND DUP2 MSTORE PUSH1 0x20 ADD SWAP1 DUP2 MSTORE PUSH1 0x20 ADD PUSH1 0x0 KECCAK256 DUP4 DUP2 SLOAD DUP2 LT PUSH2 0xA72 JUMPI PUSH2 0xA71 PUSH2 0x120F JUMP JUMPDEST JUMPDEST SWAP1 PUSH1 0x0 MSTORE PUSH1 0x20 PUSH1 0x0 KECCAK256 SWAP1 PUSH1 0x8 MUL ADD PUSH1 0x40 MLOAD DUP1 PUSH2 0x100 ADD PUSH1 0x40 MSTORE SWAP1 DUP2 PUSH1 0x0 DUP3 ADD PUSH1 0x0 SWAP1 SLOAD SWAP1 PUSH2 0x100 EXP SWAP1 DIV PUSH20 0xFFFFFFFFFFFFFFFFFFFFFFFFFFFFFFFFFFFFFFFF AND PUSH20 0xFFFFFFFFFFFFFFFFFFFFFFFFFFFFFFFFFFFFFFFF AND PUSH20 0xFFFFFFFFFFFFFFFFFFFFFFFFFFFFFFFFFFFFFFFF AND DUP2 MSTORE PUSH1 0x20 ADD PUSH1 0x1 DUP3 ADD SLOAD DUP2 MSTORE PUSH1 0x20 ADD PUSH1 0x2 DUP3 ADD SLOAD DUP2 MSTORE PUSH1 0x20 ADD PUSH1 0x3 DUP3 ADD SLOAD DUP2 MSTORE PUSH1 0x20 ADD PUSH1 0x4 DUP3 ADD SLOAD DUP2 MSTORE PUSH1 0x20 ADD PUSH1 0x5 DUP3 ADD SLOAD DUP2 MSTORE PUSH1 0x20 ADD PUSH1 0x6 DUP3 ADD SLOAD DUP2 MSTORE PUSH1 0x20 ADD PUSH1 0x7 DUP3 ADD PUSH1 0x0 SWAP1 SLOAD SWAP1 PUSH2 0x100 EXP SWAP1 DIV PUSH1 0xFF AND ISZERO ISZERO ISZERO ISZERO DUP2 MSTORE POP POP SWAP1 POP DUP1 PUSH1 0xE0 ADD MLOAD DUP1 PUSH2 0xB4E JUMPI POP TIMESTAMP DUP2 PUSH1 0x60 ADD MLOAD GT JUMPDEST ISZERO PUSH2 0xB5D JUMPI PUSH1 0x0 SWAP2 POP POP PUSH2 0xB9B JUMP JUMPDEST PUSH1 0x0 DUP2 PUSH1 0x40 ADD MLOAD TIMESTAMP PUSH2 0xB6F SWAP2 SWAP1 PUSH2 0x137C JUMP JUMPDEST SWAP1 POP PUSH1 0x0 DUP3 PUSH1 0xC0 ADD MLOAD DUP4 PUSH1 0x80 ADD MLOAD DUP4 PUSH2 0xB88 SWAP2 SWAP1 PUSH2 0x1581 JUMP JUMPDEST PUSH2 0xB92 SWAP2 SWAP1 PUSH2 0x137C JUMP JUMPDEST SWAP1 POP DUP1 SWAP4 POP POP POP POP JUMPDEST SWAP3 SWAP2 POP POP JUMP JUMPDEST PUSH1 0x1 PUSH1 0x0 SWAP1 SLOAD SWAP1 PUSH2 0x100 EXP SWAP1 DIV PUSH20 0xFFFFFFFFFFFFFFFFFFFFFFFFFFFFFFFFFFFFFFFF AND DUP2 JUMP JUMPDEST PUSH1 0x40 MLOAD DUP1 PUSH2 0x100 ADD PUSH1 0x40 MSTORE DUP1 PUSH1 0x0 PUSH20 0xFFFFFFFFFFFFFFFFFFFFFFFFFFFFFFFFFFFFFFFF AND DUP2 MSTORE PUSH1 0x20 ADD PUSH1 0x0 DUP2 MSTORE PUSH1 0x20 ADD PUSH1 0x0 DUP2 MSTORE PUSH1 0x20 ADD PUSH1 0x0 DUP2 MSTORE PUSH1 0x20 ADD PUSH1 0x0 DUP2 MSTORE PUSH1 0x20 ADD PUSH1 0x0 DUP2 MSTORE PUSH1 0x20 ADD PUSH1 0x0 DUP2 MSTORE PUSH1 0x20 ADD PUSH1 0x0 ISZERO ISZERO DUP2 MSTORE POP SWAP1 JUMP JUMPDEST PUSH1 0x0 DUP2 SWAP1 POP SWAP2 SWAP1 POP JUMP JUMPDEST PUSH2 0xC37 DUP2 PUSH2 0xC24 JUMP JUMPDEST DUP3 MSTORE POP POP JUMP JUMPDEST PUSH1 0x0 PUSH1 0x20 DUP3 ADD SWAP1 POP PUSH2 0xC52 PUSH1 0x0 DUP4 ADD DUP5 PUSH2 0xC2E JUMP JUMPDEST SWAP3 SWAP2 POP POP JUMP JUMPDEST PUSH1 0x0 PUSH1 0x40 MLOAD SWAP1 POP SWAP1 JUMP JUMPDEST PUSH1 0x0 DUP1 REVERT JUMPDEST PUSH1 0x0 DUP1 REVERT JUMPDEST PUSH1 0x0 PUSH20 0xFFFFFFFFFFFFFFFFFFFFFFFFFFFFFFFFFFFFFFFF DUP3 AND SWAP1 POP SWAP2 SWAP1 POP JUMP JUMPDEST PUSH1 0x0 PUSH2 0xC97 DUP3 PUSH2 0xC6C JUMP JUMPDEST SWAP1 POP SWAP2 SWAP1 POP JUMP JUMPDEST PUSH2 0xCA7 DUP2 PUSH2 0xC8C JUMP JUMPDEST DUP2 EQ PUSH2 0xCB2 JUMPI PUSH1 0x0 DUP1 REVERT JUMPDEST POP JUMP JUMPDEST PUSH1 0x0 DUP2 CALLDATALOAD SWAP1 POP PUSH2 0xCC4 DUP2 PUSH2 0xC9E JUMP JUMPDEST SWAP3 SWAP2 POP POP JUMP JUMPDEST PUSH2 0xCD3 DUP2 PUSH2 0xC24 JUMP JUMPDEST DUP2 EQ PUSH2 0xCDE JUMPI PUSH1 0x0 DUP1 REVERT JUMPDEST POP JUMP JUMPDEST PUSH1 0x0 DUP2 CALLDATALOAD SWAP1 POP PUSH2 0xCF0 DUP2 PUSH2 0xCCA JUMP JUMPDEST SWAP3 SWAP2 POP POP JUMP JUMPDEST PUSH1 0x0 DUP1 REVERT JUMPDEST PUSH1 0x0 DUP1 REVERT JUMPDEST PUSH1 0x0 PUSH1 0x1F NOT PUSH1 0x1F DUP4 ADD AND SWAP1 POP SWAP2 SWAP1 POP JUMP JUMPDEST PUSH32 0x4E487B7100000000000000000000000000000000000000000000000000000000 PUSH1 0x0 MSTORE PUSH1 0x41 PUSH1 0x4 MSTORE PUSH1 0x24 PUSH1 0x0 REVERT JUMPDEST PUSH2 0xD49 DUP3 PUSH2 0xD00 JUMP JUMPDEST DUP2 ADD DUP2 DUP2 LT PUSH8 0xFFFFFFFFFFFFFFFF DUP3 GT OR ISZERO PUSH2 0xD68 JUMPI PUSH2 0xD67 PUSH2 0xD11 JUMP JUMPDEST JUMPDEST DUP1 PUSH1 0x40 MSTORE POP POP POP JUMP JUMPDEST PUSH1 0x0 PUSH2 0xD7B PUSH2 0xC58 JUMP JUMPDEST SWAP1 POP PUSH2 0xD87 DUP3 DUP3 PUSH2 0xD40 JUMP JUMPDEST SWAP2 SWAP1 POP JUMP JUMPDEST PUSH1 0x0 PUSH8 0xFFFFFFFFFFFFFFFF DUP3 GT ISZERO PUSH2 0xDA7 JUMPI PUSH2 0xDA6 PUSH2 0xD11 JUMP JUMPDEST JUMPDEST PUSH2 0xDB0 DUP3 PUSH2 0xD00 JUMP JUMPDEST SWAP1 POP PUSH1 0x20 DUP2 ADD SWAP1 POP SWAP2 SWAP1 POP JUMP JUMPDEST DUP3 DUP2 DUP4 CALLDATACOPY PUSH1 0x0 DUP4 DUP4 ADD MSTORE POP POP POP JUMP JUMPDEST PUSH1 0x0 PUSH2 0xDDF PUSH2 0xDDA DUP5 PUSH2 0xD8C JUMP JUMPDEST PUSH2 0xD71 JUMP JUMPDEST SWAP1 POP DUP3 DUP2 MSTORE PUSH1 0x20 DUP2 ADD DUP5 DUP5 DUP5 ADD GT ISZERO PUSH2 0xDFB JUMPI PUSH2 0xDFA PUSH2 0xCFB JUMP JUMPDEST JUMPDEST PUSH2 0xE06 DUP5 DUP3 DUP6 PUSH2 0xDBD JUMP JUMPDEST POP SWAP4 SWAP3 POP POP POP JUMP JUMPDEST PUSH1 0x0 DUP3 PUSH1 0x1F DUP4 ADD SLT PUSH2 0xE23 JUMPI PUSH2 0xE22 PUSH2 0xCF6 JUMP JUMPDEST JUMPDEST DUP2 CALLDATALOAD PUSH2 0xE33 DUP5 DUP3 PUSH1 0x20 DUP7 ADD PUSH2 0xDCC JUMP JUMPDEST SWAP2 POP POP SWAP3 SWAP2 POP POP JUMP JUMPDEST PUSH1 0x0 DUP1 PUSH1 0x0 DUP1 PUSH1 0x80 DUP6 DUP8 SUB SLT ISZERO PUSH2 0xE56 JUMPI PUSH2 0xE55 PUSH2 0xC62 JUMP JUMPDEST JUMPDEST PUSH1 0x0 PUSH2 0xE64 DUP8 DUP3 DUP9 ADD PUSH2 0xCB5 JUMP JUMPDEST SWAP5 POP POP PUSH1 0x20 PUSH2 0xE75 DUP8 DUP3 DUP9 ADD PUSH2 0xCB5 JUMP JUMPDEST SWAP4 POP POP PUSH1 0x40 PUSH2 0xE86 DUP8 DUP3 DUP9 ADD PUSH2 0xCE1 JUMP JUMPDEST SWAP3 POP POP PUSH1 0x60 DUP6 ADD CALLDATALOAD PUSH8 0xFFFFFFFFFFFFFFFF DUP2 GT ISZERO PUSH2 0xEA7 JUMPI PUSH2 0xEA6 PUSH2 0xC67 JUMP JUMPDEST JUMPDEST PUSH2 0xEB3 DUP8 DUP3 DUP9 ADD PUSH2 0xE0E JUMP JUMPDEST SWAP2 POP POP SWAP3 SWAP6 SWAP2 SWAP5 POP SWAP3 POP JUMP JUMPDEST PUSH1 0x0 PUSH32 0xFFFFFFFF00000000000000000000000000000000000000000000000000000000 DUP3 AND SWAP1 POP SWAP2 SWAP1 POP JUMP JUMPDEST PUSH2 0xEF4 DUP2 PUSH2 0xEBF JUMP JUMPDEST DUP3 MSTORE POP POP JUMP JUMPDEST PUSH1 0x0 PUSH1 0x20 DUP3 ADD SWAP1 POP PUSH2 0xF0F PUSH1 0x0 DUP4 ADD DUP5 PUSH2 0xEEB JUMP JUMPDEST SWAP3 SWAP2 POP POP JUMP JUMPDEST PUSH1 0x0 PUSH1 0x20 DUP3 DUP5 SUB SLT ISZERO PUSH2 0xF2B JUMPI PUSH2 0xF2A PUSH2 0xC62 JUMP JUMPDEST JUMPDEST PUSH1 0x0 PUSH2 0xF39 DUP5 DUP3 DUP6 ADD PUSH2 0xCE1 JUMP JUMPDEST SWAP2 POP POP SWAP3 SWAP2 POP POP JUMP JUMPDEST PUSH1 0x0 DUP1 PUSH1 0x40 DUP4 DUP6 SUB SLT ISZERO PUSH2 0xF59 JUMPI PUSH2 0xF58 PUSH2 0xC62 JUMP JUMPDEST JUMPDEST PUSH1 0x0 PUSH2 0xF67 DUP6 DUP3 DUP7 ADD PUSH2 0xCB5 JUMP JUMPDEST SWAP3 POP POP PUSH1 0x20 PUSH2 0xF78 DUP6 DUP3 DUP7 ADD PUSH2 0xCE1 JUMP JUMPDEST SWAP2 POP POP SWAP3 POP SWAP3 SWAP1 POP JUMP JUMPDEST PUSH2 0xF8B DUP2 PUSH2 0xC8C JUMP JUMPDEST DUP3 MSTORE POP POP JUMP JUMPDEST PUSH1 0x0 DUP2 ISZERO ISZERO SWAP1 POP SWAP2 SWAP1 POP JUMP JUMPDEST PUSH2 0xFA6 DUP2 PUSH2 0xF91 JUMP JUMPDEST DUP3 MSTORE POP POP JUMP JUMPDEST PUSH1 0x0 PUSH2 0x100 DUP3 ADD SWAP1 POP PUSH2 0xFC2 PUSH1 0x0 DUP4 ADD DUP12 PUSH2 0xF82 JUMP JUMPDEST PUSH2 0xFCF PUSH1 0x20 DUP4 ADD DUP11 PUSH2 0xC2E JUMP JUMPDEST PUSH2 0xFDC PUSH1 0x40 DUP4 ADD DUP10 PUSH2 0xC2E JUMP JUMPDEST PUSH2 0xFE9 PUSH1 0x60 DUP4 ADD DUP9 PUSH2 0xC2E JUMP JUMPDEST PUSH2 0xFF6 PUSH1 0x80 DUP4 ADD DUP8 PUSH2 0xC2E JUMP JUMPDEST PUSH2 0x1003 PUSH1 0xA0 DUP4 ADD DUP7 PUSH2 0xC2E JUMP JUMPDEST PUSH2 0x1010 PUSH1 0xC0 DUP4 ADD DUP6 PUSH2 0xC2E JUMP JUMPDEST PUSH2 0x101D PUSH1 0xE0 DUP4 ADD DUP5 PUSH2 0xF9D JUMP JUMPDEST SWAP10 SWAP9 POP POP POP POP POP POP POP POP POP JUMP JUMPDEST PUSH1 0x0 DUP1 PUSH1 0x0 PUSH1 0x60 DUP5 DUP7 SUB SLT ISZERO PUSH2 0x1043 JUMPI PUSH2 0x1042 PUSH2 0xC62 JUMP JUMPDEST JUMPDEST PUSH1 0x0 PUSH2 0x1051 DUP7 DUP3 DUP8 ADD PUSH2 0xCE1 JUMP JUMPDEST SWAP4 POP POP PUSH1 0x20 PUSH2 0x1062 DUP7 DUP3 DUP8 ADD PUSH2 0xCE1 JUMP JUMPDEST SWAP3 POP POP PUSH1 0x40 PUSH2 0x1073 DUP7 DUP3 DUP8 ADD PUSH2 0xCE1 JUMP JUMPDEST SWAP2 POP POP SWAP3 POP SWAP3 POP SWAP3 JUMP JUMPDEST PUSH1 0x0 PUSH1 0x20 DUP3 DUP5 SUB SLT ISZERO PUSH2 0x1093 JUMPI PUSH2 0x1092 PUSH2 0xC62 JUMP JUMPDEST JUMPDEST PUSH1 0x0 PUSH2 0x10A1 DUP5 DUP3 DUP6 ADD PUSH2 0xCB5 JUMP JUMPDEST SWAP2 POP POP SWAP3 SWAP2 POP POP JUMP JUMPDEST PUSH2 0x10B3 DUP2 PUSH2 0xC8C JUMP JUMPDEST DUP3 MSTORE POP POP JUMP JUMPDEST PUSH2 0x10C2 DUP2 PUSH2 0xC24 JUMP JUMPDEST DUP3 MSTORE POP POP JUMP JUMPDEST PUSH2 0x10D1 DUP2 PUSH2 0xF91 JUMP JUMPDEST DUP3 MSTORE POP POP JUMP JUMPDEST PUSH2 0x100 DUP3 ADD PUSH1 0x0 DUP3 ADD MLOAD PUSH2 0x10EE PUSH1 0x0 DUP6 ADD DUP3 PUSH2 0x10AA JUMP JUMPDEST POP PUSH1 0x20 DUP3 ADD MLOAD PUSH2 0x1101 PUSH1 0x20 DUP6 ADD DUP3 PUSH2 0x10B9 JUMP JUMPDEST POP PUSH1 0x40 DUP3 ADD MLOAD PUSH2 0x1114 PUSH1 0x40 DUP6 ADD DUP3 PUSH2 0x10B9 JUMP JUMPDEST POP PUSH1 0x60 DUP3 ADD MLOAD PUSH2 0x1127 PUSH1 0x60 DUP6 ADD DUP3 PUSH2 0x10B9 JUMP JUMPDEST POP PUSH1 0x80 DUP3 ADD MLOAD PUSH2 0x113A PUSH1 0x80 DUP6 ADD DUP3 PUSH2 0x10B9 JUMP JUMPDEST POP PUSH1 0xA0 DUP3 ADD MLOAD PUSH2 0x114D PUSH1 0xA0 DUP6 ADD DUP3 PUSH2 0x10B9 JUMP JUMPDEST POP PUSH1 0xC0 DUP3 ADD MLOAD PUSH2 0x1160 PUSH1 0xC0 DUP6 ADD DUP3 PUSH2 0x10B9 JUMP JUMPDEST POP PUSH1 0xE0 DUP3 ADD MLOAD PUSH2 0x1173 PUSH1 0xE0 DUP6 ADD DUP3 PUSH2 0x10C8 JUMP JUMPDEST POP POP POP POP JUMP JUMPDEST PUSH1 0x0 PUSH2 0x100 DUP3 ADD SWAP1 POP PUSH2 0x118F PUSH1 0x0 DUP4 ADD DUP5 PUSH2 0x10D7 JUMP JUMPDEST SWAP3 SWAP2 POP POP JUMP JUMPDEST PUSH1 0x0 DUP2 SWAP1 POP SWAP2 SWAP1 POP JUMP JUMPDEST PUSH1 0x0 PUSH2 0x11BA PUSH2 0x11B5 PUSH2 0x11B0 DUP5 PUSH2 0xC6C JUMP JUMPDEST PUSH2 0x1195 JUMP JUMPDEST PUSH2 0xC6C JUMP JUMPDEST SWAP1 POP SWAP2 SWAP1 POP JUMP JUMPDEST PUSH1 0x0 PUSH2 0x11CC DUP3 PUSH2 0x119F JUMP JUMPDEST SWAP1 POP SWAP2 SWAP1 POP JUMP JUMPDEST PUSH1 0x0 PUSH2 0x11DE DUP3 PUSH2 0x11C1 JUMP JUMPDEST SWAP1 POP SWAP2 SWAP1 POP JUMP JUMPDEST PUSH2 0x11EE DUP2 PUSH2 0x11D3 JUMP JUMPDEST DUP3 MSTORE POP POP JUMP JUMPDEST PUSH1 0x0 PUSH1 0x20 DUP3 ADD SWAP1 POP PUSH2 0x1209 PUSH1 0x0 DUP4 ADD DUP5 PUSH2 0x11E5 JUMP JUMPDEST SWAP3 SWAP2 POP POP JUMP JUMPDEST PUSH32 0x4E487B7100000000000000000000000000000000000000000000000000000000 PUSH1 0x0 MSTORE PUSH1 0x32 PUSH1 0x4 MSTORE PUSH1 0x24 PUSH1 0x0 REVERT JUMPDEST PUSH1 0x0 DUP3 DUP3 MSTORE PUSH1 0x20 DUP3 ADD SWAP1 POP SWAP3 SWAP2 POP POP JUMP JUMPDEST PUSH32 0x4E46545374616B696E673A2072657761726420616C7265616479207769746864 PUSH1 0x0 DUP3 ADD MSTORE PUSH32 0x7261776E00000000000000000000000000000000000000000000000000000000 PUSH1 0x20 DUP3 ADD MSTORE POP JUMP JUMPDEST PUSH1 0x0 PUSH2 0x12AB PUSH1 0x24 DUP4 PUSH2 0x123E JUMP JUMPDEST SWAP2 POP PUSH2 0x12B6 DUP3 PUSH2 0x124F JUMP JUMPDEST PUSH1 0x40 DUP3 ADD SWAP1 POP SWAP2 SWAP1 POP JUMP JUMPDEST PUSH1 0x0 PUSH1 0x20 DUP3 ADD SWAP1 POP DUP2 DUP2 SUB PUSH1 0x0 DUP4 ADD MSTORE PUSH2 0x12DA DUP2 PUSH2 0x129E JUMP JUMPDEST SWAP1 POP SWAP2 SWAP1 POP JUMP JUMPDEST PUSH32 0x4E46545374616B696E673A207374616B65206E6F742079657420656E64656400 PUSH1 0x0 DUP3 ADD MSTORE POP JUMP JUMPDEST PUSH1 0x0 PUSH2 0x1317 PUSH1 0x1F DUP4 PUSH2 0x123E JUMP JUMPDEST SWAP2 POP PUSH2 0x1322 DUP3 PUSH2 0x12E1 JUMP JUMPDEST PUSH1 0x20 DUP3 ADD SWAP1 POP SWAP2 SWAP1 POP JUMP JUMPDEST PUSH1 0x0 PUSH1 0x20 DUP3 ADD SWAP1 POP DUP2 DUP2 SUB PUSH1 0x0 DUP4 ADD MSTORE PUSH2 0x1346 DUP2 PUSH2 0x130A JUMP JUMPDEST SWAP1 POP SWAP2 SWAP1 POP JUMP JUMPDEST PUSH32 0x4E487B7100000000000000000000000000000000000000000000000000000000 PUSH1 0x0 MSTORE PUSH1 0x11 PUSH1 0x4 MSTORE PUSH1 0x24 PUSH1 0x0 REVERT JUMPDEST PUSH1 0x0 PUSH2 0x1387 DUP3 PUSH2 0xC24 JUMP JUMPDEST SWAP2 POP PUSH2 0x1392 DUP4 PUSH2 0xC24 JUMP JUMPDEST SWAP3 POP DUP3 DUP3 SUB SWAP1 POP DUP2 DUP2 GT ISZERO PUSH2 0x13AA JUMPI PUSH2 0x13A9 PUSH2 0x134D JUMP JUMPDEST JUMPDEST SWAP3 SWAP2 POP POP JUMP JUMPDEST PUSH1 0x0 PUSH1 0x60 DUP3 ADD SWAP1 POP PUSH2 0x13C5 PUSH1 0x0 DUP4 ADD DUP7 PUSH2 0xF82 JUMP JUMPDEST PUSH2 0x13D2 PUSH1 0x20 DUP4 ADD DUP6 PUSH2 0xF82 JUMP JUMPDEST PUSH2 0x13DF PUSH1 0x40 DUP4 ADD DUP5 PUSH2 0xC2E JUMP JUMPDEST SWAP5 SWAP4 POP POP POP POP JUMP JUMPDEST PUSH1 0x0 DUP2 MLOAD SWAP1 POP PUSH2 0x13F6 DUP2 PUSH2 0xC9E JUMP JUMPDEST SWAP3 SWAP2 POP POP JUMP JUMPDEST PUSH1 0x0 PUSH1 0x20 DUP3 DUP5 SUB SLT ISZERO PUSH2 0x1412 JUMPI PUSH2 0x1411 PUSH2 0xC62 JUMP JUMPDEST JUMPDEST PUSH1 0x0 PUSH2 0x1420 DUP5 DUP3 DUP6 ADD PUSH2 0x13E7 JUMP JUMPDEST SWAP2 POP POP SWAP3 SWAP2 POP POP JUMP JUMPDEST PUSH32 0x4E46545374616B696E673A2063616C6C6572206973206E6F74204E4654206F77 PUSH1 0x0 DUP3 ADD MSTORE PUSH32 0x6E65720000000000000000000000000000000000000000000000000000000000 PUSH1 0x20 DUP3 ADD MSTORE POP JUMP JUMPDEST PUSH1 0x0 PUSH2 0x1485 PUSH1 0x23 DUP4 PUSH2 0x123E JUMP JUMPDEST SWAP2 POP PUSH2 0x1490 DUP3 PUSH2 0x1429 JUMP JUMPDEST PUSH1 0x40 DUP3 ADD SWAP1 POP SWAP2 SWAP1 POP JUMP JUMPDEST PUSH1 0x0 PUSH1 0x20 DUP3 ADD SWAP1 POP DUP2 DUP2 SUB PUSH1 0x0 DUP4 ADD MSTORE PUSH2 0x14B4 DUP2 PUSH2 0x1478 JUMP JUMPDEST SWAP1 POP SWAP2 SWAP1 POP JUMP JUMPDEST PUSH32 0x4E46545374616B696E673A206475726174696F6E206D75737420626520677265 PUSH1 0x0 DUP3 ADD MSTORE PUSH32 0x61746572207468616E207A65726F000000000000000000000000000000000000 PUSH1 0x20 DUP3 ADD MSTORE POP JUMP JUMPDEST PUSH1 0x0 PUSH2 0x1517 PUSH1 0x2E DUP4 PUSH2 0x123E JUMP JUMPDEST SWAP2 POP PUSH2 0x1522 DUP3 PUSH2 0x14BB JUMP JUMPDEST PUSH1 0x40 DUP3 ADD SWAP1 POP SWAP2 SWAP1 POP JUMP JUMPDEST PUSH1 0x0 PUSH1 0x20 DUP3 ADD SWAP1 POP DUP2 DUP2 SUB PUSH1 0x0 DUP4 ADD MSTORE PUSH2 0x1546 DUP2 PUSH2 0x150A JUMP JUMPDEST SWAP1 POP SWAP2 SWAP1 POP JUMP JUMPDEST PUSH1 0x0 PUSH2 0x1558 DUP3 PUSH2 0xC24 JUMP JUMPDEST SWAP2 POP PUSH2 0x1563 DUP4 PUSH2 0xC24 JUMP JUMPDEST SWAP3 POP DUP3 DUP3 ADD SWAP1 POP DUP1 DUP3 GT ISZERO PUSH2 0x157B JUMPI PUSH2 0x157A PUSH2 0x134D JUMP JUMPDEST JUMPDEST SWAP3 SWAP2 POP POP JUMP JUMPDEST PUSH1 0x0 PUSH2 0x158C DUP3 PUSH2 0xC24 JUMP JUMPDEST SWAP2 POP PUSH2 0x1597 DUP4 PUSH2 0xC24 JUMP JUMPDEST SWAP3 POP DUP3 DUP3 MUL PUSH2 0x15A5 DUP2 PUSH2 0xC24 JUMP JUMPDEST SWAP2 POP DUP3 DUP3 DIV DUP5 EQ DUP4 ISZERO OR PUSH2 0x15BC JUMPI PUSH2 0x15BB PUSH2 0x134D JUMP JUMPDEST JUMPDEST POP SWAP3 SWAP2 POP POP JUMP JUMPDEST PUSH1 0x0 PUSH1 0x40 DUP3 ADD SWAP1 POP PUSH2 0x15D8 PUSH1 0x0 DUP4 ADD DUP6 PUSH2 0xC2E JUMP JUMPDEST PUSH2 0x15E5 PUSH1 0x20 DUP4 ADD DUP5 PUSH2 0xC2E JUMP JUMPDEST SWAP4 SWAP3 POP POP POP JUMP INVALID LOG2 PUSH5 0x6970667358 0x22 SLT KECCAK256 EXTCODECOPY SWAP4 0xE1 0xAF 0xE2 PUSH22 0xF9FDA8011458D2B8111DEAEA12525FC089B032C0E044 0x5C 0xA8 0xCF PUSH14 0x64736F6C63430008110033000000 "
		},
		"gasEstimates": {
			"creation": {
				"codeDepositCost": "1133200",
				"executionCost": "infinite",
				"totalCost": "infinite"
			},
			"external": {
				"getStake(address,uint256)": "infinite",
				"getStakeCount(address)": "2871",
				"getWithdrawableReward(address,uint256)": "infinite",
				"nftToken()": "infinite",
				"onERC721Received(address,address,uint256,bytes)": "infinite",
				"stake(uint256,uint256,uint256)": "infinite",
				"stakes(address,uint256)": "infinite",
				"totalRewards()": "2430",
				"unstake(uint256)": "infinite"
			}
		},
		"methodIdentifiers": {
			"getStake(address,uint256)": "cfd47663",
			"getStakeCount(address)": "cf57ee69",
			"getWithdrawableReward(address,uint256)": "cfdaa7a7",
			"nftToken()": "d06fcba8",
			"onERC721Received(address,address,uint256,bytes)": "150b7a02",
			"stake(uint256,uint256,uint256)": "a638f2e2",
			"stakes(address,uint256)": "584b62a1",
			"totalRewards()": "0e15561a",
			"unstake(uint256)": "2e17de78"
		}
	},
	"abi": [
		{
			"inputs": [
				{
					"internalType": "contract IERC721",
					"name": "_nftToken",
					"type": "address"
				}
			],
			"stateMutability": "nonpayable",
			"type": "constructor"
		},
		{
			"anonymous": false,
			"inputs": [
				{
					"indexed": true,
					"internalType": "address",
					"name": "staker",
					"type": "address"
				},
				{
					"indexed": true,
					"internalType": "uint256",
					"name": "tokenId",
					"type": "uint256"
				},
				{
					"indexed": false,
					"internalType": "uint256",
					"name": "startTime",
					"type": "uint256"
				},
				{
					"indexed": false,
					"internalType": "uint256",
					"name": "endTime",
					"type": "uint256"
				}
			],
			"name": "Staked",
			"type": "event"
		},
		{
			"anonymous": false,
			"inputs": [
				{
					"indexed": true,
					"internalType": "address",
					"name": "staker",
					"type": "address"
				},
				{
					"indexed": true,
					"internalType": "uint256",
					"name": "tokenId",
					"type": "uint256"
				},
				{
					"indexed": false,
					"internalType": "uint256",
					"name": "withdrawableReward",
					"type": "uint256"
				}
			],
			"name": "Unstaked",
			"type": "event"
		},
		{
			"inputs": [
				{
					"internalType": "address",
					"name": "_staker",
					"type": "address"
				},
				{
					"internalType": "uint256",
					"name": "_index",
					"type": "uint256"
				}
			],
			"name": "getStake",
			"outputs": [
				{
					"components": [
						{
							"internalType": "address",
							"name": "staker",
							"type": "address"
						},
						{
							"internalType": "uint256",
							"name": "tokenId",
							"type": "uint256"
						},
						{
							"internalType": "uint256",
							"name": "startTime",
							"type": "uint256"
						},
						{
							"internalType": "uint256",
							"name": "endTime",
							"type": "uint256"
						},
						{
							"internalType": "uint256",
							"name": "rewardPerSecond",
							"type": "uint256"
						},
						{
							"internalType": "uint256",
							"name": "totalReward",
							"type": "uint256"
						},
						{
							"internalType": "uint256",
							"name": "withdrawableReward",
							"type": "uint256"
						},
						{
							"internalType": "bool",
							"name": "withdrawn",
							"type": "bool"
						}
					],
					"internalType": "struct NFTStaking11.Stake",
					"name": "",
					"type": "tuple"
				}
			],
			"stateMutability": "view",
			"type": "function"
		},
		{
			"inputs": [
				{
					"internalType": "address",
					"name": "_staker",
					"type": "address"
				}
			],
			"name": "getStakeCount",
			"outputs": [
				{
					"internalType": "uint256",
					"name": "",
					"type": "uint256"
				}
			],
			"stateMutability": "view",
			"type": "function"
		},
		{
			"inputs": [
				{
					"internalType": "address",
					"name": "_staker",
					"type": "address"
				},
				{
					"internalType": "uint256",
					"name": "_index",
					"type": "uint256"
				}
			],
			"name": "getWithdrawableReward",
			"outputs": [
				{
					"internalType": "uint256",
					"name": "",
					"type": "uint256"
				}
			],
			"stateMutability": "view",
			"type": "function"
		},
		{
			"inputs": [],
			"name": "nftToken",
			"outputs": [
				{
					"internalType": "contract IERC721",
					"name": "",
					"type": "address"
				}
			],
			"stateMutability": "view",
			"type": "function"
		},
		{
			"inputs": [
				{
					"internalType": "address",
					"name": "",
					"type": "address"
				},
				{
					"internalType": "address",
					"name": "",
					"type": "address"
				},
				{
					"internalType": "uint256",
					"name": "",
					"type": "uint256"
				},
				{
					"internalType": "bytes",
					"name": "",
					"type": "bytes"
				}
			],
			"name": "onERC721Received",
			"outputs": [
				{
					"internalType": "bytes4",
					"name": "",
					"type": "bytes4"
				}
			],
			"stateMutability": "nonpayable",
			"type": "function"
		},
		{
			"inputs": [
				{
					"internalType": "uint256",
					"name": "_tokenId",
					"type": "uint256"
				},
				{
					"internalType": "uint256",
					"name": "_durationInSeconds",
					"type": "uint256"
				},
				{
					"internalType": "uint256",
					"name": "_rewardPerSecond",
					"type": "uint256"
				}
			],
			"name": "stake",
			"outputs": [],
			"stateMutability": "nonpayable",
			"type": "function"
		},
		{
			"inputs": [
				{
					"internalType": "address",
					"name": "",
					"type": "address"
				},
				{
					"internalType": "uint256",
					"name": "",
					"type": "uint256"
				}
			],
			"name": "stakes",
			"outputs": [
				{
					"internalType": "address",
					"name": "staker",
					"type": "address"
				},
				{
					"internalType": "uint256",
					"name": "tokenId",
					"type": "uint256"
				},
				{
					"internalType": "uint256",
					"name": "startTime",
					"type": "uint256"
				},
				{
					"internalType": "uint256",
					"name": "endTime",
					"type": "uint256"
				},
				{
					"internalType": "uint256",
					"name": "rewardPerSecond",
					"type": "uint256"
				},
				{
					"internalType": "uint256",
					"name": "totalReward",
					"type": "uint256"
				},
				{
					"internalType": "uint256",
					"name": "withdrawableReward",
					"type": "uint256"
				},
				{
					"internalType": "bool",
					"name": "withdrawn",
					"type": "bool"
				}
			],
			"stateMutability": "view",
			"type": "function"
		},
		{
			"inputs": [],
			"name": "totalRewards",
			"outputs": [
				{
					"internalType": "uint256",
					"name": "",
					"type": "uint256"
				}
			],
			"stateMutability": "view",
			"type": "function"
		},
		{
			"inputs": [
				{
					"internalType": "uint256",
					"name": "_index",
					"type": "uint256"
				}
			],
			"name": "unstake",
			"outputs": [],
			"stateMutability": "nonpayable",
			"type": "function"
		}
	]
}