{
	"contracts/ERC-721A_flattened.sol": {
		"GasCompareERC721A": {
			"abi": [
				{
					"inputs": [],
					"stateMutability": "nonpayable",
					"type": "constructor"
				},
				{
					"inputs": [],
					"name": "ApprovalCallerNotOwnerNorApproved",
					"type": "error"
				},
				{
					"inputs": [],
					"name": "ApprovalQueryForNonexistentToken",
					"type": "error"
				},
				{
					"inputs": [],
					"name": "BalanceQueryForZeroAddress",
					"type": "error"
				},
				{
					"inputs": [],
					"name": "MintERC2309QuantityExceedsLimit",
					"type": "error"
				},
				{
					"inputs": [],
					"name": "MintToZeroAddress",
					"type": "error"
				},
				{
					"inputs": [],
					"name": "MintZeroQuantity",
					"type": "error"
				},
				{
					"inputs": [],
					"name": "OwnerQueryForNonexistentToken",
					"type": "error"
				},
				{
					"inputs": [],
					"name": "OwnershipNotInitializedForExtraData",
					"type": "error"
				},
				{
					"inputs": [],
					"name": "TransferCallerNotOwnerNorApproved",
					"type": "error"
				},
				{
					"inputs": [],
					"name": "TransferFromIncorrectOwner",
					"type": "error"
				},
				{
					"inputs": [],
					"name": "TransferToNonERC721ReceiverImplementer",
					"type": "error"
				},
				{
					"inputs": [],
					"name": "TransferToZeroAddress",
					"type": "error"
				},
				{
					"inputs": [],
					"name": "URIQueryForNonexistentToken",
					"type": "error"
				},
				{
					"anonymous": false,
					"inputs": [
						{
							"indexed": true,
							"internalType": "address",
							"name": "owner",
							"type": "address"
						},
						{
							"indexed": true,
							"internalType": "address",
							"name": "approved",
							"type": "address"
						},
						{
							"indexed": true,
							"internalType": "uint256",
							"name": "tokenId",
							"type": "uint256"
						}
					],
					"name": "Approval",
					"type": "event"
				},
				{
					"anonymous": false,
					"inputs": [
						{
							"indexed": true,
							"internalType": "address",
							"name": "owner",
							"type": "address"
						},
						{
							"indexed": true,
							"internalType": "address",
							"name": "operator",
							"type": "address"
						},
						{
							"indexed": false,
							"internalType": "bool",
							"name": "approved",
							"type": "bool"
						}
					],
					"name": "ApprovalForAll",
					"type": "event"
				},
				{
					"anonymous": false,
					"inputs": [
						{
							"indexed": true,
							"internalType": "uint256",
							"name": "fromTokenId",
							"type": "uint256"
						},
						{
							"indexed": false,
							"internalType": "uint256",
							"name": "toTokenId",
							"type": "uint256"
						},
						{
							"indexed": true,
							"internalType": "address",
							"name": "from",
							"type": "address"
						},
						{
							"indexed": true,
							"internalType": "address",
							"name": "to",
							"type": "address"
						}
					],
					"name": "ConsecutiveTransfer",
					"type": "event"
				},
				{
					"anonymous": false,
					"inputs": [
						{
							"indexed": true,
							"internalType": "address",
							"name": "from",
							"type": "address"
						},
						{
							"indexed": true,
							"internalType": "address",
							"name": "to",
							"type": "address"
						},
						{
							"indexed": true,
							"internalType": "uint256",
							"name": "tokenId",
							"type": "uint256"
						}
					],
					"name": "Transfer",
					"type": "event"
				},
				{
					"inputs": [
						{
							"internalType": "address",
							"name": "to",
							"type": "address"
						},
						{
							"internalType": "uint256",
							"name": "tokenId",
							"type": "uint256"
						}
					],
					"name": "approve",
					"outputs": [],
					"stateMutability": "payable",
					"type": "function"
				},
				{
					"inputs": [
						{
							"internalType": "address",
							"name": "owner",
							"type": "address"
						}
					],
					"name": "balanceOf",
					"outputs": [
						{
							"internalType": "uint256",
							"name": "",
							"type": "uint256"
						}
					],
					"stateMutability": "view",
					"type": "function"
				},
				{
					"inputs": [
						{
							"internalType": "uint256",
							"name": "tokenId",
							"type": "uint256"
						}
					],
					"name": "getApproved",
					"outputs": [
						{
							"internalType": "address",
							"name": "",
							"type": "address"
						}
					],
					"stateMutability": "view",
					"type": "function"
				},
				{
					"inputs": [
						{
							"internalType": "address",
							"name": "owner",
							"type": "address"
						},
						{
							"internalType": "address",
							"name": "operator",
							"type": "address"
						}
					],
					"name": "isApprovedForAll",
					"outputs": [
						{
							"internalType": "bool",
							"name": "",
							"type": "bool"
						}
					],
					"stateMutability": "view",
					"type": "function"
				},
				{
					"inputs": [
						{
							"internalType": "uint256",
							"name": "quantity",
							"type": "uint256"
						}
					],
					"name": "mint",
					"outputs": [],
					"stateMutability": "payable",
					"type": "function"
				},
				{
					"inputs": [],
					"name": "name",
					"outputs": [
						{
							"internalType": "string",
							"name": "",
							"type": "string"
						}
					],
					"stateMutability": "view",
					"type": "function"
				},
				{
					"inputs": [
						{
							"internalType": "uint256",
							"name": "tokenId",
							"type": "uint256"
						}
					],
					"name": "ownerOf",
					"outputs": [
						{
							"internalType": "address",
							"name": "",
							"type": "address"
						}
					],
					"stateMutability": "view",
					"type": "function"
				},
				{
					"inputs": [
						{
							"internalType": "address",
							"name": "from",
							"type": "address"
						},
						{
							"internalType": "address",
							"name": "to",
							"type": "address"
						},
						{
							"internalType": "uint256",
							"name": "tokenId",
							"type": "uint256"
						}
					],
					"name": "safeTransferFrom",
					"outputs": [],
					"stateMutability": "payable",
					"type": "function"
				},
				{
					"inputs": [
						{
							"internalType": "address",
							"name": "from",
							"type": "address"
						},
						{
							"internalType": "address",
							"name": "to",
							"type": "address"
						},
						{
							"internalType": "uint256",
							"name": "tokenId",
							"type": "uint256"
						},
						{
							"internalType": "bytes",
							"name": "_data",
							"type": "bytes"
						}
					],
					"name": "safeTransferFrom",
					"outputs": [],
					"stateMutability": "payable",
					"type": "function"
				},
				{
					"inputs": [
						{
							"internalType": "address",
							"name": "operator",
							"type": "address"
						},
						{
							"internalType": "bool",
							"name": "approved",
							"type": "bool"
						}
					],
					"name": "setApprovalForAll",
					"outputs": [],
					"stateMutability": "nonpayable",
					"type": "function"
				},
				{
					"inputs": [
						{
							"internalType": "bytes4",
							"name": "interfaceId",
							"type": "bytes4"
						}
					],
					"name": "supportsInterface",
					"outputs": [
						{
							"internalType": "bool",
							"name": "",
							"type": "bool"
						}
					],
					"stateMutability": "view",
					"type": "function"
				},
				{
					"inputs": [],
					"name": "symbol",
					"outputs": [
						{
							"internalType": "string",
							"name": "",
							"type": "string"
						}
					],
					"stateMutability": "view",
					"type": "function"
				},
				{
					"inputs": [
						{
							"internalType": "uint256",
							"name": "tokenId",
							"type": "uint256"
						}
					],
					"name": "tokenURI",
					"outputs": [
						{
							"internalType": "string",
							"name": "",
							"type": "string"
						}
					],
					"stateMutability": "view",
					"type": "function"
				},
				{
					"inputs": [],
					"name": "totalSupply",
					"outputs": [
						{
							"internalType": "uint256",
							"name": "",
							"type": "uint256"
						}
					],
					"stateMutability": "view",
					"type": "function"
				},
				{
					"inputs": [
						{
							"internalType": "address",
							"name": "from",
							"type": "address"
						},
						{
							"internalType": "address",
							"name": "to",
							"type": "address"
						},
						{
							"internalType": "uint256",
							"name": "tokenId",
							"type": "uint256"
						}
					],
					"name": "transferFrom",
					"outputs": [],
					"stateMutability": "payable",
					"type": "function"
				}
			],
			"devdoc": {
				"events": {
					"Approval(address,address,uint256)": {
						"details": "Emitted when `owner` enables `approved` to manage the `tokenId` token."
					},
					"ApprovalForAll(address,address,bool)": {
						"details": "Emitted when `owner` enables or disables (`approved`) `operator` to manage all of its assets."
					},
					"ConsecutiveTransfer(uint256,uint256,address,address)": {
						"details": "Emitted when tokens in `fromTokenId` to `toTokenId` (inclusive) is transferred from `from` to `to`, as defined in the [ERC2309](https://eips.ethereum.org/EIPS/eip-2309) standard. See {_mintERC2309} for more details."
					},
					"Transfer(address,address,uint256)": {
						"details": "Emitted when `tokenId` token is transferred from `from` to `to`."
					}
				},
				"kind": "dev",
				"methods": {
					"approve(address,uint256)": {
						"details": "Gives permission to `to` to transfer `tokenId` token to another account. The approval is cleared when the token is transferred. Only a single account can be approved at a time, so approving the zero address clears previous approvals. Requirements: - The caller must own the token or be an approved operator. - `tokenId` must exist. Emits an {Approval} event."
					},
					"balanceOf(address)": {
						"details": "Returns the number of tokens in `owner`'s account."
					},
					"getApproved(uint256)": {
						"details": "Returns the account approved for `tokenId` token. Requirements: - `tokenId` must exist."
					},
					"isApprovedForAll(address,address)": {
						"details": "Returns if the `operator` is allowed to manage all of the assets of `owner`. See {setApprovalForAll}."
					},
					"name()": {
						"details": "Returns the token collection name."
					},
					"ownerOf(uint256)": {
						"details": "Returns the owner of the `tokenId` token. Requirements: - `tokenId` must exist."
					},
					"safeTransferFrom(address,address,uint256)": {
						"details": "Equivalent to `safeTransferFrom(from, to, tokenId, '')`."
					},
					"safeTransferFrom(address,address,uint256,bytes)": {
						"details": "Safely transfers `tokenId` token from `from` to `to`. Requirements: - `from` cannot be the zero address. - `to` cannot be the zero address. - `tokenId` token must exist and be owned by `from`. - If the caller is not `from`, it must be approved to move this token by either {approve} or {setApprovalForAll}. - If `to` refers to a smart contract, it must implement {IERC721Receiver-onERC721Received}, which is called upon a safe transfer. Emits a {Transfer} event."
					},
					"setApprovalForAll(address,bool)": {
						"details": "Approve or remove `operator` as an operator for the caller. Operators can call {transferFrom} or {safeTransferFrom} for any token owned by the caller. Requirements: - The `operator` cannot be the caller. Emits an {ApprovalForAll} event."
					},
					"supportsInterface(bytes4)": {
						"details": "Returns true if this contract implements the interface defined by `interfaceId`. See the corresponding [EIP section](https://eips.ethereum.org/EIPS/eip-165#how-interfaces-are-identified) to learn more about how these ids are created. This function call must use less than 30000 gas."
					},
					"symbol()": {
						"details": "Returns the token collection symbol."
					},
					"tokenURI(uint256)": {
						"details": "Returns the Uniform Resource Identifier (URI) for `tokenId` token."
					},
					"totalSupply()": {
						"details": "Returns the total number of tokens in existence. Burned tokens will reduce the count. To get the total number of tokens minted, please see {_totalMinted}."
					},
					"transferFrom(address,address,uint256)": {
						"details": "Transfers `tokenId` from `from` to `to`. Requirements: - `from` cannot be the zero address. - `to` cannot be the zero address. - `tokenId` token must be owned by `from`. - If the caller is not `from`, it must be approved to move this token by either {approve} or {setApprovalForAll}. Emits a {Transfer} event."
					}
				},
				"version": 1
			},
			"evm": {
				"assembly": "    /* \"contracts/ERC-721A_flattened.sol\":50120:50388  contract GasCompareERC721A is ERC721A {... */\n  mstore(0x40, 0x80)\n    /* \"contracts/ERC-721A_flattened.sol\":50164:50206  constructor() ERC721A(\"Azuki\", \"AZUKI\") {} */\n  callvalue\n  dup1\n  iszero\n  tag_1\n  jumpi\n  0x00\n  dup1\n  revert\ntag_1:\n  pop\n    /* \"contracts/ERC-721A_flattened.sol\":13655:13809  constructor(string memory name_, string memory symbol_) {... */\n  mload(0x40)\n  dup1\n  0x40\n  add\n  0x40\n  mstore\n  dup1\n  0x05\n  dup2\n  mstore\n  0x20\n  add\n  0x417a756b69000000000000000000000000000000000000000000000000000000\n  dup2\n  mstore\n  pop\n  mload(0x40)\n  dup1\n  0x40\n  add\n  0x40\n  mstore\n  dup1\n  0x05\n  dup2\n  mstore\n  0x20\n  add\n  0x415a554b49000000000000000000000000000000000000000000000000000000\n  dup2\n  mstore\n  pop\n    /* \"contracts/ERC-721A_flattened.sol\":13729:13734  name_ */\n  dup2\n    /* \"contracts/ERC-721A_flattened.sol\":13721:13726  _name */\n  0x02\n    /* \"contracts/ERC-721A_flattened.sol\":13721:13734  _name = name_ */\n  swap1\n  dup2\n  tag_5\n  swap2\n  swap1\n  tag_6\n  jump\t// in\ntag_5:\n  pop\n    /* \"contracts/ERC-721A_flattened.sol\":13754:13761  symbol_ */\n  dup1\n    /* \"contracts/ERC-721A_flattened.sol\":13744:13751  _symbol */\n  0x03\n    /* \"contracts/ERC-721A_flattened.sol\":13744:13761  _symbol = symbol_ */\n  swap1\n  dup2\n  tag_7\n  swap2\n  swap1\n  tag_6\n  jump\t// in\ntag_7:\n  pop\n    /* \"contracts/ERC-721A_flattened.sol\":13787:13802  _startTokenId() */\n  tag_8\n    /* \"contracts/ERC-721A_flattened.sol\":13787:13800  _startTokenId */\n  shl(0x20, tag_9)\n    /* \"contracts/ERC-721A_flattened.sol\":13787:13802  _startTokenId() */\n  0x20\n  shr\n  jump\t// in\ntag_8:\n    /* \"contracts/ERC-721A_flattened.sol\":13771:13784  _currentIndex */\n  0x00\n    /* \"contracts/ERC-721A_flattened.sol\":13771:13802  _currentIndex = _startTokenId() */\n  dup2\n  swap1\n  sstore\n  pop\n    /* \"contracts/ERC-721A_flattened.sol\":13655:13809  constructor(string memory name_, string memory symbol_) {... */\n  pop\n  pop\n    /* \"contracts/ERC-721A_flattened.sol\":50120:50388  contract GasCompareERC721A is ERC721A {... */\n  jump(tag_11)\n    /* \"contracts/ERC-721A_flattened.sol\":14135:14225  function _startTokenId() internal view virtual returns (uint256) {... */\ntag_9:\n    /* \"contracts/ERC-721A_flattened.sol\":14191:14198  uint256 */\n  0x00\n    /* \"contracts/ERC-721A_flattened.sol\":14135:14225  function _startTokenId() internal view virtual returns (uint256) {... */\n  swap1\n  jump\t// out\n    /* \"#utility.yul\":7:106   */\ntag_13:\n    /* \"#utility.yul\":59:65   */\n  0x00\n    /* \"#utility.yul\":93:98   */\n  dup2\n    /* \"#utility.yul\":87:99   */\n  mload\n    /* \"#utility.yul\":77:99   */\n  swap1\n  pop\n    /* \"#utility.yul\":7:106   */\n  swap2\n  swap1\n  pop\n  jump\t// out\n    /* \"#utility.yul\":112:292   */\ntag_14:\n    /* \"#utility.yul\":160:237   */\n  0x4e487b7100000000000000000000000000000000000000000000000000000000\n    /* \"#utility.yul\":157:158   */\n  0x00\n    /* \"#utility.yul\":150:238   */\n  mstore\n    /* \"#utility.yul\":257:261   */\n  0x41\n    /* \"#utility.yul\":254:255   */\n  0x04\n    /* \"#utility.yul\":247:262   */\n  mstore\n    /* \"#utility.yul\":281:285   */\n  0x24\n    /* \"#utility.yul\":278:279   */\n  0x00\n    /* \"#utility.yul\":271:286   */\n  revert\n    /* \"#utility.yul\":298:478   */\ntag_15:\n    /* \"#utility.yul\":346:423   */\n  0x4e487b7100000000000000000000000000000000000000000000000000000000\n    /* \"#utility.yul\":343:344   */\n  0x00\n    /* \"#utility.yul\":336:424   */\n  mstore\n    /* \"#utility.yul\":443:447   */\n  0x22\n    /* \"#utility.yul\":440:441   */\n  0x04\n    /* \"#utility.yul\":433:448   */\n  mstore\n    /* \"#utility.yul\":467:471   */\n  0x24\n    /* \"#utility.yul\":464:465   */\n  0x00\n    /* \"#utility.yul\":457:472   */\n  revert\n    /* \"#utility.yul\":484:804   */\ntag_16:\n    /* \"#utility.yul\":528:534   */\n  0x00\n    /* \"#utility.yul\":565:566   */\n  0x02\n    /* \"#utility.yul\":559:563   */\n  dup3\n    /* \"#utility.yul\":555:567   */\n  div\n    /* \"#utility.yul\":545:567   */\n  swap1\n  pop\n    /* \"#utility.yul\":612:613   */\n  0x01\n    /* \"#utility.yul\":606:610   */\n  dup3\n    /* \"#utility.yul\":602:614   */\n  and\n    /* \"#utility.yul\":633:651   */\n  dup1\n    /* \"#utility.yul\":623:704   */\n  tag_38\n  jumpi\n    /* \"#utility.yul\":689:693   */\n  0x7f\n    /* \"#utility.yul\":681:687   */\n  dup3\n    /* \"#utility.yul\":677:694   */\n  and\n    /* \"#utility.yul\":667:694   */\n  swap2\n  pop\n    /* \"#utility.yul\":623:704   */\ntag_38:\n    /* \"#utility.yul\":751:753   */\n  0x20\n    /* \"#utility.yul\":743:749   */\n  dup3\n    /* \"#utility.yul\":740:754   */\n  lt\n    /* \"#utility.yul\":720:738   */\n  dup2\n    /* \"#utility.yul\":717:755   */\n  sub\n    /* \"#utility.yul\":714:798   */\n  tag_39\n  jumpi\n    /* \"#utility.yul\":770:788   */\n  tag_40\n  tag_15\n  jump\t// in\ntag_40:\n    /* \"#utility.yul\":714:798   */\ntag_39:\n    /* \"#utility.yul\":535:804   */\n  pop\n    /* \"#utility.yul\":484:804   */\n  swap2\n  swap1\n  pop\n  jump\t// out\n    /* \"#utility.yul\":810:951   */\ntag_17:\n    /* \"#utility.yul\":859:863   */\n  0x00\n    /* \"#utility.yul\":882:885   */\n  dup2\n    /* \"#utility.yul\":874:885   */\n  swap1\n  pop\n    /* \"#utility.yul\":905:908   */\n  dup2\n    /* \"#utility.yul\":902:903   */\n  0x00\n    /* \"#utility.yul\":895:909   */\n  mstore\n    /* \"#utility.yul\":939:943   */\n  0x20\n    /* \"#utility.yul\":936:937   */\n  0x00\n    /* \"#utility.yul\":926:944   */\n  keccak256\n    /* \"#utility.yul\":918:944   */\n  swap1\n  pop\n    /* \"#utility.yul\":810:951   */\n  swap2\n  swap1\n  pop\n  jump\t// out\n    /* \"#utility.yul\":957:1050   */\ntag_18:\n    /* \"#utility.yul\":994:1000   */\n  0x00\n    /* \"#utility.yul\":1041:1043   */\n  0x20\n    /* \"#utility.yul\":1036:1038   */\n  0x1f\n    /* \"#utility.yul\":1029:1034   */\n  dup4\n    /* \"#utility.yul\":1025:1039   */\n  add\n    /* \"#utility.yul\":1021:1044   */\n  div\n    /* \"#utility.yul\":1011:1044   */\n  swap1\n  pop\n    /* \"#utility.yul\":957:1050   */\n  swap2\n  swap1\n  pop\n  jump\t// out\n    /* \"#utility.yul\":1056:1163   */\ntag_19:\n    /* \"#utility.yul\":1100:1108   */\n  0x00\n    /* \"#utility.yul\":1150:1155   */\n  dup3\n    /* \"#utility.yul\":1144:1148   */\n  dup3\n    /* \"#utility.yul\":1140:1156   */\n  shl\n    /* \"#utility.yul\":1119:1156   */\n  swap1\n  pop\n    /* \"#utility.yul\":1056:1163   */\n  swap3\n  swap2\n  pop\n  pop\n  jump\t// out\n    /* \"#utility.yul\":1169:1562   */\ntag_20:\n    /* \"#utility.yul\":1238:1244   */\n  0x00\n    /* \"#utility.yul\":1288:1289   */\n  0x08\n    /* \"#utility.yul\":1276:1286   */\n  dup4\n    /* \"#utility.yul\":1272:1290   */\n  mul\n    /* \"#utility.yul\":1311:1408   */\n  tag_45\n    /* \"#utility.yul\":1341:1407   */\n  0xffffffffffffffffffffffffffffffffffffffffffffffffffffffffffffffff\n    /* \"#utility.yul\":1330:1339   */\n  dup3\n    /* \"#utility.yul\":1311:1408   */\n  tag_19\n  jump\t// in\ntag_45:\n    /* \"#utility.yul\":1429:1468   */\n  tag_46\n    /* \"#utility.yul\":1459:1467   */\n  dup7\n    /* \"#utility.yul\":1448:1457   */\n  dup4\n    /* \"#utility.yul\":1429:1468   */\n  tag_19\n  jump\t// in\ntag_46:\n    /* \"#utility.yul\":1417:1468   */\n  swap6\n  pop\n    /* \"#utility.yul\":1501:1505   */\n  dup1\n    /* \"#utility.yul\":1497:1506   */\n  not\n    /* \"#utility.yul\":1490:1495   */\n  dup5\n    /* \"#utility.yul\":1486:1507   */\n  and\n    /* \"#utility.yul\":1477:1507   */\n  swap4\n  pop\n    /* \"#utility.yul\":1550:1554   */\n  dup1\n    /* \"#utility.yul\":1540:1548   */\n  dup7\n    /* \"#utility.yul\":1536:1555   */\n  and\n    /* \"#utility.yul\":1529:1534   */\n  dup5\n    /* \"#utility.yul\":1526:1556   */\n  or\n    /* \"#utility.yul\":1516:1556   */\n  swap3\n  pop\n    /* \"#utility.yul\":1245:1562   */\n  pop\n  pop\n    /* \"#utility.yul\":1169:1562   */\n  swap4\n  swap3\n  pop\n  pop\n  pop\n  jump\t// out\n    /* \"#utility.yul\":1568:1645   */\ntag_21:\n    /* \"#utility.yul\":1605:1612   */\n  0x00\n    /* \"#utility.yul\":1634:1639   */\n  dup2\n    /* \"#utility.yul\":1623:1639   */\n  swap1\n  pop\n    /* \"#utility.yul\":1568:1645   */\n  swap2\n  swap1\n  pop\n  jump\t// out\n    /* \"#utility.yul\":1651:1711   */\ntag_22:\n    /* \"#utility.yul\":1679:1682   */\n  0x00\n    /* \"#utility.yul\":1700:1705   */\n  dup2\n    /* \"#utility.yul\":1693:1705   */\n  swap1\n  pop\n    /* \"#utility.yul\":1651:1711   */\n  swap2\n  swap1\n  pop\n  jump\t// out\n    /* \"#utility.yul\":1717:1859   */\ntag_23:\n    /* \"#utility.yul\":1767:1776   */\n  0x00\n    /* \"#utility.yul\":1800:1853   */\n  tag_50\n    /* \"#utility.yul\":1818:1852   */\n  tag_51\n    /* \"#utility.yul\":1827:1851   */\n  tag_52\n    /* \"#utility.yul\":1845:1850   */\n  dup5\n    /* \"#utility.yul\":1827:1851   */\n  tag_21\n  jump\t// in\ntag_52:\n    /* \"#utility.yul\":1818:1852   */\n  tag_22\n  jump\t// in\ntag_51:\n    /* \"#utility.yul\":1800:1853   */\n  tag_21\n  jump\t// in\ntag_50:\n    /* \"#utility.yul\":1787:1853   */\n  swap1\n  pop\n    /* \"#utility.yul\":1717:1859   */\n  swap2\n  swap1\n  pop\n  jump\t// out\n    /* \"#utility.yul\":1865:1940   */\ntag_24:\n    /* \"#utility.yul\":1908:1911   */\n  0x00\n    /* \"#utility.yul\":1929:1934   */\n  dup2\n    /* \"#utility.yul\":1922:1934   */\n  swap1\n  pop\n    /* \"#utility.yul\":1865:1940   */\n  swap2\n  swap1\n  pop\n  jump\t// out\n    /* \"#utility.yul\":1946:2215   */\ntag_25:\n    /* \"#utility.yul\":2056:2095   */\n  tag_55\n    /* \"#utility.yul\":2087:2094   */\n  dup4\n    /* \"#utility.yul\":2056:2095   */\n  tag_23\n  jump\t// in\ntag_55:\n    /* \"#utility.yul\":2117:2208   */\n  tag_56\n    /* \"#utility.yul\":2166:2207   */\n  tag_57\n    /* \"#utility.yul\":2190:2206   */\n  dup3\n    /* \"#utility.yul\":2166:2207   */\n  tag_24\n  jump\t// in\ntag_57:\n    /* \"#utility.yul\":2158:2164   */\n  dup5\n    /* \"#utility.yul\":2151:2155   */\n  dup5\n    /* \"#utility.yul\":2145:2156   */\n  sload\n    /* \"#utility.yul\":2117:2208   */\n  tag_20\n  jump\t// in\ntag_56:\n    /* \"#utility.yul\":2111:2115   */\n  dup3\n    /* \"#utility.yul\":2104:2209   */\n  sstore\n    /* \"#utility.yul\":2022:2215   */\n  pop\n    /* \"#utility.yul\":1946:2215   */\n  pop\n  pop\n  pop\n  jump\t// out\n    /* \"#utility.yul\":2221:2294   */\ntag_26:\n    /* \"#utility.yul\":2266:2269   */\n  0x00\n    /* \"#utility.yul\":2221:2294   */\n  swap1\n  jump\t// out\n    /* \"#utility.yul\":2300:2489   */\ntag_27:\n    /* \"#utility.yul\":2377:2409   */\n  tag_60\n  tag_26\n  jump\t// in\ntag_60:\n    /* \"#utility.yul\":2418:2483   */\n  tag_61\n    /* \"#utility.yul\":2476:2482   */\n  dup2\n    /* \"#utility.yul\":2468:2474   */\n  dup5\n    /* \"#utility.yul\":2462:2466   */\n  dup5\n    /* \"#utility.yul\":2418:2483   */\n  tag_25\n  jump\t// in\ntag_61:\n    /* \"#utility.yul\":2353:2489   */\n  pop\n    /* \"#utility.yul\":2300:2489   */\n  pop\n  pop\n  jump\t// out\n    /* \"#utility.yul\":2495:2681   */\ntag_28:\n    /* \"#utility.yul\":2555:2675   */\ntag_63:\n    /* \"#utility.yul\":2572:2575   */\n  dup2\n    /* \"#utility.yul\":2565:2570   */\n  dup2\n    /* \"#utility.yul\":2562:2576   */\n  lt\n    /* \"#utility.yul\":2555:2675   */\n  iszero\n  tag_65\n  jumpi\n    /* \"#utility.yul\":2626:2665   */\n  tag_66\n    /* \"#utility.yul\":2663:2664   */\n  0x00\n    /* \"#utility.yul\":2656:2661   */\n  dup3\n    /* \"#utility.yul\":2626:2665   */\n  tag_27\n  jump\t// in\ntag_66:\n    /* \"#utility.yul\":2599:2600   */\n  0x01\n    /* \"#utility.yul\":2592:2597   */\n  dup2\n    /* \"#utility.yul\":2588:2601   */\n  add\n    /* \"#utility.yul\":2579:2601   */\n  swap1\n  pop\n    /* \"#utility.yul\":2555:2675   */\n  jump(tag_63)\ntag_65:\n    /* \"#utility.yul\":2495:2681   */\n  pop\n  pop\n  jump\t// out\n    /* \"#utility.yul\":2687:3230   */\ntag_29:\n    /* \"#utility.yul\":2788:2790   */\n  0x1f\n    /* \"#utility.yul\":2783:2786   */\n  dup3\n    /* \"#utility.yul\":2780:2791   */\n  gt\n    /* \"#utility.yul\":2777:3223   */\n  iszero\n  tag_68\n  jumpi\n    /* \"#utility.yul\":2822:2860   */\n  tag_69\n    /* \"#utility.yul\":2854:2859   */\n  dup2\n    /* \"#utility.yul\":2822:2860   */\n  tag_17\n  jump\t// in\ntag_69:\n    /* \"#utility.yul\":2906:2935   */\n  tag_70\n    /* \"#utility.yul\":2924:2934   */\n  dup5\n    /* \"#utility.yul\":2906:2935   */\n  tag_18\n  jump\t// in\ntag_70:\n    /* \"#utility.yul\":2896:2904   */\n  dup2\n    /* \"#utility.yul\":2892:2936   */\n  add\n    /* \"#utility.yul\":3089:3091   */\n  0x20\n    /* \"#utility.yul\":3077:3087   */\n  dup6\n    /* \"#utility.yul\":3074:3092   */\n  lt\n    /* \"#utility.yul\":3071:3120   */\n  iszero\n  tag_71\n  jumpi\n    /* \"#utility.yul\":3110:3118   */\n  dup2\n    /* \"#utility.yul\":3095:3118   */\n  swap1\n  pop\n    /* \"#utility.yul\":3071:3120   */\ntag_71:\n    /* \"#utility.yul\":3133:3213   */\n  tag_72\n    /* \"#utility.yul\":3189:3211   */\n  tag_73\n    /* \"#utility.yul\":3207:3210   */\n  dup6\n    /* \"#utility.yul\":3189:3211   */\n  tag_18\n  jump\t// in\ntag_73:\n    /* \"#utility.yul\":3179:3187   */\n  dup4\n    /* \"#utility.yul\":3175:3212   */\n  add\n    /* \"#utility.yul\":3162:3173   */\n  dup3\n    /* \"#utility.yul\":3133:3213   */\n  tag_28\n  jump\t// in\ntag_72:\n    /* \"#utility.yul\":2792:3223   */\n  pop\n  pop\n    /* \"#utility.yul\":2777:3223   */\ntag_68:\n    /* \"#utility.yul\":2687:3230   */\n  pop\n  pop\n  pop\n  jump\t// out\n    /* \"#utility.yul\":3236:3353   */\ntag_30:\n    /* \"#utility.yul\":3290:3298   */\n  0x00\n    /* \"#utility.yul\":3340:3345   */\n  dup3\n    /* \"#utility.yul\":3334:3338   */\n  dup3\n    /* \"#utility.yul\":3330:3346   */\n  shr\n    /* \"#utility.yul\":3309:3346   */\n  swap1\n  pop\n    /* \"#utility.yul\":3236:3353   */\n  swap3\n  swap2\n  pop\n  pop\n  jump\t// out\n    /* \"#utility.yul\":3359:3528   */\ntag_31:\n    /* \"#utility.yul\":3403:3409   */\n  0x00\n    /* \"#utility.yul\":3436:3487   */\n  tag_76\n    /* \"#utility.yul\":3484:3485   */\n  0x00\n    /* \"#utility.yul\":3480:3486   */\n  not\n    /* \"#utility.yul\":3472:3477   */\n  dup5\n    /* \"#utility.yul\":3469:3470   */\n  0x08\n    /* \"#utility.yul\":3465:3478   */\n  mul\n    /* \"#utility.yul\":3436:3487   */\n  tag_30\n  jump\t// in\ntag_76:\n    /* \"#utility.yul\":3432:3488   */\n  not\n    /* \"#utility.yul\":3517:3521   */\n  dup1\n    /* \"#utility.yul\":3511:3515   */\n  dup4\n    /* \"#utility.yul\":3507:3522   */\n  and\n    /* \"#utility.yul\":3497:3522   */\n  swap2\n  pop\n    /* \"#utility.yul\":3410:3528   */\n  pop\n    /* \"#utility.yul\":3359:3528   */\n  swap3\n  swap2\n  pop\n  pop\n  jump\t// out\n    /* \"#utility.yul\":3533:3828   */\ntag_32:\n    /* \"#utility.yul\":3609:3613   */\n  0x00\n    /* \"#utility.yul\":3755:3784   */\n  tag_78\n    /* \"#utility.yul\":3780:3783   */\n  dup4\n    /* \"#utility.yul\":3774:3778   */\n  dup4\n    /* \"#utility.yul\":3755:3784   */\n  tag_31\n  jump\t// in\ntag_78:\n    /* \"#utility.yul\":3747:3784   */\n  swap2\n  pop\n    /* \"#utility.yul\":3817:3820   */\n  dup3\n    /* \"#utility.yul\":3814:3815   */\n  0x02\n    /* \"#utility.yul\":3810:3821   */\n  mul\n    /* \"#utility.yul\":3804:3808   */\n  dup3\n    /* \"#utility.yul\":3801:3822   */\n  or\n    /* \"#utility.yul\":3793:3822   */\n  swap1\n  pop\n    /* \"#utility.yul\":3533:3828   */\n  swap3\n  swap2\n  pop\n  pop\n  jump\t// out\n    /* \"#utility.yul\":3833:5228   */\ntag_6:\n    /* \"#utility.yul\":3950:3987   */\n  tag_80\n    /* \"#utility.yul\":3983:3986   */\n  dup3\n    /* \"#utility.yul\":3950:3987   */\n  tag_13\n  jump\t// in\ntag_80:\n    /* \"#utility.yul\":4052:4070   */\n  0xffffffffffffffff\n    /* \"#utility.yul\":4044:4050   */\n  dup2\n    /* \"#utility.yul\":4041:4071   */\n  gt\n    /* \"#utility.yul\":4038:4094   */\n  iszero\n  tag_81\n  jumpi\n    /* \"#utility.yul\":4074:4092   */\n  tag_82\n  tag_14\n  jump\t// in\ntag_82:\n    /* \"#utility.yul\":4038:4094   */\ntag_81:\n    /* \"#utility.yul\":4118:4156   */\n  tag_83\n    /* \"#utility.yul\":4150:4154   */\n  dup3\n    /* \"#utility.yul\":4144:4155   */\n  sload\n    /* \"#utility.yul\":4118:4156   */\n  tag_16\n  jump\t// in\ntag_83:\n    /* \"#utility.yul\":4203:4270   */\n  tag_84\n    /* \"#utility.yul\":4263:4269   */\n  dup3\n    /* \"#utility.yul\":4255:4261   */\n  dup3\n    /* \"#utility.yul\":4249:4253   */\n  dup6\n    /* \"#utility.yul\":4203:4270   */\n  tag_29\n  jump\t// in\ntag_84:\n    /* \"#utility.yul\":4297:4298   */\n  0x00\n    /* \"#utility.yul\":4321:4325   */\n  0x20\n    /* \"#utility.yul\":4308:4325   */\n  swap1\n  pop\n    /* \"#utility.yul\":4353:4355   */\n  0x1f\n    /* \"#utility.yul\":4345:4351   */\n  dup4\n    /* \"#utility.yul\":4342:4356   */\n  gt\n    /* \"#utility.yul\":4370:4371   */\n  0x01\n    /* \"#utility.yul\":4365:4983   */\n  dup2\n  eq\n  tag_86\n  jumpi\n    /* \"#utility.yul\":5027:5028   */\n  0x00\n    /* \"#utility.yul\":5044:5050   */\n  dup5\n    /* \"#utility.yul\":5041:5118   */\n  iszero\n  tag_87\n  jumpi\n    /* \"#utility.yul\":5093:5102   */\n  dup3\n    /* \"#utility.yul\":5088:5091   */\n  dup8\n    /* \"#utility.yul\":5084:5103   */\n  add\n    /* \"#utility.yul\":5078:5104   */\n  mload\n    /* \"#utility.yul\":5069:5104   */\n  swap1\n  pop\n    /* \"#utility.yul\":5041:5118   */\ntag_87:\n    /* \"#utility.yul\":5144:5211   */\n  tag_88\n    /* \"#utility.yul\":5204:5210   */\n  dup6\n    /* \"#utility.yul\":5197:5202   */\n  dup3\n    /* \"#utility.yul\":5144:5211   */\n  tag_32\n  jump\t// in\ntag_88:\n    /* \"#utility.yul\":5138:5142   */\n  dup7\n    /* \"#utility.yul\":5131:5212   */\n  sstore\n    /* \"#utility.yul\":5000:5222   */\n  pop\n    /* \"#utility.yul\":4335:5222   */\n  jump(tag_85)\n    /* \"#utility.yul\":4365:4983   */\ntag_86:\n    /* \"#utility.yul\":4417:4421   */\n  0x1f\n    /* \"#utility.yul\":4413:4422   */\n  not\n    /* \"#utility.yul\":4405:4411   */\n  dup5\n    /* \"#utility.yul\":4401:4423   */\n  and\n    /* \"#utility.yul\":4451:4488   */\n  tag_89\n    /* \"#utility.yul\":4483:4487   */\n  dup7\n    /* \"#utility.yul\":4451:4488   */\n  tag_17\n  jump\t// in\ntag_89:\n    /* \"#utility.yul\":4510:4511   */\n  0x00\n    /* \"#utility.yul\":4524:4732   */\ntag_90:\n    /* \"#utility.yul\":4538:4545   */\n  dup3\n    /* \"#utility.yul\":4535:4536   */\n  dup2\n    /* \"#utility.yul\":4532:4546   */\n  lt\n    /* \"#utility.yul\":4524:4732   */\n  iszero\n  tag_92\n  jumpi\n    /* \"#utility.yul\":4617:4626   */\n  dup5\n    /* \"#utility.yul\":4612:4615   */\n  dup10\n    /* \"#utility.yul\":4608:4627   */\n  add\n    /* \"#utility.yul\":4602:4628   */\n  mload\n    /* \"#utility.yul\":4594:4600   */\n  dup3\n    /* \"#utility.yul\":4587:4629   */\n  sstore\n    /* \"#utility.yul\":4668:4669   */\n  0x01\n    /* \"#utility.yul\":4660:4666   */\n  dup3\n    /* \"#utility.yul\":4656:4670   */\n  add\n    /* \"#utility.yul\":4646:4670   */\n  swap2\n  pop\n    /* \"#utility.yul\":4715:4717   */\n  0x20\n    /* \"#utility.yul\":4704:4713   */\n  dup6\n    /* \"#utility.yul\":4700:4718   */\n  add\n    /* \"#utility.yul\":4687:4718   */\n  swap5\n  pop\n    /* \"#utility.yul\":4561:4565   */\n  0x20\n    /* \"#utility.yul\":4558:4559   */\n  dup2\n    /* \"#utility.yul\":4554:4566   */\n  add\n    /* \"#utility.yul\":4549:4566   */\n  swap1\n  pop\n    /* \"#utility.yul\":4524:4732   */\n  jump(tag_90)\ntag_92:\n    /* \"#utility.yul\":4760:4766   */\n  dup7\n    /* \"#utility.yul\":4751:4758   */\n  dup4\n    /* \"#utility.yul\":4748:4767   */\n  lt\n    /* \"#utility.yul\":4745:4924   */\n  iszero\n  tag_93\n  jumpi\n    /* \"#utility.yul\":4818:4827   */\n  dup5\n    /* \"#utility.yul\":4813:4816   */\n  dup10\n    /* \"#utility.yul\":4809:4828   */\n  add\n    /* \"#utility.yul\":4803:4829   */\n  mload\n    /* \"#utility.yul\":4861:4909   */\n  tag_94\n    /* \"#utility.yul\":4903:4907   */\n  0x1f\n    /* \"#utility.yul\":4895:4901   */\n  dup10\n    /* \"#utility.yul\":4891:4908   */\n  and\n    /* \"#utility.yul\":4880:4889   */\n  dup3\n    /* \"#utility.yul\":4861:4909   */\n  tag_31\n  jump\t// in\ntag_94:\n    /* \"#utility.yul\":4853:4859   */\n  dup4\n    /* \"#utility.yul\":4846:4910   */\n  sstore\n    /* \"#utility.yul\":4768:4924   */\n  pop\n    /* \"#utility.yul\":4745:4924   */\ntag_93:\n    /* \"#utility.yul\":4970:4971   */\n  0x01\n    /* \"#utility.yul\":4966:4967   */\n  0x02\n    /* \"#utility.yul\":4958:4964   */\n  dup9\n    /* \"#utility.yul\":4954:4968   */\n  mul\n    /* \"#utility.yul\":4950:4972   */\n  add\n    /* \"#utility.yul\":4944:4948   */\n  dup9\n    /* \"#utility.yul\":4937:4973   */\n  sstore\n    /* \"#utility.yul\":4372:4983   */\n  pop\n  pop\n  pop\n    /* \"#utility.yul\":4335:5222   */\ntag_85:\n  pop\n    /* \"#utility.yul\":3925:5228   */\n  pop\n  pop\n  pop\n    /* \"#utility.yul\":3833:5228   */\n  pop\n  pop\n  jump\t// out\n    /* \"contracts/ERC-721A_flattened.sol\":50120:50388  contract GasCompareERC721A is ERC721A {... */\ntag_11:\n  dataSize(sub_0)\n  dup1\n  dataOffset(sub_0)\n  0x00\n  codecopy\n  0x00\n  return\nstop\n\nsub_0: assembly {\n        /* \"contracts/ERC-721A_flattened.sol\":50120:50388  contract GasCompareERC721A is ERC721A {... */\n      mstore(0x40, 0x80)\n      jumpi(tag_1, lt(calldatasize, 0x04))\n      shr(0xe0, calldataload(0x00))\n      dup1\n      0x6352211e\n      gt\n      tag_17\n      jumpi\n      dup1\n      0xa22cb465\n      gt\n      tag_18\n      jumpi\n      dup1\n      0xa22cb465\n      eq\n      tag_13\n      jumpi\n      dup1\n      0xb88d4fde\n      eq\n      tag_14\n      jumpi\n      dup1\n      0xc87b56dd\n      eq\n      tag_15\n      jumpi\n      dup1\n      0xe985e9c5\n      eq\n      tag_16\n      jumpi\n      jump(tag_1)\n    tag_18:\n      dup1\n      0x6352211e\n      eq\n      tag_9\n      jumpi\n      dup1\n      0x70a08231\n      eq\n      tag_10\n      jumpi\n      dup1\n      0x95d89b41\n      eq\n      tag_11\n      jumpi\n      dup1\n      0xa0712d68\n      eq\n      tag_12\n      jumpi\n      jump(tag_1)\n    tag_17:\n      dup1\n      0x095ea7b3\n      gt\n      tag_19\n      jumpi\n      dup1\n      0x095ea7b3\n      eq\n      tag_5\n      jumpi\n      dup1\n      0x18160ddd\n      eq\n      tag_6\n      jumpi\n      dup1\n      0x23b872dd\n      eq\n      tag_7\n      jumpi\n      dup1\n      0x42842e0e\n      eq\n      tag_8\n      jumpi\n      jump(tag_1)\n    tag_19:\n      dup1\n      0x01ffc9a7\n      eq\n      tag_2\n      jumpi\n      dup1\n      0x06fdde03\n      eq\n      tag_3\n      jumpi\n      dup1\n      0x081812fc\n      eq\n      tag_4\n      jumpi\n    tag_1:\n      0x00\n      dup1\n      revert\n        /* \"contracts/ERC-721A_flattened.sol\":17864:18494  function supportsInterface(bytes4 interfaceId) public view virtual override returns (bool) {... */\n    tag_2:\n      callvalue\n      dup1\n      iszero\n      tag_20\n      jumpi\n      0x00\n      dup1\n      revert\n    tag_20:\n      pop\n      tag_21\n      0x04\n      dup1\n      calldatasize\n      sub\n      dup2\n      add\n      swap1\n      tag_22\n      swap2\n      swap1\n      tag_23\n      jump\t// in\n    tag_22:\n      tag_24\n      jump\t// in\n    tag_21:\n      mload(0x40)\n      tag_25\n      swap2\n      swap1\n      tag_26\n      jump\t// in\n    tag_25:\n      mload(0x40)\n      dup1\n      swap2\n      sub\n      swap1\n      return\n        /* \"contracts/ERC-721A_flattened.sol\":18748:18846  function name() public view virtual override returns (string memory) {... */\n    tag_3:\n      callvalue\n      dup1\n      iszero\n      tag_27\n      jumpi\n      0x00\n      dup1\n      revert\n    tag_27:\n      pop\n      tag_28\n      tag_29\n      jump\t// in\n    tag_28:\n      mload(0x40)\n      tag_30\n      swap2\n      swap1\n      tag_31\n      jump\t// in\n    tag_30:\n      mload(0x40)\n      dup1\n      swap2\n      sub\n      swap1\n      return\n        /* \"contracts/ERC-721A_flattened.sol\":25069:25283  function getApproved(uint256 tokenId) public view virtual override returns (address) {... */\n    tag_4:\n      callvalue\n      dup1\n      iszero\n      tag_32\n      jumpi\n      0x00\n      dup1\n      revert\n    tag_32:\n      pop\n      tag_33\n      0x04\n      dup1\n      calldatasize\n      sub\n      dup2\n      add\n      swap1\n      tag_34\n      swap2\n      swap1\n      tag_35\n      jump\t// in\n    tag_34:\n      tag_36\n      jump\t// in\n    tag_33:\n      mload(0x40)\n      tag_37\n      swap2\n      swap1\n      tag_38\n      jump\t// in\n    tag_37:\n      mload(0x40)\n      dup1\n      swap2\n      sub\n      swap1\n      return\n        /* \"contracts/ERC-721A_flattened.sol\":24521:24919  function approve(address to, uint256 tokenId) public payable virtual override {... */\n    tag_5:\n      tag_39\n      0x04\n      dup1\n      calldatasize\n      sub\n      dup2\n      add\n      swap1\n      tag_40\n      swap2\n      swap1\n      tag_41\n      jump\t// in\n    tag_40:\n      tag_42\n      jump\t// in\n    tag_39:\n      stop\n        /* \"contracts/ERC-721A_flattened.sol\":14603:14920  function totalSupply() public view virtual override returns (uint256) {... */\n    tag_6:\n      callvalue\n      dup1\n      iszero\n      tag_43\n      jumpi\n      0x00\n      dup1\n      revert\n    tag_43:\n      pop\n      tag_44\n      tag_45\n      jump\t// in\n    tag_44:\n      mload(0x40)\n      tag_46\n      swap2\n      swap1\n      tag_47\n      jump\t// in\n    tag_46:\n      mload(0x40)\n      dup1\n      swap2\n      sub\n      swap1\n      return\n        /* \"contracts/ERC-721A_flattened.sol\":28612:31376  function transferFrom(... */\n    tag_7:\n      tag_48\n      0x04\n      dup1\n      calldatasize\n      sub\n      dup2\n      add\n      swap1\n      tag_49\n      swap2\n      swap1\n      tag_50\n      jump\t// in\n    tag_49:\n      tag_51\n      jump\t// in\n    tag_48:\n      stop\n        /* \"contracts/ERC-721A_flattened.sol\":31467:31654  function safeTransferFrom(... */\n    tag_8:\n      tag_52\n      0x04\n      dup1\n      calldatasize\n      sub\n      dup2\n      add\n      swap1\n      tag_53\n      swap2\n      swap1\n      tag_50\n      jump\t// in\n    tag_53:\n      tag_54\n      jump\t// in\n    tag_52:\n      stop\n        /* \"contracts/ERC-721A_flattened.sol\":20100:20250  function ownerOf(uint256 tokenId) public view virtual override returns (address) {... */\n    tag_9:\n      callvalue\n      dup1\n      iszero\n      tag_55\n      jumpi\n      0x00\n      dup1\n      revert\n    tag_55:\n      pop\n      tag_56\n      0x04\n      dup1\n      calldatasize\n      sub\n      dup2\n      add\n      swap1\n      tag_57\n      swap2\n      swap1\n      tag_35\n      jump\t// in\n    tag_57:\n      tag_58\n      jump\t// in\n    tag_56:\n      mload(0x40)\n      tag_59\n      swap2\n      swap1\n      tag_38\n      jump\t// in\n    tag_59:\n      mload(0x40)\n      dup1\n      swap2\n      sub\n      swap1\n      return\n        /* \"contracts/ERC-721A_flattened.sol\":15754:15984  function balanceOf(address owner) public view virtual override returns (uint256) {... */\n    tag_10:\n      callvalue\n      dup1\n      iszero\n      tag_60\n      jumpi\n      0x00\n      dup1\n      revert\n    tag_60:\n      pop\n      tag_61\n      0x04\n      dup1\n      calldatasize\n      sub\n      dup2\n      add\n      swap1\n      tag_62\n      swap2\n      swap1\n      tag_63\n      jump\t// in\n    tag_62:\n      tag_64\n      jump\t// in\n    tag_61:\n      mload(0x40)\n      tag_65\n      swap2\n      swap1\n      tag_47\n      jump\t// in\n    tag_65:\n      mload(0x40)\n      dup1\n      swap2\n      sub\n      swap1\n      return\n        /* \"contracts/ERC-721A_flattened.sol\":18917:19019  function symbol() public view virtual override returns (string memory) {... */\n    tag_11:\n      callvalue\n      dup1\n      iszero\n      tag_66\n      jumpi\n      0x00\n      dup1\n      revert\n    tag_66:\n      pop\n      tag_67\n      tag_68\n      jump\t// in\n    tag_67:\n      mload(0x40)\n      tag_69\n      swap2\n      swap1\n      tag_31\n      jump\t// in\n    tag_69:\n      mload(0x40)\n      dup1\n      swap2\n      sub\n      swap1\n      return\n        /* \"contracts/ERC-721A_flattened.sol\":50212:50386  function mint(uint256 quantity) external payable {... */\n    tag_12:\n      tag_70\n      0x04\n      dup1\n      calldatasize\n      sub\n      dup2\n      add\n      swap1\n      tag_71\n      swap2\n      swap1\n      tag_35\n      jump\t// in\n    tag_71:\n      tag_72\n      jump\t// in\n    tag_70:\n      stop\n        /* \"contracts/ERC-721A_flattened.sol\":25610:25841  function setApprovalForAll(address operator, bool approved) public virtual override {... */\n    tag_13:\n      callvalue\n      dup1\n      iszero\n      tag_73\n      jumpi\n      0x00\n      dup1\n      revert\n    tag_73:\n      pop\n      tag_74\n      0x04\n      dup1\n      calldatasize\n      sub\n      dup2\n      add\n      swap1\n      tag_75\n      swap2\n      swap1\n      tag_76\n      jump\t// in\n    tag_75:\n      tag_77\n      jump\t// in\n    tag_74:\n      stop\n        /* \"contracts/ERC-721A_flattened.sol\":32235:32631  function safeTransferFrom(... */\n    tag_14:\n      tag_78\n      0x04\n      dup1\n      calldatasize\n      sub\n      dup2\n      add\n      swap1\n      tag_79\n      swap2\n      swap1\n      tag_80\n      jump\t// in\n    tag_79:\n      tag_81\n      jump\t// in\n    tag_78:\n      stop\n        /* \"contracts/ERC-721A_flattened.sol\":19120:19433  function tokenURI(uint256 tokenId) public view virtual override returns (string memory) {... */\n    tag_15:\n      callvalue\n      dup1\n      iszero\n      tag_82\n      jumpi\n      0x00\n      dup1\n      revert\n    tag_82:\n      pop\n      tag_83\n      0x04\n      dup1\n      calldatasize\n      sub\n      dup2\n      add\n      swap1\n      tag_84\n      swap2\n      swap1\n      tag_35\n      jump\t// in\n    tag_84:\n      tag_85\n      jump\t// in\n    tag_83:\n      mload(0x40)\n      tag_86\n      swap2\n      swap1\n      tag_31\n      jump\t// in\n    tag_86:\n      mload(0x40)\n      dup1\n      swap2\n      sub\n      swap1\n      return\n        /* \"contracts/ERC-721A_flattened.sol\":25991:26153  function isApprovedForAll(address owner, address operator) public view virtual override returns (bool) {... */\n    tag_16:\n      callvalue\n      dup1\n      iszero\n      tag_87\n      jumpi\n      0x00\n      dup1\n      revert\n    tag_87:\n      pop\n      tag_88\n      0x04\n      dup1\n      calldatasize\n      sub\n      dup2\n      add\n      swap1\n      tag_89\n      swap2\n      swap1\n      tag_90\n      jump\t// in\n    tag_89:\n      tag_91\n      jump\t// in\n    tag_88:\n      mload(0x40)\n      tag_92\n      swap2\n      swap1\n      tag_26\n      jump\t// in\n    tag_92:\n      mload(0x40)\n      dup1\n      swap2\n      sub\n      swap1\n      return\n        /* \"contracts/ERC-721A_flattened.sol\":17864:18494  function supportsInterface(bytes4 interfaceId) public view virtual override returns (bool) {... */\n    tag_24:\n        /* \"contracts/ERC-721A_flattened.sol\":17949:17953  bool */\n      0x00\n        /* \"contracts/ERC-721A_flattened.sol\":18282:18292  0x01ffc9a7 */\n      0x01ffc9a7\n        /* \"contracts/ERC-721A_flattened.sol\":18267:18292  interfaceId == 0x01ffc9a7 */\n      0xe0\n      shl\n        /* \"contracts/ERC-721A_flattened.sol\":18267:18278  interfaceId */\n      dup3\n        /* \"contracts/ERC-721A_flattened.sol\":18267:18292  interfaceId == 0x01ffc9a7 */\n      not(0xffffffffffffffffffffffffffffffffffffffffffffffffffffffff)\n      and\n      eq\n        /* \"contracts/ERC-721A_flattened.sol\":18267:18368  interfaceId == 0x01ffc9a7 || // ERC165 interface ID for ERC165.... */\n      dup1\n      tag_94\n      jumpi\n      pop\n        /* \"contracts/ERC-721A_flattened.sol\":18358:18368  0x80ac58cd */\n      0x80ac58cd\n        /* \"contracts/ERC-721A_flattened.sol\":18343:18368  interfaceId == 0x80ac58cd */\n      0xe0\n      shl\n        /* \"contracts/ERC-721A_flattened.sol\":18343:18354  interfaceId */\n      dup3\n        /* \"contracts/ERC-721A_flattened.sol\":18343:18368  interfaceId == 0x80ac58cd */\n      not(0xffffffffffffffffffffffffffffffffffffffffffffffffffffffff)\n      and\n      eq\n        /* \"contracts/ERC-721A_flattened.sol\":18267:18368  interfaceId == 0x01ffc9a7 || // ERC165 interface ID for ERC165.... */\n    tag_94:\n        /* \"contracts/ERC-721A_flattened.sol\":18267:18444  interfaceId == 0x01ffc9a7 || // ERC165 interface ID for ERC165.... */\n      dup1\n      tag_95\n      jumpi\n      pop\n        /* \"contracts/ERC-721A_flattened.sol\":18434:18444  0x5b5e139f */\n      0x5b5e139f\n        /* \"contracts/ERC-721A_flattened.sol\":18419:18444  interfaceId == 0x5b5e139f */\n      0xe0\n      shl\n        /* \"contracts/ERC-721A_flattened.sol\":18419:18430  interfaceId */\n      dup3\n        /* \"contracts/ERC-721A_flattened.sol\":18419:18444  interfaceId == 0x5b5e139f */\n      not(0xffffffffffffffffffffffffffffffffffffffffffffffffffffffff)\n      and\n      eq\n        /* \"contracts/ERC-721A_flattened.sol\":18267:18444  interfaceId == 0x01ffc9a7 || // ERC165 interface ID for ERC165.... */\n    tag_95:\n        /* \"contracts/ERC-721A_flattened.sol\":18248:18444  return... */\n      swap1\n      pop\n        /* \"contracts/ERC-721A_flattened.sol\":17864:18494  function supportsInterface(bytes4 interfaceId) public view virtual override returns (bool) {... */\n      swap2\n      swap1\n      pop\n      jump\t// out\n        /* \"contracts/ERC-721A_flattened.sol\":18748:18846  function name() public view virtual override returns (string memory) {... */\n    tag_29:\n        /* \"contracts/ERC-721A_flattened.sol\":18802:18815  string memory */\n      0x60\n        /* \"contracts/ERC-721A_flattened.sol\":18834:18839  _name */\n      0x02\n        /* \"contracts/ERC-721A_flattened.sol\":18827:18839  return _name */\n      dup1\n      sload\n      tag_97\n      swap1\n      tag_98\n      jump\t// in\n    tag_97:\n      dup1\n      0x1f\n      add\n      0x20\n      dup1\n      swap2\n      div\n      mul\n      0x20\n      add\n      mload(0x40)\n      swap1\n      dup2\n      add\n      0x40\n      mstore\n      dup1\n      swap3\n      swap2\n      swap1\n      dup2\n      dup2\n      mstore\n      0x20\n      add\n      dup3\n      dup1\n      sload\n      tag_99\n      swap1\n      tag_98\n      jump\t// in\n    tag_99:\n      dup1\n      iszero\n      tag_100\n      jumpi\n      dup1\n      0x1f\n      lt\n      tag_101\n      jumpi\n      0x0100\n      dup1\n      dup4\n      sload\n      div\n      mul\n      dup4\n      mstore\n      swap2\n      0x20\n      add\n      swap2\n      jump(tag_100)\n    tag_101:\n      dup3\n      add\n      swap2\n      swap1\n      0x00\n      mstore\n      keccak256(0x00, 0x20)\n      swap1\n    tag_102:\n      dup2\n      sload\n      dup2\n      mstore\n      swap1\n      0x01\n      add\n      swap1\n      0x20\n      add\n      dup1\n      dup4\n      gt\n      tag_102\n      jumpi\n      dup3\n      swap1\n      sub\n      0x1f\n      and\n      dup3\n      add\n      swap2\n    tag_100:\n      pop\n      pop\n      pop\n      pop\n      pop\n      swap1\n      pop\n        /* \"contracts/ERC-721A_flattened.sol\":18748:18846  function name() public view virtual override returns (string memory) {... */\n      swap1\n      jump\t// out\n        /* \"contracts/ERC-721A_flattened.sol\":25069:25283  function getApproved(uint256 tokenId) public view virtual override returns (address) {... */\n    tag_36:\n        /* \"contracts/ERC-721A_flattened.sol\":25145:25152  address */\n      0x00\n        /* \"contracts/ERC-721A_flattened.sol\":25169:25185  _exists(tokenId) */\n      tag_104\n        /* \"contracts/ERC-721A_flattened.sol\":25177:25184  tokenId */\n      dup3\n        /* \"contracts/ERC-721A_flattened.sol\":25169:25176  _exists */\n      tag_105\n        /* \"contracts/ERC-721A_flattened.sol\":25169:25185  _exists(tokenId) */\n      jump\t// in\n    tag_104:\n        /* \"contracts/ERC-721A_flattened.sol\":25164:25228  if (!_exists(tokenId)) revert ApprovalQueryForNonexistentToken() */\n      tag_106\n      jumpi\n        /* \"contracts/ERC-721A_flattened.sol\":25194:25228  ApprovalQueryForNonexistentToken() */\n      mload(0x40)\n      0xcf4700e400000000000000000000000000000000000000000000000000000000\n      dup2\n      mstore\n      0x04\n      add\n      mload(0x40)\n      dup1\n      swap2\n      sub\n      swap1\n      revert\n        /* \"contracts/ERC-721A_flattened.sol\":25164:25228  if (!_exists(tokenId)) revert ApprovalQueryForNonexistentToken() */\n    tag_106:\n        /* \"contracts/ERC-721A_flattened.sol\":25246:25261  _tokenApprovals */\n      0x06\n        /* \"contracts/ERC-721A_flattened.sol\":25246:25270  _tokenApprovals[tokenId] */\n      0x00\n        /* \"contracts/ERC-721A_flattened.sol\":25262:25269  tokenId */\n      dup4\n        /* \"contracts/ERC-721A_flattened.sol\":25246:25270  _tokenApprovals[tokenId] */\n      dup2\n      mstore\n      0x20\n      add\n      swap1\n      dup2\n      mstore\n      0x20\n      add\n      0x00\n      keccak256\n        /* \"contracts/ERC-721A_flattened.sol\":25246:25276  _tokenApprovals[tokenId].value */\n      0x00\n      add\n      0x00\n      swap1\n      sload\n      swap1\n      0x0100\n      exp\n      swap1\n      div\n      0xffffffffffffffffffffffffffffffffffffffff\n      and\n        /* \"contracts/ERC-721A_flattened.sol\":25239:25276  return _tokenApprovals[tokenId].value */\n      swap1\n      pop\n        /* \"contracts/ERC-721A_flattened.sol\":25069:25283  function getApproved(uint256 tokenId) public view virtual override returns (address) {... */\n      swap2\n      swap1\n      pop\n      jump\t// out\n        /* \"contracts/ERC-721A_flattened.sol\":24521:24919  function approve(address to, uint256 tokenId) public payable virtual override {... */\n    tag_42:\n        /* \"contracts/ERC-721A_flattened.sol\":24609:24622  address owner */\n      0x00\n        /* \"contracts/ERC-721A_flattened.sol\":24625:24641  ownerOf(tokenId) */\n      tag_108\n        /* \"contracts/ERC-721A_flattened.sol\":24633:24640  tokenId */\n      dup3\n        /* \"contracts/ERC-721A_flattened.sol\":24625:24632  ownerOf */\n      tag_58\n        /* \"contracts/ERC-721A_flattened.sol\":24625:24641  ownerOf(tokenId) */\n      jump\t// in\n    tag_108:\n        /* \"contracts/ERC-721A_flattened.sol\":24609:24641  address owner = ownerOf(tokenId) */\n      swap1\n      pop\n        /* \"contracts/ERC-721A_flattened.sol\":24679:24684  owner */\n      dup1\n        /* \"contracts/ERC-721A_flattened.sol\":24656:24684  _msgSenderERC721A() != owner */\n      0xffffffffffffffffffffffffffffffffffffffff\n      and\n        /* \"contracts/ERC-721A_flattened.sol\":24656:24675  _msgSenderERC721A() */\n      tag_109\n        /* \"contracts/ERC-721A_flattened.sol\":24656:24673  _msgSenderERC721A */\n      tag_110\n        /* \"contracts/ERC-721A_flattened.sol\":24656:24675  _msgSenderERC721A() */\n      jump\t// in\n    tag_109:\n        /* \"contracts/ERC-721A_flattened.sol\":24656:24684  _msgSenderERC721A() != owner */\n      0xffffffffffffffffffffffffffffffffffffffff\n      and\n      eq\n        /* \"contracts/ERC-721A_flattened.sol\":24652:24824  if (_msgSenderERC721A() != owner)... */\n      tag_111\n      jumpi\n        /* \"contracts/ERC-721A_flattened.sol\":24703:24747  isApprovedForAll(owner, _msgSenderERC721A()) */\n      tag_112\n        /* \"contracts/ERC-721A_flattened.sol\":24720:24725  owner */\n      dup2\n        /* \"contracts/ERC-721A_flattened.sol\":24727:24746  _msgSenderERC721A() */\n      tag_113\n        /* \"contracts/ERC-721A_flattened.sol\":24727:24744  _msgSenderERC721A */\n      tag_110\n        /* \"contracts/ERC-721A_flattened.sol\":24727:24746  _msgSenderERC721A() */\n      jump\t// in\n    tag_113:\n        /* \"contracts/ERC-721A_flattened.sol\":24703:24719  isApprovedForAll */\n      tag_91\n        /* \"contracts/ERC-721A_flattened.sol\":24703:24747  isApprovedForAll(owner, _msgSenderERC721A()) */\n      jump\t// in\n    tag_112:\n        /* \"contracts/ERC-721A_flattened.sol\":24698:24824  if (!isApprovedForAll(owner, _msgSenderERC721A())) {... */\n      tag_114\n      jumpi\n        /* \"contracts/ERC-721A_flattened.sol\":24774:24809  ApprovalCallerNotOwnerNorApproved() */\n      mload(0x40)\n      0xcfb3b94200000000000000000000000000000000000000000000000000000000\n      dup2\n      mstore\n      0x04\n      add\n      mload(0x40)\n      dup1\n      swap2\n      sub\n      swap1\n      revert\n        /* \"contracts/ERC-721A_flattened.sol\":24698:24824  if (!isApprovedForAll(owner, _msgSenderERC721A())) {... */\n    tag_114:\n        /* \"contracts/ERC-721A_flattened.sol\":24652:24824  if (_msgSenderERC721A() != owner)... */\n    tag_111:\n        /* \"contracts/ERC-721A_flattened.sol\":24867:24869  to */\n      dup3\n        /* \"contracts/ERC-721A_flattened.sol\":24834:24849  _tokenApprovals */\n      0x06\n        /* \"contracts/ERC-721A_flattened.sol\":24834:24858  _tokenApprovals[tokenId] */\n      0x00\n        /* \"contracts/ERC-721A_flattened.sol\":24850:24857  tokenId */\n      dup5\n        /* \"contracts/ERC-721A_flattened.sol\":24834:24858  _tokenApprovals[tokenId] */\n      dup2\n      mstore\n      0x20\n      add\n      swap1\n      dup2\n      mstore\n      0x20\n      add\n      0x00\n      keccak256\n        /* \"contracts/ERC-721A_flattened.sol\":24834:24864  _tokenApprovals[tokenId].value */\n      0x00\n      add\n      0x00\n        /* \"contracts/ERC-721A_flattened.sol\":24834:24869  _tokenApprovals[tokenId].value = to */\n      0x0100\n      exp\n      dup2\n      sload\n      dup2\n      0xffffffffffffffffffffffffffffffffffffffff\n      mul\n      not\n      and\n      swap1\n      dup4\n      0xffffffffffffffffffffffffffffffffffffffff\n      and\n      mul\n      or\n      swap1\n      sstore\n      pop\n        /* \"contracts/ERC-721A_flattened.sol\":24904:24911  tokenId */\n      dup2\n        /* \"contracts/ERC-721A_flattened.sol\":24900:24902  to */\n      dup4\n        /* \"contracts/ERC-721A_flattened.sol\":24884:24912  Approval(owner, to, tokenId) */\n      0xffffffffffffffffffffffffffffffffffffffff\n      and\n        /* \"contracts/ERC-721A_flattened.sol\":24893:24898  owner */\n      dup3\n        /* \"contracts/ERC-721A_flattened.sol\":24884:24912  Approval(owner, to, tokenId) */\n      0xffffffffffffffffffffffffffffffffffffffff\n      and\n      0x8c5be1e5ebec7d5bd14f71427d1e84f3dd0314c0f7b2291e5b200ac8c7c3b925\n      mload(0x40)\n      mload(0x40)\n      dup1\n      swap2\n      sub\n      swap1\n      log4\n        /* \"contracts/ERC-721A_flattened.sol\":24599:24919  {... */\n      pop\n        /* \"contracts/ERC-721A_flattened.sol\":24521:24919  function approve(address to, uint256 tokenId) public payable virtual override {... */\n      pop\n      pop\n      jump\t// out\n        /* \"contracts/ERC-721A_flattened.sol\":14603:14920  function totalSupply() public view virtual override returns (uint256) {... */\n    tag_45:\n        /* \"contracts/ERC-721A_flattened.sol\":14664:14671  uint256 */\n      0x00\n        /* \"contracts/ERC-721A_flattened.sol\":14888:14903  _startTokenId() */\n      tag_116\n        /* \"contracts/ERC-721A_flattened.sol\":14888:14901  _startTokenId */\n      tag_117\n        /* \"contracts/ERC-721A_flattened.sol\":14888:14903  _startTokenId() */\n      jump\t// in\n    tag_116:\n        /* \"contracts/ERC-721A_flattened.sol\":14873:14885  _burnCounter */\n      sload(0x01)\n        /* \"contracts/ERC-721A_flattened.sol\":14857:14870  _currentIndex */\n      sload(0x00)\n        /* \"contracts/ERC-721A_flattened.sol\":14857:14885  _currentIndex - _burnCounter */\n      sub\n        /* \"contracts/ERC-721A_flattened.sol\":14857:14903  _currentIndex - _burnCounter - _startTokenId() */\n      sub\n        /* \"contracts/ERC-721A_flattened.sol\":14850:14903  return _currentIndex - _burnCounter - _startTokenId() */\n      swap1\n      pop\n        /* \"contracts/ERC-721A_flattened.sol\":14603:14920  function totalSupply() public view virtual override returns (uint256) {... */\n      swap1\n      jump\t// out\n        /* \"contracts/ERC-721A_flattened.sol\":28612:31376  function transferFrom(... */\n    tag_51:\n        /* \"contracts/ERC-721A_flattened.sol\":28749:28776  uint256 prevOwnershipPacked */\n      0x00\n        /* \"contracts/ERC-721A_flattened.sol\":28779:28806  _packedOwnershipOf(tokenId) */\n      tag_119\n        /* \"contracts/ERC-721A_flattened.sol\":28798:28805  tokenId */\n      dup3\n        /* \"contracts/ERC-721A_flattened.sol\":28779:28797  _packedOwnershipOf */\n      tag_120\n        /* \"contracts/ERC-721A_flattened.sol\":28779:28806  _packedOwnershipOf(tokenId) */\n      jump\t// in\n    tag_119:\n        /* \"contracts/ERC-721A_flattened.sol\":28749:28806  uint256 prevOwnershipPacked = _packedOwnershipOf(tokenId) */\n      swap1\n      pop\n        /* \"contracts/ERC-721A_flattened.sol\":28862:28866  from */\n      dup4\n        /* \"contracts/ERC-721A_flattened.sol\":28821:28866  address(uint160(prevOwnershipPacked)) != from */\n      0xffffffffffffffffffffffffffffffffffffffff\n      and\n        /* \"contracts/ERC-721A_flattened.sol\":28837:28856  prevOwnershipPacked */\n      dup2\n        /* \"contracts/ERC-721A_flattened.sol\":28821:28866  address(uint160(prevOwnershipPacked)) != from */\n      0xffffffffffffffffffffffffffffffffffffffff\n      and\n      eq\n        /* \"contracts/ERC-721A_flattened.sol\":28817:28903  if (address(uint160(prevOwnershipPacked)) != from) revert TransferFromIncorrectOwner() */\n      tag_121\n      jumpi\n        /* \"contracts/ERC-721A_flattened.sol\":28875:28903  TransferFromIncorrectOwner() */\n      mload(0x40)\n      0xa114810000000000000000000000000000000000000000000000000000000000\n      dup2\n      mstore\n      0x04\n      add\n      mload(0x40)\n      dup1\n      swap2\n      sub\n      swap1\n      revert\n        /* \"contracts/ERC-721A_flattened.sol\":28817:28903  if (address(uint160(prevOwnershipPacked)) != from) revert TransferFromIncorrectOwner() */\n    tag_121:\n        /* \"contracts/ERC-721A_flattened.sol\":28915:28942  uint256 approvedAddressSlot */\n      0x00\n        /* \"contracts/ERC-721A_flattened.sol\":28944:28967  address approvedAddress */\n      dup1\n        /* \"contracts/ERC-721A_flattened.sol\":28971:29006  _getApprovedSlotAndAddress(tokenId) */\n      tag_122\n        /* \"contracts/ERC-721A_flattened.sol\":28998:29005  tokenId */\n      dup5\n        /* \"contracts/ERC-721A_flattened.sol\":28971:28997  _getApprovedSlotAndAddress */\n      tag_123\n        /* \"contracts/ERC-721A_flattened.sol\":28971:29006  _getApprovedSlotAndAddress(tokenId) */\n      jump\t// in\n    tag_122:\n        /* \"contracts/ERC-721A_flattened.sol\":28914:29006  (uint256 approvedAddressSlot, address approvedAddress) = _getApprovedSlotAndAddress(tokenId) */\n      swap2\n      pop\n      swap2\n      pop\n        /* \"contracts/ERC-721A_flattened.sol\":29103:29171  _isSenderApprovedOrOwner(approvedAddress, from, _msgSenderERC721A()) */\n      tag_124\n        /* \"contracts/ERC-721A_flattened.sol\":29128:29143  approvedAddress */\n      dup2\n        /* \"contracts/ERC-721A_flattened.sol\":29145:29149  from */\n      dup8\n        /* \"contracts/ERC-721A_flattened.sol\":29151:29170  _msgSenderERC721A() */\n      tag_125\n        /* \"contracts/ERC-721A_flattened.sol\":29151:29168  _msgSenderERC721A */\n      tag_110\n        /* \"contracts/ERC-721A_flattened.sol\":29151:29170  _msgSenderERC721A() */\n      jump\t// in\n    tag_125:\n        /* \"contracts/ERC-721A_flattened.sol\":29103:29127  _isSenderApprovedOrOwner */\n      tag_126\n        /* \"contracts/ERC-721A_flattened.sol\":29103:29171  _isSenderApprovedOrOwner(approvedAddress, from, _msgSenderERC721A()) */\n      jump\t// in\n    tag_124:\n        /* \"contracts/ERC-721A_flattened.sol\":29098:29277  if (!_isSenderApprovedOrOwner(approvedAddress, from, _msgSenderERC721A()))... */\n      tag_127\n      jumpi\n        /* \"contracts/ERC-721A_flattened.sol\":29190:29233  isApprovedForAll(from, _msgSenderERC721A()) */\n      tag_128\n        /* \"contracts/ERC-721A_flattened.sol\":29207:29211  from */\n      dup7\n        /* \"contracts/ERC-721A_flattened.sol\":29213:29232  _msgSenderERC721A() */\n      tag_129\n        /* \"contracts/ERC-721A_flattened.sol\":29213:29230  _msgSenderERC721A */\n      tag_110\n        /* \"contracts/ERC-721A_flattened.sol\":29213:29232  _msgSenderERC721A() */\n      jump\t// in\n    tag_129:\n        /* \"contracts/ERC-721A_flattened.sol\":29190:29206  isApprovedForAll */\n      tag_91\n        /* \"contracts/ERC-721A_flattened.sol\":29190:29233  isApprovedForAll(from, _msgSenderERC721A()) */\n      jump\t// in\n    tag_128:\n        /* \"contracts/ERC-721A_flattened.sol\":29185:29277  if (!isApprovedForAll(from, _msgSenderERC721A())) revert TransferCallerNotOwnerNorApproved() */\n      tag_130\n      jumpi\n        /* \"contracts/ERC-721A_flattened.sol\":29242:29277  TransferCallerNotOwnerNorApproved() */\n      mload(0x40)\n      0x59c896be00000000000000000000000000000000000000000000000000000000\n      dup2\n      mstore\n      0x04\n      add\n      mload(0x40)\n      dup1\n      swap2\n      sub\n      swap1\n      revert\n        /* \"contracts/ERC-721A_flattened.sol\":29185:29277  if (!isApprovedForAll(from, _msgSenderERC721A())) revert TransferCallerNotOwnerNorApproved() */\n    tag_130:\n        /* \"contracts/ERC-721A_flattened.sol\":29098:29277  if (!_isSenderApprovedOrOwner(approvedAddress, from, _msgSenderERC721A()))... */\n    tag_127:\n        /* \"contracts/ERC-721A_flattened.sol\":29306:29307  0 */\n      0x00\n        /* \"contracts/ERC-721A_flattened.sol\":29292:29308  to == address(0) */\n      0xffffffffffffffffffffffffffffffffffffffff\n      and\n        /* \"contracts/ERC-721A_flattened.sol\":29292:29294  to */\n      dup6\n        /* \"contracts/ERC-721A_flattened.sol\":29292:29308  to == address(0) */\n      0xffffffffffffffffffffffffffffffffffffffff\n      and\n      sub\n        /* \"contracts/ERC-721A_flattened.sol\":29288:29340  if (to == address(0)) revert TransferToZeroAddress() */\n      tag_131\n      jumpi\n        /* \"contracts/ERC-721A_flattened.sol\":29317:29340  TransferToZeroAddress() */\n      mload(0x40)\n      0xea553b3400000000000000000000000000000000000000000000000000000000\n      dup2\n      mstore\n      0x04\n      add\n      mload(0x40)\n      dup1\n      swap2\n      sub\n      swap1\n      revert\n        /* \"contracts/ERC-721A_flattened.sol\":29288:29340  if (to == address(0)) revert TransferToZeroAddress() */\n    tag_131:\n        /* \"contracts/ERC-721A_flattened.sol\":29351:29394  _beforeTokenTransfers(from, to, tokenId, 1) */\n      tag_132\n        /* \"contracts/ERC-721A_flattened.sol\":29373:29377  from */\n      dup7\n        /* \"contracts/ERC-721A_flattened.sol\":29379:29381  to */\n      dup7\n        /* \"contracts/ERC-721A_flattened.sol\":29383:29390  tokenId */\n      dup7\n        /* \"contracts/ERC-721A_flattened.sol\":29392:29393  1 */\n      0x01\n        /* \"contracts/ERC-721A_flattened.sol\":29351:29372  _beforeTokenTransfers */\n      tag_133\n        /* \"contracts/ERC-721A_flattened.sol\":29351:29394  _beforeTokenTransfers(from, to, tokenId, 1) */\n      jump\t// in\n    tag_132:\n        /* \"contracts/ERC-721A_flattened.sol\":29483:29498  approvedAddress */\n      dup1\n        /* \"contracts/ERC-721A_flattened.sol\":29480:29637  if approvedAddress {... */\n      iszero\n      tag_134\n      jumpi\n        /* \"contracts/ERC-721A_flattened.sol\":29621:29622  0 */\n      0x00\n        /* \"contracts/ERC-721A_flattened.sol\":29600:29619  approvedAddressSlot */\n      dup3\n        /* \"contracts/ERC-721A_flattened.sol\":29593:29623  sstore(approvedAddressSlot, 0) */\n      sstore\n        /* \"contracts/ERC-721A_flattened.sol\":29480:29637  if approvedAddress {... */\n    tag_134:\n        /* \"contracts/ERC-721A_flattened.sol\":30009:30027  _packedAddressData */\n      0x05\n        /* \"contracts/ERC-721A_flattened.sol\":30009:30033  _packedAddressData[from] */\n      0x00\n        /* \"contracts/ERC-721A_flattened.sol\":30028:30032  from */\n      dup8\n        /* \"contracts/ERC-721A_flattened.sol\":30009:30033  _packedAddressData[from] */\n      0xffffffffffffffffffffffffffffffffffffffff\n      and\n      0xffffffffffffffffffffffffffffffffffffffff\n      and\n      dup2\n      mstore\n      0x20\n      add\n      swap1\n      dup2\n      mstore\n      0x20\n      add\n      0x00\n      keccak256\n      0x00\n        /* \"contracts/ERC-721A_flattened.sol\":30007:30033  --_packedAddressData[from] */\n      dup2\n      sload\n      0x01\n      swap1\n      sub\n      swap2\n      swap1\n      pop\n      dup2\n      swap1\n      sstore\n      pop\n        /* \"contracts/ERC-721A_flattened.sol\":30077:30095  _packedAddressData */\n      0x05\n        /* \"contracts/ERC-721A_flattened.sol\":30077:30099  _packedAddressData[to] */\n      0x00\n        /* \"contracts/ERC-721A_flattened.sol\":30096:30098  to */\n      dup7\n        /* \"contracts/ERC-721A_flattened.sol\":30077:30099  _packedAddressData[to] */\n      0xffffffffffffffffffffffffffffffffffffffff\n      and\n      0xffffffffffffffffffffffffffffffffffffffff\n      and\n      dup2\n      mstore\n      0x20\n      add\n      swap1\n      dup2\n      mstore\n      0x20\n      add\n      0x00\n      keccak256\n      0x00\n        /* \"contracts/ERC-721A_flattened.sol\":30075:30099  ++_packedAddressData[to] */\n      dup2\n      sload\n      0x01\n      add\n      swap2\n      swap1\n      pop\n      dup2\n      swap1\n      sstore\n      pop\n        /* \"contracts/ERC-721A_flattened.sol\":30392:30535  _packOwnershipData(... */\n      tag_135\n        /* \"contracts/ERC-721A_flattened.sol\":30428:30430  to */\n      dup6\n        /* \"contracts/ERC-721A_flattened.sol\":30476:30521  _nextExtraData(from, to, prevOwnershipPacked) */\n      tag_136\n        /* \"contracts/ERC-721A_flattened.sol\":30491:30495  from */\n      dup9\n        /* \"contracts/ERC-721A_flattened.sol\":30497:30499  to */\n      dup9\n        /* \"contracts/ERC-721A_flattened.sol\":30501:30520  prevOwnershipPacked */\n      dup8\n        /* \"contracts/ERC-721A_flattened.sol\":30476:30490  _nextExtraData */\n      tag_137\n        /* \"contracts/ERC-721A_flattened.sol\":30476:30521  _nextExtraData(from, to, prevOwnershipPacked) */\n      jump\t// in\n    tag_136:\n        /* \"contracts/ERC-721A_flattened.sol\":11101:11109  1 << 225 */\n      0x0200000000000000000000000000000000000000000000000000000000\n        /* \"contracts/ERC-721A_flattened.sol\":30448:30521  _BITMASK_NEXT_INITIALIZED | _nextExtraData(from, to, prevOwnershipPacked) */\n      or\n        /* \"contracts/ERC-721A_flattened.sol\":30392:30410  _packOwnershipData */\n      tag_138\n        /* \"contracts/ERC-721A_flattened.sol\":30392:30535  _packOwnershipData(... */\n      jump\t// in\n    tag_135:\n        /* \"contracts/ERC-721A_flattened.sol\":30363:30380  _packedOwnerships */\n      0x04\n        /* \"contracts/ERC-721A_flattened.sol\":30363:30389  _packedOwnerships[tokenId] */\n      0x00\n        /* \"contracts/ERC-721A_flattened.sol\":30381:30388  tokenId */\n      dup7\n        /* \"contracts/ERC-721A_flattened.sol\":30363:30389  _packedOwnerships[tokenId] */\n      dup2\n      mstore\n      0x20\n      add\n      swap1\n      dup2\n      mstore\n      0x20\n      add\n      0x00\n      keccak256\n        /* \"contracts/ERC-721A_flattened.sol\":30363:30535  _packedOwnerships[tokenId] = _packOwnershipData(... */\n      dup2\n      swap1\n      sstore\n      pop\n        /* \"contracts/ERC-721A_flattened.sol\":30703:30704  0 */\n      0x00\n        /* \"contracts/ERC-721A_flattened.sol\":11101:11109  1 << 225 */\n      0x0200000000000000000000000000000000000000000000000000000000\n        /* \"contracts/ERC-721A_flattened.sol\":30652:30671  prevOwnershipPacked */\n      dup5\n        /* \"contracts/ERC-721A_flattened.sol\":30652:30699  prevOwnershipPacked & _BITMASK_NEXT_INITIALIZED */\n      and\n        /* \"contracts/ERC-721A_flattened.sol\":30652:30704  prevOwnershipPacked & _BITMASK_NEXT_INITIALIZED == 0 */\n      sub\n        /* \"contracts/ERC-721A_flattened.sol\":30648:31265  if (prevOwnershipPacked & _BITMASK_NEXT_INITIALIZED == 0) {... */\n      tag_139\n      jumpi\n        /* \"contracts/ERC-721A_flattened.sol\":30724:30743  uint256 nextTokenId */\n      0x00\n        /* \"contracts/ERC-721A_flattened.sol\":30756:30757  1 */\n      0x01\n        /* \"contracts/ERC-721A_flattened.sol\":30746:30753  tokenId */\n      dup6\n        /* \"contracts/ERC-721A_flattened.sol\":30746:30757  tokenId + 1 */\n      add\n        /* \"contracts/ERC-721A_flattened.sol\":30724:30757  uint256 nextTokenId = tokenId + 1 */\n      swap1\n      pop\n        /* \"contracts/ERC-721A_flattened.sol\":30911:30912  0 */\n      0x00\n        /* \"contracts/ERC-721A_flattened.sol\":30877:30894  _packedOwnerships */\n      0x04\n        /* \"contracts/ERC-721A_flattened.sol\":30877:30907  _packedOwnerships[nextTokenId] */\n      0x00\n        /* \"contracts/ERC-721A_flattened.sol\":30895:30906  nextTokenId */\n      dup4\n        /* \"contracts/ERC-721A_flattened.sol\":30877:30907  _packedOwnerships[nextTokenId] */\n      dup2\n      mstore\n      0x20\n      add\n      swap1\n      dup2\n      mstore\n      0x20\n      add\n      0x00\n      keccak256\n      sload\n        /* \"contracts/ERC-721A_flattened.sol\":30877:30912  _packedOwnerships[nextTokenId] == 0 */\n      sub\n        /* \"contracts/ERC-721A_flattened.sol\":30873:31251  if (_packedOwnerships[nextTokenId] == 0) {... */\n      tag_140\n      jumpi\n        /* \"contracts/ERC-721A_flattened.sol\":31013:31026  _currentIndex */\n      sload(0x00)\n        /* \"contracts/ERC-721A_flattened.sol\":30998:31009  nextTokenId */\n      dup2\n        /* \"contracts/ERC-721A_flattened.sol\":30998:31026  nextTokenId != _currentIndex */\n      eq\n        /* \"contracts/ERC-721A_flattened.sol\":30994:31233  if (nextTokenId != _currentIndex) {... */\n      tag_141\n      jumpi\n        /* \"contracts/ERC-721A_flattened.sol\":31191:31210  prevOwnershipPacked */\n      dup4\n        /* \"contracts/ERC-721A_flattened.sol\":31158:31175  _packedOwnerships */\n      0x04\n        /* \"contracts/ERC-721A_flattened.sol\":31158:31188  _packedOwnerships[nextTokenId] */\n      0x00\n        /* \"contracts/ERC-721A_flattened.sol\":31176:31187  nextTokenId */\n      dup4\n        /* \"contracts/ERC-721A_flattened.sol\":31158:31188  _packedOwnerships[nextTokenId] */\n      dup2\n      mstore\n      0x20\n      add\n      swap1\n      dup2\n      mstore\n      0x20\n      add\n      0x00\n      keccak256\n        /* \"contracts/ERC-721A_flattened.sol\":31158:31210  _packedOwnerships[nextTokenId] = prevOwnershipPacked */\n      dup2\n      swap1\n      sstore\n      pop\n        /* \"contracts/ERC-721A_flattened.sol\":30994:31233  if (nextTokenId != _currentIndex) {... */\n    tag_141:\n        /* \"contracts/ERC-721A_flattened.sol\":30873:31251  if (_packedOwnerships[nextTokenId] == 0) {... */\n    tag_140:\n        /* \"contracts/ERC-721A_flattened.sol\":30706:31265  {... */\n      pop\n        /* \"contracts/ERC-721A_flattened.sol\":30648:31265  if (prevOwnershipPacked & _BITMASK_NEXT_INITIALIZED == 0) {... */\n    tag_139:\n        /* \"contracts/ERC-721A_flattened.sol\":31309:31316  tokenId */\n      dup4\n        /* \"contracts/ERC-721A_flattened.sol\":31305:31307  to */\n      dup6\n        /* \"contracts/ERC-721A_flattened.sol\":31290:31317  Transfer(from, to, tokenId) */\n      0xffffffffffffffffffffffffffffffffffffffff\n      and\n        /* \"contracts/ERC-721A_flattened.sol\":31299:31303  from */\n      dup8\n        /* \"contracts/ERC-721A_flattened.sol\":31290:31317  Transfer(from, to, tokenId) */\n      0xffffffffffffffffffffffffffffffffffffffff\n      and\n      0xddf252ad1be2c89b69c2b068fc378daa952ba7f163c4a11628f55a4df523b3ef\n      mload(0x40)\n      mload(0x40)\n      dup1\n      swap2\n      sub\n      swap1\n      log4\n        /* \"contracts/ERC-721A_flattened.sol\":31327:31369  _afterTokenTransfers(from, to, tokenId, 1) */\n      tag_142\n        /* \"contracts/ERC-721A_flattened.sol\":31348:31352  from */\n      dup7\n        /* \"contracts/ERC-721A_flattened.sol\":31354:31356  to */\n      dup7\n        /* \"contracts/ERC-721A_flattened.sol\":31358:31365  tokenId */\n      dup7\n        /* \"contracts/ERC-721A_flattened.sol\":31367:31368  1 */\n      0x01\n        /* \"contracts/ERC-721A_flattened.sol\":31327:31347  _afterTokenTransfers */\n      tag_143\n        /* \"contracts/ERC-721A_flattened.sol\":31327:31369  _afterTokenTransfers(from, to, tokenId, 1) */\n      jump\t// in\n    tag_142:\n        /* \"contracts/ERC-721A_flattened.sol\":28739:31376  {... */\n      pop\n      pop\n      pop\n        /* \"contracts/ERC-721A_flattened.sol\":28612:31376  function transferFrom(... */\n      pop\n      pop\n      pop\n      jump\t// out\n        /* \"contracts/ERC-721A_flattened.sol\":31467:31654  function safeTransferFrom(... */\n    tag_54:\n        /* \"contracts/ERC-721A_flattened.sol\":31608:31647  safeTransferFrom(from, to, tokenId, '') */\n      tag_145\n        /* \"contracts/ERC-721A_flattened.sol\":31625:31629  from */\n      dup4\n        /* \"contracts/ERC-721A_flattened.sol\":31631:31633  to */\n      dup4\n        /* \"contracts/ERC-721A_flattened.sol\":31635:31642  tokenId */\n      dup4\n        /* \"contracts/ERC-721A_flattened.sol\":31608:31647  safeTransferFrom(from, to, tokenId, '') */\n      mload(0x40)\n      dup1\n      0x20\n      add\n      0x40\n      mstore\n      dup1\n      0x00\n      dup2\n      mstore\n      pop\n        /* \"contracts/ERC-721A_flattened.sol\":31608:31624  safeTransferFrom */\n      tag_81\n        /* \"contracts/ERC-721A_flattened.sol\":31608:31647  safeTransferFrom(from, to, tokenId, '') */\n      jump\t// in\n    tag_145:\n        /* \"contracts/ERC-721A_flattened.sol\":31467:31654  function safeTransferFrom(... */\n      pop\n      pop\n      pop\n      jump\t// out\n        /* \"contracts/ERC-721A_flattened.sol\":20100:20250  function ownerOf(uint256 tokenId) public view virtual override returns (address) {... */\n    tag_58:\n        /* \"contracts/ERC-721A_flattened.sol\":20172:20179  address */\n      0x00\n        /* \"contracts/ERC-721A_flattened.sol\":20214:20241  _packedOwnershipOf(tokenId) */\n      tag_147\n        /* \"contracts/ERC-721A_flattened.sol\":20233:20240  tokenId */\n      dup3\n        /* \"contracts/ERC-721A_flattened.sol\":20214:20232  _packedOwnershipOf */\n      tag_120\n        /* \"contracts/ERC-721A_flattened.sol\":20214:20241  _packedOwnershipOf(tokenId) */\n      jump\t// in\n    tag_147:\n        /* \"contracts/ERC-721A_flattened.sol\":20191:20243  return address(uint160(_packedOwnershipOf(tokenId))) */\n      swap1\n      pop\n        /* \"contracts/ERC-721A_flattened.sol\":20100:20250  function ownerOf(uint256 tokenId) public view virtual override returns (address) {... */\n      swap2\n      swap1\n      pop\n      jump\t// out\n        /* \"contracts/ERC-721A_flattened.sol\":15754:15984  function balanceOf(address owner) public view virtual override returns (uint256) {... */\n    tag_64:\n        /* \"contracts/ERC-721A_flattened.sol\":15826:15833  uint256 */\n      0x00\n        /* \"contracts/ERC-721A_flattened.sol\":15866:15867  0 */\n      dup1\n        /* \"contracts/ERC-721A_flattened.sol\":15849:15868  owner == address(0) */\n      0xffffffffffffffffffffffffffffffffffffffff\n      and\n        /* \"contracts/ERC-721A_flattened.sol\":15849:15854  owner */\n      dup3\n        /* \"contracts/ERC-721A_flattened.sol\":15849:15868  owner == address(0) */\n      0xffffffffffffffffffffffffffffffffffffffff\n      and\n      sub\n        /* \"contracts/ERC-721A_flattened.sol\":15845:15905  if (owner == address(0)) revert BalanceQueryForZeroAddress() */\n      tag_149\n      jumpi\n        /* \"contracts/ERC-721A_flattened.sol\":15877:15905  BalanceQueryForZeroAddress() */\n      mload(0x40)\n      0x8f4eb60400000000000000000000000000000000000000000000000000000000\n      dup2\n      mstore\n      0x04\n      add\n      mload(0x40)\n      dup1\n      swap2\n      sub\n      swap1\n      revert\n        /* \"contracts/ERC-721A_flattened.sol\":15845:15905  if (owner == address(0)) revert BalanceQueryForZeroAddress() */\n    tag_149:\n        /* \"contracts/ERC-721A_flattened.sol\":10069:10082  (1 << 64) - 1 */\n      0xffffffffffffffff\n        /* \"contracts/ERC-721A_flattened.sol\":15922:15940  _packedAddressData */\n      0x05\n        /* \"contracts/ERC-721A_flattened.sol\":15922:15947  _packedAddressData[owner] */\n      0x00\n        /* \"contracts/ERC-721A_flattened.sol\":15941:15946  owner */\n      dup5\n        /* \"contracts/ERC-721A_flattened.sol\":15922:15947  _packedAddressData[owner] */\n      0xffffffffffffffffffffffffffffffffffffffff\n      and\n      0xffffffffffffffffffffffffffffffffffffffff\n      and\n      dup2\n      mstore\n      0x20\n      add\n      swap1\n      dup2\n      mstore\n      0x20\n      add\n      0x00\n      keccak256\n      sload\n        /* \"contracts/ERC-721A_flattened.sol\":15922:15977  _packedAddressData[owner] & _BITMASK_ADDRESS_DATA_ENTRY */\n      and\n        /* \"contracts/ERC-721A_flattened.sol\":15915:15977  return _packedAddressData[owner] & _BITMASK_ADDRESS_DATA_ENTRY */\n      swap1\n      pop\n        /* \"contracts/ERC-721A_flattened.sol\":15754:15984  function balanceOf(address owner) public view virtual override returns (uint256) {... */\n      swap2\n      swap1\n      pop\n      jump\t// out\n        /* \"contracts/ERC-721A_flattened.sol\":18917:19019  function symbol() public view virtual override returns (string memory) {... */\n    tag_68:\n        /* \"contracts/ERC-721A_flattened.sol\":18973:18986  string memory */\n      0x60\n        /* \"contracts/ERC-721A_flattened.sol\":19005:19012  _symbol */\n      0x03\n        /* \"contracts/ERC-721A_flattened.sol\":18998:19012  return _symbol */\n      dup1\n      sload\n      tag_151\n      swap1\n      tag_98\n      jump\t// in\n    tag_151:\n      dup1\n      0x1f\n      add\n      0x20\n      dup1\n      swap2\n      div\n      mul\n      0x20\n      add\n      mload(0x40)\n      swap1\n      dup2\n      add\n      0x40\n      mstore\n      dup1\n      swap3\n      swap2\n      swap1\n      dup2\n      dup2\n      mstore\n      0x20\n      add\n      dup3\n      dup1\n      sload\n      tag_152\n      swap1\n      tag_98\n      jump\t// in\n    tag_152:\n      dup1\n      iszero\n      tag_153\n      jumpi\n      dup1\n      0x1f\n      lt\n      tag_154\n      jumpi\n      0x0100\n      dup1\n      dup4\n      sload\n      div\n      mul\n      dup4\n      mstore\n      swap2\n      0x20\n      add\n      swap2\n      jump(tag_153)\n    tag_154:\n      dup3\n      add\n      swap2\n      swap1\n      0x00\n      mstore\n      keccak256(0x00, 0x20)\n      swap1\n    tag_155:\n      dup2\n      sload\n      dup2\n      mstore\n      swap1\n      0x01\n      add\n      swap1\n      0x20\n      add\n      dup1\n      dup4\n      gt\n      tag_155\n      jumpi\n      dup3\n      swap1\n      sub\n      0x1f\n      and\n      dup3\n      add\n      swap2\n    tag_153:\n      pop\n      pop\n      pop\n      pop\n      pop\n      swap1\n      pop\n        /* \"contracts/ERC-721A_flattened.sol\":18917:19019  function symbol() public view virtual override returns (string memory) {... */\n      swap1\n      jump\t// out\n        /* \"contracts/ERC-721A_flattened.sol\":50212:50386  function mint(uint256 quantity) external payable {... */\n    tag_72:\n        /* \"contracts/ERC-721A_flattened.sol\":50352:50379  _mint(msg.sender, quantity) */\n      tag_157\n        /* \"contracts/ERC-721A_flattened.sol\":50358:50368  msg.sender */\n      caller\n        /* \"contracts/ERC-721A_flattened.sol\":50370:50378  quantity */\n      dup3\n        /* \"contracts/ERC-721A_flattened.sol\":50352:50357  _mint */\n      tag_158\n        /* \"contracts/ERC-721A_flattened.sol\":50352:50379  _mint(msg.sender, quantity) */\n      jump\t// in\n    tag_157:\n        /* \"contracts/ERC-721A_flattened.sol\":50212:50386  function mint(uint256 quantity) external payable {... */\n      pop\n      jump\t// out\n        /* \"contracts/ERC-721A_flattened.sol\":25610:25841  function setApprovalForAll(address operator, bool approved) public virtual override {... */\n    tag_77:\n        /* \"contracts/ERC-721A_flattened.sol\":25756:25764  approved */\n      dup1\n        /* \"contracts/ERC-721A_flattened.sol\":25704:25722  _operatorApprovals */\n      0x07\n        /* \"contracts/ERC-721A_flattened.sol\":25704:25743  _operatorApprovals[_msgSenderERC721A()] */\n      0x00\n        /* \"contracts/ERC-721A_flattened.sol\":25723:25742  _msgSenderERC721A() */\n      tag_160\n        /* \"contracts/ERC-721A_flattened.sol\":25723:25740  _msgSenderERC721A */\n      tag_110\n        /* \"contracts/ERC-721A_flattened.sol\":25723:25742  _msgSenderERC721A() */\n      jump\t// in\n    tag_160:\n        /* \"contracts/ERC-721A_flattened.sol\":25704:25743  _operatorApprovals[_msgSenderERC721A()] */\n      0xffffffffffffffffffffffffffffffffffffffff\n      and\n      0xffffffffffffffffffffffffffffffffffffffff\n      and\n      dup2\n      mstore\n      0x20\n      add\n      swap1\n      dup2\n      mstore\n      0x20\n      add\n      0x00\n      keccak256\n        /* \"contracts/ERC-721A_flattened.sol\":25704:25753  _operatorApprovals[_msgSenderERC721A()][operator] */\n      0x00\n        /* \"contracts/ERC-721A_flattened.sol\":25744:25752  operator */\n      dup5\n        /* \"contracts/ERC-721A_flattened.sol\":25704:25753  _operatorApprovals[_msgSenderERC721A()][operator] */\n      0xffffffffffffffffffffffffffffffffffffffff\n      and\n      0xffffffffffffffffffffffffffffffffffffffff\n      and\n      dup2\n      mstore\n      0x20\n      add\n      swap1\n      dup2\n      mstore\n      0x20\n      add\n      0x00\n      keccak256\n      0x00\n        /* \"contracts/ERC-721A_flattened.sol\":25704:25764  _operatorApprovals[_msgSenderERC721A()][operator] = approved */\n      0x0100\n      exp\n      dup2\n      sload\n      dup2\n      0xff\n      mul\n      not\n      and\n      swap1\n      dup4\n      iszero\n      iszero\n      mul\n      or\n      swap1\n      sstore\n      pop\n        /* \"contracts/ERC-721A_flattened.sol\":25815:25823  operator */\n      dup2\n        /* \"contracts/ERC-721A_flattened.sol\":25779:25834  ApprovalForAll(_msgSenderERC721A(), operator, approved) */\n      0xffffffffffffffffffffffffffffffffffffffff\n      and\n        /* \"contracts/ERC-721A_flattened.sol\":25794:25813  _msgSenderERC721A() */\n      tag_161\n        /* \"contracts/ERC-721A_flattened.sol\":25794:25811  _msgSenderERC721A */\n      tag_110\n        /* \"contracts/ERC-721A_flattened.sol\":25794:25813  _msgSenderERC721A() */\n      jump\t// in\n    tag_161:\n        /* \"contracts/ERC-721A_flattened.sol\":25779:25834  ApprovalForAll(_msgSenderERC721A(), operator, approved) */\n      0xffffffffffffffffffffffffffffffffffffffff\n      and\n      0x17307eab39ab6107e8899845ad3d59bd9653f200f220920489ca2b5937696c31\n        /* \"contracts/ERC-721A_flattened.sol\":25825:25833  approved */\n      dup4\n        /* \"contracts/ERC-721A_flattened.sol\":25779:25834  ApprovalForAll(_msgSenderERC721A(), operator, approved) */\n      mload(0x40)\n      tag_162\n      swap2\n      swap1\n      tag_26\n      jump\t// in\n    tag_162:\n      mload(0x40)\n      dup1\n      swap2\n      sub\n      swap1\n      log3\n        /* \"contracts/ERC-721A_flattened.sol\":25610:25841  function setApprovalForAll(address operator, bool approved) public virtual override {... */\n      pop\n      pop\n      jump\t// out\n        /* \"contracts/ERC-721A_flattened.sol\":32235:32631  function safeTransferFrom(... */\n    tag_81:\n        /* \"contracts/ERC-721A_flattened.sol\":32404:32435  transferFrom(from, to, tokenId) */\n      tag_164\n        /* \"contracts/ERC-721A_flattened.sol\":32417:32421  from */\n      dup5\n        /* \"contracts/ERC-721A_flattened.sol\":32423:32425  to */\n      dup5\n        /* \"contracts/ERC-721A_flattened.sol\":32427:32434  tokenId */\n      dup5\n        /* \"contracts/ERC-721A_flattened.sol\":32404:32416  transferFrom */\n      tag_51\n        /* \"contracts/ERC-721A_flattened.sol\":32404:32435  transferFrom(from, to, tokenId) */\n      jump\t// in\n    tag_164:\n        /* \"contracts/ERC-721A_flattened.sol\":32467:32468  0 */\n      0x00\n        /* \"contracts/ERC-721A_flattened.sol\":32449:32451  to */\n      dup4\n        /* \"contracts/ERC-721A_flattened.sol\":32449:32463  to.code.length */\n      0xffffffffffffffffffffffffffffffffffffffff\n      and\n      extcodesize\n        /* \"contracts/ERC-721A_flattened.sol\":32449:32468  to.code.length != 0 */\n      eq\n        /* \"contracts/ERC-721A_flattened.sol\":32445:32625  if (to.code.length != 0)... */\n      tag_165\n      jumpi\n        /* \"contracts/ERC-721A_flattened.sol\":32487:32543  _checkContractOnERC721Received(from, to, tokenId, _data) */\n      tag_166\n        /* \"contracts/ERC-721A_flattened.sol\":32518:32522  from */\n      dup5\n        /* \"contracts/ERC-721A_flattened.sol\":32524:32526  to */\n      dup5\n        /* \"contracts/ERC-721A_flattened.sol\":32528:32535  tokenId */\n      dup5\n        /* \"contracts/ERC-721A_flattened.sol\":32537:32542  _data */\n      dup5\n        /* \"contracts/ERC-721A_flattened.sol\":32487:32517  _checkContractOnERC721Received */\n      tag_167\n        /* \"contracts/ERC-721A_flattened.sol\":32487:32543  _checkContractOnERC721Received(from, to, tokenId, _data) */\n      jump\t// in\n    tag_166:\n        /* \"contracts/ERC-721A_flattened.sol\":32482:32625  if (!_checkContractOnERC721Received(from, to, tokenId, _data)) {... */\n      tag_168\n      jumpi\n        /* \"contracts/ERC-721A_flattened.sol\":32570:32610  TransferToNonERC721ReceiverImplementer() */\n      mload(0x40)\n      0xd1a57ed600000000000000000000000000000000000000000000000000000000\n      dup2\n      mstore\n      0x04\n      add\n      mload(0x40)\n      dup1\n      swap2\n      sub\n      swap1\n      revert\n        /* \"contracts/ERC-721A_flattened.sol\":32482:32625  if (!_checkContractOnERC721Received(from, to, tokenId, _data)) {... */\n    tag_168:\n        /* \"contracts/ERC-721A_flattened.sol\":32445:32625  if (to.code.length != 0)... */\n    tag_165:\n        /* \"contracts/ERC-721A_flattened.sol\":32235:32631  function safeTransferFrom(... */\n      pop\n      pop\n      pop\n      pop\n      jump\t// out\n        /* \"contracts/ERC-721A_flattened.sol\":19120:19433  function tokenURI(uint256 tokenId) public view virtual override returns (string memory) {... */\n    tag_85:\n        /* \"contracts/ERC-721A_flattened.sol\":19193:19206  string memory */\n      0x60\n        /* \"contracts/ERC-721A_flattened.sol\":19223:19239  _exists(tokenId) */\n      tag_170\n        /* \"contracts/ERC-721A_flattened.sol\":19231:19238  tokenId */\n      dup3\n        /* \"contracts/ERC-721A_flattened.sol\":19223:19230  _exists */\n      tag_105\n        /* \"contracts/ERC-721A_flattened.sol\":19223:19239  _exists(tokenId) */\n      jump\t// in\n    tag_170:\n        /* \"contracts/ERC-721A_flattened.sol\":19218:19277  if (!_exists(tokenId)) revert URIQueryForNonexistentToken() */\n      tag_171\n      jumpi\n        /* \"contracts/ERC-721A_flattened.sol\":19248:19277  URIQueryForNonexistentToken() */\n      mload(0x40)\n      0xa14c4b5000000000000000000000000000000000000000000000000000000000\n      dup2\n      mstore\n      0x04\n      add\n      mload(0x40)\n      dup1\n      swap2\n      sub\n      swap1\n      revert\n        /* \"contracts/ERC-721A_flattened.sol\":19218:19277  if (!_exists(tokenId)) revert URIQueryForNonexistentToken() */\n    tag_171:\n        /* \"contracts/ERC-721A_flattened.sol\":19288:19309  string memory baseURI */\n      0x00\n        /* \"contracts/ERC-721A_flattened.sol\":19312:19322  _baseURI() */\n      tag_172\n        /* \"contracts/ERC-721A_flattened.sol\":19312:19320  _baseURI */\n      tag_173\n        /* \"contracts/ERC-721A_flattened.sol\":19312:19322  _baseURI() */\n      jump\t// in\n    tag_172:\n        /* \"contracts/ERC-721A_flattened.sol\":19288:19322  string memory baseURI = _baseURI() */\n      swap1\n      pop\n        /* \"contracts/ERC-721A_flattened.sol\":19364:19365  0 */\n      0x00\n        /* \"contracts/ERC-721A_flattened.sol\":19345:19352  baseURI */\n      dup2\n        /* \"contracts/ERC-721A_flattened.sol\":19339:19360  bytes(baseURI).length */\n      mload\n        /* \"contracts/ERC-721A_flattened.sol\":19339:19365  bytes(baseURI).length != 0 */\n      sub\n        /* \"contracts/ERC-721A_flattened.sol\":19339:19426  bytes(baseURI).length != 0 ? string(abi.encodePacked(baseURI, _toString(tokenId))) : '' */\n      tag_174\n      jumpi\n      mload(0x40)\n      dup1\n      0x20\n      add\n      0x40\n      mstore\n      dup1\n      0x00\n      dup2\n      mstore\n      pop\n      jump(tag_175)\n    tag_174:\n        /* \"contracts/ERC-721A_flattened.sol\":19392:19399  baseURI */\n      dup1\n        /* \"contracts/ERC-721A_flattened.sol\":19401:19419  _toString(tokenId) */\n      tag_176\n        /* \"contracts/ERC-721A_flattened.sol\":19411:19418  tokenId */\n      dup5\n        /* \"contracts/ERC-721A_flattened.sol\":19401:19410  _toString */\n      tag_177\n        /* \"contracts/ERC-721A_flattened.sol\":19401:19419  _toString(tokenId) */\n      jump\t// in\n    tag_176:\n        /* \"contracts/ERC-721A_flattened.sol\":19375:19420  abi.encodePacked(baseURI, _toString(tokenId)) */\n      add(0x20, mload(0x40))\n      tag_178\n      swap3\n      swap2\n      swap1\n      tag_179\n      jump\t// in\n    tag_178:\n      mload(0x40)\n      0x20\n      dup2\n      dup4\n      sub\n      sub\n      dup2\n      mstore\n      swap1\n      0x40\n      mstore\n        /* \"contracts/ERC-721A_flattened.sol\":19339:19426  bytes(baseURI).length != 0 ? string(abi.encodePacked(baseURI, _toString(tokenId))) : '' */\n    tag_175:\n        /* \"contracts/ERC-721A_flattened.sol\":19332:19426  return bytes(baseURI).length != 0 ? string(abi.encodePacked(baseURI, _toString(tokenId))) : '' */\n      swap2\n      pop\n      pop\n        /* \"contracts/ERC-721A_flattened.sol\":19120:19433  function tokenURI(uint256 tokenId) public view virtual override returns (string memory) {... */\n      swap2\n      swap1\n      pop\n      jump\t// out\n        /* \"contracts/ERC-721A_flattened.sol\":25991:26153  function isApprovedForAll(address owner, address operator) public view virtual override returns (bool) {... */\n    tag_91:\n        /* \"contracts/ERC-721A_flattened.sol\":26088:26092  bool */\n      0x00\n        /* \"contracts/ERC-721A_flattened.sol\":26111:26129  _operatorApprovals */\n      0x07\n        /* \"contracts/ERC-721A_flattened.sol\":26111:26136  _operatorApprovals[owner] */\n      0x00\n        /* \"contracts/ERC-721A_flattened.sol\":26130:26135  owner */\n      dup5\n        /* \"contracts/ERC-721A_flattened.sol\":26111:26136  _operatorApprovals[owner] */\n      0xffffffffffffffffffffffffffffffffffffffff\n      and\n      0xffffffffffffffffffffffffffffffffffffffff\n      and\n      dup2\n      mstore\n      0x20\n      add\n      swap1\n      dup2\n      mstore\n      0x20\n      add\n      0x00\n      keccak256\n        /* \"contracts/ERC-721A_flattened.sol\":26111:26146  _operatorApprovals[owner][operator] */\n      0x00\n        /* \"contracts/ERC-721A_flattened.sol\":26137:26145  operator */\n      dup4\n        /* \"contracts/ERC-721A_flattened.sol\":26111:26146  _operatorApprovals[owner][operator] */\n      0xffffffffffffffffffffffffffffffffffffffff\n      and\n      0xffffffffffffffffffffffffffffffffffffffff\n      and\n      dup2\n      mstore\n      0x20\n      add\n      swap1\n      dup2\n      mstore\n      0x20\n      add\n      0x00\n      keccak256\n      0x00\n      swap1\n      sload\n      swap1\n      0x0100\n      exp\n      swap1\n      div\n      0xff\n      and\n        /* \"contracts/ERC-721A_flattened.sol\":26104:26146  return _operatorApprovals[owner][operator] */\n      swap1\n      pop\n        /* \"contracts/ERC-721A_flattened.sol\":25991:26153  function isApprovedForAll(address owner, address operator) public view virtual override returns (bool) {... */\n      swap3\n      swap2\n      pop\n      pop\n      jump\t// out\n        /* \"contracts/ERC-721A_flattened.sol\":26402:26679  function _exists(uint256 tokenId) internal view virtual returns (bool) {... */\n    tag_105:\n        /* \"contracts/ERC-721A_flattened.sol\":26467:26471  bool */\n      0x00\n        /* \"contracts/ERC-721A_flattened.sol\":26521:26528  tokenId */\n      dup2\n        /* \"contracts/ERC-721A_flattened.sol\":26502:26517  _startTokenId() */\n      tag_182\n        /* \"contracts/ERC-721A_flattened.sol\":26502:26515  _startTokenId */\n      tag_117\n        /* \"contracts/ERC-721A_flattened.sol\":26502:26517  _startTokenId() */\n      jump\t// in\n    tag_182:\n        /* \"contracts/ERC-721A_flattened.sol\":26502:26528  _startTokenId() <= tokenId */\n      gt\n      iszero\n        /* \"contracts/ERC-721A_flattened.sol\":26502:26567  _startTokenId() <= tokenId &&... */\n      dup1\n      iszero\n      tag_183\n      jumpi\n      pop\n        /* \"contracts/ERC-721A_flattened.sol\":26554:26567  _currentIndex */\n      sload(0x00)\n        /* \"contracts/ERC-721A_flattened.sol\":26544:26551  tokenId */\n      dup3\n        /* \"contracts/ERC-721A_flattened.sol\":26544:26567  tokenId < _currentIndex */\n      lt\n        /* \"contracts/ERC-721A_flattened.sol\":26502:26567  _startTokenId() <= tokenId &&... */\n    tag_183:\n        /* \"contracts/ERC-721A_flattened.sol\":26502:26653  _startTokenId() <= tokenId &&... */\n      dup1\n      iszero\n      tag_184\n      jumpi\n      pop\n        /* \"contracts/ERC-721A_flattened.sol\":26652:26653  0 */\n      0x00\n        /* \"contracts/ERC-721A_flattened.sol\":10827:10835  1 << 224 */\n      0x0100000000000000000000000000000000000000000000000000000000\n        /* \"contracts/ERC-721A_flattened.sol\":26604:26621  _packedOwnerships */\n      0x04\n        /* \"contracts/ERC-721A_flattened.sol\":26604:26630  _packedOwnerships[tokenId] */\n      0x00\n        /* \"contracts/ERC-721A_flattened.sol\":26622:26629  tokenId */\n      dup6\n        /* \"contracts/ERC-721A_flattened.sol\":26604:26630  _packedOwnerships[tokenId] */\n      dup2\n      mstore\n      0x20\n      add\n      swap1\n      dup2\n      mstore\n      0x20\n      add\n      0x00\n      keccak256\n      sload\n        /* \"contracts/ERC-721A_flattened.sol\":26604:26648  _packedOwnerships[tokenId] & _BITMASK_BURNED */\n      and\n        /* \"contracts/ERC-721A_flattened.sol\":26604:26653  _packedOwnerships[tokenId] & _BITMASK_BURNED == 0 */\n      eq\n        /* \"contracts/ERC-721A_flattened.sol\":26502:26653  _startTokenId() <= tokenId &&... */\n    tag_184:\n        /* \"contracts/ERC-721A_flattened.sol\":26483:26653  return... */\n      swap1\n      pop\n        /* \"contracts/ERC-721A_flattened.sol\":26402:26679  function _exists(uint256 tokenId) internal view virtual returns (bool) {... */\n      swap2\n      swap1\n      pop\n      jump\t// out\n        /* \"contracts/ERC-721A_flattened.sol\":48146:48249  function _msgSenderERC721A() internal view virtual returns (address) {... */\n    tag_110:\n        /* \"contracts/ERC-721A_flattened.sol\":48206:48213  address */\n      0x00\n        /* \"contracts/ERC-721A_flattened.sol\":48232:48242  msg.sender */\n      caller\n        /* \"contracts/ERC-721A_flattened.sol\":48225:48242  return msg.sender */\n      swap1\n      pop\n        /* \"contracts/ERC-721A_flattened.sol\":48146:48249  function _msgSenderERC721A() internal view virtual returns (address) {... */\n      swap1\n      jump\t// out\n        /* \"contracts/ERC-721A_flattened.sol\":14135:14225  function _startTokenId() internal view virtual returns (uint256) {... */\n    tag_117:\n        /* \"contracts/ERC-721A_flattened.sol\":14191:14198  uint256 */\n      0x00\n        /* \"contracts/ERC-721A_flattened.sol\":14135:14225  function _startTokenId() internal view virtual returns (uint256) {... */\n      swap1\n      jump\t// out\n        /* \"contracts/ERC-721A_flattened.sol\":21224:22473  function _packedOwnershipOf(uint256 tokenId) private view returns (uint256) {... */\n    tag_120:\n        /* \"contracts/ERC-721A_flattened.sol\":21291:21298  uint256 */\n      0x00\n        /* \"contracts/ERC-721A_flattened.sol\":21310:21322  uint256 curr */\n      dup1\n        /* \"contracts/ERC-721A_flattened.sol\":21325:21332  tokenId */\n      dup3\n        /* \"contracts/ERC-721A_flattened.sol\":21310:21332  uint256 curr = tokenId */\n      swap1\n      pop\n        /* \"contracts/ERC-721A_flattened.sol\":21390:21394  curr */\n      dup1\n        /* \"contracts/ERC-721A_flattened.sol\":21371:21386  _startTokenId() */\n      tag_188\n        /* \"contracts/ERC-721A_flattened.sol\":21371:21384  _startTokenId */\n      tag_117\n        /* \"contracts/ERC-721A_flattened.sol\":21371:21386  _startTokenId() */\n      jump\t// in\n    tag_188:\n        /* \"contracts/ERC-721A_flattened.sol\":21371:21394  _startTokenId() <= curr */\n      gt\n        /* \"contracts/ERC-721A_flattened.sol\":21367:22409  if (_startTokenId() <= curr)... */\n      tag_189\n      jumpi\n        /* \"contracts/ERC-721A_flattened.sol\":21423:21436  _currentIndex */\n      sload(0x00)\n        /* \"contracts/ERC-721A_flattened.sol\":21416:21420  curr */\n      dup2\n        /* \"contracts/ERC-721A_flattened.sol\":21416:21436  curr < _currentIndex */\n      lt\n        /* \"contracts/ERC-721A_flattened.sol\":21412:22409  if (curr < _currentIndex) {... */\n      iszero\n      tag_190\n      jumpi\n        /* \"contracts/ERC-721A_flattened.sol\":21460:21474  uint256 packed */\n      0x00\n        /* \"contracts/ERC-721A_flattened.sol\":21477:21494  _packedOwnerships */\n      0x04\n        /* \"contracts/ERC-721A_flattened.sol\":21477:21500  _packedOwnerships[curr] */\n      0x00\n        /* \"contracts/ERC-721A_flattened.sol\":21495:21499  curr */\n      dup4\n        /* \"contracts/ERC-721A_flattened.sol\":21477:21500  _packedOwnerships[curr] */\n      dup2\n      mstore\n      0x20\n      add\n      swap1\n      dup2\n      mstore\n      0x20\n      add\n      0x00\n      keccak256\n      sload\n        /* \"contracts/ERC-721A_flattened.sol\":21460:21500  uint256 packed = _packedOwnerships[curr] */\n      swap1\n      pop\n        /* \"contracts/ERC-721A_flattened.sol\":21592:21593  0 */\n      0x00\n        /* \"contracts/ERC-721A_flattened.sol\":10827:10835  1 << 224 */\n      0x0100000000000000000000000000000000000000000000000000000000\n        /* \"contracts/ERC-721A_flattened.sol\":21564:21570  packed */\n      dup3\n        /* \"contracts/ERC-721A_flattened.sol\":21564:21588  packed & _BITMASK_BURNED */\n      and\n        /* \"contracts/ERC-721A_flattened.sol\":21564:21593  packed & _BITMASK_BURNED == 0 */\n      sub\n        /* \"contracts/ERC-721A_flattened.sol\":21560:22391  if (packed & _BITMASK_BURNED == 0) {... */\n      tag_191\n      jumpi\n        /* \"contracts/ERC-721A_flattened.sol\":22219:22330  while (packed == 0) {... */\n    tag_192:\n        /* \"contracts/ERC-721A_flattened.sol\":22236:22237  0 */\n      0x00\n        /* \"contracts/ERC-721A_flattened.sol\":22226:22232  packed */\n      dup2\n        /* \"contracts/ERC-721A_flattened.sol\":22226:22237  packed == 0 */\n      sub\n        /* \"contracts/ERC-721A_flattened.sol\":22219:22330  while (packed == 0) {... */\n      tag_193\n      jumpi\n        /* \"contracts/ERC-721A_flattened.sol\":22278:22295  _packedOwnerships */\n      0x04\n        /* \"contracts/ERC-721A_flattened.sol\":22278:22303  _packedOwnerships[--curr] */\n      0x00\n        /* \"contracts/ERC-721A_flattened.sol\":22296:22302  --curr */\n      dup4\n      0x01\n      swap1\n      sub\n      swap4\n      pop\n      dup4\n        /* \"contracts/ERC-721A_flattened.sol\":22278:22303  _packedOwnerships[--curr] */\n      dup2\n      mstore\n      0x20\n      add\n      swap1\n      dup2\n      mstore\n      0x20\n      add\n      0x00\n      keccak256\n      sload\n        /* \"contracts/ERC-721A_flattened.sol\":22269:22303  packed = _packedOwnerships[--curr] */\n      swap1\n      pop\n        /* \"contracts/ERC-721A_flattened.sol\":22219:22330  while (packed == 0) {... */\n      jump(tag_192)\n    tag_193:\n        /* \"contracts/ERC-721A_flattened.sol\":22362:22368  packed */\n      dup1\n        /* \"contracts/ERC-721A_flattened.sol\":22355:22368  return packed */\n      swap3\n      pop\n      pop\n      pop\n      jump(tag_187)\n        /* \"contracts/ERC-721A_flattened.sol\":21560:22391  if (packed & _BITMASK_BURNED == 0) {... */\n    tag_191:\n        /* \"contracts/ERC-721A_flattened.sol\":21438:22409  {... */\n      pop\n        /* \"contracts/ERC-721A_flattened.sol\":21412:22409  if (curr < _currentIndex) {... */\n    tag_190:\n        /* \"contracts/ERC-721A_flattened.sol\":21367:22409  if (_startTokenId() <= curr)... */\n    tag_189:\n        /* \"contracts/ERC-721A_flattened.sol\":22435:22466  OwnerQueryForNonexistentToken() */\n      mload(0x40)\n      0xdf2d9b4200000000000000000000000000000000000000000000000000000000\n      dup2\n      mstore\n      0x04\n      add\n      mload(0x40)\n      dup1\n      swap2\n      sub\n      swap1\n      revert\n        /* \"contracts/ERC-721A_flattened.sol\":21224:22473  function _packedOwnershipOf(uint256 tokenId) private view returns (uint256) {... */\n    tag_187:\n      swap2\n      swap1\n      pop\n      jump\t// out\n        /* \"contracts/ERC-721A_flattened.sol\":27537:28011  function _getApprovedSlotAndAddress(uint256 tokenId)... */\n    tag_123:\n        /* \"contracts/ERC-721A_flattened.sol\":27636:27663  uint256 approvedAddressSlot */\n      0x00\n        /* \"contracts/ERC-721A_flattened.sol\":27665:27688  address approvedAddress */\n      dup1\n        /* \"contracts/ERC-721A_flattened.sol\":27704:27742  TokenApprovalRef storage tokenApproval */\n      0x00\n        /* \"contracts/ERC-721A_flattened.sol\":27745:27760  _tokenApprovals */\n      0x06\n        /* \"contracts/ERC-721A_flattened.sol\":27745:27769  _tokenApprovals[tokenId] */\n      0x00\n        /* \"contracts/ERC-721A_flattened.sol\":27761:27768  tokenId */\n      dup6\n        /* \"contracts/ERC-721A_flattened.sol\":27745:27769  _tokenApprovals[tokenId] */\n      dup2\n      mstore\n      0x20\n      add\n      swap1\n      dup2\n      mstore\n      0x20\n      add\n      0x00\n      keccak256\n        /* \"contracts/ERC-721A_flattened.sol\":27704:27769  TokenApprovalRef storage tokenApproval = _tokenApprovals[tokenId] */\n      swap1\n      pop\n        /* \"contracts/ERC-721A_flattened.sol\":27919:27937  tokenApproval.slot */\n      dup1\n        /* \"contracts/ERC-721A_flattened.sol\":27896:27937  approvedAddressSlot := tokenApproval.slot */\n      swap3\n      pop\n        /* \"contracts/ERC-721A_flattened.sol\":27975:27994  approvedAddressSlot */\n      dup3\n        /* \"contracts/ERC-721A_flattened.sol\":27969:27995  sload(approvedAddressSlot) */\n      sload\n        /* \"contracts/ERC-721A_flattened.sol\":27950:27995  approvedAddress := sload(approvedAddressSlot) */\n      swap2\n      pop\n        /* \"contracts/ERC-721A_flattened.sol\":27882:28005  {... */\n      pop\n        /* \"contracts/ERC-721A_flattened.sol\":27537:28011  function _getApprovedSlotAndAddress(uint256 tokenId)... */\n      swap2\n      pop\n      swap2\n      jump\t// out\n        /* \"contracts/ERC-721A_flattened.sol\":26783:27429  function _isSenderApprovedOrOwner(... */\n    tag_126:\n        /* \"contracts/ERC-721A_flattened.sol\":26928:26939  bool result */\n      0x00\n        /* \"contracts/ERC-721A_flattened.sol\":27090:27106  _BITMASK_ADDRESS */\n      0xffffffffffffffffffffffffffffffffffffffff\n        /* \"contracts/ERC-721A_flattened.sol\":27083:27088  owner */\n      dup4\n        /* \"contracts/ERC-721A_flattened.sol\":27079:27107  and(owner, _BITMASK_ADDRESS) */\n      and\n        /* \"contracts/ERC-721A_flattened.sol\":27070:27107  owner := and(owner, _BITMASK_ADDRESS) */\n      swap3\n      pop\n        /* \"contracts/ERC-721A_flattened.sol\":27248:27264  _BITMASK_ADDRESS */\n      0xffffffffffffffffffffffffffffffffffffffff\n        /* \"contracts/ERC-721A_flattened.sol\":27237:27246  msgSender */\n      dup3\n        /* \"contracts/ERC-721A_flattened.sol\":27233:27265  and(msgSender, _BITMASK_ADDRESS) */\n      and\n        /* \"contracts/ERC-721A_flattened.sol\":27220:27265  msgSender := and(msgSender, _BITMASK_ADDRESS) */\n      swap2\n      pop\n        /* \"contracts/ERC-721A_flattened.sol\":27396:27411  approvedAddress */\n      dup4\n        /* \"contracts/ERC-721A_flattened.sol\":27385:27394  msgSender */\n      dup3\n        /* \"contracts/ERC-721A_flattened.sol\":27382:27412  eq(msgSender, approvedAddress) */\n      eq\n        /* \"contracts/ERC-721A_flattened.sol\":27374:27379  owner */\n      dup4\n        /* \"contracts/ERC-721A_flattened.sol\":27363:27372  msgSender */\n      dup4\n        /* \"contracts/ERC-721A_flattened.sol\":27360:27380  eq(msgSender, owner) */\n      eq\n        /* \"contracts/ERC-721A_flattened.sol\":27357:27413  or(eq(msgSender, owner), eq(msgSender, approvedAddress)) */\n      or\n        /* \"contracts/ERC-721A_flattened.sol\":27347:27413  result := or(eq(msgSender, owner), eq(msgSender, approvedAddress)) */\n      swap1\n      pop\n        /* \"contracts/ERC-721A_flattened.sol\":26783:27429  function _isSenderApprovedOrOwner(... */\n      swap4\n      swap3\n      pop\n      pop\n      pop\n      jump\t// out\n        /* \"contracts/ERC-721A_flattened.sol\":33275:33429  function _beforeTokenTransfers(... */\n    tag_133:\n      pop\n      pop\n      pop\n      pop\n      jump\t// out\n        /* \"contracts/ERC-721A_flattened.sol\":47473:47777  function _nextExtraData(... */\n    tag_137:\n        /* \"contracts/ERC-721A_flattened.sol\":47604:47611  uint256 */\n      0x00\n        /* \"contracts/ERC-721A_flattened.sol\":47623:47639  uint24 extraData */\n      dup1\n        /* \"contracts/ERC-721A_flattened.sol\":11222:11225  232 */\n      0xe8\n        /* \"contracts/ERC-721A_flattened.sol\":47649:47668  prevOwnershipPacked */\n      dup4\n        /* \"contracts/ERC-721A_flattened.sol\":47649:47690  prevOwnershipPacked >> _BITPOS_EXTRA_DATA */\n      swap1\n      shr\n        /* \"contracts/ERC-721A_flattened.sol\":47623:47691  uint24 extraData = uint24(prevOwnershipPacked >> _BITPOS_EXTRA_DATA) */\n      swap1\n      pop\n        /* \"contracts/ERC-721A_flattened.sol\":11222:11225  232 */\n      0xe8\n        /* \"contracts/ERC-721A_flattened.sol\":47716:47747  _extraData(from, to, extraData) */\n      tag_198\n        /* \"contracts/ERC-721A_flattened.sol\":47727:47731  from */\n      dup7\n        /* \"contracts/ERC-721A_flattened.sol\":47733:47735  to */\n      dup7\n        /* \"contracts/ERC-721A_flattened.sol\":47737:47746  extraData */\n      dup5\n        /* \"contracts/ERC-721A_flattened.sol\":47716:47726  _extraData */\n      tag_199\n        /* \"contracts/ERC-721A_flattened.sol\":47716:47747  _extraData(from, to, extraData) */\n      jump\t// in\n    tag_198:\n        /* \"contracts/ERC-721A_flattened.sol\":47708:47748  uint256(_extraData(from, to, extraData)) */\n      0xffffff\n      and\n        /* \"contracts/ERC-721A_flattened.sol\":47708:47770  uint256(_extraData(from, to, extraData)) << _BITPOS_EXTRA_DATA */\n      swap1\n      shl\n        /* \"contracts/ERC-721A_flattened.sol\":47701:47770  return uint256(_extraData(from, to, extraData)) << _BITPOS_EXTRA_DATA */\n      swap2\n      pop\n      pop\n        /* \"contracts/ERC-721A_flattened.sol\":47473:47777  function _nextExtraData(... */\n      swap4\n      swap3\n      pop\n      pop\n      pop\n      jump\t// out\n        /* \"contracts/ERC-721A_flattened.sol\":23006:23449  function _packOwnershipData(address owner, uint256 flags) private view returns (uint256 result) {... */\n    tag_138:\n        /* \"contracts/ERC-721A_flattened.sol\":23086:23100  uint256 result */\n      0x00\n        /* \"contracts/ERC-721A_flattened.sol\":23251:23267  _BITMASK_ADDRESS */\n      0xffffffffffffffffffffffffffffffffffffffff\n        /* \"contracts/ERC-721A_flattened.sol\":23244:23249  owner */\n      dup4\n        /* \"contracts/ERC-721A_flattened.sol\":23240:23268  and(owner, _BITMASK_ADDRESS) */\n      and\n        /* \"contracts/ERC-721A_flattened.sol\":23231:23268  owner := and(owner, _BITMASK_ADDRESS) */\n      swap3\n      pop\n        /* \"contracts/ERC-721A_flattened.sol\":23426:23431  flags */\n      dup2\n        /* \"contracts/ERC-721A_flattened.sol\":23412:23423  timestamp() */\n      timestamp\n        /* \"contracts/ERC-721A_flattened.sol\":23387:23410  _BITPOS_START_TIMESTAMP */\n      0xa0\n        /* \"contracts/ERC-721A_flattened.sol\":23383:23424  shl(_BITPOS_START_TIMESTAMP, timestamp()) */\n      shl\n        /* \"contracts/ERC-721A_flattened.sol\":23380:23432  or(shl(_BITPOS_START_TIMESTAMP, timestamp()), flags) */\n      or\n        /* \"contracts/ERC-721A_flattened.sol\":23373:23378  owner */\n      dup4\n        /* \"contracts/ERC-721A_flattened.sol\":23370:23433  or(owner, or(shl(_BITPOS_START_TIMESTAMP, timestamp()), flags)) */\n      or\n        /* \"contracts/ERC-721A_flattened.sol\":23360:23433  result := or(owner, or(shl(_BITPOS_START_TIMESTAMP, timestamp()), flags)) */\n      swap1\n      pop\n        /* \"contracts/ERC-721A_flattened.sol\":23006:23449  function _packOwnershipData(address owner, uint256 flags) private view returns (uint256 result) {... */\n      swap3\n      swap2\n      pop\n      pop\n      jump\t// out\n        /* \"contracts/ERC-721A_flattened.sol\":34076:34229  function _afterTokenTransfers(... */\n    tag_143:\n      pop\n      pop\n      pop\n      pop\n      jump\t// out\n        /* \"contracts/ERC-721A_flattened.sol\":35800:38702  function _mint(address to, uint256 quantity) internal virtual {... */\n    tag_158:\n        /* \"contracts/ERC-721A_flattened.sol\":35872:35892  uint256 startTokenId */\n      0x00\n        /* \"contracts/ERC-721A_flattened.sol\":35895:35908  _currentIndex */\n      dup1\n      sload\n        /* \"contracts/ERC-721A_flattened.sol\":35872:35908  uint256 startTokenId = _currentIndex */\n      swap1\n      pop\n        /* \"contracts/ERC-721A_flattened.sol\":35934:35935  0 */\n      0x00\n        /* \"contracts/ERC-721A_flattened.sol\":35922:35930  quantity */\n      dup3\n        /* \"contracts/ERC-721A_flattened.sol\":35922:35935  quantity == 0 */\n      sub\n        /* \"contracts/ERC-721A_flattened.sol\":35918:35962  if (quantity == 0) revert MintZeroQuantity() */\n      tag_203\n      jumpi\n        /* \"contracts/ERC-721A_flattened.sol\":35944:35962  MintZeroQuantity() */\n      mload(0x40)\n      0xb562e8dd00000000000000000000000000000000000000000000000000000000\n      dup2\n      mstore\n      0x04\n      add\n      mload(0x40)\n      dup1\n      swap2\n      sub\n      swap1\n      revert\n        /* \"contracts/ERC-721A_flattened.sol\":35918:35962  if (quantity == 0) revert MintZeroQuantity() */\n    tag_203:\n        /* \"contracts/ERC-721A_flattened.sol\":35973:36034  _beforeTokenTransfers(address(0), to, startTokenId, quantity) */\n      tag_204\n        /* \"contracts/ERC-721A_flattened.sol\":36003:36004  0 */\n      0x00\n        /* \"contracts/ERC-721A_flattened.sol\":36007:36009  to */\n      dup5\n        /* \"contracts/ERC-721A_flattened.sol\":36011:36023  startTokenId */\n      dup4\n        /* \"contracts/ERC-721A_flattened.sol\":36025:36033  quantity */\n      dup6\n        /* \"contracts/ERC-721A_flattened.sol\":35973:35994  _beforeTokenTransfers */\n      tag_133\n        /* \"contracts/ERC-721A_flattened.sol\":35973:36034  _beforeTokenTransfers(address(0), to, startTokenId, quantity) */\n      jump\t// in\n    tag_204:\n        /* \"contracts/ERC-721A_flattened.sol\":36506:36507  1 */\n      0x01\n        /* \"contracts/ERC-721A_flattened.sol\":10204:10206  64 */\n      0x40\n        /* \"contracts/ERC-721A_flattened.sol\":36476:36477  1 */\n      0x01\n        /* \"contracts/ERC-721A_flattened.sol\":36476:36502  1 << _BITPOS_NUMBER_MINTED */\n      swap1\n      shl\n        /* \"contracts/ERC-721A_flattened.sol\":36475:36507  (1 << _BITPOS_NUMBER_MINTED) | 1 */\n      or\n        /* \"contracts/ERC-721A_flattened.sol\":36463:36471  quantity */\n      dup3\n        /* \"contracts/ERC-721A_flattened.sol\":36463:36508  quantity * ((1 << _BITPOS_NUMBER_MINTED) | 1) */\n      mul\n        /* \"contracts/ERC-721A_flattened.sol\":36437:36455  _packedAddressData */\n      0x05\n        /* \"contracts/ERC-721A_flattened.sol\":36437:36459  _packedAddressData[to] */\n      0x00\n        /* \"contracts/ERC-721A_flattened.sol\":36456:36458  to */\n      dup6\n        /* \"contracts/ERC-721A_flattened.sol\":36437:36459  _packedAddressData[to] */\n      0xffffffffffffffffffffffffffffffffffffffff\n      and\n      0xffffffffffffffffffffffffffffffffffffffff\n      and\n      dup2\n      mstore\n      0x20\n      add\n      swap1\n      dup2\n      mstore\n      0x20\n      add\n      0x00\n      keccak256\n      0x00\n        /* \"contracts/ERC-721A_flattened.sol\":36437:36508  _packedAddressData[to] += quantity * ((1 << _BITPOS_NUMBER_MINTED) | 1) */\n      dup3\n      dup3\n      sload\n      add\n      swap3\n      pop\n      pop\n      dup2\n      swap1\n      sstore\n      pop\n        /* \"contracts/ERC-721A_flattened.sol\":36778:36914  _packOwnershipData(... */\n      tag_205\n        /* \"contracts/ERC-721A_flattened.sol\":36814:36816  to */\n      dup4\n        /* \"contracts/ERC-721A_flattened.sol\":36867:36900  _nextExtraData(address(0), to, 0) */\n      tag_206\n        /* \"contracts/ERC-721A_flattened.sol\":36890:36891  0 */\n      0x00\n        /* \"contracts/ERC-721A_flattened.sol\":36894:36896  to */\n      dup7\n        /* \"contracts/ERC-721A_flattened.sol\":36898:36899  0 */\n      0x00\n        /* \"contracts/ERC-721A_flattened.sol\":36867:36881  _nextExtraData */\n      tag_137\n        /* \"contracts/ERC-721A_flattened.sol\":36867:36900  _nextExtraData(address(0), to, 0) */\n      jump\t// in\n    tag_206:\n        /* \"contracts/ERC-721A_flattened.sol\":36834:36864  _nextInitializedFlag(quantity) */\n      tag_207\n        /* \"contracts/ERC-721A_flattened.sol\":36855:36863  quantity */\n      dup6\n        /* \"contracts/ERC-721A_flattened.sol\":36834:36854  _nextInitializedFlag */\n      tag_208\n        /* \"contracts/ERC-721A_flattened.sol\":36834:36864  _nextInitializedFlag(quantity) */\n      jump\t// in\n    tag_207:\n        /* \"contracts/ERC-721A_flattened.sol\":36834:36900  _nextInitializedFlag(quantity) | _nextExtraData(address(0), to, 0) */\n      or\n        /* \"contracts/ERC-721A_flattened.sol\":36778:36796  _packOwnershipData */\n      tag_138\n        /* \"contracts/ERC-721A_flattened.sol\":36778:36914  _packOwnershipData(... */\n      jump\t// in\n    tag_205:\n        /* \"contracts/ERC-721A_flattened.sol\":36744:36761  _packedOwnerships */\n      0x04\n        /* \"contracts/ERC-721A_flattened.sol\":36744:36775  _packedOwnerships[startTokenId] */\n      0x00\n        /* \"contracts/ERC-721A_flattened.sol\":36762:36774  startTokenId */\n      dup4\n        /* \"contracts/ERC-721A_flattened.sol\":36744:36775  _packedOwnerships[startTokenId] */\n      dup2\n      mstore\n      0x20\n      add\n      swap1\n      dup2\n      mstore\n      0x20\n      add\n      0x00\n      keccak256\n        /* \"contracts/ERC-721A_flattened.sol\":36744:36914  _packedOwnerships[startTokenId] = _packOwnershipData(... */\n      dup2\n      swap1\n      sstore\n      pop\n        /* \"contracts/ERC-721A_flattened.sol\":36929:36945  uint256 toMasked */\n      0x00\n        /* \"contracts/ERC-721A_flattened.sol\":36959:36970  uint256 end */\n      dup1\n        /* \"contracts/ERC-721A_flattened.sol\":36988:36996  quantity */\n      dup4\n        /* \"contracts/ERC-721A_flattened.sol\":36973:36985  startTokenId */\n      dup4\n        /* \"contracts/ERC-721A_flattened.sol\":36973:36996  startTokenId + quantity */\n      add\n        /* \"contracts/ERC-721A_flattened.sol\":36959:36996  uint256 end = startTokenId + quantity */\n      swap1\n      pop\n        /* \"contracts/ERC-721A_flattened.sol\":37501:37517  _BITMASK_ADDRESS */\n      0xffffffffffffffffffffffffffffffffffffffff\n        /* \"contracts/ERC-721A_flattened.sol\":37497:37499  to */\n      dup6\n        /* \"contracts/ERC-721A_flattened.sol\":37493:37518  and(to, _BITMASK_ADDRESS) */\n      and\n        /* \"contracts/ERC-721A_flattened.sol\":37481:37518  toMasked := and(to, _BITMASK_ADDRESS) */\n      swap2\n      pop\n        /* \"contracts/ERC-721A_flattened.sol\":37865:37877  startTokenId */\n      dup3\n        /* \"contracts/ERC-721A_flattened.sol\":37826:37834  toMasked */\n      dup3\n        /* \"contracts/ERC-721A_flattened.sol\":37786:37787  0 */\n      0x00\n        /* \"contracts/ERC-721A_flattened.sol\":37725:37750  _TRANSFER_EVENT_SIGNATURE */\n      0xddf252ad1be2c89b69c2b068fc378daa952ba7f163c4a11628f55a4df523b3ef\n        /* \"contracts/ERC-721A_flattened.sol\":37667:37668  0 */\n      0x00\n        /* \"contracts/ERC-721A_flattened.sol\":37607:37608  0 */\n      dup1\n        /* \"contracts/ERC-721A_flattened.sol\":37581:37909  log4(... */\n      log4\n        /* \"contracts/ERC-721A_flattened.sol\":38229:38230  1 */\n      0x01\n        /* \"contracts/ERC-721A_flattened.sol\":38215:38227  startTokenId */\n      dup4\n        /* \"contracts/ERC-721A_flattened.sol\":38211:38231  add(startTokenId, 1) */\n      add\n        /* \"contracts/ERC-721A_flattened.sol\":38170:38509  for {... */\n    tag_209:\n        /* \"contracts/ERC-721A_flattened.sol\":38269:38272  end */\n      dup2\n        /* \"contracts/ERC-721A_flattened.sol\":38260:38267  tokenId */\n      dup2\n        /* \"contracts/ERC-721A_flattened.sol\":38257:38273  eq(tokenId, end) */\n      eq\n        /* \"contracts/ERC-721A_flattened.sol\":38170:38509  for {... */\n      tag_211\n      jumpi\n        /* \"contracts/ERC-721A_flattened.sol\":38483:38490  tokenId */\n      dup1\n        /* \"contracts/ERC-721A_flattened.sol\":38473:38481  toMasked */\n      dup4\n        /* \"contracts/ERC-721A_flattened.sol\":38470:38471  0 */\n      0x00\n        /* \"contracts/ERC-721A_flattened.sol\":38443:38468  _TRANSFER_EVENT_SIGNATURE */\n      0xddf252ad1be2c89b69c2b068fc378daa952ba7f163c4a11628f55a4df523b3ef\n        /* \"contracts/ERC-721A_flattened.sol\":38440:38441  0 */\n      0x00\n        /* \"contracts/ERC-721A_flattened.sol\":38437:38438  0 */\n      dup1\n        /* \"contracts/ERC-721A_flattened.sol\":38432:38491  log4(0, 0, _TRANSFER_EVENT_SIGNATURE, 0, toMasked, tokenId) */\n      log4\n        /* \"contracts/ERC-721A_flattened.sol\":38321:38322  1 */\n      0x01\n        /* \"contracts/ERC-721A_flattened.sol\":38312:38319  tokenId */\n      dup2\n        /* \"contracts/ERC-721A_flattened.sol\":38308:38323  add(tokenId, 1) */\n      add\n        /* \"contracts/ERC-721A_flattened.sol\":38297:38323  tokenId := add(tokenId, 1) */\n      swap1\n      pop\n        /* \"contracts/ERC-721A_flattened.sol\":38170:38509  for {... */\n      jump(tag_209)\n    tag_211:\n        /* \"contracts/ERC-721A_flattened.sol\":38174:38249  {... */\n      pop\n        /* \"contracts/ERC-721A_flattened.sol\":38552:38553  0 */\n      0x00\n        /* \"contracts/ERC-721A_flattened.sol\":38540:38548  toMasked */\n      dup3\n        /* \"contracts/ERC-721A_flattened.sol\":38540:38553  toMasked == 0 */\n      sub\n        /* \"contracts/ERC-721A_flattened.sol\":38536:38581  if (toMasked == 0) revert MintToZeroAddress() */\n      tag_212\n      jumpi\n        /* \"contracts/ERC-721A_flattened.sol\":38562:38581  MintToZeroAddress() */\n      mload(0x40)\n      0x2e07630000000000000000000000000000000000000000000000000000000000\n      dup2\n      mstore\n      0x04\n      add\n      mload(0x40)\n      dup1\n      swap2\n      sub\n      swap1\n      revert\n        /* \"contracts/ERC-721A_flattened.sol\":38536:38581  if (toMasked == 0) revert MintToZeroAddress() */\n    tag_212:\n        /* \"contracts/ERC-721A_flattened.sol\":38612:38615  end */\n      dup1\n        /* \"contracts/ERC-721A_flattened.sol\":38596:38609  _currentIndex */\n      0x00\n        /* \"contracts/ERC-721A_flattened.sol\":38596:38615  _currentIndex = end */\n      dup2\n      swap1\n      sstore\n      pop\n        /* \"contracts/ERC-721A_flattened.sol\":36217:38626  unchecked {... */\n      pop\n      pop\n        /* \"contracts/ERC-721A_flattened.sol\":38635:38695  _afterTokenTransfers(address(0), to, startTokenId, quantity) */\n      tag_213\n        /* \"contracts/ERC-721A_flattened.sol\":38664:38665  0 */\n      0x00\n        /* \"contracts/ERC-721A_flattened.sol\":38668:38670  to */\n      dup5\n        /* \"contracts/ERC-721A_flattened.sol\":38672:38684  startTokenId */\n      dup4\n        /* \"contracts/ERC-721A_flattened.sol\":38686:38694  quantity */\n      dup6\n        /* \"contracts/ERC-721A_flattened.sol\":38635:38655  _afterTokenTransfers */\n      tag_143\n        /* \"contracts/ERC-721A_flattened.sol\":38635:38695  _afterTokenTransfers(address(0), to, startTokenId, quantity) */\n      jump\t// in\n    tag_213:\n        /* \"contracts/ERC-721A_flattened.sol\":35862:38702  {... */\n      pop\n        /* \"contracts/ERC-721A_flattened.sol\":35800:38702  function _mint(address to, uint256 quantity) internal virtual {... */\n      pop\n      pop\n      jump\t// out\n        /* \"contracts/ERC-721A_flattened.sol\":34657:35354  function _checkContractOnERC721Received(... */\n    tag_167:\n        /* \"contracts/ERC-721A_flattened.sol\":34815:34819  bool */\n      0x00\n        /* \"contracts/ERC-721A_flattened.sol\":34860:34862  to */\n      dup4\n        /* \"contracts/ERC-721A_flattened.sol\":34835:34880  ERC721A__IERC721Receiver(to).onERC721Received */\n      0xffffffffffffffffffffffffffffffffffffffff\n      and\n      0x150b7a02\n        /* \"contracts/ERC-721A_flattened.sol\":34881:34900  _msgSenderERC721A() */\n      tag_215\n        /* \"contracts/ERC-721A_flattened.sol\":34881:34898  _msgSenderERC721A */\n      tag_110\n        /* \"contracts/ERC-721A_flattened.sol\":34881:34900  _msgSenderERC721A() */\n      jump\t// in\n    tag_215:\n        /* \"contracts/ERC-721A_flattened.sol\":34902:34906  from */\n      dup8\n        /* \"contracts/ERC-721A_flattened.sol\":34908:34915  tokenId */\n      dup7\n        /* \"contracts/ERC-721A_flattened.sol\":34917:34922  _data */\n      dup7\n        /* \"contracts/ERC-721A_flattened.sol\":34835:34923  ERC721A__IERC721Receiver(to).onERC721Received(_msgSenderERC721A(), from, tokenId, _data) */\n      mload(0x40)\n      dup6\n      0xffffffff\n      and\n      0xe0\n      shl\n      dup2\n      mstore\n      0x04\n      add\n      tag_216\n      swap5\n      swap4\n      swap3\n      swap2\n      swap1\n      tag_217\n      jump\t// in\n    tag_216:\n      0x20\n      mload(0x40)\n      dup1\n      dup4\n      sub\n      dup2\n      0x00\n      dup8\n      gas\n      call\n      swap3\n      pop\n      pop\n      pop\n      dup1\n      iszero\n      tag_218\n      jumpi\n      pop\n      mload(0x40)\n      returndatasize\n      not(0x1f)\n      0x1f\n      dup3\n      add\n      and\n      dup3\n      add\n      dup1\n      0x40\n      mstore\n      pop\n      dup2\n      add\n      swap1\n      tag_219\n      swap2\n      swap1\n      tag_220\n      jump\t// in\n    tag_219:\n      0x01\n    tag_218:\n        /* \"contracts/ERC-721A_flattened.sol\":34831:35348  try ERC721A__IERC721Receiver(to).onERC721Received(_msgSenderERC721A(), from, tokenId, _data) returns (... */\n      tag_221\n      jumpi\n      returndatasize\n      dup1\n      0x00\n      dup2\n      eq\n      tag_226\n      jumpi\n      mload(0x40)\n      swap2\n      pop\n      and(add(returndatasize, 0x3f), not(0x1f))\n      dup3\n      add\n      0x40\n      mstore\n      returndatasize\n      dup3\n      mstore\n      returndatasize\n      0x00\n      0x20\n      dup5\n      add\n      returndatacopy\n      jump(tag_225)\n    tag_226:\n      0x60\n      swap2\n      pop\n    tag_225:\n      pop\n        /* \"contracts/ERC-721A_flattened.sol\":35130:35131  0 */\n      0x00\n        /* \"contracts/ERC-721A_flattened.sol\":35113:35119  reason */\n      dup2\n        /* \"contracts/ERC-721A_flattened.sol\":35113:35126  reason.length */\n      mload\n        /* \"contracts/ERC-721A_flattened.sol\":35113:35131  reason.length == 0 */\n      sub\n        /* \"contracts/ERC-721A_flattened.sol\":35109:35338  if (reason.length == 0) {... */\n      tag_227\n      jumpi\n        /* \"contracts/ERC-721A_flattened.sol\":35158:35198  TransferToNonERC721ReceiverImplementer() */\n      mload(0x40)\n      0xd1a57ed600000000000000000000000000000000000000000000000000000000\n      dup2\n      mstore\n      0x04\n      add\n      mload(0x40)\n      dup1\n      swap2\n      sub\n      swap1\n      revert\n        /* \"contracts/ERC-721A_flattened.sol\":35109:35338  if (reason.length == 0) {... */\n    tag_227:\n        /* \"contracts/ERC-721A_flattened.sol\":35298:35304  reason */\n      dup1\n        /* \"contracts/ERC-721A_flattened.sol\":35292:35305  mload(reason) */\n      mload\n        /* \"contracts/ERC-721A_flattened.sol\":35283:35289  reason */\n      dup2\n        /* \"contracts/ERC-721A_flattened.sol\":35279:35281  32 */\n      0x20\n        /* \"contracts/ERC-721A_flattened.sol\":35275:35290  add(32, reason) */\n      add\n        /* \"contracts/ERC-721A_flattened.sol\":35268:35306  revert(add(32, reason), mload(reason)) */\n      revert\n        /* \"contracts/ERC-721A_flattened.sol\":34831:35348  try ERC721A__IERC721Receiver(to).onERC721Received(_msgSenderERC721A(), from, tokenId, _data) returns (... */\n    tag_221:\n        /* \"contracts/ERC-721A_flattened.sol\":35001:35055  ERC721A__IERC721Receiver(to).onERC721Received.selector */\n      shl(0xe0, 0x150b7a02)\n        /* \"contracts/ERC-721A_flattened.sol\":34991:35055  retval == ERC721A__IERC721Receiver(to).onERC721Received.selector */\n      not(0xffffffffffffffffffffffffffffffffffffffffffffffffffffffff)\n      and\n        /* \"contracts/ERC-721A_flattened.sol\":34991:34997  retval */\n      dup2\n        /* \"contracts/ERC-721A_flattened.sol\":34991:35055  retval == ERC721A__IERC721Receiver(to).onERC721Received.selector */\n      not(0xffffffffffffffffffffffffffffffffffffffffffffffffffffffff)\n      and\n      eq\n        /* \"contracts/ERC-721A_flattened.sol\":34984:35055  return retval == ERC721A__IERC721Receiver(to).onERC721Received.selector */\n      swap2\n      pop\n      pop\n        /* \"contracts/ERC-721A_flattened.sol\":34657:35354  function _checkContractOnERC721Received(... */\n      swap5\n      swap4\n      pop\n      pop\n      pop\n      pop\n      jump\t// out\n        /* \"contracts/ERC-721A_flattened.sol\":19678:19770  function _baseURI() internal view virtual returns (string memory) {... */\n    tag_173:\n        /* \"contracts/ERC-721A_flattened.sol\":19729:19742  string memory */\n      0x60\n        /* \"contracts/ERC-721A_flattened.sol\":19754:19763  return '' */\n      mload(0x40)\n      dup1\n      0x20\n      add\n      0x40\n      mstore\n      dup1\n      0x00\n      dup2\n      mstore\n      pop\n      swap1\n      pop\n        /* \"contracts/ERC-721A_flattened.sol\":19678:19770  function _baseURI() internal view virtual returns (string memory) {... */\n      swap1\n      jump\t// out\n        /* \"contracts/ERC-721A_flattened.sol\":48346:50054  function _toString(uint256 value) internal pure virtual returns (string memory str) {... */\n    tag_177:\n        /* \"contracts/ERC-721A_flattened.sol\":48411:48428  string memory str */\n      0x60\n        /* \"contracts/ERC-721A_flattened.sol\":48839:48843  0xa0 */\n      0xa0\n        /* \"contracts/ERC-721A_flattened.sol\":48832:48836  0x40 */\n      0x40\n        /* \"contracts/ERC-721A_flattened.sol\":48826:48837  mload(0x40) */\n      mload\n        /* \"contracts/ERC-721A_flattened.sol\":48822:48844  add(mload(0x40), 0xa0) */\n      add\n        /* \"contracts/ERC-721A_flattened.sol\":48929:48930  m */\n      dup1\n        /* \"contracts/ERC-721A_flattened.sol\":48923:48927  0x40 */\n      0x40\n        /* \"contracts/ERC-721A_flattened.sol\":48916:48931  mstore(0x40, m) */\n      mstore\n        /* \"contracts/ERC-721A_flattened.sol\":49002:49006  0x20 */\n      0x20\n        /* \"contracts/ERC-721A_flattened.sol\":48999:49000  m */\n      dup2\n        /* \"contracts/ERC-721A_flattened.sol\":48995:49007  sub(m, 0x20) */\n      sub\n        /* \"contracts/ERC-721A_flattened.sol\":48988:49007  str := sub(m, 0x20) */\n      swap2\n      pop\n        /* \"contracts/ERC-721A_flattened.sol\":49082:49083  0 */\n      0x00\n        /* \"contracts/ERC-721A_flattened.sol\":49077:49080  str */\n      dup3\n        /* \"contracts/ERC-721A_flattened.sol\":49070:49084  mstore(str, 0) */\n      mstore\n        /* \"contracts/ERC-721A_flattened.sol\":49183:49186  str */\n      dup2\n        /* \"contracts/ERC-721A_flattened.sol\":49417:49422  value */\n      dup4\n        /* \"contracts/ERC-721A_flattened.sol\":49399:49818  for { let temp := value } 1 {} {... */\n    tag_232:\n        /* \"contracts/ERC-721A_flattened.sol\":49425:49426  1 */\n      0x01\n        /* \"contracts/ERC-721A_flattened.sol\":49399:49818  for { let temp := value } 1 {} {... */\n      iszero\n      tag_234\n      jumpi\n        /* \"contracts/ERC-721A_flattened.sol\":49464:49465  1 */\n      0x01\n        /* \"contracts/ERC-721A_flattened.sol\":49459:49462  str */\n      dup5\n        /* \"contracts/ERC-721A_flattened.sol\":49455:49466  sub(str, 1) */\n      sub\n        /* \"contracts/ERC-721A_flattened.sol\":49448:49466  str := sub(str, 1) */\n      swap4\n      pop\n        /* \"contracts/ERC-721A_flattened.sol\":49632:49634  10 */\n      0x0a\n        /* \"contracts/ERC-721A_flattened.sol\":49626:49630  temp */\n      dup2\n        /* \"contracts/ERC-721A_flattened.sol\":49622:49635  mod(temp, 10) */\n      mod\n        /* \"contracts/ERC-721A_flattened.sol\":49618:49620  48 */\n      0x30\n        /* \"contracts/ERC-721A_flattened.sol\":49614:49636  add(48, mod(temp, 10)) */\n      add\n        /* \"contracts/ERC-721A_flattened.sol\":49609:49612  str */\n      dup5\n        /* \"contracts/ERC-721A_flattened.sol\":49601:49637  mstore8(str, add(48, mod(temp, 10))) */\n      mstore8\n        /* \"contracts/ERC-721A_flattened.sol\":49724:49726  10 */\n      0x0a\n        /* \"contracts/ERC-721A_flattened.sol\":49718:49722  temp */\n      dup2\n        /* \"contracts/ERC-721A_flattened.sol\":49714:49727  div(temp, 10) */\n      div\n        /* \"contracts/ERC-721A_flattened.sol\":49706:49727  temp := div(temp, 10) */\n      swap1\n      pop\n        /* \"contracts/ERC-721A_flattened.sol\":49789:49793  temp */\n      dup1\n        /* \"contracts/ERC-721A_flattened.sol\":49399:49818  for { let temp := value } 1 {} {... */\n      tag_232\n        /* \"contracts/ERC-721A_flattened.sol\":49779:49804  if iszero(temp) { break } */\n      jumpi\n        /* \"contracts/ERC-721A_flattened.sol\":49399:49818  for { let temp := value } 1 {} {... */\n    tag_234:\n        /* \"contracts/ERC-721A_flattened.sol\":49403:49424  { let temp := value } */\n      pop\n        /* \"contracts/ERC-721A_flattened.sol\":49855:49858  str */\n      dup3\n        /* \"contracts/ERC-721A_flattened.sol\":49850:49853  end */\n      dup2\n        /* \"contracts/ERC-721A_flattened.sol\":49846:49859  sub(end, str) */\n      sub\n        /* \"contracts/ERC-721A_flattened.sol\":49968:49972  0x20 */\n      0x20\n        /* \"contracts/ERC-721A_flattened.sol\":49963:49966  str */\n      dup5\n        /* \"contracts/ERC-721A_flattened.sol\":49959:49973  sub(str, 0x20) */\n      sub\n        /* \"contracts/ERC-721A_flattened.sol\":49952:49973  str := sub(str, 0x20) */\n      swap4\n      pop\n        /* \"contracts/ERC-721A_flattened.sol\":50031:50037  length */\n      dup1\n        /* \"contracts/ERC-721A_flattened.sol\":50026:50029  str */\n      dup5\n        /* \"contracts/ERC-721A_flattened.sol\":50019:50038  mstore(str, length) */\n      mstore\n        /* \"contracts/ERC-721A_flattened.sol\":48449:50048  {... */\n      pop\n      pop\n      pop\n        /* \"contracts/ERC-721A_flattened.sol\":48346:50054  function _toString(uint256 value) internal pure virtual returns (string memory str) {... */\n      swap2\n      swap1\n      pop\n      jump\t// out\n        /* \"contracts/ERC-721A_flattened.sol\":47184:47327  function _extraData(... */\n    tag_199:\n        /* \"contracts/ERC-721A_flattened.sol\":47317:47323  uint24 */\n      0x00\n        /* \"contracts/ERC-721A_flattened.sol\":47184:47327  function _extraData(... */\n      swap4\n      swap3\n      pop\n      pop\n      pop\n      jump\t// out\n        /* \"contracts/ERC-721A_flattened.sol\":23546:23864  function _nextInitializedFlag(uint256 quantity) private pure returns (uint256 result) {... */\n    tag_208:\n        /* \"contracts/ERC-721A_flattened.sol\":23616:23630  uint256 result */\n      0x00\n        /* \"contracts/ERC-721A_flattened.sol\":23845:23846  1 */\n      0x01\n        /* \"contracts/ERC-721A_flattened.sol\":23835:23843  quantity */\n      dup3\n        /* \"contracts/ERC-721A_flattened.sol\":23832:23847  eq(quantity, 1) */\n      eq\n        /* \"contracts/ERC-721A_flattened.sol\":23806:23830  _BITPOS_NEXT_INITIALIZED */\n      0xe1\n        /* \"contracts/ERC-721A_flattened.sol\":23802:23848  shl(_BITPOS_NEXT_INITIALIZED, eq(quantity, 1)) */\n      shl\n        /* \"contracts/ERC-721A_flattened.sol\":23792:23848  result := shl(_BITPOS_NEXT_INITIALIZED, eq(quantity, 1)) */\n      swap1\n      pop\n        /* \"contracts/ERC-721A_flattened.sol\":23546:23864  function _nextInitializedFlag(uint256 quantity) private pure returns (uint256 result) {... */\n      swap2\n      swap1\n      pop\n      jump\t// out\n        /* \"#utility.yul\":7:82   */\n    tag_238:\n        /* \"#utility.yul\":40:46   */\n      0x00\n        /* \"#utility.yul\":73:75   */\n      0x40\n        /* \"#utility.yul\":67:76   */\n      mload\n        /* \"#utility.yul\":57:76   */\n      swap1\n      pop\n        /* \"#utility.yul\":7:82   */\n      swap1\n      jump\t// out\n        /* \"#utility.yul\":88:205   */\n    tag_239:\n        /* \"#utility.yul\":197:198   */\n      0x00\n        /* \"#utility.yul\":194:195   */\n      dup1\n        /* \"#utility.yul\":187:199   */\n      revert\n        /* \"#utility.yul\":211:328   */\n    tag_240:\n        /* \"#utility.yul\":320:321   */\n      0x00\n        /* \"#utility.yul\":317:318   */\n      dup1\n        /* \"#utility.yul\":310:322   */\n      revert\n        /* \"#utility.yul\":334:483   */\n    tag_241:\n        /* \"#utility.yul\":370:377   */\n      0x00\n        /* \"#utility.yul\":410:476   */\n      0xffffffff00000000000000000000000000000000000000000000000000000000\n        /* \"#utility.yul\":403:408   */\n      dup3\n        /* \"#utility.yul\":399:477   */\n      and\n        /* \"#utility.yul\":388:477   */\n      swap1\n      pop\n        /* \"#utility.yul\":334:483   */\n      swap2\n      swap1\n      pop\n      jump\t// out\n        /* \"#utility.yul\":489:609   */\n    tag_242:\n        /* \"#utility.yul\":561:584   */\n      tag_284\n        /* \"#utility.yul\":578:583   */\n      dup2\n        /* \"#utility.yul\":561:584   */\n      tag_241\n      jump\t// in\n    tag_284:\n        /* \"#utility.yul\":554:559   */\n      dup2\n        /* \"#utility.yul\":551:585   */\n      eq\n        /* \"#utility.yul\":541:603   */\n      tag_285\n      jumpi\n        /* \"#utility.yul\":599:600   */\n      0x00\n        /* \"#utility.yul\":596:597   */\n      dup1\n        /* \"#utility.yul\":589:601   */\n      revert\n        /* \"#utility.yul\":541:603   */\n    tag_285:\n        /* \"#utility.yul\":489:609   */\n      pop\n      jump\t// out\n        /* \"#utility.yul\":615:752   */\n    tag_243:\n        /* \"#utility.yul\":660:665   */\n      0x00\n        /* \"#utility.yul\":698:704   */\n      dup2\n        /* \"#utility.yul\":685:705   */\n      calldataload\n        /* \"#utility.yul\":676:705   */\n      swap1\n      pop\n        /* \"#utility.yul\":714:746   */\n      tag_287\n        /* \"#utility.yul\":740:745   */\n      dup2\n        /* \"#utility.yul\":714:746   */\n      tag_242\n      jump\t// in\n    tag_287:\n        /* \"#utility.yul\":615:752   */\n      swap3\n      swap2\n      pop\n      pop\n      jump\t// out\n        /* \"#utility.yul\":758:1085   */\n    tag_23:\n        /* \"#utility.yul\":816:822   */\n      0x00\n        /* \"#utility.yul\":865:867   */\n      0x20\n        /* \"#utility.yul\":853:862   */\n      dup3\n        /* \"#utility.yul\":844:851   */\n      dup5\n        /* \"#utility.yul\":840:863   */\n      sub\n        /* \"#utility.yul\":836:868   */\n      slt\n        /* \"#utility.yul\":833:952   */\n      iszero\n      tag_289\n      jumpi\n        /* \"#utility.yul\":871:950   */\n      tag_290\n      tag_239\n      jump\t// in\n    tag_290:\n        /* \"#utility.yul\":833:952   */\n    tag_289:\n        /* \"#utility.yul\":991:992   */\n      0x00\n        /* \"#utility.yul\":1016:1068   */\n      tag_291\n        /* \"#utility.yul\":1060:1067   */\n      dup5\n        /* \"#utility.yul\":1051:1057   */\n      dup3\n        /* \"#utility.yul\":1040:1049   */\n      dup6\n        /* \"#utility.yul\":1036:1058   */\n      add\n        /* \"#utility.yul\":1016:1068   */\n      tag_243\n      jump\t// in\n    tag_291:\n        /* \"#utility.yul\":1006:1068   */\n      swap2\n      pop\n        /* \"#utility.yul\":962:1078   */\n      pop\n        /* \"#utility.yul\":758:1085   */\n      swap3\n      swap2\n      pop\n      pop\n      jump\t// out\n        /* \"#utility.yul\":1091:1181   */\n    tag_244:\n        /* \"#utility.yul\":1125:1132   */\n      0x00\n        /* \"#utility.yul\":1168:1173   */\n      dup2\n        /* \"#utility.yul\":1161:1174   */\n      iszero\n        /* \"#utility.yul\":1154:1175   */\n      iszero\n        /* \"#utility.yul\":1143:1175   */\n      swap1\n      pop\n        /* \"#utility.yul\":1091:1181   */\n      swap2\n      swap1\n      pop\n      jump\t// out\n        /* \"#utility.yul\":1187:1296   */\n    tag_245:\n        /* \"#utility.yul\":1268:1289   */\n      tag_294\n        /* \"#utility.yul\":1283:1288   */\n      dup2\n        /* \"#utility.yul\":1268:1289   */\n      tag_244\n      jump\t// in\n    tag_294:\n        /* \"#utility.yul\":1263:1266   */\n      dup3\n        /* \"#utility.yul\":1256:1290   */\n      mstore\n        /* \"#utility.yul\":1187:1296   */\n      pop\n      pop\n      jump\t// out\n        /* \"#utility.yul\":1302:1512   */\n    tag_26:\n        /* \"#utility.yul\":1389:1393   */\n      0x00\n        /* \"#utility.yul\":1427:1429   */\n      0x20\n        /* \"#utility.yul\":1416:1425   */\n      dup3\n        /* \"#utility.yul\":1412:1430   */\n      add\n        /* \"#utility.yul\":1404:1430   */\n      swap1\n      pop\n        /* \"#utility.yul\":1440:1505   */\n      tag_296\n        /* \"#utility.yul\":1502:1503   */\n      0x00\n        /* \"#utility.yul\":1491:1500   */\n      dup4\n        /* \"#utility.yul\":1487:1504   */\n      add\n        /* \"#utility.yul\":1478:1484   */\n      dup5\n        /* \"#utility.yul\":1440:1505   */\n      tag_245\n      jump\t// in\n    tag_296:\n        /* \"#utility.yul\":1302:1512   */\n      swap3\n      swap2\n      pop\n      pop\n      jump\t// out\n        /* \"#utility.yul\":1518:1617   */\n    tag_246:\n        /* \"#utility.yul\":1570:1576   */\n      0x00\n        /* \"#utility.yul\":1604:1609   */\n      dup2\n        /* \"#utility.yul\":1598:1610   */\n      mload\n        /* \"#utility.yul\":1588:1610   */\n      swap1\n      pop\n        /* \"#utility.yul\":1518:1617   */\n      swap2\n      swap1\n      pop\n      jump\t// out\n        /* \"#utility.yul\":1623:1792   */\n    tag_247:\n        /* \"#utility.yul\":1707:1718   */\n      0x00\n        /* \"#utility.yul\":1741:1747   */\n      dup3\n        /* \"#utility.yul\":1736:1739   */\n      dup3\n        /* \"#utility.yul\":1729:1748   */\n      mstore\n        /* \"#utility.yul\":1781:1785   */\n      0x20\n        /* \"#utility.yul\":1776:1779   */\n      dup3\n        /* \"#utility.yul\":1772:1786   */\n      add\n        /* \"#utility.yul\":1757:1786   */\n      swap1\n      pop\n        /* \"#utility.yul\":1623:1792   */\n      swap3\n      swap2\n      pop\n      pop\n      jump\t// out\n        /* \"#utility.yul\":1798:2044   */\n    tag_248:\n        /* \"#utility.yul\":1879:1880   */\n      0x00\n        /* \"#utility.yul\":1889:2002   */\n    tag_300:\n        /* \"#utility.yul\":1903:1909   */\n      dup4\n        /* \"#utility.yul\":1900:1901   */\n      dup2\n        /* \"#utility.yul\":1897:1910   */\n      lt\n        /* \"#utility.yul\":1889:2002   */\n      iszero\n      tag_302\n      jumpi\n        /* \"#utility.yul\":1988:1989   */\n      dup1\n        /* \"#utility.yul\":1983:1986   */\n      dup3\n        /* \"#utility.yul\":1979:1990   */\n      add\n        /* \"#utility.yul\":1973:1991   */\n      mload\n        /* \"#utility.yul\":1969:1970   */\n      dup2\n        /* \"#utility.yul\":1964:1967   */\n      dup5\n        /* \"#utility.yul\":1960:1971   */\n      add\n        /* \"#utility.yul\":1953:1992   */\n      mstore\n        /* \"#utility.yul\":1925:1927   */\n      0x20\n        /* \"#utility.yul\":1922:1923   */\n      dup2\n        /* \"#utility.yul\":1918:1928   */\n      add\n        /* \"#utility.yul\":1913:1928   */\n      swap1\n      pop\n        /* \"#utility.yul\":1889:2002   */\n      jump(tag_300)\n    tag_302:\n        /* \"#utility.yul\":2036:2037   */\n      0x00\n        /* \"#utility.yul\":2027:2033   */\n      dup5\n        /* \"#utility.yul\":2022:2025   */\n      dup5\n        /* \"#utility.yul\":2018:2034   */\n      add\n        /* \"#utility.yul\":2011:2038   */\n      mstore\n        /* \"#utility.yul\":1860:2044   */\n      pop\n        /* \"#utility.yul\":1798:2044   */\n      pop\n      pop\n      pop\n      jump\t// out\n        /* \"#utility.yul\":2050:2152   */\n    tag_249:\n        /* \"#utility.yul\":2091:2097   */\n      0x00\n        /* \"#utility.yul\":2142:2144   */\n      0x1f\n        /* \"#utility.yul\":2138:2145   */\n      not\n        /* \"#utility.yul\":2133:2135   */\n      0x1f\n        /* \"#utility.yul\":2126:2131   */\n      dup4\n        /* \"#utility.yul\":2122:2136   */\n      add\n        /* \"#utility.yul\":2118:2146   */\n      and\n        /* \"#utility.yul\":2108:2146   */\n      swap1\n      pop\n        /* \"#utility.yul\":2050:2152   */\n      swap2\n      swap1\n      pop\n      jump\t// out\n        /* \"#utility.yul\":2158:2535   */\n    tag_250:\n        /* \"#utility.yul\":2246:2249   */\n      0x00\n        /* \"#utility.yul\":2274:2313   */\n      tag_305\n        /* \"#utility.yul\":2307:2312   */\n      dup3\n        /* \"#utility.yul\":2274:2313   */\n      tag_246\n      jump\t// in\n    tag_305:\n        /* \"#utility.yul\":2329:2400   */\n      tag_306\n        /* \"#utility.yul\":2393:2399   */\n      dup2\n        /* \"#utility.yul\":2388:2391   */\n      dup6\n        /* \"#utility.yul\":2329:2400   */\n      tag_247\n      jump\t// in\n    tag_306:\n        /* \"#utility.yul\":2322:2400   */\n      swap4\n      pop\n        /* \"#utility.yul\":2409:2474   */\n      tag_307\n        /* \"#utility.yul\":2467:2473   */\n      dup2\n        /* \"#utility.yul\":2462:2465   */\n      dup6\n        /* \"#utility.yul\":2455:2459   */\n      0x20\n        /* \"#utility.yul\":2448:2453   */\n      dup7\n        /* \"#utility.yul\":2444:2460   */\n      add\n        /* \"#utility.yul\":2409:2474   */\n      tag_248\n      jump\t// in\n    tag_307:\n        /* \"#utility.yul\":2499:2528   */\n      tag_308\n        /* \"#utility.yul\":2521:2527   */\n      dup2\n        /* \"#utility.yul\":2499:2528   */\n      tag_249\n      jump\t// in\n    tag_308:\n        /* \"#utility.yul\":2494:2497   */\n      dup5\n        /* \"#utility.yul\":2490:2529   */\n      add\n        /* \"#utility.yul\":2483:2529   */\n      swap2\n      pop\n        /* \"#utility.yul\":2250:2535   */\n      pop\n        /* \"#utility.yul\":2158:2535   */\n      swap3\n      swap2\n      pop\n      pop\n      jump\t// out\n        /* \"#utility.yul\":2541:2854   */\n    tag_31:\n        /* \"#utility.yul\":2654:2658   */\n      0x00\n        /* \"#utility.yul\":2692:2694   */\n      0x20\n        /* \"#utility.yul\":2681:2690   */\n      dup3\n        /* \"#utility.yul\":2677:2695   */\n      add\n        /* \"#utility.yul\":2669:2695   */\n      swap1\n      pop\n        /* \"#utility.yul\":2741:2750   */\n      dup2\n        /* \"#utility.yul\":2735:2739   */\n      dup2\n        /* \"#utility.yul\":2731:2751   */\n      sub\n        /* \"#utility.yul\":2727:2728   */\n      0x00\n        /* \"#utility.yul\":2716:2725   */\n      dup4\n        /* \"#utility.yul\":2712:2729   */\n      add\n        /* \"#utility.yul\":2705:2752   */\n      mstore\n        /* \"#utility.yul\":2769:2847   */\n      tag_310\n        /* \"#utility.yul\":2842:2846   */\n      dup2\n        /* \"#utility.yul\":2833:2839   */\n      dup5\n        /* \"#utility.yul\":2769:2847   */\n      tag_250\n      jump\t// in\n    tag_310:\n        /* \"#utility.yul\":2761:2847   */\n      swap1\n      pop\n        /* \"#utility.yul\":2541:2854   */\n      swap3\n      swap2\n      pop\n      pop\n      jump\t// out\n        /* \"#utility.yul\":2860:2937   */\n    tag_251:\n        /* \"#utility.yul\":2897:2904   */\n      0x00\n        /* \"#utility.yul\":2926:2931   */\n      dup2\n        /* \"#utility.yul\":2915:2931   */\n      swap1\n      pop\n        /* \"#utility.yul\":2860:2937   */\n      swap2\n      swap1\n      pop\n      jump\t// out\n        /* \"#utility.yul\":2943:3065   */\n    tag_252:\n        /* \"#utility.yul\":3016:3040   */\n      tag_313\n        /* \"#utility.yul\":3034:3039   */\n      dup2\n        /* \"#utility.yul\":3016:3040   */\n      tag_251\n      jump\t// in\n    tag_313:\n        /* \"#utility.yul\":3009:3014   */\n      dup2\n        /* \"#utility.yul\":3006:3041   */\n      eq\n        /* \"#utility.yul\":2996:3059   */\n      tag_314\n      jumpi\n        /* \"#utility.yul\":3055:3056   */\n      0x00\n        /* \"#utility.yul\":3052:3053   */\n      dup1\n        /* \"#utility.yul\":3045:3057   */\n      revert\n        /* \"#utility.yul\":2996:3059   */\n    tag_314:\n        /* \"#utility.yul\":2943:3065   */\n      pop\n      jump\t// out\n        /* \"#utility.yul\":3071:3210   */\n    tag_253:\n        /* \"#utility.yul\":3117:3122   */\n      0x00\n        /* \"#utility.yul\":3155:3161   */\n      dup2\n        /* \"#utility.yul\":3142:3162   */\n      calldataload\n        /* \"#utility.yul\":3133:3162   */\n      swap1\n      pop\n        /* \"#utility.yul\":3171:3204   */\n      tag_316\n        /* \"#utility.yul\":3198:3203   */\n      dup2\n        /* \"#utility.yul\":3171:3204   */\n      tag_252\n      jump\t// in\n    tag_316:\n        /* \"#utility.yul\":3071:3210   */\n      swap3\n      swap2\n      pop\n      pop\n      jump\t// out\n        /* \"#utility.yul\":3216:3545   */\n    tag_35:\n        /* \"#utility.yul\":3275:3281   */\n      0x00\n        /* \"#utility.yul\":3324:3326   */\n      0x20\n        /* \"#utility.yul\":3312:3321   */\n      dup3\n        /* \"#utility.yul\":3303:3310   */\n      dup5\n        /* \"#utility.yul\":3299:3322   */\n      sub\n        /* \"#utility.yul\":3295:3327   */\n      slt\n        /* \"#utility.yul\":3292:3411   */\n      iszero\n      tag_318\n      jumpi\n        /* \"#utility.yul\":3330:3409   */\n      tag_319\n      tag_239\n      jump\t// in\n    tag_319:\n        /* \"#utility.yul\":3292:3411   */\n    tag_318:\n        /* \"#utility.yul\":3450:3451   */\n      0x00\n        /* \"#utility.yul\":3475:3528   */\n      tag_320\n        /* \"#utility.yul\":3520:3527   */\n      dup5\n        /* \"#utility.yul\":3511:3517   */\n      dup3\n        /* \"#utility.yul\":3500:3509   */\n      dup6\n        /* \"#utility.yul\":3496:3518   */\n      add\n        /* \"#utility.yul\":3475:3528   */\n      tag_253\n      jump\t// in\n    tag_320:\n        /* \"#utility.yul\":3465:3528   */\n      swap2\n      pop\n        /* \"#utility.yul\":3421:3538   */\n      pop\n        /* \"#utility.yul\":3216:3545   */\n      swap3\n      swap2\n      pop\n      pop\n      jump\t// out\n        /* \"#utility.yul\":3551:3677   */\n    tag_254:\n        /* \"#utility.yul\":3588:3595   */\n      0x00\n        /* \"#utility.yul\":3628:3670   */\n      0xffffffffffffffffffffffffffffffffffffffff\n        /* \"#utility.yul\":3621:3626   */\n      dup3\n        /* \"#utility.yul\":3617:3671   */\n      and\n        /* \"#utility.yul\":3606:3671   */\n      swap1\n      pop\n        /* \"#utility.yul\":3551:3677   */\n      swap2\n      swap1\n      pop\n      jump\t// out\n        /* \"#utility.yul\":3683:3779   */\n    tag_255:\n        /* \"#utility.yul\":3720:3727   */\n      0x00\n        /* \"#utility.yul\":3749:3773   */\n      tag_323\n        /* \"#utility.yul\":3767:3772   */\n      dup3\n        /* \"#utility.yul\":3749:3773   */\n      tag_254\n      jump\t// in\n    tag_323:\n        /* \"#utility.yul\":3738:3773   */\n      swap1\n      pop\n        /* \"#utility.yul\":3683:3779   */\n      swap2\n      swap1\n      pop\n      jump\t// out\n        /* \"#utility.yul\":3785:3903   */\n    tag_256:\n        /* \"#utility.yul\":3872:3896   */\n      tag_325\n        /* \"#utility.yul\":3890:3895   */\n      dup2\n        /* \"#utility.yul\":3872:3896   */\n      tag_255\n      jump\t// in\n    tag_325:\n        /* \"#utility.yul\":3867:3870   */\n      dup3\n        /* \"#utility.yul\":3860:3897   */\n      mstore\n        /* \"#utility.yul\":3785:3903   */\n      pop\n      pop\n      jump\t// out\n        /* \"#utility.yul\":3909:4131   */\n    tag_38:\n        /* \"#utility.yul\":4002:4006   */\n      0x00\n        /* \"#utility.yul\":4040:4042   */\n      0x20\n        /* \"#utility.yul\":4029:4038   */\n      dup3\n        /* \"#utility.yul\":4025:4043   */\n      add\n        /* \"#utility.yul\":4017:4043   */\n      swap1\n      pop\n        /* \"#utility.yul\":4053:4124   */\n      tag_327\n        /* \"#utility.yul\":4121:4122   */\n      0x00\n        /* \"#utility.yul\":4110:4119   */\n      dup4\n        /* \"#utility.yul\":4106:4123   */\n      add\n        /* \"#utility.yul\":4097:4103   */\n      dup5\n        /* \"#utility.yul\":4053:4124   */\n      tag_256\n      jump\t// in\n    tag_327:\n        /* \"#utility.yul\":3909:4131   */\n      swap3\n      swap2\n      pop\n      pop\n      jump\t// out\n        /* \"#utility.yul\":4137:4259   */\n    tag_257:\n        /* \"#utility.yul\":4210:4234   */\n      tag_329\n        /* \"#utility.yul\":4228:4233   */\n      dup2\n        /* \"#utility.yul\":4210:4234   */\n      tag_255\n      jump\t// in\n    tag_329:\n        /* \"#utility.yul\":4203:4208   */\n      dup2\n        /* \"#utility.yul\":4200:4235   */\n      eq\n        /* \"#utility.yul\":4190:4253   */\n      tag_330\n      jumpi\n        /* \"#utility.yul\":4249:4250   */\n      0x00\n        /* \"#utility.yul\":4246:4247   */\n      dup1\n        /* \"#utility.yul\":4239:4251   */\n      revert\n        /* \"#utility.yul\":4190:4253   */\n    tag_330:\n        /* \"#utility.yul\":4137:4259   */\n      pop\n      jump\t// out\n        /* \"#utility.yul\":4265:4404   */\n    tag_258:\n        /* \"#utility.yul\":4311:4316   */\n      0x00\n        /* \"#utility.yul\":4349:4355   */\n      dup2\n        /* \"#utility.yul\":4336:4356   */\n      calldataload\n        /* \"#utility.yul\":4327:4356   */\n      swap1\n      pop\n        /* \"#utility.yul\":4365:4398   */\n      tag_332\n        /* \"#utility.yul\":4392:4397   */\n      dup2\n        /* \"#utility.yul\":4365:4398   */\n      tag_257\n      jump\t// in\n    tag_332:\n        /* \"#utility.yul\":4265:4404   */\n      swap3\n      swap2\n      pop\n      pop\n      jump\t// out\n        /* \"#utility.yul\":4410:4884   */\n    tag_41:\n        /* \"#utility.yul\":4478:4484   */\n      0x00\n        /* \"#utility.yul\":4486:4492   */\n      dup1\n        /* \"#utility.yul\":4535:4537   */\n      0x40\n        /* \"#utility.yul\":4523:4532   */\n      dup4\n        /* \"#utility.yul\":4514:4521   */\n      dup6\n        /* \"#utility.yul\":4510:4533   */\n      sub\n        /* \"#utility.yul\":4506:4538   */\n      slt\n        /* \"#utility.yul\":4503:4622   */\n      iszero\n      tag_334\n      jumpi\n        /* \"#utility.yul\":4541:4620   */\n      tag_335\n      tag_239\n      jump\t// in\n    tag_335:\n        /* \"#utility.yul\":4503:4622   */\n    tag_334:\n        /* \"#utility.yul\":4661:4662   */\n      0x00\n        /* \"#utility.yul\":4686:4739   */\n      tag_336\n        /* \"#utility.yul\":4731:4738   */\n      dup6\n        /* \"#utility.yul\":4722:4728   */\n      dup3\n        /* \"#utility.yul\":4711:4720   */\n      dup7\n        /* \"#utility.yul\":4707:4729   */\n      add\n        /* \"#utility.yul\":4686:4739   */\n      tag_258\n      jump\t// in\n    tag_336:\n        /* \"#utility.yul\":4676:4739   */\n      swap3\n      pop\n        /* \"#utility.yul\":4632:4749   */\n      pop\n        /* \"#utility.yul\":4788:4790   */\n      0x20\n        /* \"#utility.yul\":4814:4867   */\n      tag_337\n        /* \"#utility.yul\":4859:4866   */\n      dup6\n        /* \"#utility.yul\":4850:4856   */\n      dup3\n        /* \"#utility.yul\":4839:4848   */\n      dup7\n        /* \"#utility.yul\":4835:4857   */\n      add\n        /* \"#utility.yul\":4814:4867   */\n      tag_253\n      jump\t// in\n    tag_337:\n        /* \"#utility.yul\":4804:4867   */\n      swap2\n      pop\n        /* \"#utility.yul\":4759:4877   */\n      pop\n        /* \"#utility.yul\":4410:4884   */\n      swap3\n      pop\n      swap3\n      swap1\n      pop\n      jump\t// out\n        /* \"#utility.yul\":4890:5008   */\n    tag_259:\n        /* \"#utility.yul\":4977:5001   */\n      tag_339\n        /* \"#utility.yul\":4995:5000   */\n      dup2\n        /* \"#utility.yul\":4977:5001   */\n      tag_251\n      jump\t// in\n    tag_339:\n        /* \"#utility.yul\":4972:4975   */\n      dup3\n        /* \"#utility.yul\":4965:5002   */\n      mstore\n        /* \"#utility.yul\":4890:5008   */\n      pop\n      pop\n      jump\t// out\n        /* \"#utility.yul\":5014:5236   */\n    tag_47:\n        /* \"#utility.yul\":5107:5111   */\n      0x00\n        /* \"#utility.yul\":5145:5147   */\n      0x20\n        /* \"#utility.yul\":5134:5143   */\n      dup3\n        /* \"#utility.yul\":5130:5148   */\n      add\n        /* \"#utility.yul\":5122:5148   */\n      swap1\n      pop\n        /* \"#utility.yul\":5158:5229   */\n      tag_341\n        /* \"#utility.yul\":5226:5227   */\n      0x00\n        /* \"#utility.yul\":5215:5224   */\n      dup4\n        /* \"#utility.yul\":5211:5228   */\n      add\n        /* \"#utility.yul\":5202:5208   */\n      dup5\n        /* \"#utility.yul\":5158:5229   */\n      tag_259\n      jump\t// in\n    tag_341:\n        /* \"#utility.yul\":5014:5236   */\n      swap3\n      swap2\n      pop\n      pop\n      jump\t// out\n        /* \"#utility.yul\":5242:5861   */\n    tag_50:\n        /* \"#utility.yul\":5319:5325   */\n      0x00\n        /* \"#utility.yul\":5327:5333   */\n      dup1\n        /* \"#utility.yul\":5335:5341   */\n      0x00\n        /* \"#utility.yul\":5384:5386   */\n      0x60\n        /* \"#utility.yul\":5372:5381   */\n      dup5\n        /* \"#utility.yul\":5363:5370   */\n      dup7\n        /* \"#utility.yul\":5359:5382   */\n      sub\n        /* \"#utility.yul\":5355:5387   */\n      slt\n        /* \"#utility.yul\":5352:5471   */\n      iszero\n      tag_343\n      jumpi\n        /* \"#utility.yul\":5390:5469   */\n      tag_344\n      tag_239\n      jump\t// in\n    tag_344:\n        /* \"#utility.yul\":5352:5471   */\n    tag_343:\n        /* \"#utility.yul\":5510:5511   */\n      0x00\n        /* \"#utility.yul\":5535:5588   */\n      tag_345\n        /* \"#utility.yul\":5580:5587   */\n      dup7\n        /* \"#utility.yul\":5571:5577   */\n      dup3\n        /* \"#utility.yul\":5560:5569   */\n      dup8\n        /* \"#utility.yul\":5556:5578   */\n      add\n        /* \"#utility.yul\":5535:5588   */\n      tag_258\n      jump\t// in\n    tag_345:\n        /* \"#utility.yul\":5525:5588   */\n      swap4\n      pop\n        /* \"#utility.yul\":5481:5598   */\n      pop\n        /* \"#utility.yul\":5637:5639   */\n      0x20\n        /* \"#utility.yul\":5663:5716   */\n      tag_346\n        /* \"#utility.yul\":5708:5715   */\n      dup7\n        /* \"#utility.yul\":5699:5705   */\n      dup3\n        /* \"#utility.yul\":5688:5697   */\n      dup8\n        /* \"#utility.yul\":5684:5706   */\n      add\n        /* \"#utility.yul\":5663:5716   */\n      tag_258\n      jump\t// in\n    tag_346:\n        /* \"#utility.yul\":5653:5716   */\n      swap3\n      pop\n        /* \"#utility.yul\":5608:5726   */\n      pop\n        /* \"#utility.yul\":5765:5767   */\n      0x40\n        /* \"#utility.yul\":5791:5844   */\n      tag_347\n        /* \"#utility.yul\":5836:5843   */\n      dup7\n        /* \"#utility.yul\":5827:5833   */\n      dup3\n        /* \"#utility.yul\":5816:5825   */\n      dup8\n        /* \"#utility.yul\":5812:5834   */\n      add\n        /* \"#utility.yul\":5791:5844   */\n      tag_253\n      jump\t// in\n    tag_347:\n        /* \"#utility.yul\":5781:5844   */\n      swap2\n      pop\n        /* \"#utility.yul\":5736:5854   */\n      pop\n        /* \"#utility.yul\":5242:5861   */\n      swap3\n      pop\n      swap3\n      pop\n      swap3\n      jump\t// out\n        /* \"#utility.yul\":5867:6196   */\n    tag_63:\n        /* \"#utility.yul\":5926:5932   */\n      0x00\n        /* \"#utility.yul\":5975:5977   */\n      0x20\n        /* \"#utility.yul\":5963:5972   */\n      dup3\n        /* \"#utility.yul\":5954:5961   */\n      dup5\n        /* \"#utility.yul\":5950:5973   */\n      sub\n        /* \"#utility.yul\":5946:5978   */\n      slt\n        /* \"#utility.yul\":5943:6062   */\n      iszero\n      tag_349\n      jumpi\n        /* \"#utility.yul\":5981:6060   */\n      tag_350\n      tag_239\n      jump\t// in\n    tag_350:\n        /* \"#utility.yul\":5943:6062   */\n    tag_349:\n        /* \"#utility.yul\":6101:6102   */\n      0x00\n        /* \"#utility.yul\":6126:6179   */\n      tag_351\n        /* \"#utility.yul\":6171:6178   */\n      dup5\n        /* \"#utility.yul\":6162:6168   */\n      dup3\n        /* \"#utility.yul\":6151:6160   */\n      dup6\n        /* \"#utility.yul\":6147:6169   */\n      add\n        /* \"#utility.yul\":6126:6179   */\n      tag_258\n      jump\t// in\n    tag_351:\n        /* \"#utility.yul\":6116:6179   */\n      swap2\n      pop\n        /* \"#utility.yul\":6072:6189   */\n      pop\n        /* \"#utility.yul\":5867:6196   */\n      swap3\n      swap2\n      pop\n      pop\n      jump\t// out\n        /* \"#utility.yul\":6202:6318   */\n    tag_260:\n        /* \"#utility.yul\":6272:6293   */\n      tag_353\n        /* \"#utility.yul\":6287:6292   */\n      dup2\n        /* \"#utility.yul\":6272:6293   */\n      tag_244\n      jump\t// in\n    tag_353:\n        /* \"#utility.yul\":6265:6270   */\n      dup2\n        /* \"#utility.yul\":6262:6294   */\n      eq\n        /* \"#utility.yul\":6252:6312   */\n      tag_354\n      jumpi\n        /* \"#utility.yul\":6308:6309   */\n      0x00\n        /* \"#utility.yul\":6305:6306   */\n      dup1\n        /* \"#utility.yul\":6298:6310   */\n      revert\n        /* \"#utility.yul\":6252:6312   */\n    tag_354:\n        /* \"#utility.yul\":6202:6318   */\n      pop\n      jump\t// out\n        /* \"#utility.yul\":6324:6457   */\n    tag_261:\n        /* \"#utility.yul\":6367:6372   */\n      0x00\n        /* \"#utility.yul\":6405:6411   */\n      dup2\n        /* \"#utility.yul\":6392:6412   */\n      calldataload\n        /* \"#utility.yul\":6383:6412   */\n      swap1\n      pop\n        /* \"#utility.yul\":6421:6451   */\n      tag_356\n        /* \"#utility.yul\":6445:6450   */\n      dup2\n        /* \"#utility.yul\":6421:6451   */\n      tag_260\n      jump\t// in\n    tag_356:\n        /* \"#utility.yul\":6324:6457   */\n      swap3\n      swap2\n      pop\n      pop\n      jump\t// out\n        /* \"#utility.yul\":6463:6931   */\n    tag_76:\n        /* \"#utility.yul\":6528:6534   */\n      0x00\n        /* \"#utility.yul\":6536:6542   */\n      dup1\n        /* \"#utility.yul\":6585:6587   */\n      0x40\n        /* \"#utility.yul\":6573:6582   */\n      dup4\n        /* \"#utility.yul\":6564:6571   */\n      dup6\n        /* \"#utility.yul\":6560:6583   */\n      sub\n        /* \"#utility.yul\":6556:6588   */\n      slt\n        /* \"#utility.yul\":6553:6672   */\n      iszero\n      tag_358\n      jumpi\n        /* \"#utility.yul\":6591:6670   */\n      tag_359\n      tag_239\n      jump\t// in\n    tag_359:\n        /* \"#utility.yul\":6553:6672   */\n    tag_358:\n        /* \"#utility.yul\":6711:6712   */\n      0x00\n        /* \"#utility.yul\":6736:6789   */\n      tag_360\n        /* \"#utility.yul\":6781:6788   */\n      dup6\n        /* \"#utility.yul\":6772:6778   */\n      dup3\n        /* \"#utility.yul\":6761:6770   */\n      dup7\n        /* \"#utility.yul\":6757:6779   */\n      add\n        /* \"#utility.yul\":6736:6789   */\n      tag_258\n      jump\t// in\n    tag_360:\n        /* \"#utility.yul\":6726:6789   */\n      swap3\n      pop\n        /* \"#utility.yul\":6682:6799   */\n      pop\n        /* \"#utility.yul\":6838:6840   */\n      0x20\n        /* \"#utility.yul\":6864:6914   */\n      tag_361\n        /* \"#utility.yul\":6906:6913   */\n      dup6\n        /* \"#utility.yul\":6897:6903   */\n      dup3\n        /* \"#utility.yul\":6886:6895   */\n      dup7\n        /* \"#utility.yul\":6882:6904   */\n      add\n        /* \"#utility.yul\":6864:6914   */\n      tag_261\n      jump\t// in\n    tag_361:\n        /* \"#utility.yul\":6854:6914   */\n      swap2\n      pop\n        /* \"#utility.yul\":6809:6924   */\n      pop\n        /* \"#utility.yul\":6463:6931   */\n      swap3\n      pop\n      swap3\n      swap1\n      pop\n      jump\t// out\n        /* \"#utility.yul\":6937:7054   */\n    tag_262:\n        /* \"#utility.yul\":7046:7047   */\n      0x00\n        /* \"#utility.yul\":7043:7044   */\n      dup1\n        /* \"#utility.yul\":7036:7048   */\n      revert\n        /* \"#utility.yul\":7060:7177   */\n    tag_263:\n        /* \"#utility.yul\":7169:7170   */\n      0x00\n        /* \"#utility.yul\":7166:7167   */\n      dup1\n        /* \"#utility.yul\":7159:7171   */\n      revert\n        /* \"#utility.yul\":7183:7363   */\n    tag_264:\n        /* \"#utility.yul\":7231:7308   */\n      0x4e487b7100000000000000000000000000000000000000000000000000000000\n        /* \"#utility.yul\":7228:7229   */\n      0x00\n        /* \"#utility.yul\":7221:7309   */\n      mstore\n        /* \"#utility.yul\":7328:7332   */\n      0x41\n        /* \"#utility.yul\":7325:7326   */\n      0x04\n        /* \"#utility.yul\":7318:7333   */\n      mstore\n        /* \"#utility.yul\":7352:7356   */\n      0x24\n        /* \"#utility.yul\":7349:7350   */\n      0x00\n        /* \"#utility.yul\":7342:7357   */\n      revert\n        /* \"#utility.yul\":7369:7650   */\n    tag_265:\n        /* \"#utility.yul\":7452:7479   */\n      tag_366\n        /* \"#utility.yul\":7474:7478   */\n      dup3\n        /* \"#utility.yul\":7452:7479   */\n      tag_249\n      jump\t// in\n    tag_366:\n        /* \"#utility.yul\":7444:7450   */\n      dup2\n        /* \"#utility.yul\":7440:7480   */\n      add\n        /* \"#utility.yul\":7582:7588   */\n      dup2\n        /* \"#utility.yul\":7570:7580   */\n      dup2\n        /* \"#utility.yul\":7567:7589   */\n      lt\n        /* \"#utility.yul\":7546:7564   */\n      0xffffffffffffffff\n        /* \"#utility.yul\":7534:7544   */\n      dup3\n        /* \"#utility.yul\":7531:7565   */\n      gt\n        /* \"#utility.yul\":7528:7590   */\n      or\n        /* \"#utility.yul\":7525:7613   */\n      iszero\n      tag_367\n      jumpi\n        /* \"#utility.yul\":7593:7611   */\n      tag_368\n      tag_264\n      jump\t// in\n    tag_368:\n        /* \"#utility.yul\":7525:7613   */\n    tag_367:\n        /* \"#utility.yul\":7633:7643   */\n      dup1\n        /* \"#utility.yul\":7629:7631   */\n      0x40\n        /* \"#utility.yul\":7622:7644   */\n      mstore\n        /* \"#utility.yul\":7412:7650   */\n      pop\n        /* \"#utility.yul\":7369:7650   */\n      pop\n      pop\n      jump\t// out\n        /* \"#utility.yul\":7656:7785   */\n    tag_266:\n        /* \"#utility.yul\":7690:7696   */\n      0x00\n        /* \"#utility.yul\":7717:7737   */\n      tag_370\n      tag_238\n      jump\t// in\n    tag_370:\n        /* \"#utility.yul\":7707:7737   */\n      swap1\n      pop\n        /* \"#utility.yul\":7746:7779   */\n      tag_371\n        /* \"#utility.yul\":7774:7778   */\n      dup3\n        /* \"#utility.yul\":7766:7772   */\n      dup3\n        /* \"#utility.yul\":7746:7779   */\n      tag_265\n      jump\t// in\n    tag_371:\n        /* \"#utility.yul\":7656:7785   */\n      swap2\n      swap1\n      pop\n      jump\t// out\n        /* \"#utility.yul\":7791:8098   */\n    tag_267:\n        /* \"#utility.yul\":7852:7856   */\n      0x00\n        /* \"#utility.yul\":7942:7960   */\n      0xffffffffffffffff\n        /* \"#utility.yul\":7934:7940   */\n      dup3\n        /* \"#utility.yul\":7931:7961   */\n      gt\n        /* \"#utility.yul\":7928:7984   */\n      iszero\n      tag_373\n      jumpi\n        /* \"#utility.yul\":7964:7982   */\n      tag_374\n      tag_264\n      jump\t// in\n    tag_374:\n        /* \"#utility.yul\":7928:7984   */\n    tag_373:\n        /* \"#utility.yul\":8002:8031   */\n      tag_375\n        /* \"#utility.yul\":8024:8030   */\n      dup3\n        /* \"#utility.yul\":8002:8031   */\n      tag_249\n      jump\t// in\n    tag_375:\n        /* \"#utility.yul\":7994:8031   */\n      swap1\n      pop\n        /* \"#utility.yul\":8086:8090   */\n      0x20\n        /* \"#utility.yul\":8080:8084   */\n      dup2\n        /* \"#utility.yul\":8076:8091   */\n      add\n        /* \"#utility.yul\":8068:8091   */\n      swap1\n      pop\n        /* \"#utility.yul\":7791:8098   */\n      swap2\n      swap1\n      pop\n      jump\t// out\n        /* \"#utility.yul\":8104:8250   */\n    tag_268:\n        /* \"#utility.yul\":8201:8207   */\n      dup3\n        /* \"#utility.yul\":8196:8199   */\n      dup2\n        /* \"#utility.yul\":8191:8194   */\n      dup4\n        /* \"#utility.yul\":8178:8208   */\n      calldatacopy\n        /* \"#utility.yul\":8242:8243   */\n      0x00\n        /* \"#utility.yul\":8233:8239   */\n      dup4\n        /* \"#utility.yul\":8228:8231   */\n      dup4\n        /* \"#utility.yul\":8224:8240   */\n      add\n        /* \"#utility.yul\":8217:8244   */\n      mstore\n        /* \"#utility.yul\":8104:8250   */\n      pop\n      pop\n      pop\n      jump\t// out\n        /* \"#utility.yul\":8256:8679   */\n    tag_269:\n        /* \"#utility.yul\":8333:8338   */\n      0x00\n        /* \"#utility.yul\":8358:8423   */\n      tag_378\n        /* \"#utility.yul\":8374:8422   */\n      tag_379\n        /* \"#utility.yul\":8415:8421   */\n      dup5\n        /* \"#utility.yul\":8374:8422   */\n      tag_267\n      jump\t// in\n    tag_379:\n        /* \"#utility.yul\":8358:8423   */\n      tag_266\n      jump\t// in\n    tag_378:\n        /* \"#utility.yul\":8349:8423   */\n      swap1\n      pop\n        /* \"#utility.yul\":8446:8452   */\n      dup3\n        /* \"#utility.yul\":8439:8444   */\n      dup2\n        /* \"#utility.yul\":8432:8453   */\n      mstore\n        /* \"#utility.yul\":8484:8488   */\n      0x20\n        /* \"#utility.yul\":8477:8482   */\n      dup2\n        /* \"#utility.yul\":8473:8489   */\n      add\n        /* \"#utility.yul\":8522:8525   */\n      dup5\n        /* \"#utility.yul\":8513:8519   */\n      dup5\n        /* \"#utility.yul\":8508:8511   */\n      dup5\n        /* \"#utility.yul\":8504:8520   */\n      add\n        /* \"#utility.yul\":8501:8526   */\n      gt\n        /* \"#utility.yul\":8498:8610   */\n      iszero\n      tag_380\n      jumpi\n        /* \"#utility.yul\":8529:8608   */\n      tag_381\n      tag_263\n      jump\t// in\n    tag_381:\n        /* \"#utility.yul\":8498:8610   */\n    tag_380:\n        /* \"#utility.yul\":8619:8673   */\n      tag_382\n        /* \"#utility.yul\":8666:8672   */\n      dup5\n        /* \"#utility.yul\":8661:8664   */\n      dup3\n        /* \"#utility.yul\":8656:8659   */\n      dup6\n        /* \"#utility.yul\":8619:8673   */\n      tag_268\n      jump\t// in\n    tag_382:\n        /* \"#utility.yul\":8339:8679   */\n      pop\n        /* \"#utility.yul\":8256:8679   */\n      swap4\n      swap3\n      pop\n      pop\n      pop\n      jump\t// out\n        /* \"#utility.yul\":8698:9036   */\n    tag_270:\n        /* \"#utility.yul\":8753:8758   */\n      0x00\n        /* \"#utility.yul\":8802:8805   */\n      dup3\n        /* \"#utility.yul\":8795:8799   */\n      0x1f\n        /* \"#utility.yul\":8787:8793   */\n      dup4\n        /* \"#utility.yul\":8783:8800   */\n      add\n        /* \"#utility.yul\":8779:8806   */\n      slt\n        /* \"#utility.yul\":8769:8891   */\n      tag_384\n      jumpi\n        /* \"#utility.yul\":8810:8889   */\n      tag_385\n      tag_262\n      jump\t// in\n    tag_385:\n        /* \"#utility.yul\":8769:8891   */\n    tag_384:\n        /* \"#utility.yul\":8927:8933   */\n      dup2\n        /* \"#utility.yul\":8914:8934   */\n      calldataload\n        /* \"#utility.yul\":8952:9030   */\n      tag_386\n        /* \"#utility.yul\":9026:9029   */\n      dup5\n        /* \"#utility.yul\":9018:9024   */\n      dup3\n        /* \"#utility.yul\":9011:9015   */\n      0x20\n        /* \"#utility.yul\":9003:9009   */\n      dup7\n        /* \"#utility.yul\":8999:9016   */\n      add\n        /* \"#utility.yul\":8952:9030   */\n      tag_269\n      jump\t// in\n    tag_386:\n        /* \"#utility.yul\":8943:9030   */\n      swap2\n      pop\n        /* \"#utility.yul\":8759:9036   */\n      pop\n        /* \"#utility.yul\":8698:9036   */\n      swap3\n      swap2\n      pop\n      pop\n      jump\t// out\n        /* \"#utility.yul\":9042:9985   */\n    tag_80:\n        /* \"#utility.yul\":9137:9143   */\n      0x00\n        /* \"#utility.yul\":9145:9151   */\n      dup1\n        /* \"#utility.yul\":9153:9159   */\n      0x00\n        /* \"#utility.yul\":9161:9167   */\n      dup1\n        /* \"#utility.yul\":9210:9213   */\n      0x80\n        /* \"#utility.yul\":9198:9207   */\n      dup6\n        /* \"#utility.yul\":9189:9196   */\n      dup8\n        /* \"#utility.yul\":9185:9208   */\n      sub\n        /* \"#utility.yul\":9181:9214   */\n      slt\n        /* \"#utility.yul\":9178:9298   */\n      iszero\n      tag_388\n      jumpi\n        /* \"#utility.yul\":9217:9296   */\n      tag_389\n      tag_239\n      jump\t// in\n    tag_389:\n        /* \"#utility.yul\":9178:9298   */\n    tag_388:\n        /* \"#utility.yul\":9337:9338   */\n      0x00\n        /* \"#utility.yul\":9362:9415   */\n      tag_390\n        /* \"#utility.yul\":9407:9414   */\n      dup8\n        /* \"#utility.yul\":9398:9404   */\n      dup3\n        /* \"#utility.yul\":9387:9396   */\n      dup9\n        /* \"#utility.yul\":9383:9405   */\n      add\n        /* \"#utility.yul\":9362:9415   */\n      tag_258\n      jump\t// in\n    tag_390:\n        /* \"#utility.yul\":9352:9415   */\n      swap5\n      pop\n        /* \"#utility.yul\":9308:9425   */\n      pop\n        /* \"#utility.yul\":9464:9466   */\n      0x20\n        /* \"#utility.yul\":9490:9543   */\n      tag_391\n        /* \"#utility.yul\":9535:9542   */\n      dup8\n        /* \"#utility.yul\":9526:9532   */\n      dup3\n        /* \"#utility.yul\":9515:9524   */\n      dup9\n        /* \"#utility.yul\":9511:9533   */\n      add\n        /* \"#utility.yul\":9490:9543   */\n      tag_258\n      jump\t// in\n    tag_391:\n        /* \"#utility.yul\":9480:9543   */\n      swap4\n      pop\n        /* \"#utility.yul\":9435:9553   */\n      pop\n        /* \"#utility.yul\":9592:9594   */\n      0x40\n        /* \"#utility.yul\":9618:9671   */\n      tag_392\n        /* \"#utility.yul\":9663:9670   */\n      dup8\n        /* \"#utility.yul\":9654:9660   */\n      dup3\n        /* \"#utility.yul\":9643:9652   */\n      dup9\n        /* \"#utility.yul\":9639:9661   */\n      add\n        /* \"#utility.yul\":9618:9671   */\n      tag_253\n      jump\t// in\n    tag_392:\n        /* \"#utility.yul\":9608:9671   */\n      swap3\n      pop\n        /* \"#utility.yul\":9563:9681   */\n      pop\n        /* \"#utility.yul\":9748:9750   */\n      0x60\n        /* \"#utility.yul\":9737:9746   */\n      dup6\n        /* \"#utility.yul\":9733:9751   */\n      add\n        /* \"#utility.yul\":9720:9752   */\n      calldataload\n        /* \"#utility.yul\":9779:9797   */\n      0xffffffffffffffff\n        /* \"#utility.yul\":9771:9777   */\n      dup2\n        /* \"#utility.yul\":9768:9798   */\n      gt\n        /* \"#utility.yul\":9765:9882   */\n      iszero\n      tag_393\n      jumpi\n        /* \"#utility.yul\":9801:9880   */\n      tag_394\n      tag_240\n      jump\t// in\n    tag_394:\n        /* \"#utility.yul\":9765:9882   */\n    tag_393:\n        /* \"#utility.yul\":9906:9968   */\n      tag_395\n        /* \"#utility.yul\":9960:9967   */\n      dup8\n        /* \"#utility.yul\":9951:9957   */\n      dup3\n        /* \"#utility.yul\":9940:9949   */\n      dup9\n        /* \"#utility.yul\":9936:9958   */\n      add\n        /* \"#utility.yul\":9906:9968   */\n      tag_270\n      jump\t// in\n    tag_395:\n        /* \"#utility.yul\":9896:9968   */\n      swap2\n      pop\n        /* \"#utility.yul\":9691:9978   */\n      pop\n        /* \"#utility.yul\":9042:9985   */\n      swap3\n      swap6\n      swap2\n      swap5\n      pop\n      swap3\n      pop\n      jump\t// out\n        /* \"#utility.yul\":9991:10465   */\n    tag_90:\n        /* \"#utility.yul\":10059:10065   */\n      0x00\n        /* \"#utility.yul\":10067:10073   */\n      dup1\n        /* \"#utility.yul\":10116:10118   */\n      0x40\n        /* \"#utility.yul\":10104:10113   */\n      dup4\n        /* \"#utility.yul\":10095:10102   */\n      dup6\n        /* \"#utility.yul\":10091:10114   */\n      sub\n        /* \"#utility.yul\":10087:10119   */\n      slt\n        /* \"#utility.yul\":10084:10203   */\n      iszero\n      tag_397\n      jumpi\n        /* \"#utility.yul\":10122:10201   */\n      tag_398\n      tag_239\n      jump\t// in\n    tag_398:\n        /* \"#utility.yul\":10084:10203   */\n    tag_397:\n        /* \"#utility.yul\":10242:10243   */\n      0x00\n        /* \"#utility.yul\":10267:10320   */\n      tag_399\n        /* \"#utility.yul\":10312:10319   */\n      dup6\n        /* \"#utility.yul\":10303:10309   */\n      dup3\n        /* \"#utility.yul\":10292:10301   */\n      dup7\n        /* \"#utility.yul\":10288:10310   */\n      add\n        /* \"#utility.yul\":10267:10320   */\n      tag_258\n      jump\t// in\n    tag_399:\n        /* \"#utility.yul\":10257:10320   */\n      swap3\n      pop\n        /* \"#utility.yul\":10213:10330   */\n      pop\n        /* \"#utility.yul\":10369:10371   */\n      0x20\n        /* \"#utility.yul\":10395:10448   */\n      tag_400\n        /* \"#utility.yul\":10440:10447   */\n      dup6\n        /* \"#utility.yul\":10431:10437   */\n      dup3\n        /* \"#utility.yul\":10420:10429   */\n      dup7\n        /* \"#utility.yul\":10416:10438   */\n      add\n        /* \"#utility.yul\":10395:10448   */\n      tag_258\n      jump\t// in\n    tag_400:\n        /* \"#utility.yul\":10385:10448   */\n      swap2\n      pop\n        /* \"#utility.yul\":10340:10458   */\n      pop\n        /* \"#utility.yul\":9991:10465   */\n      swap3\n      pop\n      swap3\n      swap1\n      pop\n      jump\t// out\n        /* \"#utility.yul\":10471:10651   */\n    tag_271:\n        /* \"#utility.yul\":10519:10596   */\n      0x4e487b7100000000000000000000000000000000000000000000000000000000\n        /* \"#utility.yul\":10516:10517   */\n      0x00\n        /* \"#utility.yul\":10509:10597   */\n      mstore\n        /* \"#utility.yul\":10616:10620   */\n      0x22\n        /* \"#utility.yul\":10613:10614   */\n      0x04\n        /* \"#utility.yul\":10606:10621   */\n      mstore\n        /* \"#utility.yul\":10640:10644   */\n      0x24\n        /* \"#utility.yul\":10637:10638   */\n      0x00\n        /* \"#utility.yul\":10630:10645   */\n      revert\n        /* \"#utility.yul\":10657:10977   */\n    tag_98:\n        /* \"#utility.yul\":10701:10707   */\n      0x00\n        /* \"#utility.yul\":10738:10739   */\n      0x02\n        /* \"#utility.yul\":10732:10736   */\n      dup3\n        /* \"#utility.yul\":10728:10740   */\n      div\n        /* \"#utility.yul\":10718:10740   */\n      swap1\n      pop\n        /* \"#utility.yul\":10785:10786   */\n      0x01\n        /* \"#utility.yul\":10779:10783   */\n      dup3\n        /* \"#utility.yul\":10775:10787   */\n      and\n        /* \"#utility.yul\":10806:10824   */\n      dup1\n        /* \"#utility.yul\":10796:10877   */\n      tag_403\n      jumpi\n        /* \"#utility.yul\":10862:10866   */\n      0x7f\n        /* \"#utility.yul\":10854:10860   */\n      dup3\n        /* \"#utility.yul\":10850:10867   */\n      and\n        /* \"#utility.yul\":10840:10867   */\n      swap2\n      pop\n        /* \"#utility.yul\":10796:10877   */\n    tag_403:\n        /* \"#utility.yul\":10924:10926   */\n      0x20\n        /* \"#utility.yul\":10916:10922   */\n      dup3\n        /* \"#utility.yul\":10913:10927   */\n      lt\n        /* \"#utility.yul\":10893:10911   */\n      dup2\n        /* \"#utility.yul\":10890:10928   */\n      sub\n        /* \"#utility.yul\":10887:10971   */\n      tag_404\n      jumpi\n        /* \"#utility.yul\":10943:10961   */\n      tag_405\n      tag_271\n      jump\t// in\n    tag_405:\n        /* \"#utility.yul\":10887:10971   */\n    tag_404:\n        /* \"#utility.yul\":10708:10977   */\n      pop\n        /* \"#utility.yul\":10657:10977   */\n      swap2\n      swap1\n      pop\n      jump\t// out\n        /* \"#utility.yul\":10983:11131   */\n    tag_272:\n        /* \"#utility.yul\":11085:11096   */\n      0x00\n        /* \"#utility.yul\":11122:11125   */\n      dup2\n        /* \"#utility.yul\":11107:11125   */\n      swap1\n      pop\n        /* \"#utility.yul\":10983:11131   */\n      swap3\n      swap2\n      pop\n      pop\n      jump\t// out\n        /* \"#utility.yul\":11137:11527   */\n    tag_273:\n        /* \"#utility.yul\":11243:11246   */\n      0x00\n        /* \"#utility.yul\":11271:11310   */\n      tag_408\n        /* \"#utility.yul\":11304:11309   */\n      dup3\n        /* \"#utility.yul\":11271:11310   */\n      tag_246\n      jump\t// in\n    tag_408:\n        /* \"#utility.yul\":11326:11415   */\n      tag_409\n        /* \"#utility.yul\":11408:11414   */\n      dup2\n        /* \"#utility.yul\":11403:11406   */\n      dup6\n        /* \"#utility.yul\":11326:11415   */\n      tag_272\n      jump\t// in\n    tag_409:\n        /* \"#utility.yul\":11319:11415   */\n      swap4\n      pop\n        /* \"#utility.yul\":11424:11489   */\n      tag_410\n        /* \"#utility.yul\":11482:11488   */\n      dup2\n        /* \"#utility.yul\":11477:11480   */\n      dup6\n        /* \"#utility.yul\":11470:11474   */\n      0x20\n        /* \"#utility.yul\":11463:11468   */\n      dup7\n        /* \"#utility.yul\":11459:11475   */\n      add\n        /* \"#utility.yul\":11424:11489   */\n      tag_248\n      jump\t// in\n    tag_410:\n        /* \"#utility.yul\":11514:11520   */\n      dup1\n        /* \"#utility.yul\":11509:11512   */\n      dup5\n        /* \"#utility.yul\":11505:11521   */\n      add\n        /* \"#utility.yul\":11498:11521   */\n      swap2\n      pop\n        /* \"#utility.yul\":11247:11527   */\n      pop\n        /* \"#utility.yul\":11137:11527   */\n      swap3\n      swap2\n      pop\n      pop\n      jump\t// out\n        /* \"#utility.yul\":11533:11968   */\n    tag_179:\n        /* \"#utility.yul\":11713:11716   */\n      0x00\n        /* \"#utility.yul\":11735:11830   */\n      tag_412\n        /* \"#utility.yul\":11826:11829   */\n      dup3\n        /* \"#utility.yul\":11817:11823   */\n      dup6\n        /* \"#utility.yul\":11735:11830   */\n      tag_273\n      jump\t// in\n    tag_412:\n        /* \"#utility.yul\":11728:11830   */\n      swap2\n      pop\n        /* \"#utility.yul\":11847:11942   */\n      tag_413\n        /* \"#utility.yul\":11938:11941   */\n      dup3\n        /* \"#utility.yul\":11929:11935   */\n      dup5\n        /* \"#utility.yul\":11847:11942   */\n      tag_273\n      jump\t// in\n    tag_413:\n        /* \"#utility.yul\":11840:11942   */\n      swap2\n      pop\n        /* \"#utility.yul\":11959:11962   */\n      dup2\n        /* \"#utility.yul\":11952:11962   */\n      swap1\n      pop\n        /* \"#utility.yul\":11533:11968   */\n      swap4\n      swap3\n      pop\n      pop\n      pop\n      jump\t// out\n        /* \"#utility.yul\":11974:12072   */\n    tag_274:\n        /* \"#utility.yul\":12025:12031   */\n      0x00\n        /* \"#utility.yul\":12059:12064   */\n      dup2\n        /* \"#utility.yul\":12053:12065   */\n      mload\n        /* \"#utility.yul\":12043:12065   */\n      swap1\n      pop\n        /* \"#utility.yul\":11974:12072   */\n      swap2\n      swap1\n      pop\n      jump\t// out\n        /* \"#utility.yul\":12078:12246   */\n    tag_275:\n        /* \"#utility.yul\":12161:12172   */\n      0x00\n        /* \"#utility.yul\":12195:12201   */\n      dup3\n        /* \"#utility.yul\":12190:12193   */\n      dup3\n        /* \"#utility.yul\":12183:12202   */\n      mstore\n        /* \"#utility.yul\":12235:12239   */\n      0x20\n        /* \"#utility.yul\":12230:12233   */\n      dup3\n        /* \"#utility.yul\":12226:12240   */\n      add\n        /* \"#utility.yul\":12211:12240   */\n      swap1\n      pop\n        /* \"#utility.yul\":12078:12246   */\n      swap3\n      swap2\n      pop\n      pop\n      jump\t// out\n        /* \"#utility.yul\":12252:12625   */\n    tag_276:\n        /* \"#utility.yul\":12338:12341   */\n      0x00\n        /* \"#utility.yul\":12366:12404   */\n      tag_417\n        /* \"#utility.yul\":12398:12403   */\n      dup3\n        /* \"#utility.yul\":12366:12404   */\n      tag_274\n      jump\t// in\n    tag_417:\n        /* \"#utility.yul\":12420:12490   */\n      tag_418\n        /* \"#utility.yul\":12483:12489   */\n      dup2\n        /* \"#utility.yul\":12478:12481   */\n      dup6\n        /* \"#utility.yul\":12420:12490   */\n      tag_275\n      jump\t// in\n    tag_418:\n        /* \"#utility.yul\":12413:12490   */\n      swap4\n      pop\n        /* \"#utility.yul\":12499:12564   */\n      tag_419\n        /* \"#utility.yul\":12557:12563   */\n      dup2\n        /* \"#utility.yul\":12552:12555   */\n      dup6\n        /* \"#utility.yul\":12545:12549   */\n      0x20\n        /* \"#utility.yul\":12538:12543   */\n      dup7\n        /* \"#utility.yul\":12534:12550   */\n      add\n        /* \"#utility.yul\":12499:12564   */\n      tag_248\n      jump\t// in\n    tag_419:\n        /* \"#utility.yul\":12589:12618   */\n      tag_420\n        /* \"#utility.yul\":12611:12617   */\n      dup2\n        /* \"#utility.yul\":12589:12618   */\n      tag_249\n      jump\t// in\n    tag_420:\n        /* \"#utility.yul\":12584:12587   */\n      dup5\n        /* \"#utility.yul\":12580:12619   */\n      add\n        /* \"#utility.yul\":12573:12619   */\n      swap2\n      pop\n        /* \"#utility.yul\":12342:12625   */\n      pop\n        /* \"#utility.yul\":12252:12625   */\n      swap3\n      swap2\n      pop\n      pop\n      jump\t// out\n        /* \"#utility.yul\":12631:13271   */\n    tag_217:\n        /* \"#utility.yul\":12826:12830   */\n      0x00\n        /* \"#utility.yul\":12864:12867   */\n      0x80\n        /* \"#utility.yul\":12853:12862   */\n      dup3\n        /* \"#utility.yul\":12849:12868   */\n      add\n        /* \"#utility.yul\":12841:12868   */\n      swap1\n      pop\n        /* \"#utility.yul\":12878:12949   */\n      tag_422\n        /* \"#utility.yul\":12946:12947   */\n      0x00\n        /* \"#utility.yul\":12935:12944   */\n      dup4\n        /* \"#utility.yul\":12931:12948   */\n      add\n        /* \"#utility.yul\":12922:12928   */\n      dup8\n        /* \"#utility.yul\":12878:12949   */\n      tag_256\n      jump\t// in\n    tag_422:\n        /* \"#utility.yul\":12959:13031   */\n      tag_423\n        /* \"#utility.yul\":13027:13029   */\n      0x20\n        /* \"#utility.yul\":13016:13025   */\n      dup4\n        /* \"#utility.yul\":13012:13030   */\n      add\n        /* \"#utility.yul\":13003:13009   */\n      dup7\n        /* \"#utility.yul\":12959:13031   */\n      tag_256\n      jump\t// in\n    tag_423:\n        /* \"#utility.yul\":13041:13113   */\n      tag_424\n        /* \"#utility.yul\":13109:13111   */\n      0x40\n        /* \"#utility.yul\":13098:13107   */\n      dup4\n        /* \"#utility.yul\":13094:13112   */\n      add\n        /* \"#utility.yul\":13085:13091   */\n      dup6\n        /* \"#utility.yul\":13041:13113   */\n      tag_259\n      jump\t// in\n    tag_424:\n        /* \"#utility.yul\":13160:13169   */\n      dup2\n        /* \"#utility.yul\":13154:13158   */\n      dup2\n        /* \"#utility.yul\":13150:13170   */\n      sub\n        /* \"#utility.yul\":13145:13147   */\n      0x60\n        /* \"#utility.yul\":13134:13143   */\n      dup4\n        /* \"#utility.yul\":13130:13148   */\n      add\n        /* \"#utility.yul\":13123:13171   */\n      mstore\n        /* \"#utility.yul\":13188:13264   */\n      tag_425\n        /* \"#utility.yul\":13259:13263   */\n      dup2\n        /* \"#utility.yul\":13250:13256   */\n      dup5\n        /* \"#utility.yul\":13188:13264   */\n      tag_276\n      jump\t// in\n    tag_425:\n        /* \"#utility.yul\":13180:13264   */\n      swap1\n      pop\n        /* \"#utility.yul\":12631:13271   */\n      swap6\n      swap5\n      pop\n      pop\n      pop\n      pop\n      pop\n      jump\t// out\n        /* \"#utility.yul\":13277:13418   */\n    tag_277:\n        /* \"#utility.yul\":13333:13338   */\n      0x00\n        /* \"#utility.yul\":13364:13370   */\n      dup2\n        /* \"#utility.yul\":13358:13371   */\n      mload\n        /* \"#utility.yul\":13349:13371   */\n      swap1\n      pop\n        /* \"#utility.yul\":13380:13412   */\n      tag_427\n        /* \"#utility.yul\":13406:13411   */\n      dup2\n        /* \"#utility.yul\":13380:13412   */\n      tag_242\n      jump\t// in\n    tag_427:\n        /* \"#utility.yul\":13277:13418   */\n      swap3\n      swap2\n      pop\n      pop\n      jump\t// out\n        /* \"#utility.yul\":13424:13773   */\n    tag_220:\n        /* \"#utility.yul\":13493:13499   */\n      0x00\n        /* \"#utility.yul\":13542:13544   */\n      0x20\n        /* \"#utility.yul\":13530:13539   */\n      dup3\n        /* \"#utility.yul\":13521:13528   */\n      dup5\n        /* \"#utility.yul\":13517:13540   */\n      sub\n        /* \"#utility.yul\":13513:13545   */\n      slt\n        /* \"#utility.yul\":13510:13629   */\n      iszero\n      tag_429\n      jumpi\n        /* \"#utility.yul\":13548:13627   */\n      tag_430\n      tag_239\n      jump\t// in\n    tag_430:\n        /* \"#utility.yul\":13510:13629   */\n    tag_429:\n        /* \"#utility.yul\":13668:13669   */\n      0x00\n        /* \"#utility.yul\":13693:13756   */\n      tag_431\n        /* \"#utility.yul\":13748:13755   */\n      dup5\n        /* \"#utility.yul\":13739:13745   */\n      dup3\n        /* \"#utility.yul\":13728:13737   */\n      dup6\n        /* \"#utility.yul\":13724:13746   */\n      add\n        /* \"#utility.yul\":13693:13756   */\n      tag_277\n      jump\t// in\n    tag_431:\n        /* \"#utility.yul\":13683:13756   */\n      swap2\n      pop\n        /* \"#utility.yul\":13639:13766   */\n      pop\n        /* \"#utility.yul\":13424:13773   */\n      swap3\n      swap2\n      pop\n      pop\n      jump\t// out\n\n    auxdata: 0xa2646970667358221220e49b2c2d750b19309687b10dec36b21aac047fcb5c68e4a5e28d28a7bc34eb8364736f6c63430008130033\n}\n",
				"bytecode": {
					"linkReferences": {},
					"object": "60806040523480156200001157600080fd5b506040518060400160405280600581526020017f417a756b690000000000000000000000000000000000000000000000000000008152506040518060400160405280600581526020017f415a554b4900000000000000000000000000000000000000000000000000000081525081600290816200008f91906200033f565b508060039081620000a191906200033f565b50620000b2620000c060201b60201c565b600081905550505062000426565b600090565b600081519050919050565b7f4e487b7100000000000000000000000000000000000000000000000000000000600052604160045260246000fd5b7f4e487b7100000000000000000000000000000000000000000000000000000000600052602260045260246000fd5b600060028204905060018216806200014757607f821691505b6020821081036200015d576200015c620000ff565b5b50919050565b60008190508160005260206000209050919050565b60006020601f8301049050919050565b600082821b905092915050565b600060088302620001c77fffffffffffffffffffffffffffffffffffffffffffffffffffffffffffffffff8262000188565b620001d3868362000188565b95508019841693508086168417925050509392505050565b6000819050919050565b6000819050919050565b6000620002206200021a6200021484620001eb565b620001f5565b620001eb565b9050919050565b6000819050919050565b6200023c83620001ff565b620002546200024b8262000227565b84845462000195565b825550505050565b600090565b6200026b6200025c565b6200027881848462000231565b505050565b5b81811015620002a0576200029460008262000261565b6001810190506200027e565b5050565b601f821115620002ef57620002b98162000163565b620002c48462000178565b81016020851015620002d4578190505b620002ec620002e38562000178565b8301826200027d565b50505b505050565b600082821c905092915050565b60006200031460001984600802620002f4565b1980831691505092915050565b60006200032f838362000301565b9150826002028217905092915050565b6200034a82620000c5565b67ffffffffffffffff811115620003665762000365620000d0565b5b6200037282546200012e565b6200037f828285620002a4565b600060209050601f831160018114620003b75760008415620003a2578287015190505b620003ae858262000321565b8655506200041e565b601f198416620003c78662000163565b60005b82811015620003f157848901518255600182019150602085019450602081019050620003ca565b868310156200041157848901516200040d601f89168262000301565b8355505b6001600288020188555050505b505050505050565b611b0a80620004366000396000f3fe6080604052600436106100e85760003560e01c80636352211e1161008a578063a22cb46511610059578063a22cb465146102d2578063b88d4fde146102fb578063c87b56dd14610317578063e985e9c514610354576100e8565b80636352211e1461021157806370a082311461024e57806395d89b411461028b578063a0712d68146102b6576100e8565b8063095ea7b3116100c6578063095ea7b31461019257806318160ddd146101ae57806323b872dd146101d957806342842e0e146101f5576100e8565b806301ffc9a7146100ed57806306fdde031461012a578063081812fc14610155575b600080fd5b3480156100f957600080fd5b50610114600480360381019061010f91906113e3565b610391565b604051610121919061142b565b60405180910390f35b34801561013657600080fd5b5061013f610423565b60405161014c91906114d6565b60405180910390f35b34801561016157600080fd5b5061017c6004803603810190610177919061152e565b6104b5565b604051610189919061159c565b60405180910390f35b6101ac60048036038101906101a791906115e3565b610534565b005b3480156101ba57600080fd5b506101c3610678565b6040516101d09190611632565b60405180910390f35b6101f360048036038101906101ee919061164d565b61068f565b005b61020f600480360381019061020a919061164d565b6109b1565b005b34801561021d57600080fd5b506102386004803603810190610233919061152e565b6109d1565b604051610245919061159c565b60405180910390f35b34801561025a57600080fd5b50610275600480360381019061027091906116a0565b6109e3565b6040516102829190611632565b60405180910390f35b34801561029757600080fd5b506102a0610a9b565b6040516102ad91906114d6565b60405180910390f35b6102d060048036038101906102cb919061152e565b610b2d565b005b3480156102de57600080fd5b506102f960048036038101906102f491906116f9565b610b3a565b005b6103156004803603810190610310919061186e565b610c45565b005b34801561032357600080fd5b5061033e6004803603810190610339919061152e565b610cb8565b60405161034b91906114d6565b60405180910390f35b34801561036057600080fd5b5061037b600480360381019061037691906118f1565b610d56565b604051610388919061142b565b60405180910390f35b60006301ffc9a760e01b827bffffffffffffffffffffffffffffffffffffffffffffffffffffffff191614806103ec57506380ac58cd60e01b827bffffffffffffffffffffffffffffffffffffffffffffffffffffffff1916145b8061041c5750635b5e139f60e01b827bffffffffffffffffffffffffffffffffffffffffffffffffffffffff1916145b9050919050565b60606002805461043290611960565b80601f016020809104026020016040519081016040528092919081815260200182805461045e90611960565b80156104ab5780601f10610480576101008083540402835291602001916104ab565b820191906000526020600020905b81548152906001019060200180831161048e57829003601f168201915b5050505050905090565b60006104c082610dea565b6104f6576040517fcf4700e400000000000000000000000000000000000000000000000000000000815260040160405180910390fd5b6006600083815260200190815260200160002060000160009054906101000a900473ffffffffffffffffffffffffffffffffffffffff169050919050565b600061053f826109d1565b90508073ffffffffffffffffffffffffffffffffffffffff16610560610e49565b73ffffffffffffffffffffffffffffffffffffffff16146105c35761058c81610587610e49565b610d56565b6105c2576040517fcfb3b94200000000000000000000000000000000000000000000000000000000815260040160405180910390fd5b5b826006600084815260200190815260200160002060000160006101000a81548173ffffffffffffffffffffffffffffffffffffffff021916908373ffffffffffffffffffffffffffffffffffffffff160217905550818373ffffffffffffffffffffffffffffffffffffffff168273ffffffffffffffffffffffffffffffffffffffff167f8c5be1e5ebec7d5bd14f71427d1e84f3dd0314c0f7b2291e5b200ac8c7c3b92560405160405180910390a4505050565b6000610682610e51565b6001546000540303905090565b600061069a82610e56565b90508373ffffffffffffffffffffffffffffffffffffffff168173ffffffffffffffffffffffffffffffffffffffff1614610701576040517fa114810000000000000000000000000000000000000000000000000000000000815260040160405180910390fd5b60008061070d84610f22565b91509150610723818761071e610e49565b610f49565b61076f5761073886610733610e49565b610d56565b61076e576040517f59c896be00000000000000000000000000000000000000000000000000000000815260040160405180910390fd5b5b600073ffffffffffffffffffffffffffffffffffffffff168573ffffffffffffffffffffffffffffffffffffffff16036107d5576040517fea553b3400000000000000000000000000000000000000000000000000000000815260040160405180910390fd5b6107e28686866001610f8d565b80156107ed57600082555b600560008773ffffffffffffffffffffffffffffffffffffffff1673ffffffffffffffffffffffffffffffffffffffff168152602001908152602001600020600081546001900391905081905550600560008673ffffffffffffffffffffffffffffffffffffffff1673ffffffffffffffffffffffffffffffffffffffff16815260200190815260200160002060008154600101919050819055506108bb85610897888887610f93565b7c020000000000000000000000000000000000000000000000000000000017610fbb565b600460008681526020019081526020016000208190555060007c0200000000000000000000000000000000000000000000000000000000841603610941576000600185019050600060046000838152602001908152602001600020540361093f57600054811461093e578360046000838152602001908152602001600020819055505b5b505b838573ffffffffffffffffffffffffffffffffffffffff168773ffffffffffffffffffffffffffffffffffffffff167fddf252ad1be2c89b69c2b068fc378daa952ba7f163c4a11628f55a4df523b3ef60405160405180910390a46109a98686866001610fe6565b505050505050565b6109cc83838360405180602001604052806000815250610c45565b505050565b60006109dc82610e56565b9050919050565b60008073ffffffffffffffffffffffffffffffffffffffff168273ffffffffffffffffffffffffffffffffffffffff1603610a4a576040517f8f4eb60400000000000000000000000000000000000000000000000000000000815260040160405180910390fd5b67ffffffffffffffff600560008473ffffffffffffffffffffffffffffffffffffffff1673ffffffffffffffffffffffffffffffffffffffff16815260200190815260200160002054169050919050565b606060038054610aaa90611960565b80601f0160208091040260200160405190810160405280929190818152602001828054610ad690611960565b8015610b235780601f10610af857610100808354040283529160200191610b23565b820191906000526020600020905b815481529060010190602001808311610b0657829003601f168201915b5050505050905090565b610b373382610fec565b50565b8060076000610b47610e49565b73ffffffffffffffffffffffffffffffffffffffff1673ffffffffffffffffffffffffffffffffffffffff16815260200190815260200160002060008473ffffffffffffffffffffffffffffffffffffffff1673ffffffffffffffffffffffffffffffffffffffff16815260200190815260200160002060006101000a81548160ff0219169083151502179055508173ffffffffffffffffffffffffffffffffffffffff16610bf4610e49565b73ffffffffffffffffffffffffffffffffffffffff167f17307eab39ab6107e8899845ad3d59bd9653f200f220920489ca2b5937696c3183604051610c39919061142b565b60405180910390a35050565b610c5084848461068f565b60008373ffffffffffffffffffffffffffffffffffffffff163b14610cb257610c7b848484846111a7565b610cb1576040517fd1a57ed600000000000000000000000000000000000000000000000000000000815260040160405180910390fd5b5b50505050565b6060610cc382610dea565b610cf9576040517fa14c4b5000000000000000000000000000000000000000000000000000000000815260040160405180910390fd5b6000610d036112f7565b90506000815103610d235760405180602001604052806000815250610d4e565b80610d2d8461130e565b604051602001610d3e9291906119cd565b6040516020818303038152906040525b915050919050565b6000600760008473ffffffffffffffffffffffffffffffffffffffff1673ffffffffffffffffffffffffffffffffffffffff16815260200190815260200160002060008373ffffffffffffffffffffffffffffffffffffffff1673ffffffffffffffffffffffffffffffffffffffff16815260200190815260200160002060009054906101000a900460ff16905092915050565b600081610df5610e51565b11158015610e04575060005482105b8015610e42575060007c0100000000000000000000000000000000000000000000000000000000600460008581526020019081526020016000205416145b9050919050565b600033905090565b600090565b60008082905080610e65610e51565b11610eeb57600054811015610eea5760006004600083815260200190815260200160002054905060007c0100000000000000000000000000000000000000000000000000000000821603610ee8575b60008103610ede576004600083600190039350838152602001908152602001600020549050610eb4565b8092505050610f1d565b505b5b6040517fdf2d9b4200000000000000000000000000000000000000000000000000000000815260040160405180910390fd5b919050565b60008060006006600085815260200190815260200160002090508092508254915050915091565b600073ffffffffffffffffffffffffffffffffffffffff8316925073ffffffffffffffffffffffffffffffffffffffff821691508382148383141790509392505050565b50505050565b60008060e883901c905060e8610faa86868461135e565b62ffffff16901b9150509392505050565b600073ffffffffffffffffffffffffffffffffffffffff83169250814260a01b178317905092915050565b50505050565b6000805490506000820361102c576040517fb562e8dd00000000000000000000000000000000000000000000000000000000815260040160405180910390fd5b6110396000848385610f8d565b600160406001901b178202600560008573ffffffffffffffffffffffffffffffffffffffff1673ffffffffffffffffffffffffffffffffffffffff168152602001908152602001600020600082825401925050819055506110b0836110a16000866000610f93565b6110aa85611367565b17610fbb565b6004600083815260200190815260200160002081905550600080838301905073ffffffffffffffffffffffffffffffffffffffff85169150828260007fddf252ad1be2c89b69c2b068fc378daa952ba7f163c4a11628f55a4df523b3ef600080a4600183015b81811461115157808360007fddf252ad1be2c89b69c2b068fc378daa952ba7f163c4a11628f55a4df523b3ef600080a4600181019050611116565b506000820361118c576040517f2e07630000000000000000000000000000000000000000000000000000000000815260040160405180910390fd5b8060008190555050506111a26000848385610fe6565b505050565b60008373ffffffffffffffffffffffffffffffffffffffff1663150b7a026111cd610e49565b8786866040518563ffffffff1660e01b81526004016111ef9493929190611a46565b6020604051808303816000875af192505050801561122b57506040513d601f19601f820116820180604052508101906112289190611aa7565b60015b6112a4573d806000811461125b576040519150601f19603f3d011682016040523d82523d6000602084013e611260565b606091505b50600081510361129c576040517fd1a57ed600000000000000000000000000000000000000000000000000000000815260040160405180910390fd5b805181602001fd5b63150b7a0260e01b7bffffffffffffffffffffffffffffffffffffffffffffffffffffffff1916817bffffffffffffffffffffffffffffffffffffffffffffffffffffffff191614915050949350505050565b606060405180602001604052806000815250905090565b606060a060405101806040526020810391506000825281835b60011561134957600184039350600a81066030018453600a8104905080611327575b50828103602084039350808452505050919050565b60009392505050565b60006001821460e11b9050919050565b6000604051905090565b600080fd5b600080fd5b60007fffffffff0000000000000000000000000000000000000000000000000000000082169050919050565b6113c08161138b565b81146113cb57600080fd5b50565b6000813590506113dd816113b7565b92915050565b6000602082840312156113f9576113f8611381565b5b6000611407848285016113ce565b91505092915050565b60008115159050919050565b61142581611410565b82525050565b6000602082019050611440600083018461141c565b92915050565b600081519050919050565b600082825260208201905092915050565b60005b83811015611480578082015181840152602081019050611465565b60008484015250505050565b6000601f19601f8301169050919050565b60006114a882611446565b6114b28185611451565b93506114c2818560208601611462565b6114cb8161148c565b840191505092915050565b600060208201905081810360008301526114f0818461149d565b905092915050565b6000819050919050565b61150b816114f8565b811461151657600080fd5b50565b60008135905061152881611502565b92915050565b60006020828403121561154457611543611381565b5b600061155284828501611519565b91505092915050565b600073ffffffffffffffffffffffffffffffffffffffff82169050919050565b60006115868261155b565b9050919050565b6115968161157b565b82525050565b60006020820190506115b1600083018461158d565b92915050565b6115c08161157b565b81146115cb57600080fd5b50565b6000813590506115dd816115b7565b92915050565b600080604083850312156115fa576115f9611381565b5b6000611608858286016115ce565b925050602061161985828601611519565b9150509250929050565b61162c816114f8565b82525050565b60006020820190506116476000830184611623565b92915050565b60008060006060848603121561166657611665611381565b5b6000611674868287016115ce565b9350506020611685868287016115ce565b925050604061169686828701611519565b9150509250925092565b6000602082840312156116b6576116b5611381565b5b60006116c4848285016115ce565b91505092915050565b6116d681611410565b81146116e157600080fd5b50565b6000813590506116f3816116cd565b92915050565b600080604083850312156117105761170f611381565b5b600061171e858286016115ce565b925050602061172f858286016116e4565b9150509250929050565b600080fd5b600080fd5b7f4e487b7100000000000000000000000000000000000000000000000000000000600052604160045260246000fd5b61177b8261148c565b810181811067ffffffffffffffff8211171561179a57611799611743565b5b80604052505050565b60006117ad611377565b90506117b98282611772565b919050565b600067ffffffffffffffff8211156117d9576117d8611743565b5b6117e28261148c565b9050602081019050919050565b82818337600083830152505050565b600061181161180c846117be565b6117a3565b90508281526020810184848401111561182d5761182c61173e565b5b6118388482856117ef565b509392505050565b600082601f83011261185557611854611739565b5b81356118658482602086016117fe565b91505092915050565b6000806000806080858703121561188857611887611381565b5b6000611896878288016115ce565b94505060206118a7878288016115ce565b93505060406118b887828801611519565b925050606085013567ffffffffffffffff8111156118d9576118d8611386565b5b6118e587828801611840565b91505092959194509250565b6000806040838503121561190857611907611381565b5b6000611916858286016115ce565b9250506020611927858286016115ce565b9150509250929050565b7f4e487b7100000000000000000000000000000000000000000000000000000000600052602260045260246000fd5b6000600282049050600182168061197857607f821691505b60208210810361198b5761198a611931565b5b50919050565b600081905092915050565b60006119a782611446565b6119b18185611991565b93506119c1818560208601611462565b80840191505092915050565b60006119d9828561199c565b91506119e5828461199c565b91508190509392505050565b600081519050919050565b600082825260208201905092915050565b6000611a18826119f1565b611a2281856119fc565b9350611a32818560208601611462565b611a3b8161148c565b840191505092915050565b6000608082019050611a5b600083018761158d565b611a68602083018661158d565b611a756040830185611623565b8181036060830152611a878184611a0d565b905095945050505050565b600081519050611aa1816113b7565b92915050565b600060208284031215611abd57611abc611381565b5b6000611acb84828501611a92565b9150509291505056fea2646970667358221220e49b2c2d750b19309687b10dec36b21aac047fcb5c68e4a5e28d28a7bc34eb8364736f6c63430008130033",
					"opcodes": "PUSH1 0x80 PUSH1 0x40 MSTORE CALLVALUE DUP1 ISZERO PUSH3 0x11 JUMPI PUSH1 0x0 DUP1 REVERT JUMPDEST POP PUSH1 0x40 MLOAD DUP1 PUSH1 0x40 ADD PUSH1 0x40 MSTORE DUP1 PUSH1 0x5 DUP2 MSTORE PUSH1 0x20 ADD PUSH32 0x417A756B69000000000000000000000000000000000000000000000000000000 DUP2 MSTORE POP PUSH1 0x40 MLOAD DUP1 PUSH1 0x40 ADD PUSH1 0x40 MSTORE DUP1 PUSH1 0x5 DUP2 MSTORE PUSH1 0x20 ADD PUSH32 0x415A554B49000000000000000000000000000000000000000000000000000000 DUP2 MSTORE POP DUP2 PUSH1 0x2 SWAP1 DUP2 PUSH3 0x8F SWAP2 SWAP1 PUSH3 0x33F JUMP JUMPDEST POP DUP1 PUSH1 0x3 SWAP1 DUP2 PUSH3 0xA1 SWAP2 SWAP1 PUSH3 0x33F JUMP JUMPDEST POP PUSH3 0xB2 PUSH3 0xC0 PUSH1 0x20 SHL PUSH1 0x20 SHR JUMP JUMPDEST PUSH1 0x0 DUP2 SWAP1 SSTORE POP POP POP PUSH3 0x426 JUMP JUMPDEST PUSH1 0x0 SWAP1 JUMP JUMPDEST PUSH1 0x0 DUP2 MLOAD SWAP1 POP SWAP2 SWAP1 POP JUMP JUMPDEST PUSH32 0x4E487B7100000000000000000000000000000000000000000000000000000000 PUSH1 0x0 MSTORE PUSH1 0x41 PUSH1 0x4 MSTORE PUSH1 0x24 PUSH1 0x0 REVERT JUMPDEST PUSH32 0x4E487B7100000000000000000000000000000000000000000000000000000000 PUSH1 0x0 MSTORE PUSH1 0x22 PUSH1 0x4 MSTORE PUSH1 0x24 PUSH1 0x0 REVERT JUMPDEST PUSH1 0x0 PUSH1 0x2 DUP3 DIV SWAP1 POP PUSH1 0x1 DUP3 AND DUP1 PUSH3 0x147 JUMPI PUSH1 0x7F DUP3 AND SWAP2 POP JUMPDEST PUSH1 0x20 DUP3 LT DUP2 SUB PUSH3 0x15D JUMPI PUSH3 0x15C PUSH3 0xFF JUMP JUMPDEST JUMPDEST POP SWAP2 SWAP1 POP JUMP JUMPDEST PUSH1 0x0 DUP2 SWAP1 POP DUP2 PUSH1 0x0 MSTORE PUSH1 0x20 PUSH1 0x0 KECCAK256 SWAP1 POP SWAP2 SWAP1 POP JUMP JUMPDEST PUSH1 0x0 PUSH1 0x20 PUSH1 0x1F DUP4 ADD DIV SWAP1 POP SWAP2 SWAP1 POP JUMP JUMPDEST PUSH1 0x0 DUP3 DUP3 SHL SWAP1 POP SWAP3 SWAP2 POP POP JUMP JUMPDEST PUSH1 0x0 PUSH1 0x8 DUP4 MUL PUSH3 0x1C7 PUSH32 0xFFFFFFFFFFFFFFFFFFFFFFFFFFFFFFFFFFFFFFFFFFFFFFFFFFFFFFFFFFFFFFFF DUP3 PUSH3 0x188 JUMP JUMPDEST PUSH3 0x1D3 DUP7 DUP4 PUSH3 0x188 JUMP JUMPDEST SWAP6 POP DUP1 NOT DUP5 AND SWAP4 POP DUP1 DUP7 AND DUP5 OR SWAP3 POP POP POP SWAP4 SWAP3 POP POP POP JUMP JUMPDEST PUSH1 0x0 DUP2 SWAP1 POP SWAP2 SWAP1 POP JUMP JUMPDEST PUSH1 0x0 DUP2 SWAP1 POP SWAP2 SWAP1 POP JUMP JUMPDEST PUSH1 0x0 PUSH3 0x220 PUSH3 0x21A PUSH3 0x214 DUP5 PUSH3 0x1EB JUMP JUMPDEST PUSH3 0x1F5 JUMP JUMPDEST PUSH3 0x1EB JUMP JUMPDEST SWAP1 POP SWAP2 SWAP1 POP JUMP JUMPDEST PUSH1 0x0 DUP2 SWAP1 POP SWAP2 SWAP1 POP JUMP JUMPDEST PUSH3 0x23C DUP4 PUSH3 0x1FF JUMP JUMPDEST PUSH3 0x254 PUSH3 0x24B DUP3 PUSH3 0x227 JUMP JUMPDEST DUP5 DUP5 SLOAD PUSH3 0x195 JUMP JUMPDEST DUP3 SSTORE POP POP POP POP JUMP JUMPDEST PUSH1 0x0 SWAP1 JUMP JUMPDEST PUSH3 0x26B PUSH3 0x25C JUMP JUMPDEST PUSH3 0x278 DUP2 DUP5 DUP5 PUSH3 0x231 JUMP JUMPDEST POP POP POP JUMP JUMPDEST JUMPDEST DUP2 DUP2 LT ISZERO PUSH3 0x2A0 JUMPI PUSH3 0x294 PUSH1 0x0 DUP3 PUSH3 0x261 JUMP JUMPDEST PUSH1 0x1 DUP2 ADD SWAP1 POP PUSH3 0x27E JUMP JUMPDEST POP POP JUMP JUMPDEST PUSH1 0x1F DUP3 GT ISZERO PUSH3 0x2EF JUMPI PUSH3 0x2B9 DUP2 PUSH3 0x163 JUMP JUMPDEST PUSH3 0x2C4 DUP5 PUSH3 0x178 JUMP JUMPDEST DUP2 ADD PUSH1 0x20 DUP6 LT ISZERO PUSH3 0x2D4 JUMPI DUP2 SWAP1 POP JUMPDEST PUSH3 0x2EC PUSH3 0x2E3 DUP6 PUSH3 0x178 JUMP JUMPDEST DUP4 ADD DUP3 PUSH3 0x27D JUMP JUMPDEST POP POP JUMPDEST POP POP POP JUMP JUMPDEST PUSH1 0x0 DUP3 DUP3 SHR SWAP1 POP SWAP3 SWAP2 POP POP JUMP JUMPDEST PUSH1 0x0 PUSH3 0x314 PUSH1 0x0 NOT DUP5 PUSH1 0x8 MUL PUSH3 0x2F4 JUMP JUMPDEST NOT DUP1 DUP4 AND SWAP2 POP POP SWAP3 SWAP2 POP POP JUMP JUMPDEST PUSH1 0x0 PUSH3 0x32F DUP4 DUP4 PUSH3 0x301 JUMP JUMPDEST SWAP2 POP DUP3 PUSH1 0x2 MUL DUP3 OR SWAP1 POP SWAP3 SWAP2 POP POP JUMP JUMPDEST PUSH3 0x34A DUP3 PUSH3 0xC5 JUMP JUMPDEST PUSH8 0xFFFFFFFFFFFFFFFF DUP2 GT ISZERO PUSH3 0x366 JUMPI PUSH3 0x365 PUSH3 0xD0 JUMP JUMPDEST JUMPDEST PUSH3 0x372 DUP3 SLOAD PUSH3 0x12E JUMP JUMPDEST PUSH3 0x37F DUP3 DUP3 DUP6 PUSH3 0x2A4 JUMP JUMPDEST PUSH1 0x0 PUSH1 0x20 SWAP1 POP PUSH1 0x1F DUP4 GT PUSH1 0x1 DUP2 EQ PUSH3 0x3B7 JUMPI PUSH1 0x0 DUP5 ISZERO PUSH3 0x3A2 JUMPI DUP3 DUP8 ADD MLOAD SWAP1 POP JUMPDEST PUSH3 0x3AE DUP6 DUP3 PUSH3 0x321 JUMP JUMPDEST DUP7 SSTORE POP PUSH3 0x41E JUMP JUMPDEST PUSH1 0x1F NOT DUP5 AND PUSH3 0x3C7 DUP7 PUSH3 0x163 JUMP JUMPDEST PUSH1 0x0 JUMPDEST DUP3 DUP2 LT ISZERO PUSH3 0x3F1 JUMPI DUP5 DUP10 ADD MLOAD DUP3 SSTORE PUSH1 0x1 DUP3 ADD SWAP2 POP PUSH1 0x20 DUP6 ADD SWAP5 POP PUSH1 0x20 DUP2 ADD SWAP1 POP PUSH3 0x3CA JUMP JUMPDEST DUP7 DUP4 LT ISZERO PUSH3 0x411 JUMPI DUP5 DUP10 ADD MLOAD PUSH3 0x40D PUSH1 0x1F DUP10 AND DUP3 PUSH3 0x301 JUMP JUMPDEST DUP4 SSTORE POP JUMPDEST PUSH1 0x1 PUSH1 0x2 DUP9 MUL ADD DUP9 SSTORE POP POP POP JUMPDEST POP POP POP POP POP POP JUMP JUMPDEST PUSH2 0x1B0A DUP1 PUSH3 0x436 PUSH1 0x0 CODECOPY PUSH1 0x0 RETURN INVALID PUSH1 0x80 PUSH1 0x40 MSTORE PUSH1 0x4 CALLDATASIZE LT PUSH2 0xE8 JUMPI PUSH1 0x0 CALLDATALOAD PUSH1 0xE0 SHR DUP1 PUSH4 0x6352211E GT PUSH2 0x8A JUMPI DUP1 PUSH4 0xA22CB465 GT PUSH2 0x59 JUMPI DUP1 PUSH4 0xA22CB465 EQ PUSH2 0x2D2 JUMPI DUP1 PUSH4 0xB88D4FDE EQ PUSH2 0x2FB JUMPI DUP1 PUSH4 0xC87B56DD EQ PUSH2 0x317 JUMPI DUP1 PUSH4 0xE985E9C5 EQ PUSH2 0x354 JUMPI PUSH2 0xE8 JUMP JUMPDEST DUP1 PUSH4 0x6352211E EQ PUSH2 0x211 JUMPI DUP1 PUSH4 0x70A08231 EQ PUSH2 0x24E JUMPI DUP1 PUSH4 0x95D89B41 EQ PUSH2 0x28B JUMPI DUP1 PUSH4 0xA0712D68 EQ PUSH2 0x2B6 JUMPI PUSH2 0xE8 JUMP JUMPDEST DUP1 PUSH4 0x95EA7B3 GT PUSH2 0xC6 JUMPI DUP1 PUSH4 0x95EA7B3 EQ PUSH2 0x192 JUMPI DUP1 PUSH4 0x18160DDD EQ PUSH2 0x1AE JUMPI DUP1 PUSH4 0x23B872DD EQ PUSH2 0x1D9 JUMPI DUP1 PUSH4 0x42842E0E EQ PUSH2 0x1F5 JUMPI PUSH2 0xE8 JUMP JUMPDEST DUP1 PUSH4 0x1FFC9A7 EQ PUSH2 0xED JUMPI DUP1 PUSH4 0x6FDDE03 EQ PUSH2 0x12A JUMPI DUP1 PUSH4 0x81812FC EQ PUSH2 0x155 JUMPI JUMPDEST PUSH1 0x0 DUP1 REVERT JUMPDEST CALLVALUE DUP1 ISZERO PUSH2 0xF9 JUMPI PUSH1 0x0 DUP1 REVERT JUMPDEST POP PUSH2 0x114 PUSH1 0x4 DUP1 CALLDATASIZE SUB DUP2 ADD SWAP1 PUSH2 0x10F SWAP2 SWAP1 PUSH2 0x13E3 JUMP JUMPDEST PUSH2 0x391 JUMP JUMPDEST PUSH1 0x40 MLOAD PUSH2 0x121 SWAP2 SWAP1 PUSH2 0x142B JUMP JUMPDEST PUSH1 0x40 MLOAD DUP1 SWAP2 SUB SWAP1 RETURN JUMPDEST CALLVALUE DUP1 ISZERO PUSH2 0x136 JUMPI PUSH1 0x0 DUP1 REVERT JUMPDEST POP PUSH2 0x13F PUSH2 0x423 JUMP JUMPDEST PUSH1 0x40 MLOAD PUSH2 0x14C SWAP2 SWAP1 PUSH2 0x14D6 JUMP JUMPDEST PUSH1 0x40 MLOAD DUP1 SWAP2 SUB SWAP1 RETURN JUMPDEST CALLVALUE DUP1 ISZERO PUSH2 0x161 JUMPI PUSH1 0x0 DUP1 REVERT JUMPDEST POP PUSH2 0x17C PUSH1 0x4 DUP1 CALLDATASIZE SUB DUP2 ADD SWAP1 PUSH2 0x177 SWAP2 SWAP1 PUSH2 0x152E JUMP JUMPDEST PUSH2 0x4B5 JUMP JUMPDEST PUSH1 0x40 MLOAD PUSH2 0x189 SWAP2 SWAP1 PUSH2 0x159C JUMP JUMPDEST PUSH1 0x40 MLOAD DUP1 SWAP2 SUB SWAP1 RETURN JUMPDEST PUSH2 0x1AC PUSH1 0x4 DUP1 CALLDATASIZE SUB DUP2 ADD SWAP1 PUSH2 0x1A7 SWAP2 SWAP1 PUSH2 0x15E3 JUMP JUMPDEST PUSH2 0x534 JUMP JUMPDEST STOP JUMPDEST CALLVALUE DUP1 ISZERO PUSH2 0x1BA JUMPI PUSH1 0x0 DUP1 REVERT JUMPDEST POP PUSH2 0x1C3 PUSH2 0x678 JUMP JUMPDEST PUSH1 0x40 MLOAD PUSH2 0x1D0 SWAP2 SWAP1 PUSH2 0x1632 JUMP JUMPDEST PUSH1 0x40 MLOAD DUP1 SWAP2 SUB SWAP1 RETURN JUMPDEST PUSH2 0x1F3 PUSH1 0x4 DUP1 CALLDATASIZE SUB DUP2 ADD SWAP1 PUSH2 0x1EE SWAP2 SWAP1 PUSH2 0x164D JUMP JUMPDEST PUSH2 0x68F JUMP JUMPDEST STOP JUMPDEST PUSH2 0x20F PUSH1 0x4 DUP1 CALLDATASIZE SUB DUP2 ADD SWAP1 PUSH2 0x20A SWAP2 SWAP1 PUSH2 0x164D JUMP JUMPDEST PUSH2 0x9B1 JUMP JUMPDEST STOP JUMPDEST CALLVALUE DUP1 ISZERO PUSH2 0x21D JUMPI PUSH1 0x0 DUP1 REVERT JUMPDEST POP PUSH2 0x238 PUSH1 0x4 DUP1 CALLDATASIZE SUB DUP2 ADD SWAP1 PUSH2 0x233 SWAP2 SWAP1 PUSH2 0x152E JUMP JUMPDEST PUSH2 0x9D1 JUMP JUMPDEST PUSH1 0x40 MLOAD PUSH2 0x245 SWAP2 SWAP1 PUSH2 0x159C JUMP JUMPDEST PUSH1 0x40 MLOAD DUP1 SWAP2 SUB SWAP1 RETURN JUMPDEST CALLVALUE DUP1 ISZERO PUSH2 0x25A JUMPI PUSH1 0x0 DUP1 REVERT JUMPDEST POP PUSH2 0x275 PUSH1 0x4 DUP1 CALLDATASIZE SUB DUP2 ADD SWAP1 PUSH2 0x270 SWAP2 SWAP1 PUSH2 0x16A0 JUMP JUMPDEST PUSH2 0x9E3 JUMP JUMPDEST PUSH1 0x40 MLOAD PUSH2 0x282 SWAP2 SWAP1 PUSH2 0x1632 JUMP JUMPDEST PUSH1 0x40 MLOAD DUP1 SWAP2 SUB SWAP1 RETURN JUMPDEST CALLVALUE DUP1 ISZERO PUSH2 0x297 JUMPI PUSH1 0x0 DUP1 REVERT JUMPDEST POP PUSH2 0x2A0 PUSH2 0xA9B JUMP JUMPDEST PUSH1 0x40 MLOAD PUSH2 0x2AD SWAP2 SWAP1 PUSH2 0x14D6 JUMP JUMPDEST PUSH1 0x40 MLOAD DUP1 SWAP2 SUB SWAP1 RETURN JUMPDEST PUSH2 0x2D0 PUSH1 0x4 DUP1 CALLDATASIZE SUB DUP2 ADD SWAP1 PUSH2 0x2CB SWAP2 SWAP1 PUSH2 0x152E JUMP JUMPDEST PUSH2 0xB2D JUMP JUMPDEST STOP JUMPDEST CALLVALUE DUP1 ISZERO PUSH2 0x2DE JUMPI PUSH1 0x0 DUP1 REVERT JUMPDEST POP PUSH2 0x2F9 PUSH1 0x4 DUP1 CALLDATASIZE SUB DUP2 ADD SWAP1 PUSH2 0x2F4 SWAP2 SWAP1 PUSH2 0x16F9 JUMP JUMPDEST PUSH2 0xB3A JUMP JUMPDEST STOP JUMPDEST PUSH2 0x315 PUSH1 0x4 DUP1 CALLDATASIZE SUB DUP2 ADD SWAP1 PUSH2 0x310 SWAP2 SWAP1 PUSH2 0x186E JUMP JUMPDEST PUSH2 0xC45 JUMP JUMPDEST STOP JUMPDEST CALLVALUE DUP1 ISZERO PUSH2 0x323 JUMPI PUSH1 0x0 DUP1 REVERT JUMPDEST POP PUSH2 0x33E PUSH1 0x4 DUP1 CALLDATASIZE SUB DUP2 ADD SWAP1 PUSH2 0x339 SWAP2 SWAP1 PUSH2 0x152E JUMP JUMPDEST PUSH2 0xCB8 JUMP JUMPDEST PUSH1 0x40 MLOAD PUSH2 0x34B SWAP2 SWAP1 PUSH2 0x14D6 JUMP JUMPDEST PUSH1 0x40 MLOAD DUP1 SWAP2 SUB SWAP1 RETURN JUMPDEST CALLVALUE DUP1 ISZERO PUSH2 0x360 JUMPI PUSH1 0x0 DUP1 REVERT JUMPDEST POP PUSH2 0x37B PUSH1 0x4 DUP1 CALLDATASIZE SUB DUP2 ADD SWAP1 PUSH2 0x376 SWAP2 SWAP1 PUSH2 0x18F1 JUMP JUMPDEST PUSH2 0xD56 JUMP JUMPDEST PUSH1 0x40 MLOAD PUSH2 0x388 SWAP2 SWAP1 PUSH2 0x142B JUMP JUMPDEST PUSH1 0x40 MLOAD DUP1 SWAP2 SUB SWAP1 RETURN JUMPDEST PUSH1 0x0 PUSH4 0x1FFC9A7 PUSH1 0xE0 SHL DUP3 PUSH28 0xFFFFFFFFFFFFFFFFFFFFFFFFFFFFFFFFFFFFFFFFFFFFFFFFFFFFFFFF NOT AND EQ DUP1 PUSH2 0x3EC JUMPI POP PUSH4 0x80AC58CD PUSH1 0xE0 SHL DUP3 PUSH28 0xFFFFFFFFFFFFFFFFFFFFFFFFFFFFFFFFFFFFFFFFFFFFFFFFFFFFFFFF NOT AND EQ JUMPDEST DUP1 PUSH2 0x41C JUMPI POP PUSH4 0x5B5E139F PUSH1 0xE0 SHL DUP3 PUSH28 0xFFFFFFFFFFFFFFFFFFFFFFFFFFFFFFFFFFFFFFFFFFFFFFFFFFFFFFFF NOT AND EQ JUMPDEST SWAP1 POP SWAP2 SWAP1 POP JUMP JUMPDEST PUSH1 0x60 PUSH1 0x2 DUP1 SLOAD PUSH2 0x432 SWAP1 PUSH2 0x1960 JUMP JUMPDEST DUP1 PUSH1 0x1F ADD PUSH1 0x20 DUP1 SWAP2 DIV MUL PUSH1 0x20 ADD PUSH1 0x40 MLOAD SWAP1 DUP2 ADD PUSH1 0x40 MSTORE DUP1 SWAP3 SWAP2 SWAP1 DUP2 DUP2 MSTORE PUSH1 0x20 ADD DUP3 DUP1 SLOAD PUSH2 0x45E SWAP1 PUSH2 0x1960 JUMP JUMPDEST DUP1 ISZERO PUSH2 0x4AB JUMPI DUP1 PUSH1 0x1F LT PUSH2 0x480 JUMPI PUSH2 0x100 DUP1 DUP4 SLOAD DIV MUL DUP4 MSTORE SWAP2 PUSH1 0x20 ADD SWAP2 PUSH2 0x4AB JUMP JUMPDEST DUP3 ADD SWAP2 SWAP1 PUSH1 0x0 MSTORE PUSH1 0x20 PUSH1 0x0 KECCAK256 SWAP1 JUMPDEST DUP2 SLOAD DUP2 MSTORE SWAP1 PUSH1 0x1 ADD SWAP1 PUSH1 0x20 ADD DUP1 DUP4 GT PUSH2 0x48E JUMPI DUP3 SWAP1 SUB PUSH1 0x1F AND DUP3 ADD SWAP2 JUMPDEST POP POP POP POP POP SWAP1 POP SWAP1 JUMP JUMPDEST PUSH1 0x0 PUSH2 0x4C0 DUP3 PUSH2 0xDEA JUMP JUMPDEST PUSH2 0x4F6 JUMPI PUSH1 0x40 MLOAD PUSH32 0xCF4700E400000000000000000000000000000000000000000000000000000000 DUP2 MSTORE PUSH1 0x4 ADD PUSH1 0x40 MLOAD DUP1 SWAP2 SUB SWAP1 REVERT JUMPDEST PUSH1 0x6 PUSH1 0x0 DUP4 DUP2 MSTORE PUSH1 0x20 ADD SWAP1 DUP2 MSTORE PUSH1 0x20 ADD PUSH1 0x0 KECCAK256 PUSH1 0x0 ADD PUSH1 0x0 SWAP1 SLOAD SWAP1 PUSH2 0x100 EXP SWAP1 DIV PUSH20 0xFFFFFFFFFFFFFFFFFFFFFFFFFFFFFFFFFFFFFFFF AND SWAP1 POP SWAP2 SWAP1 POP JUMP JUMPDEST PUSH1 0x0 PUSH2 0x53F DUP3 PUSH2 0x9D1 JUMP JUMPDEST SWAP1 POP DUP1 PUSH20 0xFFFFFFFFFFFFFFFFFFFFFFFFFFFFFFFFFFFFFFFF AND PUSH2 0x560 PUSH2 0xE49 JUMP JUMPDEST PUSH20 0xFFFFFFFFFFFFFFFFFFFFFFFFFFFFFFFFFFFFFFFF AND EQ PUSH2 0x5C3 JUMPI PUSH2 0x58C DUP2 PUSH2 0x587 PUSH2 0xE49 JUMP JUMPDEST PUSH2 0xD56 JUMP JUMPDEST PUSH2 0x5C2 JUMPI PUSH1 0x40 MLOAD PUSH32 0xCFB3B94200000000000000000000000000000000000000000000000000000000 DUP2 MSTORE PUSH1 0x4 ADD PUSH1 0x40 MLOAD DUP1 SWAP2 SUB SWAP1 REVERT JUMPDEST JUMPDEST DUP3 PUSH1 0x6 PUSH1 0x0 DUP5 DUP2 MSTORE PUSH1 0x20 ADD SWAP1 DUP2 MSTORE PUSH1 0x20 ADD PUSH1 0x0 KECCAK256 PUSH1 0x0 ADD PUSH1 0x0 PUSH2 0x100 EXP DUP2 SLOAD DUP2 PUSH20 0xFFFFFFFFFFFFFFFFFFFFFFFFFFFFFFFFFFFFFFFF MUL NOT AND SWAP1 DUP4 PUSH20 0xFFFFFFFFFFFFFFFFFFFFFFFFFFFFFFFFFFFFFFFF AND MUL OR SWAP1 SSTORE POP DUP2 DUP4 PUSH20 0xFFFFFFFFFFFFFFFFFFFFFFFFFFFFFFFFFFFFFFFF AND DUP3 PUSH20 0xFFFFFFFFFFFFFFFFFFFFFFFFFFFFFFFFFFFFFFFF AND PUSH32 0x8C5BE1E5EBEC7D5BD14F71427D1E84F3DD0314C0F7B2291E5B200AC8C7C3B925 PUSH1 0x40 MLOAD PUSH1 0x40 MLOAD DUP1 SWAP2 SUB SWAP1 LOG4 POP POP POP JUMP JUMPDEST PUSH1 0x0 PUSH2 0x682 PUSH2 0xE51 JUMP JUMPDEST PUSH1 0x1 SLOAD PUSH1 0x0 SLOAD SUB SUB SWAP1 POP SWAP1 JUMP JUMPDEST PUSH1 0x0 PUSH2 0x69A DUP3 PUSH2 0xE56 JUMP JUMPDEST SWAP1 POP DUP4 PUSH20 0xFFFFFFFFFFFFFFFFFFFFFFFFFFFFFFFFFFFFFFFF AND DUP2 PUSH20 0xFFFFFFFFFFFFFFFFFFFFFFFFFFFFFFFFFFFFFFFF AND EQ PUSH2 0x701 JUMPI PUSH1 0x40 MLOAD PUSH32 0xA114810000000000000000000000000000000000000000000000000000000000 DUP2 MSTORE PUSH1 0x4 ADD PUSH1 0x40 MLOAD DUP1 SWAP2 SUB SWAP1 REVERT JUMPDEST PUSH1 0x0 DUP1 PUSH2 0x70D DUP5 PUSH2 0xF22 JUMP JUMPDEST SWAP2 POP SWAP2 POP PUSH2 0x723 DUP2 DUP8 PUSH2 0x71E PUSH2 0xE49 JUMP JUMPDEST PUSH2 0xF49 JUMP JUMPDEST PUSH2 0x76F JUMPI PUSH2 0x738 DUP7 PUSH2 0x733 PUSH2 0xE49 JUMP JUMPDEST PUSH2 0xD56 JUMP JUMPDEST PUSH2 0x76E JUMPI PUSH1 0x40 MLOAD PUSH32 0x59C896BE00000000000000000000000000000000000000000000000000000000 DUP2 MSTORE PUSH1 0x4 ADD PUSH1 0x40 MLOAD DUP1 SWAP2 SUB SWAP1 REVERT JUMPDEST JUMPDEST PUSH1 0x0 PUSH20 0xFFFFFFFFFFFFFFFFFFFFFFFFFFFFFFFFFFFFFFFF AND DUP6 PUSH20 0xFFFFFFFFFFFFFFFFFFFFFFFFFFFFFFFFFFFFFFFF AND SUB PUSH2 0x7D5 JUMPI PUSH1 0x40 MLOAD PUSH32 0xEA553B3400000000000000000000000000000000000000000000000000000000 DUP2 MSTORE PUSH1 0x4 ADD PUSH1 0x40 MLOAD DUP1 SWAP2 SUB SWAP1 REVERT JUMPDEST PUSH2 0x7E2 DUP7 DUP7 DUP7 PUSH1 0x1 PUSH2 0xF8D JUMP JUMPDEST DUP1 ISZERO PUSH2 0x7ED JUMPI PUSH1 0x0 DUP3 SSTORE JUMPDEST PUSH1 0x5 PUSH1 0x0 DUP8 PUSH20 0xFFFFFFFFFFFFFFFFFFFFFFFFFFFFFFFFFFFFFFFF AND PUSH20 0xFFFFFFFFFFFFFFFFFFFFFFFFFFFFFFFFFFFFFFFF AND DUP2 MSTORE PUSH1 0x20 ADD SWAP1 DUP2 MSTORE PUSH1 0x20 ADD PUSH1 0x0 KECCAK256 PUSH1 0x0 DUP2 SLOAD PUSH1 0x1 SWAP1 SUB SWAP2 SWAP1 POP DUP2 SWAP1 SSTORE POP PUSH1 0x5 PUSH1 0x0 DUP7 PUSH20 0xFFFFFFFFFFFFFFFFFFFFFFFFFFFFFFFFFFFFFFFF AND PUSH20 0xFFFFFFFFFFFFFFFFFFFFFFFFFFFFFFFFFFFFFFFF AND DUP2 MSTORE PUSH1 0x20 ADD SWAP1 DUP2 MSTORE PUSH1 0x20 ADD PUSH1 0x0 KECCAK256 PUSH1 0x0 DUP2 SLOAD PUSH1 0x1 ADD SWAP2 SWAP1 POP DUP2 SWAP1 SSTORE POP PUSH2 0x8BB DUP6 PUSH2 0x897 DUP9 DUP9 DUP8 PUSH2 0xF93 JUMP JUMPDEST PUSH29 0x200000000000000000000000000000000000000000000000000000000 OR PUSH2 0xFBB JUMP JUMPDEST PUSH1 0x4 PUSH1 0x0 DUP7 DUP2 MSTORE PUSH1 0x20 ADD SWAP1 DUP2 MSTORE PUSH1 0x20 ADD PUSH1 0x0 KECCAK256 DUP2 SWAP1 SSTORE POP PUSH1 0x0 PUSH29 0x200000000000000000000000000000000000000000000000000000000 DUP5 AND SUB PUSH2 0x941 JUMPI PUSH1 0x0 PUSH1 0x1 DUP6 ADD SWAP1 POP PUSH1 0x0 PUSH1 0x4 PUSH1 0x0 DUP4 DUP2 MSTORE PUSH1 0x20 ADD SWAP1 DUP2 MSTORE PUSH1 0x20 ADD PUSH1 0x0 KECCAK256 SLOAD SUB PUSH2 0x93F JUMPI PUSH1 0x0 SLOAD DUP2 EQ PUSH2 0x93E JUMPI DUP4 PUSH1 0x4 PUSH1 0x0 DUP4 DUP2 MSTORE PUSH1 0x20 ADD SWAP1 DUP2 MSTORE PUSH1 0x20 ADD PUSH1 0x0 KECCAK256 DUP2 SWAP1 SSTORE POP JUMPDEST JUMPDEST POP JUMPDEST DUP4 DUP6 PUSH20 0xFFFFFFFFFFFFFFFFFFFFFFFFFFFFFFFFFFFFFFFF AND DUP8 PUSH20 0xFFFFFFFFFFFFFFFFFFFFFFFFFFFFFFFFFFFFFFFF AND PUSH32 0xDDF252AD1BE2C89B69C2B068FC378DAA952BA7F163C4A11628F55A4DF523B3EF PUSH1 0x40 MLOAD PUSH1 0x40 MLOAD DUP1 SWAP2 SUB SWAP1 LOG4 PUSH2 0x9A9 DUP7 DUP7 DUP7 PUSH1 0x1 PUSH2 0xFE6 JUMP JUMPDEST POP POP POP POP POP POP JUMP JUMPDEST PUSH2 0x9CC DUP4 DUP4 DUP4 PUSH1 0x40 MLOAD DUP1 PUSH1 0x20 ADD PUSH1 0x40 MSTORE DUP1 PUSH1 0x0 DUP2 MSTORE POP PUSH2 0xC45 JUMP JUMPDEST POP POP POP JUMP JUMPDEST PUSH1 0x0 PUSH2 0x9DC DUP3 PUSH2 0xE56 JUMP JUMPDEST SWAP1 POP SWAP2 SWAP1 POP JUMP JUMPDEST PUSH1 0x0 DUP1 PUSH20 0xFFFFFFFFFFFFFFFFFFFFFFFFFFFFFFFFFFFFFFFF AND DUP3 PUSH20 0xFFFFFFFFFFFFFFFFFFFFFFFFFFFFFFFFFFFFFFFF AND SUB PUSH2 0xA4A JUMPI PUSH1 0x40 MLOAD PUSH32 0x8F4EB60400000000000000000000000000000000000000000000000000000000 DUP2 MSTORE PUSH1 0x4 ADD PUSH1 0x40 MLOAD DUP1 SWAP2 SUB SWAP1 REVERT JUMPDEST PUSH8 0xFFFFFFFFFFFFFFFF PUSH1 0x5 PUSH1 0x0 DUP5 PUSH20 0xFFFFFFFFFFFFFFFFFFFFFFFFFFFFFFFFFFFFFFFF AND PUSH20 0xFFFFFFFFFFFFFFFFFFFFFFFFFFFFFFFFFFFFFFFF AND DUP2 MSTORE PUSH1 0x20 ADD SWAP1 DUP2 MSTORE PUSH1 0x20 ADD PUSH1 0x0 KECCAK256 SLOAD AND SWAP1 POP SWAP2 SWAP1 POP JUMP JUMPDEST PUSH1 0x60 PUSH1 0x3 DUP1 SLOAD PUSH2 0xAAA SWAP1 PUSH2 0x1960 JUMP JUMPDEST DUP1 PUSH1 0x1F ADD PUSH1 0x20 DUP1 SWAP2 DIV MUL PUSH1 0x20 ADD PUSH1 0x40 MLOAD SWAP1 DUP2 ADD PUSH1 0x40 MSTORE DUP1 SWAP3 SWAP2 SWAP1 DUP2 DUP2 MSTORE PUSH1 0x20 ADD DUP3 DUP1 SLOAD PUSH2 0xAD6 SWAP1 PUSH2 0x1960 JUMP JUMPDEST DUP1 ISZERO PUSH2 0xB23 JUMPI DUP1 PUSH1 0x1F LT PUSH2 0xAF8 JUMPI PUSH2 0x100 DUP1 DUP4 SLOAD DIV MUL DUP4 MSTORE SWAP2 PUSH1 0x20 ADD SWAP2 PUSH2 0xB23 JUMP JUMPDEST DUP3 ADD SWAP2 SWAP1 PUSH1 0x0 MSTORE PUSH1 0x20 PUSH1 0x0 KECCAK256 SWAP1 JUMPDEST DUP2 SLOAD DUP2 MSTORE SWAP1 PUSH1 0x1 ADD SWAP1 PUSH1 0x20 ADD DUP1 DUP4 GT PUSH2 0xB06 JUMPI DUP3 SWAP1 SUB PUSH1 0x1F AND DUP3 ADD SWAP2 JUMPDEST POP POP POP POP POP SWAP1 POP SWAP1 JUMP JUMPDEST PUSH2 0xB37 CALLER DUP3 PUSH2 0xFEC JUMP JUMPDEST POP JUMP JUMPDEST DUP1 PUSH1 0x7 PUSH1 0x0 PUSH2 0xB47 PUSH2 0xE49 JUMP JUMPDEST PUSH20 0xFFFFFFFFFFFFFFFFFFFFFFFFFFFFFFFFFFFFFFFF AND PUSH20 0xFFFFFFFFFFFFFFFFFFFFFFFFFFFFFFFFFFFFFFFF AND DUP2 MSTORE PUSH1 0x20 ADD SWAP1 DUP2 MSTORE PUSH1 0x20 ADD PUSH1 0x0 KECCAK256 PUSH1 0x0 DUP5 PUSH20 0xFFFFFFFFFFFFFFFFFFFFFFFFFFFFFFFFFFFFFFFF AND PUSH20 0xFFFFFFFFFFFFFFFFFFFFFFFFFFFFFFFFFFFFFFFF AND DUP2 MSTORE PUSH1 0x20 ADD SWAP1 DUP2 MSTORE PUSH1 0x20 ADD PUSH1 0x0 KECCAK256 PUSH1 0x0 PUSH2 0x100 EXP DUP2 SLOAD DUP2 PUSH1 0xFF MUL NOT AND SWAP1 DUP4 ISZERO ISZERO MUL OR SWAP1 SSTORE POP DUP2 PUSH20 0xFFFFFFFFFFFFFFFFFFFFFFFFFFFFFFFFFFFFFFFF AND PUSH2 0xBF4 PUSH2 0xE49 JUMP JUMPDEST PUSH20 0xFFFFFFFFFFFFFFFFFFFFFFFFFFFFFFFFFFFFFFFF AND PUSH32 0x17307EAB39AB6107E8899845AD3D59BD9653F200F220920489CA2B5937696C31 DUP4 PUSH1 0x40 MLOAD PUSH2 0xC39 SWAP2 SWAP1 PUSH2 0x142B JUMP JUMPDEST PUSH1 0x40 MLOAD DUP1 SWAP2 SUB SWAP1 LOG3 POP POP JUMP JUMPDEST PUSH2 0xC50 DUP5 DUP5 DUP5 PUSH2 0x68F JUMP JUMPDEST PUSH1 0x0 DUP4 PUSH20 0xFFFFFFFFFFFFFFFFFFFFFFFFFFFFFFFFFFFFFFFF AND EXTCODESIZE EQ PUSH2 0xCB2 JUMPI PUSH2 0xC7B DUP5 DUP5 DUP5 DUP5 PUSH2 0x11A7 JUMP JUMPDEST PUSH2 0xCB1 JUMPI PUSH1 0x40 MLOAD PUSH32 0xD1A57ED600000000000000000000000000000000000000000000000000000000 DUP2 MSTORE PUSH1 0x4 ADD PUSH1 0x40 MLOAD DUP1 SWAP2 SUB SWAP1 REVERT JUMPDEST JUMPDEST POP POP POP POP JUMP JUMPDEST PUSH1 0x60 PUSH2 0xCC3 DUP3 PUSH2 0xDEA JUMP JUMPDEST PUSH2 0xCF9 JUMPI PUSH1 0x40 MLOAD PUSH32 0xA14C4B5000000000000000000000000000000000000000000000000000000000 DUP2 MSTORE PUSH1 0x4 ADD PUSH1 0x40 MLOAD DUP1 SWAP2 SUB SWAP1 REVERT JUMPDEST PUSH1 0x0 PUSH2 0xD03 PUSH2 0x12F7 JUMP JUMPDEST SWAP1 POP PUSH1 0x0 DUP2 MLOAD SUB PUSH2 0xD23 JUMPI PUSH1 0x40 MLOAD DUP1 PUSH1 0x20 ADD PUSH1 0x40 MSTORE DUP1 PUSH1 0x0 DUP2 MSTORE POP PUSH2 0xD4E JUMP JUMPDEST DUP1 PUSH2 0xD2D DUP5 PUSH2 0x130E JUMP JUMPDEST PUSH1 0x40 MLOAD PUSH1 0x20 ADD PUSH2 0xD3E SWAP3 SWAP2 SWAP1 PUSH2 0x19CD JUMP JUMPDEST PUSH1 0x40 MLOAD PUSH1 0x20 DUP2 DUP4 SUB SUB DUP2 MSTORE SWAP1 PUSH1 0x40 MSTORE JUMPDEST SWAP2 POP POP SWAP2 SWAP1 POP JUMP JUMPDEST PUSH1 0x0 PUSH1 0x7 PUSH1 0x0 DUP5 PUSH20 0xFFFFFFFFFFFFFFFFFFFFFFFFFFFFFFFFFFFFFFFF AND PUSH20 0xFFFFFFFFFFFFFFFFFFFFFFFFFFFFFFFFFFFFFFFF AND DUP2 MSTORE PUSH1 0x20 ADD SWAP1 DUP2 MSTORE PUSH1 0x20 ADD PUSH1 0x0 KECCAK256 PUSH1 0x0 DUP4 PUSH20 0xFFFFFFFFFFFFFFFFFFFFFFFFFFFFFFFFFFFFFFFF AND PUSH20 0xFFFFFFFFFFFFFFFFFFFFFFFFFFFFFFFFFFFFFFFF AND DUP2 MSTORE PUSH1 0x20 ADD SWAP1 DUP2 MSTORE PUSH1 0x20 ADD PUSH1 0x0 KECCAK256 PUSH1 0x0 SWAP1 SLOAD SWAP1 PUSH2 0x100 EXP SWAP1 DIV PUSH1 0xFF AND SWAP1 POP SWAP3 SWAP2 POP POP JUMP JUMPDEST PUSH1 0x0 DUP2 PUSH2 0xDF5 PUSH2 0xE51 JUMP JUMPDEST GT ISZERO DUP1 ISZERO PUSH2 0xE04 JUMPI POP PUSH1 0x0 SLOAD DUP3 LT JUMPDEST DUP1 ISZERO PUSH2 0xE42 JUMPI POP PUSH1 0x0 PUSH29 0x100000000000000000000000000000000000000000000000000000000 PUSH1 0x4 PUSH1 0x0 DUP6 DUP2 MSTORE PUSH1 0x20 ADD SWAP1 DUP2 MSTORE PUSH1 0x20 ADD PUSH1 0x0 KECCAK256 SLOAD AND EQ JUMPDEST SWAP1 POP SWAP2 SWAP1 POP JUMP JUMPDEST PUSH1 0x0 CALLER SWAP1 POP SWAP1 JUMP JUMPDEST PUSH1 0x0 SWAP1 JUMP JUMPDEST PUSH1 0x0 DUP1 DUP3 SWAP1 POP DUP1 PUSH2 0xE65 PUSH2 0xE51 JUMP JUMPDEST GT PUSH2 0xEEB JUMPI PUSH1 0x0 SLOAD DUP2 LT ISZERO PUSH2 0xEEA JUMPI PUSH1 0x0 PUSH1 0x4 PUSH1 0x0 DUP4 DUP2 MSTORE PUSH1 0x20 ADD SWAP1 DUP2 MSTORE PUSH1 0x20 ADD PUSH1 0x0 KECCAK256 SLOAD SWAP1 POP PUSH1 0x0 PUSH29 0x100000000000000000000000000000000000000000000000000000000 DUP3 AND SUB PUSH2 0xEE8 JUMPI JUMPDEST PUSH1 0x0 DUP2 SUB PUSH2 0xEDE JUMPI PUSH1 0x4 PUSH1 0x0 DUP4 PUSH1 0x1 SWAP1 SUB SWAP4 POP DUP4 DUP2 MSTORE PUSH1 0x20 ADD SWAP1 DUP2 MSTORE PUSH1 0x20 ADD PUSH1 0x0 KECCAK256 SLOAD SWAP1 POP PUSH2 0xEB4 JUMP JUMPDEST DUP1 SWAP3 POP POP POP PUSH2 0xF1D JUMP JUMPDEST POP JUMPDEST JUMPDEST PUSH1 0x40 MLOAD PUSH32 0xDF2D9B4200000000000000000000000000000000000000000000000000000000 DUP2 MSTORE PUSH1 0x4 ADD PUSH1 0x40 MLOAD DUP1 SWAP2 SUB SWAP1 REVERT JUMPDEST SWAP2 SWAP1 POP JUMP JUMPDEST PUSH1 0x0 DUP1 PUSH1 0x0 PUSH1 0x6 PUSH1 0x0 DUP6 DUP2 MSTORE PUSH1 0x20 ADD SWAP1 DUP2 MSTORE PUSH1 0x20 ADD PUSH1 0x0 KECCAK256 SWAP1 POP DUP1 SWAP3 POP DUP3 SLOAD SWAP2 POP POP SWAP2 POP SWAP2 JUMP JUMPDEST PUSH1 0x0 PUSH20 0xFFFFFFFFFFFFFFFFFFFFFFFFFFFFFFFFFFFFFFFF DUP4 AND SWAP3 POP PUSH20 0xFFFFFFFFFFFFFFFFFFFFFFFFFFFFFFFFFFFFFFFF DUP3 AND SWAP2 POP DUP4 DUP3 EQ DUP4 DUP4 EQ OR SWAP1 POP SWAP4 SWAP3 POP POP POP JUMP JUMPDEST POP POP POP POP JUMP JUMPDEST PUSH1 0x0 DUP1 PUSH1 0xE8 DUP4 SWAP1 SHR SWAP1 POP PUSH1 0xE8 PUSH2 0xFAA DUP7 DUP7 DUP5 PUSH2 0x135E JUMP JUMPDEST PUSH3 0xFFFFFF AND SWAP1 SHL SWAP2 POP POP SWAP4 SWAP3 POP POP POP JUMP JUMPDEST PUSH1 0x0 PUSH20 0xFFFFFFFFFFFFFFFFFFFFFFFFFFFFFFFFFFFFFFFF DUP4 AND SWAP3 POP DUP2 TIMESTAMP PUSH1 0xA0 SHL OR DUP4 OR SWAP1 POP SWAP3 SWAP2 POP POP JUMP JUMPDEST POP POP POP POP JUMP JUMPDEST PUSH1 0x0 DUP1 SLOAD SWAP1 POP PUSH1 0x0 DUP3 SUB PUSH2 0x102C JUMPI PUSH1 0x40 MLOAD PUSH32 0xB562E8DD00000000000000000000000000000000000000000000000000000000 DUP2 MSTORE PUSH1 0x4 ADD PUSH1 0x40 MLOAD DUP1 SWAP2 SUB SWAP1 REVERT JUMPDEST PUSH2 0x1039 PUSH1 0x0 DUP5 DUP4 DUP6 PUSH2 0xF8D JUMP JUMPDEST PUSH1 0x1 PUSH1 0x40 PUSH1 0x1 SWAP1 SHL OR DUP3 MUL PUSH1 0x5 PUSH1 0x0 DUP6 PUSH20 0xFFFFFFFFFFFFFFFFFFFFFFFFFFFFFFFFFFFFFFFF AND PUSH20 0xFFFFFFFFFFFFFFFFFFFFFFFFFFFFFFFFFFFFFFFF AND DUP2 MSTORE PUSH1 0x20 ADD SWAP1 DUP2 MSTORE PUSH1 0x20 ADD PUSH1 0x0 KECCAK256 PUSH1 0x0 DUP3 DUP3 SLOAD ADD SWAP3 POP POP DUP2 SWAP1 SSTORE POP PUSH2 0x10B0 DUP4 PUSH2 0x10A1 PUSH1 0x0 DUP7 PUSH1 0x0 PUSH2 0xF93 JUMP JUMPDEST PUSH2 0x10AA DUP6 PUSH2 0x1367 JUMP JUMPDEST OR PUSH2 0xFBB JUMP JUMPDEST PUSH1 0x4 PUSH1 0x0 DUP4 DUP2 MSTORE PUSH1 0x20 ADD SWAP1 DUP2 MSTORE PUSH1 0x20 ADD PUSH1 0x0 KECCAK256 DUP2 SWAP1 SSTORE POP PUSH1 0x0 DUP1 DUP4 DUP4 ADD SWAP1 POP PUSH20 0xFFFFFFFFFFFFFFFFFFFFFFFFFFFFFFFFFFFFFFFF DUP6 AND SWAP2 POP DUP3 DUP3 PUSH1 0x0 PUSH32 0xDDF252AD1BE2C89B69C2B068FC378DAA952BA7F163C4A11628F55A4DF523B3EF PUSH1 0x0 DUP1 LOG4 PUSH1 0x1 DUP4 ADD JUMPDEST DUP2 DUP2 EQ PUSH2 0x1151 JUMPI DUP1 DUP4 PUSH1 0x0 PUSH32 0xDDF252AD1BE2C89B69C2B068FC378DAA952BA7F163C4A11628F55A4DF523B3EF PUSH1 0x0 DUP1 LOG4 PUSH1 0x1 DUP2 ADD SWAP1 POP PUSH2 0x1116 JUMP JUMPDEST POP PUSH1 0x0 DUP3 SUB PUSH2 0x118C JUMPI PUSH1 0x40 MLOAD PUSH32 0x2E07630000000000000000000000000000000000000000000000000000000000 DUP2 MSTORE PUSH1 0x4 ADD PUSH1 0x40 MLOAD DUP1 SWAP2 SUB SWAP1 REVERT JUMPDEST DUP1 PUSH1 0x0 DUP2 SWAP1 SSTORE POP POP POP PUSH2 0x11A2 PUSH1 0x0 DUP5 DUP4 DUP6 PUSH2 0xFE6 JUMP JUMPDEST POP POP POP JUMP JUMPDEST PUSH1 0x0 DUP4 PUSH20 0xFFFFFFFFFFFFFFFFFFFFFFFFFFFFFFFFFFFFFFFF AND PUSH4 0x150B7A02 PUSH2 0x11CD PUSH2 0xE49 JUMP JUMPDEST DUP8 DUP7 DUP7 PUSH1 0x40 MLOAD DUP6 PUSH4 0xFFFFFFFF AND PUSH1 0xE0 SHL DUP2 MSTORE PUSH1 0x4 ADD PUSH2 0x11EF SWAP5 SWAP4 SWAP3 SWAP2 SWAP1 PUSH2 0x1A46 JUMP JUMPDEST PUSH1 0x20 PUSH1 0x40 MLOAD DUP1 DUP4 SUB DUP2 PUSH1 0x0 DUP8 GAS CALL SWAP3 POP POP POP DUP1 ISZERO PUSH2 0x122B JUMPI POP PUSH1 0x40 MLOAD RETURNDATASIZE PUSH1 0x1F NOT PUSH1 0x1F DUP3 ADD AND DUP3 ADD DUP1 PUSH1 0x40 MSTORE POP DUP2 ADD SWAP1 PUSH2 0x1228 SWAP2 SWAP1 PUSH2 0x1AA7 JUMP JUMPDEST PUSH1 0x1 JUMPDEST PUSH2 0x12A4 JUMPI RETURNDATASIZE DUP1 PUSH1 0x0 DUP2 EQ PUSH2 0x125B JUMPI PUSH1 0x40 MLOAD SWAP2 POP PUSH1 0x1F NOT PUSH1 0x3F RETURNDATASIZE ADD AND DUP3 ADD PUSH1 0x40 MSTORE RETURNDATASIZE DUP3 MSTORE RETURNDATASIZE PUSH1 0x0 PUSH1 0x20 DUP5 ADD RETURNDATACOPY PUSH2 0x1260 JUMP JUMPDEST PUSH1 0x60 SWAP2 POP JUMPDEST POP PUSH1 0x0 DUP2 MLOAD SUB PUSH2 0x129C JUMPI PUSH1 0x40 MLOAD PUSH32 0xD1A57ED600000000000000000000000000000000000000000000000000000000 DUP2 MSTORE PUSH1 0x4 ADD PUSH1 0x40 MLOAD DUP1 SWAP2 SUB SWAP1 REVERT JUMPDEST DUP1 MLOAD DUP2 PUSH1 0x20 ADD REVERT JUMPDEST PUSH4 0x150B7A02 PUSH1 0xE0 SHL PUSH28 0xFFFFFFFFFFFFFFFFFFFFFFFFFFFFFFFFFFFFFFFFFFFFFFFFFFFFFFFF NOT AND DUP2 PUSH28 0xFFFFFFFFFFFFFFFFFFFFFFFFFFFFFFFFFFFFFFFFFFFFFFFFFFFFFFFF NOT AND EQ SWAP2 POP POP SWAP5 SWAP4 POP POP POP POP JUMP JUMPDEST PUSH1 0x60 PUSH1 0x40 MLOAD DUP1 PUSH1 0x20 ADD PUSH1 0x40 MSTORE DUP1 PUSH1 0x0 DUP2 MSTORE POP SWAP1 POP SWAP1 JUMP JUMPDEST PUSH1 0x60 PUSH1 0xA0 PUSH1 0x40 MLOAD ADD DUP1 PUSH1 0x40 MSTORE PUSH1 0x20 DUP2 SUB SWAP2 POP PUSH1 0x0 DUP3 MSTORE DUP2 DUP4 JUMPDEST PUSH1 0x1 ISZERO PUSH2 0x1349 JUMPI PUSH1 0x1 DUP5 SUB SWAP4 POP PUSH1 0xA DUP2 MOD PUSH1 0x30 ADD DUP5 MSTORE8 PUSH1 0xA DUP2 DIV SWAP1 POP DUP1 PUSH2 0x1327 JUMPI JUMPDEST POP DUP3 DUP2 SUB PUSH1 0x20 DUP5 SUB SWAP4 POP DUP1 DUP5 MSTORE POP POP POP SWAP2 SWAP1 POP JUMP JUMPDEST PUSH1 0x0 SWAP4 SWAP3 POP POP POP JUMP JUMPDEST PUSH1 0x0 PUSH1 0x1 DUP3 EQ PUSH1 0xE1 SHL SWAP1 POP SWAP2 SWAP1 POP JUMP JUMPDEST PUSH1 0x0 PUSH1 0x40 MLOAD SWAP1 POP SWAP1 JUMP JUMPDEST PUSH1 0x0 DUP1 REVERT JUMPDEST PUSH1 0x0 DUP1 REVERT JUMPDEST PUSH1 0x0 PUSH32 0xFFFFFFFF00000000000000000000000000000000000000000000000000000000 DUP3 AND SWAP1 POP SWAP2 SWAP1 POP JUMP JUMPDEST PUSH2 0x13C0 DUP2 PUSH2 0x138B JUMP JUMPDEST DUP2 EQ PUSH2 0x13CB JUMPI PUSH1 0x0 DUP1 REVERT JUMPDEST POP JUMP JUMPDEST PUSH1 0x0 DUP2 CALLDATALOAD SWAP1 POP PUSH2 0x13DD DUP2 PUSH2 0x13B7 JUMP JUMPDEST SWAP3 SWAP2 POP POP JUMP JUMPDEST PUSH1 0x0 PUSH1 0x20 DUP3 DUP5 SUB SLT ISZERO PUSH2 0x13F9 JUMPI PUSH2 0x13F8 PUSH2 0x1381 JUMP JUMPDEST JUMPDEST PUSH1 0x0 PUSH2 0x1407 DUP5 DUP3 DUP6 ADD PUSH2 0x13CE JUMP JUMPDEST SWAP2 POP POP SWAP3 SWAP2 POP POP JUMP JUMPDEST PUSH1 0x0 DUP2 ISZERO ISZERO SWAP1 POP SWAP2 SWAP1 POP JUMP JUMPDEST PUSH2 0x1425 DUP2 PUSH2 0x1410 JUMP JUMPDEST DUP3 MSTORE POP POP JUMP JUMPDEST PUSH1 0x0 PUSH1 0x20 DUP3 ADD SWAP1 POP PUSH2 0x1440 PUSH1 0x0 DUP4 ADD DUP5 PUSH2 0x141C JUMP JUMPDEST SWAP3 SWAP2 POP POP JUMP JUMPDEST PUSH1 0x0 DUP2 MLOAD SWAP1 POP SWAP2 SWAP1 POP JUMP JUMPDEST PUSH1 0x0 DUP3 DUP3 MSTORE PUSH1 0x20 DUP3 ADD SWAP1 POP SWAP3 SWAP2 POP POP JUMP JUMPDEST PUSH1 0x0 JUMPDEST DUP4 DUP2 LT ISZERO PUSH2 0x1480 JUMPI DUP1 DUP3 ADD MLOAD DUP2 DUP5 ADD MSTORE PUSH1 0x20 DUP2 ADD SWAP1 POP PUSH2 0x1465 JUMP JUMPDEST PUSH1 0x0 DUP5 DUP5 ADD MSTORE POP POP POP POP JUMP JUMPDEST PUSH1 0x0 PUSH1 0x1F NOT PUSH1 0x1F DUP4 ADD AND SWAP1 POP SWAP2 SWAP1 POP JUMP JUMPDEST PUSH1 0x0 PUSH2 0x14A8 DUP3 PUSH2 0x1446 JUMP JUMPDEST PUSH2 0x14B2 DUP2 DUP6 PUSH2 0x1451 JUMP JUMPDEST SWAP4 POP PUSH2 0x14C2 DUP2 DUP6 PUSH1 0x20 DUP7 ADD PUSH2 0x1462 JUMP JUMPDEST PUSH2 0x14CB DUP2 PUSH2 0x148C JUMP JUMPDEST DUP5 ADD SWAP2 POP POP SWAP3 SWAP2 POP POP JUMP JUMPDEST PUSH1 0x0 PUSH1 0x20 DUP3 ADD SWAP1 POP DUP2 DUP2 SUB PUSH1 0x0 DUP4 ADD MSTORE PUSH2 0x14F0 DUP2 DUP5 PUSH2 0x149D JUMP JUMPDEST SWAP1 POP SWAP3 SWAP2 POP POP JUMP JUMPDEST PUSH1 0x0 DUP2 SWAP1 POP SWAP2 SWAP1 POP JUMP JUMPDEST PUSH2 0x150B DUP2 PUSH2 0x14F8 JUMP JUMPDEST DUP2 EQ PUSH2 0x1516 JUMPI PUSH1 0x0 DUP1 REVERT JUMPDEST POP JUMP JUMPDEST PUSH1 0x0 DUP2 CALLDATALOAD SWAP1 POP PUSH2 0x1528 DUP2 PUSH2 0x1502 JUMP JUMPDEST SWAP3 SWAP2 POP POP JUMP JUMPDEST PUSH1 0x0 PUSH1 0x20 DUP3 DUP5 SUB SLT ISZERO PUSH2 0x1544 JUMPI PUSH2 0x1543 PUSH2 0x1381 JUMP JUMPDEST JUMPDEST PUSH1 0x0 PUSH2 0x1552 DUP5 DUP3 DUP6 ADD PUSH2 0x1519 JUMP JUMPDEST SWAP2 POP POP SWAP3 SWAP2 POP POP JUMP JUMPDEST PUSH1 0x0 PUSH20 0xFFFFFFFFFFFFFFFFFFFFFFFFFFFFFFFFFFFFFFFF DUP3 AND SWAP1 POP SWAP2 SWAP1 POP JUMP JUMPDEST PUSH1 0x0 PUSH2 0x1586 DUP3 PUSH2 0x155B JUMP JUMPDEST SWAP1 POP SWAP2 SWAP1 POP JUMP JUMPDEST PUSH2 0x1596 DUP2 PUSH2 0x157B JUMP JUMPDEST DUP3 MSTORE POP POP JUMP JUMPDEST PUSH1 0x0 PUSH1 0x20 DUP3 ADD SWAP1 POP PUSH2 0x15B1 PUSH1 0x0 DUP4 ADD DUP5 PUSH2 0x158D JUMP JUMPDEST SWAP3 SWAP2 POP POP JUMP JUMPDEST PUSH2 0x15C0 DUP2 PUSH2 0x157B JUMP JUMPDEST DUP2 EQ PUSH2 0x15CB JUMPI PUSH1 0x0 DUP1 REVERT JUMPDEST POP JUMP JUMPDEST PUSH1 0x0 DUP2 CALLDATALOAD SWAP1 POP PUSH2 0x15DD DUP2 PUSH2 0x15B7 JUMP JUMPDEST SWAP3 SWAP2 POP POP JUMP JUMPDEST PUSH1 0x0 DUP1 PUSH1 0x40 DUP4 DUP6 SUB SLT ISZERO PUSH2 0x15FA JUMPI PUSH2 0x15F9 PUSH2 0x1381 JUMP JUMPDEST JUMPDEST PUSH1 0x0 PUSH2 0x1608 DUP6 DUP3 DUP7 ADD PUSH2 0x15CE JUMP JUMPDEST SWAP3 POP POP PUSH1 0x20 PUSH2 0x1619 DUP6 DUP3 DUP7 ADD PUSH2 0x1519 JUMP JUMPDEST SWAP2 POP POP SWAP3 POP SWAP3 SWAP1 POP JUMP JUMPDEST PUSH2 0x162C DUP2 PUSH2 0x14F8 JUMP JUMPDEST DUP3 MSTORE POP POP JUMP JUMPDEST PUSH1 0x0 PUSH1 0x20 DUP3 ADD SWAP1 POP PUSH2 0x1647 PUSH1 0x0 DUP4 ADD DUP5 PUSH2 0x1623 JUMP JUMPDEST SWAP3 SWAP2 POP POP JUMP JUMPDEST PUSH1 0x0 DUP1 PUSH1 0x0 PUSH1 0x60 DUP5 DUP7 SUB SLT ISZERO PUSH2 0x1666 JUMPI PUSH2 0x1665 PUSH2 0x1381 JUMP JUMPDEST JUMPDEST PUSH1 0x0 PUSH2 0x1674 DUP7 DUP3 DUP8 ADD PUSH2 0x15CE JUMP JUMPDEST SWAP4 POP POP PUSH1 0x20 PUSH2 0x1685 DUP7 DUP3 DUP8 ADD PUSH2 0x15CE JUMP JUMPDEST SWAP3 POP POP PUSH1 0x40 PUSH2 0x1696 DUP7 DUP3 DUP8 ADD PUSH2 0x1519 JUMP JUMPDEST SWAP2 POP POP SWAP3 POP SWAP3 POP SWAP3 JUMP JUMPDEST PUSH1 0x0 PUSH1 0x20 DUP3 DUP5 SUB SLT ISZERO PUSH2 0x16B6 JUMPI PUSH2 0x16B5 PUSH2 0x1381 JUMP JUMPDEST JUMPDEST PUSH1 0x0 PUSH2 0x16C4 DUP5 DUP3 DUP6 ADD PUSH2 0x15CE JUMP JUMPDEST SWAP2 POP POP SWAP3 SWAP2 POP POP JUMP JUMPDEST PUSH2 0x16D6 DUP2 PUSH2 0x1410 JUMP JUMPDEST DUP2 EQ PUSH2 0x16E1 JUMPI PUSH1 0x0 DUP1 REVERT JUMPDEST POP JUMP JUMPDEST PUSH1 0x0 DUP2 CALLDATALOAD SWAP1 POP PUSH2 0x16F3 DUP2 PUSH2 0x16CD JUMP JUMPDEST SWAP3 SWAP2 POP POP JUMP JUMPDEST PUSH1 0x0 DUP1 PUSH1 0x40 DUP4 DUP6 SUB SLT ISZERO PUSH2 0x1710 JUMPI PUSH2 0x170F PUSH2 0x1381 JUMP JUMPDEST JUMPDEST PUSH1 0x0 PUSH2 0x171E DUP6 DUP3 DUP7 ADD PUSH2 0x15CE JUMP JUMPDEST SWAP3 POP POP PUSH1 0x20 PUSH2 0x172F DUP6 DUP3 DUP7 ADD PUSH2 0x16E4 JUMP JUMPDEST SWAP2 POP POP SWAP3 POP SWAP3 SWAP1 POP JUMP JUMPDEST PUSH1 0x0 DUP1 REVERT JUMPDEST PUSH1 0x0 DUP1 REVERT JUMPDEST PUSH32 0x4E487B7100000000000000000000000000000000000000000000000000000000 PUSH1 0x0 MSTORE PUSH1 0x41 PUSH1 0x4 MSTORE PUSH1 0x24 PUSH1 0x0 REVERT JUMPDEST PUSH2 0x177B DUP3 PUSH2 0x148C JUMP JUMPDEST DUP2 ADD DUP2 DUP2 LT PUSH8 0xFFFFFFFFFFFFFFFF DUP3 GT OR ISZERO PUSH2 0x179A JUMPI PUSH2 0x1799 PUSH2 0x1743 JUMP JUMPDEST JUMPDEST DUP1 PUSH1 0x40 MSTORE POP POP POP JUMP JUMPDEST PUSH1 0x0 PUSH2 0x17AD PUSH2 0x1377 JUMP JUMPDEST SWAP1 POP PUSH2 0x17B9 DUP3 DUP3 PUSH2 0x1772 JUMP JUMPDEST SWAP2 SWAP1 POP JUMP JUMPDEST PUSH1 0x0 PUSH8 0xFFFFFFFFFFFFFFFF DUP3 GT ISZERO PUSH2 0x17D9 JUMPI PUSH2 0x17D8 PUSH2 0x1743 JUMP JUMPDEST JUMPDEST PUSH2 0x17E2 DUP3 PUSH2 0x148C JUMP JUMPDEST SWAP1 POP PUSH1 0x20 DUP2 ADD SWAP1 POP SWAP2 SWAP1 POP JUMP JUMPDEST DUP3 DUP2 DUP4 CALLDATACOPY PUSH1 0x0 DUP4 DUP4 ADD MSTORE POP POP POP JUMP JUMPDEST PUSH1 0x0 PUSH2 0x1811 PUSH2 0x180C DUP5 PUSH2 0x17BE JUMP JUMPDEST PUSH2 0x17A3 JUMP JUMPDEST SWAP1 POP DUP3 DUP2 MSTORE PUSH1 0x20 DUP2 ADD DUP5 DUP5 DUP5 ADD GT ISZERO PUSH2 0x182D JUMPI PUSH2 0x182C PUSH2 0x173E JUMP JUMPDEST JUMPDEST PUSH2 0x1838 DUP5 DUP3 DUP6 PUSH2 0x17EF JUMP JUMPDEST POP SWAP4 SWAP3 POP POP POP JUMP JUMPDEST PUSH1 0x0 DUP3 PUSH1 0x1F DUP4 ADD SLT PUSH2 0x1855 JUMPI PUSH2 0x1854 PUSH2 0x1739 JUMP JUMPDEST JUMPDEST DUP2 CALLDATALOAD PUSH2 0x1865 DUP5 DUP3 PUSH1 0x20 DUP7 ADD PUSH2 0x17FE JUMP JUMPDEST SWAP2 POP POP SWAP3 SWAP2 POP POP JUMP JUMPDEST PUSH1 0x0 DUP1 PUSH1 0x0 DUP1 PUSH1 0x80 DUP6 DUP8 SUB SLT ISZERO PUSH2 0x1888 JUMPI PUSH2 0x1887 PUSH2 0x1381 JUMP JUMPDEST JUMPDEST PUSH1 0x0 PUSH2 0x1896 DUP8 DUP3 DUP9 ADD PUSH2 0x15CE JUMP JUMPDEST SWAP5 POP POP PUSH1 0x20 PUSH2 0x18A7 DUP8 DUP3 DUP9 ADD PUSH2 0x15CE JUMP JUMPDEST SWAP4 POP POP PUSH1 0x40 PUSH2 0x18B8 DUP8 DUP3 DUP9 ADD PUSH2 0x1519 JUMP JUMPDEST SWAP3 POP POP PUSH1 0x60 DUP6 ADD CALLDATALOAD PUSH8 0xFFFFFFFFFFFFFFFF DUP2 GT ISZERO PUSH2 0x18D9 JUMPI PUSH2 0x18D8 PUSH2 0x1386 JUMP JUMPDEST JUMPDEST PUSH2 0x18E5 DUP8 DUP3 DUP9 ADD PUSH2 0x1840 JUMP JUMPDEST SWAP2 POP POP SWAP3 SWAP6 SWAP2 SWAP5 POP SWAP3 POP JUMP JUMPDEST PUSH1 0x0 DUP1 PUSH1 0x40 DUP4 DUP6 SUB SLT ISZERO PUSH2 0x1908 JUMPI PUSH2 0x1907 PUSH2 0x1381 JUMP JUMPDEST JUMPDEST PUSH1 0x0 PUSH2 0x1916 DUP6 DUP3 DUP7 ADD PUSH2 0x15CE JUMP JUMPDEST SWAP3 POP POP PUSH1 0x20 PUSH2 0x1927 DUP6 DUP3 DUP7 ADD PUSH2 0x15CE JUMP JUMPDEST SWAP2 POP POP SWAP3 POP SWAP3 SWAP1 POP JUMP JUMPDEST PUSH32 0x4E487B7100000000000000000000000000000000000000000000000000000000 PUSH1 0x0 MSTORE PUSH1 0x22 PUSH1 0x4 MSTORE PUSH1 0x24 PUSH1 0x0 REVERT JUMPDEST PUSH1 0x0 PUSH1 0x2 DUP3 DIV SWAP1 POP PUSH1 0x1 DUP3 AND DUP1 PUSH2 0x1978 JUMPI PUSH1 0x7F DUP3 AND SWAP2 POP JUMPDEST PUSH1 0x20 DUP3 LT DUP2 SUB PUSH2 0x198B JUMPI PUSH2 0x198A PUSH2 0x1931 JUMP JUMPDEST JUMPDEST POP SWAP2 SWAP1 POP JUMP JUMPDEST PUSH1 0x0 DUP2 SWAP1 POP SWAP3 SWAP2 POP POP JUMP JUMPDEST PUSH1 0x0 PUSH2 0x19A7 DUP3 PUSH2 0x1446 JUMP JUMPDEST PUSH2 0x19B1 DUP2 DUP6 PUSH2 0x1991 JUMP JUMPDEST SWAP4 POP PUSH2 0x19C1 DUP2 DUP6 PUSH1 0x20 DUP7 ADD PUSH2 0x1462 JUMP JUMPDEST DUP1 DUP5 ADD SWAP2 POP POP SWAP3 SWAP2 POP POP JUMP JUMPDEST PUSH1 0x0 PUSH2 0x19D9 DUP3 DUP6 PUSH2 0x199C JUMP JUMPDEST SWAP2 POP PUSH2 0x19E5 DUP3 DUP5 PUSH2 0x199C JUMP JUMPDEST SWAP2 POP DUP2 SWAP1 POP SWAP4 SWAP3 POP POP POP JUMP JUMPDEST PUSH1 0x0 DUP2 MLOAD SWAP1 POP SWAP2 SWAP1 POP JUMP JUMPDEST PUSH1 0x0 DUP3 DUP3 MSTORE PUSH1 0x20 DUP3 ADD SWAP1 POP SWAP3 SWAP2 POP POP JUMP JUMPDEST PUSH1 0x0 PUSH2 0x1A18 DUP3 PUSH2 0x19F1 JUMP JUMPDEST PUSH2 0x1A22 DUP2 DUP6 PUSH2 0x19FC JUMP JUMPDEST SWAP4 POP PUSH2 0x1A32 DUP2 DUP6 PUSH1 0x20 DUP7 ADD PUSH2 0x1462 JUMP JUMPDEST PUSH2 0x1A3B DUP2 PUSH2 0x148C JUMP JUMPDEST DUP5 ADD SWAP2 POP POP SWAP3 SWAP2 POP POP JUMP JUMPDEST PUSH1 0x0 PUSH1 0x80 DUP3 ADD SWAP1 POP PUSH2 0x1A5B PUSH1 0x0 DUP4 ADD DUP8 PUSH2 0x158D JUMP JUMPDEST PUSH2 0x1A68 PUSH1 0x20 DUP4 ADD DUP7 PUSH2 0x158D JUMP JUMPDEST PUSH2 0x1A75 PUSH1 0x40 DUP4 ADD DUP6 PUSH2 0x1623 JUMP JUMPDEST DUP2 DUP2 SUB PUSH1 0x60 DUP4 ADD MSTORE PUSH2 0x1A87 DUP2 DUP5 PUSH2 0x1A0D JUMP JUMPDEST SWAP1 POP SWAP6 SWAP5 POP POP POP POP POP JUMP JUMPDEST PUSH1 0x0 DUP2 MLOAD SWAP1 POP PUSH2 0x1AA1 DUP2 PUSH2 0x13B7 JUMP JUMPDEST SWAP3 SWAP2 POP POP JUMP JUMPDEST PUSH1 0x0 PUSH1 0x20 DUP3 DUP5 SUB SLT ISZERO PUSH2 0x1ABD JUMPI PUSH2 0x1ABC PUSH2 0x1381 JUMP JUMPDEST JUMPDEST PUSH1 0x0 PUSH2 0x1ACB DUP5 DUP3 DUP6 ADD PUSH2 0x1A92 JUMP JUMPDEST SWAP2 POP POP SWAP3 SWAP2 POP POP JUMP INVALID LOG2 PUSH5 0x6970667358 0x22 SLT KECCAK256 0xE4 SWAP12 0x2C 0x2D PUSH22 0xB19309687B10DEC36B21AAC047FCB5C68E4A5E28D28 0xA7 0xBC CALLVALUE 0xEB DUP4 PUSH5 0x736F6C6343 STOP ADDMOD SGT STOP CALLER "
				},
				"gasEstimates": {
					"creation": {
						"codeDepositCost": "1384400",
						"executionCost": "infinite",
						"totalCost": "infinite"
					},
					"external": {
						"approve(address,uint256)": "infinite",
						"balanceOf(address)": "2927",
						"getApproved(uint256)": "7381",
						"isApprovedForAll(address,address)": "infinite",
						"mint(uint256)": "infinite",
						"name()": "infinite",
						"ownerOf(uint256)": "infinite",
						"safeTransferFrom(address,address,uint256)": "infinite",
						"safeTransferFrom(address,address,uint256,bytes)": "infinite",
						"setApprovalForAll(address,bool)": "infinite",
						"supportsInterface(bytes4)": "745",
						"symbol()": "infinite",
						"tokenURI(uint256)": "5534",
						"totalSupply()": "4621",
						"transferFrom(address,address,uint256)": "infinite"
					}
				},
				"methodIdentifiers": {
					"approve(address,uint256)": "095ea7b3",
					"balanceOf(address)": "70a08231",
					"getApproved(uint256)": "081812fc",
					"isApprovedForAll(address,address)": "e985e9c5",
					"mint(uint256)": "a0712d68",
					"name()": "06fdde03",
					"ownerOf(uint256)": "6352211e",
					"safeTransferFrom(address,address,uint256)": "42842e0e",
					"safeTransferFrom(address,address,uint256,bytes)": "b88d4fde",
					"setApprovalForAll(address,bool)": "a22cb465",
					"supportsInterface(bytes4)": "01ffc9a7",
					"symbol()": "95d89b41",
					"tokenURI(uint256)": "c87b56dd",
					"totalSupply()": "18160ddd",
					"transferFrom(address,address,uint256)": "23b872dd"
				}
			},
			"storageLayout": {
				"storage": [
					{
						"astId": 295,
						"contract": "contracts/ERC-721A_flattened.sol:GasCompareERC721A",
						"label": "_currentIndex",
						"offset": 0,
						"slot": "0",
						"type": "t_uint256"
					},
					{
						"astId": 297,
						"contract": "contracts/ERC-721A_flattened.sol:GasCompareERC721A",
						"label": "_burnCounter",
						"offset": 0,
						"slot": "1",
						"type": "t_uint256"
					},
					{
						"astId": 299,
						"contract": "contracts/ERC-721A_flattened.sol:GasCompareERC721A",
						"label": "_name",
						"offset": 0,
						"slot": "2",
						"type": "t_string_storage"
					},
					{
						"astId": 301,
						"contract": "contracts/ERC-721A_flattened.sol:GasCompareERC721A",
						"label": "_symbol",
						"offset": 0,
						"slot": "3",
						"type": "t_string_storage"
					},
					{
						"astId": 305,
						"contract": "contracts/ERC-721A_flattened.sol:GasCompareERC721A",
						"label": "_packedOwnerships",
						"offset": 0,
						"slot": "4",
						"type": "t_mapping(t_uint256,t_uint256)"
					},
					{
						"astId": 309,
						"contract": "contracts/ERC-721A_flattened.sol:GasCompareERC721A",
						"label": "_packedAddressData",
						"offset": 0,
						"slot": "5",
						"type": "t_mapping(t_address,t_uint256)"
					},
					{
						"astId": 314,
						"contract": "contracts/ERC-721A_flattened.sol:GasCompareERC721A",
						"label": "_tokenApprovals",
						"offset": 0,
						"slot": "6",
						"type": "t_mapping(t_uint256,t_struct(TokenApprovalRef)227_storage)"
					},
					{
						"astId": 320,
						"contract": "contracts/ERC-721A_flattened.sol:GasCompareERC721A",
						"label": "_operatorApprovals",
						"offset": 0,
						"slot": "7",
						"type": "t_mapping(t_address,t_mapping(t_address,t_bool))"
					}
				],
				"types": {
					"t_address": {
						"encoding": "inplace",
						"label": "address",
						"numberOfBytes": "20"
					},
					"t_bool": {
						"encoding": "inplace",
						"label": "bool",
						"numberOfBytes": "1"
					},
					"t_mapping(t_address,t_bool)": {
						"encoding": "mapping",
						"key": "t_address",
						"label": "mapping(address => bool)",
						"numberOfBytes": "32",
						"value": "t_bool"
					},
					"t_mapping(t_address,t_mapping(t_address,t_bool))": {
						"encoding": "mapping",
						"key": "t_address",
						"label": "mapping(address => mapping(address => bool))",
						"numberOfBytes": "32",
						"value": "t_mapping(t_address,t_bool)"
					},
					"t_mapping(t_address,t_uint256)": {
						"encoding": "mapping",
						"key": "t_address",
						"label": "mapping(address => uint256)",
						"numberOfBytes": "32",
						"value": "t_uint256"
					},
					"t_mapping(t_uint256,t_struct(TokenApprovalRef)227_storage)": {
						"encoding": "mapping",
						"key": "t_uint256",
						"label": "mapping(uint256 => struct ERC721A.TokenApprovalRef)",
						"numberOfBytes": "32",
						"value": "t_struct(TokenApprovalRef)227_storage"
					},
					"t_mapping(t_uint256,t_uint256)": {
						"encoding": "mapping",
						"key": "t_uint256",
						"label": "mapping(uint256 => uint256)",
						"numberOfBytes": "32",
						"value": "t_uint256"
					},
					"t_string_storage": {
						"encoding": "bytes",
						"label": "string",
						"numberOfBytes": "32"
					},
					"t_struct(TokenApprovalRef)227_storage": {
						"encoding": "inplace",
						"label": "struct ERC721A.TokenApprovalRef",
						"members": [
							{
								"astId": 226,
								"contract": "contracts/ERC-721A_flattened.sol:GasCompareERC721A",
								"label": "value",
								"offset": 0,
								"slot": "0",
								"type": "t_address"
							}
						],
						"numberOfBytes": "32"
					},
					"t_uint256": {
						"encoding": "inplace",
						"label": "uint256",
						"numberOfBytes": "32"
					}
				}
			},
			"userdoc": {
				"errors": {
					"ApprovalCallerNotOwnerNorApproved()": [
						{
							"notice": "The caller must own the token or be an approved operator."
						}
					],
					"ApprovalQueryForNonexistentToken()": [
						{
							"notice": "The token does not exist."
						}
					],
					"BalanceQueryForZeroAddress()": [
						{
							"notice": "Cannot query the balance for the zero address."
						}
					],
					"MintERC2309QuantityExceedsLimit()": [
						{
							"notice": "The `quantity` minted with ERC2309 exceeds the safety limit."
						}
					],
					"MintToZeroAddress()": [
						{
							"notice": "Cannot mint to the zero address."
						}
					],
					"MintZeroQuantity()": [
						{
							"notice": "The quantity of tokens minted must be more than zero."
						}
					],
					"OwnerQueryForNonexistentToken()": [
						{
							"notice": "The token does not exist."
						}
					],
					"OwnershipNotInitializedForExtraData()": [
						{
							"notice": "The `extraData` cannot be set on an unintialized ownership slot."
						}
					],
					"TransferCallerNotOwnerNorApproved()": [
						{
							"notice": "The caller must own the token or be an approved operator."
						}
					],
					"TransferFromIncorrectOwner()": [
						{
							"notice": "The token must be owned by `from`."
						}
					],
					"TransferToNonERC721ReceiverImplementer()": [
						{
							"notice": "Cannot safely transfer to a contract that does not implement the ERC721Receiver interface."
						}
					],
					"TransferToZeroAddress()": [
						{
							"notice": "Cannot transfer to the zero address."
						}
					],
					"URIQueryForNonexistentToken()": [
						{
							"notice": "The token does not exist."
						}
					]
				},
				"kind": "user",
				"methods": {},
				"version": 1
			}
		}
	}
}