{
	"contracts/ANDREW-ERC-20.sol_flattened.sol": {
		"ERC20": {
			"abi": [
				{
					"inputs": [
						{
							"internalType": "string",
							"name": "name_",
							"type": "string"
						},
						{
							"internalType": "string",
							"name": "symbol_",
							"type": "string"
						}
					],
					"stateMutability": "nonpayable",
					"type": "constructor"
				},
				{
					"anonymous": false,
					"inputs": [
						{
							"indexed": true,
							"internalType": "address",
							"name": "owner",
							"type": "address"
						},
						{
							"indexed": true,
							"internalType": "address",
							"name": "spender",
							"type": "address"
						},
						{
							"indexed": false,
							"internalType": "uint256",
							"name": "value",
							"type": "uint256"
						}
					],
					"name": "Approval",
					"type": "event"
				},
				{
					"anonymous": false,
					"inputs": [
						{
							"indexed": true,
							"internalType": "address",
							"name": "from",
							"type": "address"
						},
						{
							"indexed": true,
							"internalType": "address",
							"name": "to",
							"type": "address"
						},
						{
							"indexed": false,
							"internalType": "uint256",
							"name": "value",
							"type": "uint256"
						}
					],
					"name": "Transfer",
					"type": "event"
				},
				{
					"inputs": [
						{
							"internalType": "address",
							"name": "owner",
							"type": "address"
						},
						{
							"internalType": "address",
							"name": "spender",
							"type": "address"
						}
					],
					"name": "allowance",
					"outputs": [
						{
							"internalType": "uint256",
							"name": "",
							"type": "uint256"
						}
					],
					"stateMutability": "view",
					"type": "function"
				},
				{
					"inputs": [
						{
							"internalType": "address",
							"name": "spender",
							"type": "address"
						},
						{
							"internalType": "uint256",
							"name": "amount",
							"type": "uint256"
						}
					],
					"name": "approve",
					"outputs": [
						{
							"internalType": "bool",
							"name": "",
							"type": "bool"
						}
					],
					"stateMutability": "nonpayable",
					"type": "function"
				},
				{
					"inputs": [
						{
							"internalType": "address",
							"name": "account",
							"type": "address"
						}
					],
					"name": "balanceOf",
					"outputs": [
						{
							"internalType": "uint256",
							"name": "",
							"type": "uint256"
						}
					],
					"stateMutability": "view",
					"type": "function"
				},
				{
					"inputs": [],
					"name": "decimals",
					"outputs": [
						{
							"internalType": "uint8",
							"name": "",
							"type": "uint8"
						}
					],
					"stateMutability": "view",
					"type": "function"
				},
				{
					"inputs": [
						{
							"internalType": "address",
							"name": "spender",
							"type": "address"
						},
						{
							"internalType": "uint256",
							"name": "subtractedValue",
							"type": "uint256"
						}
					],
					"name": "decreaseAllowance",
					"outputs": [
						{
							"internalType": "bool",
							"name": "",
							"type": "bool"
						}
					],
					"stateMutability": "nonpayable",
					"type": "function"
				},
				{
					"inputs": [
						{
							"internalType": "address",
							"name": "spender",
							"type": "address"
						},
						{
							"internalType": "uint256",
							"name": "addedValue",
							"type": "uint256"
						}
					],
					"name": "increaseAllowance",
					"outputs": [
						{
							"internalType": "bool",
							"name": "",
							"type": "bool"
						}
					],
					"stateMutability": "nonpayable",
					"type": "function"
				},
				{
					"inputs": [],
					"name": "name",
					"outputs": [
						{
							"internalType": "string",
							"name": "",
							"type": "string"
						}
					],
					"stateMutability": "view",
					"type": "function"
				},
				{
					"inputs": [],
					"name": "symbol",
					"outputs": [
						{
							"internalType": "string",
							"name": "",
							"type": "string"
						}
					],
					"stateMutability": "view",
					"type": "function"
				},
				{
					"inputs": [],
					"name": "totalSupply",
					"outputs": [
						{
							"internalType": "uint256",
							"name": "",
							"type": "uint256"
						}
					],
					"stateMutability": "view",
					"type": "function"
				},
				{
					"inputs": [
						{
							"internalType": "address",
							"name": "to",
							"type": "address"
						},
						{
							"internalType": "uint256",
							"name": "amount",
							"type": "uint256"
						}
					],
					"name": "transfer",
					"outputs": [
						{
							"internalType": "bool",
							"name": "",
							"type": "bool"
						}
					],
					"stateMutability": "nonpayable",
					"type": "function"
				},
				{
					"inputs": [
						{
							"internalType": "address",
							"name": "from",
							"type": "address"
						},
						{
							"internalType": "address",
							"name": "to",
							"type": "address"
						},
						{
							"internalType": "uint256",
							"name": "amount",
							"type": "uint256"
						}
					],
					"name": "transferFrom",
					"outputs": [
						{
							"internalType": "bool",
							"name": "",
							"type": "bool"
						}
					],
					"stateMutability": "nonpayable",
					"type": "function"
				}
			],
			"devdoc": {
				"details": "Implementation of the {IERC20} interface. This implementation is agnostic to the way tokens are created. This means that a supply mechanism has to be added in a derived contract using {_mint}. For a generic mechanism see {ERC20PresetMinterPauser}. TIP: For a detailed writeup see our guide https://forum.openzeppelin.com/t/how-to-implement-erc20-supply-mechanisms/226[How to implement supply mechanisms]. We have followed general OpenZeppelin Contracts guidelines: functions revert instead returning `false` on failure. This behavior is nonetheless conventional and does not conflict with the expectations of ERC20 applications. Additionally, an {Approval} event is emitted on calls to {transferFrom}. This allows applications to reconstruct the allowance for all accounts just by listening to said events. Other implementations of the EIP may not emit these events, as it isn't required by the specification. Finally, the non-standard {decreaseAllowance} and {increaseAllowance} functions have been added to mitigate the well-known issues around setting allowances. See {IERC20-approve}.",
				"kind": "dev",
				"methods": {
					"allowance(address,address)": {
						"details": "See {IERC20-allowance}."
					},
					"approve(address,uint256)": {
						"details": "See {IERC20-approve}. NOTE: If `amount` is the maximum `uint256`, the allowance is not updated on `transferFrom`. This is semantically equivalent to an infinite approval. Requirements: - `spender` cannot be the zero address."
					},
					"balanceOf(address)": {
						"details": "See {IERC20-balanceOf}."
					},
					"constructor": {
						"details": "Sets the values for {name} and {symbol}. The default value of {decimals} is 18. To select a different value for {decimals} you should overload it. All two of these values are immutable: they can only be set once during construction."
					},
					"decimals()": {
						"details": "Returns the number of decimals used to get its user representation. For example, if `decimals` equals `2`, a balance of `505` tokens should be displayed to a user as `5.05` (`505 / 10 ** 2`). Tokens usually opt for a value of 18, imitating the relationship between Ether and Wei. This is the value {ERC20} uses, unless this function is overridden; NOTE: This information is only used for _display_ purposes: it in no way affects any of the arithmetic of the contract, including {IERC20-balanceOf} and {IERC20-transfer}."
					},
					"decreaseAllowance(address,uint256)": {
						"details": "Atomically decreases the allowance granted to `spender` by the caller. This is an alternative to {approve} that can be used as a mitigation for problems described in {IERC20-approve}. Emits an {Approval} event indicating the updated allowance. Requirements: - `spender` cannot be the zero address. - `spender` must have allowance for the caller of at least `subtractedValue`."
					},
					"increaseAllowance(address,uint256)": {
						"details": "Atomically increases the allowance granted to `spender` by the caller. This is an alternative to {approve} that can be used as a mitigation for problems described in {IERC20-approve}. Emits an {Approval} event indicating the updated allowance. Requirements: - `spender` cannot be the zero address."
					},
					"name()": {
						"details": "Returns the name of the token."
					},
					"symbol()": {
						"details": "Returns the symbol of the token, usually a shorter version of the name."
					},
					"totalSupply()": {
						"details": "See {IERC20-totalSupply}."
					},
					"transfer(address,uint256)": {
						"details": "See {IERC20-transfer}. Requirements: - `to` cannot be the zero address. - the caller must have a balance of at least `amount`."
					},
					"transferFrom(address,address,uint256)": {
						"details": "See {IERC20-transferFrom}. Emits an {Approval} event indicating the updated allowance. This is not required by the EIP. See the note at the beginning of {ERC20}. NOTE: Does not update the allowance if the current allowance is the maximum `uint256`. Requirements: - `from` and `to` cannot be the zero address. - `from` must have a balance of at least `amount`. - the caller must have allowance for ``from``'s tokens of at least `amount`."
					}
				},
				"version": 1
			},
			"evm": {
				"assembly": "    /* \"contracts/ANDREW-ERC-20.sol_flattened.sol\":5695:17305  contract ERC20 is Context, IERC20, IERC20Metadata {... */\n  mstore(0x40, 0x80)\n    /* \"contracts/ANDREW-ERC-20.sol_flattened.sol\":6270:6383  constructor(string memory name_, string memory symbol_) {... */\n  callvalue\n  dup1\n  iszero\n  tag_1\n  jumpi\n  0x00\n  dup1\n  revert\ntag_1:\n  pop\n  mload(0x40)\n  sub(codesize, bytecodeSize)\n  dup1\n  bytecodeSize\n  dup4\n  codecopy\n  dup2\n  dup2\n  add\n  0x40\n  mstore\n  dup2\n  add\n  swap1\n  tag_2\n  swap2\n  swap1\n  tag_3\n  jump\t// in\ntag_2:\n    /* \"contracts/ANDREW-ERC-20.sol_flattened.sol\":6344:6349  name_ */\n  dup2\n    /* \"contracts/ANDREW-ERC-20.sol_flattened.sol\":6336:6341  _name */\n  0x03\n    /* \"contracts/ANDREW-ERC-20.sol_flattened.sol\":6336:6349  _name = name_ */\n  swap1\n  dup2\n  tag_6\n  swap2\n  swap1\n  tag_7\n  jump\t// in\ntag_6:\n  pop\n    /* \"contracts/ANDREW-ERC-20.sol_flattened.sol\":6369:6376  symbol_ */\n  dup1\n    /* \"contracts/ANDREW-ERC-20.sol_flattened.sol\":6359:6366  _symbol */\n  0x04\n    /* \"contracts/ANDREW-ERC-20.sol_flattened.sol\":6359:6376  _symbol = symbol_ */\n  swap1\n  dup2\n  tag_8\n  swap2\n  swap1\n  tag_7\n  jump\t// in\ntag_8:\n  pop\n    /* \"contracts/ANDREW-ERC-20.sol_flattened.sol\":6270:6383  constructor(string memory name_, string memory symbol_) {... */\n  pop\n  pop\n    /* \"contracts/ANDREW-ERC-20.sol_flattened.sol\":5695:17305  contract ERC20 is Context, IERC20, IERC20Metadata {... */\n  jump(tag_9)\n    /* \"#utility.yul\":7:82   */\ntag_10:\n    /* \"#utility.yul\":40:46   */\n  0x00\n    /* \"#utility.yul\":73:75   */\n  0x40\n    /* \"#utility.yul\":67:76   */\n  mload\n    /* \"#utility.yul\":57:76   */\n  swap1\n  pop\n    /* \"#utility.yul\":7:82   */\n  swap1\n  jump\t// out\n    /* \"#utility.yul\":88:205   */\ntag_11:\n    /* \"#utility.yul\":197:198   */\n  0x00\n    /* \"#utility.yul\":194:195   */\n  dup1\n    /* \"#utility.yul\":187:199   */\n  revert\n    /* \"#utility.yul\":211:328   */\ntag_12:\n    /* \"#utility.yul\":320:321   */\n  0x00\n    /* \"#utility.yul\":317:318   */\n  dup1\n    /* \"#utility.yul\":310:322   */\n  revert\n    /* \"#utility.yul\":334:451   */\ntag_13:\n    /* \"#utility.yul\":443:444   */\n  0x00\n    /* \"#utility.yul\":440:441   */\n  dup1\n    /* \"#utility.yul\":433:445   */\n  revert\n    /* \"#utility.yul\":457:574   */\ntag_14:\n    /* \"#utility.yul\":566:567   */\n  0x00\n    /* \"#utility.yul\":563:564   */\n  dup1\n    /* \"#utility.yul\":556:568   */\n  revert\n    /* \"#utility.yul\":580:682   */\ntag_15:\n    /* \"#utility.yul\":621:627   */\n  0x00\n    /* \"#utility.yul\":672:674   */\n  0x1f\n    /* \"#utility.yul\":668:675   */\n  not\n    /* \"#utility.yul\":663:665   */\n  0x1f\n    /* \"#utility.yul\":656:661   */\n  dup4\n    /* \"#utility.yul\":652:666   */\n  add\n    /* \"#utility.yul\":648:676   */\n  and\n    /* \"#utility.yul\":638:676   */\n  swap1\n  pop\n    /* \"#utility.yul\":580:682   */\n  swap2\n  swap1\n  pop\n  jump\t// out\n    /* \"#utility.yul\":688:868   */\ntag_16:\n    /* \"#utility.yul\":736:813   */\n  0x4e487b7100000000000000000000000000000000000000000000000000000000\n    /* \"#utility.yul\":733:734   */\n  0x00\n    /* \"#utility.yul\":726:814   */\n  mstore\n    /* \"#utility.yul\":833:837   */\n  0x41\n    /* \"#utility.yul\":830:831   */\n  0x04\n    /* \"#utility.yul\":823:838   */\n  mstore\n    /* \"#utility.yul\":857:861   */\n  0x24\n    /* \"#utility.yul\":854:855   */\n  0x00\n    /* \"#utility.yul\":847:862   */\n  revert\n    /* \"#utility.yul\":874:1155   */\ntag_17:\n    /* \"#utility.yul\":957:984   */\n  tag_51\n    /* \"#utility.yul\":979:983   */\n  dup3\n    /* \"#utility.yul\":957:984   */\n  tag_15\n  jump\t// in\ntag_51:\n    /* \"#utility.yul\":949:955   */\n  dup2\n    /* \"#utility.yul\":945:985   */\n  add\n    /* \"#utility.yul\":1087:1093   */\n  dup2\n    /* \"#utility.yul\":1075:1085   */\n  dup2\n    /* \"#utility.yul\":1072:1094   */\n  lt\n    /* \"#utility.yul\":1051:1069   */\n  0xffffffffffffffff\n    /* \"#utility.yul\":1039:1049   */\n  dup3\n    /* \"#utility.yul\":1036:1070   */\n  gt\n    /* \"#utility.yul\":1033:1095   */\n  or\n    /* \"#utility.yul\":1030:1118   */\n  iszero\n  tag_52\n  jumpi\n    /* \"#utility.yul\":1098:1116   */\n  tag_53\n  tag_16\n  jump\t// in\ntag_53:\n    /* \"#utility.yul\":1030:1118   */\ntag_52:\n    /* \"#utility.yul\":1138:1148   */\n  dup1\n    /* \"#utility.yul\":1134:1136   */\n  0x40\n    /* \"#utility.yul\":1127:1149   */\n  mstore\n    /* \"#utility.yul\":917:1155   */\n  pop\n    /* \"#utility.yul\":874:1155   */\n  pop\n  pop\n  jump\t// out\n    /* \"#utility.yul\":1161:1290   */\ntag_18:\n    /* \"#utility.yul\":1195:1201   */\n  0x00\n    /* \"#utility.yul\":1222:1242   */\n  tag_55\n  tag_10\n  jump\t// in\ntag_55:\n    /* \"#utility.yul\":1212:1242   */\n  swap1\n  pop\n    /* \"#utility.yul\":1251:1284   */\n  tag_56\n    /* \"#utility.yul\":1279:1283   */\n  dup3\n    /* \"#utility.yul\":1271:1277   */\n  dup3\n    /* \"#utility.yul\":1251:1284   */\n  tag_17\n  jump\t// in\ntag_56:\n    /* \"#utility.yul\":1161:1290   */\n  swap2\n  swap1\n  pop\n  jump\t// out\n    /* \"#utility.yul\":1296:1604   */\ntag_19:\n    /* \"#utility.yul\":1358:1362   */\n  0x00\n    /* \"#utility.yul\":1448:1466   */\n  0xffffffffffffffff\n    /* \"#utility.yul\":1440:1446   */\n  dup3\n    /* \"#utility.yul\":1437:1467   */\n  gt\n    /* \"#utility.yul\":1434:1490   */\n  iszero\n  tag_58\n  jumpi\n    /* \"#utility.yul\":1470:1488   */\n  tag_59\n  tag_16\n  jump\t// in\ntag_59:\n    /* \"#utility.yul\":1434:1490   */\ntag_58:\n    /* \"#utility.yul\":1508:1537   */\n  tag_60\n    /* \"#utility.yul\":1530:1536   */\n  dup3\n    /* \"#utility.yul\":1508:1537   */\n  tag_15\n  jump\t// in\ntag_60:\n    /* \"#utility.yul\":1500:1537   */\n  swap1\n  pop\n    /* \"#utility.yul\":1592:1596   */\n  0x20\n    /* \"#utility.yul\":1586:1590   */\n  dup2\n    /* \"#utility.yul\":1582:1597   */\n  add\n    /* \"#utility.yul\":1574:1597   */\n  swap1\n  pop\n    /* \"#utility.yul\":1296:1604   */\n  swap2\n  swap1\n  pop\n  jump\t// out\n    /* \"#utility.yul\":1610:1856   */\ntag_20:\n    /* \"#utility.yul\":1691:1692   */\n  0x00\n    /* \"#utility.yul\":1701:1814   */\ntag_62:\n    /* \"#utility.yul\":1715:1721   */\n  dup4\n    /* \"#utility.yul\":1712:1713   */\n  dup2\n    /* \"#utility.yul\":1709:1722   */\n  lt\n    /* \"#utility.yul\":1701:1814   */\n  iszero\n  tag_64\n  jumpi\n    /* \"#utility.yul\":1800:1801   */\n  dup1\n    /* \"#utility.yul\":1795:1798   */\n  dup3\n    /* \"#utility.yul\":1791:1802   */\n  add\n    /* \"#utility.yul\":1785:1803   */\n  mload\n    /* \"#utility.yul\":1781:1782   */\n  dup2\n    /* \"#utility.yul\":1776:1779   */\n  dup5\n    /* \"#utility.yul\":1772:1783   */\n  add\n    /* \"#utility.yul\":1765:1804   */\n  mstore\n    /* \"#utility.yul\":1737:1739   */\n  0x20\n    /* \"#utility.yul\":1734:1735   */\n  dup2\n    /* \"#utility.yul\":1730:1740   */\n  add\n    /* \"#utility.yul\":1725:1740   */\n  swap1\n  pop\n    /* \"#utility.yul\":1701:1814   */\n  jump(tag_62)\ntag_64:\n    /* \"#utility.yul\":1848:1849   */\n  0x00\n    /* \"#utility.yul\":1839:1845   */\n  dup5\n    /* \"#utility.yul\":1834:1837   */\n  dup5\n    /* \"#utility.yul\":1830:1846   */\n  add\n    /* \"#utility.yul\":1823:1850   */\n  mstore\n    /* \"#utility.yul\":1672:1856   */\n  pop\n    /* \"#utility.yul\":1610:1856   */\n  pop\n  pop\n  pop\n  jump\t// out\n    /* \"#utility.yul\":1862:2296   */\ntag_21:\n    /* \"#utility.yul\":1951:1956   */\n  0x00\n    /* \"#utility.yul\":1976:2042   */\n  tag_66\n    /* \"#utility.yul\":1992:2041   */\n  tag_67\n    /* \"#utility.yul\":2034:2040   */\n  dup5\n    /* \"#utility.yul\":1992:2041   */\n  tag_19\n  jump\t// in\ntag_67:\n    /* \"#utility.yul\":1976:2042   */\n  tag_18\n  jump\t// in\ntag_66:\n    /* \"#utility.yul\":1967:2042   */\n  swap1\n  pop\n    /* \"#utility.yul\":2065:2071   */\n  dup3\n    /* \"#utility.yul\":2058:2063   */\n  dup2\n    /* \"#utility.yul\":2051:2072   */\n  mstore\n    /* \"#utility.yul\":2103:2107   */\n  0x20\n    /* \"#utility.yul\":2096:2101   */\n  dup2\n    /* \"#utility.yul\":2092:2108   */\n  add\n    /* \"#utility.yul\":2141:2144   */\n  dup5\n    /* \"#utility.yul\":2132:2138   */\n  dup5\n    /* \"#utility.yul\":2127:2130   */\n  dup5\n    /* \"#utility.yul\":2123:2139   */\n  add\n    /* \"#utility.yul\":2120:2145   */\n  gt\n    /* \"#utility.yul\":2117:2229   */\n  iszero\n  tag_68\n  jumpi\n    /* \"#utility.yul\":2148:2227   */\n  tag_69\n  tag_14\n  jump\t// in\ntag_69:\n    /* \"#utility.yul\":2117:2229   */\ntag_68:\n    /* \"#utility.yul\":2238:2290   */\n  tag_70\n    /* \"#utility.yul\":2283:2289   */\n  dup5\n    /* \"#utility.yul\":2278:2281   */\n  dup3\n    /* \"#utility.yul\":2273:2276   */\n  dup6\n    /* \"#utility.yul\":2238:2290   */\n  tag_20\n  jump\t// in\ntag_70:\n    /* \"#utility.yul\":1957:2296   */\n  pop\n    /* \"#utility.yul\":1862:2296   */\n  swap4\n  swap3\n  pop\n  pop\n  pop\n  jump\t// out\n    /* \"#utility.yul\":2316:2671   */\ntag_22:\n    /* \"#utility.yul\":2383:2388   */\n  0x00\n    /* \"#utility.yul\":2432:2435   */\n  dup3\n    /* \"#utility.yul\":2425:2429   */\n  0x1f\n    /* \"#utility.yul\":2417:2423   */\n  dup4\n    /* \"#utility.yul\":2413:2430   */\n  add\n    /* \"#utility.yul\":2409:2436   */\n  slt\n    /* \"#utility.yul\":2399:2521   */\n  tag_72\n  jumpi\n    /* \"#utility.yul\":2440:2519   */\n  tag_73\n  tag_13\n  jump\t// in\ntag_73:\n    /* \"#utility.yul\":2399:2521   */\ntag_72:\n    /* \"#utility.yul\":2550:2556   */\n  dup2\n    /* \"#utility.yul\":2544:2557   */\n  mload\n    /* \"#utility.yul\":2575:2665   */\n  tag_74\n    /* \"#utility.yul\":2661:2664   */\n  dup5\n    /* \"#utility.yul\":2653:2659   */\n  dup3\n    /* \"#utility.yul\":2646:2650   */\n  0x20\n    /* \"#utility.yul\":2638:2644   */\n  dup7\n    /* \"#utility.yul\":2634:2651   */\n  add\n    /* \"#utility.yul\":2575:2665   */\n  tag_21\n  jump\t// in\ntag_74:\n    /* \"#utility.yul\":2566:2665   */\n  swap2\n  pop\n    /* \"#utility.yul\":2389:2671   */\n  pop\n    /* \"#utility.yul\":2316:2671   */\n  swap3\n  swap2\n  pop\n  pop\n  jump\t// out\n    /* \"#utility.yul\":2677:3530   */\ntag_3:\n    /* \"#utility.yul\":2776:2782   */\n  0x00\n    /* \"#utility.yul\":2784:2790   */\n  dup1\n    /* \"#utility.yul\":2833:2835   */\n  0x40\n    /* \"#utility.yul\":2821:2830   */\n  dup4\n    /* \"#utility.yul\":2812:2819   */\n  dup6\n    /* \"#utility.yul\":2808:2831   */\n  sub\n    /* \"#utility.yul\":2804:2836   */\n  slt\n    /* \"#utility.yul\":2801:2920   */\n  iszero\n  tag_76\n  jumpi\n    /* \"#utility.yul\":2839:2918   */\n  tag_77\n  tag_11\n  jump\t// in\ntag_77:\n    /* \"#utility.yul\":2801:2920   */\ntag_76:\n    /* \"#utility.yul\":2980:2981   */\n  0x00\n    /* \"#utility.yul\":2969:2978   */\n  dup4\n    /* \"#utility.yul\":2965:2982   */\n  add\n    /* \"#utility.yul\":2959:2983   */\n  mload\n    /* \"#utility.yul\":3010:3028   */\n  0xffffffffffffffff\n    /* \"#utility.yul\":3002:3008   */\n  dup2\n    /* \"#utility.yul\":2999:3029   */\n  gt\n    /* \"#utility.yul\":2996:3113   */\n  iszero\n  tag_78\n  jumpi\n    /* \"#utility.yul\":3032:3111   */\n  tag_79\n  tag_12\n  jump\t// in\ntag_79:\n    /* \"#utility.yul\":2996:3113   */\ntag_78:\n    /* \"#utility.yul\":3137:3211   */\n  tag_80\n    /* \"#utility.yul\":3203:3210   */\n  dup6\n    /* \"#utility.yul\":3194:3200   */\n  dup3\n    /* \"#utility.yul\":3183:3192   */\n  dup7\n    /* \"#utility.yul\":3179:3201   */\n  add\n    /* \"#utility.yul\":3137:3211   */\n  tag_22\n  jump\t// in\ntag_80:\n    /* \"#utility.yul\":3127:3211   */\n  swap3\n  pop\n    /* \"#utility.yul\":2930:3221   */\n  pop\n    /* \"#utility.yul\":3281:3283   */\n  0x20\n    /* \"#utility.yul\":3270:3279   */\n  dup4\n    /* \"#utility.yul\":3266:3284   */\n  add\n    /* \"#utility.yul\":3260:3285   */\n  mload\n    /* \"#utility.yul\":3312:3330   */\n  0xffffffffffffffff\n    /* \"#utility.yul\":3304:3310   */\n  dup2\n    /* \"#utility.yul\":3301:3331   */\n  gt\n    /* \"#utility.yul\":3298:3415   */\n  iszero\n  tag_81\n  jumpi\n    /* \"#utility.yul\":3334:3413   */\n  tag_82\n  tag_12\n  jump\t// in\ntag_82:\n    /* \"#utility.yul\":3298:3415   */\ntag_81:\n    /* \"#utility.yul\":3439:3513   */\n  tag_83\n    /* \"#utility.yul\":3505:3512   */\n  dup6\n    /* \"#utility.yul\":3496:3502   */\n  dup3\n    /* \"#utility.yul\":3485:3494   */\n  dup7\n    /* \"#utility.yul\":3481:3503   */\n  add\n    /* \"#utility.yul\":3439:3513   */\n  tag_22\n  jump\t// in\ntag_83:\n    /* \"#utility.yul\":3429:3513   */\n  swap2\n  pop\n    /* \"#utility.yul\":3231:3523   */\n  pop\n    /* \"#utility.yul\":2677:3530   */\n  swap3\n  pop\n  swap3\n  swap1\n  pop\n  jump\t// out\n    /* \"#utility.yul\":3536:3635   */\ntag_23:\n    /* \"#utility.yul\":3588:3594   */\n  0x00\n    /* \"#utility.yul\":3622:3627   */\n  dup2\n    /* \"#utility.yul\":3616:3628   */\n  mload\n    /* \"#utility.yul\":3606:3628   */\n  swap1\n  pop\n    /* \"#utility.yul\":3536:3635   */\n  swap2\n  swap1\n  pop\n  jump\t// out\n    /* \"#utility.yul\":3641:3821   */\ntag_24:\n    /* \"#utility.yul\":3689:3766   */\n  0x4e487b7100000000000000000000000000000000000000000000000000000000\n    /* \"#utility.yul\":3686:3687   */\n  0x00\n    /* \"#utility.yul\":3679:3767   */\n  mstore\n    /* \"#utility.yul\":3786:3790   */\n  0x22\n    /* \"#utility.yul\":3783:3784   */\n  0x04\n    /* \"#utility.yul\":3776:3791   */\n  mstore\n    /* \"#utility.yul\":3810:3814   */\n  0x24\n    /* \"#utility.yul\":3807:3808   */\n  0x00\n    /* \"#utility.yul\":3800:3815   */\n  revert\n    /* \"#utility.yul\":3827:4147   */\ntag_25:\n    /* \"#utility.yul\":3871:3877   */\n  0x00\n    /* \"#utility.yul\":3908:3909   */\n  0x02\n    /* \"#utility.yul\":3902:3906   */\n  dup3\n    /* \"#utility.yul\":3898:3910   */\n  div\n    /* \"#utility.yul\":3888:3910   */\n  swap1\n  pop\n    /* \"#utility.yul\":3955:3956   */\n  0x01\n    /* \"#utility.yul\":3949:3953   */\n  dup3\n    /* \"#utility.yul\":3945:3957   */\n  and\n    /* \"#utility.yul\":3976:3994   */\n  dup1\n    /* \"#utility.yul\":3966:4047   */\n  tag_87\n  jumpi\n    /* \"#utility.yul\":4032:4036   */\n  0x7f\n    /* \"#utility.yul\":4024:4030   */\n  dup3\n    /* \"#utility.yul\":4020:4037   */\n  and\n    /* \"#utility.yul\":4010:4037   */\n  swap2\n  pop\n    /* \"#utility.yul\":3966:4047   */\ntag_87:\n    /* \"#utility.yul\":4094:4096   */\n  0x20\n    /* \"#utility.yul\":4086:4092   */\n  dup3\n    /* \"#utility.yul\":4083:4097   */\n  lt\n    /* \"#utility.yul\":4063:4081   */\n  dup2\n    /* \"#utility.yul\":4060:4098   */\n  sub\n    /* \"#utility.yul\":4057:4141   */\n  tag_88\n  jumpi\n    /* \"#utility.yul\":4113:4131   */\n  tag_89\n  tag_24\n  jump\t// in\ntag_89:\n    /* \"#utility.yul\":4057:4141   */\ntag_88:\n    /* \"#utility.yul\":3878:4147   */\n  pop\n    /* \"#utility.yul\":3827:4147   */\n  swap2\n  swap1\n  pop\n  jump\t// out\n    /* \"#utility.yul\":4153:4294   */\ntag_26:\n    /* \"#utility.yul\":4202:4206   */\n  0x00\n    /* \"#utility.yul\":4225:4228   */\n  dup2\n    /* \"#utility.yul\":4217:4228   */\n  swap1\n  pop\n    /* \"#utility.yul\":4248:4251   */\n  dup2\n    /* \"#utility.yul\":4245:4246   */\n  0x00\n    /* \"#utility.yul\":4238:4252   */\n  mstore\n    /* \"#utility.yul\":4282:4286   */\n  0x20\n    /* \"#utility.yul\":4279:4280   */\n  0x00\n    /* \"#utility.yul\":4269:4287   */\n  keccak256\n    /* \"#utility.yul\":4261:4287   */\n  swap1\n  pop\n    /* \"#utility.yul\":4153:4294   */\n  swap2\n  swap1\n  pop\n  jump\t// out\n    /* \"#utility.yul\":4300:4393   */\ntag_27:\n    /* \"#utility.yul\":4337:4343   */\n  0x00\n    /* \"#utility.yul\":4384:4386   */\n  0x20\n    /* \"#utility.yul\":4379:4381   */\n  0x1f\n    /* \"#utility.yul\":4372:4377   */\n  dup4\n    /* \"#utility.yul\":4368:4382   */\n  add\n    /* \"#utility.yul\":4364:4387   */\n  div\n    /* \"#utility.yul\":4354:4387   */\n  swap1\n  pop\n    /* \"#utility.yul\":4300:4393   */\n  swap2\n  swap1\n  pop\n  jump\t// out\n    /* \"#utility.yul\":4399:4506   */\ntag_28:\n    /* \"#utility.yul\":4443:4451   */\n  0x00\n    /* \"#utility.yul\":4493:4498   */\n  dup3\n    /* \"#utility.yul\":4487:4491   */\n  dup3\n    /* \"#utility.yul\":4483:4499   */\n  shl\n    /* \"#utility.yul\":4462:4499   */\n  swap1\n  pop\n    /* \"#utility.yul\":4399:4506   */\n  swap3\n  swap2\n  pop\n  pop\n  jump\t// out\n    /* \"#utility.yul\":4512:4905   */\ntag_29:\n    /* \"#utility.yul\":4581:4587   */\n  0x00\n    /* \"#utility.yul\":4631:4632   */\n  0x08\n    /* \"#utility.yul\":4619:4629   */\n  dup4\n    /* \"#utility.yul\":4615:4633   */\n  mul\n    /* \"#utility.yul\":4654:4751   */\n  tag_94\n    /* \"#utility.yul\":4684:4750   */\n  0xffffffffffffffffffffffffffffffffffffffffffffffffffffffffffffffff\n    /* \"#utility.yul\":4673:4682   */\n  dup3\n    /* \"#utility.yul\":4654:4751   */\n  tag_28\n  jump\t// in\ntag_94:\n    /* \"#utility.yul\":4772:4811   */\n  tag_95\n    /* \"#utility.yul\":4802:4810   */\n  dup7\n    /* \"#utility.yul\":4791:4800   */\n  dup4\n    /* \"#utility.yul\":4772:4811   */\n  tag_28\n  jump\t// in\ntag_95:\n    /* \"#utility.yul\":4760:4811   */\n  swap6\n  pop\n    /* \"#utility.yul\":4844:4848   */\n  dup1\n    /* \"#utility.yul\":4840:4849   */\n  not\n    /* \"#utility.yul\":4833:4838   */\n  dup5\n    /* \"#utility.yul\":4829:4850   */\n  and\n    /* \"#utility.yul\":4820:4850   */\n  swap4\n  pop\n    /* \"#utility.yul\":4893:4897   */\n  dup1\n    /* \"#utility.yul\":4883:4891   */\n  dup7\n    /* \"#utility.yul\":4879:4898   */\n  and\n    /* \"#utility.yul\":4872:4877   */\n  dup5\n    /* \"#utility.yul\":4869:4899   */\n  or\n    /* \"#utility.yul\":4859:4899   */\n  swap3\n  pop\n    /* \"#utility.yul\":4588:4905   */\n  pop\n  pop\n    /* \"#utility.yul\":4512:4905   */\n  swap4\n  swap3\n  pop\n  pop\n  pop\n  jump\t// out\n    /* \"#utility.yul\":4911:4988   */\ntag_30:\n    /* \"#utility.yul\":4948:4955   */\n  0x00\n    /* \"#utility.yul\":4977:4982   */\n  dup2\n    /* \"#utility.yul\":4966:4982   */\n  swap1\n  pop\n    /* \"#utility.yul\":4911:4988   */\n  swap2\n  swap1\n  pop\n  jump\t// out\n    /* \"#utility.yul\":4994:5054   */\ntag_31:\n    /* \"#utility.yul\":5022:5025   */\n  0x00\n    /* \"#utility.yul\":5043:5048   */\n  dup2\n    /* \"#utility.yul\":5036:5048   */\n  swap1\n  pop\n    /* \"#utility.yul\":4994:5054   */\n  swap2\n  swap1\n  pop\n  jump\t// out\n    /* \"#utility.yul\":5060:5202   */\ntag_32:\n    /* \"#utility.yul\":5110:5119   */\n  0x00\n    /* \"#utility.yul\":5143:5196   */\n  tag_99\n    /* \"#utility.yul\":5161:5195   */\n  tag_100\n    /* \"#utility.yul\":5170:5194   */\n  tag_101\n    /* \"#utility.yul\":5188:5193   */\n  dup5\n    /* \"#utility.yul\":5170:5194   */\n  tag_30\n  jump\t// in\ntag_101:\n    /* \"#utility.yul\":5161:5195   */\n  tag_31\n  jump\t// in\ntag_100:\n    /* \"#utility.yul\":5143:5196   */\n  tag_30\n  jump\t// in\ntag_99:\n    /* \"#utility.yul\":5130:5196   */\n  swap1\n  pop\n    /* \"#utility.yul\":5060:5202   */\n  swap2\n  swap1\n  pop\n  jump\t// out\n    /* \"#utility.yul\":5208:5283   */\ntag_33:\n    /* \"#utility.yul\":5251:5254   */\n  0x00\n    /* \"#utility.yul\":5272:5277   */\n  dup2\n    /* \"#utility.yul\":5265:5277   */\n  swap1\n  pop\n    /* \"#utility.yul\":5208:5283   */\n  swap2\n  swap1\n  pop\n  jump\t// out\n    /* \"#utility.yul\":5289:5558   */\ntag_34:\n    /* \"#utility.yul\":5399:5438   */\n  tag_104\n    /* \"#utility.yul\":5430:5437   */\n  dup4\n    /* \"#utility.yul\":5399:5438   */\n  tag_32\n  jump\t// in\ntag_104:\n    /* \"#utility.yul\":5460:5551   */\n  tag_105\n    /* \"#utility.yul\":5509:5550   */\n  tag_106\n    /* \"#utility.yul\":5533:5549   */\n  dup3\n    /* \"#utility.yul\":5509:5550   */\n  tag_33\n  jump\t// in\ntag_106:\n    /* \"#utility.yul\":5501:5507   */\n  dup5\n    /* \"#utility.yul\":5494:5498   */\n  dup5\n    /* \"#utility.yul\":5488:5499   */\n  sload\n    /* \"#utility.yul\":5460:5551   */\n  tag_29\n  jump\t// in\ntag_105:\n    /* \"#utility.yul\":5454:5458   */\n  dup3\n    /* \"#utility.yul\":5447:5552   */\n  sstore\n    /* \"#utility.yul\":5365:5558   */\n  pop\n    /* \"#utility.yul\":5289:5558   */\n  pop\n  pop\n  pop\n  jump\t// out\n    /* \"#utility.yul\":5564:5637   */\ntag_35:\n    /* \"#utility.yul\":5609:5612   */\n  0x00\n    /* \"#utility.yul\":5564:5637   */\n  swap1\n  jump\t// out\n    /* \"#utility.yul\":5643:5832   */\ntag_36:\n    /* \"#utility.yul\":5720:5752   */\n  tag_109\n  tag_35\n  jump\t// in\ntag_109:\n    /* \"#utility.yul\":5761:5826   */\n  tag_110\n    /* \"#utility.yul\":5819:5825   */\n  dup2\n    /* \"#utility.yul\":5811:5817   */\n  dup5\n    /* \"#utility.yul\":5805:5809   */\n  dup5\n    /* \"#utility.yul\":5761:5826   */\n  tag_34\n  jump\t// in\ntag_110:\n    /* \"#utility.yul\":5696:5832   */\n  pop\n    /* \"#utility.yul\":5643:5832   */\n  pop\n  pop\n  jump\t// out\n    /* \"#utility.yul\":5838:6024   */\ntag_37:\n    /* \"#utility.yul\":5898:6018   */\ntag_112:\n    /* \"#utility.yul\":5915:5918   */\n  dup2\n    /* \"#utility.yul\":5908:5913   */\n  dup2\n    /* \"#utility.yul\":5905:5919   */\n  lt\n    /* \"#utility.yul\":5898:6018   */\n  iszero\n  tag_114\n  jumpi\n    /* \"#utility.yul\":5969:6008   */\n  tag_115\n    /* \"#utility.yul\":6006:6007   */\n  0x00\n    /* \"#utility.yul\":5999:6004   */\n  dup3\n    /* \"#utility.yul\":5969:6008   */\n  tag_36\n  jump\t// in\ntag_115:\n    /* \"#utility.yul\":5942:5943   */\n  0x01\n    /* \"#utility.yul\":5935:5940   */\n  dup2\n    /* \"#utility.yul\":5931:5944   */\n  add\n    /* \"#utility.yul\":5922:5944   */\n  swap1\n  pop\n    /* \"#utility.yul\":5898:6018   */\n  jump(tag_112)\ntag_114:\n    /* \"#utility.yul\":5838:6024   */\n  pop\n  pop\n  jump\t// out\n    /* \"#utility.yul\":6030:6573   */\ntag_38:\n    /* \"#utility.yul\":6131:6133   */\n  0x1f\n    /* \"#utility.yul\":6126:6129   */\n  dup3\n    /* \"#utility.yul\":6123:6134   */\n  gt\n    /* \"#utility.yul\":6120:6566   */\n  iszero\n  tag_117\n  jumpi\n    /* \"#utility.yul\":6165:6203   */\n  tag_118\n    /* \"#utility.yul\":6197:6202   */\n  dup2\n    /* \"#utility.yul\":6165:6203   */\n  tag_26\n  jump\t// in\ntag_118:\n    /* \"#utility.yul\":6249:6278   */\n  tag_119\n    /* \"#utility.yul\":6267:6277   */\n  dup5\n    /* \"#utility.yul\":6249:6278   */\n  tag_27\n  jump\t// in\ntag_119:\n    /* \"#utility.yul\":6239:6247   */\n  dup2\n    /* \"#utility.yul\":6235:6279   */\n  add\n    /* \"#utility.yul\":6432:6434   */\n  0x20\n    /* \"#utility.yul\":6420:6430   */\n  dup6\n    /* \"#utility.yul\":6417:6435   */\n  lt\n    /* \"#utility.yul\":6414:6463   */\n  iszero\n  tag_120\n  jumpi\n    /* \"#utility.yul\":6453:6461   */\n  dup2\n    /* \"#utility.yul\":6438:6461   */\n  swap1\n  pop\n    /* \"#utility.yul\":6414:6463   */\ntag_120:\n    /* \"#utility.yul\":6476:6556   */\n  tag_121\n    /* \"#utility.yul\":6532:6554   */\n  tag_122\n    /* \"#utility.yul\":6550:6553   */\n  dup6\n    /* \"#utility.yul\":6532:6554   */\n  tag_27\n  jump\t// in\ntag_122:\n    /* \"#utility.yul\":6522:6530   */\n  dup4\n    /* \"#utility.yul\":6518:6555   */\n  add\n    /* \"#utility.yul\":6505:6516   */\n  dup3\n    /* \"#utility.yul\":6476:6556   */\n  tag_37\n  jump\t// in\ntag_121:\n    /* \"#utility.yul\":6135:6566   */\n  pop\n  pop\n    /* \"#utility.yul\":6120:6566   */\ntag_117:\n    /* \"#utility.yul\":6030:6573   */\n  pop\n  pop\n  pop\n  jump\t// out\n    /* \"#utility.yul\":6579:6696   */\ntag_39:\n    /* \"#utility.yul\":6633:6641   */\n  0x00\n    /* \"#utility.yul\":6683:6688   */\n  dup3\n    /* \"#utility.yul\":6677:6681   */\n  dup3\n    /* \"#utility.yul\":6673:6689   */\n  shr\n    /* \"#utility.yul\":6652:6689   */\n  swap1\n  pop\n    /* \"#utility.yul\":6579:6696   */\n  swap3\n  swap2\n  pop\n  pop\n  jump\t// out\n    /* \"#utility.yul\":6702:6871   */\ntag_40:\n    /* \"#utility.yul\":6746:6752   */\n  0x00\n    /* \"#utility.yul\":6779:6830   */\n  tag_125\n    /* \"#utility.yul\":6827:6828   */\n  0x00\n    /* \"#utility.yul\":6823:6829   */\n  not\n    /* \"#utility.yul\":6815:6820   */\n  dup5\n    /* \"#utility.yul\":6812:6813   */\n  0x08\n    /* \"#utility.yul\":6808:6821   */\n  mul\n    /* \"#utility.yul\":6779:6830   */\n  tag_39\n  jump\t// in\ntag_125:\n    /* \"#utility.yul\":6775:6831   */\n  not\n    /* \"#utility.yul\":6860:6864   */\n  dup1\n    /* \"#utility.yul\":6854:6858   */\n  dup4\n    /* \"#utility.yul\":6850:6865   */\n  and\n    /* \"#utility.yul\":6840:6865   */\n  swap2\n  pop\n    /* \"#utility.yul\":6753:6871   */\n  pop\n    /* \"#utility.yul\":6702:6871   */\n  swap3\n  swap2\n  pop\n  pop\n  jump\t// out\n    /* \"#utility.yul\":6876:7171   */\ntag_41:\n    /* \"#utility.yul\":6952:6956   */\n  0x00\n    /* \"#utility.yul\":7098:7127   */\n  tag_127\n    /* \"#utility.yul\":7123:7126   */\n  dup4\n    /* \"#utility.yul\":7117:7121   */\n  dup4\n    /* \"#utility.yul\":7098:7127   */\n  tag_40\n  jump\t// in\ntag_127:\n    /* \"#utility.yul\":7090:7127   */\n  swap2\n  pop\n    /* \"#utility.yul\":7160:7163   */\n  dup3\n    /* \"#utility.yul\":7157:7158   */\n  0x02\n    /* \"#utility.yul\":7153:7164   */\n  mul\n    /* \"#utility.yul\":7147:7151   */\n  dup3\n    /* \"#utility.yul\":7144:7165   */\n  or\n    /* \"#utility.yul\":7136:7165   */\n  swap1\n  pop\n    /* \"#utility.yul\":6876:7171   */\n  swap3\n  swap2\n  pop\n  pop\n  jump\t// out\n    /* \"#utility.yul\":7176:8571   */\ntag_7:\n    /* \"#utility.yul\":7293:7330   */\n  tag_129\n    /* \"#utility.yul\":7326:7329   */\n  dup3\n    /* \"#utility.yul\":7293:7330   */\n  tag_23\n  jump\t// in\ntag_129:\n    /* \"#utility.yul\":7395:7413   */\n  0xffffffffffffffff\n    /* \"#utility.yul\":7387:7393   */\n  dup2\n    /* \"#utility.yul\":7384:7414   */\n  gt\n    /* \"#utility.yul\":7381:7437   */\n  iszero\n  tag_130\n  jumpi\n    /* \"#utility.yul\":7417:7435   */\n  tag_131\n  tag_16\n  jump\t// in\ntag_131:\n    /* \"#utility.yul\":7381:7437   */\ntag_130:\n    /* \"#utility.yul\":7461:7499   */\n  tag_132\n    /* \"#utility.yul\":7493:7497   */\n  dup3\n    /* \"#utility.yul\":7487:7498   */\n  sload\n    /* \"#utility.yul\":7461:7499   */\n  tag_25\n  jump\t// in\ntag_132:\n    /* \"#utility.yul\":7546:7613   */\n  tag_133\n    /* \"#utility.yul\":7606:7612   */\n  dup3\n    /* \"#utility.yul\":7598:7604   */\n  dup3\n    /* \"#utility.yul\":7592:7596   */\n  dup6\n    /* \"#utility.yul\":7546:7613   */\n  tag_38\n  jump\t// in\ntag_133:\n    /* \"#utility.yul\":7640:7641   */\n  0x00\n    /* \"#utility.yul\":7664:7668   */\n  0x20\n    /* \"#utility.yul\":7651:7668   */\n  swap1\n  pop\n    /* \"#utility.yul\":7696:7698   */\n  0x1f\n    /* \"#utility.yul\":7688:7694   */\n  dup4\n    /* \"#utility.yul\":7685:7699   */\n  gt\n    /* \"#utility.yul\":7713:7714   */\n  0x01\n    /* \"#utility.yul\":7708:8326   */\n  dup2\n  eq\n  tag_135\n  jumpi\n    /* \"#utility.yul\":8370:8371   */\n  0x00\n    /* \"#utility.yul\":8387:8393   */\n  dup5\n    /* \"#utility.yul\":8384:8461   */\n  iszero\n  tag_136\n  jumpi\n    /* \"#utility.yul\":8436:8445   */\n  dup3\n    /* \"#utility.yul\":8431:8434   */\n  dup8\n    /* \"#utility.yul\":8427:8446   */\n  add\n    /* \"#utility.yul\":8421:8447   */\n  mload\n    /* \"#utility.yul\":8412:8447   */\n  swap1\n  pop\n    /* \"#utility.yul\":8384:8461   */\ntag_136:\n    /* \"#utility.yul\":8487:8554   */\n  tag_137\n    /* \"#utility.yul\":8547:8553   */\n  dup6\n    /* \"#utility.yul\":8540:8545   */\n  dup3\n    /* \"#utility.yul\":8487:8554   */\n  tag_41\n  jump\t// in\ntag_137:\n    /* \"#utility.yul\":8481:8485   */\n  dup7\n    /* \"#utility.yul\":8474:8555   */\n  sstore\n    /* \"#utility.yul\":8343:8565   */\n  pop\n    /* \"#utility.yul\":7678:8565   */\n  jump(tag_134)\n    /* \"#utility.yul\":7708:8326   */\ntag_135:\n    /* \"#utility.yul\":7760:7764   */\n  0x1f\n    /* \"#utility.yul\":7756:7765   */\n  not\n    /* \"#utility.yul\":7748:7754   */\n  dup5\n    /* \"#utility.yul\":7744:7766   */\n  and\n    /* \"#utility.yul\":7794:7831   */\n  tag_138\n    /* \"#utility.yul\":7826:7830   */\n  dup7\n    /* \"#utility.yul\":7794:7831   */\n  tag_26\n  jump\t// in\ntag_138:\n    /* \"#utility.yul\":7853:7854   */\n  0x00\n    /* \"#utility.yul\":7867:8075   */\ntag_139:\n    /* \"#utility.yul\":7881:7888   */\n  dup3\n    /* \"#utility.yul\":7878:7879   */\n  dup2\n    /* \"#utility.yul\":7875:7889   */\n  lt\n    /* \"#utility.yul\":7867:8075   */\n  iszero\n  tag_141\n  jumpi\n    /* \"#utility.yul\":7960:7969   */\n  dup5\n    /* \"#utility.yul\":7955:7958   */\n  dup10\n    /* \"#utility.yul\":7951:7970   */\n  add\n    /* \"#utility.yul\":7945:7971   */\n  mload\n    /* \"#utility.yul\":7937:7943   */\n  dup3\n    /* \"#utility.yul\":7930:7972   */\n  sstore\n    /* \"#utility.yul\":8011:8012   */\n  0x01\n    /* \"#utility.yul\":8003:8009   */\n  dup3\n    /* \"#utility.yul\":7999:8013   */\n  add\n    /* \"#utility.yul\":7989:8013   */\n  swap2\n  pop\n    /* \"#utility.yul\":8058:8060   */\n  0x20\n    /* \"#utility.yul\":8047:8056   */\n  dup6\n    /* \"#utility.yul\":8043:8061   */\n  add\n    /* \"#utility.yul\":8030:8061   */\n  swap5\n  pop\n    /* \"#utility.yul\":7904:7908   */\n  0x20\n    /* \"#utility.yul\":7901:7902   */\n  dup2\n    /* \"#utility.yul\":7897:7909   */\n  add\n    /* \"#utility.yul\":7892:7909   */\n  swap1\n  pop\n    /* \"#utility.yul\":7867:8075   */\n  jump(tag_139)\ntag_141:\n    /* \"#utility.yul\":8103:8109   */\n  dup7\n    /* \"#utility.yul\":8094:8101   */\n  dup4\n    /* \"#utility.yul\":8091:8110   */\n  lt\n    /* \"#utility.yul\":8088:8267   */\n  iszero\n  tag_142\n  jumpi\n    /* \"#utility.yul\":8161:8170   */\n  dup5\n    /* \"#utility.yul\":8156:8159   */\n  dup10\n    /* \"#utility.yul\":8152:8171   */\n  add\n    /* \"#utility.yul\":8146:8172   */\n  mload\n    /* \"#utility.yul\":8204:8252   */\n  tag_143\n    /* \"#utility.yul\":8246:8250   */\n  0x1f\n    /* \"#utility.yul\":8238:8244   */\n  dup10\n    /* \"#utility.yul\":8234:8251   */\n  and\n    /* \"#utility.yul\":8223:8232   */\n  dup3\n    /* \"#utility.yul\":8204:8252   */\n  tag_40\n  jump\t// in\ntag_143:\n    /* \"#utility.yul\":8196:8202   */\n  dup4\n    /* \"#utility.yul\":8189:8253   */\n  sstore\n    /* \"#utility.yul\":8111:8267   */\n  pop\n    /* \"#utility.yul\":8088:8267   */\ntag_142:\n    /* \"#utility.yul\":8313:8314   */\n  0x01\n    /* \"#utility.yul\":8309:8310   */\n  0x02\n    /* \"#utility.yul\":8301:8307   */\n  dup9\n    /* \"#utility.yul\":8297:8311   */\n  mul\n    /* \"#utility.yul\":8293:8315   */\n  add\n    /* \"#utility.yul\":8287:8291   */\n  dup9\n    /* \"#utility.yul\":8280:8316   */\n  sstore\n    /* \"#utility.yul\":7715:8326   */\n  pop\n  pop\n  pop\n    /* \"#utility.yul\":7678:8565   */\ntag_134:\n  pop\n    /* \"#utility.yul\":7268:8571   */\n  pop\n  pop\n  pop\n    /* \"#utility.yul\":7176:8571   */\n  pop\n  pop\n  jump\t// out\n    /* \"contracts/ANDREW-ERC-20.sol_flattened.sol\":5695:17305  contract ERC20 is Context, IERC20, IERC20Metadata {... */\ntag_9:\n  dataSize(sub_0)\n  dup1\n  dataOffset(sub_0)\n  0x00\n  codecopy\n  0x00\n  return\nstop\n\nsub_0: assembly {\n        /* \"contracts/ANDREW-ERC-20.sol_flattened.sol\":5695:17305  contract ERC20 is Context, IERC20, IERC20Metadata {... */\n      mstore(0x40, 0x80)\n      callvalue\n      dup1\n      iszero\n      tag_1\n      jumpi\n      0x00\n      dup1\n      revert\n    tag_1:\n      pop\n      jumpi(tag_2, lt(calldatasize, 0x04))\n      shr(0xe0, calldataload(0x00))\n      dup1\n      0x39509351\n      gt\n      tag_14\n      jumpi\n      dup1\n      0x39509351\n      eq\n      tag_8\n      jumpi\n      dup1\n      0x70a08231\n      eq\n      tag_9\n      jumpi\n      dup1\n      0x95d89b41\n      eq\n      tag_10\n      jumpi\n      dup1\n      0xa457c2d7\n      eq\n      tag_11\n      jumpi\n      dup1\n      0xa9059cbb\n      eq\n      tag_12\n      jumpi\n      dup1\n      0xdd62ed3e\n      eq\n      tag_13\n      jumpi\n      jump(tag_2)\n    tag_14:\n      dup1\n      0x06fdde03\n      eq\n      tag_3\n      jumpi\n      dup1\n      0x095ea7b3\n      eq\n      tag_4\n      jumpi\n      dup1\n      0x18160ddd\n      eq\n      tag_5\n      jumpi\n      dup1\n      0x23b872dd\n      eq\n      tag_6\n      jumpi\n      dup1\n      0x313ce567\n      eq\n      tag_7\n      jumpi\n    tag_2:\n      0x00\n      dup1\n      revert\n        /* \"contracts/ANDREW-ERC-20.sol_flattened.sol\":6448:6546  function name() public view virtual override returns (string memory) {... */\n    tag_3:\n      tag_15\n      tag_16\n      jump\t// in\n    tag_15:\n      mload(0x40)\n      tag_17\n      swap2\n      swap1\n      tag_18\n      jump\t// in\n    tag_17:\n      mload(0x40)\n      dup1\n      swap2\n      sub\n      swap1\n      return\n        /* \"contracts/ANDREW-ERC-20.sol_flattened.sol\":8725:8922  function approve(address spender, uint256 amount) public virtual override returns (bool) {... */\n    tag_4:\n      tag_19\n      0x04\n      dup1\n      calldatasize\n      sub\n      dup2\n      add\n      swap1\n      tag_20\n      swap2\n      swap1\n      tag_21\n      jump\t// in\n    tag_20:\n      tag_22\n      jump\t// in\n    tag_19:\n      mload(0x40)\n      tag_23\n      swap2\n      swap1\n      tag_24\n      jump\t// in\n    tag_23:\n      mload(0x40)\n      dup1\n      swap2\n      sub\n      swap1\n      return\n        /* \"contracts/ANDREW-ERC-20.sol_flattened.sol\":7536:7642  function totalSupply() public view virtual override returns (uint256) {... */\n    tag_5:\n      tag_25\n      tag_26\n      jump\t// in\n    tag_25:\n      mload(0x40)\n      tag_27\n      swap2\n      swap1\n      tag_28\n      jump\t// in\n    tag_27:\n      mload(0x40)\n      dup1\n      swap2\n      sub\n      swap1\n      return\n        /* \"contracts/ANDREW-ERC-20.sol_flattened.sol\":9484:9770  function transferFrom(... */\n    tag_6:\n      tag_29\n      0x04\n      dup1\n      calldatasize\n      sub\n      dup2\n      add\n      swap1\n      tag_30\n      swap2\n      swap1\n      tag_31\n      jump\t// in\n    tag_30:\n      tag_32\n      jump\t// in\n    tag_29:\n      mload(0x40)\n      tag_33\n      swap2\n      swap1\n      tag_24\n      jump\t// in\n    tag_33:\n      mload(0x40)\n      dup1\n      swap2\n      sub\n      swap1\n      return\n        /* \"contracts/ANDREW-ERC-20.sol_flattened.sol\":7385:7476  function decimals() public view virtual override returns (uint8) {... */\n    tag_7:\n      tag_34\n      tag_35\n      jump\t// in\n    tag_34:\n      mload(0x40)\n      tag_36\n      swap2\n      swap1\n      tag_37\n      jump\t// in\n    tag_36:\n      mload(0x40)\n      dup1\n      swap2\n      sub\n      swap1\n      return\n        /* \"contracts/ANDREW-ERC-20.sol_flattened.sol\":10165:10399  function increaseAllowance(address spender, uint256 addedValue) public virtual returns (bool) {... */\n    tag_8:\n      tag_38\n      0x04\n      dup1\n      calldatasize\n      sub\n      dup2\n      add\n      swap1\n      tag_39\n      swap2\n      swap1\n      tag_21\n      jump\t// in\n    tag_39:\n      tag_40\n      jump\t// in\n    tag_38:\n      mload(0x40)\n      tag_41\n      swap2\n      swap1\n      tag_24\n      jump\t// in\n    tag_41:\n      mload(0x40)\n      dup1\n      swap2\n      sub\n      swap1\n      return\n        /* \"contracts/ANDREW-ERC-20.sol_flattened.sol\":7700:7825  function balanceOf(address account) public view virtual override returns (uint256) {... */\n    tag_9:\n      tag_42\n      0x04\n      dup1\n      calldatasize\n      sub\n      dup2\n      add\n      swap1\n      tag_43\n      swap2\n      swap1\n      tag_44\n      jump\t// in\n    tag_43:\n      tag_45\n      jump\t// in\n    tag_42:\n      mload(0x40)\n      tag_46\n      swap2\n      swap1\n      tag_28\n      jump\t// in\n    tag_46:\n      mload(0x40)\n      dup1\n      swap2\n      sub\n      swap1\n      return\n        /* \"contracts/ANDREW-ERC-20.sol_flattened.sol\":6659:6761  function symbol() public view virtual override returns (string memory) {... */\n    tag_10:\n      tag_47\n      tag_48\n      jump\t// in\n    tag_47:\n      mload(0x40)\n      tag_49\n      swap2\n      swap1\n      tag_18\n      jump\t// in\n    tag_49:\n      mload(0x40)\n      dup1\n      swap2\n      sub\n      swap1\n      return\n        /* \"contracts/ANDREW-ERC-20.sol_flattened.sol\":10886:11313  function decreaseAllowance(address spender, uint256 subtractedValue) public virtual returns (bool) {... */\n    tag_11:\n      tag_50\n      0x04\n      dup1\n      calldatasize\n      sub\n      dup2\n      add\n      swap1\n      tag_51\n      swap2\n      swap1\n      tag_21\n      jump\t// in\n    tag_51:\n      tag_52\n      jump\t// in\n    tag_50:\n      mload(0x40)\n      tag_53\n      swap2\n      swap1\n      tag_24\n      jump\t// in\n    tag_53:\n      mload(0x40)\n      dup1\n      swap2\n      sub\n      swap1\n      return\n        /* \"contracts/ANDREW-ERC-20.sol_flattened.sol\":8021:8210  function transfer(address to, uint256 amount) public virtual override returns (bool) {... */\n    tag_12:\n      tag_54\n      0x04\n      dup1\n      calldatasize\n      sub\n      dup2\n      add\n      swap1\n      tag_55\n      swap2\n      swap1\n      tag_21\n      jump\t// in\n    tag_55:\n      tag_56\n      jump\t// in\n    tag_54:\n      mload(0x40)\n      tag_57\n      swap2\n      swap1\n      tag_24\n      jump\t// in\n    tag_57:\n      mload(0x40)\n      dup1\n      swap2\n      sub\n      swap1\n      return\n        /* \"contracts/ANDREW-ERC-20.sol_flattened.sol\":8268:8417  function allowance(address owner, address spender) public view virtual override returns (uint256) {... */\n    tag_13:\n      tag_58\n      0x04\n      dup1\n      calldatasize\n      sub\n      dup2\n      add\n      swap1\n      tag_59\n      swap2\n      swap1\n      tag_60\n      jump\t// in\n    tag_59:\n      tag_61\n      jump\t// in\n    tag_58:\n      mload(0x40)\n      tag_62\n      swap2\n      swap1\n      tag_28\n      jump\t// in\n    tag_62:\n      mload(0x40)\n      dup1\n      swap2\n      sub\n      swap1\n      return\n        /* \"contracts/ANDREW-ERC-20.sol_flattened.sol\":6448:6546  function name() public view virtual override returns (string memory) {... */\n    tag_16:\n        /* \"contracts/ANDREW-ERC-20.sol_flattened.sol\":6502:6515  string memory */\n      0x60\n        /* \"contracts/ANDREW-ERC-20.sol_flattened.sol\":6534:6539  _name */\n      0x03\n        /* \"contracts/ANDREW-ERC-20.sol_flattened.sol\":6527:6539  return _name */\n      dup1\n      sload\n      tag_64\n      swap1\n      tag_65\n      jump\t// in\n    tag_64:\n      dup1\n      0x1f\n      add\n      0x20\n      dup1\n      swap2\n      div\n      mul\n      0x20\n      add\n      mload(0x40)\n      swap1\n      dup2\n      add\n      0x40\n      mstore\n      dup1\n      swap3\n      swap2\n      swap1\n      dup2\n      dup2\n      mstore\n      0x20\n      add\n      dup3\n      dup1\n      sload\n      tag_66\n      swap1\n      tag_65\n      jump\t// in\n    tag_66:\n      dup1\n      iszero\n      tag_67\n      jumpi\n      dup1\n      0x1f\n      lt\n      tag_68\n      jumpi\n      0x0100\n      dup1\n      dup4\n      sload\n      div\n      mul\n      dup4\n      mstore\n      swap2\n      0x20\n      add\n      swap2\n      jump(tag_67)\n    tag_68:\n      dup3\n      add\n      swap2\n      swap1\n      0x00\n      mstore\n      keccak256(0x00, 0x20)\n      swap1\n    tag_69:\n      dup2\n      sload\n      dup2\n      mstore\n      swap1\n      0x01\n      add\n      swap1\n      0x20\n      add\n      dup1\n      dup4\n      gt\n      tag_69\n      jumpi\n      dup3\n      swap1\n      sub\n      0x1f\n      and\n      dup3\n      add\n      swap2\n    tag_67:\n      pop\n      pop\n      pop\n      pop\n      pop\n      swap1\n      pop\n        /* \"contracts/ANDREW-ERC-20.sol_flattened.sol\":6448:6546  function name() public view virtual override returns (string memory) {... */\n      swap1\n      jump\t// out\n        /* \"contracts/ANDREW-ERC-20.sol_flattened.sol\":8725:8922  function approve(address spender, uint256 amount) public virtual override returns (bool) {... */\n    tag_22:\n        /* \"contracts/ANDREW-ERC-20.sol_flattened.sol\":8808:8812  bool */\n      0x00\n        /* \"contracts/ANDREW-ERC-20.sol_flattened.sol\":8824:8837  address owner */\n      dup1\n        /* \"contracts/ANDREW-ERC-20.sol_flattened.sol\":8840:8852  _msgSender() */\n      tag_71\n        /* \"contracts/ANDREW-ERC-20.sol_flattened.sol\":8840:8850  _msgSender */\n      tag_72\n        /* \"contracts/ANDREW-ERC-20.sol_flattened.sol\":8840:8852  _msgSender() */\n      jump\t// in\n    tag_71:\n        /* \"contracts/ANDREW-ERC-20.sol_flattened.sol\":8824:8852  address owner = _msgSender() */\n      swap1\n      pop\n        /* \"contracts/ANDREW-ERC-20.sol_flattened.sol\":8862:8894  _approve(owner, spender, amount) */\n      tag_73\n        /* \"contracts/ANDREW-ERC-20.sol_flattened.sol\":8871:8876  owner */\n      dup2\n        /* \"contracts/ANDREW-ERC-20.sol_flattened.sol\":8878:8885  spender */\n      dup6\n        /* \"contracts/ANDREW-ERC-20.sol_flattened.sol\":8887:8893  amount */\n      dup6\n        /* \"contracts/ANDREW-ERC-20.sol_flattened.sol\":8862:8870  _approve */\n      tag_74\n        /* \"contracts/ANDREW-ERC-20.sol_flattened.sol\":8862:8894  _approve(owner, spender, amount) */\n      jump\t// in\n    tag_73:\n        /* \"contracts/ANDREW-ERC-20.sol_flattened.sol\":8911:8915  true */\n      0x01\n        /* \"contracts/ANDREW-ERC-20.sol_flattened.sol\":8904:8915  return true */\n      swap2\n      pop\n      pop\n        /* \"contracts/ANDREW-ERC-20.sol_flattened.sol\":8725:8922  function approve(address spender, uint256 amount) public virtual override returns (bool) {... */\n      swap3\n      swap2\n      pop\n      pop\n      jump\t// out\n        /* \"contracts/ANDREW-ERC-20.sol_flattened.sol\":7536:7642  function totalSupply() public view virtual override returns (uint256) {... */\n    tag_26:\n        /* \"contracts/ANDREW-ERC-20.sol_flattened.sol\":7597:7604  uint256 */\n      0x00\n        /* \"contracts/ANDREW-ERC-20.sol_flattened.sol\":7623:7635  _totalSupply */\n      sload(0x02)\n        /* \"contracts/ANDREW-ERC-20.sol_flattened.sol\":7616:7635  return _totalSupply */\n      swap1\n      pop\n        /* \"contracts/ANDREW-ERC-20.sol_flattened.sol\":7536:7642  function totalSupply() public view virtual override returns (uint256) {... */\n      swap1\n      jump\t// out\n        /* \"contracts/ANDREW-ERC-20.sol_flattened.sol\":9484:9770  function transferFrom(... */\n    tag_32:\n        /* \"contracts/ANDREW-ERC-20.sol_flattened.sol\":9611:9615  bool */\n      0x00\n        /* \"contracts/ANDREW-ERC-20.sol_flattened.sol\":9627:9642  address spender */\n      dup1\n        /* \"contracts/ANDREW-ERC-20.sol_flattened.sol\":9645:9657  _msgSender() */\n      tag_77\n        /* \"contracts/ANDREW-ERC-20.sol_flattened.sol\":9645:9655  _msgSender */\n      tag_72\n        /* \"contracts/ANDREW-ERC-20.sol_flattened.sol\":9645:9657  _msgSender() */\n      jump\t// in\n    tag_77:\n        /* \"contracts/ANDREW-ERC-20.sol_flattened.sol\":9627:9657  address spender = _msgSender() */\n      swap1\n      pop\n        /* \"contracts/ANDREW-ERC-20.sol_flattened.sol\":9667:9705  _spendAllowance(from, spender, amount) */\n      tag_78\n        /* \"contracts/ANDREW-ERC-20.sol_flattened.sol\":9683:9687  from */\n      dup6\n        /* \"contracts/ANDREW-ERC-20.sol_flattened.sol\":9689:9696  spender */\n      dup3\n        /* \"contracts/ANDREW-ERC-20.sol_flattened.sol\":9698:9704  amount */\n      dup6\n        /* \"contracts/ANDREW-ERC-20.sol_flattened.sol\":9667:9682  _spendAllowance */\n      tag_79\n        /* \"contracts/ANDREW-ERC-20.sol_flattened.sol\":9667:9705  _spendAllowance(from, spender, amount) */\n      jump\t// in\n    tag_78:\n        /* \"contracts/ANDREW-ERC-20.sol_flattened.sol\":9715:9742  _transfer(from, to, amount) */\n      tag_80\n        /* \"contracts/ANDREW-ERC-20.sol_flattened.sol\":9725:9729  from */\n      dup6\n        /* \"contracts/ANDREW-ERC-20.sol_flattened.sol\":9731:9733  to */\n      dup6\n        /* \"contracts/ANDREW-ERC-20.sol_flattened.sol\":9735:9741  amount */\n      dup6\n        /* \"contracts/ANDREW-ERC-20.sol_flattened.sol\":9715:9724  _transfer */\n      tag_81\n        /* \"contracts/ANDREW-ERC-20.sol_flattened.sol\":9715:9742  _transfer(from, to, amount) */\n      jump\t// in\n    tag_80:\n        /* \"contracts/ANDREW-ERC-20.sol_flattened.sol\":9759:9763  true */\n      0x01\n        /* \"contracts/ANDREW-ERC-20.sol_flattened.sol\":9752:9763  return true */\n      swap2\n      pop\n      pop\n        /* \"contracts/ANDREW-ERC-20.sol_flattened.sol\":9484:9770  function transferFrom(... */\n      swap4\n      swap3\n      pop\n      pop\n      pop\n      jump\t// out\n        /* \"contracts/ANDREW-ERC-20.sol_flattened.sol\":7385:7476  function decimals() public view virtual override returns (uint8) {... */\n    tag_35:\n        /* \"contracts/ANDREW-ERC-20.sol_flattened.sol\":7443:7448  uint8 */\n      0x00\n        /* \"contracts/ANDREW-ERC-20.sol_flattened.sol\":7467:7469  18 */\n      0x12\n        /* \"contracts/ANDREW-ERC-20.sol_flattened.sol\":7460:7469  return 18 */\n      swap1\n      pop\n        /* \"contracts/ANDREW-ERC-20.sol_flattened.sol\":7385:7476  function decimals() public view virtual override returns (uint8) {... */\n      swap1\n      jump\t// out\n        /* \"contracts/ANDREW-ERC-20.sol_flattened.sol\":10165:10399  function increaseAllowance(address spender, uint256 addedValue) public virtual returns (bool) {... */\n    tag_40:\n        /* \"contracts/ANDREW-ERC-20.sol_flattened.sol\":10253:10257  bool */\n      0x00\n        /* \"contracts/ANDREW-ERC-20.sol_flattened.sol\":10269:10282  address owner */\n      dup1\n        /* \"contracts/ANDREW-ERC-20.sol_flattened.sol\":10285:10297  _msgSender() */\n      tag_84\n        /* \"contracts/ANDREW-ERC-20.sol_flattened.sol\":10285:10295  _msgSender */\n      tag_72\n        /* \"contracts/ANDREW-ERC-20.sol_flattened.sol\":10285:10297  _msgSender() */\n      jump\t// in\n    tag_84:\n        /* \"contracts/ANDREW-ERC-20.sol_flattened.sol\":10269:10297  address owner = _msgSender() */\n      swap1\n      pop\n        /* \"contracts/ANDREW-ERC-20.sol_flattened.sol\":10307:10371  _approve(owner, spender, allowance(owner, spender) + addedValue) */\n      tag_85\n        /* \"contracts/ANDREW-ERC-20.sol_flattened.sol\":10316:10321  owner */\n      dup2\n        /* \"contracts/ANDREW-ERC-20.sol_flattened.sol\":10323:10330  spender */\n      dup6\n        /* \"contracts/ANDREW-ERC-20.sol_flattened.sol\":10360:10370  addedValue */\n      dup6\n        /* \"contracts/ANDREW-ERC-20.sol_flattened.sol\":10332:10357  allowance(owner, spender) */\n      tag_86\n        /* \"contracts/ANDREW-ERC-20.sol_flattened.sol\":10342:10347  owner */\n      dup6\n        /* \"contracts/ANDREW-ERC-20.sol_flattened.sol\":10349:10356  spender */\n      dup10\n        /* \"contracts/ANDREW-ERC-20.sol_flattened.sol\":10332:10341  allowance */\n      tag_61\n        /* \"contracts/ANDREW-ERC-20.sol_flattened.sol\":10332:10357  allowance(owner, spender) */\n      jump\t// in\n    tag_86:\n        /* \"contracts/ANDREW-ERC-20.sol_flattened.sol\":10332:10370  allowance(owner, spender) + addedValue */\n      tag_87\n      swap2\n      swap1\n      tag_88\n      jump\t// in\n    tag_87:\n        /* \"contracts/ANDREW-ERC-20.sol_flattened.sol\":10307:10315  _approve */\n      tag_74\n        /* \"contracts/ANDREW-ERC-20.sol_flattened.sol\":10307:10371  _approve(owner, spender, allowance(owner, spender) + addedValue) */\n      jump\t// in\n    tag_85:\n        /* \"contracts/ANDREW-ERC-20.sol_flattened.sol\":10388:10392  true */\n      0x01\n        /* \"contracts/ANDREW-ERC-20.sol_flattened.sol\":10381:10392  return true */\n      swap2\n      pop\n      pop\n        /* \"contracts/ANDREW-ERC-20.sol_flattened.sol\":10165:10399  function increaseAllowance(address spender, uint256 addedValue) public virtual returns (bool) {... */\n      swap3\n      swap2\n      pop\n      pop\n      jump\t// out\n        /* \"contracts/ANDREW-ERC-20.sol_flattened.sol\":7700:7825  function balanceOf(address account) public view virtual override returns (uint256) {... */\n    tag_45:\n        /* \"contracts/ANDREW-ERC-20.sol_flattened.sol\":7774:7781  uint256 */\n      0x00\n        /* \"contracts/ANDREW-ERC-20.sol_flattened.sol\":7800:7809  _balances */\n      dup1\n        /* \"contracts/ANDREW-ERC-20.sol_flattened.sol\":7800:7818  _balances[account] */\n      0x00\n        /* \"contracts/ANDREW-ERC-20.sol_flattened.sol\":7810:7817  account */\n      dup4\n        /* \"contracts/ANDREW-ERC-20.sol_flattened.sol\":7800:7818  _balances[account] */\n      0xffffffffffffffffffffffffffffffffffffffff\n      and\n      0xffffffffffffffffffffffffffffffffffffffff\n      and\n      dup2\n      mstore\n      0x20\n      add\n      swap1\n      dup2\n      mstore\n      0x20\n      add\n      0x00\n      keccak256\n      sload\n        /* \"contracts/ANDREW-ERC-20.sol_flattened.sol\":7793:7818  return _balances[account] */\n      swap1\n      pop\n        /* \"contracts/ANDREW-ERC-20.sol_flattened.sol\":7700:7825  function balanceOf(address account) public view virtual override returns (uint256) {... */\n      swap2\n      swap1\n      pop\n      jump\t// out\n        /* \"contracts/ANDREW-ERC-20.sol_flattened.sol\":6659:6761  function symbol() public view virtual override returns (string memory) {... */\n    tag_48:\n        /* \"contracts/ANDREW-ERC-20.sol_flattened.sol\":6715:6728  string memory */\n      0x60\n        /* \"contracts/ANDREW-ERC-20.sol_flattened.sol\":6747:6754  _symbol */\n      0x04\n        /* \"contracts/ANDREW-ERC-20.sol_flattened.sol\":6740:6754  return _symbol */\n      dup1\n      sload\n      tag_91\n      swap1\n      tag_65\n      jump\t// in\n    tag_91:\n      dup1\n      0x1f\n      add\n      0x20\n      dup1\n      swap2\n      div\n      mul\n      0x20\n      add\n      mload(0x40)\n      swap1\n      dup2\n      add\n      0x40\n      mstore\n      dup1\n      swap3\n      swap2\n      swap1\n      dup2\n      dup2\n      mstore\n      0x20\n      add\n      dup3\n      dup1\n      sload\n      tag_92\n      swap1\n      tag_65\n      jump\t// in\n    tag_92:\n      dup1\n      iszero\n      tag_93\n      jumpi\n      dup1\n      0x1f\n      lt\n      tag_94\n      jumpi\n      0x0100\n      dup1\n      dup4\n      sload\n      div\n      mul\n      dup4\n      mstore\n      swap2\n      0x20\n      add\n      swap2\n      jump(tag_93)\n    tag_94:\n      dup3\n      add\n      swap2\n      swap1\n      0x00\n      mstore\n      keccak256(0x00, 0x20)\n      swap1\n    tag_95:\n      dup2\n      sload\n      dup2\n      mstore\n      swap1\n      0x01\n      add\n      swap1\n      0x20\n      add\n      dup1\n      dup4\n      gt\n      tag_95\n      jumpi\n      dup3\n      swap1\n      sub\n      0x1f\n      and\n      dup3\n      add\n      swap2\n    tag_93:\n      pop\n      pop\n      pop\n      pop\n      pop\n      swap1\n      pop\n        /* \"contracts/ANDREW-ERC-20.sol_flattened.sol\":6659:6761  function symbol() public view virtual override returns (string memory) {... */\n      swap1\n      jump\t// out\n        /* \"contracts/ANDREW-ERC-20.sol_flattened.sol\":10886:11313  function decreaseAllowance(address spender, uint256 subtractedValue) public virtual returns (bool) {... */\n    tag_52:\n        /* \"contracts/ANDREW-ERC-20.sol_flattened.sol\":10979:10983  bool */\n      0x00\n        /* \"contracts/ANDREW-ERC-20.sol_flattened.sol\":10995:11008  address owner */\n      dup1\n        /* \"contracts/ANDREW-ERC-20.sol_flattened.sol\":11011:11023  _msgSender() */\n      tag_97\n        /* \"contracts/ANDREW-ERC-20.sol_flattened.sol\":11011:11021  _msgSender */\n      tag_72\n        /* \"contracts/ANDREW-ERC-20.sol_flattened.sol\":11011:11023  _msgSender() */\n      jump\t// in\n    tag_97:\n        /* \"contracts/ANDREW-ERC-20.sol_flattened.sol\":10995:11023  address owner = _msgSender() */\n      swap1\n      pop\n        /* \"contracts/ANDREW-ERC-20.sol_flattened.sol\":11033:11057  uint256 currentAllowance */\n      0x00\n        /* \"contracts/ANDREW-ERC-20.sol_flattened.sol\":11060:11085  allowance(owner, spender) */\n      tag_98\n        /* \"contracts/ANDREW-ERC-20.sol_flattened.sol\":11070:11075  owner */\n      dup3\n        /* \"contracts/ANDREW-ERC-20.sol_flattened.sol\":11077:11084  spender */\n      dup7\n        /* \"contracts/ANDREW-ERC-20.sol_flattened.sol\":11060:11069  allowance */\n      tag_61\n        /* \"contracts/ANDREW-ERC-20.sol_flattened.sol\":11060:11085  allowance(owner, spender) */\n      jump\t// in\n    tag_98:\n        /* \"contracts/ANDREW-ERC-20.sol_flattened.sol\":11033:11085  uint256 currentAllowance = allowance(owner, spender) */\n      swap1\n      pop\n        /* \"contracts/ANDREW-ERC-20.sol_flattened.sol\":11123:11138  subtractedValue */\n      dup4\n        /* \"contracts/ANDREW-ERC-20.sol_flattened.sol\":11103:11119  currentAllowance */\n      dup2\n        /* \"contracts/ANDREW-ERC-20.sol_flattened.sol\":11103:11138  currentAllowance >= subtractedValue */\n      lt\n      iszero\n        /* \"contracts/ANDREW-ERC-20.sol_flattened.sol\":11095:11180  require(currentAllowance >= subtractedValue, \"ERC20: decreased allowance below zero\") */\n      tag_99\n      jumpi\n      mload(0x40)\n      0x08c379a000000000000000000000000000000000000000000000000000000000\n      dup2\n      mstore\n      0x04\n      add\n      tag_100\n      swap1\n      tag_101\n      jump\t// in\n    tag_100:\n      mload(0x40)\n      dup1\n      swap2\n      sub\n      swap1\n      revert\n    tag_99:\n        /* \"contracts/ANDREW-ERC-20.sol_flattened.sol\":11214:11274  _approve(owner, spender, currentAllowance - subtractedValue) */\n      tag_102\n        /* \"contracts/ANDREW-ERC-20.sol_flattened.sol\":11223:11228  owner */\n      dup3\n        /* \"contracts/ANDREW-ERC-20.sol_flattened.sol\":11230:11237  spender */\n      dup7\n        /* \"contracts/ANDREW-ERC-20.sol_flattened.sol\":11258:11273  subtractedValue */\n      dup7\n        /* \"contracts/ANDREW-ERC-20.sol_flattened.sol\":11239:11255  currentAllowance */\n      dup5\n        /* \"contracts/ANDREW-ERC-20.sol_flattened.sol\":11239:11273  currentAllowance - subtractedValue */\n      sub\n        /* \"contracts/ANDREW-ERC-20.sol_flattened.sol\":11214:11222  _approve */\n      tag_74\n        /* \"contracts/ANDREW-ERC-20.sol_flattened.sol\":11214:11274  _approve(owner, spender, currentAllowance - subtractedValue) */\n      jump\t// in\n    tag_102:\n        /* \"contracts/ANDREW-ERC-20.sol_flattened.sol\":11302:11306  true */\n      0x01\n        /* \"contracts/ANDREW-ERC-20.sol_flattened.sol\":11295:11306  return true */\n      swap3\n      pop\n      pop\n      pop\n        /* \"contracts/ANDREW-ERC-20.sol_flattened.sol\":10886:11313  function decreaseAllowance(address spender, uint256 subtractedValue) public virtual returns (bool) {... */\n      swap3\n      swap2\n      pop\n      pop\n      jump\t// out\n        /* \"contracts/ANDREW-ERC-20.sol_flattened.sol\":8021:8210  function transfer(address to, uint256 amount) public virtual override returns (bool) {... */\n    tag_56:\n        /* \"contracts/ANDREW-ERC-20.sol_flattened.sol\":8100:8104  bool */\n      0x00\n        /* \"contracts/ANDREW-ERC-20.sol_flattened.sol\":8116:8129  address owner */\n      dup1\n        /* \"contracts/ANDREW-ERC-20.sol_flattened.sol\":8132:8144  _msgSender() */\n      tag_104\n        /* \"contracts/ANDREW-ERC-20.sol_flattened.sol\":8132:8142  _msgSender */\n      tag_72\n        /* \"contracts/ANDREW-ERC-20.sol_flattened.sol\":8132:8144  _msgSender() */\n      jump\t// in\n    tag_104:\n        /* \"contracts/ANDREW-ERC-20.sol_flattened.sol\":8116:8144  address owner = _msgSender() */\n      swap1\n      pop\n        /* \"contracts/ANDREW-ERC-20.sol_flattened.sol\":8154:8182  _transfer(owner, to, amount) */\n      tag_105\n        /* \"contracts/ANDREW-ERC-20.sol_flattened.sol\":8164:8169  owner */\n      dup2\n        /* \"contracts/ANDREW-ERC-20.sol_flattened.sol\":8171:8173  to */\n      dup6\n        /* \"contracts/ANDREW-ERC-20.sol_flattened.sol\":8175:8181  amount */\n      dup6\n        /* \"contracts/ANDREW-ERC-20.sol_flattened.sol\":8154:8163  _transfer */\n      tag_81\n        /* \"contracts/ANDREW-ERC-20.sol_flattened.sol\":8154:8182  _transfer(owner, to, amount) */\n      jump\t// in\n    tag_105:\n        /* \"contracts/ANDREW-ERC-20.sol_flattened.sol\":8199:8203  true */\n      0x01\n        /* \"contracts/ANDREW-ERC-20.sol_flattened.sol\":8192:8203  return true */\n      swap2\n      pop\n      pop\n        /* \"contracts/ANDREW-ERC-20.sol_flattened.sol\":8021:8210  function transfer(address to, uint256 amount) public virtual override returns (bool) {... */\n      swap3\n      swap2\n      pop\n      pop\n      jump\t// out\n        /* \"contracts/ANDREW-ERC-20.sol_flattened.sol\":8268:8417  function allowance(address owner, address spender) public view virtual override returns (uint256) {... */\n    tag_61:\n        /* \"contracts/ANDREW-ERC-20.sol_flattened.sol\":8357:8364  uint256 */\n      0x00\n        /* \"contracts/ANDREW-ERC-20.sol_flattened.sol\":8383:8394  _allowances */\n      0x01\n        /* \"contracts/ANDREW-ERC-20.sol_flattened.sol\":8383:8401  _allowances[owner] */\n      0x00\n        /* \"contracts/ANDREW-ERC-20.sol_flattened.sol\":8395:8400  owner */\n      dup5\n        /* \"contracts/ANDREW-ERC-20.sol_flattened.sol\":8383:8401  _allowances[owner] */\n      0xffffffffffffffffffffffffffffffffffffffff\n      and\n      0xffffffffffffffffffffffffffffffffffffffff\n      and\n      dup2\n      mstore\n      0x20\n      add\n      swap1\n      dup2\n      mstore\n      0x20\n      add\n      0x00\n      keccak256\n        /* \"contracts/ANDREW-ERC-20.sol_flattened.sol\":8383:8410  _allowances[owner][spender] */\n      0x00\n        /* \"contracts/ANDREW-ERC-20.sol_flattened.sol\":8402:8409  spender */\n      dup4\n        /* \"contracts/ANDREW-ERC-20.sol_flattened.sol\":8383:8410  _allowances[owner][spender] */\n      0xffffffffffffffffffffffffffffffffffffffff\n      and\n      0xffffffffffffffffffffffffffffffffffffffff\n      and\n      dup2\n      mstore\n      0x20\n      add\n      swap1\n      dup2\n      mstore\n      0x20\n      add\n      0x00\n      keccak256\n      sload\n        /* \"contracts/ANDREW-ERC-20.sol_flattened.sol\":8376:8410  return _allowances[owner][spender] */\n      swap1\n      pop\n        /* \"contracts/ANDREW-ERC-20.sol_flattened.sol\":8268:8417  function allowance(address owner, address spender) public view virtual override returns (uint256) {... */\n      swap3\n      swap2\n      pop\n      pop\n      jump\t// out\n        /* \"contracts/ANDREW-ERC-20.sol_flattened.sol\":662:758  function _msgSender() internal view virtual returns (address) {... */\n    tag_72:\n        /* \"contracts/ANDREW-ERC-20.sol_flattened.sol\":715:722  address */\n      0x00\n        /* \"contracts/ANDREW-ERC-20.sol_flattened.sol\":741:751  msg.sender */\n      caller\n        /* \"contracts/ANDREW-ERC-20.sol_flattened.sol\":734:751  return msg.sender */\n      swap1\n      pop\n        /* \"contracts/ANDREW-ERC-20.sol_flattened.sol\":662:758  function _msgSender() internal view virtual returns (address) {... */\n      swap1\n      jump\t// out\n        /* \"contracts/ANDREW-ERC-20.sol_flattened.sol\":14798:15168  function _approve(... */\n    tag_74:\n        /* \"contracts/ANDREW-ERC-20.sol_flattened.sol\":14946:14947  0 */\n      0x00\n        /* \"contracts/ANDREW-ERC-20.sol_flattened.sol\":14929:14948  owner != address(0) */\n      0xffffffffffffffffffffffffffffffffffffffff\n      and\n        /* \"contracts/ANDREW-ERC-20.sol_flattened.sol\":14929:14934  owner */\n      dup4\n        /* \"contracts/ANDREW-ERC-20.sol_flattened.sol\":14929:14948  owner != address(0) */\n      0xffffffffffffffffffffffffffffffffffffffff\n      and\n      sub\n        /* \"contracts/ANDREW-ERC-20.sol_flattened.sol\":14921:14989  require(owner != address(0), \"ERC20: approve from the zero address\") */\n      tag_109\n      jumpi\n      mload(0x40)\n      0x08c379a000000000000000000000000000000000000000000000000000000000\n      dup2\n      mstore\n      0x04\n      add\n      tag_110\n      swap1\n      tag_111\n      jump\t// in\n    tag_110:\n      mload(0x40)\n      dup1\n      swap2\n      sub\n      swap1\n      revert\n    tag_109:\n        /* \"contracts/ANDREW-ERC-20.sol_flattened.sol\":15026:15027  0 */\n      0x00\n        /* \"contracts/ANDREW-ERC-20.sol_flattened.sol\":15007:15028  spender != address(0) */\n      0xffffffffffffffffffffffffffffffffffffffff\n      and\n        /* \"contracts/ANDREW-ERC-20.sol_flattened.sol\":15007:15014  spender */\n      dup3\n        /* \"contracts/ANDREW-ERC-20.sol_flattened.sol\":15007:15028  spender != address(0) */\n      0xffffffffffffffffffffffffffffffffffffffff\n      and\n      sub\n        /* \"contracts/ANDREW-ERC-20.sol_flattened.sol\":14999:15067  require(spender != address(0), \"ERC20: approve to the zero address\") */\n      tag_112\n      jumpi\n      mload(0x40)\n      0x08c379a000000000000000000000000000000000000000000000000000000000\n      dup2\n      mstore\n      0x04\n      add\n      tag_113\n      swap1\n      tag_114\n      jump\t// in\n    tag_113:\n      mload(0x40)\n      dup1\n      swap2\n      sub\n      swap1\n      revert\n    tag_112:\n        /* \"contracts/ANDREW-ERC-20.sol_flattened.sol\":15108:15114  amount */\n      dup1\n        /* \"contracts/ANDREW-ERC-20.sol_flattened.sol\":15078:15089  _allowances */\n      0x01\n        /* \"contracts/ANDREW-ERC-20.sol_flattened.sol\":15078:15096  _allowances[owner] */\n      0x00\n        /* \"contracts/ANDREW-ERC-20.sol_flattened.sol\":15090:15095  owner */\n      dup6\n        /* \"contracts/ANDREW-ERC-20.sol_flattened.sol\":15078:15096  _allowances[owner] */\n      0xffffffffffffffffffffffffffffffffffffffff\n      and\n      0xffffffffffffffffffffffffffffffffffffffff\n      and\n      dup2\n      mstore\n      0x20\n      add\n      swap1\n      dup2\n      mstore\n      0x20\n      add\n      0x00\n      keccak256\n        /* \"contracts/ANDREW-ERC-20.sol_flattened.sol\":15078:15105  _allowances[owner][spender] */\n      0x00\n        /* \"contracts/ANDREW-ERC-20.sol_flattened.sol\":15097:15104  spender */\n      dup5\n        /* \"contracts/ANDREW-ERC-20.sol_flattened.sol\":15078:15105  _allowances[owner][spender] */\n      0xffffffffffffffffffffffffffffffffffffffff\n      and\n      0xffffffffffffffffffffffffffffffffffffffff\n      and\n      dup2\n      mstore\n      0x20\n      add\n      swap1\n      dup2\n      mstore\n      0x20\n      add\n      0x00\n      keccak256\n        /* \"contracts/ANDREW-ERC-20.sol_flattened.sol\":15078:15114  _allowances[owner][spender] = amount */\n      dup2\n      swap1\n      sstore\n      pop\n        /* \"contracts/ANDREW-ERC-20.sol_flattened.sol\":15145:15152  spender */\n      dup2\n        /* \"contracts/ANDREW-ERC-20.sol_flattened.sol\":15129:15161  Approval(owner, spender, amount) */\n      0xffffffffffffffffffffffffffffffffffffffff\n      and\n        /* \"contracts/ANDREW-ERC-20.sol_flattened.sol\":15138:15143  owner */\n      dup4\n        /* \"contracts/ANDREW-ERC-20.sol_flattened.sol\":15129:15161  Approval(owner, spender, amount) */\n      0xffffffffffffffffffffffffffffffffffffffff\n      and\n      0x8c5be1e5ebec7d5bd14f71427d1e84f3dd0314c0f7b2291e5b200ac8c7c3b925\n        /* \"contracts/ANDREW-ERC-20.sol_flattened.sol\":15154:15160  amount */\n      dup4\n        /* \"contracts/ANDREW-ERC-20.sol_flattened.sol\":15129:15161  Approval(owner, spender, amount) */\n      mload(0x40)\n      tag_115\n      swap2\n      swap1\n      tag_28\n      jump\t// in\n    tag_115:\n      mload(0x40)\n      dup1\n      swap2\n      sub\n      swap1\n      log3\n        /* \"contracts/ANDREW-ERC-20.sol_flattened.sol\":14798:15168  function _approve(... */\n      pop\n      pop\n      pop\n      jump\t// out\n        /* \"contracts/ANDREW-ERC-20.sol_flattened.sol\":15449:15890  function _spendAllowance(... */\n    tag_79:\n        /* \"contracts/ANDREW-ERC-20.sol_flattened.sol\":15579:15603  uint256 currentAllowance */\n      0x00\n        /* \"contracts/ANDREW-ERC-20.sol_flattened.sol\":15606:15631  allowance(owner, spender) */\n      tag_117\n        /* \"contracts/ANDREW-ERC-20.sol_flattened.sol\":15616:15621  owner */\n      dup5\n        /* \"contracts/ANDREW-ERC-20.sol_flattened.sol\":15623:15630  spender */\n      dup5\n        /* \"contracts/ANDREW-ERC-20.sol_flattened.sol\":15606:15615  allowance */\n      tag_61\n        /* \"contracts/ANDREW-ERC-20.sol_flattened.sol\":15606:15631  allowance(owner, spender) */\n      jump\t// in\n    tag_117:\n        /* \"contracts/ANDREW-ERC-20.sol_flattened.sol\":15579:15631  uint256 currentAllowance = allowance(owner, spender) */\n      swap1\n      pop\n        /* \"contracts/ANDREW-ERC-20.sol_flattened.sol\":15665:15682  type(uint256).max */\n      0xffffffffffffffffffffffffffffffffffffffffffffffffffffffffffffffff\n        /* \"contracts/ANDREW-ERC-20.sol_flattened.sol\":15645:15661  currentAllowance */\n      dup2\n        /* \"contracts/ANDREW-ERC-20.sol_flattened.sol\":15645:15682  currentAllowance != type(uint256).max */\n      eq\n        /* \"contracts/ANDREW-ERC-20.sol_flattened.sol\":15641:15884  if (currentAllowance != type(uint256).max) {... */\n      tag_118\n      jumpi\n        /* \"contracts/ANDREW-ERC-20.sol_flattened.sol\":15726:15732  amount */\n      dup2\n        /* \"contracts/ANDREW-ERC-20.sol_flattened.sol\":15706:15722  currentAllowance */\n      dup2\n        /* \"contracts/ANDREW-ERC-20.sol_flattened.sol\":15706:15732  currentAllowance >= amount */\n      lt\n      iszero\n        /* \"contracts/ANDREW-ERC-20.sol_flattened.sol\":15698:15766  require(currentAllowance >= amount, \"ERC20: insufficient allowance\") */\n      tag_119\n      jumpi\n      mload(0x40)\n      0x08c379a000000000000000000000000000000000000000000000000000000000\n      dup2\n      mstore\n      0x04\n      add\n      tag_120\n      swap1\n      tag_121\n      jump\t// in\n    tag_120:\n      mload(0x40)\n      dup1\n      swap2\n      sub\n      swap1\n      revert\n    tag_119:\n        /* \"contracts/ANDREW-ERC-20.sol_flattened.sol\":15808:15859  _approve(owner, spender, currentAllowance - amount) */\n      tag_122\n        /* \"contracts/ANDREW-ERC-20.sol_flattened.sol\":15817:15822  owner */\n      dup5\n        /* \"contracts/ANDREW-ERC-20.sol_flattened.sol\":15824:15831  spender */\n      dup5\n        /* \"contracts/ANDREW-ERC-20.sol_flattened.sol\":15852:15858  amount */\n      dup5\n        /* \"contracts/ANDREW-ERC-20.sol_flattened.sol\":15833:15849  currentAllowance */\n      dup5\n        /* \"contracts/ANDREW-ERC-20.sol_flattened.sol\":15833:15858  currentAllowance - amount */\n      sub\n        /* \"contracts/ANDREW-ERC-20.sol_flattened.sol\":15808:15816  _approve */\n      tag_74\n        /* \"contracts/ANDREW-ERC-20.sol_flattened.sol\":15808:15859  _approve(owner, spender, currentAllowance - amount) */\n      jump\t// in\n    tag_122:\n        /* \"contracts/ANDREW-ERC-20.sol_flattened.sol\":15641:15884  if (currentAllowance != type(uint256).max) {... */\n    tag_118:\n        /* \"contracts/ANDREW-ERC-20.sol_flattened.sol\":15569:15890  {... */\n      pop\n        /* \"contracts/ANDREW-ERC-20.sol_flattened.sol\":15449:15890  function _spendAllowance(... */\n      pop\n      pop\n      pop\n      jump\t// out\n        /* \"contracts/ANDREW-ERC-20.sol_flattened.sol\":11767:12585  function _transfer(... */\n    tag_81:\n        /* \"contracts/ANDREW-ERC-20.sol_flattened.sol\":11909:11910  0 */\n      0x00\n        /* \"contracts/ANDREW-ERC-20.sol_flattened.sol\":11893:11911  from != address(0) */\n      0xffffffffffffffffffffffffffffffffffffffff\n      and\n        /* \"contracts/ANDREW-ERC-20.sol_flattened.sol\":11893:11897  from */\n      dup4\n        /* \"contracts/ANDREW-ERC-20.sol_flattened.sol\":11893:11911  from != address(0) */\n      0xffffffffffffffffffffffffffffffffffffffff\n      and\n      sub\n        /* \"contracts/ANDREW-ERC-20.sol_flattened.sol\":11885:11953  require(from != address(0), \"ERC20: transfer from the zero address\") */\n      tag_124\n      jumpi\n      mload(0x40)\n      0x08c379a000000000000000000000000000000000000000000000000000000000\n      dup2\n      mstore\n      0x04\n      add\n      tag_125\n      swap1\n      tag_126\n      jump\t// in\n    tag_125:\n      mload(0x40)\n      dup1\n      swap2\n      sub\n      swap1\n      revert\n    tag_124:\n        /* \"contracts/ANDREW-ERC-20.sol_flattened.sol\":11985:11986  0 */\n      0x00\n        /* \"contracts/ANDREW-ERC-20.sol_flattened.sol\":11971:11987  to != address(0) */\n      0xffffffffffffffffffffffffffffffffffffffff\n      and\n        /* \"contracts/ANDREW-ERC-20.sol_flattened.sol\":11971:11973  to */\n      dup3\n        /* \"contracts/ANDREW-ERC-20.sol_flattened.sol\":11971:11987  to != address(0) */\n      0xffffffffffffffffffffffffffffffffffffffff\n      and\n      sub\n        /* \"contracts/ANDREW-ERC-20.sol_flattened.sol\":11963:12027  require(to != address(0), \"ERC20: transfer to the zero address\") */\n      tag_127\n      jumpi\n      mload(0x40)\n      0x08c379a000000000000000000000000000000000000000000000000000000000\n      dup2\n      mstore\n      0x04\n      add\n      tag_128\n      swap1\n      tag_129\n      jump\t// in\n    tag_128:\n      mload(0x40)\n      dup1\n      swap2\n      sub\n      swap1\n      revert\n    tag_127:\n        /* \"contracts/ANDREW-ERC-20.sol_flattened.sol\":12038:12076  _beforeTokenTransfer(from, to, amount) */\n      tag_130\n        /* \"contracts/ANDREW-ERC-20.sol_flattened.sol\":12059:12063  from */\n      dup4\n        /* \"contracts/ANDREW-ERC-20.sol_flattened.sol\":12065:12067  to */\n      dup4\n        /* \"contracts/ANDREW-ERC-20.sol_flattened.sol\":12069:12075  amount */\n      dup4\n        /* \"contracts/ANDREW-ERC-20.sol_flattened.sol\":12038:12058  _beforeTokenTransfer */\n      tag_131\n        /* \"contracts/ANDREW-ERC-20.sol_flattened.sol\":12038:12076  _beforeTokenTransfer(from, to, amount) */\n      jump\t// in\n    tag_130:\n        /* \"contracts/ANDREW-ERC-20.sol_flattened.sol\":12087:12106  uint256 fromBalance */\n      0x00\n        /* \"contracts/ANDREW-ERC-20.sol_flattened.sol\":12109:12118  _balances */\n      dup1\n        /* \"contracts/ANDREW-ERC-20.sol_flattened.sol\":12109:12124  _balances[from] */\n      0x00\n        /* \"contracts/ANDREW-ERC-20.sol_flattened.sol\":12119:12123  from */\n      dup6\n        /* \"contracts/ANDREW-ERC-20.sol_flattened.sol\":12109:12124  _balances[from] */\n      0xffffffffffffffffffffffffffffffffffffffff\n      and\n      0xffffffffffffffffffffffffffffffffffffffff\n      and\n      dup2\n      mstore\n      0x20\n      add\n      swap1\n      dup2\n      mstore\n      0x20\n      add\n      0x00\n      keccak256\n      sload\n        /* \"contracts/ANDREW-ERC-20.sol_flattened.sol\":12087:12124  uint256 fromBalance = _balances[from] */\n      swap1\n      pop\n        /* \"contracts/ANDREW-ERC-20.sol_flattened.sol\":12157:12163  amount */\n      dup2\n        /* \"contracts/ANDREW-ERC-20.sol_flattened.sol\":12142:12153  fromBalance */\n      dup2\n        /* \"contracts/ANDREW-ERC-20.sol_flattened.sol\":12142:12163  fromBalance >= amount */\n      lt\n      iszero\n        /* \"contracts/ANDREW-ERC-20.sol_flattened.sol\":12134:12206  require(fromBalance >= amount, \"ERC20: transfer amount exceeds balance\") */\n      tag_132\n      jumpi\n      mload(0x40)\n      0x08c379a000000000000000000000000000000000000000000000000000000000\n      dup2\n      mstore\n      0x04\n      add\n      tag_133\n      swap1\n      tag_134\n      jump\t// in\n    tag_133:\n      mload(0x40)\n      dup1\n      swap2\n      sub\n      swap1\n      revert\n    tag_132:\n        /* \"contracts/ANDREW-ERC-20.sol_flattened.sol\":12272:12278  amount */\n      dup2\n        /* \"contracts/ANDREW-ERC-20.sol_flattened.sol\":12258:12269  fromBalance */\n      dup2\n        /* \"contracts/ANDREW-ERC-20.sol_flattened.sol\":12258:12278  fromBalance - amount */\n      sub\n        /* \"contracts/ANDREW-ERC-20.sol_flattened.sol\":12240:12249  _balances */\n      0x00\n        /* \"contracts/ANDREW-ERC-20.sol_flattened.sol\":12240:12255  _balances[from] */\n      dup1\n        /* \"contracts/ANDREW-ERC-20.sol_flattened.sol\":12250:12254  from */\n      dup7\n        /* \"contracts/ANDREW-ERC-20.sol_flattened.sol\":12240:12255  _balances[from] */\n      0xffffffffffffffffffffffffffffffffffffffff\n      and\n      0xffffffffffffffffffffffffffffffffffffffff\n      and\n      dup2\n      mstore\n      0x20\n      add\n      swap1\n      dup2\n      mstore\n      0x20\n      add\n      0x00\n      keccak256\n        /* \"contracts/ANDREW-ERC-20.sol_flattened.sol\":12240:12278  _balances[from] = fromBalance - amount */\n      dup2\n      swap1\n      sstore\n      pop\n        /* \"contracts/ANDREW-ERC-20.sol_flattened.sol\":12472:12478  amount */\n      dup2\n        /* \"contracts/ANDREW-ERC-20.sol_flattened.sol\":12455:12464  _balances */\n      0x00\n        /* \"contracts/ANDREW-ERC-20.sol_flattened.sol\":12455:12468  _balances[to] */\n      dup1\n        /* \"contracts/ANDREW-ERC-20.sol_flattened.sol\":12465:12467  to */\n      dup6\n        /* \"contracts/ANDREW-ERC-20.sol_flattened.sol\":12455:12468  _balances[to] */\n      0xffffffffffffffffffffffffffffffffffffffff\n      and\n      0xffffffffffffffffffffffffffffffffffffffff\n      and\n      dup2\n      mstore\n      0x20\n      add\n      swap1\n      dup2\n      mstore\n      0x20\n      add\n      0x00\n      keccak256\n      0x00\n        /* \"contracts/ANDREW-ERC-20.sol_flattened.sol\":12455:12478  _balances[to] += amount */\n      dup3\n      dup3\n      sload\n      add\n      swap3\n      pop\n      pop\n      dup2\n      swap1\n      sstore\n      pop\n        /* \"contracts/ANDREW-ERC-20.sol_flattened.sol\":12519:12521  to */\n      dup3\n        /* \"contracts/ANDREW-ERC-20.sol_flattened.sol\":12504:12530  Transfer(from, to, amount) */\n      0xffffffffffffffffffffffffffffffffffffffff\n      and\n        /* \"contracts/ANDREW-ERC-20.sol_flattened.sol\":12513:12517  from */\n      dup5\n        /* \"contracts/ANDREW-ERC-20.sol_flattened.sol\":12504:12530  Transfer(from, to, amount) */\n      0xffffffffffffffffffffffffffffffffffffffff\n      and\n      0xddf252ad1be2c89b69c2b068fc378daa952ba7f163c4a11628f55a4df523b3ef\n        /* \"contracts/ANDREW-ERC-20.sol_flattened.sol\":12523:12529  amount */\n      dup5\n        /* \"contracts/ANDREW-ERC-20.sol_flattened.sol\":12504:12530  Transfer(from, to, amount) */\n      mload(0x40)\n      tag_135\n      swap2\n      swap1\n      tag_28\n      jump\t// in\n    tag_135:\n      mload(0x40)\n      dup1\n      swap2\n      sub\n      swap1\n      log3\n        /* \"contracts/ANDREW-ERC-20.sol_flattened.sol\":12541:12578  _afterTokenTransfer(from, to, amount) */\n      tag_136\n        /* \"contracts/ANDREW-ERC-20.sol_flattened.sol\":12561:12565  from */\n      dup5\n        /* \"contracts/ANDREW-ERC-20.sol_flattened.sol\":12567:12569  to */\n      dup5\n        /* \"contracts/ANDREW-ERC-20.sol_flattened.sol\":12571:12577  amount */\n      dup5\n        /* \"contracts/ANDREW-ERC-20.sol_flattened.sol\":12541:12560  _afterTokenTransfer */\n      tag_137\n        /* \"contracts/ANDREW-ERC-20.sol_flattened.sol\":12541:12578  _afterTokenTransfer(from, to, amount) */\n      jump\t// in\n    tag_136:\n        /* \"contracts/ANDREW-ERC-20.sol_flattened.sol\":11875:12585  {... */\n      pop\n        /* \"contracts/ANDREW-ERC-20.sol_flattened.sol\":11767:12585  function _transfer(... */\n      pop\n      pop\n      pop\n      jump\t// out\n        /* \"contracts/ANDREW-ERC-20.sol_flattened.sol\":16474:16595  function _beforeTokenTransfer(... */\n    tag_131:\n      pop\n      pop\n      pop\n      jump\t// out\n        /* \"contracts/ANDREW-ERC-20.sol_flattened.sol\":17183:17303  function _afterTokenTransfer(... */\n    tag_137:\n      pop\n      pop\n      pop\n      jump\t// out\n        /* \"#utility.yul\":7:106   */\n    tag_140:\n        /* \"#utility.yul\":59:65   */\n      0x00\n        /* \"#utility.yul\":93:98   */\n      dup2\n        /* \"#utility.yul\":87:99   */\n      mload\n        /* \"#utility.yul\":77:99   */\n      swap1\n      pop\n        /* \"#utility.yul\":7:106   */\n      swap2\n      swap1\n      pop\n      jump\t// out\n        /* \"#utility.yul\":112:281   */\n    tag_141:\n        /* \"#utility.yul\":196:207   */\n      0x00\n        /* \"#utility.yul\":230:236   */\n      dup3\n        /* \"#utility.yul\":225:228   */\n      dup3\n        /* \"#utility.yul\":218:237   */\n      mstore\n        /* \"#utility.yul\":270:274   */\n      0x20\n        /* \"#utility.yul\":265:268   */\n      dup3\n        /* \"#utility.yul\":261:275   */\n      add\n        /* \"#utility.yul\":246:275   */\n      swap1\n      pop\n        /* \"#utility.yul\":112:281   */\n      swap3\n      swap2\n      pop\n      pop\n      jump\t// out\n        /* \"#utility.yul\":287:533   */\n    tag_142:\n        /* \"#utility.yul\":368:369   */\n      0x00\n        /* \"#utility.yul\":378:491   */\n    tag_180:\n        /* \"#utility.yul\":392:398   */\n      dup4\n        /* \"#utility.yul\":389:390   */\n      dup2\n        /* \"#utility.yul\":386:399   */\n      lt\n        /* \"#utility.yul\":378:491   */\n      iszero\n      tag_182\n      jumpi\n        /* \"#utility.yul\":477:478   */\n      dup1\n        /* \"#utility.yul\":472:475   */\n      dup3\n        /* \"#utility.yul\":468:479   */\n      add\n        /* \"#utility.yul\":462:480   */\n      mload\n        /* \"#utility.yul\":458:459   */\n      dup2\n        /* \"#utility.yul\":453:456   */\n      dup5\n        /* \"#utility.yul\":449:460   */\n      add\n        /* \"#utility.yul\":442:481   */\n      mstore\n        /* \"#utility.yul\":414:416   */\n      0x20\n        /* \"#utility.yul\":411:412   */\n      dup2\n        /* \"#utility.yul\":407:417   */\n      add\n        /* \"#utility.yul\":402:417   */\n      swap1\n      pop\n        /* \"#utility.yul\":378:491   */\n      jump(tag_180)\n    tag_182:\n        /* \"#utility.yul\":525:526   */\n      0x00\n        /* \"#utility.yul\":516:522   */\n      dup5\n        /* \"#utility.yul\":511:514   */\n      dup5\n        /* \"#utility.yul\":507:523   */\n      add\n        /* \"#utility.yul\":500:527   */\n      mstore\n        /* \"#utility.yul\":349:533   */\n      pop\n        /* \"#utility.yul\":287:533   */\n      pop\n      pop\n      pop\n      jump\t// out\n        /* \"#utility.yul\":539:641   */\n    tag_143:\n        /* \"#utility.yul\":580:586   */\n      0x00\n        /* \"#utility.yul\":631:633   */\n      0x1f\n        /* \"#utility.yul\":627:634   */\n      not\n        /* \"#utility.yul\":622:624   */\n      0x1f\n        /* \"#utility.yul\":615:620   */\n      dup4\n        /* \"#utility.yul\":611:625   */\n      add\n        /* \"#utility.yul\":607:635   */\n      and\n        /* \"#utility.yul\":597:635   */\n      swap1\n      pop\n        /* \"#utility.yul\":539:641   */\n      swap2\n      swap1\n      pop\n      jump\t// out\n        /* \"#utility.yul\":647:1024   */\n    tag_144:\n        /* \"#utility.yul\":735:738   */\n      0x00\n        /* \"#utility.yul\":763:802   */\n      tag_185\n        /* \"#utility.yul\":796:801   */\n      dup3\n        /* \"#utility.yul\":763:802   */\n      tag_140\n      jump\t// in\n    tag_185:\n        /* \"#utility.yul\":818:889   */\n      tag_186\n        /* \"#utility.yul\":882:888   */\n      dup2\n        /* \"#utility.yul\":877:880   */\n      dup6\n        /* \"#utility.yul\":818:889   */\n      tag_141\n      jump\t// in\n    tag_186:\n        /* \"#utility.yul\":811:889   */\n      swap4\n      pop\n        /* \"#utility.yul\":898:963   */\n      tag_187\n        /* \"#utility.yul\":956:962   */\n      dup2\n        /* \"#utility.yul\":951:954   */\n      dup6\n        /* \"#utility.yul\":944:948   */\n      0x20\n        /* \"#utility.yul\":937:942   */\n      dup7\n        /* \"#utility.yul\":933:949   */\n      add\n        /* \"#utility.yul\":898:963   */\n      tag_142\n      jump\t// in\n    tag_187:\n        /* \"#utility.yul\":988:1017   */\n      tag_188\n        /* \"#utility.yul\":1010:1016   */\n      dup2\n        /* \"#utility.yul\":988:1017   */\n      tag_143\n      jump\t// in\n    tag_188:\n        /* \"#utility.yul\":983:986   */\n      dup5\n        /* \"#utility.yul\":979:1018   */\n      add\n        /* \"#utility.yul\":972:1018   */\n      swap2\n      pop\n        /* \"#utility.yul\":739:1024   */\n      pop\n        /* \"#utility.yul\":647:1024   */\n      swap3\n      swap2\n      pop\n      pop\n      jump\t// out\n        /* \"#utility.yul\":1030:1343   */\n    tag_18:\n        /* \"#utility.yul\":1143:1147   */\n      0x00\n        /* \"#utility.yul\":1181:1183   */\n      0x20\n        /* \"#utility.yul\":1170:1179   */\n      dup3\n        /* \"#utility.yul\":1166:1184   */\n      add\n        /* \"#utility.yul\":1158:1184   */\n      swap1\n      pop\n        /* \"#utility.yul\":1230:1239   */\n      dup2\n        /* \"#utility.yul\":1224:1228   */\n      dup2\n        /* \"#utility.yul\":1220:1240   */\n      sub\n        /* \"#utility.yul\":1216:1217   */\n      0x00\n        /* \"#utility.yul\":1205:1214   */\n      dup4\n        /* \"#utility.yul\":1201:1218   */\n      add\n        /* \"#utility.yul\":1194:1241   */\n      mstore\n        /* \"#utility.yul\":1258:1336   */\n      tag_190\n        /* \"#utility.yul\":1331:1335   */\n      dup2\n        /* \"#utility.yul\":1322:1328   */\n      dup5\n        /* \"#utility.yul\":1258:1336   */\n      tag_144\n      jump\t// in\n    tag_190:\n        /* \"#utility.yul\":1250:1336   */\n      swap1\n      pop\n        /* \"#utility.yul\":1030:1343   */\n      swap3\n      swap2\n      pop\n      pop\n      jump\t// out\n        /* \"#utility.yul\":1430:1547   */\n    tag_146:\n        /* \"#utility.yul\":1539:1540   */\n      0x00\n        /* \"#utility.yul\":1536:1537   */\n      dup1\n        /* \"#utility.yul\":1529:1541   */\n      revert\n        /* \"#utility.yul\":1676:1802   */\n    tag_148:\n        /* \"#utility.yul\":1713:1720   */\n      0x00\n        /* \"#utility.yul\":1753:1795   */\n      0xffffffffffffffffffffffffffffffffffffffff\n        /* \"#utility.yul\":1746:1751   */\n      dup3\n        /* \"#utility.yul\":1742:1796   */\n      and\n        /* \"#utility.yul\":1731:1796   */\n      swap1\n      pop\n        /* \"#utility.yul\":1676:1802   */\n      swap2\n      swap1\n      pop\n      jump\t// out\n        /* \"#utility.yul\":1808:1904   */\n    tag_149:\n        /* \"#utility.yul\":1845:1852   */\n      0x00\n        /* \"#utility.yul\":1874:1898   */\n      tag_196\n        /* \"#utility.yul\":1892:1897   */\n      dup3\n        /* \"#utility.yul\":1874:1898   */\n      tag_148\n      jump\t// in\n    tag_196:\n        /* \"#utility.yul\":1863:1898   */\n      swap1\n      pop\n        /* \"#utility.yul\":1808:1904   */\n      swap2\n      swap1\n      pop\n      jump\t// out\n        /* \"#utility.yul\":1910:2032   */\n    tag_150:\n        /* \"#utility.yul\":1983:2007   */\n      tag_198\n        /* \"#utility.yul\":2001:2006   */\n      dup2\n        /* \"#utility.yul\":1983:2007   */\n      tag_149\n      jump\t// in\n    tag_198:\n        /* \"#utility.yul\":1976:1981   */\n      dup2\n        /* \"#utility.yul\":1973:2008   */\n      eq\n        /* \"#utility.yul\":1963:2026   */\n      tag_199\n      jumpi\n        /* \"#utility.yul\":2022:2023   */\n      0x00\n        /* \"#utility.yul\":2019:2020   */\n      dup1\n        /* \"#utility.yul\":2012:2024   */\n      revert\n        /* \"#utility.yul\":1963:2026   */\n    tag_199:\n        /* \"#utility.yul\":1910:2032   */\n      pop\n      jump\t// out\n        /* \"#utility.yul\":2038:2177   */\n    tag_151:\n        /* \"#utility.yul\":2084:2089   */\n      0x00\n        /* \"#utility.yul\":2122:2128   */\n      dup2\n        /* \"#utility.yul\":2109:2129   */\n      calldataload\n        /* \"#utility.yul\":2100:2129   */\n      swap1\n      pop\n        /* \"#utility.yul\":2138:2171   */\n      tag_201\n        /* \"#utility.yul\":2165:2170   */\n      dup2\n        /* \"#utility.yul\":2138:2171   */\n      tag_150\n      jump\t// in\n    tag_201:\n        /* \"#utility.yul\":2038:2177   */\n      swap3\n      swap2\n      pop\n      pop\n      jump\t// out\n        /* \"#utility.yul\":2183:2260   */\n    tag_152:\n        /* \"#utility.yul\":2220:2227   */\n      0x00\n        /* \"#utility.yul\":2249:2254   */\n      dup2\n        /* \"#utility.yul\":2238:2254   */\n      swap1\n      pop\n        /* \"#utility.yul\":2183:2260   */\n      swap2\n      swap1\n      pop\n      jump\t// out\n        /* \"#utility.yul\":2266:2388   */\n    tag_153:\n        /* \"#utility.yul\":2339:2363   */\n      tag_204\n        /* \"#utility.yul\":2357:2362   */\n      dup2\n        /* \"#utility.yul\":2339:2363   */\n      tag_152\n      jump\t// in\n    tag_204:\n        /* \"#utility.yul\":2332:2337   */\n      dup2\n        /* \"#utility.yul\":2329:2364   */\n      eq\n        /* \"#utility.yul\":2319:2382   */\n      tag_205\n      jumpi\n        /* \"#utility.yul\":2378:2379   */\n      0x00\n        /* \"#utility.yul\":2375:2376   */\n      dup1\n        /* \"#utility.yul\":2368:2380   */\n      revert\n        /* \"#utility.yul\":2319:2382   */\n    tag_205:\n        /* \"#utility.yul\":2266:2388   */\n      pop\n      jump\t// out\n        /* \"#utility.yul\":2394:2533   */\n    tag_154:\n        /* \"#utility.yul\":2440:2445   */\n      0x00\n        /* \"#utility.yul\":2478:2484   */\n      dup2\n        /* \"#utility.yul\":2465:2485   */\n      calldataload\n        /* \"#utility.yul\":2456:2485   */\n      swap1\n      pop\n        /* \"#utility.yul\":2494:2527   */\n      tag_207\n        /* \"#utility.yul\":2521:2526   */\n      dup2\n        /* \"#utility.yul\":2494:2527   */\n      tag_153\n      jump\t// in\n    tag_207:\n        /* \"#utility.yul\":2394:2533   */\n      swap3\n      swap2\n      pop\n      pop\n      jump\t// out\n        /* \"#utility.yul\":2539:3013   */\n    tag_21:\n        /* \"#utility.yul\":2607:2613   */\n      0x00\n        /* \"#utility.yul\":2615:2621   */\n      dup1\n        /* \"#utility.yul\":2664:2666   */\n      0x40\n        /* \"#utility.yul\":2652:2661   */\n      dup4\n        /* \"#utility.yul\":2643:2650   */\n      dup6\n        /* \"#utility.yul\":2639:2662   */\n      sub\n        /* \"#utility.yul\":2635:2667   */\n      slt\n        /* \"#utility.yul\":2632:2751   */\n      iszero\n      tag_209\n      jumpi\n        /* \"#utility.yul\":2670:2749   */\n      tag_210\n      tag_146\n      jump\t// in\n    tag_210:\n        /* \"#utility.yul\":2632:2751   */\n    tag_209:\n        /* \"#utility.yul\":2790:2791   */\n      0x00\n        /* \"#utility.yul\":2815:2868   */\n      tag_211\n        /* \"#utility.yul\":2860:2867   */\n      dup6\n        /* \"#utility.yul\":2851:2857   */\n      dup3\n        /* \"#utility.yul\":2840:2849   */\n      dup7\n        /* \"#utility.yul\":2836:2858   */\n      add\n        /* \"#utility.yul\":2815:2868   */\n      tag_151\n      jump\t// in\n    tag_211:\n        /* \"#utility.yul\":2805:2868   */\n      swap3\n      pop\n        /* \"#utility.yul\":2761:2878   */\n      pop\n        /* \"#utility.yul\":2917:2919   */\n      0x20\n        /* \"#utility.yul\":2943:2996   */\n      tag_212\n        /* \"#utility.yul\":2988:2995   */\n      dup6\n        /* \"#utility.yul\":2979:2985   */\n      dup3\n        /* \"#utility.yul\":2968:2977   */\n      dup7\n        /* \"#utility.yul\":2964:2986   */\n      add\n        /* \"#utility.yul\":2943:2996   */\n      tag_154\n      jump\t// in\n    tag_212:\n        /* \"#utility.yul\":2933:2996   */\n      swap2\n      pop\n        /* \"#utility.yul\":2888:3006   */\n      pop\n        /* \"#utility.yul\":2539:3013   */\n      swap3\n      pop\n      swap3\n      swap1\n      pop\n      jump\t// out\n        /* \"#utility.yul\":3019:3109   */\n    tag_155:\n        /* \"#utility.yul\":3053:3060   */\n      0x00\n        /* \"#utility.yul\":3096:3101   */\n      dup2\n        /* \"#utility.yul\":3089:3102   */\n      iszero\n        /* \"#utility.yul\":3082:3103   */\n      iszero\n        /* \"#utility.yul\":3071:3103   */\n      swap1\n      pop\n        /* \"#utility.yul\":3019:3109   */\n      swap2\n      swap1\n      pop\n      jump\t// out\n        /* \"#utility.yul\":3115:3224   */\n    tag_156:\n        /* \"#utility.yul\":3196:3217   */\n      tag_215\n        /* \"#utility.yul\":3211:3216   */\n      dup2\n        /* \"#utility.yul\":3196:3217   */\n      tag_155\n      jump\t// in\n    tag_215:\n        /* \"#utility.yul\":3191:3194   */\n      dup3\n        /* \"#utility.yul\":3184:3218   */\n      mstore\n        /* \"#utility.yul\":3115:3224   */\n      pop\n      pop\n      jump\t// out\n        /* \"#utility.yul\":3230:3440   */\n    tag_24:\n        /* \"#utility.yul\":3317:3321   */\n      0x00\n        /* \"#utility.yul\":3355:3357   */\n      0x20\n        /* \"#utility.yul\":3344:3353   */\n      dup3\n        /* \"#utility.yul\":3340:3358   */\n      add\n        /* \"#utility.yul\":3332:3358   */\n      swap1\n      pop\n        /* \"#utility.yul\":3368:3433   */\n      tag_217\n        /* \"#utility.yul\":3430:3431   */\n      0x00\n        /* \"#utility.yul\":3419:3428   */\n      dup4\n        /* \"#utility.yul\":3415:3432   */\n      add\n        /* \"#utility.yul\":3406:3412   */\n      dup5\n        /* \"#utility.yul\":3368:3433   */\n      tag_156\n      jump\t// in\n    tag_217:\n        /* \"#utility.yul\":3230:3440   */\n      swap3\n      swap2\n      pop\n      pop\n      jump\t// out\n        /* \"#utility.yul\":3446:3564   */\n    tag_157:\n        /* \"#utility.yul\":3533:3557   */\n      tag_219\n        /* \"#utility.yul\":3551:3556   */\n      dup2\n        /* \"#utility.yul\":3533:3557   */\n      tag_152\n      jump\t// in\n    tag_219:\n        /* \"#utility.yul\":3528:3531   */\n      dup3\n        /* \"#utility.yul\":3521:3558   */\n      mstore\n        /* \"#utility.yul\":3446:3564   */\n      pop\n      pop\n      jump\t// out\n        /* \"#utility.yul\":3570:3792   */\n    tag_28:\n        /* \"#utility.yul\":3663:3667   */\n      0x00\n        /* \"#utility.yul\":3701:3703   */\n      0x20\n        /* \"#utility.yul\":3690:3699   */\n      dup3\n        /* \"#utility.yul\":3686:3704   */\n      add\n        /* \"#utility.yul\":3678:3704   */\n      swap1\n      pop\n        /* \"#utility.yul\":3714:3785   */\n      tag_221\n        /* \"#utility.yul\":3782:3783   */\n      0x00\n        /* \"#utility.yul\":3771:3780   */\n      dup4\n        /* \"#utility.yul\":3767:3784   */\n      add\n        /* \"#utility.yul\":3758:3764   */\n      dup5\n        /* \"#utility.yul\":3714:3785   */\n      tag_157\n      jump\t// in\n    tag_221:\n        /* \"#utility.yul\":3570:3792   */\n      swap3\n      swap2\n      pop\n      pop\n      jump\t// out\n        /* \"#utility.yul\":3798:4417   */\n    tag_31:\n        /* \"#utility.yul\":3875:3881   */\n      0x00\n        /* \"#utility.yul\":3883:3889   */\n      dup1\n        /* \"#utility.yul\":3891:3897   */\n      0x00\n        /* \"#utility.yul\":3940:3942   */\n      0x60\n        /* \"#utility.yul\":3928:3937   */\n      dup5\n        /* \"#utility.yul\":3919:3926   */\n      dup7\n        /* \"#utility.yul\":3915:3938   */\n      sub\n        /* \"#utility.yul\":3911:3943   */\n      slt\n        /* \"#utility.yul\":3908:4027   */\n      iszero\n      tag_223\n      jumpi\n        /* \"#utility.yul\":3946:4025   */\n      tag_224\n      tag_146\n      jump\t// in\n    tag_224:\n        /* \"#utility.yul\":3908:4027   */\n    tag_223:\n        /* \"#utility.yul\":4066:4067   */\n      0x00\n        /* \"#utility.yul\":4091:4144   */\n      tag_225\n        /* \"#utility.yul\":4136:4143   */\n      dup7\n        /* \"#utility.yul\":4127:4133   */\n      dup3\n        /* \"#utility.yul\":4116:4125   */\n      dup8\n        /* \"#utility.yul\":4112:4134   */\n      add\n        /* \"#utility.yul\":4091:4144   */\n      tag_151\n      jump\t// in\n    tag_225:\n        /* \"#utility.yul\":4081:4144   */\n      swap4\n      pop\n        /* \"#utility.yul\":4037:4154   */\n      pop\n        /* \"#utility.yul\":4193:4195   */\n      0x20\n        /* \"#utility.yul\":4219:4272   */\n      tag_226\n        /* \"#utility.yul\":4264:4271   */\n      dup7\n        /* \"#utility.yul\":4255:4261   */\n      dup3\n        /* \"#utility.yul\":4244:4253   */\n      dup8\n        /* \"#utility.yul\":4240:4262   */\n      add\n        /* \"#utility.yul\":4219:4272   */\n      tag_151\n      jump\t// in\n    tag_226:\n        /* \"#utility.yul\":4209:4272   */\n      swap3\n      pop\n        /* \"#utility.yul\":4164:4282   */\n      pop\n        /* \"#utility.yul\":4321:4323   */\n      0x40\n        /* \"#utility.yul\":4347:4400   */\n      tag_227\n        /* \"#utility.yul\":4392:4399   */\n      dup7\n        /* \"#utility.yul\":4383:4389   */\n      dup3\n        /* \"#utility.yul\":4372:4381   */\n      dup8\n        /* \"#utility.yul\":4368:4390   */\n      add\n        /* \"#utility.yul\":4347:4400   */\n      tag_154\n      jump\t// in\n    tag_227:\n        /* \"#utility.yul\":4337:4400   */\n      swap2\n      pop\n        /* \"#utility.yul\":4292:4410   */\n      pop\n        /* \"#utility.yul\":3798:4417   */\n      swap3\n      pop\n      swap3\n      pop\n      swap3\n      jump\t// out\n        /* \"#utility.yul\":4423:4509   */\n    tag_158:\n        /* \"#utility.yul\":4458:4465   */\n      0x00\n        /* \"#utility.yul\":4498:4502   */\n      0xff\n        /* \"#utility.yul\":4491:4496   */\n      dup3\n        /* \"#utility.yul\":4487:4503   */\n      and\n        /* \"#utility.yul\":4476:4503   */\n      swap1\n      pop\n        /* \"#utility.yul\":4423:4509   */\n      swap2\n      swap1\n      pop\n      jump\t// out\n        /* \"#utility.yul\":4515:4627   */\n    tag_159:\n        /* \"#utility.yul\":4598:4620   */\n      tag_230\n        /* \"#utility.yul\":4614:4619   */\n      dup2\n        /* \"#utility.yul\":4598:4620   */\n      tag_158\n      jump\t// in\n    tag_230:\n        /* \"#utility.yul\":4593:4596   */\n      dup3\n        /* \"#utility.yul\":4586:4621   */\n      mstore\n        /* \"#utility.yul\":4515:4627   */\n      pop\n      pop\n      jump\t// out\n        /* \"#utility.yul\":4633:4847   */\n    tag_37:\n        /* \"#utility.yul\":4722:4726   */\n      0x00\n        /* \"#utility.yul\":4760:4762   */\n      0x20\n        /* \"#utility.yul\":4749:4758   */\n      dup3\n        /* \"#utility.yul\":4745:4763   */\n      add\n        /* \"#utility.yul\":4737:4763   */\n      swap1\n      pop\n        /* \"#utility.yul\":4773:4840   */\n      tag_232\n        /* \"#utility.yul\":4837:4838   */\n      0x00\n        /* \"#utility.yul\":4826:4835   */\n      dup4\n        /* \"#utility.yul\":4822:4839   */\n      add\n        /* \"#utility.yul\":4813:4819   */\n      dup5\n        /* \"#utility.yul\":4773:4840   */\n      tag_159\n      jump\t// in\n    tag_232:\n        /* \"#utility.yul\":4633:4847   */\n      swap3\n      swap2\n      pop\n      pop\n      jump\t// out\n        /* \"#utility.yul\":4853:5182   */\n    tag_44:\n        /* \"#utility.yul\":4912:4918   */\n      0x00\n        /* \"#utility.yul\":4961:4963   */\n      0x20\n        /* \"#utility.yul\":4949:4958   */\n      dup3\n        /* \"#utility.yul\":4940:4947   */\n      dup5\n        /* \"#utility.yul\":4936:4959   */\n      sub\n        /* \"#utility.yul\":4932:4964   */\n      slt\n        /* \"#utility.yul\":4929:5048   */\n      iszero\n      tag_234\n      jumpi\n        /* \"#utility.yul\":4967:5046   */\n      tag_235\n      tag_146\n      jump\t// in\n    tag_235:\n        /* \"#utility.yul\":4929:5048   */\n    tag_234:\n        /* \"#utility.yul\":5087:5088   */\n      0x00\n        /* \"#utility.yul\":5112:5165   */\n      tag_236\n        /* \"#utility.yul\":5157:5164   */\n      dup5\n        /* \"#utility.yul\":5148:5154   */\n      dup3\n        /* \"#utility.yul\":5137:5146   */\n      dup6\n        /* \"#utility.yul\":5133:5155   */\n      add\n        /* \"#utility.yul\":5112:5165   */\n      tag_151\n      jump\t// in\n    tag_236:\n        /* \"#utility.yul\":5102:5165   */\n      swap2\n      pop\n        /* \"#utility.yul\":5058:5175   */\n      pop\n        /* \"#utility.yul\":4853:5182   */\n      swap3\n      swap2\n      pop\n      pop\n      jump\t// out\n        /* \"#utility.yul\":5188:5662   */\n    tag_60:\n        /* \"#utility.yul\":5256:5262   */\n      0x00\n        /* \"#utility.yul\":5264:5270   */\n      dup1\n        /* \"#utility.yul\":5313:5315   */\n      0x40\n        /* \"#utility.yul\":5301:5310   */\n      dup4\n        /* \"#utility.yul\":5292:5299   */\n      dup6\n        /* \"#utility.yul\":5288:5311   */\n      sub\n        /* \"#utility.yul\":5284:5316   */\n      slt\n        /* \"#utility.yul\":5281:5400   */\n      iszero\n      tag_238\n      jumpi\n        /* \"#utility.yul\":5319:5398   */\n      tag_239\n      tag_146\n      jump\t// in\n    tag_239:\n        /* \"#utility.yul\":5281:5400   */\n    tag_238:\n        /* \"#utility.yul\":5439:5440   */\n      0x00\n        /* \"#utility.yul\":5464:5517   */\n      tag_240\n        /* \"#utility.yul\":5509:5516   */\n      dup6\n        /* \"#utility.yul\":5500:5506   */\n      dup3\n        /* \"#utility.yul\":5489:5498   */\n      dup7\n        /* \"#utility.yul\":5485:5507   */\n      add\n        /* \"#utility.yul\":5464:5517   */\n      tag_151\n      jump\t// in\n    tag_240:\n        /* \"#utility.yul\":5454:5517   */\n      swap3\n      pop\n        /* \"#utility.yul\":5410:5527   */\n      pop\n        /* \"#utility.yul\":5566:5568   */\n      0x20\n        /* \"#utility.yul\":5592:5645   */\n      tag_241\n        /* \"#utility.yul\":5637:5644   */\n      dup6\n        /* \"#utility.yul\":5628:5634   */\n      dup3\n        /* \"#utility.yul\":5617:5626   */\n      dup7\n        /* \"#utility.yul\":5613:5635   */\n      add\n        /* \"#utility.yul\":5592:5645   */\n      tag_151\n      jump\t// in\n    tag_241:\n        /* \"#utility.yul\":5582:5645   */\n      swap2\n      pop\n        /* \"#utility.yul\":5537:5655   */\n      pop\n        /* \"#utility.yul\":5188:5662   */\n      swap3\n      pop\n      swap3\n      swap1\n      pop\n      jump\t// out\n        /* \"#utility.yul\":5668:5848   */\n    tag_160:\n        /* \"#utility.yul\":5716:5793   */\n      0x4e487b7100000000000000000000000000000000000000000000000000000000\n        /* \"#utility.yul\":5713:5714   */\n      0x00\n        /* \"#utility.yul\":5706:5794   */\n      mstore\n        /* \"#utility.yul\":5813:5817   */\n      0x22\n        /* \"#utility.yul\":5810:5811   */\n      0x04\n        /* \"#utility.yul\":5803:5818   */\n      mstore\n        /* \"#utility.yul\":5837:5841   */\n      0x24\n        /* \"#utility.yul\":5834:5835   */\n      0x00\n        /* \"#utility.yul\":5827:5842   */\n      revert\n        /* \"#utility.yul\":5854:6174   */\n    tag_65:\n        /* \"#utility.yul\":5898:5904   */\n      0x00\n        /* \"#utility.yul\":5935:5936   */\n      0x02\n        /* \"#utility.yul\":5929:5933   */\n      dup3\n        /* \"#utility.yul\":5925:5937   */\n      div\n        /* \"#utility.yul\":5915:5937   */\n      swap1\n      pop\n        /* \"#utility.yul\":5982:5983   */\n      0x01\n        /* \"#utility.yul\":5976:5980   */\n      dup3\n        /* \"#utility.yul\":5972:5984   */\n      and\n        /* \"#utility.yul\":6003:6021   */\n      dup1\n        /* \"#utility.yul\":5993:6074   */\n      tag_244\n      jumpi\n        /* \"#utility.yul\":6059:6063   */\n      0x7f\n        /* \"#utility.yul\":6051:6057   */\n      dup3\n        /* \"#utility.yul\":6047:6064   */\n      and\n        /* \"#utility.yul\":6037:6064   */\n      swap2\n      pop\n        /* \"#utility.yul\":5993:6074   */\n    tag_244:\n        /* \"#utility.yul\":6121:6123   */\n      0x20\n        /* \"#utility.yul\":6113:6119   */\n      dup3\n        /* \"#utility.yul\":6110:6124   */\n      lt\n        /* \"#utility.yul\":6090:6108   */\n      dup2\n        /* \"#utility.yul\":6087:6125   */\n      sub\n        /* \"#utility.yul\":6084:6168   */\n      tag_245\n      jumpi\n        /* \"#utility.yul\":6140:6158   */\n      tag_246\n      tag_160\n      jump\t// in\n    tag_246:\n        /* \"#utility.yul\":6084:6168   */\n    tag_245:\n        /* \"#utility.yul\":5905:6174   */\n      pop\n        /* \"#utility.yul\":5854:6174   */\n      swap2\n      swap1\n      pop\n      jump\t// out\n        /* \"#utility.yul\":6180:6360   */\n    tag_161:\n        /* \"#utility.yul\":6228:6305   */\n      0x4e487b7100000000000000000000000000000000000000000000000000000000\n        /* \"#utility.yul\":6225:6226   */\n      0x00\n        /* \"#utility.yul\":6218:6306   */\n      mstore\n        /* \"#utility.yul\":6325:6329   */\n      0x11\n        /* \"#utility.yul\":6322:6323   */\n      0x04\n        /* \"#utility.yul\":6315:6330   */\n      mstore\n        /* \"#utility.yul\":6349:6353   */\n      0x24\n        /* \"#utility.yul\":6346:6347   */\n      0x00\n        /* \"#utility.yul\":6339:6354   */\n      revert\n        /* \"#utility.yul\":6366:6557   */\n    tag_88:\n        /* \"#utility.yul\":6406:6409   */\n      0x00\n        /* \"#utility.yul\":6425:6445   */\n      tag_249\n        /* \"#utility.yul\":6443:6444   */\n      dup3\n        /* \"#utility.yul\":6425:6445   */\n      tag_152\n      jump\t// in\n    tag_249:\n        /* \"#utility.yul\":6420:6445   */\n      swap2\n      pop\n        /* \"#utility.yul\":6459:6479   */\n      tag_250\n        /* \"#utility.yul\":6477:6478   */\n      dup4\n        /* \"#utility.yul\":6459:6479   */\n      tag_152\n      jump\t// in\n    tag_250:\n        /* \"#utility.yul\":6454:6479   */\n      swap3\n      pop\n        /* \"#utility.yul\":6502:6503   */\n      dup3\n        /* \"#utility.yul\":6499:6500   */\n      dup3\n        /* \"#utility.yul\":6495:6504   */\n      add\n        /* \"#utility.yul\":6488:6504   */\n      swap1\n      pop\n        /* \"#utility.yul\":6523:6526   */\n      dup1\n        /* \"#utility.yul\":6520:6521   */\n      dup3\n        /* \"#utility.yul\":6517:6527   */\n      gt\n        /* \"#utility.yul\":6514:6550   */\n      iszero\n      tag_251\n      jumpi\n        /* \"#utility.yul\":6530:6548   */\n      tag_252\n      tag_161\n      jump\t// in\n    tag_252:\n        /* \"#utility.yul\":6514:6550   */\n    tag_251:\n        /* \"#utility.yul\":6366:6557   */\n      swap3\n      swap2\n      pop\n      pop\n      jump\t// out\n        /* \"#utility.yul\":6563:6787   */\n    tag_162:\n        /* \"#utility.yul\":6703:6737   */\n      0x45524332303a2064656372656173656420616c6c6f77616e63652062656c6f77\n        /* \"#utility.yul\":6699:6700   */\n      0x00\n        /* \"#utility.yul\":6691:6697   */\n      dup3\n        /* \"#utility.yul\":6687:6701   */\n      add\n        /* \"#utility.yul\":6680:6738   */\n      mstore\n        /* \"#utility.yul\":6772:6779   */\n      0x207a65726f000000000000000000000000000000000000000000000000000000\n        /* \"#utility.yul\":6767:6769   */\n      0x20\n        /* \"#utility.yul\":6759:6765   */\n      dup3\n        /* \"#utility.yul\":6755:6770   */\n      add\n        /* \"#utility.yul\":6748:6780   */\n      mstore\n        /* \"#utility.yul\":6563:6787   */\n      pop\n      jump\t// out\n        /* \"#utility.yul\":6793:7159   */\n    tag_163:\n        /* \"#utility.yul\":6935:6938   */\n      0x00\n        /* \"#utility.yul\":6956:7023   */\n      tag_255\n        /* \"#utility.yul\":7020:7022   */\n      0x25\n        /* \"#utility.yul\":7015:7018   */\n      dup4\n        /* \"#utility.yul\":6956:7023   */\n      tag_141\n      jump\t// in\n    tag_255:\n        /* \"#utility.yul\":6949:7023   */\n      swap2\n      pop\n        /* \"#utility.yul\":7032:7125   */\n      tag_256\n        /* \"#utility.yul\":7121:7124   */\n      dup3\n        /* \"#utility.yul\":7032:7125   */\n      tag_162\n      jump\t// in\n    tag_256:\n        /* \"#utility.yul\":7150:7152   */\n      0x40\n        /* \"#utility.yul\":7145:7148   */\n      dup3\n        /* \"#utility.yul\":7141:7153   */\n      add\n        /* \"#utility.yul\":7134:7153   */\n      swap1\n      pop\n        /* \"#utility.yul\":6793:7159   */\n      swap2\n      swap1\n      pop\n      jump\t// out\n        /* \"#utility.yul\":7165:7584   */\n    tag_101:\n        /* \"#utility.yul\":7331:7335   */\n      0x00\n        /* \"#utility.yul\":7369:7371   */\n      0x20\n        /* \"#utility.yul\":7358:7367   */\n      dup3\n        /* \"#utility.yul\":7354:7372   */\n      add\n        /* \"#utility.yul\":7346:7372   */\n      swap1\n      pop\n        /* \"#utility.yul\":7418:7427   */\n      dup2\n        /* \"#utility.yul\":7412:7416   */\n      dup2\n        /* \"#utility.yul\":7408:7428   */\n      sub\n        /* \"#utility.yul\":7404:7405   */\n      0x00\n        /* \"#utility.yul\":7393:7402   */\n      dup4\n        /* \"#utility.yul\":7389:7406   */\n      add\n        /* \"#utility.yul\":7382:7429   */\n      mstore\n        /* \"#utility.yul\":7446:7577   */\n      tag_258\n        /* \"#utility.yul\":7572:7576   */\n      dup2\n        /* \"#utility.yul\":7446:7577   */\n      tag_163\n      jump\t// in\n    tag_258:\n        /* \"#utility.yul\":7438:7577   */\n      swap1\n      pop\n        /* \"#utility.yul\":7165:7584   */\n      swap2\n      swap1\n      pop\n      jump\t// out\n        /* \"#utility.yul\":7590:7813   */\n    tag_164:\n        /* \"#utility.yul\":7730:7764   */\n      0x45524332303a20617070726f76652066726f6d20746865207a65726f20616464\n        /* \"#utility.yul\":7726:7727   */\n      0x00\n        /* \"#utility.yul\":7718:7724   */\n      dup3\n        /* \"#utility.yul\":7714:7728   */\n      add\n        /* \"#utility.yul\":7707:7765   */\n      mstore\n        /* \"#utility.yul\":7799:7805   */\n      0x7265737300000000000000000000000000000000000000000000000000000000\n        /* \"#utility.yul\":7794:7796   */\n      0x20\n        /* \"#utility.yul\":7786:7792   */\n      dup3\n        /* \"#utility.yul\":7782:7797   */\n      add\n        /* \"#utility.yul\":7775:7806   */\n      mstore\n        /* \"#utility.yul\":7590:7813   */\n      pop\n      jump\t// out\n        /* \"#utility.yul\":7819:8185   */\n    tag_165:\n        /* \"#utility.yul\":7961:7964   */\n      0x00\n        /* \"#utility.yul\":7982:8049   */\n      tag_261\n        /* \"#utility.yul\":8046:8048   */\n      0x24\n        /* \"#utility.yul\":8041:8044   */\n      dup4\n        /* \"#utility.yul\":7982:8049   */\n      tag_141\n      jump\t// in\n    tag_261:\n        /* \"#utility.yul\":7975:8049   */\n      swap2\n      pop\n        /* \"#utility.yul\":8058:8151   */\n      tag_262\n        /* \"#utility.yul\":8147:8150   */\n      dup3\n        /* \"#utility.yul\":8058:8151   */\n      tag_164\n      jump\t// in\n    tag_262:\n        /* \"#utility.yul\":8176:8178   */\n      0x40\n        /* \"#utility.yul\":8171:8174   */\n      dup3\n        /* \"#utility.yul\":8167:8179   */\n      add\n        /* \"#utility.yul\":8160:8179   */\n      swap1\n      pop\n        /* \"#utility.yul\":7819:8185   */\n      swap2\n      swap1\n      pop\n      jump\t// out\n        /* \"#utility.yul\":8191:8610   */\n    tag_111:\n        /* \"#utility.yul\":8357:8361   */\n      0x00\n        /* \"#utility.yul\":8395:8397   */\n      0x20\n        /* \"#utility.yul\":8384:8393   */\n      dup3\n        /* \"#utility.yul\":8380:8398   */\n      add\n        /* \"#utility.yul\":8372:8398   */\n      swap1\n      pop\n        /* \"#utility.yul\":8444:8453   */\n      dup2\n        /* \"#utility.yul\":8438:8442   */\n      dup2\n        /* \"#utility.yul\":8434:8454   */\n      sub\n        /* \"#utility.yul\":8430:8431   */\n      0x00\n        /* \"#utility.yul\":8419:8428   */\n      dup4\n        /* \"#utility.yul\":8415:8432   */\n      add\n        /* \"#utility.yul\":8408:8455   */\n      mstore\n        /* \"#utility.yul\":8472:8603   */\n      tag_264\n        /* \"#utility.yul\":8598:8602   */\n      dup2\n        /* \"#utility.yul\":8472:8603   */\n      tag_165\n      jump\t// in\n    tag_264:\n        /* \"#utility.yul\":8464:8603   */\n      swap1\n      pop\n        /* \"#utility.yul\":8191:8610   */\n      swap2\n      swap1\n      pop\n      jump\t// out\n        /* \"#utility.yul\":8616:8837   */\n    tag_166:\n        /* \"#utility.yul\":8756:8790   */\n      0x45524332303a20617070726f766520746f20746865207a65726f206164647265\n        /* \"#utility.yul\":8752:8753   */\n      0x00\n        /* \"#utility.yul\":8744:8750   */\n      dup3\n        /* \"#utility.yul\":8740:8754   */\n      add\n        /* \"#utility.yul\":8733:8791   */\n      mstore\n        /* \"#utility.yul\":8825:8829   */\n      0x7373000000000000000000000000000000000000000000000000000000000000\n        /* \"#utility.yul\":8820:8822   */\n      0x20\n        /* \"#utility.yul\":8812:8818   */\n      dup3\n        /* \"#utility.yul\":8808:8823   */\n      add\n        /* \"#utility.yul\":8801:8830   */\n      mstore\n        /* \"#utility.yul\":8616:8837   */\n      pop\n      jump\t// out\n        /* \"#utility.yul\":8843:9209   */\n    tag_167:\n        /* \"#utility.yul\":8985:8988   */\n      0x00\n        /* \"#utility.yul\":9006:9073   */\n      tag_267\n        /* \"#utility.yul\":9070:9072   */\n      0x22\n        /* \"#utility.yul\":9065:9068   */\n      dup4\n        /* \"#utility.yul\":9006:9073   */\n      tag_141\n      jump\t// in\n    tag_267:\n        /* \"#utility.yul\":8999:9073   */\n      swap2\n      pop\n        /* \"#utility.yul\":9082:9175   */\n      tag_268\n        /* \"#utility.yul\":9171:9174   */\n      dup3\n        /* \"#utility.yul\":9082:9175   */\n      tag_166\n      jump\t// in\n    tag_268:\n        /* \"#utility.yul\":9200:9202   */\n      0x40\n        /* \"#utility.yul\":9195:9198   */\n      dup3\n        /* \"#utility.yul\":9191:9203   */\n      add\n        /* \"#utility.yul\":9184:9203   */\n      swap1\n      pop\n        /* \"#utility.yul\":8843:9209   */\n      swap2\n      swap1\n      pop\n      jump\t// out\n        /* \"#utility.yul\":9215:9634   */\n    tag_114:\n        /* \"#utility.yul\":9381:9385   */\n      0x00\n        /* \"#utility.yul\":9419:9421   */\n      0x20\n        /* \"#utility.yul\":9408:9417   */\n      dup3\n        /* \"#utility.yul\":9404:9422   */\n      add\n        /* \"#utility.yul\":9396:9422   */\n      swap1\n      pop\n        /* \"#utility.yul\":9468:9477   */\n      dup2\n        /* \"#utility.yul\":9462:9466   */\n      dup2\n        /* \"#utility.yul\":9458:9478   */\n      sub\n        /* \"#utility.yul\":9454:9455   */\n      0x00\n        /* \"#utility.yul\":9443:9452   */\n      dup4\n        /* \"#utility.yul\":9439:9456   */\n      add\n        /* \"#utility.yul\":9432:9479   */\n      mstore\n        /* \"#utility.yul\":9496:9627   */\n      tag_270\n        /* \"#utility.yul\":9622:9626   */\n      dup2\n        /* \"#utility.yul\":9496:9627   */\n      tag_167\n      jump\t// in\n    tag_270:\n        /* \"#utility.yul\":9488:9627   */\n      swap1\n      pop\n        /* \"#utility.yul\":9215:9634   */\n      swap2\n      swap1\n      pop\n      jump\t// out\n        /* \"#utility.yul\":9640:9819   */\n    tag_168:\n        /* \"#utility.yul\":9780:9811   */\n      0x45524332303a20696e73756666696369656e7420616c6c6f77616e6365000000\n        /* \"#utility.yul\":9776:9777   */\n      0x00\n        /* \"#utility.yul\":9768:9774   */\n      dup3\n        /* \"#utility.yul\":9764:9778   */\n      add\n        /* \"#utility.yul\":9757:9812   */\n      mstore\n        /* \"#utility.yul\":9640:9819   */\n      pop\n      jump\t// out\n        /* \"#utility.yul\":9825:10191   */\n    tag_169:\n        /* \"#utility.yul\":9967:9970   */\n      0x00\n        /* \"#utility.yul\":9988:10055   */\n      tag_273\n        /* \"#utility.yul\":10052:10054   */\n      0x1d\n        /* \"#utility.yul\":10047:10050   */\n      dup4\n        /* \"#utility.yul\":9988:10055   */\n      tag_141\n      jump\t// in\n    tag_273:\n        /* \"#utility.yul\":9981:10055   */\n      swap2\n      pop\n        /* \"#utility.yul\":10064:10157   */\n      tag_274\n        /* \"#utility.yul\":10153:10156   */\n      dup3\n        /* \"#utility.yul\":10064:10157   */\n      tag_168\n      jump\t// in\n    tag_274:\n        /* \"#utility.yul\":10182:10184   */\n      0x20\n        /* \"#utility.yul\":10177:10180   */\n      dup3\n        /* \"#utility.yul\":10173:10185   */\n      add\n        /* \"#utility.yul\":10166:10185   */\n      swap1\n      pop\n        /* \"#utility.yul\":9825:10191   */\n      swap2\n      swap1\n      pop\n      jump\t// out\n        /* \"#utility.yul\":10197:10616   */\n    tag_121:\n        /* \"#utility.yul\":10363:10367   */\n      0x00\n        /* \"#utility.yul\":10401:10403   */\n      0x20\n        /* \"#utility.yul\":10390:10399   */\n      dup3\n        /* \"#utility.yul\":10386:10404   */\n      add\n        /* \"#utility.yul\":10378:10404   */\n      swap1\n      pop\n        /* \"#utility.yul\":10450:10459   */\n      dup2\n        /* \"#utility.yul\":10444:10448   */\n      dup2\n        /* \"#utility.yul\":10440:10460   */\n      sub\n        /* \"#utility.yul\":10436:10437   */\n      0x00\n        /* \"#utility.yul\":10425:10434   */\n      dup4\n        /* \"#utility.yul\":10421:10438   */\n      add\n        /* \"#utility.yul\":10414:10461   */\n      mstore\n        /* \"#utility.yul\":10478:10609   */\n      tag_276\n        /* \"#utility.yul\":10604:10608   */\n      dup2\n        /* \"#utility.yul\":10478:10609   */\n      tag_169\n      jump\t// in\n    tag_276:\n        /* \"#utility.yul\":10470:10609   */\n      swap1\n      pop\n        /* \"#utility.yul\":10197:10616   */\n      swap2\n      swap1\n      pop\n      jump\t// out\n        /* \"#utility.yul\":10622:10846   */\n    tag_170:\n        /* \"#utility.yul\":10762:10796   */\n      0x45524332303a207472616e736665722066726f6d20746865207a65726f206164\n        /* \"#utility.yul\":10758:10759   */\n      0x00\n        /* \"#utility.yul\":10750:10756   */\n      dup3\n        /* \"#utility.yul\":10746:10760   */\n      add\n        /* \"#utility.yul\":10739:10797   */\n      mstore\n        /* \"#utility.yul\":10831:10838   */\n      0x6472657373000000000000000000000000000000000000000000000000000000\n        /* \"#utility.yul\":10826:10828   */\n      0x20\n        /* \"#utility.yul\":10818:10824   */\n      dup3\n        /* \"#utility.yul\":10814:10829   */\n      add\n        /* \"#utility.yul\":10807:10839   */\n      mstore\n        /* \"#utility.yul\":10622:10846   */\n      pop\n      jump\t// out\n        /* \"#utility.yul\":10852:11218   */\n    tag_171:\n        /* \"#utility.yul\":10994:10997   */\n      0x00\n        /* \"#utility.yul\":11015:11082   */\n      tag_279\n        /* \"#utility.yul\":11079:11081   */\n      0x25\n        /* \"#utility.yul\":11074:11077   */\n      dup4\n        /* \"#utility.yul\":11015:11082   */\n      tag_141\n      jump\t// in\n    tag_279:\n        /* \"#utility.yul\":11008:11082   */\n      swap2\n      pop\n        /* \"#utility.yul\":11091:11184   */\n      tag_280\n        /* \"#utility.yul\":11180:11183   */\n      dup3\n        /* \"#utility.yul\":11091:11184   */\n      tag_170\n      jump\t// in\n    tag_280:\n        /* \"#utility.yul\":11209:11211   */\n      0x40\n        /* \"#utility.yul\":11204:11207   */\n      dup3\n        /* \"#utility.yul\":11200:11212   */\n      add\n        /* \"#utility.yul\":11193:11212   */\n      swap1\n      pop\n        /* \"#utility.yul\":10852:11218   */\n      swap2\n      swap1\n      pop\n      jump\t// out\n        /* \"#utility.yul\":11224:11643   */\n    tag_126:\n        /* \"#utility.yul\":11390:11394   */\n      0x00\n        /* \"#utility.yul\":11428:11430   */\n      0x20\n        /* \"#utility.yul\":11417:11426   */\n      dup3\n        /* \"#utility.yul\":11413:11431   */\n      add\n        /* \"#utility.yul\":11405:11431   */\n      swap1\n      pop\n        /* \"#utility.yul\":11477:11486   */\n      dup2\n        /* \"#utility.yul\":11471:11475   */\n      dup2\n        /* \"#utility.yul\":11467:11487   */\n      sub\n        /* \"#utility.yul\":11463:11464   */\n      0x00\n        /* \"#utility.yul\":11452:11461   */\n      dup4\n        /* \"#utility.yul\":11448:11465   */\n      add\n        /* \"#utility.yul\":11441:11488   */\n      mstore\n        /* \"#utility.yul\":11505:11636   */\n      tag_282\n        /* \"#utility.yul\":11631:11635   */\n      dup2\n        /* \"#utility.yul\":11505:11636   */\n      tag_171\n      jump\t// in\n    tag_282:\n        /* \"#utility.yul\":11497:11636   */\n      swap1\n      pop\n        /* \"#utility.yul\":11224:11643   */\n      swap2\n      swap1\n      pop\n      jump\t// out\n        /* \"#utility.yul\":11649:11871   */\n    tag_172:\n        /* \"#utility.yul\":11789:11823   */\n      0x45524332303a207472616e7366657220746f20746865207a65726f2061646472\n        /* \"#utility.yul\":11785:11786   */\n      0x00\n        /* \"#utility.yul\":11777:11783   */\n      dup3\n        /* \"#utility.yul\":11773:11787   */\n      add\n        /* \"#utility.yul\":11766:11824   */\n      mstore\n        /* \"#utility.yul\":11858:11863   */\n      0x6573730000000000000000000000000000000000000000000000000000000000\n        /* \"#utility.yul\":11853:11855   */\n      0x20\n        /* \"#utility.yul\":11845:11851   */\n      dup3\n        /* \"#utility.yul\":11841:11856   */\n      add\n        /* \"#utility.yul\":11834:11864   */\n      mstore\n        /* \"#utility.yul\":11649:11871   */\n      pop\n      jump\t// out\n        /* \"#utility.yul\":11877:12243   */\n    tag_173:\n        /* \"#utility.yul\":12019:12022   */\n      0x00\n        /* \"#utility.yul\":12040:12107   */\n      tag_285\n        /* \"#utility.yul\":12104:12106   */\n      0x23\n        /* \"#utility.yul\":12099:12102   */\n      dup4\n        /* \"#utility.yul\":12040:12107   */\n      tag_141\n      jump\t// in\n    tag_285:\n        /* \"#utility.yul\":12033:12107   */\n      swap2\n      pop\n        /* \"#utility.yul\":12116:12209   */\n      tag_286\n        /* \"#utility.yul\":12205:12208   */\n      dup3\n        /* \"#utility.yul\":12116:12209   */\n      tag_172\n      jump\t// in\n    tag_286:\n        /* \"#utility.yul\":12234:12236   */\n      0x40\n        /* \"#utility.yul\":12229:12232   */\n      dup3\n        /* \"#utility.yul\":12225:12237   */\n      add\n        /* \"#utility.yul\":12218:12237   */\n      swap1\n      pop\n        /* \"#utility.yul\":11877:12243   */\n      swap2\n      swap1\n      pop\n      jump\t// out\n        /* \"#utility.yul\":12249:12668   */\n    tag_129:\n        /* \"#utility.yul\":12415:12419   */\n      0x00\n        /* \"#utility.yul\":12453:12455   */\n      0x20\n        /* \"#utility.yul\":12442:12451   */\n      dup3\n        /* \"#utility.yul\":12438:12456   */\n      add\n        /* \"#utility.yul\":12430:12456   */\n      swap1\n      pop\n        /* \"#utility.yul\":12502:12511   */\n      dup2\n        /* \"#utility.yul\":12496:12500   */\n      dup2\n        /* \"#utility.yul\":12492:12512   */\n      sub\n        /* \"#utility.yul\":12488:12489   */\n      0x00\n        /* \"#utility.yul\":12477:12486   */\n      dup4\n        /* \"#utility.yul\":12473:12490   */\n      add\n        /* \"#utility.yul\":12466:12513   */\n      mstore\n        /* \"#utility.yul\":12530:12661   */\n      tag_288\n        /* \"#utility.yul\":12656:12660   */\n      dup2\n        /* \"#utility.yul\":12530:12661   */\n      tag_173\n      jump\t// in\n    tag_288:\n        /* \"#utility.yul\":12522:12661   */\n      swap1\n      pop\n        /* \"#utility.yul\":12249:12668   */\n      swap2\n      swap1\n      pop\n      jump\t// out\n        /* \"#utility.yul\":12674:12899   */\n    tag_174:\n        /* \"#utility.yul\":12814:12848   */\n      0x45524332303a207472616e7366657220616d6f756e7420657863656564732062\n        /* \"#utility.yul\":12810:12811   */\n      0x00\n        /* \"#utility.yul\":12802:12808   */\n      dup3\n        /* \"#utility.yul\":12798:12812   */\n      add\n        /* \"#utility.yul\":12791:12849   */\n      mstore\n        /* \"#utility.yul\":12883:12891   */\n      0x616c616e63650000000000000000000000000000000000000000000000000000\n        /* \"#utility.yul\":12878:12880   */\n      0x20\n        /* \"#utility.yul\":12870:12876   */\n      dup3\n        /* \"#utility.yul\":12866:12881   */\n      add\n        /* \"#utility.yul\":12859:12892   */\n      mstore\n        /* \"#utility.yul\":12674:12899   */\n      pop\n      jump\t// out\n        /* \"#utility.yul\":12905:13271   */\n    tag_175:\n        /* \"#utility.yul\":13047:13050   */\n      0x00\n        /* \"#utility.yul\":13068:13135   */\n      tag_291\n        /* \"#utility.yul\":13132:13134   */\n      0x26\n        /* \"#utility.yul\":13127:13130   */\n      dup4\n        /* \"#utility.yul\":13068:13135   */\n      tag_141\n      jump\t// in\n    tag_291:\n        /* \"#utility.yul\":13061:13135   */\n      swap2\n      pop\n        /* \"#utility.yul\":13144:13237   */\n      tag_292\n        /* \"#utility.yul\":13233:13236   */\n      dup3\n        /* \"#utility.yul\":13144:13237   */\n      tag_174\n      jump\t// in\n    tag_292:\n        /* \"#utility.yul\":13262:13264   */\n      0x40\n        /* \"#utility.yul\":13257:13260   */\n      dup3\n        /* \"#utility.yul\":13253:13265   */\n      add\n        /* \"#utility.yul\":13246:13265   */\n      swap1\n      pop\n        /* \"#utility.yul\":12905:13271   */\n      swap2\n      swap1\n      pop\n      jump\t// out\n        /* \"#utility.yul\":13277:13696   */\n    tag_134:\n        /* \"#utility.yul\":13443:13447   */\n      0x00\n        /* \"#utility.yul\":13481:13483   */\n      0x20\n        /* \"#utility.yul\":13470:13479   */\n      dup3\n        /* \"#utility.yul\":13466:13484   */\n      add\n        /* \"#utility.yul\":13458:13484   */\n      swap1\n      pop\n        /* \"#utility.yul\":13530:13539   */\n      dup2\n        /* \"#utility.yul\":13524:13528   */\n      dup2\n        /* \"#utility.yul\":13520:13540   */\n      sub\n        /* \"#utility.yul\":13516:13517   */\n      0x00\n        /* \"#utility.yul\":13505:13514   */\n      dup4\n        /* \"#utility.yul\":13501:13518   */\n      add\n        /* \"#utility.yul\":13494:13541   */\n      mstore\n        /* \"#utility.yul\":13558:13689   */\n      tag_294\n        /* \"#utility.yul\":13684:13688   */\n      dup2\n        /* \"#utility.yul\":13558:13689   */\n      tag_175\n      jump\t// in\n    tag_294:\n        /* \"#utility.yul\":13550:13689   */\n      swap1\n      pop\n        /* \"#utility.yul\":13277:13696   */\n      swap2\n      swap1\n      pop\n      jump\t// out\n\n    auxdata: 0xa2646970667358221220e0b10f25c71f9d275564eed34aa1f61a8bd47f56ec0d0f4ea6c7a13a75a9c01d64736f6c63430008110033\n}\n",
				"bytecode": {
					"linkReferences": {},
					"object": "60806040523480156200001157600080fd5b50604051620017ec380380620017ec8339818101604052810190620000379190620001f6565b8160039081620000489190620004c6565b5080600490816200005a9190620004c6565b505050620005ad565b6000604051905090565b600080fd5b600080fd5b600080fd5b600080fd5b6000601f19601f8301169050919050565b7f4e487b7100000000000000000000000000000000000000000000000000000000600052604160045260246000fd5b620000cc8262000081565b810181811067ffffffffffffffff82111715620000ee57620000ed62000092565b5b80604052505050565b60006200010362000063565b9050620001118282620000c1565b919050565b600067ffffffffffffffff82111562000134576200013362000092565b5b6200013f8262000081565b9050602081019050919050565b60005b838110156200016c5780820151818401526020810190506200014f565b60008484015250505050565b60006200018f620001898462000116565b620000f7565b905082815260208101848484011115620001ae57620001ad6200007c565b5b620001bb8482856200014c565b509392505050565b600082601f830112620001db57620001da62000077565b5b8151620001ed84826020860162000178565b91505092915050565b6000806040838503121562000210576200020f6200006d565b5b600083015167ffffffffffffffff81111562000231576200023062000072565b5b6200023f85828601620001c3565b925050602083015167ffffffffffffffff81111562000263576200026262000072565b5b6200027185828601620001c3565b9150509250929050565b600081519050919050565b7f4e487b7100000000000000000000000000000000000000000000000000000000600052602260045260246000fd5b60006002820490506001821680620002ce57607f821691505b602082108103620002e457620002e362000286565b5b50919050565b60008190508160005260206000209050919050565b60006020601f8301049050919050565b600082821b905092915050565b6000600883026200034e7fffffffffffffffffffffffffffffffffffffffffffffffffffffffffffffffff826200030f565b6200035a86836200030f565b95508019841693508086168417925050509392505050565b6000819050919050565b6000819050919050565b6000620003a7620003a16200039b8462000372565b6200037c565b62000372565b9050919050565b6000819050919050565b620003c38362000386565b620003db620003d282620003ae565b8484546200031c565b825550505050565b600090565b620003f2620003e3565b620003ff818484620003b8565b505050565b5b8181101562000427576200041b600082620003e8565b60018101905062000405565b5050565b601f82111562000476576200044081620002ea565b6200044b84620002ff565b810160208510156200045b578190505b620004736200046a85620002ff565b83018262000404565b50505b505050565b600082821c905092915050565b60006200049b600019846008026200047b565b1980831691505092915050565b6000620004b6838362000488565b9150826002028217905092915050565b620004d1826200027b565b67ffffffffffffffff811115620004ed57620004ec62000092565b5b620004f98254620002b5565b620005068282856200042b565b600060209050601f8311600181146200053e576000841562000529578287015190505b620005358582620004a8565b865550620005a5565b601f1984166200054e86620002ea565b60005b82811015620005785784890151825560018201915060208501945060208101905062000551565b8683101562000598578489015162000594601f89168262000488565b8355505b6001600288020188555050505b505050505050565b61122f80620005bd6000396000f3fe608060405234801561001057600080fd5b50600436106100a95760003560e01c80633950935111610071578063395093511461016857806370a082311461019857806395d89b41146101c8578063a457c2d7146101e6578063a9059cbb14610216578063dd62ed3e14610246576100a9565b806306fdde03146100ae578063095ea7b3146100cc57806318160ddd146100fc57806323b872dd1461011a578063313ce5671461014a575b600080fd5b6100b6610276565b6040516100c39190610b0c565b60405180910390f35b6100e660048036038101906100e19190610bc7565b610308565b6040516100f39190610c22565b60405180910390f35b61010461032b565b6040516101119190610c4c565b60405180910390f35b610134600480360381019061012f9190610c67565b610335565b6040516101419190610c22565b60405180910390f35b610152610364565b60405161015f9190610cd6565b60405180910390f35b610182600480360381019061017d9190610bc7565b61036d565b60405161018f9190610c22565b60405180910390f35b6101b260048036038101906101ad9190610cf1565b6103a4565b6040516101bf9190610c4c565b60405180910390f35b6101d06103ec565b6040516101dd9190610b0c565b60405180910390f35b61020060048036038101906101fb9190610bc7565b61047e565b60405161020d9190610c22565b60405180910390f35b610230600480360381019061022b9190610bc7565b6104f5565b60405161023d9190610c22565b60405180910390f35b610260600480360381019061025b9190610d1e565b610518565b60405161026d9190610c4c565b60405180910390f35b60606003805461028590610d8d565b80601f01602080910402602001604051908101604052809291908181526020018280546102b190610d8d565b80156102fe5780601f106102d3576101008083540402835291602001916102fe565b820191906000526020600020905b8154815290600101906020018083116102e157829003601f168201915b5050505050905090565b60008061031361059f565b90506103208185856105a7565b600191505092915050565b6000600254905090565b60008061034061059f565b905061034d858285610770565b6103588585856107fc565b60019150509392505050565b60006012905090565b60008061037861059f565b905061039981858561038a8589610518565b6103949190610ded565b6105a7565b600191505092915050565b60008060008373ffffffffffffffffffffffffffffffffffffffff1673ffffffffffffffffffffffffffffffffffffffff168152602001908152602001600020549050919050565b6060600480546103fb90610d8d565b80601f016020809104026020016040519081016040528092919081815260200182805461042790610d8d565b80156104745780601f1061044957610100808354040283529160200191610474565b820191906000526020600020905b81548152906001019060200180831161045757829003601f168201915b5050505050905090565b60008061048961059f565b905060006104978286610518565b9050838110156104dc576040517f08c379a00000000000000000000000000000000000000000000000000000000081526004016104d390610e93565b60405180910390fd5b6104e982868684036105a7565b60019250505092915050565b60008061050061059f565b905061050d8185856107fc565b600191505092915050565b6000600160008473ffffffffffffffffffffffffffffffffffffffff1673ffffffffffffffffffffffffffffffffffffffff16815260200190815260200160002060008373ffffffffffffffffffffffffffffffffffffffff1673ffffffffffffffffffffffffffffffffffffffff16815260200190815260200160002054905092915050565b600033905090565b600073ffffffffffffffffffffffffffffffffffffffff168373ffffffffffffffffffffffffffffffffffffffff1603610616576040517f08c379a000000000000000000000000000000000000000000000000000000000815260040161060d90610f25565b60405180910390fd5b600073ffffffffffffffffffffffffffffffffffffffff168273ffffffffffffffffffffffffffffffffffffffff1603610685576040517f08c379a000000000000000000000000000000000000000000000000000000000815260040161067c90610fb7565b60405180910390fd5b80600160008573ffffffffffffffffffffffffffffffffffffffff1673ffffffffffffffffffffffffffffffffffffffff16815260200190815260200160002060008473ffffffffffffffffffffffffffffffffffffffff1673ffffffffffffffffffffffffffffffffffffffff168152602001908152602001600020819055508173ffffffffffffffffffffffffffffffffffffffff168373ffffffffffffffffffffffffffffffffffffffff167f8c5be1e5ebec7d5bd14f71427d1e84f3dd0314c0f7b2291e5b200ac8c7c3b925836040516107639190610c4c565b60405180910390a3505050565b600061077c8484610518565b90507fffffffffffffffffffffffffffffffffffffffffffffffffffffffffffffffff81146107f657818110156107e8576040517f08c379a00000000000000000000000000000000000000000000000000000000081526004016107df90611023565b60405180910390fd5b6107f584848484036105a7565b5b50505050565b600073ffffffffffffffffffffffffffffffffffffffff168373ffffffffffffffffffffffffffffffffffffffff160361086b576040517f08c379a0000000000000000000000000000000000000000000000000000000008152600401610862906110b5565b60405180910390fd5b600073ffffffffffffffffffffffffffffffffffffffff168273ffffffffffffffffffffffffffffffffffffffff16036108da576040517f08c379a00000000000000000000000000000000000000000000000000000000081526004016108d190611147565b60405180910390fd5b6108e5838383610a72565b60008060008573ffffffffffffffffffffffffffffffffffffffff1673ffffffffffffffffffffffffffffffffffffffff1681526020019081526020016000205490508181101561096b576040517f08c379a0000000000000000000000000000000000000000000000000000000008152600401610962906111d9565b60405180910390fd5b8181036000808673ffffffffffffffffffffffffffffffffffffffff1673ffffffffffffffffffffffffffffffffffffffff16815260200190815260200160002081905550816000808573ffffffffffffffffffffffffffffffffffffffff1673ffffffffffffffffffffffffffffffffffffffff168152602001908152602001600020600082825401925050819055508273ffffffffffffffffffffffffffffffffffffffff168473ffffffffffffffffffffffffffffffffffffffff167fddf252ad1be2c89b69c2b068fc378daa952ba7f163c4a11628f55a4df523b3ef84604051610a599190610c4c565b60405180910390a3610a6c848484610a77565b50505050565b505050565b505050565b600081519050919050565b600082825260208201905092915050565b60005b83811015610ab6578082015181840152602081019050610a9b565b60008484015250505050565b6000601f19601f8301169050919050565b6000610ade82610a7c565b610ae88185610a87565b9350610af8818560208601610a98565b610b0181610ac2565b840191505092915050565b60006020820190508181036000830152610b268184610ad3565b905092915050565b600080fd5b600073ffffffffffffffffffffffffffffffffffffffff82169050919050565b6000610b5e82610b33565b9050919050565b610b6e81610b53565b8114610b7957600080fd5b50565b600081359050610b8b81610b65565b92915050565b6000819050919050565b610ba481610b91565b8114610baf57600080fd5b50565b600081359050610bc181610b9b565b92915050565b60008060408385031215610bde57610bdd610b2e565b5b6000610bec85828601610b7c565b9250506020610bfd85828601610bb2565b9150509250929050565b60008115159050919050565b610c1c81610c07565b82525050565b6000602082019050610c376000830184610c13565b92915050565b610c4681610b91565b82525050565b6000602082019050610c616000830184610c3d565b92915050565b600080600060608486031215610c8057610c7f610b2e565b5b6000610c8e86828701610b7c565b9350506020610c9f86828701610b7c565b9250506040610cb086828701610bb2565b9150509250925092565b600060ff82169050919050565b610cd081610cba565b82525050565b6000602082019050610ceb6000830184610cc7565b92915050565b600060208284031215610d0757610d06610b2e565b5b6000610d1584828501610b7c565b91505092915050565b60008060408385031215610d3557610d34610b2e565b5b6000610d4385828601610b7c565b9250506020610d5485828601610b7c565b9150509250929050565b7f4e487b7100000000000000000000000000000000000000000000000000000000600052602260045260246000fd5b60006002820490506001821680610da557607f821691505b602082108103610db857610db7610d5e565b5b50919050565b7f4e487b7100000000000000000000000000000000000000000000000000000000600052601160045260246000fd5b6000610df882610b91565b9150610e0383610b91565b9250828201905080821115610e1b57610e1a610dbe565b5b92915050565b7f45524332303a2064656372656173656420616c6c6f77616e63652062656c6f7760008201527f207a65726f000000000000000000000000000000000000000000000000000000602082015250565b6000610e7d602583610a87565b9150610e8882610e21565b604082019050919050565b60006020820190508181036000830152610eac81610e70565b9050919050565b7f45524332303a20617070726f76652066726f6d20746865207a65726f2061646460008201527f7265737300000000000000000000000000000000000000000000000000000000602082015250565b6000610f0f602483610a87565b9150610f1a82610eb3565b604082019050919050565b60006020820190508181036000830152610f3e81610f02565b9050919050565b7f45524332303a20617070726f766520746f20746865207a65726f20616464726560008201527f7373000000000000000000000000000000000000000000000000000000000000602082015250565b6000610fa1602283610a87565b9150610fac82610f45565b604082019050919050565b60006020820190508181036000830152610fd081610f94565b9050919050565b7f45524332303a20696e73756666696369656e7420616c6c6f77616e6365000000600082015250565b600061100d601d83610a87565b915061101882610fd7565b602082019050919050565b6000602082019050818103600083015261103c81611000565b9050919050565b7f45524332303a207472616e736665722066726f6d20746865207a65726f20616460008201527f6472657373000000000000000000000000000000000000000000000000000000602082015250565b600061109f602583610a87565b91506110aa82611043565b604082019050919050565b600060208201905081810360008301526110ce81611092565b9050919050565b7f45524332303a207472616e7366657220746f20746865207a65726f206164647260008201527f6573730000000000000000000000000000000000000000000000000000000000602082015250565b6000611131602383610a87565b915061113c826110d5565b604082019050919050565b6000602082019050818103600083015261116081611124565b9050919050565b7f45524332303a207472616e7366657220616d6f756e742065786365656473206260008201527f616c616e63650000000000000000000000000000000000000000000000000000602082015250565b60006111c3602683610a87565b91506111ce82611167565b604082019050919050565b600060208201905081810360008301526111f2816111b6565b905091905056fea2646970667358221220e0b10f25c71f9d275564eed34aa1f61a8bd47f56ec0d0f4ea6c7a13a75a9c01d64736f6c63430008110033",
					"opcodes": "PUSH1 0x80 PUSH1 0x40 MSTORE CALLVALUE DUP1 ISZERO PUSH3 0x11 JUMPI PUSH1 0x0 DUP1 REVERT JUMPDEST POP PUSH1 0x40 MLOAD PUSH3 0x17EC CODESIZE SUB DUP1 PUSH3 0x17EC DUP4 CODECOPY DUP2 DUP2 ADD PUSH1 0x40 MSTORE DUP2 ADD SWAP1 PUSH3 0x37 SWAP2 SWAP1 PUSH3 0x1F6 JUMP JUMPDEST DUP2 PUSH1 0x3 SWAP1 DUP2 PUSH3 0x48 SWAP2 SWAP1 PUSH3 0x4C6 JUMP JUMPDEST POP DUP1 PUSH1 0x4 SWAP1 DUP2 PUSH3 0x5A SWAP2 SWAP1 PUSH3 0x4C6 JUMP JUMPDEST POP POP POP PUSH3 0x5AD JUMP JUMPDEST PUSH1 0x0 PUSH1 0x40 MLOAD SWAP1 POP SWAP1 JUMP JUMPDEST PUSH1 0x0 DUP1 REVERT JUMPDEST PUSH1 0x0 DUP1 REVERT JUMPDEST PUSH1 0x0 DUP1 REVERT JUMPDEST PUSH1 0x0 DUP1 REVERT JUMPDEST PUSH1 0x0 PUSH1 0x1F NOT PUSH1 0x1F DUP4 ADD AND SWAP1 POP SWAP2 SWAP1 POP JUMP JUMPDEST PUSH32 0x4E487B7100000000000000000000000000000000000000000000000000000000 PUSH1 0x0 MSTORE PUSH1 0x41 PUSH1 0x4 MSTORE PUSH1 0x24 PUSH1 0x0 REVERT JUMPDEST PUSH3 0xCC DUP3 PUSH3 0x81 JUMP JUMPDEST DUP2 ADD DUP2 DUP2 LT PUSH8 0xFFFFFFFFFFFFFFFF DUP3 GT OR ISZERO PUSH3 0xEE JUMPI PUSH3 0xED PUSH3 0x92 JUMP JUMPDEST JUMPDEST DUP1 PUSH1 0x40 MSTORE POP POP POP JUMP JUMPDEST PUSH1 0x0 PUSH3 0x103 PUSH3 0x63 JUMP JUMPDEST SWAP1 POP PUSH3 0x111 DUP3 DUP3 PUSH3 0xC1 JUMP JUMPDEST SWAP2 SWAP1 POP JUMP JUMPDEST PUSH1 0x0 PUSH8 0xFFFFFFFFFFFFFFFF DUP3 GT ISZERO PUSH3 0x134 JUMPI PUSH3 0x133 PUSH3 0x92 JUMP JUMPDEST JUMPDEST PUSH3 0x13F DUP3 PUSH3 0x81 JUMP JUMPDEST SWAP1 POP PUSH1 0x20 DUP2 ADD SWAP1 POP SWAP2 SWAP1 POP JUMP JUMPDEST PUSH1 0x0 JUMPDEST DUP4 DUP2 LT ISZERO PUSH3 0x16C JUMPI DUP1 DUP3 ADD MLOAD DUP2 DUP5 ADD MSTORE PUSH1 0x20 DUP2 ADD SWAP1 POP PUSH3 0x14F JUMP JUMPDEST PUSH1 0x0 DUP5 DUP5 ADD MSTORE POP POP POP POP JUMP JUMPDEST PUSH1 0x0 PUSH3 0x18F PUSH3 0x189 DUP5 PUSH3 0x116 JUMP JUMPDEST PUSH3 0xF7 JUMP JUMPDEST SWAP1 POP DUP3 DUP2 MSTORE PUSH1 0x20 DUP2 ADD DUP5 DUP5 DUP5 ADD GT ISZERO PUSH3 0x1AE JUMPI PUSH3 0x1AD PUSH3 0x7C JUMP JUMPDEST JUMPDEST PUSH3 0x1BB DUP5 DUP3 DUP6 PUSH3 0x14C JUMP JUMPDEST POP SWAP4 SWAP3 POP POP POP JUMP JUMPDEST PUSH1 0x0 DUP3 PUSH1 0x1F DUP4 ADD SLT PUSH3 0x1DB JUMPI PUSH3 0x1DA PUSH3 0x77 JUMP JUMPDEST JUMPDEST DUP2 MLOAD PUSH3 0x1ED DUP5 DUP3 PUSH1 0x20 DUP7 ADD PUSH3 0x178 JUMP JUMPDEST SWAP2 POP POP SWAP3 SWAP2 POP POP JUMP JUMPDEST PUSH1 0x0 DUP1 PUSH1 0x40 DUP4 DUP6 SUB SLT ISZERO PUSH3 0x210 JUMPI PUSH3 0x20F PUSH3 0x6D JUMP JUMPDEST JUMPDEST PUSH1 0x0 DUP4 ADD MLOAD PUSH8 0xFFFFFFFFFFFFFFFF DUP2 GT ISZERO PUSH3 0x231 JUMPI PUSH3 0x230 PUSH3 0x72 JUMP JUMPDEST JUMPDEST PUSH3 0x23F DUP6 DUP3 DUP7 ADD PUSH3 0x1C3 JUMP JUMPDEST SWAP3 POP POP PUSH1 0x20 DUP4 ADD MLOAD PUSH8 0xFFFFFFFFFFFFFFFF DUP2 GT ISZERO PUSH3 0x263 JUMPI PUSH3 0x262 PUSH3 0x72 JUMP JUMPDEST JUMPDEST PUSH3 0x271 DUP6 DUP3 DUP7 ADD PUSH3 0x1C3 JUMP JUMPDEST SWAP2 POP POP SWAP3 POP SWAP3 SWAP1 POP JUMP JUMPDEST PUSH1 0x0 DUP2 MLOAD SWAP1 POP SWAP2 SWAP1 POP JUMP JUMPDEST PUSH32 0x4E487B7100000000000000000000000000000000000000000000000000000000 PUSH1 0x0 MSTORE PUSH1 0x22 PUSH1 0x4 MSTORE PUSH1 0x24 PUSH1 0x0 REVERT JUMPDEST PUSH1 0x0 PUSH1 0x2 DUP3 DIV SWAP1 POP PUSH1 0x1 DUP3 AND DUP1 PUSH3 0x2CE JUMPI PUSH1 0x7F DUP3 AND SWAP2 POP JUMPDEST PUSH1 0x20 DUP3 LT DUP2 SUB PUSH3 0x2E4 JUMPI PUSH3 0x2E3 PUSH3 0x286 JUMP JUMPDEST JUMPDEST POP SWAP2 SWAP1 POP JUMP JUMPDEST PUSH1 0x0 DUP2 SWAP1 POP DUP2 PUSH1 0x0 MSTORE PUSH1 0x20 PUSH1 0x0 KECCAK256 SWAP1 POP SWAP2 SWAP1 POP JUMP JUMPDEST PUSH1 0x0 PUSH1 0x20 PUSH1 0x1F DUP4 ADD DIV SWAP1 POP SWAP2 SWAP1 POP JUMP JUMPDEST PUSH1 0x0 DUP3 DUP3 SHL SWAP1 POP SWAP3 SWAP2 POP POP JUMP JUMPDEST PUSH1 0x0 PUSH1 0x8 DUP4 MUL PUSH3 0x34E PUSH32 0xFFFFFFFFFFFFFFFFFFFFFFFFFFFFFFFFFFFFFFFFFFFFFFFFFFFFFFFFFFFFFFFF DUP3 PUSH3 0x30F JUMP JUMPDEST PUSH3 0x35A DUP7 DUP4 PUSH3 0x30F JUMP JUMPDEST SWAP6 POP DUP1 NOT DUP5 AND SWAP4 POP DUP1 DUP7 AND DUP5 OR SWAP3 POP POP POP SWAP4 SWAP3 POP POP POP JUMP JUMPDEST PUSH1 0x0 DUP2 SWAP1 POP SWAP2 SWAP1 POP JUMP JUMPDEST PUSH1 0x0 DUP2 SWAP1 POP SWAP2 SWAP1 POP JUMP JUMPDEST PUSH1 0x0 PUSH3 0x3A7 PUSH3 0x3A1 PUSH3 0x39B DUP5 PUSH3 0x372 JUMP JUMPDEST PUSH3 0x37C JUMP JUMPDEST PUSH3 0x372 JUMP JUMPDEST SWAP1 POP SWAP2 SWAP1 POP JUMP JUMPDEST PUSH1 0x0 DUP2 SWAP1 POP SWAP2 SWAP1 POP JUMP JUMPDEST PUSH3 0x3C3 DUP4 PUSH3 0x386 JUMP JUMPDEST PUSH3 0x3DB PUSH3 0x3D2 DUP3 PUSH3 0x3AE JUMP JUMPDEST DUP5 DUP5 SLOAD PUSH3 0x31C JUMP JUMPDEST DUP3 SSTORE POP POP POP POP JUMP JUMPDEST PUSH1 0x0 SWAP1 JUMP JUMPDEST PUSH3 0x3F2 PUSH3 0x3E3 JUMP JUMPDEST PUSH3 0x3FF DUP2 DUP5 DUP5 PUSH3 0x3B8 JUMP JUMPDEST POP POP POP JUMP JUMPDEST JUMPDEST DUP2 DUP2 LT ISZERO PUSH3 0x427 JUMPI PUSH3 0x41B PUSH1 0x0 DUP3 PUSH3 0x3E8 JUMP JUMPDEST PUSH1 0x1 DUP2 ADD SWAP1 POP PUSH3 0x405 JUMP JUMPDEST POP POP JUMP JUMPDEST PUSH1 0x1F DUP3 GT ISZERO PUSH3 0x476 JUMPI PUSH3 0x440 DUP2 PUSH3 0x2EA JUMP JUMPDEST PUSH3 0x44B DUP5 PUSH3 0x2FF JUMP JUMPDEST DUP2 ADD PUSH1 0x20 DUP6 LT ISZERO PUSH3 0x45B JUMPI DUP2 SWAP1 POP JUMPDEST PUSH3 0x473 PUSH3 0x46A DUP6 PUSH3 0x2FF JUMP JUMPDEST DUP4 ADD DUP3 PUSH3 0x404 JUMP JUMPDEST POP POP JUMPDEST POP POP POP JUMP JUMPDEST PUSH1 0x0 DUP3 DUP3 SHR SWAP1 POP SWAP3 SWAP2 POP POP JUMP JUMPDEST PUSH1 0x0 PUSH3 0x49B PUSH1 0x0 NOT DUP5 PUSH1 0x8 MUL PUSH3 0x47B JUMP JUMPDEST NOT DUP1 DUP4 AND SWAP2 POP POP SWAP3 SWAP2 POP POP JUMP JUMPDEST PUSH1 0x0 PUSH3 0x4B6 DUP4 DUP4 PUSH3 0x488 JUMP JUMPDEST SWAP2 POP DUP3 PUSH1 0x2 MUL DUP3 OR SWAP1 POP SWAP3 SWAP2 POP POP JUMP JUMPDEST PUSH3 0x4D1 DUP3 PUSH3 0x27B JUMP JUMPDEST PUSH8 0xFFFFFFFFFFFFFFFF DUP2 GT ISZERO PUSH3 0x4ED JUMPI PUSH3 0x4EC PUSH3 0x92 JUMP JUMPDEST JUMPDEST PUSH3 0x4F9 DUP3 SLOAD PUSH3 0x2B5 JUMP JUMPDEST PUSH3 0x506 DUP3 DUP3 DUP6 PUSH3 0x42B JUMP JUMPDEST PUSH1 0x0 PUSH1 0x20 SWAP1 POP PUSH1 0x1F DUP4 GT PUSH1 0x1 DUP2 EQ PUSH3 0x53E JUMPI PUSH1 0x0 DUP5 ISZERO PUSH3 0x529 JUMPI DUP3 DUP8 ADD MLOAD SWAP1 POP JUMPDEST PUSH3 0x535 DUP6 DUP3 PUSH3 0x4A8 JUMP JUMPDEST DUP7 SSTORE POP PUSH3 0x5A5 JUMP JUMPDEST PUSH1 0x1F NOT DUP5 AND PUSH3 0x54E DUP7 PUSH3 0x2EA JUMP JUMPDEST PUSH1 0x0 JUMPDEST DUP3 DUP2 LT ISZERO PUSH3 0x578 JUMPI DUP5 DUP10 ADD MLOAD DUP3 SSTORE PUSH1 0x1 DUP3 ADD SWAP2 POP PUSH1 0x20 DUP6 ADD SWAP5 POP PUSH1 0x20 DUP2 ADD SWAP1 POP PUSH3 0x551 JUMP JUMPDEST DUP7 DUP4 LT ISZERO PUSH3 0x598 JUMPI DUP5 DUP10 ADD MLOAD PUSH3 0x594 PUSH1 0x1F DUP10 AND DUP3 PUSH3 0x488 JUMP JUMPDEST DUP4 SSTORE POP JUMPDEST PUSH1 0x1 PUSH1 0x2 DUP9 MUL ADD DUP9 SSTORE POP POP POP JUMPDEST POP POP POP POP POP POP JUMP JUMPDEST PUSH2 0x122F DUP1 PUSH3 0x5BD PUSH1 0x0 CODECOPY PUSH1 0x0 RETURN INVALID PUSH1 0x80 PUSH1 0x40 MSTORE CALLVALUE DUP1 ISZERO PUSH2 0x10 JUMPI PUSH1 0x0 DUP1 REVERT JUMPDEST POP PUSH1 0x4 CALLDATASIZE LT PUSH2 0xA9 JUMPI PUSH1 0x0 CALLDATALOAD PUSH1 0xE0 SHR DUP1 PUSH4 0x39509351 GT PUSH2 0x71 JUMPI DUP1 PUSH4 0x39509351 EQ PUSH2 0x168 JUMPI DUP1 PUSH4 0x70A08231 EQ PUSH2 0x198 JUMPI DUP1 PUSH4 0x95D89B41 EQ PUSH2 0x1C8 JUMPI DUP1 PUSH4 0xA457C2D7 EQ PUSH2 0x1E6 JUMPI DUP1 PUSH4 0xA9059CBB EQ PUSH2 0x216 JUMPI DUP1 PUSH4 0xDD62ED3E EQ PUSH2 0x246 JUMPI PUSH2 0xA9 JUMP JUMPDEST DUP1 PUSH4 0x6FDDE03 EQ PUSH2 0xAE JUMPI DUP1 PUSH4 0x95EA7B3 EQ PUSH2 0xCC JUMPI DUP1 PUSH4 0x18160DDD EQ PUSH2 0xFC JUMPI DUP1 PUSH4 0x23B872DD EQ PUSH2 0x11A JUMPI DUP1 PUSH4 0x313CE567 EQ PUSH2 0x14A JUMPI JUMPDEST PUSH1 0x0 DUP1 REVERT JUMPDEST PUSH2 0xB6 PUSH2 0x276 JUMP JUMPDEST PUSH1 0x40 MLOAD PUSH2 0xC3 SWAP2 SWAP1 PUSH2 0xB0C JUMP JUMPDEST PUSH1 0x40 MLOAD DUP1 SWAP2 SUB SWAP1 RETURN JUMPDEST PUSH2 0xE6 PUSH1 0x4 DUP1 CALLDATASIZE SUB DUP2 ADD SWAP1 PUSH2 0xE1 SWAP2 SWAP1 PUSH2 0xBC7 JUMP JUMPDEST PUSH2 0x308 JUMP JUMPDEST PUSH1 0x40 MLOAD PUSH2 0xF3 SWAP2 SWAP1 PUSH2 0xC22 JUMP JUMPDEST PUSH1 0x40 MLOAD DUP1 SWAP2 SUB SWAP1 RETURN JUMPDEST PUSH2 0x104 PUSH2 0x32B JUMP JUMPDEST PUSH1 0x40 MLOAD PUSH2 0x111 SWAP2 SWAP1 PUSH2 0xC4C JUMP JUMPDEST PUSH1 0x40 MLOAD DUP1 SWAP2 SUB SWAP1 RETURN JUMPDEST PUSH2 0x134 PUSH1 0x4 DUP1 CALLDATASIZE SUB DUP2 ADD SWAP1 PUSH2 0x12F SWAP2 SWAP1 PUSH2 0xC67 JUMP JUMPDEST PUSH2 0x335 JUMP JUMPDEST PUSH1 0x40 MLOAD PUSH2 0x141 SWAP2 SWAP1 PUSH2 0xC22 JUMP JUMPDEST PUSH1 0x40 MLOAD DUP1 SWAP2 SUB SWAP1 RETURN JUMPDEST PUSH2 0x152 PUSH2 0x364 JUMP JUMPDEST PUSH1 0x40 MLOAD PUSH2 0x15F SWAP2 SWAP1 PUSH2 0xCD6 JUMP JUMPDEST PUSH1 0x40 MLOAD DUP1 SWAP2 SUB SWAP1 RETURN JUMPDEST PUSH2 0x182 PUSH1 0x4 DUP1 CALLDATASIZE SUB DUP2 ADD SWAP1 PUSH2 0x17D SWAP2 SWAP1 PUSH2 0xBC7 JUMP JUMPDEST PUSH2 0x36D JUMP JUMPDEST PUSH1 0x40 MLOAD PUSH2 0x18F SWAP2 SWAP1 PUSH2 0xC22 JUMP JUMPDEST PUSH1 0x40 MLOAD DUP1 SWAP2 SUB SWAP1 RETURN JUMPDEST PUSH2 0x1B2 PUSH1 0x4 DUP1 CALLDATASIZE SUB DUP2 ADD SWAP1 PUSH2 0x1AD SWAP2 SWAP1 PUSH2 0xCF1 JUMP JUMPDEST PUSH2 0x3A4 JUMP JUMPDEST PUSH1 0x40 MLOAD PUSH2 0x1BF SWAP2 SWAP1 PUSH2 0xC4C JUMP JUMPDEST PUSH1 0x40 MLOAD DUP1 SWAP2 SUB SWAP1 RETURN JUMPDEST PUSH2 0x1D0 PUSH2 0x3EC JUMP JUMPDEST PUSH1 0x40 MLOAD PUSH2 0x1DD SWAP2 SWAP1 PUSH2 0xB0C JUMP JUMPDEST PUSH1 0x40 MLOAD DUP1 SWAP2 SUB SWAP1 RETURN JUMPDEST PUSH2 0x200 PUSH1 0x4 DUP1 CALLDATASIZE SUB DUP2 ADD SWAP1 PUSH2 0x1FB SWAP2 SWAP1 PUSH2 0xBC7 JUMP JUMPDEST PUSH2 0x47E JUMP JUMPDEST PUSH1 0x40 MLOAD PUSH2 0x20D SWAP2 SWAP1 PUSH2 0xC22 JUMP JUMPDEST PUSH1 0x40 MLOAD DUP1 SWAP2 SUB SWAP1 RETURN JUMPDEST PUSH2 0x230 PUSH1 0x4 DUP1 CALLDATASIZE SUB DUP2 ADD SWAP1 PUSH2 0x22B SWAP2 SWAP1 PUSH2 0xBC7 JUMP JUMPDEST PUSH2 0x4F5 JUMP JUMPDEST PUSH1 0x40 MLOAD PUSH2 0x23D SWAP2 SWAP1 PUSH2 0xC22 JUMP JUMPDEST PUSH1 0x40 MLOAD DUP1 SWAP2 SUB SWAP1 RETURN JUMPDEST PUSH2 0x260 PUSH1 0x4 DUP1 CALLDATASIZE SUB DUP2 ADD SWAP1 PUSH2 0x25B SWAP2 SWAP1 PUSH2 0xD1E JUMP JUMPDEST PUSH2 0x518 JUMP JUMPDEST PUSH1 0x40 MLOAD PUSH2 0x26D SWAP2 SWAP1 PUSH2 0xC4C JUMP JUMPDEST PUSH1 0x40 MLOAD DUP1 SWAP2 SUB SWAP1 RETURN JUMPDEST PUSH1 0x60 PUSH1 0x3 DUP1 SLOAD PUSH2 0x285 SWAP1 PUSH2 0xD8D JUMP JUMPDEST DUP1 PUSH1 0x1F ADD PUSH1 0x20 DUP1 SWAP2 DIV MUL PUSH1 0x20 ADD PUSH1 0x40 MLOAD SWAP1 DUP2 ADD PUSH1 0x40 MSTORE DUP1 SWAP3 SWAP2 SWAP1 DUP2 DUP2 MSTORE PUSH1 0x20 ADD DUP3 DUP1 SLOAD PUSH2 0x2B1 SWAP1 PUSH2 0xD8D JUMP JUMPDEST DUP1 ISZERO PUSH2 0x2FE JUMPI DUP1 PUSH1 0x1F LT PUSH2 0x2D3 JUMPI PUSH2 0x100 DUP1 DUP4 SLOAD DIV MUL DUP4 MSTORE SWAP2 PUSH1 0x20 ADD SWAP2 PUSH2 0x2FE JUMP JUMPDEST DUP3 ADD SWAP2 SWAP1 PUSH1 0x0 MSTORE PUSH1 0x20 PUSH1 0x0 KECCAK256 SWAP1 JUMPDEST DUP2 SLOAD DUP2 MSTORE SWAP1 PUSH1 0x1 ADD SWAP1 PUSH1 0x20 ADD DUP1 DUP4 GT PUSH2 0x2E1 JUMPI DUP3 SWAP1 SUB PUSH1 0x1F AND DUP3 ADD SWAP2 JUMPDEST POP POP POP POP POP SWAP1 POP SWAP1 JUMP JUMPDEST PUSH1 0x0 DUP1 PUSH2 0x313 PUSH2 0x59F JUMP JUMPDEST SWAP1 POP PUSH2 0x320 DUP2 DUP6 DUP6 PUSH2 0x5A7 JUMP JUMPDEST PUSH1 0x1 SWAP2 POP POP SWAP3 SWAP2 POP POP JUMP JUMPDEST PUSH1 0x0 PUSH1 0x2 SLOAD SWAP1 POP SWAP1 JUMP JUMPDEST PUSH1 0x0 DUP1 PUSH2 0x340 PUSH2 0x59F JUMP JUMPDEST SWAP1 POP PUSH2 0x34D DUP6 DUP3 DUP6 PUSH2 0x770 JUMP JUMPDEST PUSH2 0x358 DUP6 DUP6 DUP6 PUSH2 0x7FC JUMP JUMPDEST PUSH1 0x1 SWAP2 POP POP SWAP4 SWAP3 POP POP POP JUMP JUMPDEST PUSH1 0x0 PUSH1 0x12 SWAP1 POP SWAP1 JUMP JUMPDEST PUSH1 0x0 DUP1 PUSH2 0x378 PUSH2 0x59F JUMP JUMPDEST SWAP1 POP PUSH2 0x399 DUP2 DUP6 DUP6 PUSH2 0x38A DUP6 DUP10 PUSH2 0x518 JUMP JUMPDEST PUSH2 0x394 SWAP2 SWAP1 PUSH2 0xDED JUMP JUMPDEST PUSH2 0x5A7 JUMP JUMPDEST PUSH1 0x1 SWAP2 POP POP SWAP3 SWAP2 POP POP JUMP JUMPDEST PUSH1 0x0 DUP1 PUSH1 0x0 DUP4 PUSH20 0xFFFFFFFFFFFFFFFFFFFFFFFFFFFFFFFFFFFFFFFF AND PUSH20 0xFFFFFFFFFFFFFFFFFFFFFFFFFFFFFFFFFFFFFFFF AND DUP2 MSTORE PUSH1 0x20 ADD SWAP1 DUP2 MSTORE PUSH1 0x20 ADD PUSH1 0x0 KECCAK256 SLOAD SWAP1 POP SWAP2 SWAP1 POP JUMP JUMPDEST PUSH1 0x60 PUSH1 0x4 DUP1 SLOAD PUSH2 0x3FB SWAP1 PUSH2 0xD8D JUMP JUMPDEST DUP1 PUSH1 0x1F ADD PUSH1 0x20 DUP1 SWAP2 DIV MUL PUSH1 0x20 ADD PUSH1 0x40 MLOAD SWAP1 DUP2 ADD PUSH1 0x40 MSTORE DUP1 SWAP3 SWAP2 SWAP1 DUP2 DUP2 MSTORE PUSH1 0x20 ADD DUP3 DUP1 SLOAD PUSH2 0x427 SWAP1 PUSH2 0xD8D JUMP JUMPDEST DUP1 ISZERO PUSH2 0x474 JUMPI DUP1 PUSH1 0x1F LT PUSH2 0x449 JUMPI PUSH2 0x100 DUP1 DUP4 SLOAD DIV MUL DUP4 MSTORE SWAP2 PUSH1 0x20 ADD SWAP2 PUSH2 0x474 JUMP JUMPDEST DUP3 ADD SWAP2 SWAP1 PUSH1 0x0 MSTORE PUSH1 0x20 PUSH1 0x0 KECCAK256 SWAP1 JUMPDEST DUP2 SLOAD DUP2 MSTORE SWAP1 PUSH1 0x1 ADD SWAP1 PUSH1 0x20 ADD DUP1 DUP4 GT PUSH2 0x457 JUMPI DUP3 SWAP1 SUB PUSH1 0x1F AND DUP3 ADD SWAP2 JUMPDEST POP POP POP POP POP SWAP1 POP SWAP1 JUMP JUMPDEST PUSH1 0x0 DUP1 PUSH2 0x489 PUSH2 0x59F JUMP JUMPDEST SWAP1 POP PUSH1 0x0 PUSH2 0x497 DUP3 DUP7 PUSH2 0x518 JUMP JUMPDEST SWAP1 POP DUP4 DUP2 LT ISZERO PUSH2 0x4DC JUMPI PUSH1 0x40 MLOAD PUSH32 0x8C379A000000000000000000000000000000000000000000000000000000000 DUP2 MSTORE PUSH1 0x4 ADD PUSH2 0x4D3 SWAP1 PUSH2 0xE93 JUMP JUMPDEST PUSH1 0x40 MLOAD DUP1 SWAP2 SUB SWAP1 REVERT JUMPDEST PUSH2 0x4E9 DUP3 DUP7 DUP7 DUP5 SUB PUSH2 0x5A7 JUMP JUMPDEST PUSH1 0x1 SWAP3 POP POP POP SWAP3 SWAP2 POP POP JUMP JUMPDEST PUSH1 0x0 DUP1 PUSH2 0x500 PUSH2 0x59F JUMP JUMPDEST SWAP1 POP PUSH2 0x50D DUP2 DUP6 DUP6 PUSH2 0x7FC JUMP JUMPDEST PUSH1 0x1 SWAP2 POP POP SWAP3 SWAP2 POP POP JUMP JUMPDEST PUSH1 0x0 PUSH1 0x1 PUSH1 0x0 DUP5 PUSH20 0xFFFFFFFFFFFFFFFFFFFFFFFFFFFFFFFFFFFFFFFF AND PUSH20 0xFFFFFFFFFFFFFFFFFFFFFFFFFFFFFFFFFFFFFFFF AND DUP2 MSTORE PUSH1 0x20 ADD SWAP1 DUP2 MSTORE PUSH1 0x20 ADD PUSH1 0x0 KECCAK256 PUSH1 0x0 DUP4 PUSH20 0xFFFFFFFFFFFFFFFFFFFFFFFFFFFFFFFFFFFFFFFF AND PUSH20 0xFFFFFFFFFFFFFFFFFFFFFFFFFFFFFFFFFFFFFFFF AND DUP2 MSTORE PUSH1 0x20 ADD SWAP1 DUP2 MSTORE PUSH1 0x20 ADD PUSH1 0x0 KECCAK256 SLOAD SWAP1 POP SWAP3 SWAP2 POP POP JUMP JUMPDEST PUSH1 0x0 CALLER SWAP1 POP SWAP1 JUMP JUMPDEST PUSH1 0x0 PUSH20 0xFFFFFFFFFFFFFFFFFFFFFFFFFFFFFFFFFFFFFFFF AND DUP4 PUSH20 0xFFFFFFFFFFFFFFFFFFFFFFFFFFFFFFFFFFFFFFFF AND SUB PUSH2 0x616 JUMPI PUSH1 0x40 MLOAD PUSH32 0x8C379A000000000000000000000000000000000000000000000000000000000 DUP2 MSTORE PUSH1 0x4 ADD PUSH2 0x60D SWAP1 PUSH2 0xF25 JUMP JUMPDEST PUSH1 0x40 MLOAD DUP1 SWAP2 SUB SWAP1 REVERT JUMPDEST PUSH1 0x0 PUSH20 0xFFFFFFFFFFFFFFFFFFFFFFFFFFFFFFFFFFFFFFFF AND DUP3 PUSH20 0xFFFFFFFFFFFFFFFFFFFFFFFFFFFFFFFFFFFFFFFF AND SUB PUSH2 0x685 JUMPI PUSH1 0x40 MLOAD PUSH32 0x8C379A000000000000000000000000000000000000000000000000000000000 DUP2 MSTORE PUSH1 0x4 ADD PUSH2 0x67C SWAP1 PUSH2 0xFB7 JUMP JUMPDEST PUSH1 0x40 MLOAD DUP1 SWAP2 SUB SWAP1 REVERT JUMPDEST DUP1 PUSH1 0x1 PUSH1 0x0 DUP6 PUSH20 0xFFFFFFFFFFFFFFFFFFFFFFFFFFFFFFFFFFFFFFFF AND PUSH20 0xFFFFFFFFFFFFFFFFFFFFFFFFFFFFFFFFFFFFFFFF AND DUP2 MSTORE PUSH1 0x20 ADD SWAP1 DUP2 MSTORE PUSH1 0x20 ADD PUSH1 0x0 KECCAK256 PUSH1 0x0 DUP5 PUSH20 0xFFFFFFFFFFFFFFFFFFFFFFFFFFFFFFFFFFFFFFFF AND PUSH20 0xFFFFFFFFFFFFFFFFFFFFFFFFFFFFFFFFFFFFFFFF AND DUP2 MSTORE PUSH1 0x20 ADD SWAP1 DUP2 MSTORE PUSH1 0x20 ADD PUSH1 0x0 KECCAK256 DUP2 SWAP1 SSTORE POP DUP2 PUSH20 0xFFFFFFFFFFFFFFFFFFFFFFFFFFFFFFFFFFFFFFFF AND DUP4 PUSH20 0xFFFFFFFFFFFFFFFFFFFFFFFFFFFFFFFFFFFFFFFF AND PUSH32 0x8C5BE1E5EBEC7D5BD14F71427D1E84F3DD0314C0F7B2291E5B200AC8C7C3B925 DUP4 PUSH1 0x40 MLOAD PUSH2 0x763 SWAP2 SWAP1 PUSH2 0xC4C JUMP JUMPDEST PUSH1 0x40 MLOAD DUP1 SWAP2 SUB SWAP1 LOG3 POP POP POP JUMP JUMPDEST PUSH1 0x0 PUSH2 0x77C DUP5 DUP5 PUSH2 0x518 JUMP JUMPDEST SWAP1 POP PUSH32 0xFFFFFFFFFFFFFFFFFFFFFFFFFFFFFFFFFFFFFFFFFFFFFFFFFFFFFFFFFFFFFFFF DUP2 EQ PUSH2 0x7F6 JUMPI DUP2 DUP2 LT ISZERO PUSH2 0x7E8 JUMPI PUSH1 0x40 MLOAD PUSH32 0x8C379A000000000000000000000000000000000000000000000000000000000 DUP2 MSTORE PUSH1 0x4 ADD PUSH2 0x7DF SWAP1 PUSH2 0x1023 JUMP JUMPDEST PUSH1 0x40 MLOAD DUP1 SWAP2 SUB SWAP1 REVERT JUMPDEST PUSH2 0x7F5 DUP5 DUP5 DUP5 DUP5 SUB PUSH2 0x5A7 JUMP JUMPDEST JUMPDEST POP POP POP POP JUMP JUMPDEST PUSH1 0x0 PUSH20 0xFFFFFFFFFFFFFFFFFFFFFFFFFFFFFFFFFFFFFFFF AND DUP4 PUSH20 0xFFFFFFFFFFFFFFFFFFFFFFFFFFFFFFFFFFFFFFFF AND SUB PUSH2 0x86B JUMPI PUSH1 0x40 MLOAD PUSH32 0x8C379A000000000000000000000000000000000000000000000000000000000 DUP2 MSTORE PUSH1 0x4 ADD PUSH2 0x862 SWAP1 PUSH2 0x10B5 JUMP JUMPDEST PUSH1 0x40 MLOAD DUP1 SWAP2 SUB SWAP1 REVERT JUMPDEST PUSH1 0x0 PUSH20 0xFFFFFFFFFFFFFFFFFFFFFFFFFFFFFFFFFFFFFFFF AND DUP3 PUSH20 0xFFFFFFFFFFFFFFFFFFFFFFFFFFFFFFFFFFFFFFFF AND SUB PUSH2 0x8DA JUMPI PUSH1 0x40 MLOAD PUSH32 0x8C379A000000000000000000000000000000000000000000000000000000000 DUP2 MSTORE PUSH1 0x4 ADD PUSH2 0x8D1 SWAP1 PUSH2 0x1147 JUMP JUMPDEST PUSH1 0x40 MLOAD DUP1 SWAP2 SUB SWAP1 REVERT JUMPDEST PUSH2 0x8E5 DUP4 DUP4 DUP4 PUSH2 0xA72 JUMP JUMPDEST PUSH1 0x0 DUP1 PUSH1 0x0 DUP6 PUSH20 0xFFFFFFFFFFFFFFFFFFFFFFFFFFFFFFFFFFFFFFFF AND PUSH20 0xFFFFFFFFFFFFFFFFFFFFFFFFFFFFFFFFFFFFFFFF AND DUP2 MSTORE PUSH1 0x20 ADD SWAP1 DUP2 MSTORE PUSH1 0x20 ADD PUSH1 0x0 KECCAK256 SLOAD SWAP1 POP DUP2 DUP2 LT ISZERO PUSH2 0x96B JUMPI PUSH1 0x40 MLOAD PUSH32 0x8C379A000000000000000000000000000000000000000000000000000000000 DUP2 MSTORE PUSH1 0x4 ADD PUSH2 0x962 SWAP1 PUSH2 0x11D9 JUMP JUMPDEST PUSH1 0x40 MLOAD DUP1 SWAP2 SUB SWAP1 REVERT JUMPDEST DUP2 DUP2 SUB PUSH1 0x0 DUP1 DUP7 PUSH20 0xFFFFFFFFFFFFFFFFFFFFFFFFFFFFFFFFFFFFFFFF AND PUSH20 0xFFFFFFFFFFFFFFFFFFFFFFFFFFFFFFFFFFFFFFFF AND DUP2 MSTORE PUSH1 0x20 ADD SWAP1 DUP2 MSTORE PUSH1 0x20 ADD PUSH1 0x0 KECCAK256 DUP2 SWAP1 SSTORE POP DUP2 PUSH1 0x0 DUP1 DUP6 PUSH20 0xFFFFFFFFFFFFFFFFFFFFFFFFFFFFFFFFFFFFFFFF AND PUSH20 0xFFFFFFFFFFFFFFFFFFFFFFFFFFFFFFFFFFFFFFFF AND DUP2 MSTORE PUSH1 0x20 ADD SWAP1 DUP2 MSTORE PUSH1 0x20 ADD PUSH1 0x0 KECCAK256 PUSH1 0x0 DUP3 DUP3 SLOAD ADD SWAP3 POP POP DUP2 SWAP1 SSTORE POP DUP3 PUSH20 0xFFFFFFFFFFFFFFFFFFFFFFFFFFFFFFFFFFFFFFFF AND DUP5 PUSH20 0xFFFFFFFFFFFFFFFFFFFFFFFFFFFFFFFFFFFFFFFF AND PUSH32 0xDDF252AD1BE2C89B69C2B068FC378DAA952BA7F163C4A11628F55A4DF523B3EF DUP5 PUSH1 0x40 MLOAD PUSH2 0xA59 SWAP2 SWAP1 PUSH2 0xC4C JUMP JUMPDEST PUSH1 0x40 MLOAD DUP1 SWAP2 SUB SWAP1 LOG3 PUSH2 0xA6C DUP5 DUP5 DUP5 PUSH2 0xA77 JUMP JUMPDEST POP POP POP POP JUMP JUMPDEST POP POP POP JUMP JUMPDEST POP POP POP JUMP JUMPDEST PUSH1 0x0 DUP2 MLOAD SWAP1 POP SWAP2 SWAP1 POP JUMP JUMPDEST PUSH1 0x0 DUP3 DUP3 MSTORE PUSH1 0x20 DUP3 ADD SWAP1 POP SWAP3 SWAP2 POP POP JUMP JUMPDEST PUSH1 0x0 JUMPDEST DUP4 DUP2 LT ISZERO PUSH2 0xAB6 JUMPI DUP1 DUP3 ADD MLOAD DUP2 DUP5 ADD MSTORE PUSH1 0x20 DUP2 ADD SWAP1 POP PUSH2 0xA9B JUMP JUMPDEST PUSH1 0x0 DUP5 DUP5 ADD MSTORE POP POP POP POP JUMP JUMPDEST PUSH1 0x0 PUSH1 0x1F NOT PUSH1 0x1F DUP4 ADD AND SWAP1 POP SWAP2 SWAP1 POP JUMP JUMPDEST PUSH1 0x0 PUSH2 0xADE DUP3 PUSH2 0xA7C JUMP JUMPDEST PUSH2 0xAE8 DUP2 DUP6 PUSH2 0xA87 JUMP JUMPDEST SWAP4 POP PUSH2 0xAF8 DUP2 DUP6 PUSH1 0x20 DUP7 ADD PUSH2 0xA98 JUMP JUMPDEST PUSH2 0xB01 DUP2 PUSH2 0xAC2 JUMP JUMPDEST DUP5 ADD SWAP2 POP POP SWAP3 SWAP2 POP POP JUMP JUMPDEST PUSH1 0x0 PUSH1 0x20 DUP3 ADD SWAP1 POP DUP2 DUP2 SUB PUSH1 0x0 DUP4 ADD MSTORE PUSH2 0xB26 DUP2 DUP5 PUSH2 0xAD3 JUMP JUMPDEST SWAP1 POP SWAP3 SWAP2 POP POP JUMP JUMPDEST PUSH1 0x0 DUP1 REVERT JUMPDEST PUSH1 0x0 PUSH20 0xFFFFFFFFFFFFFFFFFFFFFFFFFFFFFFFFFFFFFFFF DUP3 AND SWAP1 POP SWAP2 SWAP1 POP JUMP JUMPDEST PUSH1 0x0 PUSH2 0xB5E DUP3 PUSH2 0xB33 JUMP JUMPDEST SWAP1 POP SWAP2 SWAP1 POP JUMP JUMPDEST PUSH2 0xB6E DUP2 PUSH2 0xB53 JUMP JUMPDEST DUP2 EQ PUSH2 0xB79 JUMPI PUSH1 0x0 DUP1 REVERT JUMPDEST POP JUMP JUMPDEST PUSH1 0x0 DUP2 CALLDATALOAD SWAP1 POP PUSH2 0xB8B DUP2 PUSH2 0xB65 JUMP JUMPDEST SWAP3 SWAP2 POP POP JUMP JUMPDEST PUSH1 0x0 DUP2 SWAP1 POP SWAP2 SWAP1 POP JUMP JUMPDEST PUSH2 0xBA4 DUP2 PUSH2 0xB91 JUMP JUMPDEST DUP2 EQ PUSH2 0xBAF JUMPI PUSH1 0x0 DUP1 REVERT JUMPDEST POP JUMP JUMPDEST PUSH1 0x0 DUP2 CALLDATALOAD SWAP1 POP PUSH2 0xBC1 DUP2 PUSH2 0xB9B JUMP JUMPDEST SWAP3 SWAP2 POP POP JUMP JUMPDEST PUSH1 0x0 DUP1 PUSH1 0x40 DUP4 DUP6 SUB SLT ISZERO PUSH2 0xBDE JUMPI PUSH2 0xBDD PUSH2 0xB2E JUMP JUMPDEST JUMPDEST PUSH1 0x0 PUSH2 0xBEC DUP6 DUP3 DUP7 ADD PUSH2 0xB7C JUMP JUMPDEST SWAP3 POP POP PUSH1 0x20 PUSH2 0xBFD DUP6 DUP3 DUP7 ADD PUSH2 0xBB2 JUMP JUMPDEST SWAP2 POP POP SWAP3 POP SWAP3 SWAP1 POP JUMP JUMPDEST PUSH1 0x0 DUP2 ISZERO ISZERO SWAP1 POP SWAP2 SWAP1 POP JUMP JUMPDEST PUSH2 0xC1C DUP2 PUSH2 0xC07 JUMP JUMPDEST DUP3 MSTORE POP POP JUMP JUMPDEST PUSH1 0x0 PUSH1 0x20 DUP3 ADD SWAP1 POP PUSH2 0xC37 PUSH1 0x0 DUP4 ADD DUP5 PUSH2 0xC13 JUMP JUMPDEST SWAP3 SWAP2 POP POP JUMP JUMPDEST PUSH2 0xC46 DUP2 PUSH2 0xB91 JUMP JUMPDEST DUP3 MSTORE POP POP JUMP JUMPDEST PUSH1 0x0 PUSH1 0x20 DUP3 ADD SWAP1 POP PUSH2 0xC61 PUSH1 0x0 DUP4 ADD DUP5 PUSH2 0xC3D JUMP JUMPDEST SWAP3 SWAP2 POP POP JUMP JUMPDEST PUSH1 0x0 DUP1 PUSH1 0x0 PUSH1 0x60 DUP5 DUP7 SUB SLT ISZERO PUSH2 0xC80 JUMPI PUSH2 0xC7F PUSH2 0xB2E JUMP JUMPDEST JUMPDEST PUSH1 0x0 PUSH2 0xC8E DUP7 DUP3 DUP8 ADD PUSH2 0xB7C JUMP JUMPDEST SWAP4 POP POP PUSH1 0x20 PUSH2 0xC9F DUP7 DUP3 DUP8 ADD PUSH2 0xB7C JUMP JUMPDEST SWAP3 POP POP PUSH1 0x40 PUSH2 0xCB0 DUP7 DUP3 DUP8 ADD PUSH2 0xBB2 JUMP JUMPDEST SWAP2 POP POP SWAP3 POP SWAP3 POP SWAP3 JUMP JUMPDEST PUSH1 0x0 PUSH1 0xFF DUP3 AND SWAP1 POP SWAP2 SWAP1 POP JUMP JUMPDEST PUSH2 0xCD0 DUP2 PUSH2 0xCBA JUMP JUMPDEST DUP3 MSTORE POP POP JUMP JUMPDEST PUSH1 0x0 PUSH1 0x20 DUP3 ADD SWAP1 POP PUSH2 0xCEB PUSH1 0x0 DUP4 ADD DUP5 PUSH2 0xCC7 JUMP JUMPDEST SWAP3 SWAP2 POP POP JUMP JUMPDEST PUSH1 0x0 PUSH1 0x20 DUP3 DUP5 SUB SLT ISZERO PUSH2 0xD07 JUMPI PUSH2 0xD06 PUSH2 0xB2E JUMP JUMPDEST JUMPDEST PUSH1 0x0 PUSH2 0xD15 DUP5 DUP3 DUP6 ADD PUSH2 0xB7C JUMP JUMPDEST SWAP2 POP POP SWAP3 SWAP2 POP POP JUMP JUMPDEST PUSH1 0x0 DUP1 PUSH1 0x40 DUP4 DUP6 SUB SLT ISZERO PUSH2 0xD35 JUMPI PUSH2 0xD34 PUSH2 0xB2E JUMP JUMPDEST JUMPDEST PUSH1 0x0 PUSH2 0xD43 DUP6 DUP3 DUP7 ADD PUSH2 0xB7C JUMP JUMPDEST SWAP3 POP POP PUSH1 0x20 PUSH2 0xD54 DUP6 DUP3 DUP7 ADD PUSH2 0xB7C JUMP JUMPDEST SWAP2 POP POP SWAP3 POP SWAP3 SWAP1 POP JUMP JUMPDEST PUSH32 0x4E487B7100000000000000000000000000000000000000000000000000000000 PUSH1 0x0 MSTORE PUSH1 0x22 PUSH1 0x4 MSTORE PUSH1 0x24 PUSH1 0x0 REVERT JUMPDEST PUSH1 0x0 PUSH1 0x2 DUP3 DIV SWAP1 POP PUSH1 0x1 DUP3 AND DUP1 PUSH2 0xDA5 JUMPI PUSH1 0x7F DUP3 AND SWAP2 POP JUMPDEST PUSH1 0x20 DUP3 LT DUP2 SUB PUSH2 0xDB8 JUMPI PUSH2 0xDB7 PUSH2 0xD5E JUMP JUMPDEST JUMPDEST POP SWAP2 SWAP1 POP JUMP JUMPDEST PUSH32 0x4E487B7100000000000000000000000000000000000000000000000000000000 PUSH1 0x0 MSTORE PUSH1 0x11 PUSH1 0x4 MSTORE PUSH1 0x24 PUSH1 0x0 REVERT JUMPDEST PUSH1 0x0 PUSH2 0xDF8 DUP3 PUSH2 0xB91 JUMP JUMPDEST SWAP2 POP PUSH2 0xE03 DUP4 PUSH2 0xB91 JUMP JUMPDEST SWAP3 POP DUP3 DUP3 ADD SWAP1 POP DUP1 DUP3 GT ISZERO PUSH2 0xE1B JUMPI PUSH2 0xE1A PUSH2 0xDBE JUMP JUMPDEST JUMPDEST SWAP3 SWAP2 POP POP JUMP JUMPDEST PUSH32 0x45524332303A2064656372656173656420616C6C6F77616E63652062656C6F77 PUSH1 0x0 DUP3 ADD MSTORE PUSH32 0x207A65726F000000000000000000000000000000000000000000000000000000 PUSH1 0x20 DUP3 ADD MSTORE POP JUMP JUMPDEST PUSH1 0x0 PUSH2 0xE7D PUSH1 0x25 DUP4 PUSH2 0xA87 JUMP JUMPDEST SWAP2 POP PUSH2 0xE88 DUP3 PUSH2 0xE21 JUMP JUMPDEST PUSH1 0x40 DUP3 ADD SWAP1 POP SWAP2 SWAP1 POP JUMP JUMPDEST PUSH1 0x0 PUSH1 0x20 DUP3 ADD SWAP1 POP DUP2 DUP2 SUB PUSH1 0x0 DUP4 ADD MSTORE PUSH2 0xEAC DUP2 PUSH2 0xE70 JUMP JUMPDEST SWAP1 POP SWAP2 SWAP1 POP JUMP JUMPDEST PUSH32 0x45524332303A20617070726F76652066726F6D20746865207A65726F20616464 PUSH1 0x0 DUP3 ADD MSTORE PUSH32 0x7265737300000000000000000000000000000000000000000000000000000000 PUSH1 0x20 DUP3 ADD MSTORE POP JUMP JUMPDEST PUSH1 0x0 PUSH2 0xF0F PUSH1 0x24 DUP4 PUSH2 0xA87 JUMP JUMPDEST SWAP2 POP PUSH2 0xF1A DUP3 PUSH2 0xEB3 JUMP JUMPDEST PUSH1 0x40 DUP3 ADD SWAP1 POP SWAP2 SWAP1 POP JUMP JUMPDEST PUSH1 0x0 PUSH1 0x20 DUP3 ADD SWAP1 POP DUP2 DUP2 SUB PUSH1 0x0 DUP4 ADD MSTORE PUSH2 0xF3E DUP2 PUSH2 0xF02 JUMP JUMPDEST SWAP1 POP SWAP2 SWAP1 POP JUMP JUMPDEST PUSH32 0x45524332303A20617070726F766520746F20746865207A65726F206164647265 PUSH1 0x0 DUP3 ADD MSTORE PUSH32 0x7373000000000000000000000000000000000000000000000000000000000000 PUSH1 0x20 DUP3 ADD MSTORE POP JUMP JUMPDEST PUSH1 0x0 PUSH2 0xFA1 PUSH1 0x22 DUP4 PUSH2 0xA87 JUMP JUMPDEST SWAP2 POP PUSH2 0xFAC DUP3 PUSH2 0xF45 JUMP JUMPDEST PUSH1 0x40 DUP3 ADD SWAP1 POP SWAP2 SWAP1 POP JUMP JUMPDEST PUSH1 0x0 PUSH1 0x20 DUP3 ADD SWAP1 POP DUP2 DUP2 SUB PUSH1 0x0 DUP4 ADD MSTORE PUSH2 0xFD0 DUP2 PUSH2 0xF94 JUMP JUMPDEST SWAP1 POP SWAP2 SWAP1 POP JUMP JUMPDEST PUSH32 0x45524332303A20696E73756666696369656E7420616C6C6F77616E6365000000 PUSH1 0x0 DUP3 ADD MSTORE POP JUMP JUMPDEST PUSH1 0x0 PUSH2 0x100D PUSH1 0x1D DUP4 PUSH2 0xA87 JUMP JUMPDEST SWAP2 POP PUSH2 0x1018 DUP3 PUSH2 0xFD7 JUMP JUMPDEST PUSH1 0x20 DUP3 ADD SWAP1 POP SWAP2 SWAP1 POP JUMP JUMPDEST PUSH1 0x0 PUSH1 0x20 DUP3 ADD SWAP1 POP DUP2 DUP2 SUB PUSH1 0x0 DUP4 ADD MSTORE PUSH2 0x103C DUP2 PUSH2 0x1000 JUMP JUMPDEST SWAP1 POP SWAP2 SWAP1 POP JUMP JUMPDEST PUSH32 0x45524332303A207472616E736665722066726F6D20746865207A65726F206164 PUSH1 0x0 DUP3 ADD MSTORE PUSH32 0x6472657373000000000000000000000000000000000000000000000000000000 PUSH1 0x20 DUP3 ADD MSTORE POP JUMP JUMPDEST PUSH1 0x0 PUSH2 0x109F PUSH1 0x25 DUP4 PUSH2 0xA87 JUMP JUMPDEST SWAP2 POP PUSH2 0x10AA DUP3 PUSH2 0x1043 JUMP JUMPDEST PUSH1 0x40 DUP3 ADD SWAP1 POP SWAP2 SWAP1 POP JUMP JUMPDEST PUSH1 0x0 PUSH1 0x20 DUP3 ADD SWAP1 POP DUP2 DUP2 SUB PUSH1 0x0 DUP4 ADD MSTORE PUSH2 0x10CE DUP2 PUSH2 0x1092 JUMP JUMPDEST SWAP1 POP SWAP2 SWAP1 POP JUMP JUMPDEST PUSH32 0x45524332303A207472616E7366657220746F20746865207A65726F2061646472 PUSH1 0x0 DUP3 ADD MSTORE PUSH32 0x6573730000000000000000000000000000000000000000000000000000000000 PUSH1 0x20 DUP3 ADD MSTORE POP JUMP JUMPDEST PUSH1 0x0 PUSH2 0x1131 PUSH1 0x23 DUP4 PUSH2 0xA87 JUMP JUMPDEST SWAP2 POP PUSH2 0x113C DUP3 PUSH2 0x10D5 JUMP JUMPDEST PUSH1 0x40 DUP3 ADD SWAP1 POP SWAP2 SWAP1 POP JUMP JUMPDEST PUSH1 0x0 PUSH1 0x20 DUP3 ADD SWAP1 POP DUP2 DUP2 SUB PUSH1 0x0 DUP4 ADD MSTORE PUSH2 0x1160 DUP2 PUSH2 0x1124 JUMP JUMPDEST SWAP1 POP SWAP2 SWAP1 POP JUMP JUMPDEST PUSH32 0x45524332303A207472616E7366657220616D6F756E7420657863656564732062 PUSH1 0x0 DUP3 ADD MSTORE PUSH32 0x616C616E63650000000000000000000000000000000000000000000000000000 PUSH1 0x20 DUP3 ADD MSTORE POP JUMP JUMPDEST PUSH1 0x0 PUSH2 0x11C3 PUSH1 0x26 DUP4 PUSH2 0xA87 JUMP JUMPDEST SWAP2 POP PUSH2 0x11CE DUP3 PUSH2 0x1167 JUMP JUMPDEST PUSH1 0x40 DUP3 ADD SWAP1 POP SWAP2 SWAP1 POP JUMP JUMPDEST PUSH1 0x0 PUSH1 0x20 DUP3 ADD SWAP1 POP DUP2 DUP2 SUB PUSH1 0x0 DUP4 ADD MSTORE PUSH2 0x11F2 DUP2 PUSH2 0x11B6 JUMP JUMPDEST SWAP1 POP SWAP2 SWAP1 POP JUMP INVALID LOG2 PUSH5 0x6970667358 0x22 SLT KECCAK256 0xE0 0xB1 0xF 0x25 0xC7 0x1F SWAP14 0x27 SSTORE PUSH5 0xEED34AA1F6 BYTE DUP12 0xD4 PUSH32 0x56EC0D0F4EA6C7A13A75A9C01D64736F6C634300081100330000000000000000 "
				},
				"gasEstimates": {
					"creation": {
						"codeDepositCost": "931000",
						"executionCost": "infinite",
						"totalCost": "infinite"
					},
					"external": {
						"allowance(address,address)": "infinite",
						"approve(address,uint256)": "infinite",
						"balanceOf(address)": "2863",
						"decimals()": "432",
						"decreaseAllowance(address,uint256)": "infinite",
						"increaseAllowance(address,uint256)": "infinite",
						"name()": "infinite",
						"symbol()": "infinite",
						"totalSupply()": "2482",
						"transfer(address,uint256)": "infinite",
						"transferFrom(address,address,uint256)": "infinite"
					},
					"internal": {
						"_afterTokenTransfer(address,address,uint256)": "15",
						"_approve(address,address,uint256)": "infinite",
						"_beforeTokenTransfer(address,address,uint256)": "15",
						"_burn(address,uint256)": "infinite",
						"_mint(address,uint256)": "infinite",
						"_spendAllowance(address,address,uint256)": "infinite",
						"_transfer(address,address,uint256)": "infinite"
					}
				},
				"methodIdentifiers": {
					"allowance(address,address)": "dd62ed3e",
					"approve(address,uint256)": "095ea7b3",
					"balanceOf(address)": "70a08231",
					"decimals()": "313ce567",
					"decreaseAllowance(address,uint256)": "a457c2d7",
					"increaseAllowance(address,uint256)": "39509351",
					"name()": "06fdde03",
					"symbol()": "95d89b41",
					"totalSupply()": "18160ddd",
					"transfer(address,uint256)": "a9059cbb",
					"transferFrom(address,address,uint256)": "23b872dd"
				}
			},
			"storageLayout": {
				"storage": [
					{
						"astId": 133,
						"contract": "contracts/ANDREW-ERC-20.sol_flattened.sol:ERC20",
						"label": "_balances",
						"offset": 0,
						"slot": "0",
						"type": "t_mapping(t_address,t_uint256)"
					},
					{
						"astId": 139,
						"contract": "contracts/ANDREW-ERC-20.sol_flattened.sol:ERC20",
						"label": "_allowances",
						"offset": 0,
						"slot": "1",
						"type": "t_mapping(t_address,t_mapping(t_address,t_uint256))"
					},
					{
						"astId": 141,
						"contract": "contracts/ANDREW-ERC-20.sol_flattened.sol:ERC20",
						"label": "_totalSupply",
						"offset": 0,
						"slot": "2",
						"type": "t_uint256"
					},
					{
						"astId": 143,
						"contract": "contracts/ANDREW-ERC-20.sol_flattened.sol:ERC20",
						"label": "_name",
						"offset": 0,
						"slot": "3",
						"type": "t_string_storage"
					},
					{
						"astId": 145,
						"contract": "contracts/ANDREW-ERC-20.sol_flattened.sol:ERC20",
						"label": "_symbol",
						"offset": 0,
						"slot": "4",
						"type": "t_string_storage"
					}
				],
				"types": {
					"t_address": {
						"encoding": "inplace",
						"label": "address",
						"numberOfBytes": "20"
					},
					"t_mapping(t_address,t_mapping(t_address,t_uint256))": {
						"encoding": "mapping",
						"key": "t_address",
						"label": "mapping(address => mapping(address => uint256))",
						"numberOfBytes": "32",
						"value": "t_mapping(t_address,t_uint256)"
					},
					"t_mapping(t_address,t_uint256)": {
						"encoding": "mapping",
						"key": "t_address",
						"label": "mapping(address => uint256)",
						"numberOfBytes": "32",
						"value": "t_uint256"
					},
					"t_string_storage": {
						"encoding": "bytes",
						"label": "string",
						"numberOfBytes": "32"
					},
					"t_uint256": {
						"encoding": "inplace",
						"label": "uint256",
						"numberOfBytes": "32"
					}
				}
			},
			"userdoc": {
				"kind": "user",
				"methods": {},
				"version": 1
			}
		}
	}
}