{
	"contracts/paper-01.sol": {
		"TodoList": {
			"abi": [
				{
					"inputs": [],
					"stateMutability": "nonpayable",
					"type": "constructor"
				},
				{
					"inputs": [],
					"name": "Complete",
					"outputs": [],
					"stateMutability": "nonpayable",
					"type": "function"
				},
				{
					"inputs": [
						{
							"internalType": "uint256",
							"name": "whichone",
							"type": "uint256"
						}
					],
					"name": "Moveoutpendingitem",
					"outputs": [],
					"stateMutability": "nonpayable",
					"type": "function"
				},
				{
					"inputs": [
						{
							"internalType": "string",
							"name": "todo",
							"type": "string"
						}
					],
					"name": "addTodo",
					"outputs": [],
					"stateMutability": "nonpayable",
					"type": "function"
				},
				{
					"inputs": [
						{
							"internalType": "uint256",
							"name": "whichone",
							"type": "uint256"
						}
					],
					"name": "countpendinghowlong",
					"outputs": [],
					"stateMutability": "nonpayable",
					"type": "function"
				},
				{
					"inputs": [
						{
							"internalType": "uint256",
							"name": "index",
							"type": "uint256"
						}
					],
					"name": "deleteTodo",
					"outputs": [],
					"stateMutability": "nonpayable",
					"type": "function"
				},
				{
					"inputs": [
						{
							"internalType": "uint256",
							"name": "whichone",
							"type": "uint256"
						}
					],
					"name": "deletepending",
					"outputs": [],
					"stateMutability": "nonpayable",
					"type": "function"
				},
				{
					"inputs": [],
					"name": "getAllCompleted",
					"outputs": [
						{
							"internalType": "string[]",
							"name": "",
							"type": "string[]"
						}
					],
					"stateMutability": "view",
					"type": "function"
				},
				{
					"inputs": [],
					"name": "getAllTodo",
					"outputs": [
						{
							"internalType": "string[]",
							"name": "",
							"type": "string[]"
						}
					],
					"stateMutability": "view",
					"type": "function"
				},
				{
					"inputs": [
						{
							"internalType": "uint256",
							"name": "index",
							"type": "uint256"
						}
					],
					"name": "getCompleted",
					"outputs": [
						{
							"internalType": "string",
							"name": "",
							"type": "string"
						}
					],
					"stateMutability": "view",
					"type": "function"
				},
				{
					"inputs": [
						{
							"internalType": "uint256",
							"name": "index",
							"type": "uint256"
						}
					],
					"name": "getTodo",
					"outputs": [
						{
							"internalType": "string",
							"name": "",
							"type": "string"
						}
					],
					"stateMutability": "view",
					"type": "function"
				},
				{
					"inputs": [],
					"name": "howlong",
					"outputs": [
						{
							"internalType": "uint256",
							"name": "",
							"type": "uint256"
						}
					],
					"stateMutability": "view",
					"type": "function"
				},
				{
					"inputs": [
						{
							"internalType": "uint256",
							"name": "",
							"type": "uint256"
						}
					],
					"name": "pendings",
					"outputs": [
						{
							"internalType": "string",
							"name": "itemname",
							"type": "string"
						},
						{
							"internalType": "uint256",
							"name": "pendingtime",
							"type": "uint256"
						}
					],
					"stateMutability": "view",
					"type": "function"
				},
				{
					"inputs": [
						{
							"internalType": "uint256",
							"name": "index",
							"type": "uint256"
						}
					],
					"name": "setCompleted",
					"outputs": [],
					"stateMutability": "nonpayable",
					"type": "function"
				},
				{
					"inputs": [
						{
							"internalType": "uint256",
							"name": "whichone",
							"type": "uint256"
						}
					],
					"name": "setpending",
					"outputs": [],
					"stateMutability": "nonpayable",
					"type": "function"
				},
				{
					"inputs": [
						{
							"internalType": "uint256",
							"name": "",
							"type": "uint256"
						}
					],
					"name": "todoCompleted",
					"outputs": [
						{
							"internalType": "string",
							"name": "",
							"type": "string"
						}
					],
					"stateMutability": "view",
					"type": "function"
				},
				{
					"inputs": [
						{
							"internalType": "uint256",
							"name": "",
							"type": "uint256"
						}
					],
					"name": "todos",
					"outputs": [
						{
							"internalType": "string",
							"name": "",
							"type": "string"
						}
					],
					"stateMutability": "view",
					"type": "function"
				}
			],
			"devdoc": {
				"kind": "dev",
				"methods": {},
				"version": 1
			},
			"evm": {
				"assembly": "    /* \"contracts/paper-01.sol\":64:3393  contract TodoList {... */\n  mstore(0x40, 0x80)\n    /* \"contracts/paper-01.sol\":396:397  0 */\n  0x00\n    /* \"contracts/paper-01.sol\":383:397  uint count = 0 */\n  0x03\n  sstore\n    /* \"contracts/paper-01.sol\":487:509  constructor() {... */\n  callvalue\n  dup1\n  iszero\n  tag_1\n  jumpi\n  0x00\n  dup1\n  revert\ntag_1:\n  pop\n    /* \"contracts/paper-01.sol\":64:3393  contract TodoList {... */\n  dataSize(sub_0)\n  dup1\n  dataOffset(sub_0)\n  0x00\n  codecopy\n  0x00\n  return\nstop\n\nsub_0: assembly {\n        /* \"contracts/paper-01.sol\":64:3393  contract TodoList {... */\n      mstore(0x40, 0x80)\n      callvalue\n      dup1\n      iszero\n      tag_1\n      jumpi\n      0x00\n      dup1\n      revert\n    tag_1:\n      pop\n      jumpi(tag_2, lt(calldatasize, 0x04))\n      shr(0xe0, calldataload(0x00))\n      dup1\n      0x982abb89\n      gt\n      tag_19\n      jumpi\n      dup1\n      0xdd68afb6\n      gt\n      tag_20\n      jumpi\n      dup1\n      0xdd68afb6\n      eq\n      tag_15\n      jumpi\n      dup1\n      0xe29672ba\n      eq\n      tag_16\n      jumpi\n      dup1\n      0xfdacd576\n      eq\n      tag_17\n      jumpi\n      dup1\n      0xfe1c7f6f\n      eq\n      tag_18\n      jumpi\n      jump(tag_2)\n    tag_20:\n      dup1\n      0x982abb89\n      eq\n      tag_11\n      jumpi\n      dup1\n      0xbc8bc2b4\n      eq\n      tag_12\n      jumpi\n      dup1\n      0xbf3d28ab\n      eq\n      tag_13\n      jumpi\n      dup1\n      0xcc579ce0\n      eq\n      tag_14\n      jumpi\n      jump(tag_2)\n    tag_19:\n      dup1\n      0x51932977\n      gt\n      tag_21\n      jumpi\n      dup1\n      0x51932977\n      eq\n      tag_7\n      jumpi\n      dup1\n      0x6e3c6738\n      eq\n      tag_8\n      jumpi\n      dup1\n      0x7965df39\n      eq\n      tag_9\n      jumpi\n      dup1\n      0x95ffebf5\n      eq\n      tag_10\n      jumpi\n      jump(tag_2)\n    tag_21:\n      dup1\n      0x01b7dcb4\n      eq\n      tag_3\n      jumpi\n      dup1\n      0x1bfc269b\n      eq\n      tag_4\n      jumpi\n      dup1\n      0x1ee26ecd\n      eq\n      tag_5\n      jumpi\n      dup1\n      0x4ea3e230\n      eq\n      tag_6\n      jumpi\n    tag_2:\n      0x00\n      dup1\n      revert\n        /* \"contracts/paper-01.sol\":2601:2719  function Complete() public  {... */\n    tag_3:\n      tag_22\n      tag_23\n      jump\t// in\n    tag_22:\n      stop\n        /* \"contracts/paper-01.sol\":2933:3054  function getCompleted(uint256 index) external view returns (string memory) {... */\n    tag_4:\n      tag_24\n      0x04\n      dup1\n      calldatasize\n      sub\n      dup2\n      add\n      swap1\n      tag_25\n      swap2\n      swap1\n      tag_26\n      jump\t// in\n    tag_25:\n      tag_27\n      jump\t// in\n    tag_24:\n      mload(0x40)\n      tag_28\n      swap2\n      swap1\n      tag_29\n      jump\t// in\n    tag_28:\n      mload(0x40)\n      dup1\n      swap2\n      sub\n      swap1\n      return\n        /* \"contracts/paper-01.sol\":2156:2402  function deletepending (uint256 whichone) external {... */\n    tag_5:\n      tag_30\n      0x04\n      dup1\n      calldatasize\n      sub\n      dup2\n      add\n      swap1\n      tag_31\n      swap2\n      swap1\n      tag_26\n      jump\t// in\n    tag_31:\n      tag_32\n      jump\t// in\n    tag_30:\n      stop\n        /* \"contracts/paper-01.sol\":1593:2118  function Moveoutpendingitem (uint256 whichone) public {... */\n    tag_6:\n      tag_33\n      0x04\n      dup1\n      calldatasize\n      sub\n      dup2\n      add\n      swap1\n      tag_34\n      swap2\n      swap1\n      tag_26\n      jump\t// in\n    tag_34:\n      tag_35\n      jump\t// in\n    tag_33:\n      stop\n        /* \"contracts/paper-01.sol\":2436:2567  function countpendinghowlong(uint256 whichone) public {... */\n    tag_7:\n      tag_36\n      0x04\n      dup1\n      calldatasize\n      sub\n      dup2\n      add\n      swap1\n      tag_37\n      swap2\n      swap1\n      tag_26\n      jump\t// in\n    tag_37:\n      tag_38\n      jump\t// in\n    tag_36:\n      stop\n        /* \"contracts/paper-01.sol\":2843:2925  function deleteTodo(uint256 index) external {... */\n    tag_8:\n      tag_39\n      0x04\n      dup1\n      calldatasize\n      sub\n      dup2\n      add\n      swap1\n      tag_40\n      swap2\n      swap1\n      tag_26\n      jump\t// in\n    tag_40:\n      tag_41\n      jump\t// in\n    tag_39:\n      stop\n        /* \"contracts/paper-01.sol\":333:376  mapping(uint=>pendingitems) public pendings */\n    tag_9:\n      tag_42\n      0x04\n      dup1\n      calldatasize\n      sub\n      dup2\n      add\n      swap1\n      tag_43\n      swap2\n      swap1\n      tag_26\n      jump\t// in\n    tag_43:\n      tag_44\n      jump\t// in\n    tag_42:\n      mload(0x40)\n      tag_45\n      swap3\n      swap2\n      swap1\n      tag_46\n      jump\t// in\n    tag_45:\n      mload(0x40)\n      dup1\n      swap2\n      sub\n      swap1\n      return\n        /* \"contracts/paper-01.sol\":632:711  function addTodo(string memory todo) public {... */\n    tag_10:\n      tag_47\n      0x04\n      dup1\n      calldatasize\n      sub\n      dup2\n      add\n      swap1\n      tag_48\n      swap2\n      swap1\n      tag_49\n      jump\t// in\n    tag_48:\n      tag_50\n      jump\t// in\n    tag_47:\n      stop\n        /* \"contracts/paper-01.sol\":3062:3155  function getAllTodo() external view returns (string[] memory) {... */\n    tag_11:\n      tag_51\n      tag_52\n      jump\t// in\n    tag_51:\n      mload(0x40)\n      tag_53\n      swap2\n      swap1\n      tag_54\n      jump\t// in\n    tag_53:\n      mload(0x40)\n      dup1\n      swap2\n      sub\n      swap1\n      return\n        /* \"contracts/paper-01.sol\":89:110  string[] public todos */\n    tag_12:\n      tag_55\n      0x04\n      dup1\n      calldatasize\n      sub\n      dup2\n      add\n      swap1\n      tag_56\n      swap2\n      swap1\n      tag_26\n      jump\t// in\n    tag_56:\n      tag_57\n      jump\t// in\n    tag_55:\n      mload(0x40)\n      tag_58\n      swap2\n      swap1\n      tag_29\n      jump\t// in\n    tag_58:\n      mload(0x40)\n      dup1\n      swap2\n      sub\n      swap1\n      return\n        /* \"contracts/paper-01.sol\":425:444  uint public howlong */\n    tag_13:\n      tag_59\n      tag_60\n      jump\t// in\n    tag_59:\n      mload(0x40)\n      tag_61\n      swap2\n      swap1\n      tag_62\n      jump\t// in\n    tag_61:\n      mload(0x40)\n      dup1\n      swap2\n      sub\n      swap1\n      return\n        /* \"contracts/paper-01.sol\":1117:1506  function setpending (uint256 whichone) external {... */\n    tag_14:\n      tag_63\n      0x04\n      dup1\n      calldatasize\n      sub\n      dup2\n      add\n      swap1\n      tag_64\n      swap2\n      swap1\n      tag_26\n      jump\t// in\n    tag_64:\n      tag_65\n      jump\t// in\n    tag_63:\n      stop\n        /* \"contracts/paper-01.sol\":2727:2835  function getTodo(uint256 index) external view returns (string memory) {... */\n    tag_15:\n      tag_66\n      0x04\n      dup1\n      calldatasize\n      sub\n      dup2\n      add\n      swap1\n      tag_67\n      swap2\n      swap1\n      tag_26\n      jump\t// in\n    tag_67:\n      tag_68\n      jump\t// in\n    tag_66:\n      mload(0x40)\n      tag_69\n      swap2\n      swap1\n      tag_29\n      jump\t// in\n    tag_69:\n      mload(0x40)\n      dup1\n      swap2\n      sub\n      swap1\n      return\n        /* \"contracts/paper-01.sol\":3163:3269  function getAllCompleted() external view returns (string[] memory) {... */\n    tag_16:\n      tag_70\n      tag_71\n      jump\t// in\n    tag_70:\n      mload(0x40)\n      tag_72\n      swap2\n      swap1\n      tag_54\n      jump\t// in\n    tag_72:\n      mload(0x40)\n      dup1\n      swap2\n      sub\n      swap1\n      return\n        /* \"contracts/paper-01.sol\":745:1083  function setCompleted(uint256 index) external {... */\n    tag_17:\n      tag_73\n      0x04\n      dup1\n      calldatasize\n      sub\n      dup2\n      add\n      swap1\n      tag_74\n      swap2\n      swap1\n      tag_26\n      jump\t// in\n    tag_74:\n      tag_75\n      jump\t// in\n    tag_73:\n      stop\n        /* \"contracts/paper-01.sol\":117:146  string[] public todoCompleted */\n    tag_18:\n      tag_76\n      0x04\n      dup1\n      calldatasize\n      sub\n      dup2\n      add\n      swap1\n      tag_77\n      swap2\n      swap1\n      tag_26\n      jump\t// in\n    tag_77:\n      tag_78\n      jump\t// in\n    tag_76:\n      mload(0x40)\n      tag_79\n      swap2\n      swap1\n      tag_29\n      jump\t// in\n    tag_79:\n      mload(0x40)\n      dup1\n      swap2\n      sub\n      swap1\n      return\n        /* \"contracts/paper-01.sol\":2601:2719  function Complete() public  {... */\n    tag_23:\n        /* \"contracts/paper-01.sol\":2647:2652  todos */\n      0x00\n      dup1\n        /* \"contracts/paper-01.sol\":2640:2652  delete todos */\n      tag_81\n      swap2\n      swap1\n      tag_82\n      jump\t// in\n    tag_81:\n        /* \"contracts/paper-01.sol\":2670:2683  todoCompleted */\n      0x01\n      0x00\n        /* \"contracts/paper-01.sol\":2663:2683  delete todoCompleted */\n      tag_83\n      swap2\n      swap1\n      tag_82\n      jump\t// in\n    tag_83:\n        /* \"contracts/paper-01.sol\":2601:2719  function Complete() public  {... */\n      jump\t// out\n        /* \"contracts/paper-01.sol\":2933:3054  function getCompleted(uint256 index) external view returns (string memory) {... */\n    tag_27:\n        /* \"contracts/paper-01.sol\":2993:3006  string memory */\n      0x60\n        /* \"contracts/paper-01.sol\":3026:3039  todoCompleted */\n      0x01\n        /* \"contracts/paper-01.sol\":3040:3045  index */\n      dup3\n        /* \"contracts/paper-01.sol\":3026:3046  todoCompleted[index] */\n      dup2\n      sload\n      dup2\n      lt\n      tag_85\n      jumpi\n      tag_86\n      tag_87\n      jump\t// in\n    tag_86:\n    tag_85:\n      swap1\n      0x00\n      mstore\n      keccak256(0x00, 0x20)\n      add\n        /* \"contracts/paper-01.sol\":3019:3046  return todoCompleted[index] */\n      dup1\n      sload\n      tag_89\n      swap1\n      tag_90\n      jump\t// in\n    tag_89:\n      dup1\n      0x1f\n      add\n      0x20\n      dup1\n      swap2\n      div\n      mul\n      0x20\n      add\n      mload(0x40)\n      swap1\n      dup2\n      add\n      0x40\n      mstore\n      dup1\n      swap3\n      swap2\n      swap1\n      dup2\n      dup2\n      mstore\n      0x20\n      add\n      dup3\n      dup1\n      sload\n      tag_91\n      swap1\n      tag_90\n      jump\t// in\n    tag_91:\n      dup1\n      iszero\n      tag_92\n      jumpi\n      dup1\n      0x1f\n      lt\n      tag_93\n      jumpi\n      0x0100\n      dup1\n      dup4\n      sload\n      div\n      mul\n      dup4\n      mstore\n      swap2\n      0x20\n      add\n      swap2\n      jump(tag_92)\n    tag_93:\n      dup3\n      add\n      swap2\n      swap1\n      0x00\n      mstore\n      keccak256(0x00, 0x20)\n      swap1\n    tag_94:\n      dup2\n      sload\n      dup2\n      mstore\n      swap1\n      0x01\n      add\n      swap1\n      0x20\n      add\n      dup1\n      dup4\n      gt\n      tag_94\n      jumpi\n      dup3\n      swap1\n      sub\n      0x1f\n      and\n      dup3\n      add\n      swap2\n    tag_92:\n      pop\n      pop\n      pop\n      pop\n      pop\n      swap1\n      pop\n        /* \"contracts/paper-01.sol\":2933:3054  function getCompleted(uint256 index) external view returns (string memory) {... */\n      swap2\n      swap1\n      pop\n      jump\t// out\n        /* \"contracts/paper-01.sol\":2156:2402  function deletepending (uint256 whichone) external {... */\n    tag_32:\n        /* \"contracts/paper-01.sol\":2225:2233  pendings */\n      0x02\n        /* \"contracts/paper-01.sol\":2225:2243  pendings[whichone] */\n      0x00\n        /* \"contracts/paper-01.sol\":2234:2242  whichone */\n      dup3\n        /* \"contracts/paper-01.sol\":2225:2243  pendings[whichone] */\n      dup2\n      mstore\n      0x20\n      add\n      swap1\n      dup2\n      mstore\n      0x20\n      add\n      0x00\n      keccak256\n      0x00\n        /* \"contracts/paper-01.sol\":2218:2243  delete pendings[whichone] */\n      dup1\n      dup3\n      add\n      0x00\n      tag_96\n      swap2\n      swap1\n      tag_97\n      jump\t// in\n    tag_96:\n      0x01\n      dup3\n      add\n      0x00\n      swap1\n      sstore\n      pop\n      pop\n        /* \"contracts/paper-01.sol\":2259:2268  uint256 i */\n      0x00\n        /* \"contracts/paper-01.sol\":2271:2279  whichone */\n      dup2\n        /* \"contracts/paper-01.sol\":2259:2279  uint256 i = whichone */\n      swap1\n      pop\n        /* \"contracts/paper-01.sol\":2254:2358  for (uint256 i = whichone ; i < count - 1 ; i++){... */\n    tag_98:\n        /* \"contracts/paper-01.sol\":2294:2295  1 */\n      0x01\n        /* \"contracts/paper-01.sol\":2286:2291  count */\n      sload(0x03)\n        /* \"contracts/paper-01.sol\":2286:2295  count - 1 */\n      tag_101\n      swap2\n      swap1\n      tag_102\n      jump\t// in\n    tag_101:\n        /* \"contracts/paper-01.sol\":2282:2283  i */\n      dup2\n        /* \"contracts/paper-01.sol\":2282:2295  i < count - 1 */\n      lt\n        /* \"contracts/paper-01.sol\":2254:2358  for (uint256 i = whichone ; i < count - 1 ; i++){... */\n      iszero\n      tag_99\n      jumpi\n        /* \"contracts/paper-01.sol\":2331:2339  pendings */\n      0x02\n        /* \"contracts/paper-01.sol\":2331:2346  pendings[i + 1] */\n      0x00\n        /* \"contracts/paper-01.sol\":2344:2345  1 */\n      0x01\n        /* \"contracts/paper-01.sol\":2340:2341  i */\n      dup4\n        /* \"contracts/paper-01.sol\":2340:2345  i + 1 */\n      tag_103\n      swap2\n      swap1\n      tag_104\n      jump\t// in\n    tag_103:\n        /* \"contracts/paper-01.sol\":2331:2346  pendings[i + 1] */\n      dup2\n      mstore\n      0x20\n      add\n      swap1\n      dup2\n      mstore\n      0x20\n      add\n      0x00\n      keccak256\n        /* \"contracts/paper-01.sol\":2317:2325  pendings */\n      0x02\n        /* \"contracts/paper-01.sol\":2317:2328  pendings[i] */\n      0x00\n        /* \"contracts/paper-01.sol\":2326:2327  i */\n      dup4\n        /* \"contracts/paper-01.sol\":2317:2328  pendings[i] */\n      dup2\n      mstore\n      0x20\n      add\n      swap1\n      dup2\n      mstore\n      0x20\n      add\n      0x00\n      keccak256\n        /* \"contracts/paper-01.sol\":2317:2346  pendings[i] = pendings[i + 1] */\n      0x00\n      dup3\n      add\n      dup2\n      0x00\n      add\n      swap1\n      dup2\n      tag_105\n      swap2\n      swap1\n      tag_106\n      jump\t// in\n    tag_105:\n      pop\n      0x01\n      dup3\n      add\n      sload\n      dup2\n      0x01\n      add\n      sstore\n      swap1\n      pop\n      pop\n        /* \"contracts/paper-01.sol\":2298:2301  i++ */\n      dup1\n      dup1\n      tag_107\n      swap1\n      tag_108\n      jump\t// in\n    tag_107:\n      swap2\n      pop\n      pop\n        /* \"contracts/paper-01.sol\":2254:2358  for (uint256 i = whichone ; i < count - 1 ; i++){... */\n      jump(tag_98)\n    tag_99:\n      pop\n        /* \"contracts/paper-01.sol\":2375:2383  pendings */\n      0x02\n        /* \"contracts/paper-01.sol\":2375:2394  pendings[count - 1] */\n      0x00\n        /* \"contracts/paper-01.sol\":2392:2393  1 */\n      0x01\n        /* \"contracts/paper-01.sol\":2384:2389  count */\n      sload(0x03)\n        /* \"contracts/paper-01.sol\":2384:2393  count - 1 */\n      tag_109\n      swap2\n      swap1\n      tag_102\n      jump\t// in\n    tag_109:\n        /* \"contracts/paper-01.sol\":2375:2394  pendings[count - 1] */\n      dup2\n      mstore\n      0x20\n      add\n      swap1\n      dup2\n      mstore\n      0x20\n      add\n      0x00\n      keccak256\n      0x00\n        /* \"contracts/paper-01.sol\":2368:2394  delete pendings[count - 1] */\n      dup1\n      dup3\n      add\n      0x00\n      tag_110\n      swap2\n      swap1\n      tag_97\n      jump\t// in\n    tag_110:\n      0x01\n      dup3\n      add\n      0x00\n      swap1\n      sstore\n      pop\n      pop\n        /* \"contracts/paper-01.sol\":2156:2402  function deletepending (uint256 whichone) external {... */\n      pop\n      jump\t// out\n        /* \"contracts/paper-01.sol\":1593:2118  function Moveoutpendingitem (uint256 whichone) public {... */\n    tag_35:\n        /* \"contracts/paper-01.sol\":1686:1694  pendings */\n      0x02\n        /* \"contracts/paper-01.sol\":1686:1704  pendings[whichone] */\n      0x00\n        /* \"contracts/paper-01.sol\":1695:1703  whichone */\n      dup3\n        /* \"contracts/paper-01.sol\":1686:1704  pendings[whichone] */\n      dup2\n      mstore\n      0x20\n      add\n      swap1\n      dup2\n      mstore\n      0x20\n      add\n      0x00\n      keccak256\n        /* \"contracts/paper-01.sol\":1686:1716  pendings[whichone].pendingtime */\n      0x01\n      add\n      sload\n        /* \"contracts/paper-01.sol\":1668:1683  block.timestamp */\n      timestamp\n        /* \"contracts/paper-01.sol\":1668:1716  block.timestamp - pendings[whichone].pendingtime */\n      tag_112\n      swap2\n      swap1\n      tag_102\n      jump\t// in\n    tag_112:\n        /* \"contracts/paper-01.sol\":1658:1665  howlong */\n      0x04\n        /* \"contracts/paper-01.sol\":1658:1716  howlong = block.timestamp - pendings[whichone].pendingtime */\n      dup2\n      swap1\n      sstore\n      pop\n        /* \"contracts/paper-01.sol\":1747:1751  3600 */\n      0x0e10\n        /* \"contracts/paper-01.sol\":1737:1744  howlong */\n      sload(0x04)\n        /* \"contracts/paper-01.sol\":1737:1751  howlong < 3600 */\n      lt\n        /* \"contracts/paper-01.sol\":1729:1825  require(howlong < 3600 , \"This item has been pending for more than 1 hours and can't be moved.\") */\n      tag_113\n      jumpi\n      mload(0x40)\n      0x08c379a000000000000000000000000000000000000000000000000000000000\n      dup2\n      mstore\n      0x04\n      add\n      tag_114\n      swap1\n      tag_115\n      jump\t// in\n    tag_114:\n      mload(0x40)\n      dup1\n      swap2\n      sub\n      swap1\n      revert\n    tag_113:\n        /* \"contracts/paper-01.sol\":1593:2118  function Moveoutpendingitem (uint256 whichone) public {... */\n      pop\n      jump\t// out\n        /* \"contracts/paper-01.sol\":2436:2567  function countpendinghowlong(uint256 whichone) public {... */\n    tag_38:\n        /* \"contracts/paper-01.sol\":2529:2537  pendings */\n      0x02\n        /* \"contracts/paper-01.sol\":2529:2547  pendings[whichone] */\n      0x00\n        /* \"contracts/paper-01.sol\":2538:2546  whichone */\n      dup3\n        /* \"contracts/paper-01.sol\":2529:2547  pendings[whichone] */\n      dup2\n      mstore\n      0x20\n      add\n      swap1\n      dup2\n      mstore\n      0x20\n      add\n      0x00\n      keccak256\n        /* \"contracts/paper-01.sol\":2529:2559  pendings[whichone].pendingtime */\n      0x01\n      add\n      sload\n        /* \"contracts/paper-01.sol\":2511:2526  block.timestamp */\n      timestamp\n        /* \"contracts/paper-01.sol\":2511:2559  block.timestamp - pendings[whichone].pendingtime */\n      tag_117\n      swap2\n      swap1\n      tag_102\n      jump\t// in\n    tag_117:\n        /* \"contracts/paper-01.sol\":2501:2508  howlong */\n      0x04\n        /* \"contracts/paper-01.sol\":2501:2559  howlong = block.timestamp - pendings[whichone].pendingtime */\n      dup2\n      swap1\n      sstore\n      pop\n        /* \"contracts/paper-01.sol\":2436:2567  function countpendinghowlong(uint256 whichone) public {... */\n      pop\n      jump\t// out\n        /* \"contracts/paper-01.sol\":2843:2925  function deleteTodo(uint256 index) external {... */\n    tag_41:\n        /* \"contracts/paper-01.sol\":2905:2910  todos */\n      0x00\n        /* \"contracts/paper-01.sol\":2911:2916  index */\n      dup2\n        /* \"contracts/paper-01.sol\":2905:2917  todos[index] */\n      dup2\n      sload\n      dup2\n      lt\n      tag_119\n      jumpi\n      tag_120\n      tag_87\n      jump\t// in\n    tag_120:\n    tag_119:\n      swap1\n      0x00\n      mstore\n      keccak256(0x00, 0x20)\n      add\n      0x00\n        /* \"contracts/paper-01.sol\":2898:2917  delete todos[index] */\n      tag_122\n      swap2\n      swap1\n      tag_97\n      jump\t// in\n    tag_122:\n        /* \"contracts/paper-01.sol\":2843:2925  function deleteTodo(uint256 index) external {... */\n      pop\n      jump\t// out\n        /* \"contracts/paper-01.sol\":333:376  mapping(uint=>pendingitems) public pendings */\n    tag_44:\n      mstore(0x20, 0x02)\n      dup1\n      0x00\n      mstore\n      keccak256(0x00, 0x40)\n      0x00\n      swap2\n      pop\n      swap1\n      pop\n      dup1\n      0x00\n      add\n      dup1\n      sload\n      tag_123\n      swap1\n      tag_90\n      jump\t// in\n    tag_123:\n      dup1\n      0x1f\n      add\n      0x20\n      dup1\n      swap2\n      div\n      mul\n      0x20\n      add\n      mload(0x40)\n      swap1\n      dup2\n      add\n      0x40\n      mstore\n      dup1\n      swap3\n      swap2\n      swap1\n      dup2\n      dup2\n      mstore\n      0x20\n      add\n      dup3\n      dup1\n      sload\n      tag_124\n      swap1\n      tag_90\n      jump\t// in\n    tag_124:\n      dup1\n      iszero\n      tag_125\n      jumpi\n      dup1\n      0x1f\n      lt\n      tag_126\n      jumpi\n      0x0100\n      dup1\n      dup4\n      sload\n      div\n      mul\n      dup4\n      mstore\n      swap2\n      0x20\n      add\n      swap2\n      jump(tag_125)\n    tag_126:\n      dup3\n      add\n      swap2\n      swap1\n      0x00\n      mstore\n      keccak256(0x00, 0x20)\n      swap1\n    tag_127:\n      dup2\n      sload\n      dup2\n      mstore\n      swap1\n      0x01\n      add\n      swap1\n      0x20\n      add\n      dup1\n      dup4\n      gt\n      tag_127\n      jumpi\n      dup3\n      swap1\n      sub\n      0x1f\n      and\n      dup3\n      add\n      swap2\n    tag_125:\n      pop\n      pop\n      pop\n      pop\n      pop\n      swap1\n      dup1\n      0x01\n      add\n      sload\n      swap1\n      pop\n      dup3\n      jump\t// out\n        /* \"contracts/paper-01.sol\":632:711  function addTodo(string memory todo) public {... */\n    tag_50:\n        /* \"contracts/paper-01.sol\":687:692  todos */\n      0x00\n        /* \"contracts/paper-01.sol\":698:702  todo */\n      dup2\n        /* \"contracts/paper-01.sol\":687:703  todos.push(todo) */\n      swap1\n      dup1\n      0x01\n      dup2\n      sload\n      add\n      dup1\n      dup3\n      sstore\n      dup1\n      swap2\n      pop\n      pop\n      0x01\n      swap1\n      sub\n      swap1\n      0x00\n      mstore\n      keccak256(0x00, 0x20)\n      add\n      0x00\n      swap1\n      swap2\n      swap1\n      swap2\n      swap1\n      swap2\n      pop\n      swap1\n      dup2\n      tag_130\n      swap2\n      swap1\n      tag_131\n      jump\t// in\n    tag_130:\n      pop\n        /* \"contracts/paper-01.sol\":632:711  function addTodo(string memory todo) public {... */\n      pop\n      jump\t// out\n        /* \"contracts/paper-01.sol\":3062:3155  function getAllTodo() external view returns (string[] memory) {... */\n    tag_52:\n        /* \"contracts/paper-01.sol\":3107:3122  string[] memory */\n      0x60\n        /* \"contracts/paper-01.sol\":3142:3147  todos */\n      0x00\n        /* \"contracts/paper-01.sol\":3135:3147  return todos */\n      dup1\n      sload\n      dup1\n      0x20\n      mul\n      0x20\n      add\n      mload(0x40)\n      swap1\n      dup2\n      add\n      0x40\n      mstore\n      dup1\n      swap3\n      swap2\n      swap1\n      dup2\n      dup2\n      mstore\n      0x20\n      add\n      0x00\n      swap1\n    tag_133:\n      dup3\n      dup3\n      lt\n      iszero\n      tag_134\n      jumpi\n      dup4\n      dup3\n      swap1\n      0x00\n      mstore\n      keccak256(0x00, 0x20)\n      add\n      dup1\n      sload\n      tag_136\n      swap1\n      tag_90\n      jump\t// in\n    tag_136:\n      dup1\n      0x1f\n      add\n      0x20\n      dup1\n      swap2\n      div\n      mul\n      0x20\n      add\n      mload(0x40)\n      swap1\n      dup2\n      add\n      0x40\n      mstore\n      dup1\n      swap3\n      swap2\n      swap1\n      dup2\n      dup2\n      mstore\n      0x20\n      add\n      dup3\n      dup1\n      sload\n      tag_137\n      swap1\n      tag_90\n      jump\t// in\n    tag_137:\n      dup1\n      iszero\n      tag_138\n      jumpi\n      dup1\n      0x1f\n      lt\n      tag_139\n      jumpi\n      0x0100\n      dup1\n      dup4\n      sload\n      div\n      mul\n      dup4\n      mstore\n      swap2\n      0x20\n      add\n      swap2\n      jump(tag_138)\n    tag_139:\n      dup3\n      add\n      swap2\n      swap1\n      0x00\n      mstore\n      keccak256(0x00, 0x20)\n      swap1\n    tag_140:\n      dup2\n      sload\n      dup2\n      mstore\n      swap1\n      0x01\n      add\n      swap1\n      0x20\n      add\n      dup1\n      dup4\n      gt\n      tag_140\n      jumpi\n      dup3\n      swap1\n      sub\n      0x1f\n      and\n      dup3\n      add\n      swap2\n    tag_138:\n      pop\n      pop\n      pop\n      pop\n      pop\n      dup2\n      mstore\n      0x20\n      add\n      swap1\n      0x01\n      add\n      swap1\n      jump(tag_133)\n    tag_134:\n      pop\n      pop\n      pop\n      pop\n      swap1\n      pop\n        /* \"contracts/paper-01.sol\":3062:3155  function getAllTodo() external view returns (string[] memory) {... */\n      swap1\n      jump\t// out\n        /* \"contracts/paper-01.sol\":89:110  string[] public todos */\n    tag_57:\n      0x00\n      dup2\n      dup2\n      sload\n      dup2\n      lt\n      tag_141\n      jumpi\n      0x00\n      dup1\n      revert\n    tag_141:\n      swap1\n      0x00\n      mstore\n      keccak256(0x00, 0x20)\n      add\n      0x00\n      swap2\n      pop\n      swap1\n      pop\n      dup1\n      sload\n      tag_143\n      swap1\n      tag_90\n      jump\t// in\n    tag_143:\n      dup1\n      0x1f\n      add\n      0x20\n      dup1\n      swap2\n      div\n      mul\n      0x20\n      add\n      mload(0x40)\n      swap1\n      dup2\n      add\n      0x40\n      mstore\n      dup1\n      swap3\n      swap2\n      swap1\n      dup2\n      dup2\n      mstore\n      0x20\n      add\n      dup3\n      dup1\n      sload\n      tag_144\n      swap1\n      tag_90\n      jump\t// in\n    tag_144:\n      dup1\n      iszero\n      tag_145\n      jumpi\n      dup1\n      0x1f\n      lt\n      tag_146\n      jumpi\n      0x0100\n      dup1\n      dup4\n      sload\n      div\n      mul\n      dup4\n      mstore\n      swap2\n      0x20\n      add\n      swap2\n      jump(tag_145)\n    tag_146:\n      dup3\n      add\n      swap2\n      swap1\n      0x00\n      mstore\n      keccak256(0x00, 0x20)\n      swap1\n    tag_147:\n      dup2\n      sload\n      dup2\n      mstore\n      swap1\n      0x01\n      add\n      swap1\n      0x20\n      add\n      dup1\n      dup4\n      gt\n      tag_147\n      jumpi\n      dup3\n      swap1\n      sub\n      0x1f\n      and\n      dup3\n      add\n      swap2\n    tag_145:\n      pop\n      pop\n      pop\n      pop\n      pop\n      dup2\n      jump\t// out\n        /* \"contracts/paper-01.sol\":425:444  uint public howlong */\n    tag_60:\n      sload(0x04)\n      dup2\n      jump\t// out\n        /* \"contracts/paper-01.sol\":1117:1506  function setpending (uint256 whichone) external {... */\n    tag_65:\n        /* \"contracts/paper-01.sol\":1178:1203  string memory pendingitem */\n      0x00\n        /* \"contracts/paper-01.sol\":1206:1211  todos */\n      dup1\n        /* \"contracts/paper-01.sol\":1212:1220  whichone */\n      dup3\n        /* \"contracts/paper-01.sol\":1206:1221  todos[whichone] */\n      dup2\n      sload\n      dup2\n      lt\n      tag_149\n      jumpi\n      tag_150\n      tag_87\n      jump\t// in\n    tag_150:\n    tag_149:\n      swap1\n      0x00\n      mstore\n      keccak256(0x00, 0x20)\n      add\n        /* \"contracts/paper-01.sol\":1178:1221  string memory pendingitem = todos[whichone] */\n      dup1\n      sload\n      tag_152\n      swap1\n      tag_90\n      jump\t// in\n    tag_152:\n      dup1\n      0x1f\n      add\n      0x20\n      dup1\n      swap2\n      div\n      mul\n      0x20\n      add\n      mload(0x40)\n      swap1\n      dup2\n      add\n      0x40\n      mstore\n      dup1\n      swap3\n      swap2\n      swap1\n      dup2\n      dup2\n      mstore\n      0x20\n      add\n      dup3\n      dup1\n      sload\n      tag_153\n      swap1\n      tag_90\n      jump\t// in\n    tag_153:\n      dup1\n      iszero\n      tag_154\n      jumpi\n      dup1\n      0x1f\n      lt\n      tag_155\n      jumpi\n      0x0100\n      dup1\n      dup4\n      sload\n      div\n      mul\n      dup4\n      mstore\n      swap2\n      0x20\n      add\n      swap2\n      jump(tag_154)\n    tag_155:\n      dup3\n      add\n      swap2\n      swap1\n      0x00\n      mstore\n      keccak256(0x00, 0x20)\n      swap1\n    tag_156:\n      dup2\n      sload\n      dup2\n      mstore\n      swap1\n      0x01\n      add\n      swap1\n      0x20\n      add\n      dup1\n      dup4\n      gt\n      tag_156\n      jumpi\n      dup3\n      swap1\n      sub\n      0x1f\n      and\n      dup3\n      add\n      swap2\n    tag_154:\n      pop\n      pop\n      pop\n      pop\n      pop\n      swap1\n      pop\n        /* \"contracts/paper-01.sol\":1247:1256  uint256 i */\n      0x00\n        /* \"contracts/paper-01.sol\":1259:1267  whichone */\n      dup3\n        /* \"contracts/paper-01.sol\":1247:1267  uint256 i = whichone */\n      swap1\n      pop\n        /* \"contracts/paper-01.sol\":1242:1345  for (uint256 i = whichone; i < todos.length - 1; i++){... */\n    tag_157:\n        /* \"contracts/paper-01.sol\":1288:1289  1 */\n      0x01\n        /* \"contracts/paper-01.sol\":1273:1278  todos */\n      0x00\n        /* \"contracts/paper-01.sol\":1273:1285  todos.length */\n      dup1\n      sload\n      swap1\n      pop\n        /* \"contracts/paper-01.sol\":1273:1289  todos.length - 1 */\n      tag_160\n      swap2\n      swap1\n      tag_102\n      jump\t// in\n    tag_160:\n        /* \"contracts/paper-01.sol\":1269:1270  i */\n      dup2\n        /* \"contracts/paper-01.sol\":1269:1289  i < todos.length - 1 */\n      lt\n        /* \"contracts/paper-01.sol\":1242:1345  for (uint256 i = whichone; i < todos.length - 1; i++){... */\n      iszero\n      tag_158\n      jumpi\n        /* \"contracts/paper-01.sol\":1321:1326  todos */\n      0x00\n        /* \"contracts/paper-01.sol\":1331:1332  1 */\n      0x01\n        /* \"contracts/paper-01.sol\":1327:1328  i */\n      dup3\n        /* \"contracts/paper-01.sol\":1327:1332  i + 1 */\n      tag_161\n      swap2\n      swap1\n      tag_104\n      jump\t// in\n    tag_161:\n        /* \"contracts/paper-01.sol\":1321:1333  todos[i + 1] */\n      dup2\n      sload\n      dup2\n      lt\n      tag_162\n      jumpi\n      tag_163\n      tag_87\n      jump\t// in\n    tag_163:\n    tag_162:\n      swap1\n      0x00\n      mstore\n      keccak256(0x00, 0x20)\n      add\n        /* \"contracts/paper-01.sol\":1310:1315  todos */\n      0x00\n        /* \"contracts/paper-01.sol\":1316:1317  i */\n      dup3\n        /* \"contracts/paper-01.sol\":1310:1318  todos[i] */\n      dup2\n      sload\n      dup2\n      lt\n      tag_165\n      jumpi\n      tag_166\n      tag_87\n      jump\t// in\n    tag_166:\n    tag_165:\n      swap1\n      0x00\n      mstore\n      keccak256(0x00, 0x20)\n      add\n        /* \"contracts/paper-01.sol\":1310:1333  todos[i] = todos[i + 1] */\n      swap1\n      dup2\n      tag_168\n      swap2\n      swap1\n      tag_169\n      jump\t// in\n    tag_168:\n      pop\n        /* \"contracts/paper-01.sol\":1291:1294  i++ */\n      dup1\n      dup1\n      tag_170\n      swap1\n      tag_108\n      jump\t// in\n    tag_170:\n      swap2\n      pop\n      pop\n        /* \"contracts/paper-01.sol\":1242:1345  for (uint256 i = whichone; i < todos.length - 1; i++){... */\n      jump(tag_157)\n    tag_158:\n      pop\n        /* \"contracts/paper-01.sol\":1362:1367  todos */\n      0x00\n        /* \"contracts/paper-01.sol\":1383:1384  1 */\n      0x01\n        /* \"contracts/paper-01.sol\":1368:1373  todos */\n      0x00\n        /* \"contracts/paper-01.sol\":1368:1380  todos.length */\n      dup1\n      sload\n      swap1\n      pop\n        /* \"contracts/paper-01.sol\":1368:1384  todos.length - 1 */\n      tag_171\n      swap2\n      swap1\n      tag_102\n      jump\t// in\n    tag_171:\n        /* \"contracts/paper-01.sol\":1362:1385  todos[todos.length - 1] */\n      dup2\n      sload\n      dup2\n      lt\n      tag_172\n      jumpi\n      tag_173\n      tag_87\n      jump\t// in\n    tag_173:\n    tag_172:\n      swap1\n      0x00\n      mstore\n      keccak256(0x00, 0x20)\n      add\n      0x00\n        /* \"contracts/paper-01.sol\":1355:1385  delete todos[todos.length - 1] */\n      tag_175\n      swap2\n      swap1\n      tag_97\n      jump\t// in\n    tag_175:\n        /* \"contracts/paper-01.sol\":1396:1401  todos */\n      0x00\n        /* \"contracts/paper-01.sol\":1396:1407  todos.pop() */\n      dup1\n      sload\n      dup1\n      tag_176\n      jumpi\n      tag_177\n      tag_178\n      jump\t// in\n    tag_177:\n    tag_176:\n      0x01\n      swap1\n      sub\n      dup2\n      dup2\n      swap1\n      0x00\n      mstore\n      keccak256(0x00, 0x20)\n      add\n      0x00\n      tag_180\n      swap2\n      swap1\n      tag_97\n      jump\t// in\n    tag_180:\n      swap1\n      sstore\n        /* \"contracts/paper-01.sol\":1438:1480  pendingitems(pendingitem, block.timestamp) */\n      mload(0x40)\n      dup1\n      0x40\n      add\n      0x40\n      mstore\n      dup1\n        /* \"contracts/paper-01.sol\":1451:1462  pendingitem */\n      dup3\n        /* \"contracts/paper-01.sol\":1438:1480  pendingitems(pendingitem, block.timestamp) */\n      dup2\n      mstore\n      0x20\n      add\n        /* \"contracts/paper-01.sol\":1464:1479  block.timestamp */\n      timestamp\n        /* \"contracts/paper-01.sol\":1438:1480  pendingitems(pendingitem, block.timestamp) */\n      dup2\n      mstore\n      pop\n        /* \"contracts/paper-01.sol\":1420:1428  pendings */\n      0x02\n        /* \"contracts/paper-01.sol\":1420:1435  pendings[count] */\n      0x00\n        /* \"contracts/paper-01.sol\":1429:1434  count */\n      sload(0x03)\n        /* \"contracts/paper-01.sol\":1420:1435  pendings[count] */\n      dup2\n      mstore\n      0x20\n      add\n      swap1\n      dup2\n      mstore\n      0x20\n      add\n      0x00\n      keccak256\n        /* \"contracts/paper-01.sol\":1420:1480  pendings[count] = pendingitems(pendingitem, block.timestamp) */\n      0x00\n      dup3\n      add\n      mload\n      dup2\n      0x00\n      add\n      swap1\n      dup2\n      tag_181\n      swap2\n      swap1\n      tag_131\n      jump\t// in\n    tag_181:\n      pop\n      0x20\n      dup3\n      add\n      mload\n      dup2\n      0x01\n      add\n      sstore\n      swap1\n      pop\n      pop\n        /* \"contracts/paper-01.sol\":1491:1496  count */\n      0x03\n      0x00\n        /* \"contracts/paper-01.sol\":1491:1498  count++ */\n      dup2\n      sload\n      dup1\n      swap3\n      swap2\n      swap1\n      tag_182\n      swap1\n      tag_108\n      jump\t// in\n    tag_182:\n      swap2\n      swap1\n      pop\n      sstore\n      pop\n        /* \"contracts/paper-01.sol\":1165:1506  {... */\n      pop\n        /* \"contracts/paper-01.sol\":1117:1506  function setpending (uint256 whichone) external {... */\n      pop\n      jump\t// out\n        /* \"contracts/paper-01.sol\":2727:2835  function getTodo(uint256 index) external view returns (string memory) {... */\n    tag_68:\n        /* \"contracts/paper-01.sol\":2782:2795  string memory */\n      0x60\n        /* \"contracts/paper-01.sol\":2815:2820  todos */\n      0x00\n        /* \"contracts/paper-01.sol\":2821:2826  index */\n      dup3\n        /* \"contracts/paper-01.sol\":2815:2827  todos[index] */\n      dup2\n      sload\n      dup2\n      lt\n      tag_184\n      jumpi\n      tag_185\n      tag_87\n      jump\t// in\n    tag_185:\n    tag_184:\n      swap1\n      0x00\n      mstore\n      keccak256(0x00, 0x20)\n      add\n        /* \"contracts/paper-01.sol\":2808:2827  return todos[index] */\n      dup1\n      sload\n      tag_187\n      swap1\n      tag_90\n      jump\t// in\n    tag_187:\n      dup1\n      0x1f\n      add\n      0x20\n      dup1\n      swap2\n      div\n      mul\n      0x20\n      add\n      mload(0x40)\n      swap1\n      dup2\n      add\n      0x40\n      mstore\n      dup1\n      swap3\n      swap2\n      swap1\n      dup2\n      dup2\n      mstore\n      0x20\n      add\n      dup3\n      dup1\n      sload\n      tag_188\n      swap1\n      tag_90\n      jump\t// in\n    tag_188:\n      dup1\n      iszero\n      tag_189\n      jumpi\n      dup1\n      0x1f\n      lt\n      tag_190\n      jumpi\n      0x0100\n      dup1\n      dup4\n      sload\n      div\n      mul\n      dup4\n      mstore\n      swap2\n      0x20\n      add\n      swap2\n      jump(tag_189)\n    tag_190:\n      dup3\n      add\n      swap2\n      swap1\n      0x00\n      mstore\n      keccak256(0x00, 0x20)\n      swap1\n    tag_191:\n      dup2\n      sload\n      dup2\n      mstore\n      swap1\n      0x01\n      add\n      swap1\n      0x20\n      add\n      dup1\n      dup4\n      gt\n      tag_191\n      jumpi\n      dup3\n      swap1\n      sub\n      0x1f\n      and\n      dup3\n      add\n      swap2\n    tag_189:\n      pop\n      pop\n      pop\n      pop\n      pop\n      swap1\n      pop\n        /* \"contracts/paper-01.sol\":2727:2835  function getTodo(uint256 index) external view returns (string memory) {... */\n      swap2\n      swap1\n      pop\n      jump\t// out\n        /* \"contracts/paper-01.sol\":3163:3269  function getAllCompleted() external view returns (string[] memory) {... */\n    tag_71:\n        /* \"contracts/paper-01.sol\":3213:3228  string[] memory */\n      0x60\n        /* \"contracts/paper-01.sol\":3248:3261  todoCompleted */\n      0x01\n        /* \"contracts/paper-01.sol\":3241:3261  return todoCompleted */\n      dup1\n      sload\n      dup1\n      0x20\n      mul\n      0x20\n      add\n      mload(0x40)\n      swap1\n      dup2\n      add\n      0x40\n      mstore\n      dup1\n      swap3\n      swap2\n      swap1\n      dup2\n      dup2\n      mstore\n      0x20\n      add\n      0x00\n      swap1\n    tag_193:\n      dup3\n      dup3\n      lt\n      iszero\n      tag_194\n      jumpi\n      dup4\n      dup3\n      swap1\n      0x00\n      mstore\n      keccak256(0x00, 0x20)\n      add\n      dup1\n      sload\n      tag_196\n      swap1\n      tag_90\n      jump\t// in\n    tag_196:\n      dup1\n      0x1f\n      add\n      0x20\n      dup1\n      swap2\n      div\n      mul\n      0x20\n      add\n      mload(0x40)\n      swap1\n      dup2\n      add\n      0x40\n      mstore\n      dup1\n      swap3\n      swap2\n      swap1\n      dup2\n      dup2\n      mstore\n      0x20\n      add\n      dup3\n      dup1\n      sload\n      tag_197\n      swap1\n      tag_90\n      jump\t// in\n    tag_197:\n      dup1\n      iszero\n      tag_198\n      jumpi\n      dup1\n      0x1f\n      lt\n      tag_199\n      jumpi\n      0x0100\n      dup1\n      dup4\n      sload\n      div\n      mul\n      dup4\n      mstore\n      swap2\n      0x20\n      add\n      swap2\n      jump(tag_198)\n    tag_199:\n      dup3\n      add\n      swap2\n      swap1\n      0x00\n      mstore\n      keccak256(0x00, 0x20)\n      swap1\n    tag_200:\n      dup2\n      sload\n      dup2\n      mstore\n      swap1\n      0x01\n      add\n      swap1\n      0x20\n      add\n      dup1\n      dup4\n      gt\n      tag_200\n      jumpi\n      dup3\n      swap1\n      sub\n      0x1f\n      and\n      dup3\n      add\n      swap2\n    tag_198:\n      pop\n      pop\n      pop\n      pop\n      pop\n      dup2\n      mstore\n      0x20\n      add\n      swap1\n      0x01\n      add\n      swap1\n      jump(tag_193)\n    tag_194:\n      pop\n      pop\n      pop\n      pop\n      swap1\n      pop\n        /* \"contracts/paper-01.sol\":3163:3269  function getAllCompleted() external view returns (string[] memory) {... */\n      swap1\n      jump\t// out\n        /* \"contracts/paper-01.sol\":745:1083  function setCompleted(uint256 index) external {... */\n    tag_75:\n        /* \"contracts/paper-01.sol\":804:831  string memory completedTodo */\n      0x00\n        /* \"contracts/paper-01.sol\":834:839  todos */\n      dup1\n        /* \"contracts/paper-01.sol\":840:845  index */\n      dup3\n        /* \"contracts/paper-01.sol\":834:846  todos[index] */\n      dup2\n      sload\n      dup2\n      lt\n      tag_202\n      jumpi\n      tag_203\n      tag_87\n      jump\t// in\n    tag_203:\n    tag_202:\n      swap1\n      0x00\n      mstore\n      keccak256(0x00, 0x20)\n      add\n        /* \"contracts/paper-01.sol\":804:846  string memory completedTodo = todos[index] */\n      dup1\n      sload\n      tag_205\n      swap1\n      tag_90\n      jump\t// in\n    tag_205:\n      dup1\n      0x1f\n      add\n      0x20\n      dup1\n      swap2\n      div\n      mul\n      0x20\n      add\n      mload(0x40)\n      swap1\n      dup2\n      add\n      0x40\n      mstore\n      dup1\n      swap3\n      swap2\n      swap1\n      dup2\n      dup2\n      mstore\n      0x20\n      add\n      dup3\n      dup1\n      sload\n      tag_206\n      swap1\n      tag_90\n      jump\t// in\n    tag_206:\n      dup1\n      iszero\n      tag_207\n      jumpi\n      dup1\n      0x1f\n      lt\n      tag_208\n      jumpi\n      0x0100\n      dup1\n      dup4\n      sload\n      div\n      mul\n      dup4\n      mstore\n      swap2\n      0x20\n      add\n      swap2\n      jump(tag_207)\n    tag_208:\n      dup3\n      add\n      swap2\n      swap1\n      0x00\n      mstore\n      keccak256(0x00, 0x20)\n      swap1\n    tag_209:\n      dup2\n      sload\n      dup2\n      mstore\n      swap1\n      0x01\n      add\n      swap1\n      0x20\n      add\n      dup1\n      dup4\n      gt\n      tag_209\n      jumpi\n      dup3\n      swap1\n      sub\n      0x1f\n      and\n      dup3\n      add\n      swap2\n    tag_207:\n      pop\n      pop\n      pop\n      pop\n      pop\n      swap1\n      pop\n        /* \"contracts/paper-01.sol\":872:881  uint256 i */\n      0x00\n        /* \"contracts/paper-01.sol\":884:889  index */\n      dup3\n        /* \"contracts/paper-01.sol\":872:889  uint256 i = index */\n      swap1\n      pop\n        /* \"contracts/paper-01.sol\":867:967  for (uint256 i = index; i < todos.length - 1; i++){... */\n    tag_210:\n        /* \"contracts/paper-01.sol\":910:911  1 */\n      0x01\n        /* \"contracts/paper-01.sol\":895:900  todos */\n      0x00\n        /* \"contracts/paper-01.sol\":895:907  todos.length */\n      dup1\n      sload\n      swap1\n      pop\n        /* \"contracts/paper-01.sol\":895:911  todos.length - 1 */\n      tag_213\n      swap2\n      swap1\n      tag_102\n      jump\t// in\n    tag_213:\n        /* \"contracts/paper-01.sol\":891:892  i */\n      dup2\n        /* \"contracts/paper-01.sol\":891:911  i < todos.length - 1 */\n      lt\n        /* \"contracts/paper-01.sol\":867:967  for (uint256 i = index; i < todos.length - 1; i++){... */\n      iszero\n      tag_211\n      jumpi\n        /* \"contracts/paper-01.sol\":943:948  todos */\n      0x00\n        /* \"contracts/paper-01.sol\":953:954  1 */\n      0x01\n        /* \"contracts/paper-01.sol\":949:950  i */\n      dup3\n        /* \"contracts/paper-01.sol\":949:954  i + 1 */\n      tag_214\n      swap2\n      swap1\n      tag_104\n      jump\t// in\n    tag_214:\n        /* \"contracts/paper-01.sol\":943:955  todos[i + 1] */\n      dup2\n      sload\n      dup2\n      lt\n      tag_215\n      jumpi\n      tag_216\n      tag_87\n      jump\t// in\n    tag_216:\n    tag_215:\n      swap1\n      0x00\n      mstore\n      keccak256(0x00, 0x20)\n      add\n        /* \"contracts/paper-01.sol\":932:937  todos */\n      0x00\n        /* \"contracts/paper-01.sol\":938:939  i */\n      dup3\n        /* \"contracts/paper-01.sol\":932:940  todos[i] */\n      dup2\n      sload\n      dup2\n      lt\n      tag_218\n      jumpi\n      tag_219\n      tag_87\n      jump\t// in\n    tag_219:\n    tag_218:\n      swap1\n      0x00\n      mstore\n      keccak256(0x00, 0x20)\n      add\n        /* \"contracts/paper-01.sol\":932:955  todos[i] = todos[i + 1] */\n      swap1\n      dup2\n      tag_221\n      swap2\n      swap1\n      tag_169\n      jump\t// in\n    tag_221:\n      pop\n        /* \"contracts/paper-01.sol\":913:916  i++ */\n      dup1\n      dup1\n      tag_222\n      swap1\n      tag_108\n      jump\t// in\n    tag_222:\n      swap2\n      pop\n      pop\n        /* \"contracts/paper-01.sol\":867:967  for (uint256 i = index; i < todos.length - 1; i++){... */\n      jump(tag_210)\n    tag_211:\n      pop\n        /* \"contracts/paper-01.sol\":984:989  todos */\n      0x00\n        /* \"contracts/paper-01.sol\":1005:1006  1 */\n      0x01\n        /* \"contracts/paper-01.sol\":990:995  todos */\n      0x00\n        /* \"contracts/paper-01.sol\":990:1002  todos.length */\n      dup1\n      sload\n      swap1\n      pop\n        /* \"contracts/paper-01.sol\":990:1006  todos.length - 1 */\n      tag_223\n      swap2\n      swap1\n      tag_102\n      jump\t// in\n    tag_223:\n        /* \"contracts/paper-01.sol\":984:1007  todos[todos.length - 1] */\n      dup2\n      sload\n      dup2\n      lt\n      tag_224\n      jumpi\n      tag_225\n      tag_87\n      jump\t// in\n    tag_225:\n    tag_224:\n      swap1\n      0x00\n      mstore\n      keccak256(0x00, 0x20)\n      add\n      0x00\n        /* \"contracts/paper-01.sol\":977:1007  delete todos[todos.length - 1] */\n      tag_227\n      swap2\n      swap1\n      tag_97\n      jump\t// in\n    tag_227:\n        /* \"contracts/paper-01.sol\":1018:1023  todos */\n      0x00\n        /* \"contracts/paper-01.sol\":1018:1029  todos.pop() */\n      dup1\n      sload\n      dup1\n      tag_228\n      jumpi\n      tag_229\n      tag_178\n      jump\t// in\n    tag_229:\n    tag_228:\n      0x01\n      swap1\n      sub\n      dup2\n      dup2\n      swap1\n      0x00\n      mstore\n      keccak256(0x00, 0x20)\n      add\n      0x00\n      tag_231\n      swap2\n      swap1\n      tag_97\n      jump\t// in\n    tag_231:\n      swap1\n      sstore\n        /* \"contracts/paper-01.sol\":1042:1055  todoCompleted */\n      0x01\n        /* \"contracts/paper-01.sol\":1061:1074  completedTodo */\n      dup2\n        /* \"contracts/paper-01.sol\":1042:1075  todoCompleted.push(completedTodo) */\n      swap1\n      dup1\n      0x01\n      dup2\n      sload\n      add\n      dup1\n      dup3\n      sstore\n      dup1\n      swap2\n      pop\n      pop\n      0x01\n      swap1\n      sub\n      swap1\n      0x00\n      mstore\n      keccak256(0x00, 0x20)\n      add\n      0x00\n      swap1\n      swap2\n      swap1\n      swap2\n      swap1\n      swap2\n      pop\n      swap1\n      dup2\n      tag_233\n      swap2\n      swap1\n      tag_131\n      jump\t// in\n    tag_233:\n      pop\n        /* \"contracts/paper-01.sol\":791:1083  {... */\n      pop\n        /* \"contracts/paper-01.sol\":745:1083  function setCompleted(uint256 index) external {... */\n      pop\n      jump\t// out\n        /* \"contracts/paper-01.sol\":117:146  string[] public todoCompleted */\n    tag_78:\n      0x01\n      dup2\n      dup2\n      sload\n      dup2\n      lt\n      tag_234\n      jumpi\n      0x00\n      dup1\n      revert\n    tag_234:\n      swap1\n      0x00\n      mstore\n      keccak256(0x00, 0x20)\n      add\n      0x00\n      swap2\n      pop\n      swap1\n      pop\n      dup1\n      sload\n      tag_236\n      swap1\n      tag_90\n      jump\t// in\n    tag_236:\n      dup1\n      0x1f\n      add\n      0x20\n      dup1\n      swap2\n      div\n      mul\n      0x20\n      add\n      mload(0x40)\n      swap1\n      dup2\n      add\n      0x40\n      mstore\n      dup1\n      swap3\n      swap2\n      swap1\n      dup2\n      dup2\n      mstore\n      0x20\n      add\n      dup3\n      dup1\n      sload\n      tag_237\n      swap1\n      tag_90\n      jump\t// in\n    tag_237:\n      dup1\n      iszero\n      tag_238\n      jumpi\n      dup1\n      0x1f\n      lt\n      tag_239\n      jumpi\n      0x0100\n      dup1\n      dup4\n      sload\n      div\n      mul\n      dup4\n      mstore\n      swap2\n      0x20\n      add\n      swap2\n      jump(tag_238)\n    tag_239:\n      dup3\n      add\n      swap2\n      swap1\n      0x00\n      mstore\n      keccak256(0x00, 0x20)\n      swap1\n    tag_240:\n      dup2\n      sload\n      dup2\n      mstore\n      swap1\n      0x01\n      add\n      swap1\n      0x20\n      add\n      dup1\n      dup4\n      gt\n      tag_240\n      jumpi\n      dup3\n      swap1\n      sub\n      0x1f\n      and\n      dup3\n      add\n      swap2\n    tag_238:\n      pop\n      pop\n      pop\n      pop\n      pop\n      dup2\n      jump\t// out\n    tag_82:\n      pop\n      dup1\n      sload\n      0x00\n      dup3\n      sstore\n      swap1\n      0x00\n      mstore\n      keccak256(0x00, 0x20)\n      swap1\n      dup2\n      add\n      swap1\n      tag_242\n      swap2\n      swap1\n      tag_243\n      jump\t// in\n    tag_242:\n      pop\n      jump\t// out\n    tag_97:\n      pop\n      dup1\n      sload\n      tag_244\n      swap1\n      tag_90\n      jump\t// in\n    tag_244:\n      0x00\n      dup3\n      sstore\n      dup1\n      0x1f\n      lt\n      tag_246\n      jumpi\n      pop\n      jump(tag_245)\n    tag_246:\n      0x1f\n      add\n      0x20\n      swap1\n      div\n      swap1\n      0x00\n      mstore\n      keccak256(0x00, 0x20)\n      swap1\n      dup2\n      add\n      swap1\n      tag_247\n      swap2\n      swap1\n      tag_248\n      jump\t// in\n    tag_247:\n    tag_245:\n      pop\n      jump\t// out\n    tag_243:\n    tag_249:\n      dup1\n      dup3\n      gt\n      iszero\n      tag_250\n      jumpi\n      0x00\n      dup2\n      dup2\n      tag_251\n      swap2\n      swap1\n      tag_97\n      jump\t// in\n    tag_251:\n      pop\n      0x01\n      add\n      jump(tag_249)\n    tag_250:\n      pop\n      swap1\n      jump\t// out\n    tag_248:\n    tag_252:\n      dup1\n      dup3\n      gt\n      iszero\n      tag_253\n      jumpi\n      0x00\n      dup2\n      0x00\n      swap1\n      sstore\n      pop\n      0x01\n      add\n      jump(tag_252)\n    tag_253:\n      pop\n      swap1\n      jump\t// out\n        /* \"#utility.yul\":7:82   */\n    tag_254:\n        /* \"#utility.yul\":40:46   */\n      0x00\n        /* \"#utility.yul\":73:75   */\n      0x40\n        /* \"#utility.yul\":67:76   */\n      mload\n        /* \"#utility.yul\":57:76   */\n      swap1\n      pop\n        /* \"#utility.yul\":7:82   */\n      swap1\n      jump\t// out\n        /* \"#utility.yul\":88:205   */\n    tag_255:\n        /* \"#utility.yul\":197:198   */\n      0x00\n        /* \"#utility.yul\":194:195   */\n      dup1\n        /* \"#utility.yul\":187:199   */\n      revert\n        /* \"#utility.yul\":211:328   */\n    tag_256:\n        /* \"#utility.yul\":320:321   */\n      0x00\n        /* \"#utility.yul\":317:318   */\n      dup1\n        /* \"#utility.yul\":310:322   */\n      revert\n        /* \"#utility.yul\":334:411   */\n    tag_257:\n        /* \"#utility.yul\":371:378   */\n      0x00\n        /* \"#utility.yul\":400:405   */\n      dup2\n        /* \"#utility.yul\":389:405   */\n      swap1\n      pop\n        /* \"#utility.yul\":334:411   */\n      swap2\n      swap1\n      pop\n      jump\t// out\n        /* \"#utility.yul\":417:539   */\n    tag_258:\n        /* \"#utility.yul\":490:514   */\n      tag_311\n        /* \"#utility.yul\":508:513   */\n      dup2\n        /* \"#utility.yul\":490:514   */\n      tag_257\n      jump\t// in\n    tag_311:\n        /* \"#utility.yul\":483:488   */\n      dup2\n        /* \"#utility.yul\":480:515   */\n      eq\n        /* \"#utility.yul\":470:533   */\n      tag_312\n      jumpi\n        /* \"#utility.yul\":529:530   */\n      0x00\n        /* \"#utility.yul\":526:527   */\n      dup1\n        /* \"#utility.yul\":519:531   */\n      revert\n        /* \"#utility.yul\":470:533   */\n    tag_312:\n        /* \"#utility.yul\":417:539   */\n      pop\n      jump\t// out\n        /* \"#utility.yul\":545:684   */\n    tag_259:\n        /* \"#utility.yul\":591:596   */\n      0x00\n        /* \"#utility.yul\":629:635   */\n      dup2\n        /* \"#utility.yul\":616:636   */\n      calldataload\n        /* \"#utility.yul\":607:636   */\n      swap1\n      pop\n        /* \"#utility.yul\":645:678   */\n      tag_314\n        /* \"#utility.yul\":672:677   */\n      dup2\n        /* \"#utility.yul\":645:678   */\n      tag_258\n      jump\t// in\n    tag_314:\n        /* \"#utility.yul\":545:684   */\n      swap3\n      swap2\n      pop\n      pop\n      jump\t// out\n        /* \"#utility.yul\":690:1019   */\n    tag_26:\n        /* \"#utility.yul\":749:755   */\n      0x00\n        /* \"#utility.yul\":798:800   */\n      0x20\n        /* \"#utility.yul\":786:795   */\n      dup3\n        /* \"#utility.yul\":777:784   */\n      dup5\n        /* \"#utility.yul\":773:796   */\n      sub\n        /* \"#utility.yul\":769:801   */\n      slt\n        /* \"#utility.yul\":766:885   */\n      iszero\n      tag_316\n      jumpi\n        /* \"#utility.yul\":804:883   */\n      tag_317\n      tag_255\n      jump\t// in\n    tag_317:\n        /* \"#utility.yul\":766:885   */\n    tag_316:\n        /* \"#utility.yul\":924:925   */\n      0x00\n        /* \"#utility.yul\":949:1002   */\n      tag_318\n        /* \"#utility.yul\":994:1001   */\n      dup5\n        /* \"#utility.yul\":985:991   */\n      dup3\n        /* \"#utility.yul\":974:983   */\n      dup6\n        /* \"#utility.yul\":970:992   */\n      add\n        /* \"#utility.yul\":949:1002   */\n      tag_259\n      jump\t// in\n    tag_318:\n        /* \"#utility.yul\":939:1002   */\n      swap2\n      pop\n        /* \"#utility.yul\":895:1012   */\n      pop\n        /* \"#utility.yul\":690:1019   */\n      swap3\n      swap2\n      pop\n      pop\n      jump\t// out\n        /* \"#utility.yul\":1025:1124   */\n    tag_260:\n        /* \"#utility.yul\":1077:1083   */\n      0x00\n        /* \"#utility.yul\":1111:1116   */\n      dup2\n        /* \"#utility.yul\":1105:1117   */\n      mload\n        /* \"#utility.yul\":1095:1117   */\n      swap1\n      pop\n        /* \"#utility.yul\":1025:1124   */\n      swap2\n      swap1\n      pop\n      jump\t// out\n        /* \"#utility.yul\":1130:1299   */\n    tag_261:\n        /* \"#utility.yul\":1214:1225   */\n      0x00\n        /* \"#utility.yul\":1248:1254   */\n      dup3\n        /* \"#utility.yul\":1243:1246   */\n      dup3\n        /* \"#utility.yul\":1236:1255   */\n      mstore\n        /* \"#utility.yul\":1288:1292   */\n      0x20\n        /* \"#utility.yul\":1283:1286   */\n      dup3\n        /* \"#utility.yul\":1279:1293   */\n      add\n        /* \"#utility.yul\":1264:1293   */\n      swap1\n      pop\n        /* \"#utility.yul\":1130:1299   */\n      swap3\n      swap2\n      pop\n      pop\n      jump\t// out\n        /* \"#utility.yul\":1305:1551   */\n    tag_262:\n        /* \"#utility.yul\":1386:1387   */\n      0x00\n        /* \"#utility.yul\":1396:1509   */\n    tag_322:\n        /* \"#utility.yul\":1410:1416   */\n      dup4\n        /* \"#utility.yul\":1407:1408   */\n      dup2\n        /* \"#utility.yul\":1404:1417   */\n      lt\n        /* \"#utility.yul\":1396:1509   */\n      iszero\n      tag_324\n      jumpi\n        /* \"#utility.yul\":1495:1496   */\n      dup1\n        /* \"#utility.yul\":1490:1493   */\n      dup3\n        /* \"#utility.yul\":1486:1497   */\n      add\n        /* \"#utility.yul\":1480:1498   */\n      mload\n        /* \"#utility.yul\":1476:1477   */\n      dup2\n        /* \"#utility.yul\":1471:1474   */\n      dup5\n        /* \"#utility.yul\":1467:1478   */\n      add\n        /* \"#utility.yul\":1460:1499   */\n      mstore\n        /* \"#utility.yul\":1432:1434   */\n      0x20\n        /* \"#utility.yul\":1429:1430   */\n      dup2\n        /* \"#utility.yul\":1425:1435   */\n      add\n        /* \"#utility.yul\":1420:1435   */\n      swap1\n      pop\n        /* \"#utility.yul\":1396:1509   */\n      jump(tag_322)\n    tag_324:\n        /* \"#utility.yul\":1543:1544   */\n      0x00\n        /* \"#utility.yul\":1534:1540   */\n      dup5\n        /* \"#utility.yul\":1529:1532   */\n      dup5\n        /* \"#utility.yul\":1525:1541   */\n      add\n        /* \"#utility.yul\":1518:1545   */\n      mstore\n        /* \"#utility.yul\":1367:1551   */\n      pop\n        /* \"#utility.yul\":1305:1551   */\n      pop\n      pop\n      pop\n      jump\t// out\n        /* \"#utility.yul\":1557:1659   */\n    tag_263:\n        /* \"#utility.yul\":1598:1604   */\n      0x00\n        /* \"#utility.yul\":1649:1651   */\n      0x1f\n        /* \"#utility.yul\":1645:1652   */\n      not\n        /* \"#utility.yul\":1640:1642   */\n      0x1f\n        /* \"#utility.yul\":1633:1638   */\n      dup4\n        /* \"#utility.yul\":1629:1643   */\n      add\n        /* \"#utility.yul\":1625:1653   */\n      and\n        /* \"#utility.yul\":1615:1653   */\n      swap1\n      pop\n        /* \"#utility.yul\":1557:1659   */\n      swap2\n      swap1\n      pop\n      jump\t// out\n        /* \"#utility.yul\":1665:2042   */\n    tag_264:\n        /* \"#utility.yul\":1753:1756   */\n      0x00\n        /* \"#utility.yul\":1781:1820   */\n      tag_327\n        /* \"#utility.yul\":1814:1819   */\n      dup3\n        /* \"#utility.yul\":1781:1820   */\n      tag_260\n      jump\t// in\n    tag_327:\n        /* \"#utility.yul\":1836:1907   */\n      tag_328\n        /* \"#utility.yul\":1900:1906   */\n      dup2\n        /* \"#utility.yul\":1895:1898   */\n      dup6\n        /* \"#utility.yul\":1836:1907   */\n      tag_261\n      jump\t// in\n    tag_328:\n        /* \"#utility.yul\":1829:1907   */\n      swap4\n      pop\n        /* \"#utility.yul\":1916:1981   */\n      tag_329\n        /* \"#utility.yul\":1974:1980   */\n      dup2\n        /* \"#utility.yul\":1969:1972   */\n      dup6\n        /* \"#utility.yul\":1962:1966   */\n      0x20\n        /* \"#utility.yul\":1955:1960   */\n      dup7\n        /* \"#utility.yul\":1951:1967   */\n      add\n        /* \"#utility.yul\":1916:1981   */\n      tag_262\n      jump\t// in\n    tag_329:\n        /* \"#utility.yul\":2006:2035   */\n      tag_330\n        /* \"#utility.yul\":2028:2034   */\n      dup2\n        /* \"#utility.yul\":2006:2035   */\n      tag_263\n      jump\t// in\n    tag_330:\n        /* \"#utility.yul\":2001:2004   */\n      dup5\n        /* \"#utility.yul\":1997:2036   */\n      add\n        /* \"#utility.yul\":1990:2036   */\n      swap2\n      pop\n        /* \"#utility.yul\":1757:2042   */\n      pop\n        /* \"#utility.yul\":1665:2042   */\n      swap3\n      swap2\n      pop\n      pop\n      jump\t// out\n        /* \"#utility.yul\":2048:2361   */\n    tag_29:\n        /* \"#utility.yul\":2161:2165   */\n      0x00\n        /* \"#utility.yul\":2199:2201   */\n      0x20\n        /* \"#utility.yul\":2188:2197   */\n      dup3\n        /* \"#utility.yul\":2184:2202   */\n      add\n        /* \"#utility.yul\":2176:2202   */\n      swap1\n      pop\n        /* \"#utility.yul\":2248:2257   */\n      dup2\n        /* \"#utility.yul\":2242:2246   */\n      dup2\n        /* \"#utility.yul\":2238:2258   */\n      sub\n        /* \"#utility.yul\":2234:2235   */\n      0x00\n        /* \"#utility.yul\":2223:2232   */\n      dup4\n        /* \"#utility.yul\":2219:2236   */\n      add\n        /* \"#utility.yul\":2212:2259   */\n      mstore\n        /* \"#utility.yul\":2276:2354   */\n      tag_332\n        /* \"#utility.yul\":2349:2353   */\n      dup2\n        /* \"#utility.yul\":2340:2346   */\n      dup5\n        /* \"#utility.yul\":2276:2354   */\n      tag_264\n      jump\t// in\n    tag_332:\n        /* \"#utility.yul\":2268:2354   */\n      swap1\n      pop\n        /* \"#utility.yul\":2048:2361   */\n      swap3\n      swap2\n      pop\n      pop\n      jump\t// out\n        /* \"#utility.yul\":2367:2485   */\n    tag_265:\n        /* \"#utility.yul\":2454:2478   */\n      tag_334\n        /* \"#utility.yul\":2472:2477   */\n      dup2\n        /* \"#utility.yul\":2454:2478   */\n      tag_257\n      jump\t// in\n    tag_334:\n        /* \"#utility.yul\":2449:2452   */\n      dup3\n        /* \"#utility.yul\":2442:2479   */\n      mstore\n        /* \"#utility.yul\":2367:2485   */\n      pop\n      pop\n      jump\t// out\n        /* \"#utility.yul\":2491:2914   */\n    tag_46:\n        /* \"#utility.yul\":2632:2636   */\n      0x00\n        /* \"#utility.yul\":2670:2672   */\n      0x40\n        /* \"#utility.yul\":2659:2668   */\n      dup3\n        /* \"#utility.yul\":2655:2673   */\n      add\n        /* \"#utility.yul\":2647:2673   */\n      swap1\n      pop\n        /* \"#utility.yul\":2719:2728   */\n      dup2\n        /* \"#utility.yul\":2713:2717   */\n      dup2\n        /* \"#utility.yul\":2709:2729   */\n      sub\n        /* \"#utility.yul\":2705:2706   */\n      0x00\n        /* \"#utility.yul\":2694:2703   */\n      dup4\n        /* \"#utility.yul\":2690:2707   */\n      add\n        /* \"#utility.yul\":2683:2730   */\n      mstore\n        /* \"#utility.yul\":2747:2825   */\n      tag_336\n        /* \"#utility.yul\":2820:2824   */\n      dup2\n        /* \"#utility.yul\":2811:2817   */\n      dup6\n        /* \"#utility.yul\":2747:2825   */\n      tag_264\n      jump\t// in\n    tag_336:\n        /* \"#utility.yul\":2739:2825   */\n      swap1\n      pop\n        /* \"#utility.yul\":2835:2907   */\n      tag_337\n        /* \"#utility.yul\":2903:2905   */\n      0x20\n        /* \"#utility.yul\":2892:2901   */\n      dup4\n        /* \"#utility.yul\":2888:2906   */\n      add\n        /* \"#utility.yul\":2879:2885   */\n      dup5\n        /* \"#utility.yul\":2835:2907   */\n      tag_265\n      jump\t// in\n    tag_337:\n        /* \"#utility.yul\":2491:2914   */\n      swap4\n      swap3\n      pop\n      pop\n      pop\n      jump\t// out\n        /* \"#utility.yul\":2920:3037   */\n    tag_266:\n        /* \"#utility.yul\":3029:3030   */\n      0x00\n        /* \"#utility.yul\":3026:3027   */\n      dup1\n        /* \"#utility.yul\":3019:3031   */\n      revert\n        /* \"#utility.yul\":3043:3160   */\n    tag_267:\n        /* \"#utility.yul\":3152:3153   */\n      0x00\n        /* \"#utility.yul\":3149:3150   */\n      dup1\n        /* \"#utility.yul\":3142:3154   */\n      revert\n        /* \"#utility.yul\":3166:3346   */\n    tag_268:\n        /* \"#utility.yul\":3214:3291   */\n      0x4e487b7100000000000000000000000000000000000000000000000000000000\n        /* \"#utility.yul\":3211:3212   */\n      0x00\n        /* \"#utility.yul\":3204:3292   */\n      mstore\n        /* \"#utility.yul\":3311:3315   */\n      0x41\n        /* \"#utility.yul\":3308:3309   */\n      0x04\n        /* \"#utility.yul\":3301:3316   */\n      mstore\n        /* \"#utility.yul\":3335:3339   */\n      0x24\n        /* \"#utility.yul\":3332:3333   */\n      0x00\n        /* \"#utility.yul\":3325:3340   */\n      revert\n        /* \"#utility.yul\":3352:3633   */\n    tag_269:\n        /* \"#utility.yul\":3435:3462   */\n      tag_342\n        /* \"#utility.yul\":3457:3461   */\n      dup3\n        /* \"#utility.yul\":3435:3462   */\n      tag_263\n      jump\t// in\n    tag_342:\n        /* \"#utility.yul\":3427:3433   */\n      dup2\n        /* \"#utility.yul\":3423:3463   */\n      add\n        /* \"#utility.yul\":3565:3571   */\n      dup2\n        /* \"#utility.yul\":3553:3563   */\n      dup2\n        /* \"#utility.yul\":3550:3572   */\n      lt\n        /* \"#utility.yul\":3529:3547   */\n      0xffffffffffffffff\n        /* \"#utility.yul\":3517:3527   */\n      dup3\n        /* \"#utility.yul\":3514:3548   */\n      gt\n        /* \"#utility.yul\":3511:3573   */\n      or\n        /* \"#utility.yul\":3508:3596   */\n      iszero\n      tag_343\n      jumpi\n        /* \"#utility.yul\":3576:3594   */\n      tag_344\n      tag_268\n      jump\t// in\n    tag_344:\n        /* \"#utility.yul\":3508:3596   */\n    tag_343:\n        /* \"#utility.yul\":3616:3626   */\n      dup1\n        /* \"#utility.yul\":3612:3614   */\n      0x40\n        /* \"#utility.yul\":3605:3627   */\n      mstore\n        /* \"#utility.yul\":3395:3633   */\n      pop\n        /* \"#utility.yul\":3352:3633   */\n      pop\n      pop\n      jump\t// out\n        /* \"#utility.yul\":3639:3768   */\n    tag_270:\n        /* \"#utility.yul\":3673:3679   */\n      0x00\n        /* \"#utility.yul\":3700:3720   */\n      tag_346\n      tag_254\n      jump\t// in\n    tag_346:\n        /* \"#utility.yul\":3690:3720   */\n      swap1\n      pop\n        /* \"#utility.yul\":3729:3762   */\n      tag_347\n        /* \"#utility.yul\":3757:3761   */\n      dup3\n        /* \"#utility.yul\":3749:3755   */\n      dup3\n        /* \"#utility.yul\":3729:3762   */\n      tag_269\n      jump\t// in\n    tag_347:\n        /* \"#utility.yul\":3639:3768   */\n      swap2\n      swap1\n      pop\n      jump\t// out\n        /* \"#utility.yul\":3774:4082   */\n    tag_271:\n        /* \"#utility.yul\":3836:3840   */\n      0x00\n        /* \"#utility.yul\":3926:3944   */\n      0xffffffffffffffff\n        /* \"#utility.yul\":3918:3924   */\n      dup3\n        /* \"#utility.yul\":3915:3945   */\n      gt\n        /* \"#utility.yul\":3912:3968   */\n      iszero\n      tag_349\n      jumpi\n        /* \"#utility.yul\":3948:3966   */\n      tag_350\n      tag_268\n      jump\t// in\n    tag_350:\n        /* \"#utility.yul\":3912:3968   */\n    tag_349:\n        /* \"#utility.yul\":3986:4015   */\n      tag_351\n        /* \"#utility.yul\":4008:4014   */\n      dup3\n        /* \"#utility.yul\":3986:4015   */\n      tag_263\n      jump\t// in\n    tag_351:\n        /* \"#utility.yul\":3978:4015   */\n      swap1\n      pop\n        /* \"#utility.yul\":4070:4074   */\n      0x20\n        /* \"#utility.yul\":4064:4068   */\n      dup2\n        /* \"#utility.yul\":4060:4075   */\n      add\n        /* \"#utility.yul\":4052:4075   */\n      swap1\n      pop\n        /* \"#utility.yul\":3774:4082   */\n      swap2\n      swap1\n      pop\n      jump\t// out\n        /* \"#utility.yul\":4088:4234   */\n    tag_272:\n        /* \"#utility.yul\":4185:4191   */\n      dup3\n        /* \"#utility.yul\":4180:4183   */\n      dup2\n        /* \"#utility.yul\":4175:4178   */\n      dup4\n        /* \"#utility.yul\":4162:4192   */\n      calldatacopy\n        /* \"#utility.yul\":4226:4227   */\n      0x00\n        /* \"#utility.yul\":4217:4223   */\n      dup4\n        /* \"#utility.yul\":4212:4215   */\n      dup4\n        /* \"#utility.yul\":4208:4224   */\n      add\n        /* \"#utility.yul\":4201:4228   */\n      mstore\n        /* \"#utility.yul\":4088:4234   */\n      pop\n      pop\n      pop\n      jump\t// out\n        /* \"#utility.yul\":4240:4665   */\n    tag_273:\n        /* \"#utility.yul\":4318:4323   */\n      0x00\n        /* \"#utility.yul\":4343:4409   */\n      tag_354\n        /* \"#utility.yul\":4359:4408   */\n      tag_355\n        /* \"#utility.yul\":4401:4407   */\n      dup5\n        /* \"#utility.yul\":4359:4408   */\n      tag_271\n      jump\t// in\n    tag_355:\n        /* \"#utility.yul\":4343:4409   */\n      tag_270\n      jump\t// in\n    tag_354:\n        /* \"#utility.yul\":4334:4409   */\n      swap1\n      pop\n        /* \"#utility.yul\":4432:4438   */\n      dup3\n        /* \"#utility.yul\":4425:4430   */\n      dup2\n        /* \"#utility.yul\":4418:4439   */\n      mstore\n        /* \"#utility.yul\":4470:4474   */\n      0x20\n        /* \"#utility.yul\":4463:4468   */\n      dup2\n        /* \"#utility.yul\":4459:4475   */\n      add\n        /* \"#utility.yul\":4508:4511   */\n      dup5\n        /* \"#utility.yul\":4499:4505   */\n      dup5\n        /* \"#utility.yul\":4494:4497   */\n      dup5\n        /* \"#utility.yul\":4490:4506   */\n      add\n        /* \"#utility.yul\":4487:4512   */\n      gt\n        /* \"#utility.yul\":4484:4596   */\n      iszero\n      tag_356\n      jumpi\n        /* \"#utility.yul\":4515:4594   */\n      tag_357\n      tag_267\n      jump\t// in\n    tag_357:\n        /* \"#utility.yul\":4484:4596   */\n    tag_356:\n        /* \"#utility.yul\":4605:4659   */\n      tag_358\n        /* \"#utility.yul\":4652:4658   */\n      dup5\n        /* \"#utility.yul\":4647:4650   */\n      dup3\n        /* \"#utility.yul\":4642:4645   */\n      dup6\n        /* \"#utility.yul\":4605:4659   */\n      tag_272\n      jump\t// in\n    tag_358:\n        /* \"#utility.yul\":4324:4665   */\n      pop\n        /* \"#utility.yul\":4240:4665   */\n      swap4\n      swap3\n      pop\n      pop\n      pop\n      jump\t// out\n        /* \"#utility.yul\":4685:5025   */\n    tag_274:\n        /* \"#utility.yul\":4741:4746   */\n      0x00\n        /* \"#utility.yul\":4790:4793   */\n      dup3\n        /* \"#utility.yul\":4783:4787   */\n      0x1f\n        /* \"#utility.yul\":4775:4781   */\n      dup4\n        /* \"#utility.yul\":4771:4788   */\n      add\n        /* \"#utility.yul\":4767:4794   */\n      slt\n        /* \"#utility.yul\":4757:4879   */\n      tag_360\n      jumpi\n        /* \"#utility.yul\":4798:4877   */\n      tag_361\n      tag_266\n      jump\t// in\n    tag_361:\n        /* \"#utility.yul\":4757:4879   */\n    tag_360:\n        /* \"#utility.yul\":4915:4921   */\n      dup2\n        /* \"#utility.yul\":4902:4922   */\n      calldataload\n        /* \"#utility.yul\":4940:5019   */\n      tag_362\n        /* \"#utility.yul\":5015:5018   */\n      dup5\n        /* \"#utility.yul\":5007:5013   */\n      dup3\n        /* \"#utility.yul\":5000:5004   */\n      0x20\n        /* \"#utility.yul\":4992:4998   */\n      dup7\n        /* \"#utility.yul\":4988:5005   */\n      add\n        /* \"#utility.yul\":4940:5019   */\n      tag_273\n      jump\t// in\n    tag_362:\n        /* \"#utility.yul\":4931:5019   */\n      swap2\n      pop\n        /* \"#utility.yul\":4747:5025   */\n      pop\n        /* \"#utility.yul\":4685:5025   */\n      swap3\n      swap2\n      pop\n      pop\n      jump\t// out\n        /* \"#utility.yul\":5031:5540   */\n    tag_49:\n        /* \"#utility.yul\":5100:5106   */\n      0x00\n        /* \"#utility.yul\":5149:5151   */\n      0x20\n        /* \"#utility.yul\":5137:5146   */\n      dup3\n        /* \"#utility.yul\":5128:5135   */\n      dup5\n        /* \"#utility.yul\":5124:5147   */\n      sub\n        /* \"#utility.yul\":5120:5152   */\n      slt\n        /* \"#utility.yul\":5117:5236   */\n      iszero\n      tag_364\n      jumpi\n        /* \"#utility.yul\":5155:5234   */\n      tag_365\n      tag_255\n      jump\t// in\n    tag_365:\n        /* \"#utility.yul\":5117:5236   */\n    tag_364:\n        /* \"#utility.yul\":5303:5304   */\n      0x00\n        /* \"#utility.yul\":5292:5301   */\n      dup3\n        /* \"#utility.yul\":5288:5305   */\n      add\n        /* \"#utility.yul\":5275:5306   */\n      calldataload\n        /* \"#utility.yul\":5333:5351   */\n      0xffffffffffffffff\n        /* \"#utility.yul\":5325:5331   */\n      dup2\n        /* \"#utility.yul\":5322:5352   */\n      gt\n        /* \"#utility.yul\":5319:5436   */\n      iszero\n      tag_366\n      jumpi\n        /* \"#utility.yul\":5355:5434   */\n      tag_367\n      tag_256\n      jump\t// in\n    tag_367:\n        /* \"#utility.yul\":5319:5436   */\n    tag_366:\n        /* \"#utility.yul\":5460:5523   */\n      tag_368\n        /* \"#utility.yul\":5515:5522   */\n      dup5\n        /* \"#utility.yul\":5506:5512   */\n      dup3\n        /* \"#utility.yul\":5495:5504   */\n      dup6\n        /* \"#utility.yul\":5491:5513   */\n      add\n        /* \"#utility.yul\":5460:5523   */\n      tag_274\n      jump\t// in\n    tag_368:\n        /* \"#utility.yul\":5450:5523   */\n      swap2\n      pop\n        /* \"#utility.yul\":5246:5533   */\n      pop\n        /* \"#utility.yul\":5031:5540   */\n      swap3\n      swap2\n      pop\n      pop\n      jump\t// out\n        /* \"#utility.yul\":5546:5670   */\n    tag_275:\n        /* \"#utility.yul\":5623:5629   */\n      0x00\n        /* \"#utility.yul\":5657:5662   */\n      dup2\n        /* \"#utility.yul\":5651:5663   */\n      mload\n        /* \"#utility.yul\":5641:5663   */\n      swap1\n      pop\n        /* \"#utility.yul\":5546:5670   */\n      swap2\n      swap1\n      pop\n      jump\t// out\n        /* \"#utility.yul\":5676:5870   */\n    tag_276:\n        /* \"#utility.yul\":5785:5796   */\n      0x00\n        /* \"#utility.yul\":5819:5825   */\n      dup3\n        /* \"#utility.yul\":5814:5817   */\n      dup3\n        /* \"#utility.yul\":5807:5826   */\n      mstore\n        /* \"#utility.yul\":5859:5863   */\n      0x20\n        /* \"#utility.yul\":5854:5857   */\n      dup3\n        /* \"#utility.yul\":5850:5864   */\n      add\n        /* \"#utility.yul\":5835:5864   */\n      swap1\n      pop\n        /* \"#utility.yul\":5676:5870   */\n      swap3\n      swap2\n      pop\n      pop\n      jump\t// out\n        /* \"#utility.yul\":5876:6018   */\n    tag_277:\n        /* \"#utility.yul\":5953:5957   */\n      0x00\n        /* \"#utility.yul\":5976:5979   */\n      dup2\n        /* \"#utility.yul\":5968:5979   */\n      swap1\n      pop\n        /* \"#utility.yul\":6006:6010   */\n      0x20\n        /* \"#utility.yul\":6001:6004   */\n      dup3\n        /* \"#utility.yul\":5997:6011   */\n      add\n        /* \"#utility.yul\":5989:6011   */\n      swap1\n      pop\n        /* \"#utility.yul\":5876:6018   */\n      swap2\n      swap1\n      pop\n      jump\t// out\n        /* \"#utility.yul\":6024:6183   */\n    tag_278:\n        /* \"#utility.yul\":6098:6109   */\n      0x00\n        /* \"#utility.yul\":6132:6138   */\n      dup3\n        /* \"#utility.yul\":6127:6130   */\n      dup3\n        /* \"#utility.yul\":6120:6139   */\n      mstore\n        /* \"#utility.yul\":6172:6176   */\n      0x20\n        /* \"#utility.yul\":6167:6170   */\n      dup3\n        /* \"#utility.yul\":6163:6177   */\n      add\n        /* \"#utility.yul\":6148:6177   */\n      swap1\n      pop\n        /* \"#utility.yul\":6024:6183   */\n      swap3\n      swap2\n      pop\n      pop\n      jump\t// out\n        /* \"#utility.yul\":6189:6546   */\n    tag_279:\n        /* \"#utility.yul\":6267:6270   */\n      0x00\n        /* \"#utility.yul\":6295:6334   */\n      tag_374\n        /* \"#utility.yul\":6328:6333   */\n      dup3\n        /* \"#utility.yul\":6295:6334   */\n      tag_260\n      jump\t// in\n    tag_374:\n        /* \"#utility.yul\":6350:6411   */\n      tag_375\n        /* \"#utility.yul\":6404:6410   */\n      dup2\n        /* \"#utility.yul\":6399:6402   */\n      dup6\n        /* \"#utility.yul\":6350:6411   */\n      tag_278\n      jump\t// in\n    tag_375:\n        /* \"#utility.yul\":6343:6411   */\n      swap4\n      pop\n        /* \"#utility.yul\":6420:6485   */\n      tag_376\n        /* \"#utility.yul\":6478:6484   */\n      dup2\n        /* \"#utility.yul\":6473:6476   */\n      dup6\n        /* \"#utility.yul\":6466:6470   */\n      0x20\n        /* \"#utility.yul\":6459:6464   */\n      dup7\n        /* \"#utility.yul\":6455:6471   */\n      add\n        /* \"#utility.yul\":6420:6485   */\n      tag_262\n      jump\t// in\n    tag_376:\n        /* \"#utility.yul\":6510:6539   */\n      tag_377\n        /* \"#utility.yul\":6532:6538   */\n      dup2\n        /* \"#utility.yul\":6510:6539   */\n      tag_263\n      jump\t// in\n    tag_377:\n        /* \"#utility.yul\":6505:6508   */\n      dup5\n        /* \"#utility.yul\":6501:6540   */\n      add\n        /* \"#utility.yul\":6494:6540   */\n      swap2\n      pop\n        /* \"#utility.yul\":6271:6546   */\n      pop\n        /* \"#utility.yul\":6189:6546   */\n      swap3\n      swap2\n      pop\n      pop\n      jump\t// out\n        /* \"#utility.yul\":6552:6748   */\n    tag_280:\n        /* \"#utility.yul\":6641:6651   */\n      0x00\n        /* \"#utility.yul\":6676:6742   */\n      tag_379\n        /* \"#utility.yul\":6738:6741   */\n      dup4\n        /* \"#utility.yul\":6730:6736   */\n      dup4\n        /* \"#utility.yul\":6676:6742   */\n      tag_279\n      jump\t// in\n    tag_379:\n        /* \"#utility.yul\":6662:6742   */\n      swap1\n      pop\n        /* \"#utility.yul\":6552:6748   */\n      swap3\n      swap2\n      pop\n      pop\n      jump\t// out\n        /* \"#utility.yul\":6754:6877   */\n    tag_281:\n        /* \"#utility.yul\":6834:6838   */\n      0x00\n        /* \"#utility.yul\":6866:6870   */\n      0x20\n        /* \"#utility.yul\":6861:6864   */\n      dup3\n        /* \"#utility.yul\":6857:6871   */\n      add\n        /* \"#utility.yul\":6849:6871   */\n      swap1\n      pop\n        /* \"#utility.yul\":6754:6877   */\n      swap2\n      swap1\n      pop\n      jump\t// out\n        /* \"#utility.yul\":6911:7902   */\n    tag_282:\n        /* \"#utility.yul\":7050:7053   */\n      0x00\n        /* \"#utility.yul\":7079:7143   */\n      tag_382\n        /* \"#utility.yul\":7137:7142   */\n      dup3\n        /* \"#utility.yul\":7079:7143   */\n      tag_275\n      jump\t// in\n    tag_382:\n        /* \"#utility.yul\":7159:7255   */\n      tag_383\n        /* \"#utility.yul\":7248:7254   */\n      dup2\n        /* \"#utility.yul\":7243:7246   */\n      dup6\n        /* \"#utility.yul\":7159:7255   */\n      tag_276\n      jump\t// in\n    tag_383:\n        /* \"#utility.yul\":7152:7255   */\n      swap4\n      pop\n        /* \"#utility.yul\":7281:7284   */\n      dup4\n        /* \"#utility.yul\":7326:7330   */\n      0x20\n        /* \"#utility.yul\":7318:7324   */\n      dup3\n        /* \"#utility.yul\":7314:7331   */\n      mul\n        /* \"#utility.yul\":7309:7312   */\n      dup6\n        /* \"#utility.yul\":7305:7332   */\n      add\n        /* \"#utility.yul\":7356:7422   */\n      tag_384\n        /* \"#utility.yul\":7416:7421   */\n      dup6\n        /* \"#utility.yul\":7356:7422   */\n      tag_277\n      jump\t// in\n    tag_384:\n        /* \"#utility.yul\":7445:7452   */\n      dup1\n        /* \"#utility.yul\":7476:7477   */\n      0x00\n        /* \"#utility.yul\":7461:7857   */\n    tag_385:\n        /* \"#utility.yul\":7486:7492   */\n      dup6\n        /* \"#utility.yul\":7483:7484   */\n      dup2\n        /* \"#utility.yul\":7480:7493   */\n      lt\n        /* \"#utility.yul\":7461:7857   */\n      iszero\n      tag_387\n      jumpi\n        /* \"#utility.yul\":7557:7566   */\n      dup5\n        /* \"#utility.yul\":7551:7555   */\n      dup5\n        /* \"#utility.yul\":7547:7567   */\n      sub\n        /* \"#utility.yul\":7542:7545   */\n      dup10\n        /* \"#utility.yul\":7535:7568   */\n      mstore\n        /* \"#utility.yul\":7608:7614   */\n      dup2\n        /* \"#utility.yul\":7602:7615   */\n      mload\n        /* \"#utility.yul\":7636:7720   */\n      tag_388\n        /* \"#utility.yul\":7715:7719   */\n      dup6\n        /* \"#utility.yul\":7700:7713   */\n      dup3\n        /* \"#utility.yul\":7636:7720   */\n      tag_280\n      jump\t// in\n    tag_388:\n        /* \"#utility.yul\":7628:7720   */\n      swap5\n      pop\n        /* \"#utility.yul\":7743:7813   */\n      tag_389\n        /* \"#utility.yul\":7806:7812   */\n      dup4\n        /* \"#utility.yul\":7743:7813   */\n      tag_281\n      jump\t// in\n    tag_389:\n        /* \"#utility.yul\":7733:7813   */\n      swap3\n      pop\n        /* \"#utility.yul\":7842:7846   */\n      0x20\n        /* \"#utility.yul\":7837:7840   */\n      dup11\n        /* \"#utility.yul\":7833:7847   */\n      add\n        /* \"#utility.yul\":7826:7847   */\n      swap10\n      pop\n        /* \"#utility.yul\":7521:7857   */\n      pop\n        /* \"#utility.yul\":7508:7509   */\n      0x01\n        /* \"#utility.yul\":7505:7506   */\n      dup2\n        /* \"#utility.yul\":7501:7510   */\n      add\n        /* \"#utility.yul\":7496:7510   */\n      swap1\n      pop\n        /* \"#utility.yul\":7461:7857   */\n      jump(tag_385)\n    tag_387:\n        /* \"#utility.yul\":7465:7479   */\n      pop\n        /* \"#utility.yul\":7873:7877   */\n      dup3\n        /* \"#utility.yul\":7866:7877   */\n      swap8\n      pop\n        /* \"#utility.yul\":7893:7896   */\n      dup8\n        /* \"#utility.yul\":7886:7896   */\n      swap6\n      pop\n        /* \"#utility.yul\":7055:7902   */\n      pop\n      pop\n      pop\n      pop\n      pop\n        /* \"#utility.yul\":6911:7902   */\n      swap3\n      swap2\n      pop\n      pop\n      jump\t// out\n        /* \"#utility.yul\":7908:8321   */\n    tag_54:\n        /* \"#utility.yul\":8071:8075   */\n      0x00\n        /* \"#utility.yul\":8109:8111   */\n      0x20\n        /* \"#utility.yul\":8098:8107   */\n      dup3\n        /* \"#utility.yul\":8094:8112   */\n      add\n        /* \"#utility.yul\":8086:8112   */\n      swap1\n      pop\n        /* \"#utility.yul\":8158:8167   */\n      dup2\n        /* \"#utility.yul\":8152:8156   */\n      dup2\n        /* \"#utility.yul\":8148:8168   */\n      sub\n        /* \"#utility.yul\":8144:8145   */\n      0x00\n        /* \"#utility.yul\":8133:8142   */\n      dup4\n        /* \"#utility.yul\":8129:8146   */\n      add\n        /* \"#utility.yul\":8122:8169   */\n      mstore\n        /* \"#utility.yul\":8186:8314   */\n      tag_391\n        /* \"#utility.yul\":8309:8313   */\n      dup2\n        /* \"#utility.yul\":8300:8306   */\n      dup5\n        /* \"#utility.yul\":8186:8314   */\n      tag_282\n      jump\t// in\n    tag_391:\n        /* \"#utility.yul\":8178:8314   */\n      swap1\n      pop\n        /* \"#utility.yul\":7908:8321   */\n      swap3\n      swap2\n      pop\n      pop\n      jump\t// out\n        /* \"#utility.yul\":8327:8549   */\n    tag_62:\n        /* \"#utility.yul\":8420:8424   */\n      0x00\n        /* \"#utility.yul\":8458:8460   */\n      0x20\n        /* \"#utility.yul\":8447:8456   */\n      dup3\n        /* \"#utility.yul\":8443:8461   */\n      add\n        /* \"#utility.yul\":8435:8461   */\n      swap1\n      pop\n        /* \"#utility.yul\":8471:8542   */\n      tag_393\n        /* \"#utility.yul\":8539:8540   */\n      0x00\n        /* \"#utility.yul\":8528:8537   */\n      dup4\n        /* \"#utility.yul\":8524:8541   */\n      add\n        /* \"#utility.yul\":8515:8521   */\n      dup5\n        /* \"#utility.yul\":8471:8542   */\n      tag_265\n      jump\t// in\n    tag_393:\n        /* \"#utility.yul\":8327:8549   */\n      swap3\n      swap2\n      pop\n      pop\n      jump\t// out\n        /* \"#utility.yul\":8555:8735   */\n    tag_87:\n        /* \"#utility.yul\":8603:8680   */\n      0x4e487b7100000000000000000000000000000000000000000000000000000000\n        /* \"#utility.yul\":8600:8601   */\n      0x00\n        /* \"#utility.yul\":8593:8681   */\n      mstore\n        /* \"#utility.yul\":8700:8704   */\n      0x32\n        /* \"#utility.yul\":8697:8698   */\n      0x04\n        /* \"#utility.yul\":8690:8705   */\n      mstore\n        /* \"#utility.yul\":8724:8728   */\n      0x24\n        /* \"#utility.yul\":8721:8722   */\n      0x00\n        /* \"#utility.yul\":8714:8729   */\n      revert\n        /* \"#utility.yul\":8741:8921   */\n    tag_283:\n        /* \"#utility.yul\":8789:8866   */\n      0x4e487b7100000000000000000000000000000000000000000000000000000000\n        /* \"#utility.yul\":8786:8787   */\n      0x00\n        /* \"#utility.yul\":8779:8867   */\n      mstore\n        /* \"#utility.yul\":8886:8890   */\n      0x22\n        /* \"#utility.yul\":8883:8884   */\n      0x04\n        /* \"#utility.yul\":8876:8891   */\n      mstore\n        /* \"#utility.yul\":8910:8914   */\n      0x24\n        /* \"#utility.yul\":8907:8908   */\n      0x00\n        /* \"#utility.yul\":8900:8915   */\n      revert\n        /* \"#utility.yul\":8927:9247   */\n    tag_90:\n        /* \"#utility.yul\":8971:8977   */\n      0x00\n        /* \"#utility.yul\":9008:9009   */\n      0x02\n        /* \"#utility.yul\":9002:9006   */\n      dup3\n        /* \"#utility.yul\":8998:9010   */\n      div\n        /* \"#utility.yul\":8988:9010   */\n      swap1\n      pop\n        /* \"#utility.yul\":9055:9056   */\n      0x01\n        /* \"#utility.yul\":9049:9053   */\n      dup3\n        /* \"#utility.yul\":9045:9057   */\n      and\n        /* \"#utility.yul\":9076:9094   */\n      dup1\n        /* \"#utility.yul\":9066:9147   */\n      tag_397\n      jumpi\n        /* \"#utility.yul\":9132:9136   */\n      0x7f\n        /* \"#utility.yul\":9124:9130   */\n      dup3\n        /* \"#utility.yul\":9120:9137   */\n      and\n        /* \"#utility.yul\":9110:9137   */\n      swap2\n      pop\n        /* \"#utility.yul\":9066:9147   */\n    tag_397:\n        /* \"#utility.yul\":9194:9196   */\n      0x20\n        /* \"#utility.yul\":9186:9192   */\n      dup3\n        /* \"#utility.yul\":9183:9197   */\n      lt\n        /* \"#utility.yul\":9163:9181   */\n      dup2\n        /* \"#utility.yul\":9160:9198   */\n      sub\n        /* \"#utility.yul\":9157:9241   */\n      tag_398\n      jumpi\n        /* \"#utility.yul\":9213:9231   */\n      tag_399\n      tag_283\n      jump\t// in\n    tag_399:\n        /* \"#utility.yul\":9157:9241   */\n    tag_398:\n        /* \"#utility.yul\":8978:9247   */\n      pop\n        /* \"#utility.yul\":8927:9247   */\n      swap2\n      swap1\n      pop\n      jump\t// out\n        /* \"#utility.yul\":9253:9433   */\n    tag_284:\n        /* \"#utility.yul\":9301:9378   */\n      0x4e487b7100000000000000000000000000000000000000000000000000000000\n        /* \"#utility.yul\":9298:9299   */\n      0x00\n        /* \"#utility.yul\":9291:9379   */\n      mstore\n        /* \"#utility.yul\":9398:9402   */\n      0x11\n        /* \"#utility.yul\":9395:9396   */\n      0x04\n        /* \"#utility.yul\":9388:9403   */\n      mstore\n        /* \"#utility.yul\":9422:9426   */\n      0x24\n        /* \"#utility.yul\":9419:9420   */\n      0x00\n        /* \"#utility.yul\":9412:9427   */\n      revert\n        /* \"#utility.yul\":9439:9633   */\n    tag_102:\n        /* \"#utility.yul\":9479:9483   */\n      0x00\n        /* \"#utility.yul\":9499:9519   */\n      tag_402\n        /* \"#utility.yul\":9517:9518   */\n      dup3\n        /* \"#utility.yul\":9499:9519   */\n      tag_257\n      jump\t// in\n    tag_402:\n        /* \"#utility.yul\":9494:9519   */\n      swap2\n      pop\n        /* \"#utility.yul\":9533:9553   */\n      tag_403\n        /* \"#utility.yul\":9551:9552   */\n      dup4\n        /* \"#utility.yul\":9533:9553   */\n      tag_257\n      jump\t// in\n    tag_403:\n        /* \"#utility.yul\":9528:9553   */\n      swap3\n      pop\n        /* \"#utility.yul\":9577:9578   */\n      dup3\n        /* \"#utility.yul\":9574:9575   */\n      dup3\n        /* \"#utility.yul\":9570:9579   */\n      sub\n        /* \"#utility.yul\":9562:9579   */\n      swap1\n      pop\n        /* \"#utility.yul\":9601:9602   */\n      dup2\n        /* \"#utility.yul\":9595:9599   */\n      dup2\n        /* \"#utility.yul\":9592:9603   */\n      gt\n        /* \"#utility.yul\":9589:9626   */\n      iszero\n      tag_404\n      jumpi\n        /* \"#utility.yul\":9606:9624   */\n      tag_405\n      tag_284\n      jump\t// in\n    tag_405:\n        /* \"#utility.yul\":9589:9626   */\n    tag_404:\n        /* \"#utility.yul\":9439:9633   */\n      swap3\n      swap2\n      pop\n      pop\n      jump\t// out\n        /* \"#utility.yul\":9639:9830   */\n    tag_104:\n        /* \"#utility.yul\":9679:9682   */\n      0x00\n        /* \"#utility.yul\":9698:9718   */\n      tag_407\n        /* \"#utility.yul\":9716:9717   */\n      dup3\n        /* \"#utility.yul\":9698:9718   */\n      tag_257\n      jump\t// in\n    tag_407:\n        /* \"#utility.yul\":9693:9718   */\n      swap2\n      pop\n        /* \"#utility.yul\":9732:9752   */\n      tag_408\n        /* \"#utility.yul\":9750:9751   */\n      dup4\n        /* \"#utility.yul\":9732:9752   */\n      tag_257\n      jump\t// in\n    tag_408:\n        /* \"#utility.yul\":9727:9752   */\n      swap3\n      pop\n        /* \"#utility.yul\":9775:9776   */\n      dup3\n        /* \"#utility.yul\":9772:9773   */\n      dup3\n        /* \"#utility.yul\":9768:9777   */\n      add\n        /* \"#utility.yul\":9761:9777   */\n      swap1\n      pop\n        /* \"#utility.yul\":9796:9799   */\n      dup1\n        /* \"#utility.yul\":9793:9794   */\n      dup3\n        /* \"#utility.yul\":9790:9800   */\n      gt\n        /* \"#utility.yul\":9787:9823   */\n      iszero\n      tag_409\n      jumpi\n        /* \"#utility.yul\":9803:9821   */\n      tag_410\n      tag_284\n      jump\t// in\n    tag_410:\n        /* \"#utility.yul\":9787:9823   */\n    tag_409:\n        /* \"#utility.yul\":9639:9830   */\n      swap3\n      swap2\n      pop\n      pop\n      jump\t// out\n        /* \"#utility.yul\":9836:9985   */\n    tag_285:\n        /* \"#utility.yul\":9885:9891   */\n      0x00\n        /* \"#utility.yul\":9919:9924   */\n      dup2\n        /* \"#utility.yul\":9913:9925   */\n      sload\n        /* \"#utility.yul\":9903:9925   */\n      swap1\n      pop\n        /* \"#utility.yul\":9945:9978   */\n      tag_412\n        /* \"#utility.yul\":9971:9977   */\n      dup2\n        /* \"#utility.yul\":9945:9978   */\n      tag_90\n      jump\t// in\n    tag_412:\n        /* \"#utility.yul\":9935:9978   */\n      swap1\n      pop\n        /* \"#utility.yul\":9836:9985   */\n      swap2\n      swap1\n      pop\n      jump\t// out\n        /* \"#utility.yul\":9991:10132   */\n    tag_286:\n        /* \"#utility.yul\":10040:10044   */\n      0x00\n        /* \"#utility.yul\":10063:10066   */\n      dup2\n        /* \"#utility.yul\":10055:10066   */\n      swap1\n      pop\n        /* \"#utility.yul\":10086:10089   */\n      dup2\n        /* \"#utility.yul\":10083:10084   */\n      0x00\n        /* \"#utility.yul\":10076:10090   */\n      mstore\n        /* \"#utility.yul\":10120:10124   */\n      0x20\n        /* \"#utility.yul\":10117:10118   */\n      0x00\n        /* \"#utility.yul\":10107:10125   */\n      keccak256\n        /* \"#utility.yul\":10099:10125   */\n      swap1\n      pop\n        /* \"#utility.yul\":9991:10132   */\n      swap2\n      swap1\n      pop\n      jump\t// out\n        /* \"#utility.yul\":10138:10231   */\n    tag_287:\n        /* \"#utility.yul\":10175:10181   */\n      0x00\n        /* \"#utility.yul\":10222:10224   */\n      0x20\n        /* \"#utility.yul\":10217:10219   */\n      0x1f\n        /* \"#utility.yul\":10210:10215   */\n      dup4\n        /* \"#utility.yul\":10206:10220   */\n      add\n        /* \"#utility.yul\":10202:10225   */\n      div\n        /* \"#utility.yul\":10192:10225   */\n      swap1\n      pop\n        /* \"#utility.yul\":10138:10231   */\n      swap2\n      swap1\n      pop\n      jump\t// out\n        /* \"#utility.yul\":10237:10344   */\n    tag_288:\n        /* \"#utility.yul\":10281:10289   */\n      0x00\n        /* \"#utility.yul\":10331:10336   */\n      dup3\n        /* \"#utility.yul\":10325:10329   */\n      dup3\n        /* \"#utility.yul\":10321:10337   */\n      shl\n        /* \"#utility.yul\":10300:10337   */\n      swap1\n      pop\n        /* \"#utility.yul\":10237:10344   */\n      swap3\n      swap2\n      pop\n      pop\n      jump\t// out\n        /* \"#utility.yul\":10350:10743   */\n    tag_289:\n        /* \"#utility.yul\":10419:10425   */\n      0x00\n        /* \"#utility.yul\":10469:10470   */\n      0x08\n        /* \"#utility.yul\":10457:10467   */\n      dup4\n        /* \"#utility.yul\":10453:10471   */\n      mul\n        /* \"#utility.yul\":10492:10589   */\n      tag_417\n        /* \"#utility.yul\":10522:10588   */\n      0xffffffffffffffffffffffffffffffffffffffffffffffffffffffffffffffff\n        /* \"#utility.yul\":10511:10520   */\n      dup3\n        /* \"#utility.yul\":10492:10589   */\n      tag_288\n      jump\t// in\n    tag_417:\n        /* \"#utility.yul\":10610:10649   */\n      tag_418\n        /* \"#utility.yul\":10640:10648   */\n      dup7\n        /* \"#utility.yul\":10629:10638   */\n      dup4\n        /* \"#utility.yul\":10610:10649   */\n      tag_288\n      jump\t// in\n    tag_418:\n        /* \"#utility.yul\":10598:10649   */\n      swap6\n      pop\n        /* \"#utility.yul\":10682:10686   */\n      dup1\n        /* \"#utility.yul\":10678:10687   */\n      not\n        /* \"#utility.yul\":10671:10676   */\n      dup5\n        /* \"#utility.yul\":10667:10688   */\n      and\n        /* \"#utility.yul\":10658:10688   */\n      swap4\n      pop\n        /* \"#utility.yul\":10731:10735   */\n      dup1\n        /* \"#utility.yul\":10721:10729   */\n      dup7\n        /* \"#utility.yul\":10717:10736   */\n      and\n        /* \"#utility.yul\":10710:10715   */\n      dup5\n        /* \"#utility.yul\":10707:10737   */\n      or\n        /* \"#utility.yul\":10697:10737   */\n      swap3\n      pop\n        /* \"#utility.yul\":10426:10743   */\n      pop\n      pop\n        /* \"#utility.yul\":10350:10743   */\n      swap4\n      swap3\n      pop\n      pop\n      pop\n      jump\t// out\n        /* \"#utility.yul\":10749:10809   */\n    tag_290:\n        /* \"#utility.yul\":10777:10780   */\n      0x00\n        /* \"#utility.yul\":10798:10803   */\n      dup2\n        /* \"#utility.yul\":10791:10803   */\n      swap1\n      pop\n        /* \"#utility.yul\":10749:10809   */\n      swap2\n      swap1\n      pop\n      jump\t// out\n        /* \"#utility.yul\":10815:10957   */\n    tag_291:\n        /* \"#utility.yul\":10865:10874   */\n      0x00\n        /* \"#utility.yul\":10898:10951   */\n      tag_421\n        /* \"#utility.yul\":10916:10950   */\n      tag_422\n        /* \"#utility.yul\":10925:10949   */\n      tag_423\n        /* \"#utility.yul\":10943:10948   */\n      dup5\n        /* \"#utility.yul\":10925:10949   */\n      tag_257\n      jump\t// in\n    tag_423:\n        /* \"#utility.yul\":10916:10950   */\n      tag_290\n      jump\t// in\n    tag_422:\n        /* \"#utility.yul\":10898:10951   */\n      tag_257\n      jump\t// in\n    tag_421:\n        /* \"#utility.yul\":10885:10951   */\n      swap1\n      pop\n        /* \"#utility.yul\":10815:10957   */\n      swap2\n      swap1\n      pop\n      jump\t// out\n        /* \"#utility.yul\":10963:11038   */\n    tag_292:\n        /* \"#utility.yul\":11006:11009   */\n      0x00\n        /* \"#utility.yul\":11027:11032   */\n      dup2\n        /* \"#utility.yul\":11020:11032   */\n      swap1\n      pop\n        /* \"#utility.yul\":10963:11038   */\n      swap2\n      swap1\n      pop\n      jump\t// out\n        /* \"#utility.yul\":11044:11313   */\n    tag_293:\n        /* \"#utility.yul\":11154:11193   */\n      tag_426\n        /* \"#utility.yul\":11185:11192   */\n      dup4\n        /* \"#utility.yul\":11154:11193   */\n      tag_291\n      jump\t// in\n    tag_426:\n        /* \"#utility.yul\":11215:11306   */\n      tag_427\n        /* \"#utility.yul\":11264:11305   */\n      tag_428\n        /* \"#utility.yul\":11288:11304   */\n      dup3\n        /* \"#utility.yul\":11264:11305   */\n      tag_292\n      jump\t// in\n    tag_428:\n        /* \"#utility.yul\":11256:11262   */\n      dup5\n        /* \"#utility.yul\":11249:11253   */\n      dup5\n        /* \"#utility.yul\":11243:11254   */\n      sload\n        /* \"#utility.yul\":11215:11306   */\n      tag_289\n      jump\t// in\n    tag_427:\n        /* \"#utility.yul\":11209:11213   */\n      dup3\n        /* \"#utility.yul\":11202:11307   */\n      sstore\n        /* \"#utility.yul\":11120:11313   */\n      pop\n        /* \"#utility.yul\":11044:11313   */\n      pop\n      pop\n      pop\n      jump\t// out\n        /* \"#utility.yul\":11319:11392   */\n    tag_294:\n        /* \"#utility.yul\":11364:11367   */\n      0x00\n        /* \"#utility.yul\":11319:11392   */\n      swap1\n      jump\t// out\n        /* \"#utility.yul\":11398:11587   */\n    tag_295:\n        /* \"#utility.yul\":11475:11507   */\n      tag_431\n      tag_294\n      jump\t// in\n    tag_431:\n        /* \"#utility.yul\":11516:11581   */\n      tag_432\n        /* \"#utility.yul\":11574:11580   */\n      dup2\n        /* \"#utility.yul\":11566:11572   */\n      dup5\n        /* \"#utility.yul\":11560:11564   */\n      dup5\n        /* \"#utility.yul\":11516:11581   */\n      tag_293\n      jump\t// in\n    tag_432:\n        /* \"#utility.yul\":11451:11587   */\n      pop\n        /* \"#utility.yul\":11398:11587   */\n      pop\n      pop\n      jump\t// out\n        /* \"#utility.yul\":11593:11779   */\n    tag_296:\n        /* \"#utility.yul\":11653:11773   */\n    tag_434:\n        /* \"#utility.yul\":11670:11673   */\n      dup2\n        /* \"#utility.yul\":11663:11668   */\n      dup2\n        /* \"#utility.yul\":11660:11674   */\n      lt\n        /* \"#utility.yul\":11653:11773   */\n      iszero\n      tag_436\n      jumpi\n        /* \"#utility.yul\":11724:11763   */\n      tag_437\n        /* \"#utility.yul\":11761:11762   */\n      0x00\n        /* \"#utility.yul\":11754:11759   */\n      dup3\n        /* \"#utility.yul\":11724:11763   */\n      tag_295\n      jump\t// in\n    tag_437:\n        /* \"#utility.yul\":11697:11698   */\n      0x01\n        /* \"#utility.yul\":11690:11695   */\n      dup2\n        /* \"#utility.yul\":11686:11699   */\n      add\n        /* \"#utility.yul\":11677:11699   */\n      swap1\n      pop\n        /* \"#utility.yul\":11653:11773   */\n      jump(tag_434)\n    tag_436:\n        /* \"#utility.yul\":11593:11779   */\n      pop\n      pop\n      jump\t// out\n        /* \"#utility.yul\":11785:12328   */\n    tag_297:\n        /* \"#utility.yul\":11886:11888   */\n      0x1f\n        /* \"#utility.yul\":11881:11884   */\n      dup3\n        /* \"#utility.yul\":11878:11889   */\n      gt\n        /* \"#utility.yul\":11875:12321   */\n      iszero\n      tag_439\n      jumpi\n        /* \"#utility.yul\":11920:11958   */\n      tag_440\n        /* \"#utility.yul\":11952:11957   */\n      dup2\n        /* \"#utility.yul\":11920:11958   */\n      tag_286\n      jump\t// in\n    tag_440:\n        /* \"#utility.yul\":12004:12033   */\n      tag_441\n        /* \"#utility.yul\":12022:12032   */\n      dup5\n        /* \"#utility.yul\":12004:12033   */\n      tag_287\n      jump\t// in\n    tag_441:\n        /* \"#utility.yul\":11994:12002   */\n      dup2\n        /* \"#utility.yul\":11990:12034   */\n      add\n        /* \"#utility.yul\":12187:12189   */\n      0x20\n        /* \"#utility.yul\":12175:12185   */\n      dup6\n        /* \"#utility.yul\":12172:12190   */\n      lt\n        /* \"#utility.yul\":12169:12218   */\n      iszero\n      tag_442\n      jumpi\n        /* \"#utility.yul\":12208:12216   */\n      dup2\n        /* \"#utility.yul\":12193:12216   */\n      swap1\n      pop\n        /* \"#utility.yul\":12169:12218   */\n    tag_442:\n        /* \"#utility.yul\":12231:12311   */\n      tag_443\n        /* \"#utility.yul\":12287:12309   */\n      tag_444\n        /* \"#utility.yul\":12305:12308   */\n      dup6\n        /* \"#utility.yul\":12287:12309   */\n      tag_287\n      jump\t// in\n    tag_444:\n        /* \"#utility.yul\":12277:12285   */\n      dup4\n        /* \"#utility.yul\":12273:12310   */\n      add\n        /* \"#utility.yul\":12260:12271   */\n      dup3\n        /* \"#utility.yul\":12231:12311   */\n      tag_296\n      jump\t// in\n    tag_443:\n        /* \"#utility.yul\":11890:12321   */\n      pop\n      pop\n        /* \"#utility.yul\":11875:12321   */\n    tag_439:\n        /* \"#utility.yul\":11785:12328   */\n      pop\n      pop\n      pop\n      jump\t// out\n        /* \"#utility.yul\":12334:12451   */\n    tag_298:\n        /* \"#utility.yul\":12388:12396   */\n      0x00\n        /* \"#utility.yul\":12438:12443   */\n      dup3\n        /* \"#utility.yul\":12432:12436   */\n      dup3\n        /* \"#utility.yul\":12428:12444   */\n      shr\n        /* \"#utility.yul\":12407:12444   */\n      swap1\n      pop\n        /* \"#utility.yul\":12334:12451   */\n      swap3\n      swap2\n      pop\n      pop\n      jump\t// out\n        /* \"#utility.yul\":12457:12626   */\n    tag_299:\n        /* \"#utility.yul\":12501:12507   */\n      0x00\n        /* \"#utility.yul\":12534:12585   */\n      tag_447\n        /* \"#utility.yul\":12582:12583   */\n      0x00\n        /* \"#utility.yul\":12578:12584   */\n      not\n        /* \"#utility.yul\":12570:12575   */\n      dup5\n        /* \"#utility.yul\":12567:12568   */\n      0x08\n        /* \"#utility.yul\":12563:12576   */\n      mul\n        /* \"#utility.yul\":12534:12585   */\n      tag_298\n      jump\t// in\n    tag_447:\n        /* \"#utility.yul\":12530:12586   */\n      not\n        /* \"#utility.yul\":12615:12619   */\n      dup1\n        /* \"#utility.yul\":12609:12613   */\n      dup4\n        /* \"#utility.yul\":12605:12620   */\n      and\n        /* \"#utility.yul\":12595:12620   */\n      swap2\n      pop\n        /* \"#utility.yul\":12508:12626   */\n      pop\n        /* \"#utility.yul\":12457:12626   */\n      swap3\n      swap2\n      pop\n      pop\n      jump\t// out\n        /* \"#utility.yul\":12631:12926   */\n    tag_300:\n        /* \"#utility.yul\":12707:12711   */\n      0x00\n        /* \"#utility.yul\":12853:12882   */\n      tag_449\n        /* \"#utility.yul\":12878:12881   */\n      dup4\n        /* \"#utility.yul\":12872:12876   */\n      dup4\n        /* \"#utility.yul\":12853:12882   */\n      tag_299\n      jump\t// in\n    tag_449:\n        /* \"#utility.yul\":12845:12882   */\n      swap2\n      pop\n        /* \"#utility.yul\":12915:12918   */\n      dup3\n        /* \"#utility.yul\":12912:12913   */\n      0x02\n        /* \"#utility.yul\":12908:12919   */\n      mul\n        /* \"#utility.yul\":12902:12906   */\n      dup3\n        /* \"#utility.yul\":12899:12920   */\n      or\n        /* \"#utility.yul\":12891:12920   */\n      swap1\n      pop\n        /* \"#utility.yul\":12631:12926   */\n      swap3\n      swap2\n      pop\n      pop\n      jump\t// out\n        /* \"#utility.yul\":12931:14382   */\n    tag_106:\n        /* \"#utility.yul\":13042:13045   */\n      dup2\n        /* \"#utility.yul\":13036:13040   */\n      dup2\n        /* \"#utility.yul\":13033:13046   */\n      sub\n        /* \"#utility.yul\":13030:13056   */\n      tag_451\n      jumpi\n        /* \"#utility.yul\":13049:13054   */\n      pop\n      pop\n      jump(tag_450)\n        /* \"#utility.yul\":13030:13056   */\n    tag_451:\n        /* \"#utility.yul\":13080:13114   */\n      tag_452\n        /* \"#utility.yul\":13110:13113   */\n      dup3\n        /* \"#utility.yul\":13080:13114   */\n      tag_285\n      jump\t// in\n    tag_452:\n        /* \"#utility.yul\":13179:13197   */\n      0xffffffffffffffff\n        /* \"#utility.yul\":13171:13177   */\n      dup2\n        /* \"#utility.yul\":13168:13198   */\n      gt\n        /* \"#utility.yul\":13165:13221   */\n      iszero\n      tag_453\n      jumpi\n        /* \"#utility.yul\":13201:13219   */\n      tag_454\n      tag_268\n      jump\t// in\n    tag_454:\n        /* \"#utility.yul\":13165:13221   */\n    tag_453:\n        /* \"#utility.yul\":13245:13283   */\n      tag_455\n        /* \"#utility.yul\":13277:13281   */\n      dup3\n        /* \"#utility.yul\":13271:13282   */\n      sload\n        /* \"#utility.yul\":13245:13283   */\n      tag_90\n      jump\t// in\n    tag_455:\n        /* \"#utility.yul\":13330:13397   */\n      tag_456\n        /* \"#utility.yul\":13390:13396   */\n      dup3\n        /* \"#utility.yul\":13382:13388   */\n      dup3\n        /* \"#utility.yul\":13376:13380   */\n      dup6\n        /* \"#utility.yul\":13330:13397   */\n      tag_297\n      jump\t// in\n    tag_456:\n        /* \"#utility.yul\":13424:13425   */\n      0x00\n        /* \"#utility.yul\":13453:13455   */\n      0x1f\n        /* \"#utility.yul\":13445:13451   */\n      dup4\n        /* \"#utility.yul\":13442:13456   */\n      gt\n        /* \"#utility.yul\":13470:13471   */\n      0x01\n        /* \"#utility.yul\":13465:14137   */\n      dup2\n      eq\n      tag_458\n      jumpi\n        /* \"#utility.yul\":14181:14182   */\n      0x00\n        /* \"#utility.yul\":14198:14204   */\n      dup5\n        /* \"#utility.yul\":14195:14272   */\n      iszero\n      tag_459\n      jumpi\n        /* \"#utility.yul\":14247:14256   */\n      dup3\n        /* \"#utility.yul\":14242:14245   */\n      dup8\n        /* \"#utility.yul\":14238:14257   */\n      add\n        /* \"#utility.yul\":14232:14258   */\n      sload\n        /* \"#utility.yul\":14223:14258   */\n      swap1\n      pop\n        /* \"#utility.yul\":14195:14272   */\n    tag_459:\n        /* \"#utility.yul\":14298:14365   */\n      tag_460\n        /* \"#utility.yul\":14358:14364   */\n      dup6\n        /* \"#utility.yul\":14351:14356   */\n      dup3\n        /* \"#utility.yul\":14298:14365   */\n      tag_300\n      jump\t// in\n    tag_460:\n        /* \"#utility.yul\":14292:14296   */\n      dup7\n        /* \"#utility.yul\":14285:14366   */\n      sstore\n        /* \"#utility.yul\":14154:14376   */\n      pop\n        /* \"#utility.yul\":13435:14376   */\n      jump(tag_457)\n        /* \"#utility.yul\":13465:14137   */\n    tag_458:\n        /* \"#utility.yul\":13517:13521   */\n      0x1f\n        /* \"#utility.yul\":13513:13522   */\n      not\n        /* \"#utility.yul\":13505:13511   */\n      dup5\n        /* \"#utility.yul\":13501:13523   */\n      and\n        /* \"#utility.yul\":13543:13579   */\n      tag_461\n        /* \"#utility.yul\":13575:13578   */\n      dup8\n        /* \"#utility.yul\":13543:13579   */\n      tag_286\n      jump\t// in\n    tag_461:\n        /* \"#utility.yul\":13536:13579   */\n      swap7\n      pop\n        /* \"#utility.yul\":13606:13643   */\n      tag_462\n        /* \"#utility.yul\":13638:13642   */\n      dup7\n        /* \"#utility.yul\":13606:13643   */\n      tag_286\n      jump\t// in\n    tag_462:\n        /* \"#utility.yul\":13665:13666   */\n      0x00\n        /* \"#utility.yul\":13679:13886   */\n    tag_463:\n        /* \"#utility.yul\":13693:13700   */\n      dup3\n        /* \"#utility.yul\":13690:13691   */\n      dup2\n        /* \"#utility.yul\":13687:13701   */\n      lt\n        /* \"#utility.yul\":13679:13886   */\n      iszero\n      tag_465\n      jumpi\n        /* \"#utility.yul\":13772:13781   */\n      dup5\n        /* \"#utility.yul\":13767:13770   */\n      dup10\n        /* \"#utility.yul\":13763:13782   */\n      add\n        /* \"#utility.yul\":13757:13783   */\n      sload\n        /* \"#utility.yul\":13749:13755   */\n      dup3\n        /* \"#utility.yul\":13742:13784   */\n      sstore\n        /* \"#utility.yul\":13823:13824   */\n      0x01\n        /* \"#utility.yul\":13815:13821   */\n      dup3\n        /* \"#utility.yul\":13811:13825   */\n      add\n        /* \"#utility.yul\":13801:13825   */\n      swap2\n      pop\n        /* \"#utility.yul\":13870:13871   */\n      0x01\n        /* \"#utility.yul\":13859:13868   */\n      dup6\n        /* \"#utility.yul\":13855:13872   */\n      add\n        /* \"#utility.yul\":13842:13872   */\n      swap5\n      pop\n        /* \"#utility.yul\":13716:13720   */\n      0x20\n        /* \"#utility.yul\":13713:13714   */\n      dup2\n        /* \"#utility.yul\":13709:13721   */\n      add\n        /* \"#utility.yul\":13704:13721   */\n      swap1\n      pop\n        /* \"#utility.yul\":13679:13886   */\n      jump(tag_463)\n    tag_465:\n        /* \"#utility.yul\":13914:13920   */\n      dup7\n        /* \"#utility.yul\":13905:13912   */\n      dup4\n        /* \"#utility.yul\":13902:13921   */\n      lt\n        /* \"#utility.yul\":13899:14078   */\n      iszero\n      tag_466\n      jumpi\n        /* \"#utility.yul\":13972:13981   */\n      dup5\n        /* \"#utility.yul\":13967:13970   */\n      dup10\n        /* \"#utility.yul\":13963:13982   */\n      add\n        /* \"#utility.yul\":13957:13983   */\n      sload\n        /* \"#utility.yul\":14015:14063   */\n      tag_467\n        /* \"#utility.yul\":14057:14061   */\n      0x1f\n        /* \"#utility.yul\":14049:14055   */\n      dup10\n        /* \"#utility.yul\":14045:14062   */\n      and\n        /* \"#utility.yul\":14034:14043   */\n      dup3\n        /* \"#utility.yul\":14015:14063   */\n      tag_299\n      jump\t// in\n    tag_467:\n        /* \"#utility.yul\":14007:14013   */\n      dup4\n        /* \"#utility.yul\":14000:14064   */\n      sstore\n        /* \"#utility.yul\":13922:14078   */\n      pop\n        /* \"#utility.yul\":13899:14078   */\n    tag_466:\n        /* \"#utility.yul\":14124:14125   */\n      0x01\n        /* \"#utility.yul\":14120:14121   */\n      0x02\n        /* \"#utility.yul\":14112:14118   */\n      dup9\n        /* \"#utility.yul\":14108:14122   */\n      mul\n        /* \"#utility.yul\":14104:14126   */\n      add\n        /* \"#utility.yul\":14098:14102   */\n      dup9\n        /* \"#utility.yul\":14091:14127   */\n      sstore\n        /* \"#utility.yul\":13472:14137   */\n      pop\n      pop\n      pop\n        /* \"#utility.yul\":13435:14376   */\n    tag_457:\n      pop\n        /* \"#utility.yul\":13020:14382   */\n      pop\n      pop\n      pop\n        /* \"#utility.yul\":12931:14382   */\n      pop\n      pop\n    tag_450:\n      jump\t// out\n        /* \"#utility.yul\":14388:14621   */\n    tag_108:\n        /* \"#utility.yul\":14427:14430   */\n      0x00\n        /* \"#utility.yul\":14450:14474   */\n      tag_469\n        /* \"#utility.yul\":14468:14473   */\n      dup3\n        /* \"#utility.yul\":14450:14474   */\n      tag_257\n      jump\t// in\n    tag_469:\n        /* \"#utility.yul\":14441:14474   */\n      swap2\n      pop\n        /* \"#utility.yul\":14496:14562   */\n      0xffffffffffffffffffffffffffffffffffffffffffffffffffffffffffffffff\n        /* \"#utility.yul\":14489:14494   */\n      dup3\n        /* \"#utility.yul\":14486:14563   */\n      sub\n        /* \"#utility.yul\":14483:14586   */\n      tag_470\n      jumpi\n        /* \"#utility.yul\":14566:14584   */\n      tag_471\n      tag_284\n      jump\t// in\n    tag_471:\n        /* \"#utility.yul\":14483:14586   */\n    tag_470:\n        /* \"#utility.yul\":14613:14614   */\n      0x01\n        /* \"#utility.yul\":14606:14611   */\n      dup3\n        /* \"#utility.yul\":14602:14615   */\n      add\n        /* \"#utility.yul\":14595:14615   */\n      swap1\n      pop\n        /* \"#utility.yul\":14388:14621   */\n      swap2\n      swap1\n      pop\n      jump\t// out\n        /* \"#utility.yul\":14627:14919   */\n    tag_301:\n        /* \"#utility.yul\":14767:14801   */\n      0x54686973206974656d20686173206265656e2070656e64696e6720666f72206d\n        /* \"#utility.yul\":14763:14764   */\n      0x00\n        /* \"#utility.yul\":14755:14761   */\n      dup3\n        /* \"#utility.yul\":14751:14765   */\n      add\n        /* \"#utility.yul\":14744:14802   */\n      mstore\n        /* \"#utility.yul\":14836:14870   */\n      0x6f7265207468616e203120686f75727320616e642063616e2774206265206d6f\n        /* \"#utility.yul\":14831:14833   */\n      0x20\n        /* \"#utility.yul\":14823:14829   */\n      dup3\n        /* \"#utility.yul\":14819:14834   */\n      add\n        /* \"#utility.yul\":14812:14871   */\n      mstore\n        /* \"#utility.yul\":14905:14911   */\n      0x7665642e00000000000000000000000000000000000000000000000000000000\n        /* \"#utility.yul\":14900:14902   */\n      0x40\n        /* \"#utility.yul\":14892:14898   */\n      dup3\n        /* \"#utility.yul\":14888:14903   */\n      add\n        /* \"#utility.yul\":14881:14912   */\n      mstore\n        /* \"#utility.yul\":14627:14919   */\n      pop\n      jump\t// out\n        /* \"#utility.yul\":14925:15291   */\n    tag_302:\n        /* \"#utility.yul\":15067:15070   */\n      0x00\n        /* \"#utility.yul\":15088:15155   */\n      tag_474\n        /* \"#utility.yul\":15152:15154   */\n      0x44\n        /* \"#utility.yul\":15147:15150   */\n      dup4\n        /* \"#utility.yul\":15088:15155   */\n      tag_261\n      jump\t// in\n    tag_474:\n        /* \"#utility.yul\":15081:15155   */\n      swap2\n      pop\n        /* \"#utility.yul\":15164:15257   */\n      tag_475\n        /* \"#utility.yul\":15253:15256   */\n      dup3\n        /* \"#utility.yul\":15164:15257   */\n      tag_301\n      jump\t// in\n    tag_475:\n        /* \"#utility.yul\":15282:15284   */\n      0x60\n        /* \"#utility.yul\":15277:15280   */\n      dup3\n        /* \"#utility.yul\":15273:15285   */\n      add\n        /* \"#utility.yul\":15266:15285   */\n      swap1\n      pop\n        /* \"#utility.yul\":14925:15291   */\n      swap2\n      swap1\n      pop\n      jump\t// out\n        /* \"#utility.yul\":15297:15716   */\n    tag_115:\n        /* \"#utility.yul\":15463:15467   */\n      0x00\n        /* \"#utility.yul\":15501:15503   */\n      0x20\n        /* \"#utility.yul\":15490:15499   */\n      dup3\n        /* \"#utility.yul\":15486:15504   */\n      add\n        /* \"#utility.yul\":15478:15504   */\n      swap1\n      pop\n        /* \"#utility.yul\":15550:15559   */\n      dup2\n        /* \"#utility.yul\":15544:15548   */\n      dup2\n        /* \"#utility.yul\":15540:15560   */\n      sub\n        /* \"#utility.yul\":15536:15537   */\n      0x00\n        /* \"#utility.yul\":15525:15534   */\n      dup4\n        /* \"#utility.yul\":15521:15538   */\n      add\n        /* \"#utility.yul\":15514:15561   */\n      mstore\n        /* \"#utility.yul\":15578:15709   */\n      tag_477\n        /* \"#utility.yul\":15704:15708   */\n      dup2\n        /* \"#utility.yul\":15578:15709   */\n      tag_302\n      jump\t// in\n    tag_477:\n        /* \"#utility.yul\":15570:15709   */\n      swap1\n      pop\n        /* \"#utility.yul\":15297:15716   */\n      swap2\n      swap1\n      pop\n      jump\t// out\n        /* \"#utility.yul\":15722:17117   */\n    tag_131:\n        /* \"#utility.yul\":15839:15876   */\n      tag_479\n        /* \"#utility.yul\":15872:15875   */\n      dup3\n        /* \"#utility.yul\":15839:15876   */\n      tag_260\n      jump\t// in\n    tag_479:\n        /* \"#utility.yul\":15941:15959   */\n      0xffffffffffffffff\n        /* \"#utility.yul\":15933:15939   */\n      dup2\n        /* \"#utility.yul\":15930:15960   */\n      gt\n        /* \"#utility.yul\":15927:15983   */\n      iszero\n      tag_480\n      jumpi\n        /* \"#utility.yul\":15963:15981   */\n      tag_481\n      tag_268\n      jump\t// in\n    tag_481:\n        /* \"#utility.yul\":15927:15983   */\n    tag_480:\n        /* \"#utility.yul\":16007:16045   */\n      tag_482\n        /* \"#utility.yul\":16039:16043   */\n      dup3\n        /* \"#utility.yul\":16033:16044   */\n      sload\n        /* \"#utility.yul\":16007:16045   */\n      tag_90\n      jump\t// in\n    tag_482:\n        /* \"#utility.yul\":16092:16159   */\n      tag_483\n        /* \"#utility.yul\":16152:16158   */\n      dup3\n        /* \"#utility.yul\":16144:16150   */\n      dup3\n        /* \"#utility.yul\":16138:16142   */\n      dup6\n        /* \"#utility.yul\":16092:16159   */\n      tag_297\n      jump\t// in\n    tag_483:\n        /* \"#utility.yul\":16186:16187   */\n      0x00\n        /* \"#utility.yul\":16210:16214   */\n      0x20\n        /* \"#utility.yul\":16197:16214   */\n      swap1\n      pop\n        /* \"#utility.yul\":16242:16244   */\n      0x1f\n        /* \"#utility.yul\":16234:16240   */\n      dup4\n        /* \"#utility.yul\":16231:16245   */\n      gt\n        /* \"#utility.yul\":16259:16260   */\n      0x01\n        /* \"#utility.yul\":16254:16872   */\n      dup2\n      eq\n      tag_485\n      jumpi\n        /* \"#utility.yul\":16916:16917   */\n      0x00\n        /* \"#utility.yul\":16933:16939   */\n      dup5\n        /* \"#utility.yul\":16930:17007   */\n      iszero\n      tag_486\n      jumpi\n        /* \"#utility.yul\":16982:16991   */\n      dup3\n        /* \"#utility.yul\":16977:16980   */\n      dup8\n        /* \"#utility.yul\":16973:16992   */\n      add\n        /* \"#utility.yul\":16967:16993   */\n      mload\n        /* \"#utility.yul\":16958:16993   */\n      swap1\n      pop\n        /* \"#utility.yul\":16930:17007   */\n    tag_486:\n        /* \"#utility.yul\":17033:17100   */\n      tag_487\n        /* \"#utility.yul\":17093:17099   */\n      dup6\n        /* \"#utility.yul\":17086:17091   */\n      dup3\n        /* \"#utility.yul\":17033:17100   */\n      tag_300\n      jump\t// in\n    tag_487:\n        /* \"#utility.yul\":17027:17031   */\n      dup7\n        /* \"#utility.yul\":17020:17101   */\n      sstore\n        /* \"#utility.yul\":16889:17111   */\n      pop\n        /* \"#utility.yul\":16224:17111   */\n      jump(tag_484)\n        /* \"#utility.yul\":16254:16872   */\n    tag_485:\n        /* \"#utility.yul\":16306:16310   */\n      0x1f\n        /* \"#utility.yul\":16302:16311   */\n      not\n        /* \"#utility.yul\":16294:16300   */\n      dup5\n        /* \"#utility.yul\":16290:16312   */\n      and\n        /* \"#utility.yul\":16340:16377   */\n      tag_488\n        /* \"#utility.yul\":16372:16376   */\n      dup7\n        /* \"#utility.yul\":16340:16377   */\n      tag_286\n      jump\t// in\n    tag_488:\n        /* \"#utility.yul\":16399:16400   */\n      0x00\n        /* \"#utility.yul\":16413:16621   */\n    tag_489:\n        /* \"#utility.yul\":16427:16434   */\n      dup3\n        /* \"#utility.yul\":16424:16425   */\n      dup2\n        /* \"#utility.yul\":16421:16435   */\n      lt\n        /* \"#utility.yul\":16413:16621   */\n      iszero\n      tag_491\n      jumpi\n        /* \"#utility.yul\":16506:16515   */\n      dup5\n        /* \"#utility.yul\":16501:16504   */\n      dup10\n        /* \"#utility.yul\":16497:16516   */\n      add\n        /* \"#utility.yul\":16491:16517   */\n      mload\n        /* \"#utility.yul\":16483:16489   */\n      dup3\n        /* \"#utility.yul\":16476:16518   */\n      sstore\n        /* \"#utility.yul\":16557:16558   */\n      0x01\n        /* \"#utility.yul\":16549:16555   */\n      dup3\n        /* \"#utility.yul\":16545:16559   */\n      add\n        /* \"#utility.yul\":16535:16559   */\n      swap2\n      pop\n        /* \"#utility.yul\":16604:16606   */\n      0x20\n        /* \"#utility.yul\":16593:16602   */\n      dup6\n        /* \"#utility.yul\":16589:16607   */\n      add\n        /* \"#utility.yul\":16576:16607   */\n      swap5\n      pop\n        /* \"#utility.yul\":16450:16454   */\n      0x20\n        /* \"#utility.yul\":16447:16448   */\n      dup2\n        /* \"#utility.yul\":16443:16455   */\n      add\n        /* \"#utility.yul\":16438:16455   */\n      swap1\n      pop\n        /* \"#utility.yul\":16413:16621   */\n      jump(tag_489)\n    tag_491:\n        /* \"#utility.yul\":16649:16655   */\n      dup7\n        /* \"#utility.yul\":16640:16647   */\n      dup4\n        /* \"#utility.yul\":16637:16656   */\n      lt\n        /* \"#utility.yul\":16634:16813   */\n      iszero\n      tag_492\n      jumpi\n        /* \"#utility.yul\":16707:16716   */\n      dup5\n        /* \"#utility.yul\":16702:16705   */\n      dup10\n        /* \"#utility.yul\":16698:16717   */\n      add\n        /* \"#utility.yul\":16692:16718   */\n      mload\n        /* \"#utility.yul\":16750:16798   */\n      tag_493\n        /* \"#utility.yul\":16792:16796   */\n      0x1f\n        /* \"#utility.yul\":16784:16790   */\n      dup10\n        /* \"#utility.yul\":16780:16797   */\n      and\n        /* \"#utility.yul\":16769:16778   */\n      dup3\n        /* \"#utility.yul\":16750:16798   */\n      tag_299\n      jump\t// in\n    tag_493:\n        /* \"#utility.yul\":16742:16748   */\n      dup4\n        /* \"#utility.yul\":16735:16799   */\n      sstore\n        /* \"#utility.yul\":16657:16813   */\n      pop\n        /* \"#utility.yul\":16634:16813   */\n    tag_492:\n        /* \"#utility.yul\":16859:16860   */\n      0x01\n        /* \"#utility.yul\":16855:16856   */\n      0x02\n        /* \"#utility.yul\":16847:16853   */\n      dup9\n        /* \"#utility.yul\":16843:16857   */\n      mul\n        /* \"#utility.yul\":16839:16861   */\n      add\n        /* \"#utility.yul\":16833:16837   */\n      dup9\n        /* \"#utility.yul\":16826:16862   */\n      sstore\n        /* \"#utility.yul\":16261:16872   */\n      pop\n      pop\n      pop\n        /* \"#utility.yul\":16224:17111   */\n    tag_484:\n      pop\n        /* \"#utility.yul\":15814:17117   */\n      pop\n      pop\n      pop\n        /* \"#utility.yul\":15722:17117   */\n      pop\n      pop\n      jump\t// out\n        /* \"#utility.yul\":17123:17276   */\n    tag_303:\n        /* \"#utility.yul\":17176:17182   */\n      0x00\n        /* \"#utility.yul\":17210:17215   */\n      dup2\n        /* \"#utility.yul\":17204:17216   */\n      sload\n        /* \"#utility.yul\":17194:17216   */\n      swap1\n      pop\n        /* \"#utility.yul\":17236:17269   */\n      tag_495\n        /* \"#utility.yul\":17262:17268   */\n      dup2\n        /* \"#utility.yul\":17236:17269   */\n      tag_90\n      jump\t// in\n    tag_495:\n        /* \"#utility.yul\":17226:17269   */\n      swap1\n      pop\n        /* \"#utility.yul\":17123:17276   */\n      swap2\n      swap1\n      pop\n      jump\t// out\n        /* \"#utility.yul\":17282:17427   */\n    tag_304:\n        /* \"#utility.yul\":17335:17339   */\n      0x00\n        /* \"#utility.yul\":17358:17361   */\n      dup2\n        /* \"#utility.yul\":17350:17361   */\n      swap1\n      pop\n        /* \"#utility.yul\":17381:17384   */\n      dup2\n        /* \"#utility.yul\":17378:17379   */\n      0x00\n        /* \"#utility.yul\":17371:17385   */\n      mstore\n        /* \"#utility.yul\":17415:17419   */\n      0x20\n        /* \"#utility.yul\":17412:17413   */\n      0x00\n        /* \"#utility.yul\":17402:17420   */\n      keccak256\n        /* \"#utility.yul\":17394:17420   */\n      swap1\n      pop\n        /* \"#utility.yul\":17282:17427   */\n      swap2\n      swap1\n      pop\n      jump\t// out\n        /* \"#utility.yul\":17433:18896   */\n    tag_169:\n        /* \"#utility.yul\":17548:17551   */\n      dup2\n        /* \"#utility.yul\":17542:17546   */\n      dup2\n        /* \"#utility.yul\":17539:17552   */\n      sub\n        /* \"#utility.yul\":17536:17562   */\n      tag_498\n      jumpi\n        /* \"#utility.yul\":17555:17560   */\n      pop\n      pop\n      jump(tag_497)\n        /* \"#utility.yul\":17536:17562   */\n    tag_498:\n        /* \"#utility.yul\":17586:17624   */\n      tag_499\n        /* \"#utility.yul\":17620:17623   */\n      dup3\n        /* \"#utility.yul\":17586:17624   */\n      tag_303\n      jump\t// in\n    tag_499:\n        /* \"#utility.yul\":17689:17707   */\n      0xffffffffffffffff\n        /* \"#utility.yul\":17681:17687   */\n      dup2\n        /* \"#utility.yul\":17678:17708   */\n      gt\n        /* \"#utility.yul\":17675:17731   */\n      iszero\n      tag_500\n      jumpi\n        /* \"#utility.yul\":17711:17729   */\n      tag_501\n      tag_268\n      jump\t// in\n    tag_501:\n        /* \"#utility.yul\":17675:17731   */\n    tag_500:\n        /* \"#utility.yul\":17755:17793   */\n      tag_502\n        /* \"#utility.yul\":17787:17791   */\n      dup3\n        /* \"#utility.yul\":17781:17792   */\n      sload\n        /* \"#utility.yul\":17755:17793   */\n      tag_90\n      jump\t// in\n    tag_502:\n        /* \"#utility.yul\":17840:17907   */\n      tag_503\n        /* \"#utility.yul\":17900:17906   */\n      dup3\n        /* \"#utility.yul\":17892:17898   */\n      dup3\n        /* \"#utility.yul\":17886:17890   */\n      dup6\n        /* \"#utility.yul\":17840:17907   */\n      tag_297\n      jump\t// in\n    tag_503:\n        /* \"#utility.yul\":17934:17935   */\n      0x00\n        /* \"#utility.yul\":17963:17965   */\n      0x1f\n        /* \"#utility.yul\":17955:17961   */\n      dup4\n        /* \"#utility.yul\":17952:17966   */\n      gt\n        /* \"#utility.yul\":17980:17981   */\n      0x01\n        /* \"#utility.yul\":17975:18651   */\n      dup2\n      eq\n      tag_505\n      jumpi\n        /* \"#utility.yul\":18695:18696   */\n      0x00\n        /* \"#utility.yul\":18712:18718   */\n      dup5\n        /* \"#utility.yul\":18709:18786   */\n      iszero\n      tag_506\n      jumpi\n        /* \"#utility.yul\":18761:18770   */\n      dup3\n        /* \"#utility.yul\":18756:18759   */\n      dup8\n        /* \"#utility.yul\":18752:18771   */\n      add\n        /* \"#utility.yul\":18746:18772   */\n      sload\n        /* \"#utility.yul\":18737:18772   */\n      swap1\n      pop\n        /* \"#utility.yul\":18709:18786   */\n    tag_506:\n        /* \"#utility.yul\":18812:18879   */\n      tag_507\n        /* \"#utility.yul\":18872:18878   */\n      dup6\n        /* \"#utility.yul\":18865:18870   */\n      dup3\n        /* \"#utility.yul\":18812:18879   */\n      tag_300\n      jump\t// in\n    tag_507:\n        /* \"#utility.yul\":18806:18810   */\n      dup7\n        /* \"#utility.yul\":18799:18880   */\n      sstore\n        /* \"#utility.yul\":18668:18890   */\n      pop\n        /* \"#utility.yul\":17945:18890   */\n      jump(tag_504)\n        /* \"#utility.yul\":17975:18651   */\n    tag_505:\n        /* \"#utility.yul\":18027:18031   */\n      0x1f\n        /* \"#utility.yul\":18023:18032   */\n      not\n        /* \"#utility.yul\":18015:18021   */\n      dup5\n        /* \"#utility.yul\":18011:18033   */\n      and\n        /* \"#utility.yul\":18053:18093   */\n      tag_508\n        /* \"#utility.yul\":18089:18092   */\n      dup8\n        /* \"#utility.yul\":18053:18093   */\n      tag_304\n      jump\t// in\n    tag_508:\n        /* \"#utility.yul\":18046:18093   */\n      swap7\n      pop\n        /* \"#utility.yul\":18120:18157   */\n      tag_509\n        /* \"#utility.yul\":18152:18156   */\n      dup7\n        /* \"#utility.yul\":18120:18157   */\n      tag_286\n      jump\t// in\n    tag_509:\n        /* \"#utility.yul\":18179:18180   */\n      0x00\n        /* \"#utility.yul\":18193:18400   */\n    tag_510:\n        /* \"#utility.yul\":18207:18214   */\n      dup3\n        /* \"#utility.yul\":18204:18205   */\n      dup2\n        /* \"#utility.yul\":18201:18215   */\n      lt\n        /* \"#utility.yul\":18193:18400   */\n      iszero\n      tag_512\n      jumpi\n        /* \"#utility.yul\":18286:18295   */\n      dup5\n        /* \"#utility.yul\":18281:18284   */\n      dup10\n        /* \"#utility.yul\":18277:18296   */\n      add\n        /* \"#utility.yul\":18271:18297   */\n      sload\n        /* \"#utility.yul\":18263:18269   */\n      dup3\n        /* \"#utility.yul\":18256:18298   */\n      sstore\n        /* \"#utility.yul\":18337:18338   */\n      0x01\n        /* \"#utility.yul\":18329:18335   */\n      dup3\n        /* \"#utility.yul\":18325:18339   */\n      add\n        /* \"#utility.yul\":18315:18339   */\n      swap2\n      pop\n        /* \"#utility.yul\":18384:18385   */\n      0x01\n        /* \"#utility.yul\":18373:18382   */\n      dup6\n        /* \"#utility.yul\":18369:18386   */\n      add\n        /* \"#utility.yul\":18356:18386   */\n      swap5\n      pop\n        /* \"#utility.yul\":18230:18234   */\n      0x20\n        /* \"#utility.yul\":18227:18228   */\n      dup2\n        /* \"#utility.yul\":18223:18235   */\n      add\n        /* \"#utility.yul\":18218:18235   */\n      swap1\n      pop\n        /* \"#utility.yul\":18193:18400   */\n      jump(tag_510)\n    tag_512:\n        /* \"#utility.yul\":18428:18434   */\n      dup7\n        /* \"#utility.yul\":18419:18426   */\n      dup4\n        /* \"#utility.yul\":18416:18435   */\n      lt\n        /* \"#utility.yul\":18413:18592   */\n      iszero\n      tag_513\n      jumpi\n        /* \"#utility.yul\":18486:18495   */\n      dup5\n        /* \"#utility.yul\":18481:18484   */\n      dup10\n        /* \"#utility.yul\":18477:18496   */\n      add\n        /* \"#utility.yul\":18471:18497   */\n      sload\n        /* \"#utility.yul\":18529:18577   */\n      tag_514\n        /* \"#utility.yul\":18571:18575   */\n      0x1f\n        /* \"#utility.yul\":18563:18569   */\n      dup10\n        /* \"#utility.yul\":18559:18576   */\n      and\n        /* \"#utility.yul\":18548:18557   */\n      dup3\n        /* \"#utility.yul\":18529:18577   */\n      tag_299\n      jump\t// in\n    tag_514:\n        /* \"#utility.yul\":18521:18527   */\n      dup4\n        /* \"#utility.yul\":18514:18578   */\n      sstore\n        /* \"#utility.yul\":18436:18592   */\n      pop\n        /* \"#utility.yul\":18413:18592   */\n    tag_513:\n        /* \"#utility.yul\":18638:18639   */\n      0x01\n        /* \"#utility.yul\":18634:18635   */\n      0x02\n        /* \"#utility.yul\":18626:18632   */\n      dup9\n        /* \"#utility.yul\":18622:18636   */\n      mul\n        /* \"#utility.yul\":18618:18640   */\n      add\n        /* \"#utility.yul\":18612:18616   */\n      dup9\n        /* \"#utility.yul\":18605:18641   */\n      sstore\n        /* \"#utility.yul\":17982:18651   */\n      pop\n      pop\n      pop\n        /* \"#utility.yul\":17945:18890   */\n    tag_504:\n      pop\n        /* \"#utility.yul\":17526:18896   */\n      pop\n      pop\n      pop\n        /* \"#utility.yul\":17433:18896   */\n      pop\n      pop\n    tag_497:\n      jump\t// out\n        /* \"#utility.yul\":18902:19082   */\n    tag_178:\n        /* \"#utility.yul\":18950:19027   */\n      0x4e487b7100000000000000000000000000000000000000000000000000000000\n        /* \"#utility.yul\":18947:18948   */\n      0x00\n        /* \"#utility.yul\":18940:19028   */\n      mstore\n        /* \"#utility.yul\":19047:19051   */\n      0x31\n        /* \"#utility.yul\":19044:19045   */\n      0x04\n        /* \"#utility.yul\":19037:19052   */\n      mstore\n        /* \"#utility.yul\":19071:19075   */\n      0x24\n        /* \"#utility.yul\":19068:19069   */\n      0x00\n        /* \"#utility.yul\":19061:19076   */\n      revert\n\n    auxdata: 0xa264697066735822122079f44b1c4db6b0572e0eab9ca42dfd548297797cd6acb0d5602d8dff4227a25864736f6c63430008110033\n}\n",
				"bytecode": {
					"linkReferences": {},
					"object": "6080604052600060035534801561001557600080fd5b50611a10806100256000396000f3fe608060405234801561001057600080fd5b50600436106101005760003560e01c8063982abb8911610097578063dd68afb611610066578063dd68afb614610284578063e29672ba146102b4578063fdacd576146102d2578063fe1c7f6f146102ee57610100565b8063982abb89146101fc578063bc8bc2b41461021a578063bf3d28ab1461024a578063cc579ce01461026857610100565b806351932977116100d357806351932977146101775780636e3c6738146101935780637965df39146101af57806395ffebf5146101e057610100565b806301b7dcb4146101055780631bfc269b1461010f5780631ee26ecd1461013f5780634ea3e2301461015b575b600080fd5b61010d61031e565b005b61012960048036038101906101249190610f11565b61033b565b6040516101369190610fce565b60405180910390f35b61015960048036038101906101549190610f11565b6103eb565b005b61017560048036038101906101709190610f11565b6104dc565b005b610191600480360381019061018c9190610f11565b61054d565b005b6101ad60048036038101906101a89190610f11565b610578565b005b6101c960048036038101906101c49190610f11565b6105a5565b6040516101d7929190610fff565b60405180910390f35b6101fa60048036038101906101f59190611164565b610651565b005b610204610689565b60405161021191906112b9565b60405180910390f35b610234600480360381019061022f9190610f11565b610762565b6040516102419190610fce565b60405180910390f35b61025261080e565b60405161025f91906112db565b60405180910390f35b610282600480360381019061027d9190610f11565b610814565b005b61029e60048036038101906102999190610f11565b610a1a565b6040516102ab9190610fce565b60405180910390f35b6102bc610aca565b6040516102c991906112b9565b60405180910390f35b6102ec60048036038101906102e79190610f11565b610ba3565b005b61030860048036038101906103039190610f11565b610d79565b6040516103159190610fce565b60405180910390f35b60008061032b9190610e25565b600160006103399190610e25565b565b606060018281548110610351576103506112f6565b5b90600052602060002001805461036690611354565b80601f016020809104026020016040519081016040528092919081815260200182805461039290611354565b80156103df5780601f106103b4576101008083540402835291602001916103df565b820191906000526020600020905b8154815290600101906020018083116103c257829003601f168201915b50505050509050919050565b600260008281526020019081526020016000206000808201600061040f9190610e46565b6001820160009055505060008190505b600160035461042e91906113b4565b81101561049c576002600060018361044691906113e8565b8152602001908152602001600020600260008381526020019081526020016000206000820181600001908161047b91906115de565b50600182015481600101559050508080610494906116c6565b91505061041f565b506002600060016003546104b091906113b4565b8152602001908152602001600020600080820160006104cf9190610e46565b6001820160009055505050565b6002600082815260200190815260200160002060010154426104fe91906113b4565b600481905550610e106004541061054a576040517f08c379a0000000000000000000000000000000000000000000000000000000008152600401610541906117a6565b60405180910390fd5b50565b60026000828152602001908152602001600020600101544261056f91906113b4565b60048190555050565b6000818154811061058c5761058b6112f6565b5b9060005260206000200160006105a29190610e46565b50565b60026020528060005260406000206000915090508060000180546105c890611354565b80601f01602080910402602001604051908101604052809291908181526020018280546105f490611354565b80156106415780601f1061061657610100808354040283529160200191610641565b820191906000526020600020905b81548152906001019060200180831161062457829003601f168201915b5050505050908060010154905082565b60008190806001815401808255809150506001900390600052602060002001600090919091909150908161068591906117c6565b5050565b60606000805480602002602001604051908101604052809291908181526020016000905b828210156107595783829060005260206000200180546106cc90611354565b80601f01602080910402602001604051908101604052809291908181526020018280546106f890611354565b80156107455780601f1061071a57610100808354040283529160200191610745565b820191906000526020600020905b81548152906001019060200180831161072857829003601f168201915b5050505050815260200190600101906106ad565b50505050905090565b6000818154811061077257600080fd5b90600052602060002001600091509050805461078d90611354565b80601f01602080910402602001604051908101604052809291908181526020018280546107b990611354565b80156108065780601f106107db57610100808354040283529160200191610806565b820191906000526020600020905b8154815290600101906020018083116107e957829003601f168201915b505050505081565b60045481565b6000808281548110610829576108286112f6565b5b90600052602060002001805461083e90611354565b80601f016020809104026020016040519081016040528092919081815260200182805461086a90611354565b80156108b75780601f1061088c576101008083540402835291602001916108b7565b820191906000526020600020905b81548152906001019060200180831161089a57829003601f168201915b5050505050905060008290505b60016000805490506108d691906113b4565b8110156109455760006001826108ec91906113e8565b815481106108fd576108fc6112f6565b5b906000526020600020016000828154811061091b5761091a6112f6565b5b90600052602060002001908161093191906118c3565b50808061093d906116c6565b9150506108c4565b506000600160008054905061095a91906113b4565b8154811061096b5761096a6112f6565b5b9060005260206000200160006109819190610e46565b6000805480610993576109926119ab565b5b6001900381819060005260206000200160006109af9190610e46565b905560405180604001604052808281526020014281525060026000600354815260200190815260200160002060008201518160000190816109f091906117c6565b506020820151816001015590505060036000815480929190610a11906116c6565b91905055505050565b606060008281548110610a3057610a2f6112f6565b5b906000526020600020018054610a4590611354565b80601f0160208091040260200160405190810160405280929190818152602001828054610a7190611354565b8015610abe5780601f10610a9357610100808354040283529160200191610abe565b820191906000526020600020905b815481529060010190602001808311610aa157829003601f168201915b50505050509050919050565b60606001805480602002602001604051908101604052809291908181526020016000905b82821015610b9a578382906000526020600020018054610b0d90611354565b80601f0160208091040260200160405190810160405280929190818152602001828054610b3990611354565b8015610b865780601f10610b5b57610100808354040283529160200191610b86565b820191906000526020600020905b815481529060010190602001808311610b6957829003601f168201915b505050505081526020019060010190610aee565b50505050905090565b6000808281548110610bb857610bb76112f6565b5b906000526020600020018054610bcd90611354565b80601f0160208091040260200160405190810160405280929190818152602001828054610bf990611354565b8015610c465780601f10610c1b57610100808354040283529160200191610c46565b820191906000526020600020905b815481529060010190602001808311610c2957829003601f168201915b5050505050905060008290505b6001600080549050610c6591906113b4565b811015610cd4576000600182610c7b91906113e8565b81548110610c8c57610c8b6112f6565b5b9060005260206000200160008281548110610caa57610ca96112f6565b5b906000526020600020019081610cc091906118c3565b508080610ccc906116c6565b915050610c53565b5060006001600080549050610ce991906113b4565b81548110610cfa57610cf96112f6565b5b906000526020600020016000610d109190610e46565b6000805480610d2257610d216119ab565b5b600190038181906000526020600020016000610d3e9190610e46565b9055600181908060018154018082558091505060019003906000526020600020016000909190919091509081610d7491906117c6565b505050565b60018181548110610d8957600080fd5b906000526020600020016000915090508054610da490611354565b80601f0160208091040260200160405190810160405280929190818152602001828054610dd090611354565b8015610e1d5780601f10610df257610100808354040283529160200191610e1d565b820191906000526020600020905b815481529060010190602001808311610e0057829003601f168201915b505050505081565b5080546000825590600052602060002090810190610e439190610e86565b50565b508054610e5290611354565b6000825580601f10610e645750610e83565b601f016020900490600052602060002090810190610e829190610eaa565b5b50565b5b80821115610ea65760008181610e9d9190610e46565b50600101610e87565b5090565b5b80821115610ec3576000816000905550600101610eab565b5090565b6000604051905090565b600080fd5b600080fd5b6000819050919050565b610eee81610edb565b8114610ef957600080fd5b50565b600081359050610f0b81610ee5565b92915050565b600060208284031215610f2757610f26610ed1565b5b6000610f3584828501610efc565b91505092915050565b600081519050919050565b600082825260208201905092915050565b60005b83811015610f78578082015181840152602081019050610f5d565b60008484015250505050565b6000601f19601f8301169050919050565b6000610fa082610f3e565b610faa8185610f49565b9350610fba818560208601610f5a565b610fc381610f84565b840191505092915050565b60006020820190508181036000830152610fe88184610f95565b905092915050565b610ff981610edb565b82525050565b600060408201905081810360008301526110198185610f95565b90506110286020830184610ff0565b9392505050565b600080fd5b600080fd5b7f4e487b7100000000000000000000000000000000000000000000000000000000600052604160045260246000fd5b61107182610f84565b810181811067ffffffffffffffff821117156110905761108f611039565b5b80604052505050565b60006110a3610ec7565b90506110af8282611068565b919050565b600067ffffffffffffffff8211156110cf576110ce611039565b5b6110d882610f84565b9050602081019050919050565b82818337600083830152505050565b6000611107611102846110b4565b611099565b90508281526020810184848401111561112357611122611034565b5b61112e8482856110e5565b509392505050565b600082601f83011261114b5761114a61102f565b5b813561115b8482602086016110f4565b91505092915050565b60006020828403121561117a57611179610ed1565b5b600082013567ffffffffffffffff81111561119857611197610ed6565b5b6111a484828501611136565b91505092915050565b600081519050919050565b600082825260208201905092915050565b6000819050602082019050919050565b600082825260208201905092915050565b60006111f582610f3e565b6111ff81856111d9565b935061120f818560208601610f5a565b61121881610f84565b840191505092915050565b600061122f83836111ea565b905092915050565b6000602082019050919050565b600061124f826111ad565b61125981856111b8565b93508360208202850161126b856111c9565b8060005b858110156112a757848403895281516112888582611223565b945061129383611237565b925060208a0199505060018101905061126f565b50829750879550505050505092915050565b600060208201905081810360008301526112d38184611244565b905092915050565b60006020820190506112f06000830184610ff0565b92915050565b7f4e487b7100000000000000000000000000000000000000000000000000000000600052603260045260246000fd5b7f4e487b7100000000000000000000000000000000000000000000000000000000600052602260045260246000fd5b6000600282049050600182168061136c57607f821691505b60208210810361137f5761137e611325565b5b50919050565b7f4e487b7100000000000000000000000000000000000000000000000000000000600052601160045260246000fd5b60006113bf82610edb565b91506113ca83610edb565b92508282039050818111156113e2576113e1611385565b5b92915050565b60006113f382610edb565b91506113fe83610edb565b925082820190508082111561141657611415611385565b5b92915050565b60008154905061142b81611354565b9050919050565b60008190508160005260206000209050919050565b60006020601f8301049050919050565b600082821b905092915050565b6000600883026114947fffffffffffffffffffffffffffffffffffffffffffffffffffffffffffffffff82611457565b61149e8683611457565b95508019841693508086168417925050509392505050565b6000819050919050565b60006114db6114d66114d184610edb565b6114b6565b610edb565b9050919050565b6000819050919050565b6114f5836114c0565b611509611501826114e2565b848454611464565b825550505050565b600090565b61151e611511565b6115298184846114ec565b505050565b5b8181101561154d57611542600082611516565b60018101905061152f565b5050565b601f8211156115925761156381611432565b61156c84611447565b8101602085101561157b578190505b61158f61158785611447565b83018261152e565b50505b505050565b600082821c905092915050565b60006115b560001984600802611597565b1980831691505092915050565b60006115ce83836115a4565b9150826002028217905092915050565b8181036115ec5750506116c4565b6115f58261141c565b67ffffffffffffffff81111561160e5761160d611039565b5b6116188254611354565b611623828285611551565b6000601f8311600181146116525760008415611640578287015490505b61164a85826115c2565b8655506116bd565b601f19841661166087611432565b965061166b86611432565b60005b828110156116935784890154825560018201915060018501945060208101905061166e565b868310156116b057848901546116ac601f8916826115a4565b8355505b6001600288020188555050505b5050505050505b565b60006116d182610edb565b91507fffffffffffffffffffffffffffffffffffffffffffffffffffffffffffffffff820361170357611702611385565b5b600182019050919050565b7f54686973206974656d20686173206265656e2070656e64696e6720666f72206d60008201527f6f7265207468616e203120686f75727320616e642063616e2774206265206d6f60208201527f7665642e00000000000000000000000000000000000000000000000000000000604082015250565b6000611790604483610f49565b915061179b8261170e565b606082019050919050565b600060208201905081810360008301526117bf81611783565b9050919050565b6117cf82610f3e565b67ffffffffffffffff8111156117e8576117e7611039565b5b6117f28254611354565b6117fd828285611551565b600060209050601f831160018114611830576000841561181e578287015190505b61182885826115c2565b865550611890565b601f19841661183e86611432565b60005b8281101561186657848901518255600182019150602085019450602081019050611841565b86831015611883578489015161187f601f8916826115a4565b8355505b6001600288020188555050505b505050505050565b6000815490506118a781611354565b9050919050565b60008190508160005260206000209050919050565b8181036118d15750506119a9565b6118da82611898565b67ffffffffffffffff8111156118f3576118f2611039565b5b6118fd8254611354565b611908828285611551565b6000601f8311600181146119375760008415611925578287015490505b61192f85826115c2565b8655506119a2565b601f198416611945876118ae565b965061195086611432565b60005b8281101561197857848901548255600182019150600185019450602081019050611953565b868310156119955784890154611991601f8916826115a4565b8355505b6001600288020188555050505b5050505050505b565b7f4e487b7100000000000000000000000000000000000000000000000000000000600052603160045260246000fdfea264697066735822122079f44b1c4db6b0572e0eab9ca42dfd548297797cd6acb0d5602d8dff4227a25864736f6c63430008110033",
					"opcodes": "PUSH1 0x80 PUSH1 0x40 MSTORE PUSH1 0x0 PUSH1 0x3 SSTORE CALLVALUE DUP1 ISZERO PUSH2 0x15 JUMPI PUSH1 0x0 DUP1 REVERT JUMPDEST POP PUSH2 0x1A10 DUP1 PUSH2 0x25 PUSH1 0x0 CODECOPY PUSH1 0x0 RETURN INVALID PUSH1 0x80 PUSH1 0x40 MSTORE CALLVALUE DUP1 ISZERO PUSH2 0x10 JUMPI PUSH1 0x0 DUP1 REVERT JUMPDEST POP PUSH1 0x4 CALLDATASIZE LT PUSH2 0x100 JUMPI PUSH1 0x0 CALLDATALOAD PUSH1 0xE0 SHR DUP1 PUSH4 0x982ABB89 GT PUSH2 0x97 JUMPI DUP1 PUSH4 0xDD68AFB6 GT PUSH2 0x66 JUMPI DUP1 PUSH4 0xDD68AFB6 EQ PUSH2 0x284 JUMPI DUP1 PUSH4 0xE29672BA EQ PUSH2 0x2B4 JUMPI DUP1 PUSH4 0xFDACD576 EQ PUSH2 0x2D2 JUMPI DUP1 PUSH4 0xFE1C7F6F EQ PUSH2 0x2EE JUMPI PUSH2 0x100 JUMP JUMPDEST DUP1 PUSH4 0x982ABB89 EQ PUSH2 0x1FC JUMPI DUP1 PUSH4 0xBC8BC2B4 EQ PUSH2 0x21A JUMPI DUP1 PUSH4 0xBF3D28AB EQ PUSH2 0x24A JUMPI DUP1 PUSH4 0xCC579CE0 EQ PUSH2 0x268 JUMPI PUSH2 0x100 JUMP JUMPDEST DUP1 PUSH4 0x51932977 GT PUSH2 0xD3 JUMPI DUP1 PUSH4 0x51932977 EQ PUSH2 0x177 JUMPI DUP1 PUSH4 0x6E3C6738 EQ PUSH2 0x193 JUMPI DUP1 PUSH4 0x7965DF39 EQ PUSH2 0x1AF JUMPI DUP1 PUSH4 0x95FFEBF5 EQ PUSH2 0x1E0 JUMPI PUSH2 0x100 JUMP JUMPDEST DUP1 PUSH4 0x1B7DCB4 EQ PUSH2 0x105 JUMPI DUP1 PUSH4 0x1BFC269B EQ PUSH2 0x10F JUMPI DUP1 PUSH4 0x1EE26ECD EQ PUSH2 0x13F JUMPI DUP1 PUSH4 0x4EA3E230 EQ PUSH2 0x15B JUMPI JUMPDEST PUSH1 0x0 DUP1 REVERT JUMPDEST PUSH2 0x10D PUSH2 0x31E JUMP JUMPDEST STOP JUMPDEST PUSH2 0x129 PUSH1 0x4 DUP1 CALLDATASIZE SUB DUP2 ADD SWAP1 PUSH2 0x124 SWAP2 SWAP1 PUSH2 0xF11 JUMP JUMPDEST PUSH2 0x33B JUMP JUMPDEST PUSH1 0x40 MLOAD PUSH2 0x136 SWAP2 SWAP1 PUSH2 0xFCE JUMP JUMPDEST PUSH1 0x40 MLOAD DUP1 SWAP2 SUB SWAP1 RETURN JUMPDEST PUSH2 0x159 PUSH1 0x4 DUP1 CALLDATASIZE SUB DUP2 ADD SWAP1 PUSH2 0x154 SWAP2 SWAP1 PUSH2 0xF11 JUMP JUMPDEST PUSH2 0x3EB JUMP JUMPDEST STOP JUMPDEST PUSH2 0x175 PUSH1 0x4 DUP1 CALLDATASIZE SUB DUP2 ADD SWAP1 PUSH2 0x170 SWAP2 SWAP1 PUSH2 0xF11 JUMP JUMPDEST PUSH2 0x4DC JUMP JUMPDEST STOP JUMPDEST PUSH2 0x191 PUSH1 0x4 DUP1 CALLDATASIZE SUB DUP2 ADD SWAP1 PUSH2 0x18C SWAP2 SWAP1 PUSH2 0xF11 JUMP JUMPDEST PUSH2 0x54D JUMP JUMPDEST STOP JUMPDEST PUSH2 0x1AD PUSH1 0x4 DUP1 CALLDATASIZE SUB DUP2 ADD SWAP1 PUSH2 0x1A8 SWAP2 SWAP1 PUSH2 0xF11 JUMP JUMPDEST PUSH2 0x578 JUMP JUMPDEST STOP JUMPDEST PUSH2 0x1C9 PUSH1 0x4 DUP1 CALLDATASIZE SUB DUP2 ADD SWAP1 PUSH2 0x1C4 SWAP2 SWAP1 PUSH2 0xF11 JUMP JUMPDEST PUSH2 0x5A5 JUMP JUMPDEST PUSH1 0x40 MLOAD PUSH2 0x1D7 SWAP3 SWAP2 SWAP1 PUSH2 0xFFF JUMP JUMPDEST PUSH1 0x40 MLOAD DUP1 SWAP2 SUB SWAP1 RETURN JUMPDEST PUSH2 0x1FA PUSH1 0x4 DUP1 CALLDATASIZE SUB DUP2 ADD SWAP1 PUSH2 0x1F5 SWAP2 SWAP1 PUSH2 0x1164 JUMP JUMPDEST PUSH2 0x651 JUMP JUMPDEST STOP JUMPDEST PUSH2 0x204 PUSH2 0x689 JUMP JUMPDEST PUSH1 0x40 MLOAD PUSH2 0x211 SWAP2 SWAP1 PUSH2 0x12B9 JUMP JUMPDEST PUSH1 0x40 MLOAD DUP1 SWAP2 SUB SWAP1 RETURN JUMPDEST PUSH2 0x234 PUSH1 0x4 DUP1 CALLDATASIZE SUB DUP2 ADD SWAP1 PUSH2 0x22F SWAP2 SWAP1 PUSH2 0xF11 JUMP JUMPDEST PUSH2 0x762 JUMP JUMPDEST PUSH1 0x40 MLOAD PUSH2 0x241 SWAP2 SWAP1 PUSH2 0xFCE JUMP JUMPDEST PUSH1 0x40 MLOAD DUP1 SWAP2 SUB SWAP1 RETURN JUMPDEST PUSH2 0x252 PUSH2 0x80E JUMP JUMPDEST PUSH1 0x40 MLOAD PUSH2 0x25F SWAP2 SWAP1 PUSH2 0x12DB JUMP JUMPDEST PUSH1 0x40 MLOAD DUP1 SWAP2 SUB SWAP1 RETURN JUMPDEST PUSH2 0x282 PUSH1 0x4 DUP1 CALLDATASIZE SUB DUP2 ADD SWAP1 PUSH2 0x27D SWAP2 SWAP1 PUSH2 0xF11 JUMP JUMPDEST PUSH2 0x814 JUMP JUMPDEST STOP JUMPDEST PUSH2 0x29E PUSH1 0x4 DUP1 CALLDATASIZE SUB DUP2 ADD SWAP1 PUSH2 0x299 SWAP2 SWAP1 PUSH2 0xF11 JUMP JUMPDEST PUSH2 0xA1A JUMP JUMPDEST PUSH1 0x40 MLOAD PUSH2 0x2AB SWAP2 SWAP1 PUSH2 0xFCE JUMP JUMPDEST PUSH1 0x40 MLOAD DUP1 SWAP2 SUB SWAP1 RETURN JUMPDEST PUSH2 0x2BC PUSH2 0xACA JUMP JUMPDEST PUSH1 0x40 MLOAD PUSH2 0x2C9 SWAP2 SWAP1 PUSH2 0x12B9 JUMP JUMPDEST PUSH1 0x40 MLOAD DUP1 SWAP2 SUB SWAP1 RETURN JUMPDEST PUSH2 0x2EC PUSH1 0x4 DUP1 CALLDATASIZE SUB DUP2 ADD SWAP1 PUSH2 0x2E7 SWAP2 SWAP1 PUSH2 0xF11 JUMP JUMPDEST PUSH2 0xBA3 JUMP JUMPDEST STOP JUMPDEST PUSH2 0x308 PUSH1 0x4 DUP1 CALLDATASIZE SUB DUP2 ADD SWAP1 PUSH2 0x303 SWAP2 SWAP1 PUSH2 0xF11 JUMP JUMPDEST PUSH2 0xD79 JUMP JUMPDEST PUSH1 0x40 MLOAD PUSH2 0x315 SWAP2 SWAP1 PUSH2 0xFCE JUMP JUMPDEST PUSH1 0x40 MLOAD DUP1 SWAP2 SUB SWAP1 RETURN JUMPDEST PUSH1 0x0 DUP1 PUSH2 0x32B SWAP2 SWAP1 PUSH2 0xE25 JUMP JUMPDEST PUSH1 0x1 PUSH1 0x0 PUSH2 0x339 SWAP2 SWAP1 PUSH2 0xE25 JUMP JUMPDEST JUMP JUMPDEST PUSH1 0x60 PUSH1 0x1 DUP3 DUP2 SLOAD DUP2 LT PUSH2 0x351 JUMPI PUSH2 0x350 PUSH2 0x12F6 JUMP JUMPDEST JUMPDEST SWAP1 PUSH1 0x0 MSTORE PUSH1 0x20 PUSH1 0x0 KECCAK256 ADD DUP1 SLOAD PUSH2 0x366 SWAP1 PUSH2 0x1354 JUMP JUMPDEST DUP1 PUSH1 0x1F ADD PUSH1 0x20 DUP1 SWAP2 DIV MUL PUSH1 0x20 ADD PUSH1 0x40 MLOAD SWAP1 DUP2 ADD PUSH1 0x40 MSTORE DUP1 SWAP3 SWAP2 SWAP1 DUP2 DUP2 MSTORE PUSH1 0x20 ADD DUP3 DUP1 SLOAD PUSH2 0x392 SWAP1 PUSH2 0x1354 JUMP JUMPDEST DUP1 ISZERO PUSH2 0x3DF JUMPI DUP1 PUSH1 0x1F LT PUSH2 0x3B4 JUMPI PUSH2 0x100 DUP1 DUP4 SLOAD DIV MUL DUP4 MSTORE SWAP2 PUSH1 0x20 ADD SWAP2 PUSH2 0x3DF JUMP JUMPDEST DUP3 ADD SWAP2 SWAP1 PUSH1 0x0 MSTORE PUSH1 0x20 PUSH1 0x0 KECCAK256 SWAP1 JUMPDEST DUP2 SLOAD DUP2 MSTORE SWAP1 PUSH1 0x1 ADD SWAP1 PUSH1 0x20 ADD DUP1 DUP4 GT PUSH2 0x3C2 JUMPI DUP3 SWAP1 SUB PUSH1 0x1F AND DUP3 ADD SWAP2 JUMPDEST POP POP POP POP POP SWAP1 POP SWAP2 SWAP1 POP JUMP JUMPDEST PUSH1 0x2 PUSH1 0x0 DUP3 DUP2 MSTORE PUSH1 0x20 ADD SWAP1 DUP2 MSTORE PUSH1 0x20 ADD PUSH1 0x0 KECCAK256 PUSH1 0x0 DUP1 DUP3 ADD PUSH1 0x0 PUSH2 0x40F SWAP2 SWAP1 PUSH2 0xE46 JUMP JUMPDEST PUSH1 0x1 DUP3 ADD PUSH1 0x0 SWAP1 SSTORE POP POP PUSH1 0x0 DUP2 SWAP1 POP JUMPDEST PUSH1 0x1 PUSH1 0x3 SLOAD PUSH2 0x42E SWAP2 SWAP1 PUSH2 0x13B4 JUMP JUMPDEST DUP2 LT ISZERO PUSH2 0x49C JUMPI PUSH1 0x2 PUSH1 0x0 PUSH1 0x1 DUP4 PUSH2 0x446 SWAP2 SWAP1 PUSH2 0x13E8 JUMP JUMPDEST DUP2 MSTORE PUSH1 0x20 ADD SWAP1 DUP2 MSTORE PUSH1 0x20 ADD PUSH1 0x0 KECCAK256 PUSH1 0x2 PUSH1 0x0 DUP4 DUP2 MSTORE PUSH1 0x20 ADD SWAP1 DUP2 MSTORE PUSH1 0x20 ADD PUSH1 0x0 KECCAK256 PUSH1 0x0 DUP3 ADD DUP2 PUSH1 0x0 ADD SWAP1 DUP2 PUSH2 0x47B SWAP2 SWAP1 PUSH2 0x15DE JUMP JUMPDEST POP PUSH1 0x1 DUP3 ADD SLOAD DUP2 PUSH1 0x1 ADD SSTORE SWAP1 POP POP DUP1 DUP1 PUSH2 0x494 SWAP1 PUSH2 0x16C6 JUMP JUMPDEST SWAP2 POP POP PUSH2 0x41F JUMP JUMPDEST POP PUSH1 0x2 PUSH1 0x0 PUSH1 0x1 PUSH1 0x3 SLOAD PUSH2 0x4B0 SWAP2 SWAP1 PUSH2 0x13B4 JUMP JUMPDEST DUP2 MSTORE PUSH1 0x20 ADD SWAP1 DUP2 MSTORE PUSH1 0x20 ADD PUSH1 0x0 KECCAK256 PUSH1 0x0 DUP1 DUP3 ADD PUSH1 0x0 PUSH2 0x4CF SWAP2 SWAP1 PUSH2 0xE46 JUMP JUMPDEST PUSH1 0x1 DUP3 ADD PUSH1 0x0 SWAP1 SSTORE POP POP POP JUMP JUMPDEST PUSH1 0x2 PUSH1 0x0 DUP3 DUP2 MSTORE PUSH1 0x20 ADD SWAP1 DUP2 MSTORE PUSH1 0x20 ADD PUSH1 0x0 KECCAK256 PUSH1 0x1 ADD SLOAD TIMESTAMP PUSH2 0x4FE SWAP2 SWAP1 PUSH2 0x13B4 JUMP JUMPDEST PUSH1 0x4 DUP2 SWAP1 SSTORE POP PUSH2 0xE10 PUSH1 0x4 SLOAD LT PUSH2 0x54A JUMPI PUSH1 0x40 MLOAD PUSH32 0x8C379A000000000000000000000000000000000000000000000000000000000 DUP2 MSTORE PUSH1 0x4 ADD PUSH2 0x541 SWAP1 PUSH2 0x17A6 JUMP JUMPDEST PUSH1 0x40 MLOAD DUP1 SWAP2 SUB SWAP1 REVERT JUMPDEST POP JUMP JUMPDEST PUSH1 0x2 PUSH1 0x0 DUP3 DUP2 MSTORE PUSH1 0x20 ADD SWAP1 DUP2 MSTORE PUSH1 0x20 ADD PUSH1 0x0 KECCAK256 PUSH1 0x1 ADD SLOAD TIMESTAMP PUSH2 0x56F SWAP2 SWAP1 PUSH2 0x13B4 JUMP JUMPDEST PUSH1 0x4 DUP2 SWAP1 SSTORE POP POP JUMP JUMPDEST PUSH1 0x0 DUP2 DUP2 SLOAD DUP2 LT PUSH2 0x58C JUMPI PUSH2 0x58B PUSH2 0x12F6 JUMP JUMPDEST JUMPDEST SWAP1 PUSH1 0x0 MSTORE PUSH1 0x20 PUSH1 0x0 KECCAK256 ADD PUSH1 0x0 PUSH2 0x5A2 SWAP2 SWAP1 PUSH2 0xE46 JUMP JUMPDEST POP JUMP JUMPDEST PUSH1 0x2 PUSH1 0x20 MSTORE DUP1 PUSH1 0x0 MSTORE PUSH1 0x40 PUSH1 0x0 KECCAK256 PUSH1 0x0 SWAP2 POP SWAP1 POP DUP1 PUSH1 0x0 ADD DUP1 SLOAD PUSH2 0x5C8 SWAP1 PUSH2 0x1354 JUMP JUMPDEST DUP1 PUSH1 0x1F ADD PUSH1 0x20 DUP1 SWAP2 DIV MUL PUSH1 0x20 ADD PUSH1 0x40 MLOAD SWAP1 DUP2 ADD PUSH1 0x40 MSTORE DUP1 SWAP3 SWAP2 SWAP1 DUP2 DUP2 MSTORE PUSH1 0x20 ADD DUP3 DUP1 SLOAD PUSH2 0x5F4 SWAP1 PUSH2 0x1354 JUMP JUMPDEST DUP1 ISZERO PUSH2 0x641 JUMPI DUP1 PUSH1 0x1F LT PUSH2 0x616 JUMPI PUSH2 0x100 DUP1 DUP4 SLOAD DIV MUL DUP4 MSTORE SWAP2 PUSH1 0x20 ADD SWAP2 PUSH2 0x641 JUMP JUMPDEST DUP3 ADD SWAP2 SWAP1 PUSH1 0x0 MSTORE PUSH1 0x20 PUSH1 0x0 KECCAK256 SWAP1 JUMPDEST DUP2 SLOAD DUP2 MSTORE SWAP1 PUSH1 0x1 ADD SWAP1 PUSH1 0x20 ADD DUP1 DUP4 GT PUSH2 0x624 JUMPI DUP3 SWAP1 SUB PUSH1 0x1F AND DUP3 ADD SWAP2 JUMPDEST POP POP POP POP POP SWAP1 DUP1 PUSH1 0x1 ADD SLOAD SWAP1 POP DUP3 JUMP JUMPDEST PUSH1 0x0 DUP2 SWAP1 DUP1 PUSH1 0x1 DUP2 SLOAD ADD DUP1 DUP3 SSTORE DUP1 SWAP2 POP POP PUSH1 0x1 SWAP1 SUB SWAP1 PUSH1 0x0 MSTORE PUSH1 0x20 PUSH1 0x0 KECCAK256 ADD PUSH1 0x0 SWAP1 SWAP2 SWAP1 SWAP2 SWAP1 SWAP2 POP SWAP1 DUP2 PUSH2 0x685 SWAP2 SWAP1 PUSH2 0x17C6 JUMP JUMPDEST POP POP JUMP JUMPDEST PUSH1 0x60 PUSH1 0x0 DUP1 SLOAD DUP1 PUSH1 0x20 MUL PUSH1 0x20 ADD PUSH1 0x40 MLOAD SWAP1 DUP2 ADD PUSH1 0x40 MSTORE DUP1 SWAP3 SWAP2 SWAP1 DUP2 DUP2 MSTORE PUSH1 0x20 ADD PUSH1 0x0 SWAP1 JUMPDEST DUP3 DUP3 LT ISZERO PUSH2 0x759 JUMPI DUP4 DUP3 SWAP1 PUSH1 0x0 MSTORE PUSH1 0x20 PUSH1 0x0 KECCAK256 ADD DUP1 SLOAD PUSH2 0x6CC SWAP1 PUSH2 0x1354 JUMP JUMPDEST DUP1 PUSH1 0x1F ADD PUSH1 0x20 DUP1 SWAP2 DIV MUL PUSH1 0x20 ADD PUSH1 0x40 MLOAD SWAP1 DUP2 ADD PUSH1 0x40 MSTORE DUP1 SWAP3 SWAP2 SWAP1 DUP2 DUP2 MSTORE PUSH1 0x20 ADD DUP3 DUP1 SLOAD PUSH2 0x6F8 SWAP1 PUSH2 0x1354 JUMP JUMPDEST DUP1 ISZERO PUSH2 0x745 JUMPI DUP1 PUSH1 0x1F LT PUSH2 0x71A JUMPI PUSH2 0x100 DUP1 DUP4 SLOAD DIV MUL DUP4 MSTORE SWAP2 PUSH1 0x20 ADD SWAP2 PUSH2 0x745 JUMP JUMPDEST DUP3 ADD SWAP2 SWAP1 PUSH1 0x0 MSTORE PUSH1 0x20 PUSH1 0x0 KECCAK256 SWAP1 JUMPDEST DUP2 SLOAD DUP2 MSTORE SWAP1 PUSH1 0x1 ADD SWAP1 PUSH1 0x20 ADD DUP1 DUP4 GT PUSH2 0x728 JUMPI DUP3 SWAP1 SUB PUSH1 0x1F AND DUP3 ADD SWAP2 JUMPDEST POP POP POP POP POP DUP2 MSTORE PUSH1 0x20 ADD SWAP1 PUSH1 0x1 ADD SWAP1 PUSH2 0x6AD JUMP JUMPDEST POP POP POP POP SWAP1 POP SWAP1 JUMP JUMPDEST PUSH1 0x0 DUP2 DUP2 SLOAD DUP2 LT PUSH2 0x772 JUMPI PUSH1 0x0 DUP1 REVERT JUMPDEST SWAP1 PUSH1 0x0 MSTORE PUSH1 0x20 PUSH1 0x0 KECCAK256 ADD PUSH1 0x0 SWAP2 POP SWAP1 POP DUP1 SLOAD PUSH2 0x78D SWAP1 PUSH2 0x1354 JUMP JUMPDEST DUP1 PUSH1 0x1F ADD PUSH1 0x20 DUP1 SWAP2 DIV MUL PUSH1 0x20 ADD PUSH1 0x40 MLOAD SWAP1 DUP2 ADD PUSH1 0x40 MSTORE DUP1 SWAP3 SWAP2 SWAP1 DUP2 DUP2 MSTORE PUSH1 0x20 ADD DUP3 DUP1 SLOAD PUSH2 0x7B9 SWAP1 PUSH2 0x1354 JUMP JUMPDEST DUP1 ISZERO PUSH2 0x806 JUMPI DUP1 PUSH1 0x1F LT PUSH2 0x7DB JUMPI PUSH2 0x100 DUP1 DUP4 SLOAD DIV MUL DUP4 MSTORE SWAP2 PUSH1 0x20 ADD SWAP2 PUSH2 0x806 JUMP JUMPDEST DUP3 ADD SWAP2 SWAP1 PUSH1 0x0 MSTORE PUSH1 0x20 PUSH1 0x0 KECCAK256 SWAP1 JUMPDEST DUP2 SLOAD DUP2 MSTORE SWAP1 PUSH1 0x1 ADD SWAP1 PUSH1 0x20 ADD DUP1 DUP4 GT PUSH2 0x7E9 JUMPI DUP3 SWAP1 SUB PUSH1 0x1F AND DUP3 ADD SWAP2 JUMPDEST POP POP POP POP POP DUP2 JUMP JUMPDEST PUSH1 0x4 SLOAD DUP2 JUMP JUMPDEST PUSH1 0x0 DUP1 DUP3 DUP2 SLOAD DUP2 LT PUSH2 0x829 JUMPI PUSH2 0x828 PUSH2 0x12F6 JUMP JUMPDEST JUMPDEST SWAP1 PUSH1 0x0 MSTORE PUSH1 0x20 PUSH1 0x0 KECCAK256 ADD DUP1 SLOAD PUSH2 0x83E SWAP1 PUSH2 0x1354 JUMP JUMPDEST DUP1 PUSH1 0x1F ADD PUSH1 0x20 DUP1 SWAP2 DIV MUL PUSH1 0x20 ADD PUSH1 0x40 MLOAD SWAP1 DUP2 ADD PUSH1 0x40 MSTORE DUP1 SWAP3 SWAP2 SWAP1 DUP2 DUP2 MSTORE PUSH1 0x20 ADD DUP3 DUP1 SLOAD PUSH2 0x86A SWAP1 PUSH2 0x1354 JUMP JUMPDEST DUP1 ISZERO PUSH2 0x8B7 JUMPI DUP1 PUSH1 0x1F LT PUSH2 0x88C JUMPI PUSH2 0x100 DUP1 DUP4 SLOAD DIV MUL DUP4 MSTORE SWAP2 PUSH1 0x20 ADD SWAP2 PUSH2 0x8B7 JUMP JUMPDEST DUP3 ADD SWAP2 SWAP1 PUSH1 0x0 MSTORE PUSH1 0x20 PUSH1 0x0 KECCAK256 SWAP1 JUMPDEST DUP2 SLOAD DUP2 MSTORE SWAP1 PUSH1 0x1 ADD SWAP1 PUSH1 0x20 ADD DUP1 DUP4 GT PUSH2 0x89A JUMPI DUP3 SWAP1 SUB PUSH1 0x1F AND DUP3 ADD SWAP2 JUMPDEST POP POP POP POP POP SWAP1 POP PUSH1 0x0 DUP3 SWAP1 POP JUMPDEST PUSH1 0x1 PUSH1 0x0 DUP1 SLOAD SWAP1 POP PUSH2 0x8D6 SWAP2 SWAP1 PUSH2 0x13B4 JUMP JUMPDEST DUP2 LT ISZERO PUSH2 0x945 JUMPI PUSH1 0x0 PUSH1 0x1 DUP3 PUSH2 0x8EC SWAP2 SWAP1 PUSH2 0x13E8 JUMP JUMPDEST DUP2 SLOAD DUP2 LT PUSH2 0x8FD JUMPI PUSH2 0x8FC PUSH2 0x12F6 JUMP JUMPDEST JUMPDEST SWAP1 PUSH1 0x0 MSTORE PUSH1 0x20 PUSH1 0x0 KECCAK256 ADD PUSH1 0x0 DUP3 DUP2 SLOAD DUP2 LT PUSH2 0x91B JUMPI PUSH2 0x91A PUSH2 0x12F6 JUMP JUMPDEST JUMPDEST SWAP1 PUSH1 0x0 MSTORE PUSH1 0x20 PUSH1 0x0 KECCAK256 ADD SWAP1 DUP2 PUSH2 0x931 SWAP2 SWAP1 PUSH2 0x18C3 JUMP JUMPDEST POP DUP1 DUP1 PUSH2 0x93D SWAP1 PUSH2 0x16C6 JUMP JUMPDEST SWAP2 POP POP PUSH2 0x8C4 JUMP JUMPDEST POP PUSH1 0x0 PUSH1 0x1 PUSH1 0x0 DUP1 SLOAD SWAP1 POP PUSH2 0x95A SWAP2 SWAP1 PUSH2 0x13B4 JUMP JUMPDEST DUP2 SLOAD DUP2 LT PUSH2 0x96B JUMPI PUSH2 0x96A PUSH2 0x12F6 JUMP JUMPDEST JUMPDEST SWAP1 PUSH1 0x0 MSTORE PUSH1 0x20 PUSH1 0x0 KECCAK256 ADD PUSH1 0x0 PUSH2 0x981 SWAP2 SWAP1 PUSH2 0xE46 JUMP JUMPDEST PUSH1 0x0 DUP1 SLOAD DUP1 PUSH2 0x993 JUMPI PUSH2 0x992 PUSH2 0x19AB JUMP JUMPDEST JUMPDEST PUSH1 0x1 SWAP1 SUB DUP2 DUP2 SWAP1 PUSH1 0x0 MSTORE PUSH1 0x20 PUSH1 0x0 KECCAK256 ADD PUSH1 0x0 PUSH2 0x9AF SWAP2 SWAP1 PUSH2 0xE46 JUMP JUMPDEST SWAP1 SSTORE PUSH1 0x40 MLOAD DUP1 PUSH1 0x40 ADD PUSH1 0x40 MSTORE DUP1 DUP3 DUP2 MSTORE PUSH1 0x20 ADD TIMESTAMP DUP2 MSTORE POP PUSH1 0x2 PUSH1 0x0 PUSH1 0x3 SLOAD DUP2 MSTORE PUSH1 0x20 ADD SWAP1 DUP2 MSTORE PUSH1 0x20 ADD PUSH1 0x0 KECCAK256 PUSH1 0x0 DUP3 ADD MLOAD DUP2 PUSH1 0x0 ADD SWAP1 DUP2 PUSH2 0x9F0 SWAP2 SWAP1 PUSH2 0x17C6 JUMP JUMPDEST POP PUSH1 0x20 DUP3 ADD MLOAD DUP2 PUSH1 0x1 ADD SSTORE SWAP1 POP POP PUSH1 0x3 PUSH1 0x0 DUP2 SLOAD DUP1 SWAP3 SWAP2 SWAP1 PUSH2 0xA11 SWAP1 PUSH2 0x16C6 JUMP JUMPDEST SWAP2 SWAP1 POP SSTORE POP POP POP JUMP JUMPDEST PUSH1 0x60 PUSH1 0x0 DUP3 DUP2 SLOAD DUP2 LT PUSH2 0xA30 JUMPI PUSH2 0xA2F PUSH2 0x12F6 JUMP JUMPDEST JUMPDEST SWAP1 PUSH1 0x0 MSTORE PUSH1 0x20 PUSH1 0x0 KECCAK256 ADD DUP1 SLOAD PUSH2 0xA45 SWAP1 PUSH2 0x1354 JUMP JUMPDEST DUP1 PUSH1 0x1F ADD PUSH1 0x20 DUP1 SWAP2 DIV MUL PUSH1 0x20 ADD PUSH1 0x40 MLOAD SWAP1 DUP2 ADD PUSH1 0x40 MSTORE DUP1 SWAP3 SWAP2 SWAP1 DUP2 DUP2 MSTORE PUSH1 0x20 ADD DUP3 DUP1 SLOAD PUSH2 0xA71 SWAP1 PUSH2 0x1354 JUMP JUMPDEST DUP1 ISZERO PUSH2 0xABE JUMPI DUP1 PUSH1 0x1F LT PUSH2 0xA93 JUMPI PUSH2 0x100 DUP1 DUP4 SLOAD DIV MUL DUP4 MSTORE SWAP2 PUSH1 0x20 ADD SWAP2 PUSH2 0xABE JUMP JUMPDEST DUP3 ADD SWAP2 SWAP1 PUSH1 0x0 MSTORE PUSH1 0x20 PUSH1 0x0 KECCAK256 SWAP1 JUMPDEST DUP2 SLOAD DUP2 MSTORE SWAP1 PUSH1 0x1 ADD SWAP1 PUSH1 0x20 ADD DUP1 DUP4 GT PUSH2 0xAA1 JUMPI DUP3 SWAP1 SUB PUSH1 0x1F AND DUP3 ADD SWAP2 JUMPDEST POP POP POP POP POP SWAP1 POP SWAP2 SWAP1 POP JUMP JUMPDEST PUSH1 0x60 PUSH1 0x1 DUP1 SLOAD DUP1 PUSH1 0x20 MUL PUSH1 0x20 ADD PUSH1 0x40 MLOAD SWAP1 DUP2 ADD PUSH1 0x40 MSTORE DUP1 SWAP3 SWAP2 SWAP1 DUP2 DUP2 MSTORE PUSH1 0x20 ADD PUSH1 0x0 SWAP1 JUMPDEST DUP3 DUP3 LT ISZERO PUSH2 0xB9A JUMPI DUP4 DUP3 SWAP1 PUSH1 0x0 MSTORE PUSH1 0x20 PUSH1 0x0 KECCAK256 ADD DUP1 SLOAD PUSH2 0xB0D SWAP1 PUSH2 0x1354 JUMP JUMPDEST DUP1 PUSH1 0x1F ADD PUSH1 0x20 DUP1 SWAP2 DIV MUL PUSH1 0x20 ADD PUSH1 0x40 MLOAD SWAP1 DUP2 ADD PUSH1 0x40 MSTORE DUP1 SWAP3 SWAP2 SWAP1 DUP2 DUP2 MSTORE PUSH1 0x20 ADD DUP3 DUP1 SLOAD PUSH2 0xB39 SWAP1 PUSH2 0x1354 JUMP JUMPDEST DUP1 ISZERO PUSH2 0xB86 JUMPI DUP1 PUSH1 0x1F LT PUSH2 0xB5B JUMPI PUSH2 0x100 DUP1 DUP4 SLOAD DIV MUL DUP4 MSTORE SWAP2 PUSH1 0x20 ADD SWAP2 PUSH2 0xB86 JUMP JUMPDEST DUP3 ADD SWAP2 SWAP1 PUSH1 0x0 MSTORE PUSH1 0x20 PUSH1 0x0 KECCAK256 SWAP1 JUMPDEST DUP2 SLOAD DUP2 MSTORE SWAP1 PUSH1 0x1 ADD SWAP1 PUSH1 0x20 ADD DUP1 DUP4 GT PUSH2 0xB69 JUMPI DUP3 SWAP1 SUB PUSH1 0x1F AND DUP3 ADD SWAP2 JUMPDEST POP POP POP POP POP DUP2 MSTORE PUSH1 0x20 ADD SWAP1 PUSH1 0x1 ADD SWAP1 PUSH2 0xAEE JUMP JUMPDEST POP POP POP POP SWAP1 POP SWAP1 JUMP JUMPDEST PUSH1 0x0 DUP1 DUP3 DUP2 SLOAD DUP2 LT PUSH2 0xBB8 JUMPI PUSH2 0xBB7 PUSH2 0x12F6 JUMP JUMPDEST JUMPDEST SWAP1 PUSH1 0x0 MSTORE PUSH1 0x20 PUSH1 0x0 KECCAK256 ADD DUP1 SLOAD PUSH2 0xBCD SWAP1 PUSH2 0x1354 JUMP JUMPDEST DUP1 PUSH1 0x1F ADD PUSH1 0x20 DUP1 SWAP2 DIV MUL PUSH1 0x20 ADD PUSH1 0x40 MLOAD SWAP1 DUP2 ADD PUSH1 0x40 MSTORE DUP1 SWAP3 SWAP2 SWAP1 DUP2 DUP2 MSTORE PUSH1 0x20 ADD DUP3 DUP1 SLOAD PUSH2 0xBF9 SWAP1 PUSH2 0x1354 JUMP JUMPDEST DUP1 ISZERO PUSH2 0xC46 JUMPI DUP1 PUSH1 0x1F LT PUSH2 0xC1B JUMPI PUSH2 0x100 DUP1 DUP4 SLOAD DIV MUL DUP4 MSTORE SWAP2 PUSH1 0x20 ADD SWAP2 PUSH2 0xC46 JUMP JUMPDEST DUP3 ADD SWAP2 SWAP1 PUSH1 0x0 MSTORE PUSH1 0x20 PUSH1 0x0 KECCAK256 SWAP1 JUMPDEST DUP2 SLOAD DUP2 MSTORE SWAP1 PUSH1 0x1 ADD SWAP1 PUSH1 0x20 ADD DUP1 DUP4 GT PUSH2 0xC29 JUMPI DUP3 SWAP1 SUB PUSH1 0x1F AND DUP3 ADD SWAP2 JUMPDEST POP POP POP POP POP SWAP1 POP PUSH1 0x0 DUP3 SWAP1 POP JUMPDEST PUSH1 0x1 PUSH1 0x0 DUP1 SLOAD SWAP1 POP PUSH2 0xC65 SWAP2 SWAP1 PUSH2 0x13B4 JUMP JUMPDEST DUP2 LT ISZERO PUSH2 0xCD4 JUMPI PUSH1 0x0 PUSH1 0x1 DUP3 PUSH2 0xC7B SWAP2 SWAP1 PUSH2 0x13E8 JUMP JUMPDEST DUP2 SLOAD DUP2 LT PUSH2 0xC8C JUMPI PUSH2 0xC8B PUSH2 0x12F6 JUMP JUMPDEST JUMPDEST SWAP1 PUSH1 0x0 MSTORE PUSH1 0x20 PUSH1 0x0 KECCAK256 ADD PUSH1 0x0 DUP3 DUP2 SLOAD DUP2 LT PUSH2 0xCAA JUMPI PUSH2 0xCA9 PUSH2 0x12F6 JUMP JUMPDEST JUMPDEST SWAP1 PUSH1 0x0 MSTORE PUSH1 0x20 PUSH1 0x0 KECCAK256 ADD SWAP1 DUP2 PUSH2 0xCC0 SWAP2 SWAP1 PUSH2 0x18C3 JUMP JUMPDEST POP DUP1 DUP1 PUSH2 0xCCC SWAP1 PUSH2 0x16C6 JUMP JUMPDEST SWAP2 POP POP PUSH2 0xC53 JUMP JUMPDEST POP PUSH1 0x0 PUSH1 0x1 PUSH1 0x0 DUP1 SLOAD SWAP1 POP PUSH2 0xCE9 SWAP2 SWAP1 PUSH2 0x13B4 JUMP JUMPDEST DUP2 SLOAD DUP2 LT PUSH2 0xCFA JUMPI PUSH2 0xCF9 PUSH2 0x12F6 JUMP JUMPDEST JUMPDEST SWAP1 PUSH1 0x0 MSTORE PUSH1 0x20 PUSH1 0x0 KECCAK256 ADD PUSH1 0x0 PUSH2 0xD10 SWAP2 SWAP1 PUSH2 0xE46 JUMP JUMPDEST PUSH1 0x0 DUP1 SLOAD DUP1 PUSH2 0xD22 JUMPI PUSH2 0xD21 PUSH2 0x19AB JUMP JUMPDEST JUMPDEST PUSH1 0x1 SWAP1 SUB DUP2 DUP2 SWAP1 PUSH1 0x0 MSTORE PUSH1 0x20 PUSH1 0x0 KECCAK256 ADD PUSH1 0x0 PUSH2 0xD3E SWAP2 SWAP1 PUSH2 0xE46 JUMP JUMPDEST SWAP1 SSTORE PUSH1 0x1 DUP2 SWAP1 DUP1 PUSH1 0x1 DUP2 SLOAD ADD DUP1 DUP3 SSTORE DUP1 SWAP2 POP POP PUSH1 0x1 SWAP1 SUB SWAP1 PUSH1 0x0 MSTORE PUSH1 0x20 PUSH1 0x0 KECCAK256 ADD PUSH1 0x0 SWAP1 SWAP2 SWAP1 SWAP2 SWAP1 SWAP2 POP SWAP1 DUP2 PUSH2 0xD74 SWAP2 SWAP1 PUSH2 0x17C6 JUMP JUMPDEST POP POP POP JUMP JUMPDEST PUSH1 0x1 DUP2 DUP2 SLOAD DUP2 LT PUSH2 0xD89 JUMPI PUSH1 0x0 DUP1 REVERT JUMPDEST SWAP1 PUSH1 0x0 MSTORE PUSH1 0x20 PUSH1 0x0 KECCAK256 ADD PUSH1 0x0 SWAP2 POP SWAP1 POP DUP1 SLOAD PUSH2 0xDA4 SWAP1 PUSH2 0x1354 JUMP JUMPDEST DUP1 PUSH1 0x1F ADD PUSH1 0x20 DUP1 SWAP2 DIV MUL PUSH1 0x20 ADD PUSH1 0x40 MLOAD SWAP1 DUP2 ADD PUSH1 0x40 MSTORE DUP1 SWAP3 SWAP2 SWAP1 DUP2 DUP2 MSTORE PUSH1 0x20 ADD DUP3 DUP1 SLOAD PUSH2 0xDD0 SWAP1 PUSH2 0x1354 JUMP JUMPDEST DUP1 ISZERO PUSH2 0xE1D JUMPI DUP1 PUSH1 0x1F LT PUSH2 0xDF2 JUMPI PUSH2 0x100 DUP1 DUP4 SLOAD DIV MUL DUP4 MSTORE SWAP2 PUSH1 0x20 ADD SWAP2 PUSH2 0xE1D JUMP JUMPDEST DUP3 ADD SWAP2 SWAP1 PUSH1 0x0 MSTORE PUSH1 0x20 PUSH1 0x0 KECCAK256 SWAP1 JUMPDEST DUP2 SLOAD DUP2 MSTORE SWAP1 PUSH1 0x1 ADD SWAP1 PUSH1 0x20 ADD DUP1 DUP4 GT PUSH2 0xE00 JUMPI DUP3 SWAP1 SUB PUSH1 0x1F AND DUP3 ADD SWAP2 JUMPDEST POP POP POP POP POP DUP2 JUMP JUMPDEST POP DUP1 SLOAD PUSH1 0x0 DUP3 SSTORE SWAP1 PUSH1 0x0 MSTORE PUSH1 0x20 PUSH1 0x0 KECCAK256 SWAP1 DUP2 ADD SWAP1 PUSH2 0xE43 SWAP2 SWAP1 PUSH2 0xE86 JUMP JUMPDEST POP JUMP JUMPDEST POP DUP1 SLOAD PUSH2 0xE52 SWAP1 PUSH2 0x1354 JUMP JUMPDEST PUSH1 0x0 DUP3 SSTORE DUP1 PUSH1 0x1F LT PUSH2 0xE64 JUMPI POP PUSH2 0xE83 JUMP JUMPDEST PUSH1 0x1F ADD PUSH1 0x20 SWAP1 DIV SWAP1 PUSH1 0x0 MSTORE PUSH1 0x20 PUSH1 0x0 KECCAK256 SWAP1 DUP2 ADD SWAP1 PUSH2 0xE82 SWAP2 SWAP1 PUSH2 0xEAA JUMP JUMPDEST JUMPDEST POP JUMP JUMPDEST JUMPDEST DUP1 DUP3 GT ISZERO PUSH2 0xEA6 JUMPI PUSH1 0x0 DUP2 DUP2 PUSH2 0xE9D SWAP2 SWAP1 PUSH2 0xE46 JUMP JUMPDEST POP PUSH1 0x1 ADD PUSH2 0xE87 JUMP JUMPDEST POP SWAP1 JUMP JUMPDEST JUMPDEST DUP1 DUP3 GT ISZERO PUSH2 0xEC3 JUMPI PUSH1 0x0 DUP2 PUSH1 0x0 SWAP1 SSTORE POP PUSH1 0x1 ADD PUSH2 0xEAB JUMP JUMPDEST POP SWAP1 JUMP JUMPDEST PUSH1 0x0 PUSH1 0x40 MLOAD SWAP1 POP SWAP1 JUMP JUMPDEST PUSH1 0x0 DUP1 REVERT JUMPDEST PUSH1 0x0 DUP1 REVERT JUMPDEST PUSH1 0x0 DUP2 SWAP1 POP SWAP2 SWAP1 POP JUMP JUMPDEST PUSH2 0xEEE DUP2 PUSH2 0xEDB JUMP JUMPDEST DUP2 EQ PUSH2 0xEF9 JUMPI PUSH1 0x0 DUP1 REVERT JUMPDEST POP JUMP JUMPDEST PUSH1 0x0 DUP2 CALLDATALOAD SWAP1 POP PUSH2 0xF0B DUP2 PUSH2 0xEE5 JUMP JUMPDEST SWAP3 SWAP2 POP POP JUMP JUMPDEST PUSH1 0x0 PUSH1 0x20 DUP3 DUP5 SUB SLT ISZERO PUSH2 0xF27 JUMPI PUSH2 0xF26 PUSH2 0xED1 JUMP JUMPDEST JUMPDEST PUSH1 0x0 PUSH2 0xF35 DUP5 DUP3 DUP6 ADD PUSH2 0xEFC JUMP JUMPDEST SWAP2 POP POP SWAP3 SWAP2 POP POP JUMP JUMPDEST PUSH1 0x0 DUP2 MLOAD SWAP1 POP SWAP2 SWAP1 POP JUMP JUMPDEST PUSH1 0x0 DUP3 DUP3 MSTORE PUSH1 0x20 DUP3 ADD SWAP1 POP SWAP3 SWAP2 POP POP JUMP JUMPDEST PUSH1 0x0 JUMPDEST DUP4 DUP2 LT ISZERO PUSH2 0xF78 JUMPI DUP1 DUP3 ADD MLOAD DUP2 DUP5 ADD MSTORE PUSH1 0x20 DUP2 ADD SWAP1 POP PUSH2 0xF5D JUMP JUMPDEST PUSH1 0x0 DUP5 DUP5 ADD MSTORE POP POP POP POP JUMP JUMPDEST PUSH1 0x0 PUSH1 0x1F NOT PUSH1 0x1F DUP4 ADD AND SWAP1 POP SWAP2 SWAP1 POP JUMP JUMPDEST PUSH1 0x0 PUSH2 0xFA0 DUP3 PUSH2 0xF3E JUMP JUMPDEST PUSH2 0xFAA DUP2 DUP6 PUSH2 0xF49 JUMP JUMPDEST SWAP4 POP PUSH2 0xFBA DUP2 DUP6 PUSH1 0x20 DUP7 ADD PUSH2 0xF5A JUMP JUMPDEST PUSH2 0xFC3 DUP2 PUSH2 0xF84 JUMP JUMPDEST DUP5 ADD SWAP2 POP POP SWAP3 SWAP2 POP POP JUMP JUMPDEST PUSH1 0x0 PUSH1 0x20 DUP3 ADD SWAP1 POP DUP2 DUP2 SUB PUSH1 0x0 DUP4 ADD MSTORE PUSH2 0xFE8 DUP2 DUP5 PUSH2 0xF95 JUMP JUMPDEST SWAP1 POP SWAP3 SWAP2 POP POP JUMP JUMPDEST PUSH2 0xFF9 DUP2 PUSH2 0xEDB JUMP JUMPDEST DUP3 MSTORE POP POP JUMP JUMPDEST PUSH1 0x0 PUSH1 0x40 DUP3 ADD SWAP1 POP DUP2 DUP2 SUB PUSH1 0x0 DUP4 ADD MSTORE PUSH2 0x1019 DUP2 DUP6 PUSH2 0xF95 JUMP JUMPDEST SWAP1 POP PUSH2 0x1028 PUSH1 0x20 DUP4 ADD DUP5 PUSH2 0xFF0 JUMP JUMPDEST SWAP4 SWAP3 POP POP POP JUMP JUMPDEST PUSH1 0x0 DUP1 REVERT JUMPDEST PUSH1 0x0 DUP1 REVERT JUMPDEST PUSH32 0x4E487B7100000000000000000000000000000000000000000000000000000000 PUSH1 0x0 MSTORE PUSH1 0x41 PUSH1 0x4 MSTORE PUSH1 0x24 PUSH1 0x0 REVERT JUMPDEST PUSH2 0x1071 DUP3 PUSH2 0xF84 JUMP JUMPDEST DUP2 ADD DUP2 DUP2 LT PUSH8 0xFFFFFFFFFFFFFFFF DUP3 GT OR ISZERO PUSH2 0x1090 JUMPI PUSH2 0x108F PUSH2 0x1039 JUMP JUMPDEST JUMPDEST DUP1 PUSH1 0x40 MSTORE POP POP POP JUMP JUMPDEST PUSH1 0x0 PUSH2 0x10A3 PUSH2 0xEC7 JUMP JUMPDEST SWAP1 POP PUSH2 0x10AF DUP3 DUP3 PUSH2 0x1068 JUMP JUMPDEST SWAP2 SWAP1 POP JUMP JUMPDEST PUSH1 0x0 PUSH8 0xFFFFFFFFFFFFFFFF DUP3 GT ISZERO PUSH2 0x10CF JUMPI PUSH2 0x10CE PUSH2 0x1039 JUMP JUMPDEST JUMPDEST PUSH2 0x10D8 DUP3 PUSH2 0xF84 JUMP JUMPDEST SWAP1 POP PUSH1 0x20 DUP2 ADD SWAP1 POP SWAP2 SWAP1 POP JUMP JUMPDEST DUP3 DUP2 DUP4 CALLDATACOPY PUSH1 0x0 DUP4 DUP4 ADD MSTORE POP POP POP JUMP JUMPDEST PUSH1 0x0 PUSH2 0x1107 PUSH2 0x1102 DUP5 PUSH2 0x10B4 JUMP JUMPDEST PUSH2 0x1099 JUMP JUMPDEST SWAP1 POP DUP3 DUP2 MSTORE PUSH1 0x20 DUP2 ADD DUP5 DUP5 DUP5 ADD GT ISZERO PUSH2 0x1123 JUMPI PUSH2 0x1122 PUSH2 0x1034 JUMP JUMPDEST JUMPDEST PUSH2 0x112E DUP5 DUP3 DUP6 PUSH2 0x10E5 JUMP JUMPDEST POP SWAP4 SWAP3 POP POP POP JUMP JUMPDEST PUSH1 0x0 DUP3 PUSH1 0x1F DUP4 ADD SLT PUSH2 0x114B JUMPI PUSH2 0x114A PUSH2 0x102F JUMP JUMPDEST JUMPDEST DUP2 CALLDATALOAD PUSH2 0x115B DUP5 DUP3 PUSH1 0x20 DUP7 ADD PUSH2 0x10F4 JUMP JUMPDEST SWAP2 POP POP SWAP3 SWAP2 POP POP JUMP JUMPDEST PUSH1 0x0 PUSH1 0x20 DUP3 DUP5 SUB SLT ISZERO PUSH2 0x117A JUMPI PUSH2 0x1179 PUSH2 0xED1 JUMP JUMPDEST JUMPDEST PUSH1 0x0 DUP3 ADD CALLDATALOAD PUSH8 0xFFFFFFFFFFFFFFFF DUP2 GT ISZERO PUSH2 0x1198 JUMPI PUSH2 0x1197 PUSH2 0xED6 JUMP JUMPDEST JUMPDEST PUSH2 0x11A4 DUP5 DUP3 DUP6 ADD PUSH2 0x1136 JUMP JUMPDEST SWAP2 POP POP SWAP3 SWAP2 POP POP JUMP JUMPDEST PUSH1 0x0 DUP2 MLOAD SWAP1 POP SWAP2 SWAP1 POP JUMP JUMPDEST PUSH1 0x0 DUP3 DUP3 MSTORE PUSH1 0x20 DUP3 ADD SWAP1 POP SWAP3 SWAP2 POP POP JUMP JUMPDEST PUSH1 0x0 DUP2 SWAP1 POP PUSH1 0x20 DUP3 ADD SWAP1 POP SWAP2 SWAP1 POP JUMP JUMPDEST PUSH1 0x0 DUP3 DUP3 MSTORE PUSH1 0x20 DUP3 ADD SWAP1 POP SWAP3 SWAP2 POP POP JUMP JUMPDEST PUSH1 0x0 PUSH2 0x11F5 DUP3 PUSH2 0xF3E JUMP JUMPDEST PUSH2 0x11FF DUP2 DUP6 PUSH2 0x11D9 JUMP JUMPDEST SWAP4 POP PUSH2 0x120F DUP2 DUP6 PUSH1 0x20 DUP7 ADD PUSH2 0xF5A JUMP JUMPDEST PUSH2 0x1218 DUP2 PUSH2 0xF84 JUMP JUMPDEST DUP5 ADD SWAP2 POP POP SWAP3 SWAP2 POP POP JUMP JUMPDEST PUSH1 0x0 PUSH2 0x122F DUP4 DUP4 PUSH2 0x11EA JUMP JUMPDEST SWAP1 POP SWAP3 SWAP2 POP POP JUMP JUMPDEST PUSH1 0x0 PUSH1 0x20 DUP3 ADD SWAP1 POP SWAP2 SWAP1 POP JUMP JUMPDEST PUSH1 0x0 PUSH2 0x124F DUP3 PUSH2 0x11AD JUMP JUMPDEST PUSH2 0x1259 DUP2 DUP6 PUSH2 0x11B8 JUMP JUMPDEST SWAP4 POP DUP4 PUSH1 0x20 DUP3 MUL DUP6 ADD PUSH2 0x126B DUP6 PUSH2 0x11C9 JUMP JUMPDEST DUP1 PUSH1 0x0 JUMPDEST DUP6 DUP2 LT ISZERO PUSH2 0x12A7 JUMPI DUP5 DUP5 SUB DUP10 MSTORE DUP2 MLOAD PUSH2 0x1288 DUP6 DUP3 PUSH2 0x1223 JUMP JUMPDEST SWAP5 POP PUSH2 0x1293 DUP4 PUSH2 0x1237 JUMP JUMPDEST SWAP3 POP PUSH1 0x20 DUP11 ADD SWAP10 POP POP PUSH1 0x1 DUP2 ADD SWAP1 POP PUSH2 0x126F JUMP JUMPDEST POP DUP3 SWAP8 POP DUP8 SWAP6 POP POP POP POP POP POP SWAP3 SWAP2 POP POP JUMP JUMPDEST PUSH1 0x0 PUSH1 0x20 DUP3 ADD SWAP1 POP DUP2 DUP2 SUB PUSH1 0x0 DUP4 ADD MSTORE PUSH2 0x12D3 DUP2 DUP5 PUSH2 0x1244 JUMP JUMPDEST SWAP1 POP SWAP3 SWAP2 POP POP JUMP JUMPDEST PUSH1 0x0 PUSH1 0x20 DUP3 ADD SWAP1 POP PUSH2 0x12F0 PUSH1 0x0 DUP4 ADD DUP5 PUSH2 0xFF0 JUMP JUMPDEST SWAP3 SWAP2 POP POP JUMP JUMPDEST PUSH32 0x4E487B7100000000000000000000000000000000000000000000000000000000 PUSH1 0x0 MSTORE PUSH1 0x32 PUSH1 0x4 MSTORE PUSH1 0x24 PUSH1 0x0 REVERT JUMPDEST PUSH32 0x4E487B7100000000000000000000000000000000000000000000000000000000 PUSH1 0x0 MSTORE PUSH1 0x22 PUSH1 0x4 MSTORE PUSH1 0x24 PUSH1 0x0 REVERT JUMPDEST PUSH1 0x0 PUSH1 0x2 DUP3 DIV SWAP1 POP PUSH1 0x1 DUP3 AND DUP1 PUSH2 0x136C JUMPI PUSH1 0x7F DUP3 AND SWAP2 POP JUMPDEST PUSH1 0x20 DUP3 LT DUP2 SUB PUSH2 0x137F JUMPI PUSH2 0x137E PUSH2 0x1325 JUMP JUMPDEST JUMPDEST POP SWAP2 SWAP1 POP JUMP JUMPDEST PUSH32 0x4E487B7100000000000000000000000000000000000000000000000000000000 PUSH1 0x0 MSTORE PUSH1 0x11 PUSH1 0x4 MSTORE PUSH1 0x24 PUSH1 0x0 REVERT JUMPDEST PUSH1 0x0 PUSH2 0x13BF DUP3 PUSH2 0xEDB JUMP JUMPDEST SWAP2 POP PUSH2 0x13CA DUP4 PUSH2 0xEDB JUMP JUMPDEST SWAP3 POP DUP3 DUP3 SUB SWAP1 POP DUP2 DUP2 GT ISZERO PUSH2 0x13E2 JUMPI PUSH2 0x13E1 PUSH2 0x1385 JUMP JUMPDEST JUMPDEST SWAP3 SWAP2 POP POP JUMP JUMPDEST PUSH1 0x0 PUSH2 0x13F3 DUP3 PUSH2 0xEDB JUMP JUMPDEST SWAP2 POP PUSH2 0x13FE DUP4 PUSH2 0xEDB JUMP JUMPDEST SWAP3 POP DUP3 DUP3 ADD SWAP1 POP DUP1 DUP3 GT ISZERO PUSH2 0x1416 JUMPI PUSH2 0x1415 PUSH2 0x1385 JUMP JUMPDEST JUMPDEST SWAP3 SWAP2 POP POP JUMP JUMPDEST PUSH1 0x0 DUP2 SLOAD SWAP1 POP PUSH2 0x142B DUP2 PUSH2 0x1354 JUMP JUMPDEST SWAP1 POP SWAP2 SWAP1 POP JUMP JUMPDEST PUSH1 0x0 DUP2 SWAP1 POP DUP2 PUSH1 0x0 MSTORE PUSH1 0x20 PUSH1 0x0 KECCAK256 SWAP1 POP SWAP2 SWAP1 POP JUMP JUMPDEST PUSH1 0x0 PUSH1 0x20 PUSH1 0x1F DUP4 ADD DIV SWAP1 POP SWAP2 SWAP1 POP JUMP JUMPDEST PUSH1 0x0 DUP3 DUP3 SHL SWAP1 POP SWAP3 SWAP2 POP POP JUMP JUMPDEST PUSH1 0x0 PUSH1 0x8 DUP4 MUL PUSH2 0x1494 PUSH32 0xFFFFFFFFFFFFFFFFFFFFFFFFFFFFFFFFFFFFFFFFFFFFFFFFFFFFFFFFFFFFFFFF DUP3 PUSH2 0x1457 JUMP JUMPDEST PUSH2 0x149E DUP7 DUP4 PUSH2 0x1457 JUMP JUMPDEST SWAP6 POP DUP1 NOT DUP5 AND SWAP4 POP DUP1 DUP7 AND DUP5 OR SWAP3 POP POP POP SWAP4 SWAP3 POP POP POP JUMP JUMPDEST PUSH1 0x0 DUP2 SWAP1 POP SWAP2 SWAP1 POP JUMP JUMPDEST PUSH1 0x0 PUSH2 0x14DB PUSH2 0x14D6 PUSH2 0x14D1 DUP5 PUSH2 0xEDB JUMP JUMPDEST PUSH2 0x14B6 JUMP JUMPDEST PUSH2 0xEDB JUMP JUMPDEST SWAP1 POP SWAP2 SWAP1 POP JUMP JUMPDEST PUSH1 0x0 DUP2 SWAP1 POP SWAP2 SWAP1 POP JUMP JUMPDEST PUSH2 0x14F5 DUP4 PUSH2 0x14C0 JUMP JUMPDEST PUSH2 0x1509 PUSH2 0x1501 DUP3 PUSH2 0x14E2 JUMP JUMPDEST DUP5 DUP5 SLOAD PUSH2 0x1464 JUMP JUMPDEST DUP3 SSTORE POP POP POP POP JUMP JUMPDEST PUSH1 0x0 SWAP1 JUMP JUMPDEST PUSH2 0x151E PUSH2 0x1511 JUMP JUMPDEST PUSH2 0x1529 DUP2 DUP5 DUP5 PUSH2 0x14EC JUMP JUMPDEST POP POP POP JUMP JUMPDEST JUMPDEST DUP2 DUP2 LT ISZERO PUSH2 0x154D JUMPI PUSH2 0x1542 PUSH1 0x0 DUP3 PUSH2 0x1516 JUMP JUMPDEST PUSH1 0x1 DUP2 ADD SWAP1 POP PUSH2 0x152F JUMP JUMPDEST POP POP JUMP JUMPDEST PUSH1 0x1F DUP3 GT ISZERO PUSH2 0x1592 JUMPI PUSH2 0x1563 DUP2 PUSH2 0x1432 JUMP JUMPDEST PUSH2 0x156C DUP5 PUSH2 0x1447 JUMP JUMPDEST DUP2 ADD PUSH1 0x20 DUP6 LT ISZERO PUSH2 0x157B JUMPI DUP2 SWAP1 POP JUMPDEST PUSH2 0x158F PUSH2 0x1587 DUP6 PUSH2 0x1447 JUMP JUMPDEST DUP4 ADD DUP3 PUSH2 0x152E JUMP JUMPDEST POP POP JUMPDEST POP POP POP JUMP JUMPDEST PUSH1 0x0 DUP3 DUP3 SHR SWAP1 POP SWAP3 SWAP2 POP POP JUMP JUMPDEST PUSH1 0x0 PUSH2 0x15B5 PUSH1 0x0 NOT DUP5 PUSH1 0x8 MUL PUSH2 0x1597 JUMP JUMPDEST NOT DUP1 DUP4 AND SWAP2 POP POP SWAP3 SWAP2 POP POP JUMP JUMPDEST PUSH1 0x0 PUSH2 0x15CE DUP4 DUP4 PUSH2 0x15A4 JUMP JUMPDEST SWAP2 POP DUP3 PUSH1 0x2 MUL DUP3 OR SWAP1 POP SWAP3 SWAP2 POP POP JUMP JUMPDEST DUP2 DUP2 SUB PUSH2 0x15EC JUMPI POP POP PUSH2 0x16C4 JUMP JUMPDEST PUSH2 0x15F5 DUP3 PUSH2 0x141C JUMP JUMPDEST PUSH8 0xFFFFFFFFFFFFFFFF DUP2 GT ISZERO PUSH2 0x160E JUMPI PUSH2 0x160D PUSH2 0x1039 JUMP JUMPDEST JUMPDEST PUSH2 0x1618 DUP3 SLOAD PUSH2 0x1354 JUMP JUMPDEST PUSH2 0x1623 DUP3 DUP3 DUP6 PUSH2 0x1551 JUMP JUMPDEST PUSH1 0x0 PUSH1 0x1F DUP4 GT PUSH1 0x1 DUP2 EQ PUSH2 0x1652 JUMPI PUSH1 0x0 DUP5 ISZERO PUSH2 0x1640 JUMPI DUP3 DUP8 ADD SLOAD SWAP1 POP JUMPDEST PUSH2 0x164A DUP6 DUP3 PUSH2 0x15C2 JUMP JUMPDEST DUP7 SSTORE POP PUSH2 0x16BD JUMP JUMPDEST PUSH1 0x1F NOT DUP5 AND PUSH2 0x1660 DUP8 PUSH2 0x1432 JUMP JUMPDEST SWAP7 POP PUSH2 0x166B DUP7 PUSH2 0x1432 JUMP JUMPDEST PUSH1 0x0 JUMPDEST DUP3 DUP2 LT ISZERO PUSH2 0x1693 JUMPI DUP5 DUP10 ADD SLOAD DUP3 SSTORE PUSH1 0x1 DUP3 ADD SWAP2 POP PUSH1 0x1 DUP6 ADD SWAP5 POP PUSH1 0x20 DUP2 ADD SWAP1 POP PUSH2 0x166E JUMP JUMPDEST DUP7 DUP4 LT ISZERO PUSH2 0x16B0 JUMPI DUP5 DUP10 ADD SLOAD PUSH2 0x16AC PUSH1 0x1F DUP10 AND DUP3 PUSH2 0x15A4 JUMP JUMPDEST DUP4 SSTORE POP JUMPDEST PUSH1 0x1 PUSH1 0x2 DUP9 MUL ADD DUP9 SSTORE POP POP POP JUMPDEST POP POP POP POP POP POP JUMPDEST JUMP JUMPDEST PUSH1 0x0 PUSH2 0x16D1 DUP3 PUSH2 0xEDB JUMP JUMPDEST SWAP2 POP PUSH32 0xFFFFFFFFFFFFFFFFFFFFFFFFFFFFFFFFFFFFFFFFFFFFFFFFFFFFFFFFFFFFFFFF DUP3 SUB PUSH2 0x1703 JUMPI PUSH2 0x1702 PUSH2 0x1385 JUMP JUMPDEST JUMPDEST PUSH1 0x1 DUP3 ADD SWAP1 POP SWAP2 SWAP1 POP JUMP JUMPDEST PUSH32 0x54686973206974656D20686173206265656E2070656E64696E6720666F72206D PUSH1 0x0 DUP3 ADD MSTORE PUSH32 0x6F7265207468616E203120686F75727320616E642063616E2774206265206D6F PUSH1 0x20 DUP3 ADD MSTORE PUSH32 0x7665642E00000000000000000000000000000000000000000000000000000000 PUSH1 0x40 DUP3 ADD MSTORE POP JUMP JUMPDEST PUSH1 0x0 PUSH2 0x1790 PUSH1 0x44 DUP4 PUSH2 0xF49 JUMP JUMPDEST SWAP2 POP PUSH2 0x179B DUP3 PUSH2 0x170E JUMP JUMPDEST PUSH1 0x60 DUP3 ADD SWAP1 POP SWAP2 SWAP1 POP JUMP JUMPDEST PUSH1 0x0 PUSH1 0x20 DUP3 ADD SWAP1 POP DUP2 DUP2 SUB PUSH1 0x0 DUP4 ADD MSTORE PUSH2 0x17BF DUP2 PUSH2 0x1783 JUMP JUMPDEST SWAP1 POP SWAP2 SWAP1 POP JUMP JUMPDEST PUSH2 0x17CF DUP3 PUSH2 0xF3E JUMP JUMPDEST PUSH8 0xFFFFFFFFFFFFFFFF DUP2 GT ISZERO PUSH2 0x17E8 JUMPI PUSH2 0x17E7 PUSH2 0x1039 JUMP JUMPDEST JUMPDEST PUSH2 0x17F2 DUP3 SLOAD PUSH2 0x1354 JUMP JUMPDEST PUSH2 0x17FD DUP3 DUP3 DUP6 PUSH2 0x1551 JUMP JUMPDEST PUSH1 0x0 PUSH1 0x20 SWAP1 POP PUSH1 0x1F DUP4 GT PUSH1 0x1 DUP2 EQ PUSH2 0x1830 JUMPI PUSH1 0x0 DUP5 ISZERO PUSH2 0x181E JUMPI DUP3 DUP8 ADD MLOAD SWAP1 POP JUMPDEST PUSH2 0x1828 DUP6 DUP3 PUSH2 0x15C2 JUMP JUMPDEST DUP7 SSTORE POP PUSH2 0x1890 JUMP JUMPDEST PUSH1 0x1F NOT DUP5 AND PUSH2 0x183E DUP7 PUSH2 0x1432 JUMP JUMPDEST PUSH1 0x0 JUMPDEST DUP3 DUP2 LT ISZERO PUSH2 0x1866 JUMPI DUP5 DUP10 ADD MLOAD DUP3 SSTORE PUSH1 0x1 DUP3 ADD SWAP2 POP PUSH1 0x20 DUP6 ADD SWAP5 POP PUSH1 0x20 DUP2 ADD SWAP1 POP PUSH2 0x1841 JUMP JUMPDEST DUP7 DUP4 LT ISZERO PUSH2 0x1883 JUMPI DUP5 DUP10 ADD MLOAD PUSH2 0x187F PUSH1 0x1F DUP10 AND DUP3 PUSH2 0x15A4 JUMP JUMPDEST DUP4 SSTORE POP JUMPDEST PUSH1 0x1 PUSH1 0x2 DUP9 MUL ADD DUP9 SSTORE POP POP POP JUMPDEST POP POP POP POP POP POP JUMP JUMPDEST PUSH1 0x0 DUP2 SLOAD SWAP1 POP PUSH2 0x18A7 DUP2 PUSH2 0x1354 JUMP JUMPDEST SWAP1 POP SWAP2 SWAP1 POP JUMP JUMPDEST PUSH1 0x0 DUP2 SWAP1 POP DUP2 PUSH1 0x0 MSTORE PUSH1 0x20 PUSH1 0x0 KECCAK256 SWAP1 POP SWAP2 SWAP1 POP JUMP JUMPDEST DUP2 DUP2 SUB PUSH2 0x18D1 JUMPI POP POP PUSH2 0x19A9 JUMP JUMPDEST PUSH2 0x18DA DUP3 PUSH2 0x1898 JUMP JUMPDEST PUSH8 0xFFFFFFFFFFFFFFFF DUP2 GT ISZERO PUSH2 0x18F3 JUMPI PUSH2 0x18F2 PUSH2 0x1039 JUMP JUMPDEST JUMPDEST PUSH2 0x18FD DUP3 SLOAD PUSH2 0x1354 JUMP JUMPDEST PUSH2 0x1908 DUP3 DUP3 DUP6 PUSH2 0x1551 JUMP JUMPDEST PUSH1 0x0 PUSH1 0x1F DUP4 GT PUSH1 0x1 DUP2 EQ PUSH2 0x1937 JUMPI PUSH1 0x0 DUP5 ISZERO PUSH2 0x1925 JUMPI DUP3 DUP8 ADD SLOAD SWAP1 POP JUMPDEST PUSH2 0x192F DUP6 DUP3 PUSH2 0x15C2 JUMP JUMPDEST DUP7 SSTORE POP PUSH2 0x19A2 JUMP JUMPDEST PUSH1 0x1F NOT DUP5 AND PUSH2 0x1945 DUP8 PUSH2 0x18AE JUMP JUMPDEST SWAP7 POP PUSH2 0x1950 DUP7 PUSH2 0x1432 JUMP JUMPDEST PUSH1 0x0 JUMPDEST DUP3 DUP2 LT ISZERO PUSH2 0x1978 JUMPI DUP5 DUP10 ADD SLOAD DUP3 SSTORE PUSH1 0x1 DUP3 ADD SWAP2 POP PUSH1 0x1 DUP6 ADD SWAP5 POP PUSH1 0x20 DUP2 ADD SWAP1 POP PUSH2 0x1953 JUMP JUMPDEST DUP7 DUP4 LT ISZERO PUSH2 0x1995 JUMPI DUP5 DUP10 ADD SLOAD PUSH2 0x1991 PUSH1 0x1F DUP10 AND DUP3 PUSH2 0x15A4 JUMP JUMPDEST DUP4 SSTORE POP JUMPDEST PUSH1 0x1 PUSH1 0x2 DUP9 MUL ADD DUP9 SSTORE POP POP POP JUMPDEST POP POP POP POP POP POP JUMPDEST JUMP JUMPDEST PUSH32 0x4E487B7100000000000000000000000000000000000000000000000000000000 PUSH1 0x0 MSTORE PUSH1 0x31 PUSH1 0x4 MSTORE PUSH1 0x24 PUSH1 0x0 REVERT INVALID LOG2 PUSH5 0x6970667358 0x22 SLT KECCAK256 PUSH26 0xF44B1C4DB6B0572E0EAB9CA42DFD548297797CD6ACB0D5602D8D SELFDESTRUCT TIMESTAMP 0x27 LOG2 PC PUSH5 0x736F6C6343 STOP ADDMOD GT STOP CALLER "
				},
				"gasEstimates": {
					"creation": {
						"codeDepositCost": "1334400",
						"executionCost": "6396",
						"totalCost": "1340796"
					},
					"external": {
						"Complete()": "infinite",
						"Moveoutpendingitem(uint256)": "infinite",
						"addTodo(string)": "infinite",
						"countpendinghowlong(uint256)": "infinite",
						"deleteTodo(uint256)": "infinite",
						"deletepending(uint256)": "infinite",
						"getAllCompleted()": "infinite",
						"getAllTodo()": "infinite",
						"getCompleted(uint256)": "infinite",
						"getTodo(uint256)": "infinite",
						"howlong()": "2496",
						"pendings(uint256)": "infinite",
						"setCompleted(uint256)": "infinite",
						"setpending(uint256)": "infinite",
						"todoCompleted(uint256)": "infinite",
						"todos(uint256)": "infinite"
					}
				},
				"methodIdentifiers": {
					"Complete()": "01b7dcb4",
					"Moveoutpendingitem(uint256)": "4ea3e230",
					"addTodo(string)": "95ffebf5",
					"countpendinghowlong(uint256)": "51932977",
					"deleteTodo(uint256)": "6e3c6738",
					"deletepending(uint256)": "1ee26ecd",
					"getAllCompleted()": "e29672ba",
					"getAllTodo()": "982abb89",
					"getCompleted(uint256)": "1bfc269b",
					"getTodo(uint256)": "dd68afb6",
					"howlong()": "bf3d28ab",
					"pendings(uint256)": "7965df39",
					"setCompleted(uint256)": "fdacd576",
					"setpending(uint256)": "cc579ce0",
					"todoCompleted(uint256)": "fe1c7f6f",
					"todos(uint256)": "bc8bc2b4"
				}
			},
			"storageLayout": {
				"storage": [
					{
						"astId": 4,
						"contract": "contracts/paper-01.sol:TodoList",
						"label": "todos",
						"offset": 0,
						"slot": "0",
						"type": "t_array(t_string_storage)dyn_storage"
					},
					{
						"astId": 7,
						"contract": "contracts/paper-01.sol:TodoList",
						"label": "todoCompleted",
						"offset": 0,
						"slot": "1",
						"type": "t_array(t_string_storage)dyn_storage"
					},
					{
						"astId": 17,
						"contract": "contracts/paper-01.sol:TodoList",
						"label": "pendings",
						"offset": 0,
						"slot": "2",
						"type": "t_mapping(t_uint256,t_struct(pendingitems)12_storage)"
					},
					{
						"astId": 20,
						"contract": "contracts/paper-01.sol:TodoList",
						"label": "count",
						"offset": 0,
						"slot": "3",
						"type": "t_uint256"
					},
					{
						"astId": 22,
						"contract": "contracts/paper-01.sol:TodoList",
						"label": "howlong",
						"offset": 0,
						"slot": "4",
						"type": "t_uint256"
					}
				],
				"types": {
					"t_array(t_string_storage)dyn_storage": {
						"base": "t_string_storage",
						"encoding": "dynamic_array",
						"label": "string[]",
						"numberOfBytes": "32"
					},
					"t_mapping(t_uint256,t_struct(pendingitems)12_storage)": {
						"encoding": "mapping",
						"key": "t_uint256",
						"label": "mapping(uint256 => struct TodoList.pendingitems)",
						"numberOfBytes": "32",
						"value": "t_struct(pendingitems)12_storage"
					},
					"t_string_storage": {
						"encoding": "bytes",
						"label": "string",
						"numberOfBytes": "32"
					},
					"t_struct(pendingitems)12_storage": {
						"encoding": "inplace",
						"label": "struct TodoList.pendingitems",
						"members": [
							{
								"astId": 9,
								"contract": "contracts/paper-01.sol:TodoList",
								"label": "itemname",
								"offset": 0,
								"slot": "0",
								"type": "t_string_storage"
							},
							{
								"astId": 11,
								"contract": "contracts/paper-01.sol:TodoList",
								"label": "pendingtime",
								"offset": 0,
								"slot": "1",
								"type": "t_uint256"
							}
						],
						"numberOfBytes": "64"
					},
					"t_uint256": {
						"encoding": "inplace",
						"label": "uint256",
						"numberOfBytes": "32"
					}
				}
			},
			"userdoc": {
				"kind": "user",
				"methods": {},
				"version": 1
			}
		}
	}
}