{
	"Subject/ERC-20_subject.sol": {
		"FirstToken": {
			"abi": [
				{
					"inputs": [
						{
							"internalType": "string",
							"name": "name",
							"type": "string"
						},
						{
							"internalType": "string",
							"name": "symbol",
							"type": "string"
						},
						{
							"internalType": "uint8",
							"name": "_decimals",
							"type": "uint8"
						},
						{
							"internalType": "uint256",
							"name": "TokentotalSupply",
							"type": "uint256"
						}
					],
					"stateMutability": "nonpayable",
					"type": "constructor"
				},
				{
					"anonymous": false,
					"inputs": [
						{
							"indexed": true,
							"internalType": "address",
							"name": "owner",
							"type": "address"
						},
						{
							"indexed": true,
							"internalType": "address",
							"name": "spender",
							"type": "address"
						},
						{
							"indexed": false,
							"internalType": "uint256",
							"name": "value",
							"type": "uint256"
						}
					],
					"name": "Approval",
					"type": "event"
				},
				{
					"anonymous": false,
					"inputs": [
						{
							"indexed": true,
							"internalType": "address",
							"name": "from",
							"type": "address"
						},
						{
							"indexed": true,
							"internalType": "address",
							"name": "to",
							"type": "address"
						},
						{
							"indexed": false,
							"internalType": "uint256",
							"name": "value",
							"type": "uint256"
						}
					],
					"name": "Transfer",
					"type": "event"
				},
				{
					"inputs": [
						{
							"internalType": "bytes32[]",
							"name": "_proof",
							"type": "bytes32[]"
						}
					],
					"name": "CheckwhitelistMint",
					"outputs": [],
					"stateMutability": "nonpayable",
					"type": "function"
				},
				{
					"inputs": [
						{
							"internalType": "uint256",
							"name": "_PublicMaxNumberofToken",
							"type": "uint256"
						}
					],
					"name": "SetPublicMaxNumberofToken",
					"outputs": [],
					"stateMutability": "nonpayable",
					"type": "function"
				},
				{
					"inputs": [
						{
							"internalType": "uint256",
							"name": "_WhitelistMaxNumberofToken",
							"type": "uint256"
						}
					],
					"name": "SetWhitelistMaxNumberofToken",
					"outputs": [],
					"stateMutability": "nonpayable",
					"type": "function"
				},
				{
					"inputs": [
						{
							"internalType": "uint256",
							"name": "_WhitelistMintPrice",
							"type": "uint256"
						}
					],
					"name": "SetWhitelistMintPrice",
					"outputs": [],
					"stateMutability": "nonpayable",
					"type": "function"
				},
				{
					"inputs": [
						{
							"internalType": "address",
							"name": "owner",
							"type": "address"
						},
						{
							"internalType": "address",
							"name": "spender",
							"type": "address"
						}
					],
					"name": "allowance",
					"outputs": [
						{
							"internalType": "uint256",
							"name": "",
							"type": "uint256"
						}
					],
					"stateMutability": "view",
					"type": "function"
				},
				{
					"inputs": [
						{
							"internalType": "address",
							"name": "spender",
							"type": "address"
						},
						{
							"internalType": "uint256",
							"name": "amount",
							"type": "uint256"
						}
					],
					"name": "approve",
					"outputs": [
						{
							"internalType": "bool",
							"name": "",
							"type": "bool"
						}
					],
					"stateMutability": "nonpayable",
					"type": "function"
				},
				{
					"inputs": [
						{
							"internalType": "address",
							"name": "account",
							"type": "address"
						}
					],
					"name": "balanceOf",
					"outputs": [
						{
							"internalType": "uint256",
							"name": "",
							"type": "uint256"
						}
					],
					"stateMutability": "view",
					"type": "function"
				},
				{
					"inputs": [
						{
							"internalType": "address",
							"name": "from",
							"type": "address"
						},
						{
							"internalType": "uint256",
							"name": "amount",
							"type": "uint256"
						}
					],
					"name": "burn",
					"outputs": [],
					"stateMutability": "nonpayable",
					"type": "function"
				},
				{
					"inputs": [],
					"name": "decimals",
					"outputs": [
						{
							"internalType": "uint8",
							"name": "",
							"type": "uint8"
						}
					],
					"stateMutability": "view",
					"type": "function"
				},
				{
					"inputs": [
						{
							"internalType": "address",
							"name": "spender",
							"type": "address"
						},
						{
							"internalType": "uint256",
							"name": "subtractedValue",
							"type": "uint256"
						}
					],
					"name": "decreaseAllowance",
					"outputs": [
						{
							"internalType": "bool",
							"name": "",
							"type": "bool"
						}
					],
					"stateMutability": "nonpayable",
					"type": "function"
				},
				{
					"inputs": [
						{
							"internalType": "address",
							"name": "spender",
							"type": "address"
						},
						{
							"internalType": "uint256",
							"name": "addedValue",
							"type": "uint256"
						}
					],
					"name": "increaseAllowance",
					"outputs": [
						{
							"internalType": "bool",
							"name": "",
							"type": "bool"
						}
					],
					"stateMutability": "nonpayable",
					"type": "function"
				},
				{
					"inputs": [
						{
							"internalType": "uint256",
							"name": "AmountofPublicToken",
							"type": "uint256"
						}
					],
					"name": "mint",
					"outputs": [],
					"stateMutability": "payable",
					"type": "function"
				},
				{
					"inputs": [],
					"name": "name",
					"outputs": [
						{
							"internalType": "string",
							"name": "",
							"type": "string"
						}
					],
					"stateMutability": "view",
					"type": "function"
				},
				{
					"inputs": [],
					"name": "root",
					"outputs": [
						{
							"internalType": "bytes32",
							"name": "",
							"type": "bytes32"
						}
					],
					"stateMutability": "view",
					"type": "function"
				},
				{
					"inputs": [
						{
							"internalType": "uint256",
							"name": "_PublicMintPrice",
							"type": "uint256"
						}
					],
					"name": "setPublicMintPrice",
					"outputs": [],
					"stateMutability": "nonpayable",
					"type": "function"
				},
				{
					"inputs": [
						{
							"internalType": "bytes32",
							"name": "_root",
							"type": "bytes32"
						}
					],
					"name": "setRoot",
					"outputs": [],
					"stateMutability": "nonpayable",
					"type": "function"
				},
				{
					"inputs": [],
					"name": "symbol",
					"outputs": [
						{
							"internalType": "string",
							"name": "",
							"type": "string"
						}
					],
					"stateMutability": "view",
					"type": "function"
				},
				{
					"inputs": [],
					"name": "totalSupply",
					"outputs": [
						{
							"internalType": "uint256",
							"name": "",
							"type": "uint256"
						}
					],
					"stateMutability": "view",
					"type": "function"
				},
				{
					"inputs": [
						{
							"internalType": "address",
							"name": "to",
							"type": "address"
						},
						{
							"internalType": "uint256",
							"name": "amount",
							"type": "uint256"
						}
					],
					"name": "transfer",
					"outputs": [
						{
							"internalType": "bool",
							"name": "",
							"type": "bool"
						}
					],
					"stateMutability": "nonpayable",
					"type": "function"
				},
				{
					"inputs": [
						{
							"internalType": "address",
							"name": "from",
							"type": "address"
						},
						{
							"internalType": "address",
							"name": "to",
							"type": "address"
						},
						{
							"internalType": "uint256",
							"name": "amount",
							"type": "uint256"
						}
					],
					"name": "transferFrom",
					"outputs": [
						{
							"internalType": "bool",
							"name": "",
							"type": "bool"
						}
					],
					"stateMutability": "nonpayable",
					"type": "function"
				},
				{
					"inputs": [
						{
							"internalType": "bytes32[]",
							"name": "proof",
							"type": "bytes32[]"
						}
					],
					"name": "verify",
					"outputs": [
						{
							"internalType": "bool",
							"name": "",
							"type": "bool"
						}
					],
					"stateMutability": "view",
					"type": "function"
				},
				{
					"inputs": [
						{
							"internalType": "uint256",
							"name": "AmountofWhitelistToken",
							"type": "uint256"
						}
					],
					"name": "whitelistMint",
					"outputs": [],
					"stateMutability": "payable",
					"type": "function"
				}
			],
			"devdoc": {
				"kind": "dev",
				"methods": {
					"allowance(address,address)": {
						"details": "See {IERC20-allowance}."
					},
					"approve(address,uint256)": {
						"details": "See {IERC20-approve}. NOTE: If `amount` is the maximum `uint256`, the allowance is not updated on `transferFrom`. This is semantically equivalent to an infinite approval. Requirements: - `spender` cannot be the zero address."
					},
					"balanceOf(address)": {
						"details": "See {IERC20-balanceOf}."
					},
					"decimals()": {
						"details": "Returns the number of decimals used to get its user representation. For example, if `decimals` equals `2`, a balance of `505` tokens should be displayed to a user as `5.05` (`505 / 10 ** 2`). Tokens usually opt for a value of 18, imitating the relationship between Ether and Wei. This is the value {ERC20} uses, unless this function is overridden; NOTE: This information is only used for _display_ purposes: it in no way affects any of the arithmetic of the contract, including {IERC20-balanceOf} and {IERC20-transfer}."
					},
					"decreaseAllowance(address,uint256)": {
						"details": "Atomically decreases the allowance granted to `spender` by the caller. This is an alternative to {approve} that can be used as a mitigation for problems described in {IERC20-approve}. Emits an {Approval} event indicating the updated allowance. Requirements: - `spender` cannot be the zero address. - `spender` must have allowance for the caller of at least `subtractedValue`."
					},
					"increaseAllowance(address,uint256)": {
						"details": "Atomically increases the allowance granted to `spender` by the caller. This is an alternative to {approve} that can be used as a mitigation for problems described in {IERC20-approve}. Emits an {Approval} event indicating the updated allowance. Requirements: - `spender` cannot be the zero address."
					},
					"name()": {
						"details": "Returns the name of the token."
					},
					"symbol()": {
						"details": "Returns the symbol of the token, usually a shorter version of the name."
					},
					"totalSupply()": {
						"details": "See {IERC20-totalSupply}."
					},
					"transfer(address,uint256)": {
						"details": "See {IERC20-transfer}. Requirements: - `to` cannot be the zero address. - the caller must have a balance of at least `amount`."
					},
					"transferFrom(address,address,uint256)": {
						"details": "See {IERC20-transferFrom}. Emits an {Approval} event indicating the updated allowance. This is not required by the EIP. See the note at the beginning of {ERC20}. NOTE: Does not update the allowance if the current allowance is the maximum `uint256`. Requirements: - `from` and `to` cannot be the zero address. - `from` must have a balance of at least `amount`. - the caller must have allowance for ``from``'s tokens of at least `amount`."
					}
				},
				"version": 1
			},
			"evm": {
				"assembly": "    /* \"Subject/ERC-20_subject.sol\":252:4515  contract FirstToken is ERC20{... */\n  mstore(0x40, 0x80)\n    /* \"Subject/ERC-20_subject.sol\":821:1110  constructor(... */\n  callvalue\n  dup1\n  iszero\n  tag_1\n  jumpi\n  0x00\n  dup1\n  revert\ntag_1:\n  pop\n  mload(0x40)\n  sub(codesize, bytecodeSize)\n  dup1\n  bytecodeSize\n  dup4\n  codecopy\n  dup2\n  dup2\n  add\n  0x40\n  mstore\n  dup2\n  add\n  swap1\n  tag_2\n  swap2\n  swap1\n  tag_3\n  jump\t// in\ntag_2:\n    /* \"Subject/ERC-20_subject.sol\":971:975  name */\n  dup4\n    /* \"Subject/ERC-20_subject.sol\":977:983  symbol */\n  dup4\n    /* \"@openzeppelin/contracts/token/ERC20/ERC20.sol\":2050:2055  name_ */\n  dup2\n    /* \"@openzeppelin/contracts/token/ERC20/ERC20.sol\":2042:2047  _name */\n  0x03\n    /* \"@openzeppelin/contracts/token/ERC20/ERC20.sol\":2042:2055  _name = name_ */\n  swap1\n  dup2\n  tag_7\n  swap2\n  swap1\n  tag_8\n  jump\t// in\ntag_7:\n  pop\n    /* \"@openzeppelin/contracts/token/ERC20/ERC20.sol\":2075:2082  symbol_ */\n  dup1\n    /* \"@openzeppelin/contracts/token/ERC20/ERC20.sol\":2065:2072  _symbol */\n  0x04\n    /* \"@openzeppelin/contracts/token/ERC20/ERC20.sol\":2065:2082  _symbol = symbol_ */\n  swap1\n  dup2\n  tag_9\n  swap2\n  swap1\n  tag_8\n  jump\t// in\ntag_9:\n  pop\n    /* \"@openzeppelin/contracts/token/ERC20/ERC20.sol\":1976:2089  constructor(string memory name_, string memory symbol_) {... */\n  pop\n  pop\n    /* \"Subject/ERC-20_subject.sol\":1007:1016  _decimals */\n  dup2\n    /* \"Subject/ERC-20_subject.sol\":995:1004  decimals_ */\n  0x06\n  0x14\n    /* \"Subject/ERC-20_subject.sol\":995:1016  decimals_ = _decimals */\n  0x0100\n  exp\n  dup2\n  sload\n  dup2\n  0xff\n  mul\n  not\n  and\n  swap1\n  dup4\n  0xff\n  and\n  mul\n  or\n  swap1\n  sstore\n  pop\n    /* \"Subject/ERC-20_subject.sol\":1035:1045  msg.sender */\n  caller\n    /* \"Subject/ERC-20_subject.sol\":1027:1032  Owner */\n  0x06\n  0x00\n    /* \"Subject/ERC-20_subject.sol\":1027:1045  Owner = msg.sender */\n  0x0100\n  exp\n  dup2\n  sload\n  dup2\n  0xffffffffffffffffffffffffffffffffffffffff\n  mul\n  not\n  and\n  swap1\n  dup4\n  0xffffffffffffffffffffffffffffffffffffffff\n  and\n  mul\n  or\n  swap1\n  sstore\n  pop\n    /* \"Subject/ERC-20_subject.sol\":1076:1092  TokentotalSupply */\n  dup1\n    /* \"Subject/ERC-20_subject.sol\":1056:1073  _TokentotalSupply */\n  0x08\n    /* \"Subject/ERC-20_subject.sol\":1056:1092  _TokentotalSupply = TokentotalSupply */\n  dup2\n  swap1\n  sstore\n  pop\n    /* \"Subject/ERC-20_subject.sol\":821:1110  constructor(... */\n  pop\n  pop\n  pop\n  pop\n    /* \"Subject/ERC-20_subject.sol\":252:4515  contract FirstToken is ERC20{... */\n  jump(tag_11)\n    /* \"#utility.yul\":7:82   */\ntag_12:\n    /* \"#utility.yul\":40:46   */\n  0x00\n    /* \"#utility.yul\":73:75   */\n  0x40\n    /* \"#utility.yul\":67:76   */\n  mload\n    /* \"#utility.yul\":57:76   */\n  swap1\n  pop\n    /* \"#utility.yul\":7:82   */\n  swap1\n  jump\t// out\n    /* \"#utility.yul\":88:205   */\ntag_13:\n    /* \"#utility.yul\":197:198   */\n  0x00\n    /* \"#utility.yul\":194:195   */\n  dup1\n    /* \"#utility.yul\":187:199   */\n  revert\n    /* \"#utility.yul\":211:328   */\ntag_14:\n    /* \"#utility.yul\":320:321   */\n  0x00\n    /* \"#utility.yul\":317:318   */\n  dup1\n    /* \"#utility.yul\":310:322   */\n  revert\n    /* \"#utility.yul\":334:451   */\ntag_15:\n    /* \"#utility.yul\":443:444   */\n  0x00\n    /* \"#utility.yul\":440:441   */\n  dup1\n    /* \"#utility.yul\":433:445   */\n  revert\n    /* \"#utility.yul\":457:574   */\ntag_16:\n    /* \"#utility.yul\":566:567   */\n  0x00\n    /* \"#utility.yul\":563:564   */\n  dup1\n    /* \"#utility.yul\":556:568   */\n  revert\n    /* \"#utility.yul\":580:682   */\ntag_17:\n    /* \"#utility.yul\":621:627   */\n  0x00\n    /* \"#utility.yul\":672:674   */\n  0x1f\n    /* \"#utility.yul\":668:675   */\n  not\n    /* \"#utility.yul\":663:665   */\n  0x1f\n    /* \"#utility.yul\":656:661   */\n  dup4\n    /* \"#utility.yul\":652:666   */\n  add\n    /* \"#utility.yul\":648:676   */\n  and\n    /* \"#utility.yul\":638:676   */\n  swap1\n  pop\n    /* \"#utility.yul\":580:682   */\n  swap2\n  swap1\n  pop\n  jump\t// out\n    /* \"#utility.yul\":688:868   */\ntag_18:\n    /* \"#utility.yul\":736:813   */\n  0x4e487b7100000000000000000000000000000000000000000000000000000000\n    /* \"#utility.yul\":733:734   */\n  0x00\n    /* \"#utility.yul\":726:814   */\n  mstore\n    /* \"#utility.yul\":833:837   */\n  0x41\n    /* \"#utility.yul\":830:831   */\n  0x04\n    /* \"#utility.yul\":823:838   */\n  mstore\n    /* \"#utility.yul\":857:861   */\n  0x24\n    /* \"#utility.yul\":854:855   */\n  0x00\n    /* \"#utility.yul\":847:862   */\n  revert\n    /* \"#utility.yul\":874:1155   */\ntag_19:\n    /* \"#utility.yul\":957:984   */\n  tag_58\n    /* \"#utility.yul\":979:983   */\n  dup3\n    /* \"#utility.yul\":957:984   */\n  tag_17\n  jump\t// in\ntag_58:\n    /* \"#utility.yul\":949:955   */\n  dup2\n    /* \"#utility.yul\":945:985   */\n  add\n    /* \"#utility.yul\":1087:1093   */\n  dup2\n    /* \"#utility.yul\":1075:1085   */\n  dup2\n    /* \"#utility.yul\":1072:1094   */\n  lt\n    /* \"#utility.yul\":1051:1069   */\n  0xffffffffffffffff\n    /* \"#utility.yul\":1039:1049   */\n  dup3\n    /* \"#utility.yul\":1036:1070   */\n  gt\n    /* \"#utility.yul\":1033:1095   */\n  or\n    /* \"#utility.yul\":1030:1118   */\n  iszero\n  tag_59\n  jumpi\n    /* \"#utility.yul\":1098:1116   */\n  tag_60\n  tag_18\n  jump\t// in\ntag_60:\n    /* \"#utility.yul\":1030:1118   */\ntag_59:\n    /* \"#utility.yul\":1138:1148   */\n  dup1\n    /* \"#utility.yul\":1134:1136   */\n  0x40\n    /* \"#utility.yul\":1127:1149   */\n  mstore\n    /* \"#utility.yul\":917:1155   */\n  pop\n    /* \"#utility.yul\":874:1155   */\n  pop\n  pop\n  jump\t// out\n    /* \"#utility.yul\":1161:1290   */\ntag_20:\n    /* \"#utility.yul\":1195:1201   */\n  0x00\n    /* \"#utility.yul\":1222:1242   */\n  tag_62\n  tag_12\n  jump\t// in\ntag_62:\n    /* \"#utility.yul\":1212:1242   */\n  swap1\n  pop\n    /* \"#utility.yul\":1251:1284   */\n  tag_63\n    /* \"#utility.yul\":1279:1283   */\n  dup3\n    /* \"#utility.yul\":1271:1277   */\n  dup3\n    /* \"#utility.yul\":1251:1284   */\n  tag_19\n  jump\t// in\ntag_63:\n    /* \"#utility.yul\":1161:1290   */\n  swap2\n  swap1\n  pop\n  jump\t// out\n    /* \"#utility.yul\":1296:1604   */\ntag_21:\n    /* \"#utility.yul\":1358:1362   */\n  0x00\n    /* \"#utility.yul\":1448:1466   */\n  0xffffffffffffffff\n    /* \"#utility.yul\":1440:1446   */\n  dup3\n    /* \"#utility.yul\":1437:1467   */\n  gt\n    /* \"#utility.yul\":1434:1490   */\n  iszero\n  tag_65\n  jumpi\n    /* \"#utility.yul\":1470:1488   */\n  tag_66\n  tag_18\n  jump\t// in\ntag_66:\n    /* \"#utility.yul\":1434:1490   */\ntag_65:\n    /* \"#utility.yul\":1508:1537   */\n  tag_67\n    /* \"#utility.yul\":1530:1536   */\n  dup3\n    /* \"#utility.yul\":1508:1537   */\n  tag_17\n  jump\t// in\ntag_67:\n    /* \"#utility.yul\":1500:1537   */\n  swap1\n  pop\n    /* \"#utility.yul\":1592:1596   */\n  0x20\n    /* \"#utility.yul\":1586:1590   */\n  dup2\n    /* \"#utility.yul\":1582:1597   */\n  add\n    /* \"#utility.yul\":1574:1597   */\n  swap1\n  pop\n    /* \"#utility.yul\":1296:1604   */\n  swap2\n  swap1\n  pop\n  jump\t// out\n    /* \"#utility.yul\":1610:1856   */\ntag_22:\n    /* \"#utility.yul\":1691:1692   */\n  0x00\n    /* \"#utility.yul\":1701:1814   */\ntag_69:\n    /* \"#utility.yul\":1715:1721   */\n  dup4\n    /* \"#utility.yul\":1712:1713   */\n  dup2\n    /* \"#utility.yul\":1709:1722   */\n  lt\n    /* \"#utility.yul\":1701:1814   */\n  iszero\n  tag_71\n  jumpi\n    /* \"#utility.yul\":1800:1801   */\n  dup1\n    /* \"#utility.yul\":1795:1798   */\n  dup3\n    /* \"#utility.yul\":1791:1802   */\n  add\n    /* \"#utility.yul\":1785:1803   */\n  mload\n    /* \"#utility.yul\":1781:1782   */\n  dup2\n    /* \"#utility.yul\":1776:1779   */\n  dup5\n    /* \"#utility.yul\":1772:1783   */\n  add\n    /* \"#utility.yul\":1765:1804   */\n  mstore\n    /* \"#utility.yul\":1737:1739   */\n  0x20\n    /* \"#utility.yul\":1734:1735   */\n  dup2\n    /* \"#utility.yul\":1730:1740   */\n  add\n    /* \"#utility.yul\":1725:1740   */\n  swap1\n  pop\n    /* \"#utility.yul\":1701:1814   */\n  jump(tag_69)\ntag_71:\n    /* \"#utility.yul\":1848:1849   */\n  0x00\n    /* \"#utility.yul\":1839:1845   */\n  dup5\n    /* \"#utility.yul\":1834:1837   */\n  dup5\n    /* \"#utility.yul\":1830:1846   */\n  add\n    /* \"#utility.yul\":1823:1850   */\n  mstore\n    /* \"#utility.yul\":1672:1856   */\n  pop\n    /* \"#utility.yul\":1610:1856   */\n  pop\n  pop\n  pop\n  jump\t// out\n    /* \"#utility.yul\":1862:2296   */\ntag_23:\n    /* \"#utility.yul\":1951:1956   */\n  0x00\n    /* \"#utility.yul\":1976:2042   */\n  tag_73\n    /* \"#utility.yul\":1992:2041   */\n  tag_74\n    /* \"#utility.yul\":2034:2040   */\n  dup5\n    /* \"#utility.yul\":1992:2041   */\n  tag_21\n  jump\t// in\ntag_74:\n    /* \"#utility.yul\":1976:2042   */\n  tag_20\n  jump\t// in\ntag_73:\n    /* \"#utility.yul\":1967:2042   */\n  swap1\n  pop\n    /* \"#utility.yul\":2065:2071   */\n  dup3\n    /* \"#utility.yul\":2058:2063   */\n  dup2\n    /* \"#utility.yul\":2051:2072   */\n  mstore\n    /* \"#utility.yul\":2103:2107   */\n  0x20\n    /* \"#utility.yul\":2096:2101   */\n  dup2\n    /* \"#utility.yul\":2092:2108   */\n  add\n    /* \"#utility.yul\":2141:2144   */\n  dup5\n    /* \"#utility.yul\":2132:2138   */\n  dup5\n    /* \"#utility.yul\":2127:2130   */\n  dup5\n    /* \"#utility.yul\":2123:2139   */\n  add\n    /* \"#utility.yul\":2120:2145   */\n  gt\n    /* \"#utility.yul\":2117:2229   */\n  iszero\n  tag_75\n  jumpi\n    /* \"#utility.yul\":2148:2227   */\n  tag_76\n  tag_16\n  jump\t// in\ntag_76:\n    /* \"#utility.yul\":2117:2229   */\ntag_75:\n    /* \"#utility.yul\":2238:2290   */\n  tag_77\n    /* \"#utility.yul\":2283:2289   */\n  dup5\n    /* \"#utility.yul\":2278:2281   */\n  dup3\n    /* \"#utility.yul\":2273:2276   */\n  dup6\n    /* \"#utility.yul\":2238:2290   */\n  tag_22\n  jump\t// in\ntag_77:\n    /* \"#utility.yul\":1957:2296   */\n  pop\n    /* \"#utility.yul\":1862:2296   */\n  swap4\n  swap3\n  pop\n  pop\n  pop\n  jump\t// out\n    /* \"#utility.yul\":2316:2671   */\ntag_24:\n    /* \"#utility.yul\":2383:2388   */\n  0x00\n    /* \"#utility.yul\":2432:2435   */\n  dup3\n    /* \"#utility.yul\":2425:2429   */\n  0x1f\n    /* \"#utility.yul\":2417:2423   */\n  dup4\n    /* \"#utility.yul\":2413:2430   */\n  add\n    /* \"#utility.yul\":2409:2436   */\n  slt\n    /* \"#utility.yul\":2399:2521   */\n  tag_79\n  jumpi\n    /* \"#utility.yul\":2440:2519   */\n  tag_80\n  tag_15\n  jump\t// in\ntag_80:\n    /* \"#utility.yul\":2399:2521   */\ntag_79:\n    /* \"#utility.yul\":2550:2556   */\n  dup2\n    /* \"#utility.yul\":2544:2557   */\n  mload\n    /* \"#utility.yul\":2575:2665   */\n  tag_81\n    /* \"#utility.yul\":2661:2664   */\n  dup5\n    /* \"#utility.yul\":2653:2659   */\n  dup3\n    /* \"#utility.yul\":2646:2650   */\n  0x20\n    /* \"#utility.yul\":2638:2644   */\n  dup7\n    /* \"#utility.yul\":2634:2651   */\n  add\n    /* \"#utility.yul\":2575:2665   */\n  tag_23\n  jump\t// in\ntag_81:\n    /* \"#utility.yul\":2566:2665   */\n  swap2\n  pop\n    /* \"#utility.yul\":2389:2671   */\n  pop\n    /* \"#utility.yul\":2316:2671   */\n  swap3\n  swap2\n  pop\n  pop\n  jump\t// out\n    /* \"#utility.yul\":2677:2763   */\ntag_25:\n    /* \"#utility.yul\":2712:2719   */\n  0x00\n    /* \"#utility.yul\":2752:2756   */\n  0xff\n    /* \"#utility.yul\":2745:2750   */\n  dup3\n    /* \"#utility.yul\":2741:2757   */\n  and\n    /* \"#utility.yul\":2730:2757   */\n  swap1\n  pop\n    /* \"#utility.yul\":2677:2763   */\n  swap2\n  swap1\n  pop\n  jump\t// out\n    /* \"#utility.yul\":2769:2887   */\ntag_26:\n    /* \"#utility.yul\":2840:2862   */\n  tag_84\n    /* \"#utility.yul\":2856:2861   */\n  dup2\n    /* \"#utility.yul\":2840:2862   */\n  tag_25\n  jump\t// in\ntag_84:\n    /* \"#utility.yul\":2833:2838   */\n  dup2\n    /* \"#utility.yul\":2830:2863   */\n  eq\n    /* \"#utility.yul\":2820:2881   */\n  tag_85\n  jumpi\n    /* \"#utility.yul\":2877:2878   */\n  0x00\n    /* \"#utility.yul\":2874:2875   */\n  dup1\n    /* \"#utility.yul\":2867:2879   */\n  revert\n    /* \"#utility.yul\":2820:2881   */\ntag_85:\n    /* \"#utility.yul\":2769:2887   */\n  pop\n  jump\t// out\n    /* \"#utility.yul\":2893:3032   */\ntag_27:\n    /* \"#utility.yul\":2948:2953   */\n  0x00\n    /* \"#utility.yul\":2979:2985   */\n  dup2\n    /* \"#utility.yul\":2973:2986   */\n  mload\n    /* \"#utility.yul\":2964:2986   */\n  swap1\n  pop\n    /* \"#utility.yul\":2995:3026   */\n  tag_87\n    /* \"#utility.yul\":3020:3025   */\n  dup2\n    /* \"#utility.yul\":2995:3026   */\n  tag_26\n  jump\t// in\ntag_87:\n    /* \"#utility.yul\":2893:3032   */\n  swap3\n  swap2\n  pop\n  pop\n  jump\t// out\n    /* \"#utility.yul\":3038:3115   */\ntag_28:\n    /* \"#utility.yul\":3075:3082   */\n  0x00\n    /* \"#utility.yul\":3104:3109   */\n  dup2\n    /* \"#utility.yul\":3093:3109   */\n  swap1\n  pop\n    /* \"#utility.yul\":3038:3115   */\n  swap2\n  swap1\n  pop\n  jump\t// out\n    /* \"#utility.yul\":3121:3243   */\ntag_29:\n    /* \"#utility.yul\":3194:3218   */\n  tag_90\n    /* \"#utility.yul\":3212:3217   */\n  dup2\n    /* \"#utility.yul\":3194:3218   */\n  tag_28\n  jump\t// in\ntag_90:\n    /* \"#utility.yul\":3187:3192   */\n  dup2\n    /* \"#utility.yul\":3184:3219   */\n  eq\n    /* \"#utility.yul\":3174:3237   */\n  tag_91\n  jumpi\n    /* \"#utility.yul\":3233:3234   */\n  0x00\n    /* \"#utility.yul\":3230:3231   */\n  dup1\n    /* \"#utility.yul\":3223:3235   */\n  revert\n    /* \"#utility.yul\":3174:3237   */\ntag_91:\n    /* \"#utility.yul\":3121:3243   */\n  pop\n  jump\t// out\n    /* \"#utility.yul\":3249:3392   */\ntag_30:\n    /* \"#utility.yul\":3306:3311   */\n  0x00\n    /* \"#utility.yul\":3337:3343   */\n  dup2\n    /* \"#utility.yul\":3331:3344   */\n  mload\n    /* \"#utility.yul\":3322:3344   */\n  swap1\n  pop\n    /* \"#utility.yul\":3353:3386   */\n  tag_93\n    /* \"#utility.yul\":3380:3385   */\n  dup2\n    /* \"#utility.yul\":3353:3386   */\n  tag_29\n  jump\t// in\ntag_93:\n    /* \"#utility.yul\":3249:3392   */\n  swap3\n  swap2\n  pop\n  pop\n  jump\t// out\n    /* \"#utility.yul\":3398:4560   */\ntag_3:\n    /* \"#utility.yul\":3513:3519   */\n  0x00\n    /* \"#utility.yul\":3521:3527   */\n  dup1\n    /* \"#utility.yul\":3529:3535   */\n  0x00\n    /* \"#utility.yul\":3537:3543   */\n  dup1\n    /* \"#utility.yul\":3586:3589   */\n  0x80\n    /* \"#utility.yul\":3574:3583   */\n  dup6\n    /* \"#utility.yul\":3565:3572   */\n  dup8\n    /* \"#utility.yul\":3561:3584   */\n  sub\n    /* \"#utility.yul\":3557:3590   */\n  slt\n    /* \"#utility.yul\":3554:3674   */\n  iszero\n  tag_95\n  jumpi\n    /* \"#utility.yul\":3593:3672   */\n  tag_96\n  tag_13\n  jump\t// in\ntag_96:\n    /* \"#utility.yul\":3554:3674   */\ntag_95:\n    /* \"#utility.yul\":3734:3735   */\n  0x00\n    /* \"#utility.yul\":3723:3732   */\n  dup6\n    /* \"#utility.yul\":3719:3736   */\n  add\n    /* \"#utility.yul\":3713:3737   */\n  mload\n    /* \"#utility.yul\":3764:3782   */\n  0xffffffffffffffff\n    /* \"#utility.yul\":3756:3762   */\n  dup2\n    /* \"#utility.yul\":3753:3783   */\n  gt\n    /* \"#utility.yul\":3750:3867   */\n  iszero\n  tag_97\n  jumpi\n    /* \"#utility.yul\":3786:3865   */\n  tag_98\n  tag_14\n  jump\t// in\ntag_98:\n    /* \"#utility.yul\":3750:3867   */\ntag_97:\n    /* \"#utility.yul\":3891:3965   */\n  tag_99\n    /* \"#utility.yul\":3957:3964   */\n  dup8\n    /* \"#utility.yul\":3948:3954   */\n  dup3\n    /* \"#utility.yul\":3937:3946   */\n  dup9\n    /* \"#utility.yul\":3933:3955   */\n  add\n    /* \"#utility.yul\":3891:3965   */\n  tag_24\n  jump\t// in\ntag_99:\n    /* \"#utility.yul\":3881:3965   */\n  swap5\n  pop\n    /* \"#utility.yul\":3684:3975   */\n  pop\n    /* \"#utility.yul\":4035:4037   */\n  0x20\n    /* \"#utility.yul\":4024:4033   */\n  dup6\n    /* \"#utility.yul\":4020:4038   */\n  add\n    /* \"#utility.yul\":4014:4039   */\n  mload\n    /* \"#utility.yul\":4066:4084   */\n  0xffffffffffffffff\n    /* \"#utility.yul\":4058:4064   */\n  dup2\n    /* \"#utility.yul\":4055:4085   */\n  gt\n    /* \"#utility.yul\":4052:4169   */\n  iszero\n  tag_100\n  jumpi\n    /* \"#utility.yul\":4088:4167   */\n  tag_101\n  tag_14\n  jump\t// in\ntag_101:\n    /* \"#utility.yul\":4052:4169   */\ntag_100:\n    /* \"#utility.yul\":4193:4267   */\n  tag_102\n    /* \"#utility.yul\":4259:4266   */\n  dup8\n    /* \"#utility.yul\":4250:4256   */\n  dup3\n    /* \"#utility.yul\":4239:4248   */\n  dup9\n    /* \"#utility.yul\":4235:4257   */\n  add\n    /* \"#utility.yul\":4193:4267   */\n  tag_24\n  jump\t// in\ntag_102:\n    /* \"#utility.yul\":4183:4267   */\n  swap4\n  pop\n    /* \"#utility.yul\":3985:4277   */\n  pop\n    /* \"#utility.yul\":4316:4318   */\n  0x40\n    /* \"#utility.yul\":4342:4404   */\n  tag_103\n    /* \"#utility.yul\":4396:4403   */\n  dup8\n    /* \"#utility.yul\":4387:4393   */\n  dup3\n    /* \"#utility.yul\":4376:4385   */\n  dup9\n    /* \"#utility.yul\":4372:4394   */\n  add\n    /* \"#utility.yul\":4342:4404   */\n  tag_27\n  jump\t// in\ntag_103:\n    /* \"#utility.yul\":4332:4404   */\n  swap3\n  pop\n    /* \"#utility.yul\":4287:4414   */\n  pop\n    /* \"#utility.yul\":4453:4455   */\n  0x60\n    /* \"#utility.yul\":4479:4543   */\n  tag_104\n    /* \"#utility.yul\":4535:4542   */\n  dup8\n    /* \"#utility.yul\":4526:4532   */\n  dup3\n    /* \"#utility.yul\":4515:4524   */\n  dup9\n    /* \"#utility.yul\":4511:4533   */\n  add\n    /* \"#utility.yul\":4479:4543   */\n  tag_30\n  jump\t// in\ntag_104:\n    /* \"#utility.yul\":4469:4543   */\n  swap2\n  pop\n    /* \"#utility.yul\":4424:4553   */\n  pop\n    /* \"#utility.yul\":3398:4560   */\n  swap3\n  swap6\n  swap2\n  swap5\n  pop\n  swap3\n  pop\n  jump\t// out\n    /* \"#utility.yul\":4566:4665   */\ntag_31:\n    /* \"#utility.yul\":4618:4624   */\n  0x00\n    /* \"#utility.yul\":4652:4657   */\n  dup2\n    /* \"#utility.yul\":4646:4658   */\n  mload\n    /* \"#utility.yul\":4636:4658   */\n  swap1\n  pop\n    /* \"#utility.yul\":4566:4665   */\n  swap2\n  swap1\n  pop\n  jump\t// out\n    /* \"#utility.yul\":4671:4851   */\ntag_32:\n    /* \"#utility.yul\":4719:4796   */\n  0x4e487b7100000000000000000000000000000000000000000000000000000000\n    /* \"#utility.yul\":4716:4717   */\n  0x00\n    /* \"#utility.yul\":4709:4797   */\n  mstore\n    /* \"#utility.yul\":4816:4820   */\n  0x22\n    /* \"#utility.yul\":4813:4814   */\n  0x04\n    /* \"#utility.yul\":4806:4821   */\n  mstore\n    /* \"#utility.yul\":4840:4844   */\n  0x24\n    /* \"#utility.yul\":4837:4838   */\n  0x00\n    /* \"#utility.yul\":4830:4845   */\n  revert\n    /* \"#utility.yul\":4857:5177   */\ntag_33:\n    /* \"#utility.yul\":4901:4907   */\n  0x00\n    /* \"#utility.yul\":4938:4939   */\n  0x02\n    /* \"#utility.yul\":4932:4936   */\n  dup3\n    /* \"#utility.yul\":4928:4940   */\n  div\n    /* \"#utility.yul\":4918:4940   */\n  swap1\n  pop\n    /* \"#utility.yul\":4985:4986   */\n  0x01\n    /* \"#utility.yul\":4979:4983   */\n  dup3\n    /* \"#utility.yul\":4975:4987   */\n  and\n    /* \"#utility.yul\":5006:5024   */\n  dup1\n    /* \"#utility.yul\":4996:5077   */\n  tag_108\n  jumpi\n    /* \"#utility.yul\":5062:5066   */\n  0x7f\n    /* \"#utility.yul\":5054:5060   */\n  dup3\n    /* \"#utility.yul\":5050:5067   */\n  and\n    /* \"#utility.yul\":5040:5067   */\n  swap2\n  pop\n    /* \"#utility.yul\":4996:5077   */\ntag_108:\n    /* \"#utility.yul\":5124:5126   */\n  0x20\n    /* \"#utility.yul\":5116:5122   */\n  dup3\n    /* \"#utility.yul\":5113:5127   */\n  lt\n    /* \"#utility.yul\":5093:5111   */\n  dup2\n    /* \"#utility.yul\":5090:5128   */\n  sub\n    /* \"#utility.yul\":5087:5171   */\n  tag_109\n  jumpi\n    /* \"#utility.yul\":5143:5161   */\n  tag_110\n  tag_32\n  jump\t// in\ntag_110:\n    /* \"#utility.yul\":5087:5171   */\ntag_109:\n    /* \"#utility.yul\":4908:5177   */\n  pop\n    /* \"#utility.yul\":4857:5177   */\n  swap2\n  swap1\n  pop\n  jump\t// out\n    /* \"#utility.yul\":5183:5324   */\ntag_34:\n    /* \"#utility.yul\":5232:5236   */\n  0x00\n    /* \"#utility.yul\":5255:5258   */\n  dup2\n    /* \"#utility.yul\":5247:5258   */\n  swap1\n  pop\n    /* \"#utility.yul\":5278:5281   */\n  dup2\n    /* \"#utility.yul\":5275:5276   */\n  0x00\n    /* \"#utility.yul\":5268:5282   */\n  mstore\n    /* \"#utility.yul\":5312:5316   */\n  0x20\n    /* \"#utility.yul\":5309:5310   */\n  0x00\n    /* \"#utility.yul\":5299:5317   */\n  keccak256\n    /* \"#utility.yul\":5291:5317   */\n  swap1\n  pop\n    /* \"#utility.yul\":5183:5324   */\n  swap2\n  swap1\n  pop\n  jump\t// out\n    /* \"#utility.yul\":5330:5423   */\ntag_35:\n    /* \"#utility.yul\":5367:5373   */\n  0x00\n    /* \"#utility.yul\":5414:5416   */\n  0x20\n    /* \"#utility.yul\":5409:5411   */\n  0x1f\n    /* \"#utility.yul\":5402:5407   */\n  dup4\n    /* \"#utility.yul\":5398:5412   */\n  add\n    /* \"#utility.yul\":5394:5417   */\n  div\n    /* \"#utility.yul\":5384:5417   */\n  swap1\n  pop\n    /* \"#utility.yul\":5330:5423   */\n  swap2\n  swap1\n  pop\n  jump\t// out\n    /* \"#utility.yul\":5429:5536   */\ntag_36:\n    /* \"#utility.yul\":5473:5481   */\n  0x00\n    /* \"#utility.yul\":5523:5528   */\n  dup3\n    /* \"#utility.yul\":5517:5521   */\n  dup3\n    /* \"#utility.yul\":5513:5529   */\n  shl\n    /* \"#utility.yul\":5492:5529   */\n  swap1\n  pop\n    /* \"#utility.yul\":5429:5536   */\n  swap3\n  swap2\n  pop\n  pop\n  jump\t// out\n    /* \"#utility.yul\":5542:5935   */\ntag_37:\n    /* \"#utility.yul\":5611:5617   */\n  0x00\n    /* \"#utility.yul\":5661:5662   */\n  0x08\n    /* \"#utility.yul\":5649:5659   */\n  dup4\n    /* \"#utility.yul\":5645:5663   */\n  mul\n    /* \"#utility.yul\":5684:5781   */\n  tag_115\n    /* \"#utility.yul\":5714:5780   */\n  0xffffffffffffffffffffffffffffffffffffffffffffffffffffffffffffffff\n    /* \"#utility.yul\":5703:5712   */\n  dup3\n    /* \"#utility.yul\":5684:5781   */\n  tag_36\n  jump\t// in\ntag_115:\n    /* \"#utility.yul\":5802:5841   */\n  tag_116\n    /* \"#utility.yul\":5832:5840   */\n  dup7\n    /* \"#utility.yul\":5821:5830   */\n  dup4\n    /* \"#utility.yul\":5802:5841   */\n  tag_36\n  jump\t// in\ntag_116:\n    /* \"#utility.yul\":5790:5841   */\n  swap6\n  pop\n    /* \"#utility.yul\":5874:5878   */\n  dup1\n    /* \"#utility.yul\":5870:5879   */\n  not\n    /* \"#utility.yul\":5863:5868   */\n  dup5\n    /* \"#utility.yul\":5859:5880   */\n  and\n    /* \"#utility.yul\":5850:5880   */\n  swap4\n  pop\n    /* \"#utility.yul\":5923:5927   */\n  dup1\n    /* \"#utility.yul\":5913:5921   */\n  dup7\n    /* \"#utility.yul\":5909:5928   */\n  and\n    /* \"#utility.yul\":5902:5907   */\n  dup5\n    /* \"#utility.yul\":5899:5929   */\n  or\n    /* \"#utility.yul\":5889:5929   */\n  swap3\n  pop\n    /* \"#utility.yul\":5618:5935   */\n  pop\n  pop\n    /* \"#utility.yul\":5542:5935   */\n  swap4\n  swap3\n  pop\n  pop\n  pop\n  jump\t// out\n    /* \"#utility.yul\":5941:6001   */\ntag_38:\n    /* \"#utility.yul\":5969:5972   */\n  0x00\n    /* \"#utility.yul\":5990:5995   */\n  dup2\n    /* \"#utility.yul\":5983:5995   */\n  swap1\n  pop\n    /* \"#utility.yul\":5941:6001   */\n  swap2\n  swap1\n  pop\n  jump\t// out\n    /* \"#utility.yul\":6007:6149   */\ntag_39:\n    /* \"#utility.yul\":6057:6066   */\n  0x00\n    /* \"#utility.yul\":6090:6143   */\n  tag_119\n    /* \"#utility.yul\":6108:6142   */\n  tag_120\n    /* \"#utility.yul\":6117:6141   */\n  tag_121\n    /* \"#utility.yul\":6135:6140   */\n  dup5\n    /* \"#utility.yul\":6117:6141   */\n  tag_28\n  jump\t// in\ntag_121:\n    /* \"#utility.yul\":6108:6142   */\n  tag_38\n  jump\t// in\ntag_120:\n    /* \"#utility.yul\":6090:6143   */\n  tag_28\n  jump\t// in\ntag_119:\n    /* \"#utility.yul\":6077:6143   */\n  swap1\n  pop\n    /* \"#utility.yul\":6007:6149   */\n  swap2\n  swap1\n  pop\n  jump\t// out\n    /* \"#utility.yul\":6155:6230   */\ntag_40:\n    /* \"#utility.yul\":6198:6201   */\n  0x00\n    /* \"#utility.yul\":6219:6224   */\n  dup2\n    /* \"#utility.yul\":6212:6224   */\n  swap1\n  pop\n    /* \"#utility.yul\":6155:6230   */\n  swap2\n  swap1\n  pop\n  jump\t// out\n    /* \"#utility.yul\":6236:6505   */\ntag_41:\n    /* \"#utility.yul\":6346:6385   */\n  tag_124\n    /* \"#utility.yul\":6377:6384   */\n  dup4\n    /* \"#utility.yul\":6346:6385   */\n  tag_39\n  jump\t// in\ntag_124:\n    /* \"#utility.yul\":6407:6498   */\n  tag_125\n    /* \"#utility.yul\":6456:6497   */\n  tag_126\n    /* \"#utility.yul\":6480:6496   */\n  dup3\n    /* \"#utility.yul\":6456:6497   */\n  tag_40\n  jump\t// in\ntag_126:\n    /* \"#utility.yul\":6448:6454   */\n  dup5\n    /* \"#utility.yul\":6441:6445   */\n  dup5\n    /* \"#utility.yul\":6435:6446   */\n  sload\n    /* \"#utility.yul\":6407:6498   */\n  tag_37\n  jump\t// in\ntag_125:\n    /* \"#utility.yul\":6401:6405   */\n  dup3\n    /* \"#utility.yul\":6394:6499   */\n  sstore\n    /* \"#utility.yul\":6312:6505   */\n  pop\n    /* \"#utility.yul\":6236:6505   */\n  pop\n  pop\n  pop\n  jump\t// out\n    /* \"#utility.yul\":6511:6584   */\ntag_42:\n    /* \"#utility.yul\":6556:6559   */\n  0x00\n    /* \"#utility.yul\":6511:6584   */\n  swap1\n  jump\t// out\n    /* \"#utility.yul\":6590:6779   */\ntag_43:\n    /* \"#utility.yul\":6667:6699   */\n  tag_129\n  tag_42\n  jump\t// in\ntag_129:\n    /* \"#utility.yul\":6708:6773   */\n  tag_130\n    /* \"#utility.yul\":6766:6772   */\n  dup2\n    /* \"#utility.yul\":6758:6764   */\n  dup5\n    /* \"#utility.yul\":6752:6756   */\n  dup5\n    /* \"#utility.yul\":6708:6773   */\n  tag_41\n  jump\t// in\ntag_130:\n    /* \"#utility.yul\":6643:6779   */\n  pop\n    /* \"#utility.yul\":6590:6779   */\n  pop\n  pop\n  jump\t// out\n    /* \"#utility.yul\":6785:6971   */\ntag_44:\n    /* \"#utility.yul\":6845:6965   */\ntag_132:\n    /* \"#utility.yul\":6862:6865   */\n  dup2\n    /* \"#utility.yul\":6855:6860   */\n  dup2\n    /* \"#utility.yul\":6852:6866   */\n  lt\n    /* \"#utility.yul\":6845:6965   */\n  iszero\n  tag_134\n  jumpi\n    /* \"#utility.yul\":6916:6955   */\n  tag_135\n    /* \"#utility.yul\":6953:6954   */\n  0x00\n    /* \"#utility.yul\":6946:6951   */\n  dup3\n    /* \"#utility.yul\":6916:6955   */\n  tag_43\n  jump\t// in\ntag_135:\n    /* \"#utility.yul\":6889:6890   */\n  0x01\n    /* \"#utility.yul\":6882:6887   */\n  dup2\n    /* \"#utility.yul\":6878:6891   */\n  add\n    /* \"#utility.yul\":6869:6891   */\n  swap1\n  pop\n    /* \"#utility.yul\":6845:6965   */\n  jump(tag_132)\ntag_134:\n    /* \"#utility.yul\":6785:6971   */\n  pop\n  pop\n  jump\t// out\n    /* \"#utility.yul\":6977:7520   */\ntag_45:\n    /* \"#utility.yul\":7078:7080   */\n  0x1f\n    /* \"#utility.yul\":7073:7076   */\n  dup3\n    /* \"#utility.yul\":7070:7081   */\n  gt\n    /* \"#utility.yul\":7067:7513   */\n  iszero\n  tag_137\n  jumpi\n    /* \"#utility.yul\":7112:7150   */\n  tag_138\n    /* \"#utility.yul\":7144:7149   */\n  dup2\n    /* \"#utility.yul\":7112:7150   */\n  tag_34\n  jump\t// in\ntag_138:\n    /* \"#utility.yul\":7196:7225   */\n  tag_139\n    /* \"#utility.yul\":7214:7224   */\n  dup5\n    /* \"#utility.yul\":7196:7225   */\n  tag_35\n  jump\t// in\ntag_139:\n    /* \"#utility.yul\":7186:7194   */\n  dup2\n    /* \"#utility.yul\":7182:7226   */\n  add\n    /* \"#utility.yul\":7379:7381   */\n  0x20\n    /* \"#utility.yul\":7367:7377   */\n  dup6\n    /* \"#utility.yul\":7364:7382   */\n  lt\n    /* \"#utility.yul\":7361:7410   */\n  iszero\n  tag_140\n  jumpi\n    /* \"#utility.yul\":7400:7408   */\n  dup2\n    /* \"#utility.yul\":7385:7408   */\n  swap1\n  pop\n    /* \"#utility.yul\":7361:7410   */\ntag_140:\n    /* \"#utility.yul\":7423:7503   */\n  tag_141\n    /* \"#utility.yul\":7479:7501   */\n  tag_142\n    /* \"#utility.yul\":7497:7500   */\n  dup6\n    /* \"#utility.yul\":7479:7501   */\n  tag_35\n  jump\t// in\ntag_142:\n    /* \"#utility.yul\":7469:7477   */\n  dup4\n    /* \"#utility.yul\":7465:7502   */\n  add\n    /* \"#utility.yul\":7452:7463   */\n  dup3\n    /* \"#utility.yul\":7423:7503   */\n  tag_44\n  jump\t// in\ntag_141:\n    /* \"#utility.yul\":7082:7513   */\n  pop\n  pop\n    /* \"#utility.yul\":7067:7513   */\ntag_137:\n    /* \"#utility.yul\":6977:7520   */\n  pop\n  pop\n  pop\n  jump\t// out\n    /* \"#utility.yul\":7526:7643   */\ntag_46:\n    /* \"#utility.yul\":7580:7588   */\n  0x00\n    /* \"#utility.yul\":7630:7635   */\n  dup3\n    /* \"#utility.yul\":7624:7628   */\n  dup3\n    /* \"#utility.yul\":7620:7636   */\n  shr\n    /* \"#utility.yul\":7599:7636   */\n  swap1\n  pop\n    /* \"#utility.yul\":7526:7643   */\n  swap3\n  swap2\n  pop\n  pop\n  jump\t// out\n    /* \"#utility.yul\":7649:7818   */\ntag_47:\n    /* \"#utility.yul\":7693:7699   */\n  0x00\n    /* \"#utility.yul\":7726:7777   */\n  tag_145\n    /* \"#utility.yul\":7774:7775   */\n  0x00\n    /* \"#utility.yul\":7770:7776   */\n  not\n    /* \"#utility.yul\":7762:7767   */\n  dup5\n    /* \"#utility.yul\":7759:7760   */\n  0x08\n    /* \"#utility.yul\":7755:7768   */\n  mul\n    /* \"#utility.yul\":7726:7777   */\n  tag_46\n  jump\t// in\ntag_145:\n    /* \"#utility.yul\":7722:7778   */\n  not\n    /* \"#utility.yul\":7807:7811   */\n  dup1\n    /* \"#utility.yul\":7801:7805   */\n  dup4\n    /* \"#utility.yul\":7797:7812   */\n  and\n    /* \"#utility.yul\":7787:7812   */\n  swap2\n  pop\n    /* \"#utility.yul\":7700:7818   */\n  pop\n    /* \"#utility.yul\":7649:7818   */\n  swap3\n  swap2\n  pop\n  pop\n  jump\t// out\n    /* \"#utility.yul\":7823:8118   */\ntag_48:\n    /* \"#utility.yul\":7899:7903   */\n  0x00\n    /* \"#utility.yul\":8045:8074   */\n  tag_147\n    /* \"#utility.yul\":8070:8073   */\n  dup4\n    /* \"#utility.yul\":8064:8068   */\n  dup4\n    /* \"#utility.yul\":8045:8074   */\n  tag_47\n  jump\t// in\ntag_147:\n    /* \"#utility.yul\":8037:8074   */\n  swap2\n  pop\n    /* \"#utility.yul\":8107:8110   */\n  dup3\n    /* \"#utility.yul\":8104:8105   */\n  0x02\n    /* \"#utility.yul\":8100:8111   */\n  mul\n    /* \"#utility.yul\":8094:8098   */\n  dup3\n    /* \"#utility.yul\":8091:8112   */\n  or\n    /* \"#utility.yul\":8083:8112   */\n  swap1\n  pop\n    /* \"#utility.yul\":7823:8118   */\n  swap3\n  swap2\n  pop\n  pop\n  jump\t// out\n    /* \"#utility.yul\":8123:9518   */\ntag_8:\n    /* \"#utility.yul\":8240:8277   */\n  tag_149\n    /* \"#utility.yul\":8273:8276   */\n  dup3\n    /* \"#utility.yul\":8240:8277   */\n  tag_31\n  jump\t// in\ntag_149:\n    /* \"#utility.yul\":8342:8360   */\n  0xffffffffffffffff\n    /* \"#utility.yul\":8334:8340   */\n  dup2\n    /* \"#utility.yul\":8331:8361   */\n  gt\n    /* \"#utility.yul\":8328:8384   */\n  iszero\n  tag_150\n  jumpi\n    /* \"#utility.yul\":8364:8382   */\n  tag_151\n  tag_18\n  jump\t// in\ntag_151:\n    /* \"#utility.yul\":8328:8384   */\ntag_150:\n    /* \"#utility.yul\":8408:8446   */\n  tag_152\n    /* \"#utility.yul\":8440:8444   */\n  dup3\n    /* \"#utility.yul\":8434:8445   */\n  sload\n    /* \"#utility.yul\":8408:8446   */\n  tag_33\n  jump\t// in\ntag_152:\n    /* \"#utility.yul\":8493:8560   */\n  tag_153\n    /* \"#utility.yul\":8553:8559   */\n  dup3\n    /* \"#utility.yul\":8545:8551   */\n  dup3\n    /* \"#utility.yul\":8539:8543   */\n  dup6\n    /* \"#utility.yul\":8493:8560   */\n  tag_45\n  jump\t// in\ntag_153:\n    /* \"#utility.yul\":8587:8588   */\n  0x00\n    /* \"#utility.yul\":8611:8615   */\n  0x20\n    /* \"#utility.yul\":8598:8615   */\n  swap1\n  pop\n    /* \"#utility.yul\":8643:8645   */\n  0x1f\n    /* \"#utility.yul\":8635:8641   */\n  dup4\n    /* \"#utility.yul\":8632:8646   */\n  gt\n    /* \"#utility.yul\":8660:8661   */\n  0x01\n    /* \"#utility.yul\":8655:9273   */\n  dup2\n  eq\n  tag_155\n  jumpi\n    /* \"#utility.yul\":9317:9318   */\n  0x00\n    /* \"#utility.yul\":9334:9340   */\n  dup5\n    /* \"#utility.yul\":9331:9408   */\n  iszero\n  tag_156\n  jumpi\n    /* \"#utility.yul\":9383:9392   */\n  dup3\n    /* \"#utility.yul\":9378:9381   */\n  dup8\n    /* \"#utility.yul\":9374:9393   */\n  add\n    /* \"#utility.yul\":9368:9394   */\n  mload\n    /* \"#utility.yul\":9359:9394   */\n  swap1\n  pop\n    /* \"#utility.yul\":9331:9408   */\ntag_156:\n    /* \"#utility.yul\":9434:9501   */\n  tag_157\n    /* \"#utility.yul\":9494:9500   */\n  dup6\n    /* \"#utility.yul\":9487:9492   */\n  dup3\n    /* \"#utility.yul\":9434:9501   */\n  tag_48\n  jump\t// in\ntag_157:\n    /* \"#utility.yul\":9428:9432   */\n  dup7\n    /* \"#utility.yul\":9421:9502   */\n  sstore\n    /* \"#utility.yul\":9290:9512   */\n  pop\n    /* \"#utility.yul\":8625:9512   */\n  jump(tag_154)\n    /* \"#utility.yul\":8655:9273   */\ntag_155:\n    /* \"#utility.yul\":8707:8711   */\n  0x1f\n    /* \"#utility.yul\":8703:8712   */\n  not\n    /* \"#utility.yul\":8695:8701   */\n  dup5\n    /* \"#utility.yul\":8691:8713   */\n  and\n    /* \"#utility.yul\":8741:8778   */\n  tag_158\n    /* \"#utility.yul\":8773:8777   */\n  dup7\n    /* \"#utility.yul\":8741:8778   */\n  tag_34\n  jump\t// in\ntag_158:\n    /* \"#utility.yul\":8800:8801   */\n  0x00\n    /* \"#utility.yul\":8814:9022   */\ntag_159:\n    /* \"#utility.yul\":8828:8835   */\n  dup3\n    /* \"#utility.yul\":8825:8826   */\n  dup2\n    /* \"#utility.yul\":8822:8836   */\n  lt\n    /* \"#utility.yul\":8814:9022   */\n  iszero\n  tag_161\n  jumpi\n    /* \"#utility.yul\":8907:8916   */\n  dup5\n    /* \"#utility.yul\":8902:8905   */\n  dup10\n    /* \"#utility.yul\":8898:8917   */\n  add\n    /* \"#utility.yul\":8892:8918   */\n  mload\n    /* \"#utility.yul\":8884:8890   */\n  dup3\n    /* \"#utility.yul\":8877:8919   */\n  sstore\n    /* \"#utility.yul\":8958:8959   */\n  0x01\n    /* \"#utility.yul\":8950:8956   */\n  dup3\n    /* \"#utility.yul\":8946:8960   */\n  add\n    /* \"#utility.yul\":8936:8960   */\n  swap2\n  pop\n    /* \"#utility.yul\":9005:9007   */\n  0x20\n    /* \"#utility.yul\":8994:9003   */\n  dup6\n    /* \"#utility.yul\":8990:9008   */\n  add\n    /* \"#utility.yul\":8977:9008   */\n  swap5\n  pop\n    /* \"#utility.yul\":8851:8855   */\n  0x20\n    /* \"#utility.yul\":8848:8849   */\n  dup2\n    /* \"#utility.yul\":8844:8856   */\n  add\n    /* \"#utility.yul\":8839:8856   */\n  swap1\n  pop\n    /* \"#utility.yul\":8814:9022   */\n  jump(tag_159)\ntag_161:\n    /* \"#utility.yul\":9050:9056   */\n  dup7\n    /* \"#utility.yul\":9041:9048   */\n  dup4\n    /* \"#utility.yul\":9038:9057   */\n  lt\n    /* \"#utility.yul\":9035:9214   */\n  iszero\n  tag_162\n  jumpi\n    /* \"#utility.yul\":9108:9117   */\n  dup5\n    /* \"#utility.yul\":9103:9106   */\n  dup10\n    /* \"#utility.yul\":9099:9118   */\n  add\n    /* \"#utility.yul\":9093:9119   */\n  mload\n    /* \"#utility.yul\":9151:9199   */\n  tag_163\n    /* \"#utility.yul\":9193:9197   */\n  0x1f\n    /* \"#utility.yul\":9185:9191   */\n  dup10\n    /* \"#utility.yul\":9181:9198   */\n  and\n    /* \"#utility.yul\":9170:9179   */\n  dup3\n    /* \"#utility.yul\":9151:9199   */\n  tag_47\n  jump\t// in\ntag_163:\n    /* \"#utility.yul\":9143:9149   */\n  dup4\n    /* \"#utility.yul\":9136:9200   */\n  sstore\n    /* \"#utility.yul\":9058:9214   */\n  pop\n    /* \"#utility.yul\":9035:9214   */\ntag_162:\n    /* \"#utility.yul\":9260:9261   */\n  0x01\n    /* \"#utility.yul\":9256:9257   */\n  0x02\n    /* \"#utility.yul\":9248:9254   */\n  dup9\n    /* \"#utility.yul\":9244:9258   */\n  mul\n    /* \"#utility.yul\":9240:9262   */\n  add\n    /* \"#utility.yul\":9234:9238   */\n  dup9\n    /* \"#utility.yul\":9227:9263   */\n  sstore\n    /* \"#utility.yul\":8662:9273   */\n  pop\n  pop\n  pop\n    /* \"#utility.yul\":8625:9512   */\ntag_154:\n  pop\n    /* \"#utility.yul\":8215:9518   */\n  pop\n  pop\n  pop\n    /* \"#utility.yul\":8123:9518   */\n  pop\n  pop\n  jump\t// out\n    /* \"Subject/ERC-20_subject.sol\":252:4515  contract FirstToken is ERC20{... */\ntag_11:\n  dataSize(sub_0)\n  dup1\n  dataOffset(sub_0)\n  0x00\n  codecopy\n  0x00\n  return\nstop\n\nsub_0: assembly {\n        /* \"Subject/ERC-20_subject.sol\":252:4515  contract FirstToken is ERC20{... */\n      mstore(0x40, 0x80)\n      jumpi(tag_1, lt(calldatasize, 0x04))\n      shr(0xe0, calldataload(0x00))\n      dup1\n      0x97611638\n      gt\n      tag_24\n      jumpi\n      dup1\n      0xa9059cbb\n      gt\n      tag_25\n      jumpi\n      dup1\n      0xa9059cbb\n      eq\n      tag_18\n      jumpi\n      dup1\n      0xb53e5dba\n      eq\n      tag_19\n      jumpi\n      dup1\n      0xcce3061c\n      eq\n      tag_20\n      jumpi\n      dup1\n      0xdab5f340\n      eq\n      tag_21\n      jumpi\n      dup1\n      0xdd62ed3e\n      eq\n      tag_22\n      jumpi\n      dup1\n      0xebf0c717\n      eq\n      tag_23\n      jumpi\n      jump(tag_1)\n    tag_25:\n      dup1\n      0x97611638\n      eq\n      tag_13\n      jumpi\n      dup1\n      0x9dc29fac\n      eq\n      tag_14\n      jumpi\n      dup1\n      0xa0712d68\n      eq\n      tag_15\n      jumpi\n      dup1\n      0xa457c2d7\n      eq\n      tag_16\n      jumpi\n      dup1\n      0xa7b0d36f\n      eq\n      tag_17\n      jumpi\n      jump(tag_1)\n    tag_24:\n      dup1\n      0x39509351\n      gt\n      tag_26\n      jumpi\n      dup1\n      0x39509351\n      eq\n      tag_7\n      jumpi\n      dup1\n      0x4ec319cf\n      eq\n      tag_8\n      jumpi\n      dup1\n      0x5d82cf6e\n      eq\n      tag_9\n      jumpi\n      dup1\n      0x70a08231\n      eq\n      tag_10\n      jumpi\n      dup1\n      0x868ff4a2\n      eq\n      tag_11\n      jumpi\n      dup1\n      0x95d89b41\n      eq\n      tag_12\n      jumpi\n      jump(tag_1)\n    tag_26:\n      dup1\n      0x06fdde03\n      eq\n      tag_2\n      jumpi\n      dup1\n      0x095ea7b3\n      eq\n      tag_3\n      jumpi\n      dup1\n      0x18160ddd\n      eq\n      tag_4\n      jumpi\n      dup1\n      0x23b872dd\n      eq\n      tag_5\n      jumpi\n      dup1\n      0x313ce567\n      eq\n      tag_6\n      jumpi\n    tag_1:\n      0x00\n      dup1\n      revert\n        /* \"@openzeppelin/contracts/token/ERC20/ERC20.sol\":2154:2252  function name() public view virtual override returns (string memory) {... */\n    tag_2:\n      callvalue\n      dup1\n      iszero\n      tag_27\n      jumpi\n      0x00\n      dup1\n      revert\n    tag_27:\n      pop\n      tag_28\n      tag_29\n      jump\t// in\n    tag_28:\n      mload(0x40)\n      tag_30\n      swap2\n      swap1\n      tag_31\n      jump\t// in\n    tag_30:\n      mload(0x40)\n      dup1\n      swap2\n      sub\n      swap1\n      return\n        /* \"@openzeppelin/contracts/token/ERC20/ERC20.sol\":4431:4628  function approve(address spender, uint256 amount) public virtual override returns (bool) {... */\n    tag_3:\n      callvalue\n      dup1\n      iszero\n      tag_32\n      jumpi\n      0x00\n      dup1\n      revert\n    tag_32:\n      pop\n      tag_33\n      0x04\n      dup1\n      calldatasize\n      sub\n      dup2\n      add\n      swap1\n      tag_34\n      swap2\n      swap1\n      tag_35\n      jump\t// in\n    tag_34:\n      tag_36\n      jump\t// in\n    tag_33:\n      mload(0x40)\n      tag_37\n      swap2\n      swap1\n      tag_38\n      jump\t// in\n    tag_37:\n      mload(0x40)\n      dup1\n      swap2\n      sub\n      swap1\n      return\n        /* \"@openzeppelin/contracts/token/ERC20/ERC20.sol\":3242:3348  function totalSupply() public view virtual override returns (uint256) {... */\n    tag_4:\n      callvalue\n      dup1\n      iszero\n      tag_39\n      jumpi\n      0x00\n      dup1\n      revert\n    tag_39:\n      pop\n      tag_40\n      tag_41\n      jump\t// in\n    tag_40:\n      mload(0x40)\n      tag_42\n      swap2\n      swap1\n      tag_43\n      jump\t// in\n    tag_42:\n      mload(0x40)\n      dup1\n      swap2\n      sub\n      swap1\n      return\n        /* \"@openzeppelin/contracts/token/ERC20/ERC20.sol\":5190:5476  function transferFrom(... */\n    tag_5:\n      callvalue\n      dup1\n      iszero\n      tag_44\n      jumpi\n      0x00\n      dup1\n      revert\n    tag_44:\n      pop\n      tag_45\n      0x04\n      dup1\n      calldatasize\n      sub\n      dup2\n      add\n      swap1\n      tag_46\n      swap2\n      swap1\n      tag_47\n      jump\t// in\n    tag_46:\n      tag_48\n      jump\t// in\n    tag_45:\n      mload(0x40)\n      tag_49\n      swap2\n      swap1\n      tag_38\n      jump\t// in\n    tag_49:\n      mload(0x40)\n      dup1\n      swap2\n      sub\n      swap1\n      return\n        /* \"Subject/ERC-20_subject.sol\":1426:1518  function decimals() public view override returns (uint8) {... */\n    tag_6:\n      callvalue\n      dup1\n      iszero\n      tag_50\n      jumpi\n      0x00\n      dup1\n      revert\n    tag_50:\n      pop\n      tag_51\n      tag_52\n      jump\t// in\n    tag_51:\n      mload(0x40)\n      tag_53\n      swap2\n      swap1\n      tag_54\n      jump\t// in\n    tag_53:\n      mload(0x40)\n      dup1\n      swap2\n      sub\n      swap1\n      return\n        /* \"@openzeppelin/contracts/token/ERC20/ERC20.sol\":5871:6105  function increaseAllowance(address spender, uint256 addedValue) public virtual returns (bool) {... */\n    tag_7:\n      callvalue\n      dup1\n      iszero\n      tag_55\n      jumpi\n      0x00\n      dup1\n      revert\n    tag_55:\n      pop\n      tag_56\n      0x04\n      dup1\n      calldatasize\n      sub\n      dup2\n      add\n      swap1\n      tag_57\n      swap2\n      swap1\n      tag_35\n      jump\t// in\n    tag_57:\n      tag_58\n      jump\t// in\n    tag_56:\n      mload(0x40)\n      tag_59\n      swap2\n      swap1\n      tag_38\n      jump\t// in\n    tag_59:\n      mload(0x40)\n      dup1\n      swap2\n      sub\n      swap1\n      return\n        /* \"Subject/ERC-20_subject.sol\":2323:2489  function SetWhitelistMaxNumberofToken(uint256 _WhitelistMaxNumberofToken) external onlyOwner {... */\n    tag_8:\n      callvalue\n      dup1\n      iszero\n      tag_60\n      jumpi\n      0x00\n      dup1\n      revert\n    tag_60:\n      pop\n      tag_61\n      0x04\n      dup1\n      calldatasize\n      sub\n      dup2\n      add\n      swap1\n      tag_62\n      swap2\n      swap1\n      tag_63\n      jump\t// in\n    tag_62:\n      tag_64\n      jump\t// in\n    tag_61:\n      stop\n        /* \"Subject/ERC-20_subject.sol\":2916:3042  function setPublicMintPrice(uint256 _PublicMintPrice) external onlyOwner {... */\n    tag_9:\n      callvalue\n      dup1\n      iszero\n      tag_65\n      jumpi\n      0x00\n      dup1\n      revert\n    tag_65:\n      pop\n      tag_66\n      0x04\n      dup1\n      calldatasize\n      sub\n      dup2\n      add\n      swap1\n      tag_67\n      swap2\n      swap1\n      tag_63\n      jump\t// in\n    tag_67:\n      tag_68\n      jump\t// in\n    tag_66:\n      stop\n        /* \"@openzeppelin/contracts/token/ERC20/ERC20.sol\":3406:3531  function balanceOf(address account) public view virtual override returns (uint256) {... */\n    tag_10:\n      callvalue\n      dup1\n      iszero\n      tag_69\n      jumpi\n      0x00\n      dup1\n      revert\n    tag_69:\n      pop\n      tag_70\n      0x04\n      dup1\n      calldatasize\n      sub\n      dup2\n      add\n      swap1\n      tag_71\n      swap2\n      swap1\n      tag_72\n      jump\t// in\n    tag_71:\n      tag_73\n      jump\t// in\n    tag_70:\n      mload(0x40)\n      tag_74\n      swap2\n      swap1\n      tag_43\n      jump\t// in\n    tag_74:\n      mload(0x40)\n      dup1\n      swap2\n      sub\n      swap1\n      return\n        /* \"Subject/ERC-20_subject.sol\":3569:4181  function whitelistMint(uint256 AmountofWhitelistToken) external payable TokenLimit{ ... */\n    tag_11:\n      tag_75\n      0x04\n      dup1\n      calldatasize\n      sub\n      dup2\n      add\n      swap1\n      tag_76\n      swap2\n      swap1\n      tag_63\n      jump\t// in\n    tag_76:\n      tag_77\n      jump\t// in\n    tag_75:\n      stop\n        /* \"@openzeppelin/contracts/token/ERC20/ERC20.sol\":2365:2467  function symbol() public view virtual override returns (string memory) {... */\n    tag_12:\n      callvalue\n      dup1\n      iszero\n      tag_78\n      jumpi\n      0x00\n      dup1\n      revert\n    tag_78:\n      pop\n      tag_79\n      tag_80\n      jump\t// in\n    tag_79:\n      mload(0x40)\n      tag_81\n      swap2\n      swap1\n      tag_31\n      jump\t// in\n    tag_81:\n      mload(0x40)\n      dup1\n      swap2\n      sub\n      swap1\n      return\n        /* \"Subject/ERC-20_subject.sol\":4189:4366  function verify(bytes32[] memory proof) external view returns (bool) {... */\n    tag_13:\n      callvalue\n      dup1\n      iszero\n      tag_82\n      jumpi\n      0x00\n      dup1\n      revert\n    tag_82:\n      pop\n      tag_83\n      0x04\n      dup1\n      calldatasize\n      sub\n      dup2\n      add\n      swap1\n      tag_84\n      swap2\n      swap1\n      tag_85\n      jump\t// in\n    tag_84:\n      tag_86\n      jump\t// in\n    tag_83:\n      mload(0x40)\n      tag_87\n      swap2\n      swap1\n      tag_38\n      jump\t// in\n    tag_87:\n      mload(0x40)\n      dup1\n      swap2\n      sub\n      swap1\n      return\n        /* \"Subject/ERC-20_subject.sol\":2163:2276  function burn(address from, uint256 amount) external onlyOwner TokenLimit {... */\n    tag_14:\n      callvalue\n      dup1\n      iszero\n      tag_88\n      jumpi\n      0x00\n      dup1\n      revert\n    tag_88:\n      pop\n      tag_89\n      0x04\n      dup1\n      calldatasize\n      sub\n      dup2\n      add\n      swap1\n      tag_90\n      swap2\n      swap1\n      tag_35\n      jump\t// in\n    tag_90:\n      tag_91\n      jump\t// in\n    tag_89:\n      stop\n        /* \"Subject/ERC-20_subject.sol\":1550:2111  function mint(uint256 AmountofPublicToken) external onlyOwner TokenLimit payable{... */\n    tag_15:\n      tag_92\n      0x04\n      dup1\n      calldatasize\n      sub\n      dup2\n      add\n      swap1\n      tag_93\n      swap2\n      swap1\n      tag_63\n      jump\t// in\n    tag_93:\n      tag_94\n      jump\t// in\n    tag_92:\n      stop\n        /* \"@openzeppelin/contracts/token/ERC20/ERC20.sol\":6592:7019  function decreaseAllowance(address spender, uint256 subtractedValue) public virtual returns (bool) {... */\n    tag_16:\n      callvalue\n      dup1\n      iszero\n      tag_95\n      jumpi\n      0x00\n      dup1\n      revert\n    tag_95:\n      pop\n      tag_96\n      0x04\n      dup1\n      calldatasize\n      sub\n      dup2\n      add\n      swap1\n      tag_97\n      swap2\n      swap1\n      tag_35\n      jump\t// in\n    tag_97:\n      tag_98\n      jump\t// in\n    tag_96:\n      mload(0x40)\n      tag_99\n      swap2\n      swap1\n      tag_38\n      jump\t// in\n    tag_99:\n      mload(0x40)\n      dup1\n      swap2\n      sub\n      swap1\n      return\n        /* \"Subject/ERC-20_subject.sol\":2734:2872  function SetWhitelistMintPrice(uint256 _WhitelistMintPrice) external onlyOwner {... */\n    tag_17:\n      callvalue\n      dup1\n      iszero\n      tag_100\n      jumpi\n      0x00\n      dup1\n      revert\n    tag_100:\n      pop\n      tag_101\n      0x04\n      dup1\n      calldatasize\n      sub\n      dup2\n      add\n      swap1\n      tag_102\n      swap2\n      swap1\n      tag_63\n      jump\t// in\n    tag_102:\n      tag_103\n      jump\t// in\n    tag_101:\n      stop\n        /* \"@openzeppelin/contracts/token/ERC20/ERC20.sol\":3727:3916  function transfer(address to, uint256 amount) public virtual override returns (bool) {... */\n    tag_18:\n      callvalue\n      dup1\n      iszero\n      tag_104\n      jumpi\n      0x00\n      dup1\n      revert\n    tag_104:\n      pop\n      tag_105\n      0x04\n      dup1\n      calldatasize\n      sub\n      dup2\n      add\n      swap1\n      tag_106\n      swap2\n      swap1\n      tag_35\n      jump\t// in\n    tag_106:\n      tag_107\n      jump\t// in\n    tag_105:\n      mload(0x40)\n      tag_108\n      swap2\n      swap1\n      tag_38\n      jump\t// in\n    tag_108:\n      mload(0x40)\n      dup1\n      swap2\n      sub\n      swap1\n      return\n        /* \"Subject/ERC-20_subject.sol\":3340:3469  function CheckwhitelistMint(bytes32[] calldata _proof) external verifyProof(_proof) {... */\n    tag_19:\n      callvalue\n      dup1\n      iszero\n      tag_109\n      jumpi\n      0x00\n      dup1\n      revert\n    tag_109:\n      pop\n      tag_110\n      0x04\n      dup1\n      calldatasize\n      sub\n      dup2\n      add\n      swap1\n      tag_111\n      swap2\n      swap1\n      tag_112\n      jump\t// in\n    tag_111:\n      tag_113\n      jump\t// in\n    tag_110:\n      stop\n        /* \"Subject/ERC-20_subject.sol\":2533:2687  function SetPublicMaxNumberofToken(uint256 _PublicMaxNumberofToken) external onlyOwner {... */\n    tag_20:\n      callvalue\n      dup1\n      iszero\n      tag_114\n      jumpi\n      0x00\n      dup1\n      revert\n    tag_114:\n      pop\n      tag_115\n      0x04\n      dup1\n      calldatasize\n      sub\n      dup2\n      add\n      swap1\n      tag_116\n      swap2\n      swap1\n      tag_63\n      jump\t// in\n    tag_116:\n      tag_117\n      jump\t// in\n    tag_115:\n      stop\n        /* \"Subject/ERC-20_subject.sol\":4374:4512  function setRoot(bytes32 _root) external {... */\n    tag_21:\n      callvalue\n      dup1\n      iszero\n      tag_118\n      jumpi\n      0x00\n      dup1\n      revert\n    tag_118:\n      pop\n      tag_119\n      0x04\n      dup1\n      calldatasize\n      sub\n      dup2\n      add\n      swap1\n      tag_120\n      swap2\n      swap1\n      tag_121\n      jump\t// in\n    tag_120:\n      tag_122\n      jump\t// in\n    tag_119:\n      stop\n        /* \"@openzeppelin/contracts/token/ERC20/ERC20.sol\":3974:4123  function allowance(address owner, address spender) public view virtual override returns (uint256) {... */\n    tag_22:\n      callvalue\n      dup1\n      iszero\n      tag_123\n      jumpi\n      0x00\n      dup1\n      revert\n    tag_123:\n      pop\n      tag_124\n      0x04\n      dup1\n      calldatasize\n      sub\n      dup2\n      add\n      swap1\n      tag_125\n      swap2\n      swap1\n      tag_126\n      jump\t// in\n    tag_125:\n      tag_127\n      jump\t// in\n    tag_124:\n      mload(0x40)\n      tag_128\n      swap2\n      swap1\n      tag_43\n      jump\t// in\n    tag_128:\n      mload(0x40)\n      dup1\n      swap2\n      sub\n      swap1\n      return\n        /* \"Subject/ERC-20_subject.sol\":289:308  bytes32 public root */\n    tag_23:\n      callvalue\n      dup1\n      iszero\n      tag_129\n      jumpi\n      0x00\n      dup1\n      revert\n    tag_129:\n      pop\n      tag_130\n      tag_131\n      jump\t// in\n    tag_130:\n      mload(0x40)\n      tag_132\n      swap2\n      swap1\n      tag_133\n      jump\t// in\n    tag_132:\n      mload(0x40)\n      dup1\n      swap2\n      sub\n      swap1\n      return\n        /* \"@openzeppelin/contracts/token/ERC20/ERC20.sol\":2154:2252  function name() public view virtual override returns (string memory) {... */\n    tag_29:\n        /* \"@openzeppelin/contracts/token/ERC20/ERC20.sol\":2208:2221  string memory */\n      0x60\n        /* \"@openzeppelin/contracts/token/ERC20/ERC20.sol\":2240:2245  _name */\n      0x03\n        /* \"@openzeppelin/contracts/token/ERC20/ERC20.sol\":2233:2245  return _name */\n      dup1\n      sload\n      tag_135\n      swap1\n      tag_136\n      jump\t// in\n    tag_135:\n      dup1\n      0x1f\n      add\n      0x20\n      dup1\n      swap2\n      div\n      mul\n      0x20\n      add\n      mload(0x40)\n      swap1\n      dup2\n      add\n      0x40\n      mstore\n      dup1\n      swap3\n      swap2\n      swap1\n      dup2\n      dup2\n      mstore\n      0x20\n      add\n      dup3\n      dup1\n      sload\n      tag_137\n      swap1\n      tag_136\n      jump\t// in\n    tag_137:\n      dup1\n      iszero\n      tag_138\n      jumpi\n      dup1\n      0x1f\n      lt\n      tag_139\n      jumpi\n      0x0100\n      dup1\n      dup4\n      sload\n      div\n      mul\n      dup4\n      mstore\n      swap2\n      0x20\n      add\n      swap2\n      jump(tag_138)\n    tag_139:\n      dup3\n      add\n      swap2\n      swap1\n      0x00\n      mstore\n      keccak256(0x00, 0x20)\n      swap1\n    tag_140:\n      dup2\n      sload\n      dup2\n      mstore\n      swap1\n      0x01\n      add\n      swap1\n      0x20\n      add\n      dup1\n      dup4\n      gt\n      tag_140\n      jumpi\n      dup3\n      swap1\n      sub\n      0x1f\n      and\n      dup3\n      add\n      swap2\n    tag_138:\n      pop\n      pop\n      pop\n      pop\n      pop\n      swap1\n      pop\n        /* \"@openzeppelin/contracts/token/ERC20/ERC20.sol\":2154:2252  function name() public view virtual override returns (string memory) {... */\n      swap1\n      jump\t// out\n        /* \"@openzeppelin/contracts/token/ERC20/ERC20.sol\":4431:4628  function approve(address spender, uint256 amount) public virtual override returns (bool) {... */\n    tag_36:\n        /* \"@openzeppelin/contracts/token/ERC20/ERC20.sol\":4514:4518  bool */\n      0x00\n        /* \"@openzeppelin/contracts/token/ERC20/ERC20.sol\":4530:4543  address owner */\n      dup1\n        /* \"@openzeppelin/contracts/token/ERC20/ERC20.sol\":4546:4558  _msgSender() */\n      tag_142\n        /* \"@openzeppelin/contracts/token/ERC20/ERC20.sol\":4546:4556  _msgSender */\n      tag_143\n        /* \"@openzeppelin/contracts/token/ERC20/ERC20.sol\":4546:4558  _msgSender() */\n      jump\t// in\n    tag_142:\n        /* \"@openzeppelin/contracts/token/ERC20/ERC20.sol\":4530:4558  address owner = _msgSender() */\n      swap1\n      pop\n        /* \"@openzeppelin/contracts/token/ERC20/ERC20.sol\":4568:4600  _approve(owner, spender, amount) */\n      tag_144\n        /* \"@openzeppelin/contracts/token/ERC20/ERC20.sol\":4577:4582  owner */\n      dup2\n        /* \"@openzeppelin/contracts/token/ERC20/ERC20.sol\":4584:4591  spender */\n      dup6\n        /* \"@openzeppelin/contracts/token/ERC20/ERC20.sol\":4593:4599  amount */\n      dup6\n        /* \"@openzeppelin/contracts/token/ERC20/ERC20.sol\":4568:4576  _approve */\n      tag_145\n        /* \"@openzeppelin/contracts/token/ERC20/ERC20.sol\":4568:4600  _approve(owner, spender, amount) */\n      jump\t// in\n    tag_144:\n        /* \"@openzeppelin/contracts/token/ERC20/ERC20.sol\":4617:4621  true */\n      0x01\n        /* \"@openzeppelin/contracts/token/ERC20/ERC20.sol\":4610:4621  return true */\n      swap2\n      pop\n      pop\n        /* \"@openzeppelin/contracts/token/ERC20/ERC20.sol\":4431:4628  function approve(address spender, uint256 amount) public virtual override returns (bool) {... */\n      swap3\n      swap2\n      pop\n      pop\n      jump\t// out\n        /* \"@openzeppelin/contracts/token/ERC20/ERC20.sol\":3242:3348  function totalSupply() public view virtual override returns (uint256) {... */\n    tag_41:\n        /* \"@openzeppelin/contracts/token/ERC20/ERC20.sol\":3303:3310  uint256 */\n      0x00\n        /* \"@openzeppelin/contracts/token/ERC20/ERC20.sol\":3329:3341  _totalSupply */\n      sload(0x02)\n        /* \"@openzeppelin/contracts/token/ERC20/ERC20.sol\":3322:3341  return _totalSupply */\n      swap1\n      pop\n        /* \"@openzeppelin/contracts/token/ERC20/ERC20.sol\":3242:3348  function totalSupply() public view virtual override returns (uint256) {... */\n      swap1\n      jump\t// out\n        /* \"@openzeppelin/contracts/token/ERC20/ERC20.sol\":5190:5476  function transferFrom(... */\n    tag_48:\n        /* \"@openzeppelin/contracts/token/ERC20/ERC20.sol\":5317:5321  bool */\n      0x00\n        /* \"@openzeppelin/contracts/token/ERC20/ERC20.sol\":5333:5348  address spender */\n      dup1\n        /* \"@openzeppelin/contracts/token/ERC20/ERC20.sol\":5351:5363  _msgSender() */\n      tag_148\n        /* \"@openzeppelin/contracts/token/ERC20/ERC20.sol\":5351:5361  _msgSender */\n      tag_143\n        /* \"@openzeppelin/contracts/token/ERC20/ERC20.sol\":5351:5363  _msgSender() */\n      jump\t// in\n    tag_148:\n        /* \"@openzeppelin/contracts/token/ERC20/ERC20.sol\":5333:5363  address spender = _msgSender() */\n      swap1\n      pop\n        /* \"@openzeppelin/contracts/token/ERC20/ERC20.sol\":5373:5411  _spendAllowance(from, spender, amount) */\n      tag_149\n        /* \"@openzeppelin/contracts/token/ERC20/ERC20.sol\":5389:5393  from */\n      dup6\n        /* \"@openzeppelin/contracts/token/ERC20/ERC20.sol\":5395:5402  spender */\n      dup3\n        /* \"@openzeppelin/contracts/token/ERC20/ERC20.sol\":5404:5410  amount */\n      dup6\n        /* \"@openzeppelin/contracts/token/ERC20/ERC20.sol\":5373:5388  _spendAllowance */\n      tag_150\n        /* \"@openzeppelin/contracts/token/ERC20/ERC20.sol\":5373:5411  _spendAllowance(from, spender, amount) */\n      jump\t// in\n    tag_149:\n        /* \"@openzeppelin/contracts/token/ERC20/ERC20.sol\":5421:5448  _transfer(from, to, amount) */\n      tag_151\n        /* \"@openzeppelin/contracts/token/ERC20/ERC20.sol\":5431:5435  from */\n      dup6\n        /* \"@openzeppelin/contracts/token/ERC20/ERC20.sol\":5437:5439  to */\n      dup6\n        /* \"@openzeppelin/contracts/token/ERC20/ERC20.sol\":5441:5447  amount */\n      dup6\n        /* \"@openzeppelin/contracts/token/ERC20/ERC20.sol\":5421:5430  _transfer */\n      tag_152\n        /* \"@openzeppelin/contracts/token/ERC20/ERC20.sol\":5421:5448  _transfer(from, to, amount) */\n      jump\t// in\n    tag_151:\n        /* \"@openzeppelin/contracts/token/ERC20/ERC20.sol\":5465:5469  true */\n      0x01\n        /* \"@openzeppelin/contracts/token/ERC20/ERC20.sol\":5458:5469  return true */\n      swap2\n      pop\n      pop\n        /* \"@openzeppelin/contracts/token/ERC20/ERC20.sol\":5190:5476  function transferFrom(... */\n      swap4\n      swap3\n      pop\n      pop\n      pop\n      jump\t// out\n        /* \"Subject/ERC-20_subject.sol\":1426:1518  function decimals() public view override returns (uint8) {... */\n    tag_52:\n        /* \"Subject/ERC-20_subject.sol\":1476:1481  uint8 */\n      0x00\n        /* \"Subject/ERC-20_subject.sol\":1501:1510  decimals_ */\n      0x06\n      0x14\n      swap1\n      sload\n      swap1\n      0x0100\n      exp\n      swap1\n      div\n      0xff\n      and\n        /* \"Subject/ERC-20_subject.sol\":1494:1510  return decimals_ */\n      swap1\n      pop\n        /* \"Subject/ERC-20_subject.sol\":1426:1518  function decimals() public view override returns (uint8) {... */\n      swap1\n      jump\t// out\n        /* \"@openzeppelin/contracts/token/ERC20/ERC20.sol\":5871:6105  function increaseAllowance(address spender, uint256 addedValue) public virtual returns (bool) {... */\n    tag_58:\n        /* \"@openzeppelin/contracts/token/ERC20/ERC20.sol\":5959:5963  bool */\n      0x00\n        /* \"@openzeppelin/contracts/token/ERC20/ERC20.sol\":5975:5988  address owner */\n      dup1\n        /* \"@openzeppelin/contracts/token/ERC20/ERC20.sol\":5991:6003  _msgSender() */\n      tag_155\n        /* \"@openzeppelin/contracts/token/ERC20/ERC20.sol\":5991:6001  _msgSender */\n      tag_143\n        /* \"@openzeppelin/contracts/token/ERC20/ERC20.sol\":5991:6003  _msgSender() */\n      jump\t// in\n    tag_155:\n        /* \"@openzeppelin/contracts/token/ERC20/ERC20.sol\":5975:6003  address owner = _msgSender() */\n      swap1\n      pop\n        /* \"@openzeppelin/contracts/token/ERC20/ERC20.sol\":6013:6077  _approve(owner, spender, allowance(owner, spender) + addedValue) */\n      tag_156\n        /* \"@openzeppelin/contracts/token/ERC20/ERC20.sol\":6022:6027  owner */\n      dup2\n        /* \"@openzeppelin/contracts/token/ERC20/ERC20.sol\":6029:6036  spender */\n      dup6\n        /* \"@openzeppelin/contracts/token/ERC20/ERC20.sol\":6066:6076  addedValue */\n      dup6\n        /* \"@openzeppelin/contracts/token/ERC20/ERC20.sol\":6038:6063  allowance(owner, spender) */\n      tag_157\n        /* \"@openzeppelin/contracts/token/ERC20/ERC20.sol\":6048:6053  owner */\n      dup6\n        /* \"@openzeppelin/contracts/token/ERC20/ERC20.sol\":6055:6062  spender */\n      dup10\n        /* \"@openzeppelin/contracts/token/ERC20/ERC20.sol\":6038:6047  allowance */\n      tag_127\n        /* \"@openzeppelin/contracts/token/ERC20/ERC20.sol\":6038:6063  allowance(owner, spender) */\n      jump\t// in\n    tag_157:\n        /* \"@openzeppelin/contracts/token/ERC20/ERC20.sol\":6038:6076  allowance(owner, spender) + addedValue */\n      tag_158\n      swap2\n      swap1\n      tag_159\n      jump\t// in\n    tag_158:\n        /* \"@openzeppelin/contracts/token/ERC20/ERC20.sol\":6013:6021  _approve */\n      tag_145\n        /* \"@openzeppelin/contracts/token/ERC20/ERC20.sol\":6013:6077  _approve(owner, spender, allowance(owner, spender) + addedValue) */\n      jump\t// in\n    tag_156:\n        /* \"@openzeppelin/contracts/token/ERC20/ERC20.sol\":6094:6098  true */\n      0x01\n        /* \"@openzeppelin/contracts/token/ERC20/ERC20.sol\":6087:6098  return true */\n      swap2\n      pop\n      pop\n        /* \"@openzeppelin/contracts/token/ERC20/ERC20.sol\":5871:6105  function increaseAllowance(address spender, uint256 addedValue) public virtual returns (bool) {... */\n      swap3\n      swap2\n      pop\n      pop\n      jump\t// out\n        /* \"Subject/ERC-20_subject.sol\":2323:2489  function SetWhitelistMaxNumberofToken(uint256 _WhitelistMaxNumberofToken) external onlyOwner {... */\n    tag_64:\n        /* \"Subject/ERC-20_subject.sol\":1173:1178  Owner */\n      0x06\n      0x00\n      swap1\n      sload\n      swap1\n      0x0100\n      exp\n      swap1\n      div\n      0xffffffffffffffffffffffffffffffffffffffff\n      and\n        /* \"Subject/ERC-20_subject.sol\":1159:1178  msg.sender == Owner */\n      0xffffffffffffffffffffffffffffffffffffffff\n      and\n        /* \"Subject/ERC-20_subject.sol\":1159:1169  msg.sender */\n      caller\n        /* \"Subject/ERC-20_subject.sol\":1159:1178  msg.sender == Owner */\n      0xffffffffffffffffffffffffffffffffffffffff\n      and\n      eq\n        /* \"Subject/ERC-20_subject.sol\":1150:1216  require( msg.sender == Owner ,\"This function only owner can use.\") */\n      tag_161\n      jumpi\n      mload(0x40)\n      0x08c379a000000000000000000000000000000000000000000000000000000000\n      dup2\n      mstore\n      0x04\n      add\n      tag_162\n      swap1\n      tag_163\n      jump\t// in\n    tag_162:\n      mload(0x40)\n      dup1\n      swap2\n      sub\n      swap1\n      revert\n    tag_161:\n        /* \"Subject/ERC-20_subject.sol\":2455:2481  _WhitelistMaxNumberofToken */\n      dup1\n        /* \"Subject/ERC-20_subject.sol\":2427:2452  WhitelistMaxNumberofToken */\n      0x09\n        /* \"Subject/ERC-20_subject.sol\":2427:2481  WhitelistMaxNumberofToken = _WhitelistMaxNumberofToken */\n      dup2\n      swap1\n      sstore\n      pop\n        /* \"Subject/ERC-20_subject.sol\":2323:2489  function SetWhitelistMaxNumberofToken(uint256 _WhitelistMaxNumberofToken) external onlyOwner {... */\n      pop\n      jump\t// out\n        /* \"Subject/ERC-20_subject.sol\":2916:3042  function setPublicMintPrice(uint256 _PublicMintPrice) external onlyOwner {... */\n    tag_68:\n        /* \"Subject/ERC-20_subject.sol\":1173:1178  Owner */\n      0x06\n      0x00\n      swap1\n      sload\n      swap1\n      0x0100\n      exp\n      swap1\n      div\n      0xffffffffffffffffffffffffffffffffffffffff\n      and\n        /* \"Subject/ERC-20_subject.sol\":1159:1178  msg.sender == Owner */\n      0xffffffffffffffffffffffffffffffffffffffff\n      and\n        /* \"Subject/ERC-20_subject.sol\":1159:1169  msg.sender */\n      caller\n        /* \"Subject/ERC-20_subject.sol\":1159:1178  msg.sender == Owner */\n      0xffffffffffffffffffffffffffffffffffffffff\n      and\n      eq\n        /* \"Subject/ERC-20_subject.sol\":1150:1216  require( msg.sender == Owner ,\"This function only owner can use.\") */\n      tag_166\n      jumpi\n      mload(0x40)\n      0x08c379a000000000000000000000000000000000000000000000000000000000\n      dup2\n      mstore\n      0x04\n      add\n      tag_167\n      swap1\n      tag_163\n      jump\t// in\n    tag_167:\n      mload(0x40)\n      dup1\n      swap2\n      sub\n      swap1\n      revert\n    tag_166:\n        /* \"Subject/ERC-20_subject.sol\":3018:3034  _PublicMintPrice */\n      dup1\n        /* \"Subject/ERC-20_subject.sol\":3000:3015  PublicMintPrice */\n      0x0c\n        /* \"Subject/ERC-20_subject.sol\":3000:3034  PublicMintPrice = _PublicMintPrice */\n      dup2\n      swap1\n      sstore\n      pop\n        /* \"Subject/ERC-20_subject.sol\":2916:3042  function setPublicMintPrice(uint256 _PublicMintPrice) external onlyOwner {... */\n      pop\n      jump\t// out\n        /* \"@openzeppelin/contracts/token/ERC20/ERC20.sol\":3406:3531  function balanceOf(address account) public view virtual override returns (uint256) {... */\n    tag_73:\n        /* \"@openzeppelin/contracts/token/ERC20/ERC20.sol\":3480:3487  uint256 */\n      0x00\n        /* \"@openzeppelin/contracts/token/ERC20/ERC20.sol\":3506:3515  _balances */\n      dup1\n        /* \"@openzeppelin/contracts/token/ERC20/ERC20.sol\":3506:3524  _balances[account] */\n      0x00\n        /* \"@openzeppelin/contracts/token/ERC20/ERC20.sol\":3516:3523  account */\n      dup4\n        /* \"@openzeppelin/contracts/token/ERC20/ERC20.sol\":3506:3524  _balances[account] */\n      0xffffffffffffffffffffffffffffffffffffffff\n      and\n      0xffffffffffffffffffffffffffffffffffffffff\n      and\n      dup2\n      mstore\n      0x20\n      add\n      swap1\n      dup2\n      mstore\n      0x20\n      add\n      0x00\n      keccak256\n      sload\n        /* \"@openzeppelin/contracts/token/ERC20/ERC20.sol\":3499:3524  return _balances[account] */\n      swap1\n      pop\n        /* \"@openzeppelin/contracts/token/ERC20/ERC20.sol\":3406:3531  function balanceOf(address account) public view virtual override returns (uint256) {... */\n      swap2\n      swap1\n      pop\n      jump\t// out\n        /* \"Subject/ERC-20_subject.sol\":3569:4181  function whitelistMint(uint256 AmountofWhitelistToken) external payable TokenLimit{ ... */\n    tag_77:\n        /* \"Subject/ERC-20_subject.sol\":1328:1340  _totalSupply */\n      sload(0x07)\n        /* \"Subject/ERC-20_subject.sol\":1307:1324  _TokentotalSupply */\n      sload(0x08)\n        /* \"Subject/ERC-20_subject.sol\":1307:1340  _TokentotalSupply >= _totalSupply */\n      lt\n      iszero\n        /* \"Subject/ERC-20_subject.sol\":1299:1369  require(_TokentotalSupply >= _totalSupply , \"It's over Token limit!!\") */\n      tag_171\n      jumpi\n      mload(0x40)\n      0x08c379a000000000000000000000000000000000000000000000000000000000\n      dup2\n      mstore\n      0x04\n      add\n      tag_172\n      swap1\n      tag_173\n      jump\t// in\n    tag_172:\n      mload(0x40)\n      dup1\n      swap2\n      sub\n      swap1\n      revert\n    tag_171:\n        /* \"Subject/ERC-20_subject.sol\":3696:3700  true */\n      0x01\n        /* \"Subject/ERC-20_subject.sol\":3671:3700  Whitelist[msg.sender] == true */\n      iszero\n      iszero\n        /* \"Subject/ERC-20_subject.sol\":3671:3680  Whitelist */\n      0x0d\n        /* \"Subject/ERC-20_subject.sol\":3671:3692  Whitelist[msg.sender] */\n      0x00\n        /* \"Subject/ERC-20_subject.sol\":3681:3691  msg.sender */\n      caller\n        /* \"Subject/ERC-20_subject.sol\":3671:3692  Whitelist[msg.sender] */\n      0xffffffffffffffffffffffffffffffffffffffff\n      and\n      0xffffffffffffffffffffffffffffffffffffffff\n      and\n      dup2\n      mstore\n      0x20\n      add\n      swap1\n      dup2\n      mstore\n      0x20\n      add\n      0x00\n      keccak256\n      0x00\n      swap1\n      sload\n      swap1\n      0x0100\n      exp\n      swap1\n      div\n      0xff\n      and\n        /* \"Subject/ERC-20_subject.sol\":3671:3700  Whitelist[msg.sender] == true */\n      iszero\n      iszero\n      eq\n        /* \"Subject/ERC-20_subject.sol\":3663:3739  require(Whitelist[msg.sender] == true , \"Your address is not in Whitelist~\") */\n      tag_175\n      jumpi\n      mload(0x40)\n      0x08c379a000000000000000000000000000000000000000000000000000000000\n      dup2\n      mstore\n      0x04\n      add\n      tag_176\n      swap1\n      tag_177\n      jump\t// in\n    tag_176:\n      mload(0x40)\n      dup1\n      swap2\n      sub\n      swap1\n      revert\n    tag_175:\n        /* \"Subject/ERC-20_subject.sol\":3828:3846  WhitelistMintPrice */\n      sload(0x0b)\n        /* \"Subject/ERC-20_subject.sol\":3803:3825  AmountofWhitelistToken */\n      dup2\n        /* \"Subject/ERC-20_subject.sol\":3803:3846  AmountofWhitelistToken * WhitelistMintPrice */\n      tag_178\n      swap2\n      swap1\n      tag_179\n      jump\t// in\n    tag_178:\n        /* \"Subject/ERC-20_subject.sol\":3790:3799  msg.value */\n      callvalue\n        /* \"Subject/ERC-20_subject.sol\":3790:3846  msg.value >= AmountofWhitelistToken * WhitelistMintPrice */\n      lt\n      iszero\n        /* \"Subject/ERC-20_subject.sol\":3782:3877  require(msg.value >= AmountofWhitelistToken * WhitelistMintPrice, \"the balance is not enough.\") */\n      tag_180\n      jumpi\n      mload(0x40)\n      0x08c379a000000000000000000000000000000000000000000000000000000000\n      dup2\n      mstore\n      0x04\n      add\n      tag_181\n      swap1\n      tag_182\n      jump\t// in\n    tag_181:\n      mload(0x40)\n      dup1\n      swap2\n      sub\n      swap1\n      revert\n    tag_180:\n        /* \"Subject/ERC-20_subject.sol\":3940:3958  uint256 ExtraMoney */\n      0x00\n        /* \"Subject/ERC-20_subject.sol\":3998:4016  WhitelistMintPrice */\n      sload(0x0b)\n        /* \"Subject/ERC-20_subject.sol\":3973:3995  AmountofWhitelistToken */\n      dup3\n        /* \"Subject/ERC-20_subject.sol\":3973:4016  AmountofWhitelistToken * WhitelistMintPrice */\n      tag_183\n      swap2\n      swap1\n      tag_179\n      jump\t// in\n    tag_183:\n        /* \"Subject/ERC-20_subject.sol\":3961:3970  msg.value */\n      callvalue\n        /* \"Subject/ERC-20_subject.sol\":3961:4016  msg.value - AmountofWhitelistToken * WhitelistMintPrice */\n      tag_184\n      swap2\n      swap1\n      tag_185\n      jump\t// in\n    tag_184:\n        /* \"Subject/ERC-20_subject.sol\":3940:4016  uint256 ExtraMoney = msg.value - AmountofWhitelistToken * WhitelistMintPrice */\n      swap1\n      pop\n        /* \"Subject/ERC-20_subject.sol\":4042:4084  _mint(msg.sender , AmountofWhitelistToken) */\n      tag_186\n        /* \"Subject/ERC-20_subject.sol\":4048:4058  msg.sender */\n      caller\n        /* \"Subject/ERC-20_subject.sol\":4061:4083  AmountofWhitelistToken */\n      dup4\n        /* \"Subject/ERC-20_subject.sol\":4042:4047  _mint */\n      tag_187\n        /* \"Subject/ERC-20_subject.sol\":4042:4084  _mint(msg.sender , AmountofWhitelistToken) */\n      jump\t// in\n    tag_186:\n        /* \"Subject/ERC-20_subject.sol\":4117:4127  msg.sender */\n      caller\n        /* \"Subject/ERC-20_subject.sol\":4109:4137  payable(msg.sender).transfer */\n      0xffffffffffffffffffffffffffffffffffffffff\n      and\n        /* \"Subject/ERC-20_subject.sol\":4109:4149  payable(msg.sender).transfer(ExtraMoney) */\n      0x08fc\n        /* \"Subject/ERC-20_subject.sol\":4138:4148  ExtraMoney */\n      dup3\n        /* \"Subject/ERC-20_subject.sol\":4109:4149  payable(msg.sender).transfer(ExtraMoney) */\n      swap1\n      dup2\n      iszero\n      mul\n      swap1\n      mload(0x40)\n      0x00\n      mload(0x40)\n      dup1\n      dup4\n      sub\n      dup2\n      dup6\n      dup9\n      dup9\n      call\n      swap4\n      pop\n      pop\n      pop\n      pop\n      iszero\n      dup1\n      iszero\n      tag_189\n      jumpi\n      returndatasize\n      0x00\n      dup1\n      returndatacopy\n      revert(0x00, returndatasize)\n    tag_189:\n      pop\n        /* \"Subject/ERC-20_subject.sol\":3651:4181  { ... */\n      pop\n        /* \"Subject/ERC-20_subject.sol\":3569:4181  function whitelistMint(uint256 AmountofWhitelistToken) external payable TokenLimit{ ... */\n      pop\n      jump\t// out\n        /* \"@openzeppelin/contracts/token/ERC20/ERC20.sol\":2365:2467  function symbol() public view virtual override returns (string memory) {... */\n    tag_80:\n        /* \"@openzeppelin/contracts/token/ERC20/ERC20.sol\":2421:2434  string memory */\n      0x60\n        /* \"@openzeppelin/contracts/token/ERC20/ERC20.sol\":2453:2460  _symbol */\n      0x04\n        /* \"@openzeppelin/contracts/token/ERC20/ERC20.sol\":2446:2460  return _symbol */\n      dup1\n      sload\n      tag_191\n      swap1\n      tag_136\n      jump\t// in\n    tag_191:\n      dup1\n      0x1f\n      add\n      0x20\n      dup1\n      swap2\n      div\n      mul\n      0x20\n      add\n      mload(0x40)\n      swap1\n      dup2\n      add\n      0x40\n      mstore\n      dup1\n      swap3\n      swap2\n      swap1\n      dup2\n      dup2\n      mstore\n      0x20\n      add\n      dup3\n      dup1\n      sload\n      tag_192\n      swap1\n      tag_136\n      jump\t// in\n    tag_192:\n      dup1\n      iszero\n      tag_193\n      jumpi\n      dup1\n      0x1f\n      lt\n      tag_194\n      jumpi\n      0x0100\n      dup1\n      dup4\n      sload\n      div\n      mul\n      dup4\n      mstore\n      swap2\n      0x20\n      add\n      swap2\n      jump(tag_193)\n    tag_194:\n      dup3\n      add\n      swap2\n      swap1\n      0x00\n      mstore\n      keccak256(0x00, 0x20)\n      swap1\n    tag_195:\n      dup2\n      sload\n      dup2\n      mstore\n      swap1\n      0x01\n      add\n      swap1\n      0x20\n      add\n      dup1\n      dup4\n      gt\n      tag_195\n      jumpi\n      dup3\n      swap1\n      sub\n      0x1f\n      and\n      dup3\n      add\n      swap2\n    tag_193:\n      pop\n      pop\n      pop\n      pop\n      pop\n      swap1\n      pop\n        /* \"@openzeppelin/contracts/token/ERC20/ERC20.sol\":2365:2467  function symbol() public view virtual override returns (string memory) {... */\n      swap1\n      jump\t// out\n        /* \"Subject/ERC-20_subject.sol\":4189:4366  function verify(bytes32[] memory proof) external view returns (bool) {... */\n    tag_86:\n        /* \"Subject/ERC-20_subject.sol\":4252:4256  bool */\n      0x00\n        /* \"Subject/ERC-20_subject.sol\":4276:4348  MerkleProof.verify(proof, root, keccak256(abi.encodePacked(msg.sender))) */\n      tag_197\n        /* \"Subject/ERC-20_subject.sol\":4295:4300  proof */\n      dup3\n        /* \"Subject/ERC-20_subject.sol\":4302:4306  root */\n      sload(0x05)\n        /* \"Subject/ERC-20_subject.sol\":4335:4345  msg.sender */\n      caller\n        /* \"Subject/ERC-20_subject.sol\":4318:4346  abi.encodePacked(msg.sender) */\n      add(0x20, mload(0x40))\n      tag_198\n      swap2\n      swap1\n      tag_199\n      jump\t// in\n    tag_198:\n      mload(0x40)\n      0x20\n      dup2\n      dup4\n      sub\n      sub\n      dup2\n      mstore\n      swap1\n      0x40\n      mstore\n        /* \"Subject/ERC-20_subject.sol\":4308:4347  keccak256(abi.encodePacked(msg.sender)) */\n      dup1\n      mload\n      swap1\n      0x20\n      add\n      keccak256\n        /* \"Subject/ERC-20_subject.sol\":4276:4294  MerkleProof.verify */\n      tag_200\n        /* \"Subject/ERC-20_subject.sol\":4276:4348  MerkleProof.verify(proof, root, keccak256(abi.encodePacked(msg.sender))) */\n      jump\t// in\n    tag_197:\n        /* \"Subject/ERC-20_subject.sol\":4269:4348  return MerkleProof.verify(proof, root, keccak256(abi.encodePacked(msg.sender))) */\n      swap1\n      pop\n        /* \"Subject/ERC-20_subject.sol\":4189:4366  function verify(bytes32[] memory proof) external view returns (bool) {... */\n      swap2\n      swap1\n      pop\n      jump\t// out\n        /* \"Subject/ERC-20_subject.sol\":2163:2276  function burn(address from, uint256 amount) external onlyOwner TokenLimit {... */\n    tag_91:\n        /* \"Subject/ERC-20_subject.sol\":1173:1178  Owner */\n      0x06\n      0x00\n      swap1\n      sload\n      swap1\n      0x0100\n      exp\n      swap1\n      div\n      0xffffffffffffffffffffffffffffffffffffffff\n      and\n        /* \"Subject/ERC-20_subject.sol\":1159:1178  msg.sender == Owner */\n      0xffffffffffffffffffffffffffffffffffffffff\n      and\n        /* \"Subject/ERC-20_subject.sol\":1159:1169  msg.sender */\n      caller\n        /* \"Subject/ERC-20_subject.sol\":1159:1178  msg.sender == Owner */\n      0xffffffffffffffffffffffffffffffffffffffff\n      and\n      eq\n        /* \"Subject/ERC-20_subject.sol\":1150:1216  require( msg.sender == Owner ,\"This function only owner can use.\") */\n      tag_202\n      jumpi\n      mload(0x40)\n      0x08c379a000000000000000000000000000000000000000000000000000000000\n      dup2\n      mstore\n      0x04\n      add\n      tag_203\n      swap1\n      tag_163\n      jump\t// in\n    tag_203:\n      mload(0x40)\n      dup1\n      swap2\n      sub\n      swap1\n      revert\n    tag_202:\n        /* \"Subject/ERC-20_subject.sol\":1328:1340  _totalSupply */\n      sload(0x07)\n        /* \"Subject/ERC-20_subject.sol\":1307:1324  _TokentotalSupply */\n      sload(0x08)\n        /* \"Subject/ERC-20_subject.sol\":1307:1340  _TokentotalSupply >= _totalSupply */\n      lt\n      iszero\n        /* \"Subject/ERC-20_subject.sol\":1299:1369  require(_TokentotalSupply >= _totalSupply , \"It's over Token limit!!\") */\n      tag_205\n      jumpi\n      mload(0x40)\n      0x08c379a000000000000000000000000000000000000000000000000000000000\n      dup2\n      mstore\n      0x04\n      add\n      tag_206\n      swap1\n      tag_173\n      jump\t// in\n    tag_206:\n      mload(0x40)\n      dup1\n      swap2\n      sub\n      swap1\n      revert\n    tag_205:\n        /* \"Subject/ERC-20_subject.sol\":2248:2268  _burn (from, amount) */\n      tag_208\n        /* \"Subject/ERC-20_subject.sol\":2255:2259  from */\n      dup3\n        /* \"Subject/ERC-20_subject.sol\":2261:2267  amount */\n      dup3\n        /* \"Subject/ERC-20_subject.sol\":2248:2253  _burn */\n      tag_209\n        /* \"Subject/ERC-20_subject.sol\":2248:2268  _burn (from, amount) */\n      jump\t// in\n    tag_208:\n        /* \"Subject/ERC-20_subject.sol\":2163:2276  function burn(address from, uint256 amount) external onlyOwner TokenLimit {... */\n      pop\n      pop\n      jump\t// out\n        /* \"Subject/ERC-20_subject.sol\":1550:2111  function mint(uint256 AmountofPublicToken) external onlyOwner TokenLimit payable{... */\n    tag_94:\n        /* \"Subject/ERC-20_subject.sol\":1173:1178  Owner */\n      0x06\n      0x00\n      swap1\n      sload\n      swap1\n      0x0100\n      exp\n      swap1\n      div\n      0xffffffffffffffffffffffffffffffffffffffff\n      and\n        /* \"Subject/ERC-20_subject.sol\":1159:1178  msg.sender == Owner */\n      0xffffffffffffffffffffffffffffffffffffffff\n      and\n        /* \"Subject/ERC-20_subject.sol\":1159:1169  msg.sender */\n      caller\n        /* \"Subject/ERC-20_subject.sol\":1159:1178  msg.sender == Owner */\n      0xffffffffffffffffffffffffffffffffffffffff\n      and\n      eq\n        /* \"Subject/ERC-20_subject.sol\":1150:1216  require( msg.sender == Owner ,\"This function only owner can use.\") */\n      tag_211\n      jumpi\n      mload(0x40)\n      0x08c379a000000000000000000000000000000000000000000000000000000000\n      dup2\n      mstore\n      0x04\n      add\n      tag_212\n      swap1\n      tag_163\n      jump\t// in\n    tag_212:\n      mload(0x40)\n      dup1\n      swap2\n      sub\n      swap1\n      revert\n    tag_211:\n        /* \"Subject/ERC-20_subject.sol\":1328:1340  _totalSupply */\n      sload(0x07)\n        /* \"Subject/ERC-20_subject.sol\":1307:1324  _TokentotalSupply */\n      sload(0x08)\n        /* \"Subject/ERC-20_subject.sol\":1307:1340  _TokentotalSupply >= _totalSupply */\n      lt\n      iszero\n        /* \"Subject/ERC-20_subject.sol\":1299:1369  require(_TokentotalSupply >= _totalSupply , \"It's over Token limit!!\") */\n      tag_214\n      jumpi\n      mload(0x40)\n      0x08c379a000000000000000000000000000000000000000000000000000000000\n      dup2\n      mstore\n      0x04\n      add\n      tag_215\n      swap1\n      tag_173\n      jump\t// in\n    tag_215:\n      mload(0x40)\n      dup1\n      swap2\n      sub\n      swap1\n      revert\n    tag_214:\n        /* \"Subject/ERC-20_subject.sol\":1671:1672  0 */\n      0x00\n        /* \"Subject/ERC-20_subject.sol\":1649:1673  msg.sender != address(0) */\n      0xffffffffffffffffffffffffffffffffffffffff\n      and\n        /* \"Subject/ERC-20_subject.sol\":1649:1659  msg.sender */\n      caller\n        /* \"Subject/ERC-20_subject.sol\":1649:1673  msg.sender != address(0) */\n      0xffffffffffffffffffffffffffffffffffffffff\n      and\n      sub\n        /* \"Subject/ERC-20_subject.sol\":1641:1704  require(msg.sender != address(0) , \"Your address is not exist\") */\n      tag_217\n      jumpi\n      mload(0x40)\n      0x08c379a000000000000000000000000000000000000000000000000000000000\n      dup2\n      mstore\n      0x04\n      add\n      tag_218\n      swap1\n      tag_219\n      jump\t// in\n    tag_218:\n      mload(0x40)\n      dup1\n      swap2\n      sub\n      swap1\n      revert\n    tag_217:\n        /* \"Subject/ERC-20_subject.sol\":1760:1775  PublicMintPrice */\n      sload(0x0c)\n        /* \"Subject/ERC-20_subject.sol\":1738:1757  AmountofPublicToken */\n      dup2\n        /* \"Subject/ERC-20_subject.sol\":1738:1775  AmountofPublicToken * PublicMintPrice */\n      tag_220\n      swap2\n      swap1\n      tag_179\n      jump\t// in\n    tag_220:\n        /* \"Subject/ERC-20_subject.sol\":1725:1734  msg.value */\n      callvalue\n        /* \"Subject/ERC-20_subject.sol\":1725:1775  msg.value >= AmountofPublicToken * PublicMintPrice */\n      lt\n      iszero\n        /* \"Subject/ERC-20_subject.sol\":1717:1806  require(msg.value >= AmountofPublicToken * PublicMintPrice, \"the balance is not enough.\") */\n      tag_221\n      jumpi\n      mload(0x40)\n      0x08c379a000000000000000000000000000000000000000000000000000000000\n      dup2\n      mstore\n      0x04\n      add\n      tag_222\n      swap1\n      tag_182\n      jump\t// in\n    tag_222:\n      mload(0x40)\n      dup1\n      swap2\n      sub\n      swap1\n      revert\n    tag_221:\n        /* \"Subject/ERC-20_subject.sol\":1869:1887  uint256 ExtraMoney */\n      0x00\n        /* \"Subject/ERC-20_subject.sol\":1924:1939  PublicMintPrice */\n      sload(0x0c)\n        /* \"Subject/ERC-20_subject.sol\":1902:1921  AmountofPublicToken */\n      dup3\n        /* \"Subject/ERC-20_subject.sol\":1902:1939  AmountofPublicToken * PublicMintPrice */\n      tag_223\n      swap2\n      swap1\n      tag_179\n      jump\t// in\n    tag_223:\n        /* \"Subject/ERC-20_subject.sol\":1890:1899  msg.value */\n      callvalue\n        /* \"Subject/ERC-20_subject.sol\":1890:1939  msg.value - AmountofPublicToken * PublicMintPrice */\n      tag_224\n      swap2\n      swap1\n      tag_185\n      jump\t// in\n    tag_224:\n        /* \"Subject/ERC-20_subject.sol\":1869:1939  uint256 ExtraMoney = msg.value - AmountofPublicToken * PublicMintPrice */\n      swap1\n      pop\n        /* \"Subject/ERC-20_subject.sol\":1965:2004  _mint(msg.sender , AmountofPublicToken) */\n      tag_225\n        /* \"Subject/ERC-20_subject.sol\":1971:1981  msg.sender */\n      caller\n        /* \"Subject/ERC-20_subject.sol\":1984:2003  AmountofPublicToken */\n      dup4\n        /* \"Subject/ERC-20_subject.sol\":1965:1970  _mint */\n      tag_187\n        /* \"Subject/ERC-20_subject.sol\":1965:2004  _mint(msg.sender , AmountofPublicToken) */\n      jump\t// in\n    tag_225:\n        /* \"Subject/ERC-20_subject.sol\":2037:2047  msg.sender */\n      caller\n        /* \"Subject/ERC-20_subject.sol\":2029:2057  payable(msg.sender).transfer */\n      0xffffffffffffffffffffffffffffffffffffffff\n      and\n        /* \"Subject/ERC-20_subject.sol\":2029:2069  payable(msg.sender).transfer(ExtraMoney) */\n      0x08fc\n        /* \"Subject/ERC-20_subject.sol\":2058:2068  ExtraMoney */\n      dup3\n        /* \"Subject/ERC-20_subject.sol\":2029:2069  payable(msg.sender).transfer(ExtraMoney) */\n      swap1\n      dup2\n      iszero\n      mul\n      swap1\n      mload(0x40)\n      0x00\n      mload(0x40)\n      dup1\n      dup4\n      sub\n      dup2\n      dup6\n      dup9\n      dup9\n      call\n      swap4\n      pop\n      pop\n      pop\n      pop\n      iszero\n      dup1\n      iszero\n      tag_227\n      jumpi\n      returndatasize\n      0x00\n      dup1\n      returndatacopy\n      revert(0x00, returndatasize)\n    tag_227:\n      pop\n        /* \"Subject/ERC-20_subject.sol\":1630:2111  {... */\n      pop\n        /* \"Subject/ERC-20_subject.sol\":1550:2111  function mint(uint256 AmountofPublicToken) external onlyOwner TokenLimit payable{... */\n      pop\n      jump\t// out\n        /* \"@openzeppelin/contracts/token/ERC20/ERC20.sol\":6592:7019  function decreaseAllowance(address spender, uint256 subtractedValue) public virtual returns (bool) {... */\n    tag_98:\n        /* \"@openzeppelin/contracts/token/ERC20/ERC20.sol\":6685:6689  bool */\n      0x00\n        /* \"@openzeppelin/contracts/token/ERC20/ERC20.sol\":6701:6714  address owner */\n      dup1\n        /* \"@openzeppelin/contracts/token/ERC20/ERC20.sol\":6717:6729  _msgSender() */\n      tag_229\n        /* \"@openzeppelin/contracts/token/ERC20/ERC20.sol\":6717:6727  _msgSender */\n      tag_143\n        /* \"@openzeppelin/contracts/token/ERC20/ERC20.sol\":6717:6729  _msgSender() */\n      jump\t// in\n    tag_229:\n        /* \"@openzeppelin/contracts/token/ERC20/ERC20.sol\":6701:6729  address owner = _msgSender() */\n      swap1\n      pop\n        /* \"@openzeppelin/contracts/token/ERC20/ERC20.sol\":6739:6763  uint256 currentAllowance */\n      0x00\n        /* \"@openzeppelin/contracts/token/ERC20/ERC20.sol\":6766:6791  allowance(owner, spender) */\n      tag_230\n        /* \"@openzeppelin/contracts/token/ERC20/ERC20.sol\":6776:6781  owner */\n      dup3\n        /* \"@openzeppelin/contracts/token/ERC20/ERC20.sol\":6783:6790  spender */\n      dup7\n        /* \"@openzeppelin/contracts/token/ERC20/ERC20.sol\":6766:6775  allowance */\n      tag_127\n        /* \"@openzeppelin/contracts/token/ERC20/ERC20.sol\":6766:6791  allowance(owner, spender) */\n      jump\t// in\n    tag_230:\n        /* \"@openzeppelin/contracts/token/ERC20/ERC20.sol\":6739:6791  uint256 currentAllowance = allowance(owner, spender) */\n      swap1\n      pop\n        /* \"@openzeppelin/contracts/token/ERC20/ERC20.sol\":6829:6844  subtractedValue */\n      dup4\n        /* \"@openzeppelin/contracts/token/ERC20/ERC20.sol\":6809:6825  currentAllowance */\n      dup2\n        /* \"@openzeppelin/contracts/token/ERC20/ERC20.sol\":6809:6844  currentAllowance >= subtractedValue */\n      lt\n      iszero\n        /* \"@openzeppelin/contracts/token/ERC20/ERC20.sol\":6801:6886  require(currentAllowance >= subtractedValue, \"ERC20: decreased allowance below zero\") */\n      tag_231\n      jumpi\n      mload(0x40)\n      0x08c379a000000000000000000000000000000000000000000000000000000000\n      dup2\n      mstore\n      0x04\n      add\n      tag_232\n      swap1\n      tag_233\n      jump\t// in\n    tag_232:\n      mload(0x40)\n      dup1\n      swap2\n      sub\n      swap1\n      revert\n    tag_231:\n        /* \"@openzeppelin/contracts/token/ERC20/ERC20.sol\":6920:6980  _approve(owner, spender, currentAllowance - subtractedValue) */\n      tag_234\n        /* \"@openzeppelin/contracts/token/ERC20/ERC20.sol\":6929:6934  owner */\n      dup3\n        /* \"@openzeppelin/contracts/token/ERC20/ERC20.sol\":6936:6943  spender */\n      dup7\n        /* \"@openzeppelin/contracts/token/ERC20/ERC20.sol\":6964:6979  subtractedValue */\n      dup7\n        /* \"@openzeppelin/contracts/token/ERC20/ERC20.sol\":6945:6961  currentAllowance */\n      dup5\n        /* \"@openzeppelin/contracts/token/ERC20/ERC20.sol\":6945:6979  currentAllowance - subtractedValue */\n      sub\n        /* \"@openzeppelin/contracts/token/ERC20/ERC20.sol\":6920:6928  _approve */\n      tag_145\n        /* \"@openzeppelin/contracts/token/ERC20/ERC20.sol\":6920:6980  _approve(owner, spender, currentAllowance - subtractedValue) */\n      jump\t// in\n    tag_234:\n        /* \"@openzeppelin/contracts/token/ERC20/ERC20.sol\":7008:7012  true */\n      0x01\n        /* \"@openzeppelin/contracts/token/ERC20/ERC20.sol\":7001:7012  return true */\n      swap3\n      pop\n      pop\n      pop\n        /* \"@openzeppelin/contracts/token/ERC20/ERC20.sol\":6592:7019  function decreaseAllowance(address spender, uint256 subtractedValue) public virtual returns (bool) {... */\n      swap3\n      swap2\n      pop\n      pop\n      jump\t// out\n        /* \"Subject/ERC-20_subject.sol\":2734:2872  function SetWhitelistMintPrice(uint256 _WhitelistMintPrice) external onlyOwner {... */\n    tag_103:\n        /* \"Subject/ERC-20_subject.sol\":1173:1178  Owner */\n      0x06\n      0x00\n      swap1\n      sload\n      swap1\n      0x0100\n      exp\n      swap1\n      div\n      0xffffffffffffffffffffffffffffffffffffffff\n      and\n        /* \"Subject/ERC-20_subject.sol\":1159:1178  msg.sender == Owner */\n      0xffffffffffffffffffffffffffffffffffffffff\n      and\n        /* \"Subject/ERC-20_subject.sol\":1159:1169  msg.sender */\n      caller\n        /* \"Subject/ERC-20_subject.sol\":1159:1178  msg.sender == Owner */\n      0xffffffffffffffffffffffffffffffffffffffff\n      and\n      eq\n        /* \"Subject/ERC-20_subject.sol\":1150:1216  require( msg.sender == Owner ,\"This function only owner can use.\") */\n      tag_236\n      jumpi\n      mload(0x40)\n      0x08c379a000000000000000000000000000000000000000000000000000000000\n      dup2\n      mstore\n      0x04\n      add\n      tag_237\n      swap1\n      tag_163\n      jump\t// in\n    tag_237:\n      mload(0x40)\n      dup1\n      swap2\n      sub\n      swap1\n      revert\n    tag_236:\n        /* \"Subject/ERC-20_subject.sol\":2845:2864  _WhitelistMintPrice */\n      dup1\n        /* \"Subject/ERC-20_subject.sol\":2824:2842  WhitelistMintPrice */\n      0x0b\n        /* \"Subject/ERC-20_subject.sol\":2824:2864  WhitelistMintPrice = _WhitelistMintPrice */\n      dup2\n      swap1\n      sstore\n      pop\n        /* \"Subject/ERC-20_subject.sol\":2734:2872  function SetWhitelistMintPrice(uint256 _WhitelistMintPrice) external onlyOwner {... */\n      pop\n      jump\t// out\n        /* \"@openzeppelin/contracts/token/ERC20/ERC20.sol\":3727:3916  function transfer(address to, uint256 amount) public virtual override returns (bool) {... */\n    tag_107:\n        /* \"@openzeppelin/contracts/token/ERC20/ERC20.sol\":3806:3810  bool */\n      0x00\n        /* \"@openzeppelin/contracts/token/ERC20/ERC20.sol\":3822:3835  address owner */\n      dup1\n        /* \"@openzeppelin/contracts/token/ERC20/ERC20.sol\":3838:3850  _msgSender() */\n      tag_240\n        /* \"@openzeppelin/contracts/token/ERC20/ERC20.sol\":3838:3848  _msgSender */\n      tag_143\n        /* \"@openzeppelin/contracts/token/ERC20/ERC20.sol\":3838:3850  _msgSender() */\n      jump\t// in\n    tag_240:\n        /* \"@openzeppelin/contracts/token/ERC20/ERC20.sol\":3822:3850  address owner = _msgSender() */\n      swap1\n      pop\n        /* \"@openzeppelin/contracts/token/ERC20/ERC20.sol\":3860:3888  _transfer(owner, to, amount) */\n      tag_241\n        /* \"@openzeppelin/contracts/token/ERC20/ERC20.sol\":3870:3875  owner */\n      dup2\n        /* \"@openzeppelin/contracts/token/ERC20/ERC20.sol\":3877:3879  to */\n      dup6\n        /* \"@openzeppelin/contracts/token/ERC20/ERC20.sol\":3881:3887  amount */\n      dup6\n        /* \"@openzeppelin/contracts/token/ERC20/ERC20.sol\":3860:3869  _transfer */\n      tag_152\n        /* \"@openzeppelin/contracts/token/ERC20/ERC20.sol\":3860:3888  _transfer(owner, to, amount) */\n      jump\t// in\n    tag_241:\n        /* \"@openzeppelin/contracts/token/ERC20/ERC20.sol\":3905:3909  true */\n      0x01\n        /* \"@openzeppelin/contracts/token/ERC20/ERC20.sol\":3898:3909  return true */\n      swap2\n      pop\n      pop\n        /* \"@openzeppelin/contracts/token/ERC20/ERC20.sol\":3727:3916  function transfer(address to, uint256 amount) public virtual override returns (bool) {... */\n      swap3\n      swap2\n      pop\n      pop\n      jump\t// out\n        /* \"Subject/ERC-20_subject.sol\":3340:3469  function CheckwhitelistMint(bytes32[] calldata _proof) external verifyProof(_proof) {... */\n    tag_113:\n        /* \"Subject/ERC-20_subject.sol\":3416:3422  _proof */\n      dup2\n      dup2\n        /* \"Subject/ERC-20_subject.sol\":3081:3255  modifier verifyProof(bytes32[] memory proof) {... */\n      dup1\n      dup1\n      0x20\n      mul\n      0x20\n      add\n      mload(0x40)\n      swap1\n      dup2\n      add\n      0x40\n      mstore\n      dup1\n      swap4\n      swap3\n      swap2\n      swap1\n      dup2\n      dup2\n      mstore\n      0x20\n      add\n      dup4\n      dup4\n      0x20\n      mul\n      dup1\n      dup3\n      dup5\n      calldatacopy\n      0x00\n      dup2\n      dup5\n      add\n      mstore\n      not(0x1f)\n      0x1f\n      dup3\n      add\n      and\n      swap1\n      pop\n      dup1\n      dup4\n      add\n      swap3\n      pop\n      pop\n      pop\n      pop\n      pop\n      pop\n      pop\n        /* \"Subject/ERC-20_subject.sol\":3145:3217  MerkleProof.verify(proof, root, keccak256(abi.encodePacked(msg.sender))) */\n      tag_243\n        /* \"Subject/ERC-20_subject.sol\":3164:3169  proof */\n      dup2\n        /* \"Subject/ERC-20_subject.sol\":3171:3175  root */\n      sload(0x05)\n        /* \"Subject/ERC-20_subject.sol\":3204:3214  msg.sender */\n      caller\n        /* \"Subject/ERC-20_subject.sol\":3187:3215  abi.encodePacked(msg.sender) */\n      add(0x20, mload(0x40))\n      tag_244\n      swap2\n      swap1\n      tag_199\n      jump\t// in\n    tag_244:\n      mload(0x40)\n      0x20\n      dup2\n      dup4\n      sub\n      sub\n      dup2\n      mstore\n      swap1\n      0x40\n      mstore\n        /* \"Subject/ERC-20_subject.sol\":3177:3216  keccak256(abi.encodePacked(msg.sender)) */\n      dup1\n      mload\n      swap1\n      0x20\n      add\n      keccak256\n        /* \"Subject/ERC-20_subject.sol\":3145:3163  MerkleProof.verify */\n      tag_200\n        /* \"Subject/ERC-20_subject.sol\":3145:3217  MerkleProof.verify(proof, root, keccak256(abi.encodePacked(msg.sender))) */\n      jump\t// in\n    tag_243:\n        /* \"Subject/ERC-20_subject.sol\":3137:3235  require(MerkleProof.verify(proof, root, keccak256(abi.encodePacked(msg.sender))), \"Invalid proof\") */\n      tag_245\n      jumpi\n      mload(0x40)\n      0x08c379a000000000000000000000000000000000000000000000000000000000\n      dup2\n      mstore\n      0x04\n      add\n      tag_246\n      swap1\n      tag_247\n      jump\t// in\n    tag_246:\n      mload(0x40)\n      dup1\n      swap2\n      sub\n      swap1\n      revert\n    tag_245:\n        /* \"Subject/ERC-20_subject.sol\":3457:3461  true */\n      0x01\n        /* \"Subject/ERC-20_subject.sol\":3433:3442  Whitelist */\n      0x0d\n        /* \"Subject/ERC-20_subject.sol\":3433:3454  Whitelist[msg.sender] */\n      0x00\n        /* \"Subject/ERC-20_subject.sol\":3443:3453  msg.sender */\n      caller\n        /* \"Subject/ERC-20_subject.sol\":3433:3454  Whitelist[msg.sender] */\n      0xffffffffffffffffffffffffffffffffffffffff\n      and\n      0xffffffffffffffffffffffffffffffffffffffff\n      and\n      dup2\n      mstore\n      0x20\n      add\n      swap1\n      dup2\n      mstore\n      0x20\n      add\n      0x00\n      keccak256\n      0x00\n        /* \"Subject/ERC-20_subject.sol\":3433:3461  Whitelist[msg.sender] = true */\n      0x0100\n      exp\n      dup2\n      sload\n      dup2\n      0xff\n      mul\n      not\n      and\n      swap1\n      dup4\n      iszero\n      iszero\n      mul\n      or\n      swap1\n      sstore\n      pop\n        /* \"Subject/ERC-20_subject.sol\":3340:3469  function CheckwhitelistMint(bytes32[] calldata _proof) external verifyProof(_proof) {... */\n      pop\n      pop\n      pop\n      jump\t// out\n        /* \"Subject/ERC-20_subject.sol\":2533:2687  function SetPublicMaxNumberofToken(uint256 _PublicMaxNumberofToken) external onlyOwner {... */\n    tag_117:\n        /* \"Subject/ERC-20_subject.sol\":1173:1178  Owner */\n      0x06\n      0x00\n      swap1\n      sload\n      swap1\n      0x0100\n      exp\n      swap1\n      div\n      0xffffffffffffffffffffffffffffffffffffffff\n      and\n        /* \"Subject/ERC-20_subject.sol\":1159:1178  msg.sender == Owner */\n      0xffffffffffffffffffffffffffffffffffffffff\n      and\n        /* \"Subject/ERC-20_subject.sol\":1159:1169  msg.sender */\n      caller\n        /* \"Subject/ERC-20_subject.sol\":1159:1178  msg.sender == Owner */\n      0xffffffffffffffffffffffffffffffffffffffff\n      and\n      eq\n        /* \"Subject/ERC-20_subject.sol\":1150:1216  require( msg.sender == Owner ,\"This function only owner can use.\") */\n      tag_250\n      jumpi\n      mload(0x40)\n      0x08c379a000000000000000000000000000000000000000000000000000000000\n      dup2\n      mstore\n      0x04\n      add\n      tag_251\n      swap1\n      tag_163\n      jump\t// in\n    tag_251:\n      mload(0x40)\n      dup1\n      swap2\n      sub\n      swap1\n      revert\n    tag_250:\n        /* \"Subject/ERC-20_subject.sol\":2656:2679  _PublicMaxNumberofToken */\n      dup1\n        /* \"Subject/ERC-20_subject.sol\":2631:2653  PublicMaxNumberofToken */\n      0x0a\n        /* \"Subject/ERC-20_subject.sol\":2631:2679  PublicMaxNumberofToken = _PublicMaxNumberofToken */\n      dup2\n      swap1\n      sstore\n      pop\n        /* \"Subject/ERC-20_subject.sol\":2533:2687  function SetPublicMaxNumberofToken(uint256 _PublicMaxNumberofToken) external onlyOwner {... */\n      pop\n      jump\t// out\n        /* \"Subject/ERC-20_subject.sol\":4374:4512  function setRoot(bytes32 _root) external {... */\n    tag_122:\n        /* \"Subject/ERC-20_subject.sol\":4448:4453  Owner */\n      0x06\n      0x00\n      swap1\n      sload\n      swap1\n      0x0100\n      exp\n      swap1\n      div\n      0xffffffffffffffffffffffffffffffffffffffff\n      and\n        /* \"Subject/ERC-20_subject.sol\":4434:4453  msg.sender == Owner */\n      0xffffffffffffffffffffffffffffffffffffffff\n      and\n        /* \"Subject/ERC-20_subject.sol\":4434:4444  msg.sender */\n      caller\n        /* \"Subject/ERC-20_subject.sol\":4434:4453  msg.sender == Owner */\n      0xffffffffffffffffffffffffffffffffffffffff\n      and\n      eq\n        /* \"Subject/ERC-20_subject.sol\":4426:4481  require(msg.sender == Owner, \"Only owner can set root\") */\n      tag_254\n      jumpi\n      mload(0x40)\n      0x08c379a000000000000000000000000000000000000000000000000000000000\n      dup2\n      mstore\n      0x04\n      add\n      tag_255\n      swap1\n      tag_256\n      jump\t// in\n    tag_255:\n      mload(0x40)\n      dup1\n      swap2\n      sub\n      swap1\n      revert\n    tag_254:\n        /* \"Subject/ERC-20_subject.sol\":4499:4504  _root */\n      dup1\n        /* \"Subject/ERC-20_subject.sol\":4492:4496  root */\n      0x05\n        /* \"Subject/ERC-20_subject.sol\":4492:4504  root = _root */\n      dup2\n      swap1\n      sstore\n      pop\n        /* \"Subject/ERC-20_subject.sol\":4374:4512  function setRoot(bytes32 _root) external {... */\n      pop\n      jump\t// out\n        /* \"@openzeppelin/contracts/token/ERC20/ERC20.sol\":3974:4123  function allowance(address owner, address spender) public view virtual override returns (uint256) {... */\n    tag_127:\n        /* \"@openzeppelin/contracts/token/ERC20/ERC20.sol\":4063:4070  uint256 */\n      0x00\n        /* \"@openzeppelin/contracts/token/ERC20/ERC20.sol\":4089:4100  _allowances */\n      0x01\n        /* \"@openzeppelin/contracts/token/ERC20/ERC20.sol\":4089:4107  _allowances[owner] */\n      0x00\n        /* \"@openzeppelin/contracts/token/ERC20/ERC20.sol\":4101:4106  owner */\n      dup5\n        /* \"@openzeppelin/contracts/token/ERC20/ERC20.sol\":4089:4107  _allowances[owner] */\n      0xffffffffffffffffffffffffffffffffffffffff\n      and\n      0xffffffffffffffffffffffffffffffffffffffff\n      and\n      dup2\n      mstore\n      0x20\n      add\n      swap1\n      dup2\n      mstore\n      0x20\n      add\n      0x00\n      keccak256\n        /* \"@openzeppelin/contracts/token/ERC20/ERC20.sol\":4089:4116  _allowances[owner][spender] */\n      0x00\n        /* \"@openzeppelin/contracts/token/ERC20/ERC20.sol\":4108:4115  spender */\n      dup4\n        /* \"@openzeppelin/contracts/token/ERC20/ERC20.sol\":4089:4116  _allowances[owner][spender] */\n      0xffffffffffffffffffffffffffffffffffffffff\n      and\n      0xffffffffffffffffffffffffffffffffffffffff\n      and\n      dup2\n      mstore\n      0x20\n      add\n      swap1\n      dup2\n      mstore\n      0x20\n      add\n      0x00\n      keccak256\n      sload\n        /* \"@openzeppelin/contracts/token/ERC20/ERC20.sol\":4082:4116  return _allowances[owner][spender] */\n      swap1\n      pop\n        /* \"@openzeppelin/contracts/token/ERC20/ERC20.sol\":3974:4123  function allowance(address owner, address spender) public view virtual override returns (uint256) {... */\n      swap3\n      swap2\n      pop\n      pop\n      jump\t// out\n        /* \"Subject/ERC-20_subject.sol\":289:308  bytes32 public root */\n    tag_131:\n      sload(0x05)\n      dup2\n      jump\t// out\n        /* \"@openzeppelin/contracts/utils/Context.sol\":640:736  function _msgSender() internal view virtual returns (address) {... */\n    tag_143:\n        /* \"@openzeppelin/contracts/utils/Context.sol\":693:700  address */\n      0x00\n        /* \"@openzeppelin/contracts/utils/Context.sol\":719:729  msg.sender */\n      caller\n        /* \"@openzeppelin/contracts/utils/Context.sol\":712:729  return msg.sender */\n      swap1\n      pop\n        /* \"@openzeppelin/contracts/utils/Context.sol\":640:736  function _msgSender() internal view virtual returns (address) {... */\n      swap1\n      jump\t// out\n        /* \"@openzeppelin/contracts/token/ERC20/ERC20.sol\":10504:10874  function _approve(... */\n    tag_145:\n        /* \"@openzeppelin/contracts/token/ERC20/ERC20.sol\":10652:10653  0 */\n      0x00\n        /* \"@openzeppelin/contracts/token/ERC20/ERC20.sol\":10635:10654  owner != address(0) */\n      0xffffffffffffffffffffffffffffffffffffffff\n      and\n        /* \"@openzeppelin/contracts/token/ERC20/ERC20.sol\":10635:10640  owner */\n      dup4\n        /* \"@openzeppelin/contracts/token/ERC20/ERC20.sol\":10635:10654  owner != address(0) */\n      0xffffffffffffffffffffffffffffffffffffffff\n      and\n      sub\n        /* \"@openzeppelin/contracts/token/ERC20/ERC20.sol\":10627:10695  require(owner != address(0), \"ERC20: approve from the zero address\") */\n      tag_260\n      jumpi\n      mload(0x40)\n      0x08c379a000000000000000000000000000000000000000000000000000000000\n      dup2\n      mstore\n      0x04\n      add\n      tag_261\n      swap1\n      tag_262\n      jump\t// in\n    tag_261:\n      mload(0x40)\n      dup1\n      swap2\n      sub\n      swap1\n      revert\n    tag_260:\n        /* \"@openzeppelin/contracts/token/ERC20/ERC20.sol\":10732:10733  0 */\n      0x00\n        /* \"@openzeppelin/contracts/token/ERC20/ERC20.sol\":10713:10734  spender != address(0) */\n      0xffffffffffffffffffffffffffffffffffffffff\n      and\n        /* \"@openzeppelin/contracts/token/ERC20/ERC20.sol\":10713:10720  spender */\n      dup3\n        /* \"@openzeppelin/contracts/token/ERC20/ERC20.sol\":10713:10734  spender != address(0) */\n      0xffffffffffffffffffffffffffffffffffffffff\n      and\n      sub\n        /* \"@openzeppelin/contracts/token/ERC20/ERC20.sol\":10705:10773  require(spender != address(0), \"ERC20: approve to the zero address\") */\n      tag_263\n      jumpi\n      mload(0x40)\n      0x08c379a000000000000000000000000000000000000000000000000000000000\n      dup2\n      mstore\n      0x04\n      add\n      tag_264\n      swap1\n      tag_265\n      jump\t// in\n    tag_264:\n      mload(0x40)\n      dup1\n      swap2\n      sub\n      swap1\n      revert\n    tag_263:\n        /* \"@openzeppelin/contracts/token/ERC20/ERC20.sol\":10814:10820  amount */\n      dup1\n        /* \"@openzeppelin/contracts/token/ERC20/ERC20.sol\":10784:10795  _allowances */\n      0x01\n        /* \"@openzeppelin/contracts/token/ERC20/ERC20.sol\":10784:10802  _allowances[owner] */\n      0x00\n        /* \"@openzeppelin/contracts/token/ERC20/ERC20.sol\":10796:10801  owner */\n      dup6\n        /* \"@openzeppelin/contracts/token/ERC20/ERC20.sol\":10784:10802  _allowances[owner] */\n      0xffffffffffffffffffffffffffffffffffffffff\n      and\n      0xffffffffffffffffffffffffffffffffffffffff\n      and\n      dup2\n      mstore\n      0x20\n      add\n      swap1\n      dup2\n      mstore\n      0x20\n      add\n      0x00\n      keccak256\n        /* \"@openzeppelin/contracts/token/ERC20/ERC20.sol\":10784:10811  _allowances[owner][spender] */\n      0x00\n        /* \"@openzeppelin/contracts/token/ERC20/ERC20.sol\":10803:10810  spender */\n      dup5\n        /* \"@openzeppelin/contracts/token/ERC20/ERC20.sol\":10784:10811  _allowances[owner][spender] */\n      0xffffffffffffffffffffffffffffffffffffffff\n      and\n      0xffffffffffffffffffffffffffffffffffffffff\n      and\n      dup2\n      mstore\n      0x20\n      add\n      swap1\n      dup2\n      mstore\n      0x20\n      add\n      0x00\n      keccak256\n        /* \"@openzeppelin/contracts/token/ERC20/ERC20.sol\":10784:10820  _allowances[owner][spender] = amount */\n      dup2\n      swap1\n      sstore\n      pop\n        /* \"@openzeppelin/contracts/token/ERC20/ERC20.sol\":10851:10858  spender */\n      dup2\n        /* \"@openzeppelin/contracts/token/ERC20/ERC20.sol\":10835:10867  Approval(owner, spender, amount) */\n      0xffffffffffffffffffffffffffffffffffffffff\n      and\n        /* \"@openzeppelin/contracts/token/ERC20/ERC20.sol\":10844:10849  owner */\n      dup4\n        /* \"@openzeppelin/contracts/token/ERC20/ERC20.sol\":10835:10867  Approval(owner, spender, amount) */\n      0xffffffffffffffffffffffffffffffffffffffff\n      and\n      0x8c5be1e5ebec7d5bd14f71427d1e84f3dd0314c0f7b2291e5b200ac8c7c3b925\n        /* \"@openzeppelin/contracts/token/ERC20/ERC20.sol\":10860:10866  amount */\n      dup4\n        /* \"@openzeppelin/contracts/token/ERC20/ERC20.sol\":10835:10867  Approval(owner, spender, amount) */\n      mload(0x40)\n      tag_266\n      swap2\n      swap1\n      tag_43\n      jump\t// in\n    tag_266:\n      mload(0x40)\n      dup1\n      swap2\n      sub\n      swap1\n      log3\n        /* \"@openzeppelin/contracts/token/ERC20/ERC20.sol\":10504:10874  function _approve(... */\n      pop\n      pop\n      pop\n      jump\t// out\n        /* \"@openzeppelin/contracts/token/ERC20/ERC20.sol\":11155:11596  function _spendAllowance(... */\n    tag_150:\n        /* \"@openzeppelin/contracts/token/ERC20/ERC20.sol\":11285:11309  uint256 currentAllowance */\n      0x00\n        /* \"@openzeppelin/contracts/token/ERC20/ERC20.sol\":11312:11337  allowance(owner, spender) */\n      tag_268\n        /* \"@openzeppelin/contracts/token/ERC20/ERC20.sol\":11322:11327  owner */\n      dup5\n        /* \"@openzeppelin/contracts/token/ERC20/ERC20.sol\":11329:11336  spender */\n      dup5\n        /* \"@openzeppelin/contracts/token/ERC20/ERC20.sol\":11312:11321  allowance */\n      tag_127\n        /* \"@openzeppelin/contracts/token/ERC20/ERC20.sol\":11312:11337  allowance(owner, spender) */\n      jump\t// in\n    tag_268:\n        /* \"@openzeppelin/contracts/token/ERC20/ERC20.sol\":11285:11337  uint256 currentAllowance = allowance(owner, spender) */\n      swap1\n      pop\n        /* \"@openzeppelin/contracts/token/ERC20/ERC20.sol\":11371:11388  type(uint256).max */\n      0xffffffffffffffffffffffffffffffffffffffffffffffffffffffffffffffff\n        /* \"@openzeppelin/contracts/token/ERC20/ERC20.sol\":11351:11367  currentAllowance */\n      dup2\n        /* \"@openzeppelin/contracts/token/ERC20/ERC20.sol\":11351:11388  currentAllowance != type(uint256).max */\n      eq\n        /* \"@openzeppelin/contracts/token/ERC20/ERC20.sol\":11347:11590  if (currentAllowance != type(uint256).max) {... */\n      tag_269\n      jumpi\n        /* \"@openzeppelin/contracts/token/ERC20/ERC20.sol\":11432:11438  amount */\n      dup2\n        /* \"@openzeppelin/contracts/token/ERC20/ERC20.sol\":11412:11428  currentAllowance */\n      dup2\n        /* \"@openzeppelin/contracts/token/ERC20/ERC20.sol\":11412:11438  currentAllowance >= amount */\n      lt\n      iszero\n        /* \"@openzeppelin/contracts/token/ERC20/ERC20.sol\":11404:11472  require(currentAllowance >= amount, \"ERC20: insufficient allowance\") */\n      tag_270\n      jumpi\n      mload(0x40)\n      0x08c379a000000000000000000000000000000000000000000000000000000000\n      dup2\n      mstore\n      0x04\n      add\n      tag_271\n      swap1\n      tag_272\n      jump\t// in\n    tag_271:\n      mload(0x40)\n      dup1\n      swap2\n      sub\n      swap1\n      revert\n    tag_270:\n        /* \"@openzeppelin/contracts/token/ERC20/ERC20.sol\":11514:11565  _approve(owner, spender, currentAllowance - amount) */\n      tag_273\n        /* \"@openzeppelin/contracts/token/ERC20/ERC20.sol\":11523:11528  owner */\n      dup5\n        /* \"@openzeppelin/contracts/token/ERC20/ERC20.sol\":11530:11537  spender */\n      dup5\n        /* \"@openzeppelin/contracts/token/ERC20/ERC20.sol\":11558:11564  amount */\n      dup5\n        /* \"@openzeppelin/contracts/token/ERC20/ERC20.sol\":11539:11555  currentAllowance */\n      dup5\n        /* \"@openzeppelin/contracts/token/ERC20/ERC20.sol\":11539:11564  currentAllowance - amount */\n      sub\n        /* \"@openzeppelin/contracts/token/ERC20/ERC20.sol\":11514:11522  _approve */\n      tag_145\n        /* \"@openzeppelin/contracts/token/ERC20/ERC20.sol\":11514:11565  _approve(owner, spender, currentAllowance - amount) */\n      jump\t// in\n    tag_273:\n        /* \"@openzeppelin/contracts/token/ERC20/ERC20.sol\":11347:11590  if (currentAllowance != type(uint256).max) {... */\n    tag_269:\n        /* \"@openzeppelin/contracts/token/ERC20/ERC20.sol\":11275:11596  {... */\n      pop\n        /* \"@openzeppelin/contracts/token/ERC20/ERC20.sol\":11155:11596  function _spendAllowance(... */\n      pop\n      pop\n      pop\n      jump\t// out\n        /* \"@openzeppelin/contracts/token/ERC20/ERC20.sol\":7473:8291  function _transfer(... */\n    tag_152:\n        /* \"@openzeppelin/contracts/token/ERC20/ERC20.sol\":7615:7616  0 */\n      0x00\n        /* \"@openzeppelin/contracts/token/ERC20/ERC20.sol\":7599:7617  from != address(0) */\n      0xffffffffffffffffffffffffffffffffffffffff\n      and\n        /* \"@openzeppelin/contracts/token/ERC20/ERC20.sol\":7599:7603  from */\n      dup4\n        /* \"@openzeppelin/contracts/token/ERC20/ERC20.sol\":7599:7617  from != address(0) */\n      0xffffffffffffffffffffffffffffffffffffffff\n      and\n      sub\n        /* \"@openzeppelin/contracts/token/ERC20/ERC20.sol\":7591:7659  require(from != address(0), \"ERC20: transfer from the zero address\") */\n      tag_275\n      jumpi\n      mload(0x40)\n      0x08c379a000000000000000000000000000000000000000000000000000000000\n      dup2\n      mstore\n      0x04\n      add\n      tag_276\n      swap1\n      tag_277\n      jump\t// in\n    tag_276:\n      mload(0x40)\n      dup1\n      swap2\n      sub\n      swap1\n      revert\n    tag_275:\n        /* \"@openzeppelin/contracts/token/ERC20/ERC20.sol\":7691:7692  0 */\n      0x00\n        /* \"@openzeppelin/contracts/token/ERC20/ERC20.sol\":7677:7693  to != address(0) */\n      0xffffffffffffffffffffffffffffffffffffffff\n      and\n        /* \"@openzeppelin/contracts/token/ERC20/ERC20.sol\":7677:7679  to */\n      dup3\n        /* \"@openzeppelin/contracts/token/ERC20/ERC20.sol\":7677:7693  to != address(0) */\n      0xffffffffffffffffffffffffffffffffffffffff\n      and\n      sub\n        /* \"@openzeppelin/contracts/token/ERC20/ERC20.sol\":7669:7733  require(to != address(0), \"ERC20: transfer to the zero address\") */\n      tag_278\n      jumpi\n      mload(0x40)\n      0x08c379a000000000000000000000000000000000000000000000000000000000\n      dup2\n      mstore\n      0x04\n      add\n      tag_279\n      swap1\n      tag_280\n      jump\t// in\n    tag_279:\n      mload(0x40)\n      dup1\n      swap2\n      sub\n      swap1\n      revert\n    tag_278:\n        /* \"@openzeppelin/contracts/token/ERC20/ERC20.sol\":7744:7782  _beforeTokenTransfer(from, to, amount) */\n      tag_281\n        /* \"@openzeppelin/contracts/token/ERC20/ERC20.sol\":7765:7769  from */\n      dup4\n        /* \"@openzeppelin/contracts/token/ERC20/ERC20.sol\":7771:7773  to */\n      dup4\n        /* \"@openzeppelin/contracts/token/ERC20/ERC20.sol\":7775:7781  amount */\n      dup4\n        /* \"@openzeppelin/contracts/token/ERC20/ERC20.sol\":7744:7764  _beforeTokenTransfer */\n      tag_282\n        /* \"@openzeppelin/contracts/token/ERC20/ERC20.sol\":7744:7782  _beforeTokenTransfer(from, to, amount) */\n      jump\t// in\n    tag_281:\n        /* \"@openzeppelin/contracts/token/ERC20/ERC20.sol\":7793:7812  uint256 fromBalance */\n      0x00\n        /* \"@openzeppelin/contracts/token/ERC20/ERC20.sol\":7815:7824  _balances */\n      dup1\n        /* \"@openzeppelin/contracts/token/ERC20/ERC20.sol\":7815:7830  _balances[from] */\n      0x00\n        /* \"@openzeppelin/contracts/token/ERC20/ERC20.sol\":7825:7829  from */\n      dup6\n        /* \"@openzeppelin/contracts/token/ERC20/ERC20.sol\":7815:7830  _balances[from] */\n      0xffffffffffffffffffffffffffffffffffffffff\n      and\n      0xffffffffffffffffffffffffffffffffffffffff\n      and\n      dup2\n      mstore\n      0x20\n      add\n      swap1\n      dup2\n      mstore\n      0x20\n      add\n      0x00\n      keccak256\n      sload\n        /* \"@openzeppelin/contracts/token/ERC20/ERC20.sol\":7793:7830  uint256 fromBalance = _balances[from] */\n      swap1\n      pop\n        /* \"@openzeppelin/contracts/token/ERC20/ERC20.sol\":7863:7869  amount */\n      dup2\n        /* \"@openzeppelin/contracts/token/ERC20/ERC20.sol\":7848:7859  fromBalance */\n      dup2\n        /* \"@openzeppelin/contracts/token/ERC20/ERC20.sol\":7848:7869  fromBalance >= amount */\n      lt\n      iszero\n        /* \"@openzeppelin/contracts/token/ERC20/ERC20.sol\":7840:7912  require(fromBalance >= amount, \"ERC20: transfer amount exceeds balance\") */\n      tag_283\n      jumpi\n      mload(0x40)\n      0x08c379a000000000000000000000000000000000000000000000000000000000\n      dup2\n      mstore\n      0x04\n      add\n      tag_284\n      swap1\n      tag_285\n      jump\t// in\n    tag_284:\n      mload(0x40)\n      dup1\n      swap2\n      sub\n      swap1\n      revert\n    tag_283:\n        /* \"@openzeppelin/contracts/token/ERC20/ERC20.sol\":7978:7984  amount */\n      dup2\n        /* \"@openzeppelin/contracts/token/ERC20/ERC20.sol\":7964:7975  fromBalance */\n      dup2\n        /* \"@openzeppelin/contracts/token/ERC20/ERC20.sol\":7964:7984  fromBalance - amount */\n      sub\n        /* \"@openzeppelin/contracts/token/ERC20/ERC20.sol\":7946:7955  _balances */\n      0x00\n        /* \"@openzeppelin/contracts/token/ERC20/ERC20.sol\":7946:7961  _balances[from] */\n      dup1\n        /* \"@openzeppelin/contracts/token/ERC20/ERC20.sol\":7956:7960  from */\n      dup7\n        /* \"@openzeppelin/contracts/token/ERC20/ERC20.sol\":7946:7961  _balances[from] */\n      0xffffffffffffffffffffffffffffffffffffffff\n      and\n      0xffffffffffffffffffffffffffffffffffffffff\n      and\n      dup2\n      mstore\n      0x20\n      add\n      swap1\n      dup2\n      mstore\n      0x20\n      add\n      0x00\n      keccak256\n        /* \"@openzeppelin/contracts/token/ERC20/ERC20.sol\":7946:7984  _balances[from] = fromBalance - amount */\n      dup2\n      swap1\n      sstore\n      pop\n        /* \"@openzeppelin/contracts/token/ERC20/ERC20.sol\":8178:8184  amount */\n      dup2\n        /* \"@openzeppelin/contracts/token/ERC20/ERC20.sol\":8161:8170  _balances */\n      0x00\n        /* \"@openzeppelin/contracts/token/ERC20/ERC20.sol\":8161:8174  _balances[to] */\n      dup1\n        /* \"@openzeppelin/contracts/token/ERC20/ERC20.sol\":8171:8173  to */\n      dup6\n        /* \"@openzeppelin/contracts/token/ERC20/ERC20.sol\":8161:8174  _balances[to] */\n      0xffffffffffffffffffffffffffffffffffffffff\n      and\n      0xffffffffffffffffffffffffffffffffffffffff\n      and\n      dup2\n      mstore\n      0x20\n      add\n      swap1\n      dup2\n      mstore\n      0x20\n      add\n      0x00\n      keccak256\n      0x00\n        /* \"@openzeppelin/contracts/token/ERC20/ERC20.sol\":8161:8184  _balances[to] += amount */\n      dup3\n      dup3\n      sload\n      add\n      swap3\n      pop\n      pop\n      dup2\n      swap1\n      sstore\n      pop\n        /* \"@openzeppelin/contracts/token/ERC20/ERC20.sol\":8225:8227  to */\n      dup3\n        /* \"@openzeppelin/contracts/token/ERC20/ERC20.sol\":8210:8236  Transfer(from, to, amount) */\n      0xffffffffffffffffffffffffffffffffffffffff\n      and\n        /* \"@openzeppelin/contracts/token/ERC20/ERC20.sol\":8219:8223  from */\n      dup5\n        /* \"@openzeppelin/contracts/token/ERC20/ERC20.sol\":8210:8236  Transfer(from, to, amount) */\n      0xffffffffffffffffffffffffffffffffffffffff\n      and\n      0xddf252ad1be2c89b69c2b068fc378daa952ba7f163c4a11628f55a4df523b3ef\n        /* \"@openzeppelin/contracts/token/ERC20/ERC20.sol\":8229:8235  amount */\n      dup5\n        /* \"@openzeppelin/contracts/token/ERC20/ERC20.sol\":8210:8236  Transfer(from, to, amount) */\n      mload(0x40)\n      tag_286\n      swap2\n      swap1\n      tag_43\n      jump\t// in\n    tag_286:\n      mload(0x40)\n      dup1\n      swap2\n      sub\n      swap1\n      log3\n        /* \"@openzeppelin/contracts/token/ERC20/ERC20.sol\":8247:8284  _afterTokenTransfer(from, to, amount) */\n      tag_287\n        /* \"@openzeppelin/contracts/token/ERC20/ERC20.sol\":8267:8271  from */\n      dup5\n        /* \"@openzeppelin/contracts/token/ERC20/ERC20.sol\":8273:8275  to */\n      dup5\n        /* \"@openzeppelin/contracts/token/ERC20/ERC20.sol\":8277:8283  amount */\n      dup5\n        /* \"@openzeppelin/contracts/token/ERC20/ERC20.sol\":8247:8266  _afterTokenTransfer */\n      tag_288\n        /* \"@openzeppelin/contracts/token/ERC20/ERC20.sol\":8247:8284  _afterTokenTransfer(from, to, amount) */\n      jump\t// in\n    tag_287:\n        /* \"@openzeppelin/contracts/token/ERC20/ERC20.sol\":7581:8291  {... */\n      pop\n        /* \"@openzeppelin/contracts/token/ERC20/ERC20.sol\":7473:8291  function _transfer(... */\n      pop\n      pop\n      pop\n      jump\t// out\n        /* \"@openzeppelin/contracts/token/ERC20/ERC20.sol\":8567:9102  function _mint(address account, uint256 amount) internal virtual {... */\n    tag_187:\n        /* \"@openzeppelin/contracts/token/ERC20/ERC20.sol\":8669:8670  0 */\n      0x00\n        /* \"@openzeppelin/contracts/token/ERC20/ERC20.sol\":8650:8671  account != address(0) */\n      0xffffffffffffffffffffffffffffffffffffffff\n      and\n        /* \"@openzeppelin/contracts/token/ERC20/ERC20.sol\":8650:8657  account */\n      dup3\n        /* \"@openzeppelin/contracts/token/ERC20/ERC20.sol\":8650:8671  account != address(0) */\n      0xffffffffffffffffffffffffffffffffffffffff\n      and\n      sub\n        /* \"@openzeppelin/contracts/token/ERC20/ERC20.sol\":8642:8707  require(account != address(0), \"ERC20: mint to the zero address\") */\n      tag_290\n      jumpi\n      mload(0x40)\n      0x08c379a000000000000000000000000000000000000000000000000000000000\n      dup2\n      mstore\n      0x04\n      add\n      tag_291\n      swap1\n      tag_292\n      jump\t// in\n    tag_291:\n      mload(0x40)\n      dup1\n      swap2\n      sub\n      swap1\n      revert\n    tag_290:\n        /* \"@openzeppelin/contracts/token/ERC20/ERC20.sol\":8718:8767  _beforeTokenTransfer(address(0), account, amount) */\n      tag_293\n        /* \"@openzeppelin/contracts/token/ERC20/ERC20.sol\":8747:8748  0 */\n      0x00\n        /* \"@openzeppelin/contracts/token/ERC20/ERC20.sol\":8751:8758  account */\n      dup4\n        /* \"@openzeppelin/contracts/token/ERC20/ERC20.sol\":8760:8766  amount */\n      dup4\n        /* \"@openzeppelin/contracts/token/ERC20/ERC20.sol\":8718:8738  _beforeTokenTransfer */\n      tag_282\n        /* \"@openzeppelin/contracts/token/ERC20/ERC20.sol\":8718:8767  _beforeTokenTransfer(address(0), account, amount) */\n      jump\t// in\n    tag_293:\n        /* \"@openzeppelin/contracts/token/ERC20/ERC20.sol\":8794:8800  amount */\n      dup1\n        /* \"@openzeppelin/contracts/token/ERC20/ERC20.sol\":8778:8790  _totalSupply */\n      0x02\n      0x00\n        /* \"@openzeppelin/contracts/token/ERC20/ERC20.sol\":8778:8800  _totalSupply += amount */\n      dup3\n      dup3\n      sload\n      tag_294\n      swap2\n      swap1\n      tag_159\n      jump\t// in\n    tag_294:\n      swap3\n      pop\n      pop\n      dup2\n      swap1\n      sstore\n      pop\n        /* \"@openzeppelin/contracts/token/ERC20/ERC20.sol\":8968:8974  amount */\n      dup1\n        /* \"@openzeppelin/contracts/token/ERC20/ERC20.sol\":8946:8955  _balances */\n      0x00\n        /* \"@openzeppelin/contracts/token/ERC20/ERC20.sol\":8946:8964  _balances[account] */\n      dup1\n        /* \"@openzeppelin/contracts/token/ERC20/ERC20.sol\":8956:8963  account */\n      dup5\n        /* \"@openzeppelin/contracts/token/ERC20/ERC20.sol\":8946:8964  _balances[account] */\n      0xffffffffffffffffffffffffffffffffffffffff\n      and\n      0xffffffffffffffffffffffffffffffffffffffff\n      and\n      dup2\n      mstore\n      0x20\n      add\n      swap1\n      dup2\n      mstore\n      0x20\n      add\n      0x00\n      keccak256\n      0x00\n        /* \"@openzeppelin/contracts/token/ERC20/ERC20.sol\":8946:8974  _balances[account] += amount */\n      dup3\n      dup3\n      sload\n      add\n      swap3\n      pop\n      pop\n      dup2\n      swap1\n      sstore\n      pop\n        /* \"@openzeppelin/contracts/token/ERC20/ERC20.sol\":9020:9027  account */\n      dup2\n        /* \"@openzeppelin/contracts/token/ERC20/ERC20.sol\":8999:9036  Transfer(address(0), account, amount) */\n      0xffffffffffffffffffffffffffffffffffffffff\n      and\n        /* \"@openzeppelin/contracts/token/ERC20/ERC20.sol\":9016:9017  0 */\n      0x00\n        /* \"@openzeppelin/contracts/token/ERC20/ERC20.sol\":8999:9036  Transfer(address(0), account, amount) */\n      0xffffffffffffffffffffffffffffffffffffffff\n      and\n      0xddf252ad1be2c89b69c2b068fc378daa952ba7f163c4a11628f55a4df523b3ef\n        /* \"@openzeppelin/contracts/token/ERC20/ERC20.sol\":9029:9035  amount */\n      dup4\n        /* \"@openzeppelin/contracts/token/ERC20/ERC20.sol\":8999:9036  Transfer(address(0), account, amount) */\n      mload(0x40)\n      tag_295\n      swap2\n      swap1\n      tag_43\n      jump\t// in\n    tag_295:\n      mload(0x40)\n      dup1\n      swap2\n      sub\n      swap1\n      log3\n        /* \"@openzeppelin/contracts/token/ERC20/ERC20.sol\":9047:9095  _afterTokenTransfer(address(0), account, amount) */\n      tag_296\n        /* \"@openzeppelin/contracts/token/ERC20/ERC20.sol\":9075:9076  0 */\n      0x00\n        /* \"@openzeppelin/contracts/token/ERC20/ERC20.sol\":9079:9086  account */\n      dup4\n        /* \"@openzeppelin/contracts/token/ERC20/ERC20.sol\":9088:9094  amount */\n      dup4\n        /* \"@openzeppelin/contracts/token/ERC20/ERC20.sol\":9047:9066  _afterTokenTransfer */\n      tag_288\n        /* \"@openzeppelin/contracts/token/ERC20/ERC20.sol\":9047:9095  _afterTokenTransfer(address(0), account, amount) */\n      jump\t// in\n    tag_296:\n        /* \"@openzeppelin/contracts/token/ERC20/ERC20.sol\":8567:9102  function _mint(address account, uint256 amount) internal virtual {... */\n      pop\n      pop\n      jump\t// out\n        /* \"@openzeppelin/contracts/utils/cryptography/MerkleProof.sol\":1156:1340  function verify(... */\n    tag_200:\n        /* \"@openzeppelin/contracts/utils/cryptography/MerkleProof.sol\":1277:1281  bool */\n      0x00\n        /* \"@openzeppelin/contracts/utils/cryptography/MerkleProof.sol\":1329:1333  root */\n      dup3\n        /* \"@openzeppelin/contracts/utils/cryptography/MerkleProof.sol\":1300:1325  processProof(proof, leaf) */\n      tag_298\n        /* \"@openzeppelin/contracts/utils/cryptography/MerkleProof.sol\":1313:1318  proof */\n      dup6\n        /* \"@openzeppelin/contracts/utils/cryptography/MerkleProof.sol\":1320:1324  leaf */\n      dup5\n        /* \"@openzeppelin/contracts/utils/cryptography/MerkleProof.sol\":1300:1312  processProof */\n      tag_299\n        /* \"@openzeppelin/contracts/utils/cryptography/MerkleProof.sol\":1300:1325  processProof(proof, leaf) */\n      jump\t// in\n    tag_298:\n        /* \"@openzeppelin/contracts/utils/cryptography/MerkleProof.sol\":1300:1333  processProof(proof, leaf) == root */\n      eq\n        /* \"@openzeppelin/contracts/utils/cryptography/MerkleProof.sol\":1293:1333  return processProof(proof, leaf) == root */\n      swap1\n      pop\n        /* \"@openzeppelin/contracts/utils/cryptography/MerkleProof.sol\":1156:1340  function verify(... */\n      swap4\n      swap3\n      pop\n      pop\n      pop\n      jump\t// out\n        /* \"@openzeppelin/contracts/token/ERC20/ERC20.sol\":9422:10081  function _burn(address account, uint256 amount) internal virtual {... */\n    tag_209:\n        /* \"@openzeppelin/contracts/token/ERC20/ERC20.sol\":9524:9525  0 */\n      0x00\n        /* \"@openzeppelin/contracts/token/ERC20/ERC20.sol\":9505:9526  account != address(0) */\n      0xffffffffffffffffffffffffffffffffffffffff\n      and\n        /* \"@openzeppelin/contracts/token/ERC20/ERC20.sol\":9505:9512  account */\n      dup3\n        /* \"@openzeppelin/contracts/token/ERC20/ERC20.sol\":9505:9526  account != address(0) */\n      0xffffffffffffffffffffffffffffffffffffffff\n      and\n      sub\n        /* \"@openzeppelin/contracts/token/ERC20/ERC20.sol\":9497:9564  require(account != address(0), \"ERC20: burn from the zero address\") */\n      tag_301\n      jumpi\n      mload(0x40)\n      0x08c379a000000000000000000000000000000000000000000000000000000000\n      dup2\n      mstore\n      0x04\n      add\n      tag_302\n      swap1\n      tag_303\n      jump\t// in\n    tag_302:\n      mload(0x40)\n      dup1\n      swap2\n      sub\n      swap1\n      revert\n    tag_301:\n        /* \"@openzeppelin/contracts/token/ERC20/ERC20.sol\":9575:9624  _beforeTokenTransfer(account, address(0), amount) */\n      tag_304\n        /* \"@openzeppelin/contracts/token/ERC20/ERC20.sol\":9596:9603  account */\n      dup3\n        /* \"@openzeppelin/contracts/token/ERC20/ERC20.sol\":9613:9614  0 */\n      0x00\n        /* \"@openzeppelin/contracts/token/ERC20/ERC20.sol\":9617:9623  amount */\n      dup4\n        /* \"@openzeppelin/contracts/token/ERC20/ERC20.sol\":9575:9595  _beforeTokenTransfer */\n      tag_282\n        /* \"@openzeppelin/contracts/token/ERC20/ERC20.sol\":9575:9624  _beforeTokenTransfer(account, address(0), amount) */\n      jump\t// in\n    tag_304:\n        /* \"@openzeppelin/contracts/token/ERC20/ERC20.sol\":9635:9657  uint256 accountBalance */\n      0x00\n        /* \"@openzeppelin/contracts/token/ERC20/ERC20.sol\":9660:9669  _balances */\n      dup1\n        /* \"@openzeppelin/contracts/token/ERC20/ERC20.sol\":9660:9678  _balances[account] */\n      0x00\n        /* \"@openzeppelin/contracts/token/ERC20/ERC20.sol\":9670:9677  account */\n      dup5\n        /* \"@openzeppelin/contracts/token/ERC20/ERC20.sol\":9660:9678  _balances[account] */\n      0xffffffffffffffffffffffffffffffffffffffff\n      and\n      0xffffffffffffffffffffffffffffffffffffffff\n      and\n      dup2\n      mstore\n      0x20\n      add\n      swap1\n      dup2\n      mstore\n      0x20\n      add\n      0x00\n      keccak256\n      sload\n        /* \"@openzeppelin/contracts/token/ERC20/ERC20.sol\":9635:9678  uint256 accountBalance = _balances[account] */\n      swap1\n      pop\n        /* \"@openzeppelin/contracts/token/ERC20/ERC20.sol\":9714:9720  amount */\n      dup2\n        /* \"@openzeppelin/contracts/token/ERC20/ERC20.sol\":9696:9710  accountBalance */\n      dup2\n        /* \"@openzeppelin/contracts/token/ERC20/ERC20.sol\":9696:9720  accountBalance >= amount */\n      lt\n      iszero\n        /* \"@openzeppelin/contracts/token/ERC20/ERC20.sol\":9688:9759  require(accountBalance >= amount, \"ERC20: burn amount exceeds balance\") */\n      tag_305\n      jumpi\n      mload(0x40)\n      0x08c379a000000000000000000000000000000000000000000000000000000000\n      dup2\n      mstore\n      0x04\n      add\n      tag_306\n      swap1\n      tag_307\n      jump\t// in\n    tag_306:\n      mload(0x40)\n      dup1\n      swap2\n      sub\n      swap1\n      revert\n    tag_305:\n        /* \"@openzeppelin/contracts/token/ERC20/ERC20.sol\":9831:9837  amount */\n      dup2\n        /* \"@openzeppelin/contracts/token/ERC20/ERC20.sol\":9814:9828  accountBalance */\n      dup2\n        /* \"@openzeppelin/contracts/token/ERC20/ERC20.sol\":9814:9837  accountBalance - amount */\n      sub\n        /* \"@openzeppelin/contracts/token/ERC20/ERC20.sol\":9793:9802  _balances */\n      0x00\n        /* \"@openzeppelin/contracts/token/ERC20/ERC20.sol\":9793:9811  _balances[account] */\n      dup1\n        /* \"@openzeppelin/contracts/token/ERC20/ERC20.sol\":9803:9810  account */\n      dup6\n        /* \"@openzeppelin/contracts/token/ERC20/ERC20.sol\":9793:9811  _balances[account] */\n      0xffffffffffffffffffffffffffffffffffffffff\n      and\n      0xffffffffffffffffffffffffffffffffffffffff\n      and\n      dup2\n      mstore\n      0x20\n      add\n      swap1\n      dup2\n      mstore\n      0x20\n      add\n      0x00\n      keccak256\n        /* \"@openzeppelin/contracts/token/ERC20/ERC20.sol\":9793:9837  _balances[account] = accountBalance - amount */\n      dup2\n      swap1\n      sstore\n      pop\n        /* \"@openzeppelin/contracts/token/ERC20/ERC20.sol\":9946:9952  amount */\n      dup2\n        /* \"@openzeppelin/contracts/token/ERC20/ERC20.sol\":9930:9942  _totalSupply */\n      0x02\n      0x00\n        /* \"@openzeppelin/contracts/token/ERC20/ERC20.sol\":9930:9952  _totalSupply -= amount */\n      dup3\n      dup3\n      sload\n      sub\n      swap3\n      pop\n      pop\n      dup2\n      swap1\n      sstore\n      pop\n        /* \"@openzeppelin/contracts/token/ERC20/ERC20.sol\":10004:10005  0 */\n      0x00\n        /* \"@openzeppelin/contracts/token/ERC20/ERC20.sol\":9978:10015  Transfer(account, address(0), amount) */\n      0xffffffffffffffffffffffffffffffffffffffff\n      and\n        /* \"@openzeppelin/contracts/token/ERC20/ERC20.sol\":9987:9994  account */\n      dup4\n        /* \"@openzeppelin/contracts/token/ERC20/ERC20.sol\":9978:10015  Transfer(account, address(0), amount) */\n      0xffffffffffffffffffffffffffffffffffffffff\n      and\n      0xddf252ad1be2c89b69c2b068fc378daa952ba7f163c4a11628f55a4df523b3ef\n        /* \"@openzeppelin/contracts/token/ERC20/ERC20.sol\":10008:10014  amount */\n      dup5\n        /* \"@openzeppelin/contracts/token/ERC20/ERC20.sol\":9978:10015  Transfer(account, address(0), amount) */\n      mload(0x40)\n      tag_308\n      swap2\n      swap1\n      tag_43\n      jump\t// in\n    tag_308:\n      mload(0x40)\n      dup1\n      swap2\n      sub\n      swap1\n      log3\n        /* \"@openzeppelin/contracts/token/ERC20/ERC20.sol\":10026:10074  _afterTokenTransfer(account, address(0), amount) */\n      tag_309\n        /* \"@openzeppelin/contracts/token/ERC20/ERC20.sol\":10046:10053  account */\n      dup4\n        /* \"@openzeppelin/contracts/token/ERC20/ERC20.sol\":10063:10064  0 */\n      0x00\n        /* \"@openzeppelin/contracts/token/ERC20/ERC20.sol\":10067:10073  amount */\n      dup5\n        /* \"@openzeppelin/contracts/token/ERC20/ERC20.sol\":10026:10045  _afterTokenTransfer */\n      tag_288\n        /* \"@openzeppelin/contracts/token/ERC20/ERC20.sol\":10026:10074  _afterTokenTransfer(account, address(0), amount) */\n      jump\t// in\n    tag_309:\n        /* \"@openzeppelin/contracts/token/ERC20/ERC20.sol\":9487:10081  {... */\n      pop\n        /* \"@openzeppelin/contracts/token/ERC20/ERC20.sol\":9422:10081  function _burn(address account, uint256 amount) internal virtual {... */\n      pop\n      pop\n      jump\t// out\n        /* \"@openzeppelin/contracts/token/ERC20/ERC20.sol\":12180:12301  function _beforeTokenTransfer(... */\n    tag_282:\n      pop\n      pop\n      pop\n      jump\t// out\n        /* \"@openzeppelin/contracts/token/ERC20/ERC20.sol\":12889:13009  function _afterTokenTransfer(... */\n    tag_288:\n      pop\n      pop\n      pop\n      jump\t// out\n        /* \"@openzeppelin/contracts/utils/cryptography/MerkleProof.sol\":1994:2284  function processProof(bytes32[] memory proof, bytes32 leaf) internal pure returns (bytes32) {... */\n    tag_299:\n        /* \"@openzeppelin/contracts/utils/cryptography/MerkleProof.sol\":2077:2084  bytes32 */\n      0x00\n        /* \"@openzeppelin/contracts/utils/cryptography/MerkleProof.sol\":2096:2116  bytes32 computedHash */\n      dup1\n        /* \"@openzeppelin/contracts/utils/cryptography/MerkleProof.sol\":2119:2123  leaf */\n      dup3\n        /* \"@openzeppelin/contracts/utils/cryptography/MerkleProof.sol\":2096:2123  bytes32 computedHash = leaf */\n      swap1\n      pop\n        /* \"@openzeppelin/contracts/utils/cryptography/MerkleProof.sol\":2138:2147  uint256 i */\n      0x00\n        /* \"@openzeppelin/contracts/utils/cryptography/MerkleProof.sol\":2133:2249  for (uint256 i = 0; i < proof.length; i++) {... */\n    tag_313:\n        /* \"@openzeppelin/contracts/utils/cryptography/MerkleProof.sol\":2157:2162  proof */\n      dup5\n        /* \"@openzeppelin/contracts/utils/cryptography/MerkleProof.sol\":2157:2169  proof.length */\n      mload\n        /* \"@openzeppelin/contracts/utils/cryptography/MerkleProof.sol\":2153:2154  i */\n      dup2\n        /* \"@openzeppelin/contracts/utils/cryptography/MerkleProof.sol\":2153:2169  i < proof.length */\n      lt\n        /* \"@openzeppelin/contracts/utils/cryptography/MerkleProof.sol\":2133:2249  for (uint256 i = 0; i < proof.length; i++) {... */\n      iszero\n      tag_314\n      jumpi\n        /* \"@openzeppelin/contracts/utils/cryptography/MerkleProof.sol\":2205:2238  _hashPair(computedHash, proof[i]) */\n      tag_316\n        /* \"@openzeppelin/contracts/utils/cryptography/MerkleProof.sol\":2215:2227  computedHash */\n      dup3\n        /* \"@openzeppelin/contracts/utils/cryptography/MerkleProof.sol\":2229:2234  proof */\n      dup7\n        /* \"@openzeppelin/contracts/utils/cryptography/MerkleProof.sol\":2235:2236  i */\n      dup4\n        /* \"@openzeppelin/contracts/utils/cryptography/MerkleProof.sol\":2229:2237  proof[i] */\n      dup2\n      mload\n      dup2\n      lt\n      tag_317\n      jumpi\n      tag_318\n      tag_319\n      jump\t// in\n    tag_318:\n    tag_317:\n      0x20\n      mul\n      0x20\n      add\n      add\n      mload\n        /* \"@openzeppelin/contracts/utils/cryptography/MerkleProof.sol\":2205:2214  _hashPair */\n      tag_320\n        /* \"@openzeppelin/contracts/utils/cryptography/MerkleProof.sol\":2205:2238  _hashPair(computedHash, proof[i]) */\n      jump\t// in\n    tag_316:\n        /* \"@openzeppelin/contracts/utils/cryptography/MerkleProof.sol\":2190:2238  computedHash = _hashPair(computedHash, proof[i]) */\n      swap2\n      pop\n        /* \"@openzeppelin/contracts/utils/cryptography/MerkleProof.sol\":2171:2174  i++ */\n      dup1\n      dup1\n      tag_321\n      swap1\n      tag_322\n      jump\t// in\n    tag_321:\n      swap2\n      pop\n      pop\n        /* \"@openzeppelin/contracts/utils/cryptography/MerkleProof.sol\":2133:2249  for (uint256 i = 0; i < proof.length; i++) {... */\n      jump(tag_313)\n    tag_314:\n      pop\n        /* \"@openzeppelin/contracts/utils/cryptography/MerkleProof.sol\":2265:2277  computedHash */\n      dup1\n        /* \"@openzeppelin/contracts/utils/cryptography/MerkleProof.sol\":2258:2277  return computedHash */\n      swap2\n      pop\n      pop\n        /* \"@openzeppelin/contracts/utils/cryptography/MerkleProof.sol\":1994:2284  function processProof(bytes32[] memory proof, bytes32 leaf) internal pure returns (bytes32) {... */\n      swap3\n      swap2\n      pop\n      pop\n      jump\t// out\n        /* \"@openzeppelin/contracts/utils/cryptography/MerkleProof.sol\":8879:9026  function _hashPair(bytes32 a, bytes32 b) private pure returns (bytes32) {... */\n    tag_320:\n        /* \"@openzeppelin/contracts/utils/cryptography/MerkleProof.sol\":8942:8949  bytes32 */\n      0x00\n        /* \"@openzeppelin/contracts/utils/cryptography/MerkleProof.sol\":8972:8973  b */\n      dup2\n        /* \"@openzeppelin/contracts/utils/cryptography/MerkleProof.sol\":8968:8969  a */\n      dup4\n        /* \"@openzeppelin/contracts/utils/cryptography/MerkleProof.sol\":8968:8973  a < b */\n      lt\n        /* \"@openzeppelin/contracts/utils/cryptography/MerkleProof.sol\":8968:9019  a < b ? _efficientHash(a, b) : _efficientHash(b, a) */\n      tag_324\n      jumpi\n        /* \"@openzeppelin/contracts/utils/cryptography/MerkleProof.sol\":8999:9019  _efficientHash(b, a) */\n      tag_325\n        /* \"@openzeppelin/contracts/utils/cryptography/MerkleProof.sol\":9014:9015  b */\n      dup3\n        /* \"@openzeppelin/contracts/utils/cryptography/MerkleProof.sol\":9017:9018  a */\n      dup5\n        /* \"@openzeppelin/contracts/utils/cryptography/MerkleProof.sol\":8999:9013  _efficientHash */\n      tag_326\n        /* \"@openzeppelin/contracts/utils/cryptography/MerkleProof.sol\":8999:9019  _efficientHash(b, a) */\n      jump\t// in\n    tag_325:\n        /* \"@openzeppelin/contracts/utils/cryptography/MerkleProof.sol\":8968:9019  a < b ? _efficientHash(a, b) : _efficientHash(b, a) */\n      jump(tag_327)\n    tag_324:\n        /* \"@openzeppelin/contracts/utils/cryptography/MerkleProof.sol\":8976:8996  _efficientHash(a, b) */\n      tag_328\n        /* \"@openzeppelin/contracts/utils/cryptography/MerkleProof.sol\":8991:8992  a */\n      dup4\n        /* \"@openzeppelin/contracts/utils/cryptography/MerkleProof.sol\":8994:8995  b */\n      dup4\n        /* \"@openzeppelin/contracts/utils/cryptography/MerkleProof.sol\":8976:8990  _efficientHash */\n      tag_326\n        /* \"@openzeppelin/contracts/utils/cryptography/MerkleProof.sol\":8976:8996  _efficientHash(a, b) */\n      jump\t// in\n    tag_328:\n        /* \"@openzeppelin/contracts/utils/cryptography/MerkleProof.sol\":8968:9019  a < b ? _efficientHash(a, b) : _efficientHash(b, a) */\n    tag_327:\n        /* \"@openzeppelin/contracts/utils/cryptography/MerkleProof.sol\":8961:9019  return a < b ? _efficientHash(a, b) : _efficientHash(b, a) */\n      swap1\n      pop\n        /* \"@openzeppelin/contracts/utils/cryptography/MerkleProof.sol\":8879:9026  function _hashPair(bytes32 a, bytes32 b) private pure returns (bytes32) {... */\n      swap3\n      swap2\n      pop\n      pop\n      jump\t// out\n        /* \"@openzeppelin/contracts/utils/cryptography/MerkleProof.sol\":9032:9293  function _efficientHash(bytes32 a, bytes32 b) private pure returns (bytes32 value) {... */\n    tag_326:\n        /* \"@openzeppelin/contracts/utils/cryptography/MerkleProof.sol\":9100:9113  bytes32 value */\n      0x00\n        /* \"@openzeppelin/contracts/utils/cryptography/MerkleProof.sol\":9204:9205  a */\n      dup3\n        /* \"@openzeppelin/contracts/utils/cryptography/MerkleProof.sol\":9198:9202  0x00 */\n      0x00\n        /* \"@openzeppelin/contracts/utils/cryptography/MerkleProof.sol\":9191:9206  mstore(0x00, a) */\n      mstore\n        /* \"@openzeppelin/contracts/utils/cryptography/MerkleProof.sol\":9232:9233  b */\n      dup2\n        /* \"@openzeppelin/contracts/utils/cryptography/MerkleProof.sol\":9226:9230  0x20 */\n      0x20\n        /* \"@openzeppelin/contracts/utils/cryptography/MerkleProof.sol\":9219:9234  mstore(0x20, b) */\n      mstore\n        /* \"@openzeppelin/contracts/utils/cryptography/MerkleProof.sol\":9272:9276  0x40 */\n      0x40\n        /* \"@openzeppelin/contracts/utils/cryptography/MerkleProof.sol\":9266:9270  0x00 */\n      0x00\n        /* \"@openzeppelin/contracts/utils/cryptography/MerkleProof.sol\":9256:9277  keccak256(0x00, 0x40) */\n      keccak256\n        /* \"@openzeppelin/contracts/utils/cryptography/MerkleProof.sol\":9247:9277  value := keccak256(0x00, 0x40) */\n      swap1\n      pop\n        /* \"@openzeppelin/contracts/utils/cryptography/MerkleProof.sol\":9032:9293  function _efficientHash(bytes32 a, bytes32 b) private pure returns (bytes32 value) {... */\n      swap3\n      swap2\n      pop\n      pop\n      jump\t// out\n        /* \"#utility.yul\":7:106   */\n    tag_330:\n        /* \"#utility.yul\":59:65   */\n      0x00\n        /* \"#utility.yul\":93:98   */\n      dup2\n        /* \"#utility.yul\":87:99   */\n      mload\n        /* \"#utility.yul\":77:99   */\n      swap1\n      pop\n        /* \"#utility.yul\":7:106   */\n      swap2\n      swap1\n      pop\n      jump\t// out\n        /* \"#utility.yul\":112:281   */\n    tag_331:\n        /* \"#utility.yul\":196:207   */\n      0x00\n        /* \"#utility.yul\":230:236   */\n      dup3\n        /* \"#utility.yul\":225:228   */\n      dup3\n        /* \"#utility.yul\":218:237   */\n      mstore\n        /* \"#utility.yul\":270:274   */\n      0x20\n        /* \"#utility.yul\":265:268   */\n      dup3\n        /* \"#utility.yul\":261:275   */\n      add\n        /* \"#utility.yul\":246:275   */\n      swap1\n      pop\n        /* \"#utility.yul\":112:281   */\n      swap3\n      swap2\n      pop\n      pop\n      jump\t// out\n        /* \"#utility.yul\":287:533   */\n    tag_332:\n        /* \"#utility.yul\":368:369   */\n      0x00\n        /* \"#utility.yul\":378:491   */\n    tag_408:\n        /* \"#utility.yul\":392:398   */\n      dup4\n        /* \"#utility.yul\":389:390   */\n      dup2\n        /* \"#utility.yul\":386:399   */\n      lt\n        /* \"#utility.yul\":378:491   */\n      iszero\n      tag_410\n      jumpi\n        /* \"#utility.yul\":477:478   */\n      dup1\n        /* \"#utility.yul\":472:475   */\n      dup3\n        /* \"#utility.yul\":468:479   */\n      add\n        /* \"#utility.yul\":462:480   */\n      mload\n        /* \"#utility.yul\":458:459   */\n      dup2\n        /* \"#utility.yul\":453:456   */\n      dup5\n        /* \"#utility.yul\":449:460   */\n      add\n        /* \"#utility.yul\":442:481   */\n      mstore\n        /* \"#utility.yul\":414:416   */\n      0x20\n        /* \"#utility.yul\":411:412   */\n      dup2\n        /* \"#utility.yul\":407:417   */\n      add\n        /* \"#utility.yul\":402:417   */\n      swap1\n      pop\n        /* \"#utility.yul\":378:491   */\n      jump(tag_408)\n    tag_410:\n        /* \"#utility.yul\":525:526   */\n      0x00\n        /* \"#utility.yul\":516:522   */\n      dup5\n        /* \"#utility.yul\":511:514   */\n      dup5\n        /* \"#utility.yul\":507:523   */\n      add\n        /* \"#utility.yul\":500:527   */\n      mstore\n        /* \"#utility.yul\":349:533   */\n      pop\n        /* \"#utility.yul\":287:533   */\n      pop\n      pop\n      pop\n      jump\t// out\n        /* \"#utility.yul\":539:641   */\n    tag_333:\n        /* \"#utility.yul\":580:586   */\n      0x00\n        /* \"#utility.yul\":631:633   */\n      0x1f\n        /* \"#utility.yul\":627:634   */\n      not\n        /* \"#utility.yul\":622:624   */\n      0x1f\n        /* \"#utility.yul\":615:620   */\n      dup4\n        /* \"#utility.yul\":611:625   */\n      add\n        /* \"#utility.yul\":607:635   */\n      and\n        /* \"#utility.yul\":597:635   */\n      swap1\n      pop\n        /* \"#utility.yul\":539:641   */\n      swap2\n      swap1\n      pop\n      jump\t// out\n        /* \"#utility.yul\":647:1024   */\n    tag_334:\n        /* \"#utility.yul\":735:738   */\n      0x00\n        /* \"#utility.yul\":763:802   */\n      tag_413\n        /* \"#utility.yul\":796:801   */\n      dup3\n        /* \"#utility.yul\":763:802   */\n      tag_330\n      jump\t// in\n    tag_413:\n        /* \"#utility.yul\":818:889   */\n      tag_414\n        /* \"#utility.yul\":882:888   */\n      dup2\n        /* \"#utility.yul\":877:880   */\n      dup6\n        /* \"#utility.yul\":818:889   */\n      tag_331\n      jump\t// in\n    tag_414:\n        /* \"#utility.yul\":811:889   */\n      swap4\n      pop\n        /* \"#utility.yul\":898:963   */\n      tag_415\n        /* \"#utility.yul\":956:962   */\n      dup2\n        /* \"#utility.yul\":951:954   */\n      dup6\n        /* \"#utility.yul\":944:948   */\n      0x20\n        /* \"#utility.yul\":937:942   */\n      dup7\n        /* \"#utility.yul\":933:949   */\n      add\n        /* \"#utility.yul\":898:963   */\n      tag_332\n      jump\t// in\n    tag_415:\n        /* \"#utility.yul\":988:1017   */\n      tag_416\n        /* \"#utility.yul\":1010:1016   */\n      dup2\n        /* \"#utility.yul\":988:1017   */\n      tag_333\n      jump\t// in\n    tag_416:\n        /* \"#utility.yul\":983:986   */\n      dup5\n        /* \"#utility.yul\":979:1018   */\n      add\n        /* \"#utility.yul\":972:1018   */\n      swap2\n      pop\n        /* \"#utility.yul\":739:1024   */\n      pop\n        /* \"#utility.yul\":647:1024   */\n      swap3\n      swap2\n      pop\n      pop\n      jump\t// out\n        /* \"#utility.yul\":1030:1343   */\n    tag_31:\n        /* \"#utility.yul\":1143:1147   */\n      0x00\n        /* \"#utility.yul\":1181:1183   */\n      0x20\n        /* \"#utility.yul\":1170:1179   */\n      dup3\n        /* \"#utility.yul\":1166:1184   */\n      add\n        /* \"#utility.yul\":1158:1184   */\n      swap1\n      pop\n        /* \"#utility.yul\":1230:1239   */\n      dup2\n        /* \"#utility.yul\":1224:1228   */\n      dup2\n        /* \"#utility.yul\":1220:1240   */\n      sub\n        /* \"#utility.yul\":1216:1217   */\n      0x00\n        /* \"#utility.yul\":1205:1214   */\n      dup4\n        /* \"#utility.yul\":1201:1218   */\n      add\n        /* \"#utility.yul\":1194:1241   */\n      mstore\n        /* \"#utility.yul\":1258:1336   */\n      tag_418\n        /* \"#utility.yul\":1331:1335   */\n      dup2\n        /* \"#utility.yul\":1322:1328   */\n      dup5\n        /* \"#utility.yul\":1258:1336   */\n      tag_334\n      jump\t// in\n    tag_418:\n        /* \"#utility.yul\":1250:1336   */\n      swap1\n      pop\n        /* \"#utility.yul\":1030:1343   */\n      swap3\n      swap2\n      pop\n      pop\n      jump\t// out\n        /* \"#utility.yul\":1349:1424   */\n    tag_335:\n        /* \"#utility.yul\":1382:1388   */\n      0x00\n        /* \"#utility.yul\":1415:1417   */\n      0x40\n        /* \"#utility.yul\":1409:1418   */\n      mload\n        /* \"#utility.yul\":1399:1418   */\n      swap1\n      pop\n        /* \"#utility.yul\":1349:1424   */\n      swap1\n      jump\t// out\n        /* \"#utility.yul\":1430:1547   */\n    tag_336:\n        /* \"#utility.yul\":1539:1540   */\n      0x00\n        /* \"#utility.yul\":1536:1537   */\n      dup1\n        /* \"#utility.yul\":1529:1541   */\n      revert\n        /* \"#utility.yul\":1553:1670   */\n    tag_337:\n        /* \"#utility.yul\":1662:1663   */\n      0x00\n        /* \"#utility.yul\":1659:1660   */\n      dup1\n        /* \"#utility.yul\":1652:1664   */\n      revert\n        /* \"#utility.yul\":1676:1802   */\n    tag_338:\n        /* \"#utility.yul\":1713:1720   */\n      0x00\n        /* \"#utility.yul\":1753:1795   */\n      0xffffffffffffffffffffffffffffffffffffffff\n        /* \"#utility.yul\":1746:1751   */\n      dup3\n        /* \"#utility.yul\":1742:1796   */\n      and\n        /* \"#utility.yul\":1731:1796   */\n      swap1\n      pop\n        /* \"#utility.yul\":1676:1802   */\n      swap2\n      swap1\n      pop\n      jump\t// out\n        /* \"#utility.yul\":1808:1904   */\n    tag_339:\n        /* \"#utility.yul\":1845:1852   */\n      0x00\n        /* \"#utility.yul\":1874:1898   */\n      tag_424\n        /* \"#utility.yul\":1892:1897   */\n      dup3\n        /* \"#utility.yul\":1874:1898   */\n      tag_338\n      jump\t// in\n    tag_424:\n        /* \"#utility.yul\":1863:1898   */\n      swap1\n      pop\n        /* \"#utility.yul\":1808:1904   */\n      swap2\n      swap1\n      pop\n      jump\t// out\n        /* \"#utility.yul\":1910:2032   */\n    tag_340:\n        /* \"#utility.yul\":1983:2007   */\n      tag_426\n        /* \"#utility.yul\":2001:2006   */\n      dup2\n        /* \"#utility.yul\":1983:2007   */\n      tag_339\n      jump\t// in\n    tag_426:\n        /* \"#utility.yul\":1976:1981   */\n      dup2\n        /* \"#utility.yul\":1973:2008   */\n      eq\n        /* \"#utility.yul\":1963:2026   */\n      tag_427\n      jumpi\n        /* \"#utility.yul\":2022:2023   */\n      0x00\n        /* \"#utility.yul\":2019:2020   */\n      dup1\n        /* \"#utility.yul\":2012:2024   */\n      revert\n        /* \"#utility.yul\":1963:2026   */\n    tag_427:\n        /* \"#utility.yul\":1910:2032   */\n      pop\n      jump\t// out\n        /* \"#utility.yul\":2038:2177   */\n    tag_341:\n        /* \"#utility.yul\":2084:2089   */\n      0x00\n        /* \"#utility.yul\":2122:2128   */\n      dup2\n        /* \"#utility.yul\":2109:2129   */\n      calldataload\n        /* \"#utility.yul\":2100:2129   */\n      swap1\n      pop\n        /* \"#utility.yul\":2138:2171   */\n      tag_429\n        /* \"#utility.yul\":2165:2170   */\n      dup2\n        /* \"#utility.yul\":2138:2171   */\n      tag_340\n      jump\t// in\n    tag_429:\n        /* \"#utility.yul\":2038:2177   */\n      swap3\n      swap2\n      pop\n      pop\n      jump\t// out\n        /* \"#utility.yul\":2183:2260   */\n    tag_342:\n        /* \"#utility.yul\":2220:2227   */\n      0x00\n        /* \"#utility.yul\":2249:2254   */\n      dup2\n        /* \"#utility.yul\":2238:2254   */\n      swap1\n      pop\n        /* \"#utility.yul\":2183:2260   */\n      swap2\n      swap1\n      pop\n      jump\t// out\n        /* \"#utility.yul\":2266:2388   */\n    tag_343:\n        /* \"#utility.yul\":2339:2363   */\n      tag_432\n        /* \"#utility.yul\":2357:2362   */\n      dup2\n        /* \"#utility.yul\":2339:2363   */\n      tag_342\n      jump\t// in\n    tag_432:\n        /* \"#utility.yul\":2332:2337   */\n      dup2\n        /* \"#utility.yul\":2329:2364   */\n      eq\n        /* \"#utility.yul\":2319:2382   */\n      tag_433\n      jumpi\n        /* \"#utility.yul\":2378:2379   */\n      0x00\n        /* \"#utility.yul\":2375:2376   */\n      dup1\n        /* \"#utility.yul\":2368:2380   */\n      revert\n        /* \"#utility.yul\":2319:2382   */\n    tag_433:\n        /* \"#utility.yul\":2266:2388   */\n      pop\n      jump\t// out\n        /* \"#utility.yul\":2394:2533   */\n    tag_344:\n        /* \"#utility.yul\":2440:2445   */\n      0x00\n        /* \"#utility.yul\":2478:2484   */\n      dup2\n        /* \"#utility.yul\":2465:2485   */\n      calldataload\n        /* \"#utility.yul\":2456:2485   */\n      swap1\n      pop\n        /* \"#utility.yul\":2494:2527   */\n      tag_435\n        /* \"#utility.yul\":2521:2526   */\n      dup2\n        /* \"#utility.yul\":2494:2527   */\n      tag_343\n      jump\t// in\n    tag_435:\n        /* \"#utility.yul\":2394:2533   */\n      swap3\n      swap2\n      pop\n      pop\n      jump\t// out\n        /* \"#utility.yul\":2539:3013   */\n    tag_35:\n        /* \"#utility.yul\":2607:2613   */\n      0x00\n        /* \"#utility.yul\":2615:2621   */\n      dup1\n        /* \"#utility.yul\":2664:2666   */\n      0x40\n        /* \"#utility.yul\":2652:2661   */\n      dup4\n        /* \"#utility.yul\":2643:2650   */\n      dup6\n        /* \"#utility.yul\":2639:2662   */\n      sub\n        /* \"#utility.yul\":2635:2667   */\n      slt\n        /* \"#utility.yul\":2632:2751   */\n      iszero\n      tag_437\n      jumpi\n        /* \"#utility.yul\":2670:2749   */\n      tag_438\n      tag_336\n      jump\t// in\n    tag_438:\n        /* \"#utility.yul\":2632:2751   */\n    tag_437:\n        /* \"#utility.yul\":2790:2791   */\n      0x00\n        /* \"#utility.yul\":2815:2868   */\n      tag_439\n        /* \"#utility.yul\":2860:2867   */\n      dup6\n        /* \"#utility.yul\":2851:2857   */\n      dup3\n        /* \"#utility.yul\":2840:2849   */\n      dup7\n        /* \"#utility.yul\":2836:2858   */\n      add\n        /* \"#utility.yul\":2815:2868   */\n      tag_341\n      jump\t// in\n    tag_439:\n        /* \"#utility.yul\":2805:2868   */\n      swap3\n      pop\n        /* \"#utility.yul\":2761:2878   */\n      pop\n        /* \"#utility.yul\":2917:2919   */\n      0x20\n        /* \"#utility.yul\":2943:2996   */\n      tag_440\n        /* \"#utility.yul\":2988:2995   */\n      dup6\n        /* \"#utility.yul\":2979:2985   */\n      dup3\n        /* \"#utility.yul\":2968:2977   */\n      dup7\n        /* \"#utility.yul\":2964:2986   */\n      add\n        /* \"#utility.yul\":2943:2996   */\n      tag_344\n      jump\t// in\n    tag_440:\n        /* \"#utility.yul\":2933:2996   */\n      swap2\n      pop\n        /* \"#utility.yul\":2888:3006   */\n      pop\n        /* \"#utility.yul\":2539:3013   */\n      swap3\n      pop\n      swap3\n      swap1\n      pop\n      jump\t// out\n        /* \"#utility.yul\":3019:3109   */\n    tag_345:\n        /* \"#utility.yul\":3053:3060   */\n      0x00\n        /* \"#utility.yul\":3096:3101   */\n      dup2\n        /* \"#utility.yul\":3089:3102   */\n      iszero\n        /* \"#utility.yul\":3082:3103   */\n      iszero\n        /* \"#utility.yul\":3071:3103   */\n      swap1\n      pop\n        /* \"#utility.yul\":3019:3109   */\n      swap2\n      swap1\n      pop\n      jump\t// out\n        /* \"#utility.yul\":3115:3224   */\n    tag_346:\n        /* \"#utility.yul\":3196:3217   */\n      tag_443\n        /* \"#utility.yul\":3211:3216   */\n      dup2\n        /* \"#utility.yul\":3196:3217   */\n      tag_345\n      jump\t// in\n    tag_443:\n        /* \"#utility.yul\":3191:3194   */\n      dup3\n        /* \"#utility.yul\":3184:3218   */\n      mstore\n        /* \"#utility.yul\":3115:3224   */\n      pop\n      pop\n      jump\t// out\n        /* \"#utility.yul\":3230:3440   */\n    tag_38:\n        /* \"#utility.yul\":3317:3321   */\n      0x00\n        /* \"#utility.yul\":3355:3357   */\n      0x20\n        /* \"#utility.yul\":3344:3353   */\n      dup3\n        /* \"#utility.yul\":3340:3358   */\n      add\n        /* \"#utility.yul\":3332:3358   */\n      swap1\n      pop\n        /* \"#utility.yul\":3368:3433   */\n      tag_445\n        /* \"#utility.yul\":3430:3431   */\n      0x00\n        /* \"#utility.yul\":3419:3428   */\n      dup4\n        /* \"#utility.yul\":3415:3432   */\n      add\n        /* \"#utility.yul\":3406:3412   */\n      dup5\n        /* \"#utility.yul\":3368:3433   */\n      tag_346\n      jump\t// in\n    tag_445:\n        /* \"#utility.yul\":3230:3440   */\n      swap3\n      swap2\n      pop\n      pop\n      jump\t// out\n        /* \"#utility.yul\":3446:3564   */\n    tag_347:\n        /* \"#utility.yul\":3533:3557   */\n      tag_447\n        /* \"#utility.yul\":3551:3556   */\n      dup2\n        /* \"#utility.yul\":3533:3557   */\n      tag_342\n      jump\t// in\n    tag_447:\n        /* \"#utility.yul\":3528:3531   */\n      dup3\n        /* \"#utility.yul\":3521:3558   */\n      mstore\n        /* \"#utility.yul\":3446:3564   */\n      pop\n      pop\n      jump\t// out\n        /* \"#utility.yul\":3570:3792   */\n    tag_43:\n        /* \"#utility.yul\":3663:3667   */\n      0x00\n        /* \"#utility.yul\":3701:3703   */\n      0x20\n        /* \"#utility.yul\":3690:3699   */\n      dup3\n        /* \"#utility.yul\":3686:3704   */\n      add\n        /* \"#utility.yul\":3678:3704   */\n      swap1\n      pop\n        /* \"#utility.yul\":3714:3785   */\n      tag_449\n        /* \"#utility.yul\":3782:3783   */\n      0x00\n        /* \"#utility.yul\":3771:3780   */\n      dup4\n        /* \"#utility.yul\":3767:3784   */\n      add\n        /* \"#utility.yul\":3758:3764   */\n      dup5\n        /* \"#utility.yul\":3714:3785   */\n      tag_347\n      jump\t// in\n    tag_449:\n        /* \"#utility.yul\":3570:3792   */\n      swap3\n      swap2\n      pop\n      pop\n      jump\t// out\n        /* \"#utility.yul\":3798:4417   */\n    tag_47:\n        /* \"#utility.yul\":3875:3881   */\n      0x00\n        /* \"#utility.yul\":3883:3889   */\n      dup1\n        /* \"#utility.yul\":3891:3897   */\n      0x00\n        /* \"#utility.yul\":3940:3942   */\n      0x60\n        /* \"#utility.yul\":3928:3937   */\n      dup5\n        /* \"#utility.yul\":3919:3926   */\n      dup7\n        /* \"#utility.yul\":3915:3938   */\n      sub\n        /* \"#utility.yul\":3911:3943   */\n      slt\n        /* \"#utility.yul\":3908:4027   */\n      iszero\n      tag_451\n      jumpi\n        /* \"#utility.yul\":3946:4025   */\n      tag_452\n      tag_336\n      jump\t// in\n    tag_452:\n        /* \"#utility.yul\":3908:4027   */\n    tag_451:\n        /* \"#utility.yul\":4066:4067   */\n      0x00\n        /* \"#utility.yul\":4091:4144   */\n      tag_453\n        /* \"#utility.yul\":4136:4143   */\n      dup7\n        /* \"#utility.yul\":4127:4133   */\n      dup3\n        /* \"#utility.yul\":4116:4125   */\n      dup8\n        /* \"#utility.yul\":4112:4134   */\n      add\n        /* \"#utility.yul\":4091:4144   */\n      tag_341\n      jump\t// in\n    tag_453:\n        /* \"#utility.yul\":4081:4144   */\n      swap4\n      pop\n        /* \"#utility.yul\":4037:4154   */\n      pop\n        /* \"#utility.yul\":4193:4195   */\n      0x20\n        /* \"#utility.yul\":4219:4272   */\n      tag_454\n        /* \"#utility.yul\":4264:4271   */\n      dup7\n        /* \"#utility.yul\":4255:4261   */\n      dup3\n        /* \"#utility.yul\":4244:4253   */\n      dup8\n        /* \"#utility.yul\":4240:4262   */\n      add\n        /* \"#utility.yul\":4219:4272   */\n      tag_341\n      jump\t// in\n    tag_454:\n        /* \"#utility.yul\":4209:4272   */\n      swap3\n      pop\n        /* \"#utility.yul\":4164:4282   */\n      pop\n        /* \"#utility.yul\":4321:4323   */\n      0x40\n        /* \"#utility.yul\":4347:4400   */\n      tag_455\n        /* \"#utility.yul\":4392:4399   */\n      dup7\n        /* \"#utility.yul\":4383:4389   */\n      dup3\n        /* \"#utility.yul\":4372:4381   */\n      dup8\n        /* \"#utility.yul\":4368:4390   */\n      add\n        /* \"#utility.yul\":4347:4400   */\n      tag_344\n      jump\t// in\n    tag_455:\n        /* \"#utility.yul\":4337:4400   */\n      swap2\n      pop\n        /* \"#utility.yul\":4292:4410   */\n      pop\n        /* \"#utility.yul\":3798:4417   */\n      swap3\n      pop\n      swap3\n      pop\n      swap3\n      jump\t// out\n        /* \"#utility.yul\":4423:4509   */\n    tag_348:\n        /* \"#utility.yul\":4458:4465   */\n      0x00\n        /* \"#utility.yul\":4498:4502   */\n      0xff\n        /* \"#utility.yul\":4491:4496   */\n      dup3\n        /* \"#utility.yul\":4487:4503   */\n      and\n        /* \"#utility.yul\":4476:4503   */\n      swap1\n      pop\n        /* \"#utility.yul\":4423:4509   */\n      swap2\n      swap1\n      pop\n      jump\t// out\n        /* \"#utility.yul\":4515:4627   */\n    tag_349:\n        /* \"#utility.yul\":4598:4620   */\n      tag_458\n        /* \"#utility.yul\":4614:4619   */\n      dup2\n        /* \"#utility.yul\":4598:4620   */\n      tag_348\n      jump\t// in\n    tag_458:\n        /* \"#utility.yul\":4593:4596   */\n      dup3\n        /* \"#utility.yul\":4586:4621   */\n      mstore\n        /* \"#utility.yul\":4515:4627   */\n      pop\n      pop\n      jump\t// out\n        /* \"#utility.yul\":4633:4847   */\n    tag_54:\n        /* \"#utility.yul\":4722:4726   */\n      0x00\n        /* \"#utility.yul\":4760:4762   */\n      0x20\n        /* \"#utility.yul\":4749:4758   */\n      dup3\n        /* \"#utility.yul\":4745:4763   */\n      add\n        /* \"#utility.yul\":4737:4763   */\n      swap1\n      pop\n        /* \"#utility.yul\":4773:4840   */\n      tag_460\n        /* \"#utility.yul\":4837:4838   */\n      0x00\n        /* \"#utility.yul\":4826:4835   */\n      dup4\n        /* \"#utility.yul\":4822:4839   */\n      add\n        /* \"#utility.yul\":4813:4819   */\n      dup5\n        /* \"#utility.yul\":4773:4840   */\n      tag_349\n      jump\t// in\n    tag_460:\n        /* \"#utility.yul\":4633:4847   */\n      swap3\n      swap2\n      pop\n      pop\n      jump\t// out\n        /* \"#utility.yul\":4853:5182   */\n    tag_63:\n        /* \"#utility.yul\":4912:4918   */\n      0x00\n        /* \"#utility.yul\":4961:4963   */\n      0x20\n        /* \"#utility.yul\":4949:4958   */\n      dup3\n        /* \"#utility.yul\":4940:4947   */\n      dup5\n        /* \"#utility.yul\":4936:4959   */\n      sub\n        /* \"#utility.yul\":4932:4964   */\n      slt\n        /* \"#utility.yul\":4929:5048   */\n      iszero\n      tag_462\n      jumpi\n        /* \"#utility.yul\":4967:5046   */\n      tag_463\n      tag_336\n      jump\t// in\n    tag_463:\n        /* \"#utility.yul\":4929:5048   */\n    tag_462:\n        /* \"#utility.yul\":5087:5088   */\n      0x00\n        /* \"#utility.yul\":5112:5165   */\n      tag_464\n        /* \"#utility.yul\":5157:5164   */\n      dup5\n        /* \"#utility.yul\":5148:5154   */\n      dup3\n        /* \"#utility.yul\":5137:5146   */\n      dup6\n        /* \"#utility.yul\":5133:5155   */\n      add\n        /* \"#utility.yul\":5112:5165   */\n      tag_344\n      jump\t// in\n    tag_464:\n        /* \"#utility.yul\":5102:5165   */\n      swap2\n      pop\n        /* \"#utility.yul\":5058:5175   */\n      pop\n        /* \"#utility.yul\":4853:5182   */\n      swap3\n      swap2\n      pop\n      pop\n      jump\t// out\n        /* \"#utility.yul\":5188:5517   */\n    tag_72:\n        /* \"#utility.yul\":5247:5253   */\n      0x00\n        /* \"#utility.yul\":5296:5298   */\n      0x20\n        /* \"#utility.yul\":5284:5293   */\n      dup3\n        /* \"#utility.yul\":5275:5282   */\n      dup5\n        /* \"#utility.yul\":5271:5294   */\n      sub\n        /* \"#utility.yul\":5267:5299   */\n      slt\n        /* \"#utility.yul\":5264:5383   */\n      iszero\n      tag_466\n      jumpi\n        /* \"#utility.yul\":5302:5381   */\n      tag_467\n      tag_336\n      jump\t// in\n    tag_467:\n        /* \"#utility.yul\":5264:5383   */\n    tag_466:\n        /* \"#utility.yul\":5422:5423   */\n      0x00\n        /* \"#utility.yul\":5447:5500   */\n      tag_468\n        /* \"#utility.yul\":5492:5499   */\n      dup5\n        /* \"#utility.yul\":5483:5489   */\n      dup3\n        /* \"#utility.yul\":5472:5481   */\n      dup6\n        /* \"#utility.yul\":5468:5490   */\n      add\n        /* \"#utility.yul\":5447:5500   */\n      tag_341\n      jump\t// in\n    tag_468:\n        /* \"#utility.yul\":5437:5500   */\n      swap2\n      pop\n        /* \"#utility.yul\":5393:5510   */\n      pop\n        /* \"#utility.yul\":5188:5517   */\n      swap3\n      swap2\n      pop\n      pop\n      jump\t// out\n        /* \"#utility.yul\":5523:5640   */\n    tag_350:\n        /* \"#utility.yul\":5632:5633   */\n      0x00\n        /* \"#utility.yul\":5629:5630   */\n      dup1\n        /* \"#utility.yul\":5622:5634   */\n      revert\n        /* \"#utility.yul\":5646:5826   */\n    tag_351:\n        /* \"#utility.yul\":5694:5771   */\n      0x4e487b7100000000000000000000000000000000000000000000000000000000\n        /* \"#utility.yul\":5691:5692   */\n      0x00\n        /* \"#utility.yul\":5684:5772   */\n      mstore\n        /* \"#utility.yul\":5791:5795   */\n      0x41\n        /* \"#utility.yul\":5788:5789   */\n      0x04\n        /* \"#utility.yul\":5781:5796   */\n      mstore\n        /* \"#utility.yul\":5815:5819   */\n      0x24\n        /* \"#utility.yul\":5812:5813   */\n      0x00\n        /* \"#utility.yul\":5805:5820   */\n      revert\n        /* \"#utility.yul\":5832:6113   */\n    tag_352:\n        /* \"#utility.yul\":5915:5942   */\n      tag_472\n        /* \"#utility.yul\":5937:5941   */\n      dup3\n        /* \"#utility.yul\":5915:5942   */\n      tag_333\n      jump\t// in\n    tag_472:\n        /* \"#utility.yul\":5907:5913   */\n      dup2\n        /* \"#utility.yul\":5903:5943   */\n      add\n        /* \"#utility.yul\":6045:6051   */\n      dup2\n        /* \"#utility.yul\":6033:6043   */\n      dup2\n        /* \"#utility.yul\":6030:6052   */\n      lt\n        /* \"#utility.yul\":6009:6027   */\n      0xffffffffffffffff\n        /* \"#utility.yul\":5997:6007   */\n      dup3\n        /* \"#utility.yul\":5994:6028   */\n      gt\n        /* \"#utility.yul\":5991:6053   */\n      or\n        /* \"#utility.yul\":5988:6076   */\n      iszero\n      tag_473\n      jumpi\n        /* \"#utility.yul\":6056:6074   */\n      tag_474\n      tag_351\n      jump\t// in\n    tag_474:\n        /* \"#utility.yul\":5988:6076   */\n    tag_473:\n        /* \"#utility.yul\":6096:6106   */\n      dup1\n        /* \"#utility.yul\":6092:6094   */\n      0x40\n        /* \"#utility.yul\":6085:6107   */\n      mstore\n        /* \"#utility.yul\":5875:6113   */\n      pop\n        /* \"#utility.yul\":5832:6113   */\n      pop\n      pop\n      jump\t// out\n        /* \"#utility.yul\":6119:6248   */\n    tag_353:\n        /* \"#utility.yul\":6153:6159   */\n      0x00\n        /* \"#utility.yul\":6180:6200   */\n      tag_476\n      tag_335\n      jump\t// in\n    tag_476:\n        /* \"#utility.yul\":6170:6200   */\n      swap1\n      pop\n        /* \"#utility.yul\":6209:6242   */\n      tag_477\n        /* \"#utility.yul\":6237:6241   */\n      dup3\n        /* \"#utility.yul\":6229:6235   */\n      dup3\n        /* \"#utility.yul\":6209:6242   */\n      tag_352\n      jump\t// in\n    tag_477:\n        /* \"#utility.yul\":6119:6248   */\n      swap2\n      swap1\n      pop\n      jump\t// out\n        /* \"#utility.yul\":6254:6565   */\n    tag_354:\n        /* \"#utility.yul\":6331:6335   */\n      0x00\n        /* \"#utility.yul\":6421:6439   */\n      0xffffffffffffffff\n        /* \"#utility.yul\":6413:6419   */\n      dup3\n        /* \"#utility.yul\":6410:6440   */\n      gt\n        /* \"#utility.yul\":6407:6463   */\n      iszero\n      tag_479\n      jumpi\n        /* \"#utility.yul\":6443:6461   */\n      tag_480\n      tag_351\n      jump\t// in\n    tag_480:\n        /* \"#utility.yul\":6407:6463   */\n    tag_479:\n        /* \"#utility.yul\":6493:6497   */\n      0x20\n        /* \"#utility.yul\":6485:6491   */\n      dup3\n        /* \"#utility.yul\":6481:6498   */\n      mul\n        /* \"#utility.yul\":6473:6498   */\n      swap1\n      pop\n        /* \"#utility.yul\":6553:6557   */\n      0x20\n        /* \"#utility.yul\":6547:6551   */\n      dup2\n        /* \"#utility.yul\":6543:6558   */\n      add\n        /* \"#utility.yul\":6535:6558   */\n      swap1\n      pop\n        /* \"#utility.yul\":6254:6565   */\n      swap2\n      swap1\n      pop\n      jump\t// out\n        /* \"#utility.yul\":6571:6688   */\n    tag_355:\n        /* \"#utility.yul\":6680:6681   */\n      0x00\n        /* \"#utility.yul\":6677:6678   */\n      dup1\n        /* \"#utility.yul\":6670:6682   */\n      revert\n        /* \"#utility.yul\":6694:6771   */\n    tag_356:\n        /* \"#utility.yul\":6731:6738   */\n      0x00\n        /* \"#utility.yul\":6760:6765   */\n      dup2\n        /* \"#utility.yul\":6749:6765   */\n      swap1\n      pop\n        /* \"#utility.yul\":6694:6771   */\n      swap2\n      swap1\n      pop\n      jump\t// out\n        /* \"#utility.yul\":6777:6899   */\n    tag_357:\n        /* \"#utility.yul\":6850:6874   */\n      tag_484\n        /* \"#utility.yul\":6868:6873   */\n      dup2\n        /* \"#utility.yul\":6850:6874   */\n      tag_356\n      jump\t// in\n    tag_484:\n        /* \"#utility.yul\":6843:6848   */\n      dup2\n        /* \"#utility.yul\":6840:6875   */\n      eq\n        /* \"#utility.yul\":6830:6893   */\n      tag_485\n      jumpi\n        /* \"#utility.yul\":6889:6890   */\n      0x00\n        /* \"#utility.yul\":6886:6887   */\n      dup1\n        /* \"#utility.yul\":6879:6891   */\n      revert\n        /* \"#utility.yul\":6830:6893   */\n    tag_485:\n        /* \"#utility.yul\":6777:6899   */\n      pop\n      jump\t// out\n        /* \"#utility.yul\":6905:7044   */\n    tag_358:\n        /* \"#utility.yul\":6951:6956   */\n      0x00\n        /* \"#utility.yul\":6989:6995   */\n      dup2\n        /* \"#utility.yul\":6976:6996   */\n      calldataload\n        /* \"#utility.yul\":6967:6996   */\n      swap1\n      pop\n        /* \"#utility.yul\":7005:7038   */\n      tag_487\n        /* \"#utility.yul\":7032:7037   */\n      dup2\n        /* \"#utility.yul\":7005:7038   */\n      tag_357\n      jump\t// in\n    tag_487:\n        /* \"#utility.yul\":6905:7044   */\n      swap3\n      swap2\n      pop\n      pop\n      jump\t// out\n        /* \"#utility.yul\":7067:7777   */\n    tag_359:\n        /* \"#utility.yul\":7163:7168   */\n      0x00\n        /* \"#utility.yul\":7188:7269   */\n      tag_489\n        /* \"#utility.yul\":7204:7268   */\n      tag_490\n        /* \"#utility.yul\":7261:7267   */\n      dup5\n        /* \"#utility.yul\":7204:7268   */\n      tag_354\n      jump\t// in\n    tag_490:\n        /* \"#utility.yul\":7188:7269   */\n      tag_353\n      jump\t// in\n    tag_489:\n        /* \"#utility.yul\":7179:7269   */\n      swap1\n      pop\n        /* \"#utility.yul\":7289:7294   */\n      dup1\n        /* \"#utility.yul\":7318:7324   */\n      dup4\n        /* \"#utility.yul\":7311:7316   */\n      dup3\n        /* \"#utility.yul\":7304:7325   */\n      mstore\n        /* \"#utility.yul\":7352:7356   */\n      0x20\n        /* \"#utility.yul\":7345:7350   */\n      dup3\n        /* \"#utility.yul\":7341:7357   */\n      add\n        /* \"#utility.yul\":7334:7357   */\n      swap1\n      pop\n        /* \"#utility.yul\":7405:7409   */\n      0x20\n        /* \"#utility.yul\":7397:7403   */\n      dup5\n        /* \"#utility.yul\":7393:7410   */\n      mul\n        /* \"#utility.yul\":7385:7391   */\n      dup4\n        /* \"#utility.yul\":7381:7411   */\n      add\n        /* \"#utility.yul\":7434:7437   */\n      dup6\n        /* \"#utility.yul\":7426:7432   */\n      dup2\n        /* \"#utility.yul\":7423:7438   */\n      gt\n        /* \"#utility.yul\":7420:7542   */\n      iszero\n      tag_491\n      jumpi\n        /* \"#utility.yul\":7453:7532   */\n      tag_492\n      tag_355\n      jump\t// in\n    tag_492:\n        /* \"#utility.yul\":7420:7542   */\n    tag_491:\n        /* \"#utility.yul\":7568:7574   */\n      dup4\n        /* \"#utility.yul\":7551:7771   */\n    tag_493:\n        /* \"#utility.yul\":7585:7591   */\n      dup2\n        /* \"#utility.yul\":7580:7583   */\n      dup2\n        /* \"#utility.yul\":7577:7592   */\n      lt\n        /* \"#utility.yul\":7551:7771   */\n      iszero\n      tag_495\n      jumpi\n        /* \"#utility.yul\":7660:7663   */\n      dup1\n        /* \"#utility.yul\":7689:7726   */\n      tag_496\n        /* \"#utility.yul\":7722:7725   */\n      dup9\n        /* \"#utility.yul\":7710:7720   */\n      dup3\n        /* \"#utility.yul\":7689:7726   */\n      tag_358\n      jump\t// in\n    tag_496:\n        /* \"#utility.yul\":7684:7687   */\n      dup5\n        /* \"#utility.yul\":7677:7727   */\n      mstore\n        /* \"#utility.yul\":7756:7760   */\n      0x20\n        /* \"#utility.yul\":7751:7754   */\n      dup5\n        /* \"#utility.yul\":7747:7761   */\n      add\n        /* \"#utility.yul\":7740:7761   */\n      swap4\n      pop\n        /* \"#utility.yul\":7627:7771   */\n      pop\n        /* \"#utility.yul\":7611:7615   */\n      0x20\n        /* \"#utility.yul\":7606:7609   */\n      dup2\n        /* \"#utility.yul\":7602:7616   */\n      add\n        /* \"#utility.yul\":7595:7616   */\n      swap1\n      pop\n        /* \"#utility.yul\":7551:7771   */\n      jump(tag_493)\n    tag_495:\n        /* \"#utility.yul\":7555:7576   */\n      pop\n        /* \"#utility.yul\":7169:7777   */\n      pop\n      pop\n        /* \"#utility.yul\":7067:7777   */\n      swap4\n      swap3\n      pop\n      pop\n      pop\n      jump\t// out\n        /* \"#utility.yul\":7800:8170   */\n    tag_360:\n        /* \"#utility.yul\":7871:7876   */\n      0x00\n        /* \"#utility.yul\":7920:7923   */\n      dup3\n        /* \"#utility.yul\":7913:7917   */\n      0x1f\n        /* \"#utility.yul\":7905:7911   */\n      dup4\n        /* \"#utility.yul\":7901:7918   */\n      add\n        /* \"#utility.yul\":7897:7924   */\n      slt\n        /* \"#utility.yul\":7887:8009   */\n      tag_498\n      jumpi\n        /* \"#utility.yul\":7928:8007   */\n      tag_499\n      tag_350\n      jump\t// in\n    tag_499:\n        /* \"#utility.yul\":7887:8009   */\n    tag_498:\n        /* \"#utility.yul\":8045:8051   */\n      dup2\n        /* \"#utility.yul\":8032:8052   */\n      calldataload\n        /* \"#utility.yul\":8070:8164   */\n      tag_500\n        /* \"#utility.yul\":8160:8163   */\n      dup5\n        /* \"#utility.yul\":8152:8158   */\n      dup3\n        /* \"#utility.yul\":8145:8149   */\n      0x20\n        /* \"#utility.yul\":8137:8143   */\n      dup7\n        /* \"#utility.yul\":8133:8150   */\n      add\n        /* \"#utility.yul\":8070:8164   */\n      tag_359\n      jump\t// in\n    tag_500:\n        /* \"#utility.yul\":8061:8164   */\n      swap2\n      pop\n        /* \"#utility.yul\":7877:8170   */\n      pop\n        /* \"#utility.yul\":7800:8170   */\n      swap3\n      swap2\n      pop\n      pop\n      jump\t// out\n        /* \"#utility.yul\":8176:8715   */\n    tag_85:\n        /* \"#utility.yul\":8260:8266   */\n      0x00\n        /* \"#utility.yul\":8309:8311   */\n      0x20\n        /* \"#utility.yul\":8297:8306   */\n      dup3\n        /* \"#utility.yul\":8288:8295   */\n      dup5\n        /* \"#utility.yul\":8284:8307   */\n      sub\n        /* \"#utility.yul\":8280:8312   */\n      slt\n        /* \"#utility.yul\":8277:8396   */\n      iszero\n      tag_502\n      jumpi\n        /* \"#utility.yul\":8315:8394   */\n      tag_503\n      tag_336\n      jump\t// in\n    tag_503:\n        /* \"#utility.yul\":8277:8396   */\n    tag_502:\n        /* \"#utility.yul\":8463:8464   */\n      0x00\n        /* \"#utility.yul\":8452:8461   */\n      dup3\n        /* \"#utility.yul\":8448:8465   */\n      add\n        /* \"#utility.yul\":8435:8466   */\n      calldataload\n        /* \"#utility.yul\":8493:8511   */\n      0xffffffffffffffff\n        /* \"#utility.yul\":8485:8491   */\n      dup2\n        /* \"#utility.yul\":8482:8512   */\n      gt\n        /* \"#utility.yul\":8479:8596   */\n      iszero\n      tag_504\n      jumpi\n        /* \"#utility.yul\":8515:8594   */\n      tag_505\n      tag_337\n      jump\t// in\n    tag_505:\n        /* \"#utility.yul\":8479:8596   */\n    tag_504:\n        /* \"#utility.yul\":8620:8698   */\n      tag_506\n        /* \"#utility.yul\":8690:8697   */\n      dup5\n        /* \"#utility.yul\":8681:8687   */\n      dup3\n        /* \"#utility.yul\":8670:8679   */\n      dup6\n        /* \"#utility.yul\":8666:8688   */\n      add\n        /* \"#utility.yul\":8620:8698   */\n      tag_360\n      jump\t// in\n    tag_506:\n        /* \"#utility.yul\":8610:8698   */\n      swap2\n      pop\n        /* \"#utility.yul\":8406:8708   */\n      pop\n        /* \"#utility.yul\":8176:8715   */\n      swap3\n      swap2\n      pop\n      pop\n      jump\t// out\n        /* \"#utility.yul\":8721:8838   */\n    tag_361:\n        /* \"#utility.yul\":8830:8831   */\n      0x00\n        /* \"#utility.yul\":8827:8828   */\n      dup1\n        /* \"#utility.yul\":8820:8832   */\n      revert\n        /* \"#utility.yul\":8861:9429   */\n    tag_362:\n        /* \"#utility.yul\":8934:8942   */\n      0x00\n        /* \"#utility.yul\":8944:8950   */\n      dup1\n        /* \"#utility.yul\":8994:8997   */\n      dup4\n        /* \"#utility.yul\":8987:8991   */\n      0x1f\n        /* \"#utility.yul\":8979:8985   */\n      dup5\n        /* \"#utility.yul\":8975:8992   */\n      add\n        /* \"#utility.yul\":8971:8998   */\n      slt\n        /* \"#utility.yul\":8961:9083   */\n      tag_509\n      jumpi\n        /* \"#utility.yul\":9002:9081   */\n      tag_510\n      tag_350\n      jump\t// in\n    tag_510:\n        /* \"#utility.yul\":8961:9083   */\n    tag_509:\n        /* \"#utility.yul\":9115:9121   */\n      dup3\n        /* \"#utility.yul\":9102:9122   */\n      calldataload\n        /* \"#utility.yul\":9092:9122   */\n      swap1\n      pop\n        /* \"#utility.yul\":9145:9163   */\n      0xffffffffffffffff\n        /* \"#utility.yul\":9137:9143   */\n      dup2\n        /* \"#utility.yul\":9134:9164   */\n      gt\n        /* \"#utility.yul\":9131:9248   */\n      iszero\n      tag_511\n      jumpi\n        /* \"#utility.yul\":9167:9246   */\n      tag_512\n      tag_361\n      jump\t// in\n    tag_512:\n        /* \"#utility.yul\":9131:9248   */\n    tag_511:\n        /* \"#utility.yul\":9281:9285   */\n      0x20\n        /* \"#utility.yul\":9273:9279   */\n      dup4\n        /* \"#utility.yul\":9269:9286   */\n      add\n        /* \"#utility.yul\":9257:9286   */\n      swap2\n      pop\n        /* \"#utility.yul\":9335:9338   */\n      dup4\n        /* \"#utility.yul\":9327:9331   */\n      0x20\n        /* \"#utility.yul\":9319:9325   */\n      dup3\n        /* \"#utility.yul\":9315:9332   */\n      mul\n        /* \"#utility.yul\":9305:9313   */\n      dup4\n        /* \"#utility.yul\":9301:9333   */\n      add\n        /* \"#utility.yul\":9298:9339   */\n      gt\n        /* \"#utility.yul\":9295:9423   */\n      iszero\n      tag_513\n      jumpi\n        /* \"#utility.yul\":9342:9421   */\n      tag_514\n      tag_355\n      jump\t// in\n    tag_514:\n        /* \"#utility.yul\":9295:9423   */\n    tag_513:\n        /* \"#utility.yul\":8861:9429   */\n      swap3\n      pop\n      swap3\n      swap1\n      pop\n      jump\t// out\n        /* \"#utility.yul\":9435:9994   */\n    tag_112:\n        /* \"#utility.yul\":9521:9527   */\n      0x00\n        /* \"#utility.yul\":9529:9535   */\n      dup1\n        /* \"#utility.yul\":9578:9580   */\n      0x20\n        /* \"#utility.yul\":9566:9575   */\n      dup4\n        /* \"#utility.yul\":9557:9564   */\n      dup6\n        /* \"#utility.yul\":9553:9576   */\n      sub\n        /* \"#utility.yul\":9549:9581   */\n      slt\n        /* \"#utility.yul\":9546:9665   */\n      iszero\n      tag_516\n      jumpi\n        /* \"#utility.yul\":9584:9663   */\n      tag_517\n      tag_336\n      jump\t// in\n    tag_517:\n        /* \"#utility.yul\":9546:9665   */\n    tag_516:\n        /* \"#utility.yul\":9732:9733   */\n      0x00\n        /* \"#utility.yul\":9721:9730   */\n      dup4\n        /* \"#utility.yul\":9717:9734   */\n      add\n        /* \"#utility.yul\":9704:9735   */\n      calldataload\n        /* \"#utility.yul\":9762:9780   */\n      0xffffffffffffffff\n        /* \"#utility.yul\":9754:9760   */\n      dup2\n        /* \"#utility.yul\":9751:9781   */\n      gt\n        /* \"#utility.yul\":9748:9865   */\n      iszero\n      tag_518\n      jumpi\n        /* \"#utility.yul\":9784:9863   */\n      tag_519\n      tag_337\n      jump\t// in\n    tag_519:\n        /* \"#utility.yul\":9748:9865   */\n    tag_518:\n        /* \"#utility.yul\":9897:9977   */\n      tag_520\n        /* \"#utility.yul\":9969:9976   */\n      dup6\n        /* \"#utility.yul\":9960:9966   */\n      dup3\n        /* \"#utility.yul\":9949:9958   */\n      dup7\n        /* \"#utility.yul\":9945:9967   */\n      add\n        /* \"#utility.yul\":9897:9977   */\n      tag_362\n      jump\t// in\n    tag_520:\n        /* \"#utility.yul\":9879:9977   */\n      swap3\n      pop\n      swap3\n      pop\n        /* \"#utility.yul\":9675:9987   */\n      pop\n        /* \"#utility.yul\":9435:9994   */\n      swap3\n      pop\n      swap3\n      swap1\n      pop\n      jump\t// out\n        /* \"#utility.yul\":10000:10329   */\n    tag_121:\n        /* \"#utility.yul\":10059:10065   */\n      0x00\n        /* \"#utility.yul\":10108:10110   */\n      0x20\n        /* \"#utility.yul\":10096:10105   */\n      dup3\n        /* \"#utility.yul\":10087:10094   */\n      dup5\n        /* \"#utility.yul\":10083:10106   */\n      sub\n        /* \"#utility.yul\":10079:10111   */\n      slt\n        /* \"#utility.yul\":10076:10195   */\n      iszero\n      tag_522\n      jumpi\n        /* \"#utility.yul\":10114:10193   */\n      tag_523\n      tag_336\n      jump\t// in\n    tag_523:\n        /* \"#utility.yul\":10076:10195   */\n    tag_522:\n        /* \"#utility.yul\":10234:10235   */\n      0x00\n        /* \"#utility.yul\":10259:10312   */\n      tag_524\n        /* \"#utility.yul\":10304:10311   */\n      dup5\n        /* \"#utility.yul\":10295:10301   */\n      dup3\n        /* \"#utility.yul\":10284:10293   */\n      dup6\n        /* \"#utility.yul\":10280:10302   */\n      add\n        /* \"#utility.yul\":10259:10312   */\n      tag_358\n      jump\t// in\n    tag_524:\n        /* \"#utility.yul\":10249:10312   */\n      swap2\n      pop\n        /* \"#utility.yul\":10205:10322   */\n      pop\n        /* \"#utility.yul\":10000:10329   */\n      swap3\n      swap2\n      pop\n      pop\n      jump\t// out\n        /* \"#utility.yul\":10335:10809   */\n    tag_126:\n        /* \"#utility.yul\":10403:10409   */\n      0x00\n        /* \"#utility.yul\":10411:10417   */\n      dup1\n        /* \"#utility.yul\":10460:10462   */\n      0x40\n        /* \"#utility.yul\":10448:10457   */\n      dup4\n        /* \"#utility.yul\":10439:10446   */\n      dup6\n        /* \"#utility.yul\":10435:10458   */\n      sub\n        /* \"#utility.yul\":10431:10463   */\n      slt\n        /* \"#utility.yul\":10428:10547   */\n      iszero\n      tag_526\n      jumpi\n        /* \"#utility.yul\":10466:10545   */\n      tag_527\n      tag_336\n      jump\t// in\n    tag_527:\n        /* \"#utility.yul\":10428:10547   */\n    tag_526:\n        /* \"#utility.yul\":10586:10587   */\n      0x00\n        /* \"#utility.yul\":10611:10664   */\n      tag_528\n        /* \"#utility.yul\":10656:10663   */\n      dup6\n        /* \"#utility.yul\":10647:10653   */\n      dup3\n        /* \"#utility.yul\":10636:10645   */\n      dup7\n        /* \"#utility.yul\":10632:10654   */\n      add\n        /* \"#utility.yul\":10611:10664   */\n      tag_341\n      jump\t// in\n    tag_528:\n        /* \"#utility.yul\":10601:10664   */\n      swap3\n      pop\n        /* \"#utility.yul\":10557:10674   */\n      pop\n        /* \"#utility.yul\":10713:10715   */\n      0x20\n        /* \"#utility.yul\":10739:10792   */\n      tag_529\n        /* \"#utility.yul\":10784:10791   */\n      dup6\n        /* \"#utility.yul\":10775:10781   */\n      dup3\n        /* \"#utility.yul\":10764:10773   */\n      dup7\n        /* \"#utility.yul\":10760:10782   */\n      add\n        /* \"#utility.yul\":10739:10792   */\n      tag_341\n      jump\t// in\n    tag_529:\n        /* \"#utility.yul\":10729:10792   */\n      swap2\n      pop\n        /* \"#utility.yul\":10684:10802   */\n      pop\n        /* \"#utility.yul\":10335:10809   */\n      swap3\n      pop\n      swap3\n      swap1\n      pop\n      jump\t// out\n        /* \"#utility.yul\":10815:10933   */\n    tag_363:\n        /* \"#utility.yul\":10902:10926   */\n      tag_531\n        /* \"#utility.yul\":10920:10925   */\n      dup2\n        /* \"#utility.yul\":10902:10926   */\n      tag_356\n      jump\t// in\n    tag_531:\n        /* \"#utility.yul\":10897:10900   */\n      dup3\n        /* \"#utility.yul\":10890:10927   */\n      mstore\n        /* \"#utility.yul\":10815:10933   */\n      pop\n      pop\n      jump\t// out\n        /* \"#utility.yul\":10939:11161   */\n    tag_133:\n        /* \"#utility.yul\":11032:11036   */\n      0x00\n        /* \"#utility.yul\":11070:11072   */\n      0x20\n        /* \"#utility.yul\":11059:11068   */\n      dup3\n        /* \"#utility.yul\":11055:11073   */\n      add\n        /* \"#utility.yul\":11047:11073   */\n      swap1\n      pop\n        /* \"#utility.yul\":11083:11154   */\n      tag_533\n        /* \"#utility.yul\":11151:11152   */\n      0x00\n        /* \"#utility.yul\":11140:11149   */\n      dup4\n        /* \"#utility.yul\":11136:11153   */\n      add\n        /* \"#utility.yul\":11127:11133   */\n      dup5\n        /* \"#utility.yul\":11083:11154   */\n      tag_363\n      jump\t// in\n    tag_533:\n        /* \"#utility.yul\":10939:11161   */\n      swap3\n      swap2\n      pop\n      pop\n      jump\t// out\n        /* \"#utility.yul\":11167:11347   */\n    tag_364:\n        /* \"#utility.yul\":11215:11292   */\n      0x4e487b7100000000000000000000000000000000000000000000000000000000\n        /* \"#utility.yul\":11212:11213   */\n      0x00\n        /* \"#utility.yul\":11205:11293   */\n      mstore\n        /* \"#utility.yul\":11312:11316   */\n      0x22\n        /* \"#utility.yul\":11309:11310   */\n      0x04\n        /* \"#utility.yul\":11302:11317   */\n      mstore\n        /* \"#utility.yul\":11336:11340   */\n      0x24\n        /* \"#utility.yul\":11333:11334   */\n      0x00\n        /* \"#utility.yul\":11326:11341   */\n      revert\n        /* \"#utility.yul\":11353:11673   */\n    tag_136:\n        /* \"#utility.yul\":11397:11403   */\n      0x00\n        /* \"#utility.yul\":11434:11435   */\n      0x02\n        /* \"#utility.yul\":11428:11432   */\n      dup3\n        /* \"#utility.yul\":11424:11436   */\n      div\n        /* \"#utility.yul\":11414:11436   */\n      swap1\n      pop\n        /* \"#utility.yul\":11481:11482   */\n      0x01\n        /* \"#utility.yul\":11475:11479   */\n      dup3\n        /* \"#utility.yul\":11471:11483   */\n      and\n        /* \"#utility.yul\":11502:11520   */\n      dup1\n        /* \"#utility.yul\":11492:11573   */\n      tag_536\n      jumpi\n        /* \"#utility.yul\":11558:11562   */\n      0x7f\n        /* \"#utility.yul\":11550:11556   */\n      dup3\n        /* \"#utility.yul\":11546:11563   */\n      and\n        /* \"#utility.yul\":11536:11563   */\n      swap2\n      pop\n        /* \"#utility.yul\":11492:11573   */\n    tag_536:\n        /* \"#utility.yul\":11620:11622   */\n      0x20\n        /* \"#utility.yul\":11612:11618   */\n      dup3\n        /* \"#utility.yul\":11609:11623   */\n      lt\n        /* \"#utility.yul\":11589:11607   */\n      dup2\n        /* \"#utility.yul\":11586:11624   */\n      sub\n        /* \"#utility.yul\":11583:11667   */\n      tag_537\n      jumpi\n        /* \"#utility.yul\":11639:11657   */\n      tag_538\n      tag_364\n      jump\t// in\n    tag_538:\n        /* \"#utility.yul\":11583:11667   */\n    tag_537:\n        /* \"#utility.yul\":11404:11673   */\n      pop\n        /* \"#utility.yul\":11353:11673   */\n      swap2\n      swap1\n      pop\n      jump\t// out\n        /* \"#utility.yul\":11679:11859   */\n    tag_365:\n        /* \"#utility.yul\":11727:11804   */\n      0x4e487b7100000000000000000000000000000000000000000000000000000000\n        /* \"#utility.yul\":11724:11725   */\n      0x00\n        /* \"#utility.yul\":11717:11805   */\n      mstore\n        /* \"#utility.yul\":11824:11828   */\n      0x11\n        /* \"#utility.yul\":11821:11822   */\n      0x04\n        /* \"#utility.yul\":11814:11829   */\n      mstore\n        /* \"#utility.yul\":11848:11852   */\n      0x24\n        /* \"#utility.yul\":11845:11846   */\n      0x00\n        /* \"#utility.yul\":11838:11853   */\n      revert\n        /* \"#utility.yul\":11865:12056   */\n    tag_159:\n        /* \"#utility.yul\":11905:11908   */\n      0x00\n        /* \"#utility.yul\":11924:11944   */\n      tag_541\n        /* \"#utility.yul\":11942:11943   */\n      dup3\n        /* \"#utility.yul\":11924:11944   */\n      tag_342\n      jump\t// in\n    tag_541:\n        /* \"#utility.yul\":11919:11944   */\n      swap2\n      pop\n        /* \"#utility.yul\":11958:11978   */\n      tag_542\n        /* \"#utility.yul\":11976:11977   */\n      dup4\n        /* \"#utility.yul\":11958:11978   */\n      tag_342\n      jump\t// in\n    tag_542:\n        /* \"#utility.yul\":11953:11978   */\n      swap3\n      pop\n        /* \"#utility.yul\":12001:12002   */\n      dup3\n        /* \"#utility.yul\":11998:11999   */\n      dup3\n        /* \"#utility.yul\":11994:12003   */\n      add\n        /* \"#utility.yul\":11987:12003   */\n      swap1\n      pop\n        /* \"#utility.yul\":12022:12025   */\n      dup1\n        /* \"#utility.yul\":12019:12020   */\n      dup3\n        /* \"#utility.yul\":12016:12026   */\n      gt\n        /* \"#utility.yul\":12013:12049   */\n      iszero\n      tag_543\n      jumpi\n        /* \"#utility.yul\":12029:12047   */\n      tag_544\n      tag_365\n      jump\t// in\n    tag_544:\n        /* \"#utility.yul\":12013:12049   */\n    tag_543:\n        /* \"#utility.yul\":11865:12056   */\n      swap3\n      swap2\n      pop\n      pop\n      jump\t// out\n        /* \"#utility.yul\":12062:12282   */\n    tag_366:\n        /* \"#utility.yul\":12202:12236   */\n      0x546869732066756e6374696f6e206f6e6c79206f776e65722063616e20757365\n        /* \"#utility.yul\":12198:12199   */\n      0x00\n        /* \"#utility.yul\":12190:12196   */\n      dup3\n        /* \"#utility.yul\":12186:12200   */\n      add\n        /* \"#utility.yul\":12179:12237   */\n      mstore\n        /* \"#utility.yul\":12271:12274   */\n      0x2e00000000000000000000000000000000000000000000000000000000000000\n        /* \"#utility.yul\":12266:12268   */\n      0x20\n        /* \"#utility.yul\":12258:12264   */\n      dup3\n        /* \"#utility.yul\":12254:12269   */\n      add\n        /* \"#utility.yul\":12247:12275   */\n      mstore\n        /* \"#utility.yul\":12062:12282   */\n      pop\n      jump\t// out\n        /* \"#utility.yul\":12288:12654   */\n    tag_367:\n        /* \"#utility.yul\":12430:12433   */\n      0x00\n        /* \"#utility.yul\":12451:12518   */\n      tag_547\n        /* \"#utility.yul\":12515:12517   */\n      0x21\n        /* \"#utility.yul\":12510:12513   */\n      dup4\n        /* \"#utility.yul\":12451:12518   */\n      tag_331\n      jump\t// in\n    tag_547:\n        /* \"#utility.yul\":12444:12518   */\n      swap2\n      pop\n        /* \"#utility.yul\":12527:12620   */\n      tag_548\n        /* \"#utility.yul\":12616:12619   */\n      dup3\n        /* \"#utility.yul\":12527:12620   */\n      tag_366\n      jump\t// in\n    tag_548:\n        /* \"#utility.yul\":12645:12647   */\n      0x40\n        /* \"#utility.yul\":12640:12643   */\n      dup3\n        /* \"#utility.yul\":12636:12648   */\n      add\n        /* \"#utility.yul\":12629:12648   */\n      swap1\n      pop\n        /* \"#utility.yul\":12288:12654   */\n      swap2\n      swap1\n      pop\n      jump\t// out\n        /* \"#utility.yul\":12660:13079   */\n    tag_163:\n        /* \"#utility.yul\":12826:12830   */\n      0x00\n        /* \"#utility.yul\":12864:12866   */\n      0x20\n        /* \"#utility.yul\":12853:12862   */\n      dup3\n        /* \"#utility.yul\":12849:12867   */\n      add\n        /* \"#utility.yul\":12841:12867   */\n      swap1\n      pop\n        /* \"#utility.yul\":12913:12922   */\n      dup2\n        /* \"#utility.yul\":12907:12911   */\n      dup2\n        /* \"#utility.yul\":12903:12923   */\n      sub\n        /* \"#utility.yul\":12899:12900   */\n      0x00\n        /* \"#utility.yul\":12888:12897   */\n      dup4\n        /* \"#utility.yul\":12884:12901   */\n      add\n        /* \"#utility.yul\":12877:12924   */\n      mstore\n        /* \"#utility.yul\":12941:13072   */\n      tag_550\n        /* \"#utility.yul\":13067:13071   */\n      dup2\n        /* \"#utility.yul\":12941:13072   */\n      tag_367\n      jump\t// in\n    tag_550:\n        /* \"#utility.yul\":12933:13072   */\n      swap1\n      pop\n        /* \"#utility.yul\":12660:13079   */\n      swap2\n      swap1\n      pop\n      jump\t// out\n        /* \"#utility.yul\":13085:13258   */\n    tag_368:\n        /* \"#utility.yul\":13225:13250   */\n      0x49742773206f76657220546f6b656e206c696d69742121000000000000000000\n        /* \"#utility.yul\":13221:13222   */\n      0x00\n        /* \"#utility.yul\":13213:13219   */\n      dup3\n        /* \"#utility.yul\":13209:13223   */\n      add\n        /* \"#utility.yul\":13202:13251   */\n      mstore\n        /* \"#utility.yul\":13085:13258   */\n      pop\n      jump\t// out\n        /* \"#utility.yul\":13264:13630   */\n    tag_369:\n        /* \"#utility.yul\":13406:13409   */\n      0x00\n        /* \"#utility.yul\":13427:13494   */\n      tag_553\n        /* \"#utility.yul\":13491:13493   */\n      0x17\n        /* \"#utility.yul\":13486:13489   */\n      dup4\n        /* \"#utility.yul\":13427:13494   */\n      tag_331\n      jump\t// in\n    tag_553:\n        /* \"#utility.yul\":13420:13494   */\n      swap2\n      pop\n        /* \"#utility.yul\":13503:13596   */\n      tag_554\n        /* \"#utility.yul\":13592:13595   */\n      dup3\n        /* \"#utility.yul\":13503:13596   */\n      tag_368\n      jump\t// in\n    tag_554:\n        /* \"#utility.yul\":13621:13623   */\n      0x20\n        /* \"#utility.yul\":13616:13619   */\n      dup3\n        /* \"#utility.yul\":13612:13624   */\n      add\n        /* \"#utility.yul\":13605:13624   */\n      swap1\n      pop\n        /* \"#utility.yul\":13264:13630   */\n      swap2\n      swap1\n      pop\n      jump\t// out\n        /* \"#utility.yul\":13636:14055   */\n    tag_173:\n        /* \"#utility.yul\":13802:13806   */\n      0x00\n        /* \"#utility.yul\":13840:13842   */\n      0x20\n        /* \"#utility.yul\":13829:13838   */\n      dup3\n        /* \"#utility.yul\":13825:13843   */\n      add\n        /* \"#utility.yul\":13817:13843   */\n      swap1\n      pop\n        /* \"#utility.yul\":13889:13898   */\n      dup2\n        /* \"#utility.yul\":13883:13887   */\n      dup2\n        /* \"#utility.yul\":13879:13899   */\n      sub\n        /* \"#utility.yul\":13875:13876   */\n      0x00\n        /* \"#utility.yul\":13864:13873   */\n      dup4\n        /* \"#utility.yul\":13860:13877   */\n      add\n        /* \"#utility.yul\":13853:13900   */\n      mstore\n        /* \"#utility.yul\":13917:14048   */\n      tag_556\n        /* \"#utility.yul\":14043:14047   */\n      dup2\n        /* \"#utility.yul\":13917:14048   */\n      tag_369\n      jump\t// in\n    tag_556:\n        /* \"#utility.yul\":13909:14048   */\n      swap1\n      pop\n        /* \"#utility.yul\":13636:14055   */\n      swap2\n      swap1\n      pop\n      jump\t// out\n        /* \"#utility.yul\":14061:14281   */\n    tag_370:\n        /* \"#utility.yul\":14201:14235   */\n      0x596f75722061646472657373206973206e6f7420696e2057686974656c697374\n        /* \"#utility.yul\":14197:14198   */\n      0x00\n        /* \"#utility.yul\":14189:14195   */\n      dup3\n        /* \"#utility.yul\":14185:14199   */\n      add\n        /* \"#utility.yul\":14178:14236   */\n      mstore\n        /* \"#utility.yul\":14270:14273   */\n      0x7e00000000000000000000000000000000000000000000000000000000000000\n        /* \"#utility.yul\":14265:14267   */\n      0x20\n        /* \"#utility.yul\":14257:14263   */\n      dup3\n        /* \"#utility.yul\":14253:14268   */\n      add\n        /* \"#utility.yul\":14246:14274   */\n      mstore\n        /* \"#utility.yul\":14061:14281   */\n      pop\n      jump\t// out\n        /* \"#utility.yul\":14287:14653   */\n    tag_371:\n        /* \"#utility.yul\":14429:14432   */\n      0x00\n        /* \"#utility.yul\":14450:14517   */\n      tag_559\n        /* \"#utility.yul\":14514:14516   */\n      0x21\n        /* \"#utility.yul\":14509:14512   */\n      dup4\n        /* \"#utility.yul\":14450:14517   */\n      tag_331\n      jump\t// in\n    tag_559:\n        /* \"#utility.yul\":14443:14517   */\n      swap2\n      pop\n        /* \"#utility.yul\":14526:14619   */\n      tag_560\n        /* \"#utility.yul\":14615:14618   */\n      dup3\n        /* \"#utility.yul\":14526:14619   */\n      tag_370\n      jump\t// in\n    tag_560:\n        /* \"#utility.yul\":14644:14646   */\n      0x40\n        /* \"#utility.yul\":14639:14642   */\n      dup3\n        /* \"#utility.yul\":14635:14647   */\n      add\n        /* \"#utility.yul\":14628:14647   */\n      swap1\n      pop\n        /* \"#utility.yul\":14287:14653   */\n      swap2\n      swap1\n      pop\n      jump\t// out\n        /* \"#utility.yul\":14659:15078   */\n    tag_177:\n        /* \"#utility.yul\":14825:14829   */\n      0x00\n        /* \"#utility.yul\":14863:14865   */\n      0x20\n        /* \"#utility.yul\":14852:14861   */\n      dup3\n        /* \"#utility.yul\":14848:14866   */\n      add\n        /* \"#utility.yul\":14840:14866   */\n      swap1\n      pop\n        /* \"#utility.yul\":14912:14921   */\n      dup2\n        /* \"#utility.yul\":14906:14910   */\n      dup2\n        /* \"#utility.yul\":14902:14922   */\n      sub\n        /* \"#utility.yul\":14898:14899   */\n      0x00\n        /* \"#utility.yul\":14887:14896   */\n      dup4\n        /* \"#utility.yul\":14883:14900   */\n      add\n        /* \"#utility.yul\":14876:14923   */\n      mstore\n        /* \"#utility.yul\":14940:15071   */\n      tag_562\n        /* \"#utility.yul\":15066:15070   */\n      dup2\n        /* \"#utility.yul\":14940:15071   */\n      tag_371\n      jump\t// in\n    tag_562:\n        /* \"#utility.yul\":14932:15071   */\n      swap1\n      pop\n        /* \"#utility.yul\":14659:15078   */\n      swap2\n      swap1\n      pop\n      jump\t// out\n        /* \"#utility.yul\":15084:15494   */\n    tag_179:\n        /* \"#utility.yul\":15124:15131   */\n      0x00\n        /* \"#utility.yul\":15147:15167   */\n      tag_564\n        /* \"#utility.yul\":15165:15166   */\n      dup3\n        /* \"#utility.yul\":15147:15167   */\n      tag_342\n      jump\t// in\n    tag_564:\n        /* \"#utility.yul\":15142:15167   */\n      swap2\n      pop\n        /* \"#utility.yul\":15181:15201   */\n      tag_565\n        /* \"#utility.yul\":15199:15200   */\n      dup4\n        /* \"#utility.yul\":15181:15201   */\n      tag_342\n      jump\t// in\n    tag_565:\n        /* \"#utility.yul\":15176:15201   */\n      swap3\n      pop\n        /* \"#utility.yul\":15236:15237   */\n      dup3\n        /* \"#utility.yul\":15233:15234   */\n      dup3\n        /* \"#utility.yul\":15229:15238   */\n      mul\n        /* \"#utility.yul\":15258:15288   */\n      tag_566\n        /* \"#utility.yul\":15276:15287   */\n      dup2\n        /* \"#utility.yul\":15258:15288   */\n      tag_342\n      jump\t// in\n    tag_566:\n        /* \"#utility.yul\":15247:15288   */\n      swap2\n      pop\n        /* \"#utility.yul\":15437:15438   */\n      dup3\n        /* \"#utility.yul\":15428:15435   */\n      dup3\n        /* \"#utility.yul\":15424:15439   */\n      div\n        /* \"#utility.yul\":15421:15422   */\n      dup5\n        /* \"#utility.yul\":15418:15440   */\n      eq\n        /* \"#utility.yul\":15398:15399   */\n      dup4\n        /* \"#utility.yul\":15391:15400   */\n      iszero\n        /* \"#utility.yul\":15371:15454   */\n      or\n        /* \"#utility.yul\":15348:15487   */\n      tag_567\n      jumpi\n        /* \"#utility.yul\":15467:15485   */\n      tag_568\n      tag_365\n      jump\t// in\n    tag_568:\n        /* \"#utility.yul\":15348:15487   */\n    tag_567:\n        /* \"#utility.yul\":15132:15494   */\n      pop\n        /* \"#utility.yul\":15084:15494   */\n      swap3\n      swap2\n      pop\n      pop\n      jump\t// out\n        /* \"#utility.yul\":15500:15676   */\n    tag_372:\n        /* \"#utility.yul\":15640:15668   */\n      0x7468652062616c616e6365206973206e6f7420656e6f7567682e000000000000\n        /* \"#utility.yul\":15636:15637   */\n      0x00\n        /* \"#utility.yul\":15628:15634   */\n      dup3\n        /* \"#utility.yul\":15624:15638   */\n      add\n        /* \"#utility.yul\":15617:15669   */\n      mstore\n        /* \"#utility.yul\":15500:15676   */\n      pop\n      jump\t// out\n        /* \"#utility.yul\":15682:16048   */\n    tag_373:\n        /* \"#utility.yul\":15824:15827   */\n      0x00\n        /* \"#utility.yul\":15845:15912   */\n      tag_571\n        /* \"#utility.yul\":15909:15911   */\n      0x1a\n        /* \"#utility.yul\":15904:15907   */\n      dup4\n        /* \"#utility.yul\":15845:15912   */\n      tag_331\n      jump\t// in\n    tag_571:\n        /* \"#utility.yul\":15838:15912   */\n      swap2\n      pop\n        /* \"#utility.yul\":15921:16014   */\n      tag_572\n        /* \"#utility.yul\":16010:16013   */\n      dup3\n        /* \"#utility.yul\":15921:16014   */\n      tag_372\n      jump\t// in\n    tag_572:\n        /* \"#utility.yul\":16039:16041   */\n      0x20\n        /* \"#utility.yul\":16034:16037   */\n      dup3\n        /* \"#utility.yul\":16030:16042   */\n      add\n        /* \"#utility.yul\":16023:16042   */\n      swap1\n      pop\n        /* \"#utility.yul\":15682:16048   */\n      swap2\n      swap1\n      pop\n      jump\t// out\n        /* \"#utility.yul\":16054:16473   */\n    tag_182:\n        /* \"#utility.yul\":16220:16224   */\n      0x00\n        /* \"#utility.yul\":16258:16260   */\n      0x20\n        /* \"#utility.yul\":16247:16256   */\n      dup3\n        /* \"#utility.yul\":16243:16261   */\n      add\n        /* \"#utility.yul\":16235:16261   */\n      swap1\n      pop\n        /* \"#utility.yul\":16307:16316   */\n      dup2\n        /* \"#utility.yul\":16301:16305   */\n      dup2\n        /* \"#utility.yul\":16297:16317   */\n      sub\n        /* \"#utility.yul\":16293:16294   */\n      0x00\n        /* \"#utility.yul\":16282:16291   */\n      dup4\n        /* \"#utility.yul\":16278:16295   */\n      add\n        /* \"#utility.yul\":16271:16318   */\n      mstore\n        /* \"#utility.yul\":16335:16466   */\n      tag_574\n        /* \"#utility.yul\":16461:16465   */\n      dup2\n        /* \"#utility.yul\":16335:16466   */\n      tag_373\n      jump\t// in\n    tag_574:\n        /* \"#utility.yul\":16327:16466   */\n      swap1\n      pop\n        /* \"#utility.yul\":16054:16473   */\n      swap2\n      swap1\n      pop\n      jump\t// out\n        /* \"#utility.yul\":16479:16673   */\n    tag_185:\n        /* \"#utility.yul\":16519:16523   */\n      0x00\n        /* \"#utility.yul\":16539:16559   */\n      tag_576\n        /* \"#utility.yul\":16557:16558   */\n      dup3\n        /* \"#utility.yul\":16539:16559   */\n      tag_342\n      jump\t// in\n    tag_576:\n        /* \"#utility.yul\":16534:16559   */\n      swap2\n      pop\n        /* \"#utility.yul\":16573:16593   */\n      tag_577\n        /* \"#utility.yul\":16591:16592   */\n      dup4\n        /* \"#utility.yul\":16573:16593   */\n      tag_342\n      jump\t// in\n    tag_577:\n        /* \"#utility.yul\":16568:16593   */\n      swap3\n      pop\n        /* \"#utility.yul\":16617:16618   */\n      dup3\n        /* \"#utility.yul\":16614:16615   */\n      dup3\n        /* \"#utility.yul\":16610:16619   */\n      sub\n        /* \"#utility.yul\":16602:16619   */\n      swap1\n      pop\n        /* \"#utility.yul\":16641:16642   */\n      dup2\n        /* \"#utility.yul\":16635:16639   */\n      dup2\n        /* \"#utility.yul\":16632:16643   */\n      gt\n        /* \"#utility.yul\":16629:16666   */\n      iszero\n      tag_578\n      jumpi\n        /* \"#utility.yul\":16646:16664   */\n      tag_579\n      tag_365\n      jump\t// in\n    tag_579:\n        /* \"#utility.yul\":16629:16666   */\n    tag_578:\n        /* \"#utility.yul\":16479:16673   */\n      swap3\n      swap2\n      pop\n      pop\n      jump\t// out\n        /* \"#utility.yul\":16679:16773   */\n    tag_374:\n        /* \"#utility.yul\":16712:16720   */\n      0x00\n        /* \"#utility.yul\":16760:16765   */\n      dup2\n        /* \"#utility.yul\":16756:16758   */\n      0x60\n        /* \"#utility.yul\":16752:16766   */\n      shl\n        /* \"#utility.yul\":16731:16766   */\n      swap1\n      pop\n        /* \"#utility.yul\":16679:16773   */\n      swap2\n      swap1\n      pop\n      jump\t// out\n        /* \"#utility.yul\":16779:16873   */\n    tag_375:\n        /* \"#utility.yul\":16818:16825   */\n      0x00\n        /* \"#utility.yul\":16847:16867   */\n      tag_582\n        /* \"#utility.yul\":16861:16866   */\n      dup3\n        /* \"#utility.yul\":16847:16867   */\n      tag_374\n      jump\t// in\n    tag_582:\n        /* \"#utility.yul\":16836:16867   */\n      swap1\n      pop\n        /* \"#utility.yul\":16779:16873   */\n      swap2\n      swap1\n      pop\n      jump\t// out\n        /* \"#utility.yul\":16879:16979   */\n    tag_376:\n        /* \"#utility.yul\":16918:16925   */\n      0x00\n        /* \"#utility.yul\":16947:16973   */\n      tag_584\n        /* \"#utility.yul\":16967:16972   */\n      dup3\n        /* \"#utility.yul\":16947:16973   */\n      tag_375\n      jump\t// in\n    tag_584:\n        /* \"#utility.yul\":16936:16973   */\n      swap1\n      pop\n        /* \"#utility.yul\":16879:16979   */\n      swap2\n      swap1\n      pop\n      jump\t// out\n        /* \"#utility.yul\":16985:17142   */\n    tag_377:\n        /* \"#utility.yul\":17090:17135   */\n      tag_586\n        /* \"#utility.yul\":17110:17134   */\n      tag_587\n        /* \"#utility.yul\":17128:17133   */\n      dup3\n        /* \"#utility.yul\":17110:17134   */\n      tag_339\n      jump\t// in\n    tag_587:\n        /* \"#utility.yul\":17090:17135   */\n      tag_376\n      jump\t// in\n    tag_586:\n        /* \"#utility.yul\":17085:17088   */\n      dup3\n        /* \"#utility.yul\":17078:17136   */\n      mstore\n        /* \"#utility.yul\":16985:17142   */\n      pop\n      pop\n      jump\t// out\n        /* \"#utility.yul\":17148:17404   */\n    tag_199:\n        /* \"#utility.yul\":17260:17263   */\n      0x00\n        /* \"#utility.yul\":17275:17350   */\n      tag_589\n        /* \"#utility.yul\":17346:17349   */\n      dup3\n        /* \"#utility.yul\":17337:17343   */\n      dup5\n        /* \"#utility.yul\":17275:17350   */\n      tag_377\n      jump\t// in\n    tag_589:\n        /* \"#utility.yul\":17375:17377   */\n      0x14\n        /* \"#utility.yul\":17370:17373   */\n      dup3\n        /* \"#utility.yul\":17366:17378   */\n      add\n        /* \"#utility.yul\":17359:17378   */\n      swap2\n      pop\n        /* \"#utility.yul\":17395:17398   */\n      dup2\n        /* \"#utility.yul\":17388:17398   */\n      swap1\n      pop\n        /* \"#utility.yul\":17148:17404   */\n      swap3\n      swap2\n      pop\n      pop\n      jump\t// out\n        /* \"#utility.yul\":17410:17585   */\n    tag_378:\n        /* \"#utility.yul\":17550:17577   */\n      0x596f75722061646472657373206973206e6f7420657869737400000000000000\n        /* \"#utility.yul\":17546:17547   */\n      0x00\n        /* \"#utility.yul\":17538:17544   */\n      dup3\n        /* \"#utility.yul\":17534:17548   */\n      add\n        /* \"#utility.yul\":17527:17578   */\n      mstore\n        /* \"#utility.yul\":17410:17585   */\n      pop\n      jump\t// out\n        /* \"#utility.yul\":17591:17957   */\n    tag_379:\n        /* \"#utility.yul\":17733:17736   */\n      0x00\n        /* \"#utility.yul\":17754:17821   */\n      tag_592\n        /* \"#utility.yul\":17818:17820   */\n      0x19\n        /* \"#utility.yul\":17813:17816   */\n      dup4\n        /* \"#utility.yul\":17754:17821   */\n      tag_331\n      jump\t// in\n    tag_592:\n        /* \"#utility.yul\":17747:17821   */\n      swap2\n      pop\n        /* \"#utility.yul\":17830:17923   */\n      tag_593\n        /* \"#utility.yul\":17919:17922   */\n      dup3\n        /* \"#utility.yul\":17830:17923   */\n      tag_378\n      jump\t// in\n    tag_593:\n        /* \"#utility.yul\":17948:17950   */\n      0x20\n        /* \"#utility.yul\":17943:17946   */\n      dup3\n        /* \"#utility.yul\":17939:17951   */\n      add\n        /* \"#utility.yul\":17932:17951   */\n      swap1\n      pop\n        /* \"#utility.yul\":17591:17957   */\n      swap2\n      swap1\n      pop\n      jump\t// out\n        /* \"#utility.yul\":17963:18382   */\n    tag_219:\n        /* \"#utility.yul\":18129:18133   */\n      0x00\n        /* \"#utility.yul\":18167:18169   */\n      0x20\n        /* \"#utility.yul\":18156:18165   */\n      dup3\n        /* \"#utility.yul\":18152:18170   */\n      add\n        /* \"#utility.yul\":18144:18170   */\n      swap1\n      pop\n        /* \"#utility.yul\":18216:18225   */\n      dup2\n        /* \"#utility.yul\":18210:18214   */\n      dup2\n        /* \"#utility.yul\":18206:18226   */\n      sub\n        /* \"#utility.yul\":18202:18203   */\n      0x00\n        /* \"#utility.yul\":18191:18200   */\n      dup4\n        /* \"#utility.yul\":18187:18204   */\n      add\n        /* \"#utility.yul\":18180:18227   */\n      mstore\n        /* \"#utility.yul\":18244:18375   */\n      tag_595\n        /* \"#utility.yul\":18370:18374   */\n      dup2\n        /* \"#utility.yul\":18244:18375   */\n      tag_379\n      jump\t// in\n    tag_595:\n        /* \"#utility.yul\":18236:18375   */\n      swap1\n      pop\n        /* \"#utility.yul\":17963:18382   */\n      swap2\n      swap1\n      pop\n      jump\t// out\n        /* \"#utility.yul\":18388:18612   */\n    tag_380:\n        /* \"#utility.yul\":18528:18562   */\n      0x45524332303a2064656372656173656420616c6c6f77616e63652062656c6f77\n        /* \"#utility.yul\":18524:18525   */\n      0x00\n        /* \"#utility.yul\":18516:18522   */\n      dup3\n        /* \"#utility.yul\":18512:18526   */\n      add\n        /* \"#utility.yul\":18505:18563   */\n      mstore\n        /* \"#utility.yul\":18597:18604   */\n      0x207a65726f000000000000000000000000000000000000000000000000000000\n        /* \"#utility.yul\":18592:18594   */\n      0x20\n        /* \"#utility.yul\":18584:18590   */\n      dup3\n        /* \"#utility.yul\":18580:18595   */\n      add\n        /* \"#utility.yul\":18573:18605   */\n      mstore\n        /* \"#utility.yul\":18388:18612   */\n      pop\n      jump\t// out\n        /* \"#utility.yul\":18618:18984   */\n    tag_381:\n        /* \"#utility.yul\":18760:18763   */\n      0x00\n        /* \"#utility.yul\":18781:18848   */\n      tag_598\n        /* \"#utility.yul\":18845:18847   */\n      0x25\n        /* \"#utility.yul\":18840:18843   */\n      dup4\n        /* \"#utility.yul\":18781:18848   */\n      tag_331\n      jump\t// in\n    tag_598:\n        /* \"#utility.yul\":18774:18848   */\n      swap2\n      pop\n        /* \"#utility.yul\":18857:18950   */\n      tag_599\n        /* \"#utility.yul\":18946:18949   */\n      dup3\n        /* \"#utility.yul\":18857:18950   */\n      tag_380\n      jump\t// in\n    tag_599:\n        /* \"#utility.yul\":18975:18977   */\n      0x40\n        /* \"#utility.yul\":18970:18973   */\n      dup3\n        /* \"#utility.yul\":18966:18978   */\n      add\n        /* \"#utility.yul\":18959:18978   */\n      swap1\n      pop\n        /* \"#utility.yul\":18618:18984   */\n      swap2\n      swap1\n      pop\n      jump\t// out\n        /* \"#utility.yul\":18990:19409   */\n    tag_233:\n        /* \"#utility.yul\":19156:19160   */\n      0x00\n        /* \"#utility.yul\":19194:19196   */\n      0x20\n        /* \"#utility.yul\":19183:19192   */\n      dup3\n        /* \"#utility.yul\":19179:19197   */\n      add\n        /* \"#utility.yul\":19171:19197   */\n      swap1\n      pop\n        /* \"#utility.yul\":19243:19252   */\n      dup2\n        /* \"#utility.yul\":19237:19241   */\n      dup2\n        /* \"#utility.yul\":19233:19253   */\n      sub\n        /* \"#utility.yul\":19229:19230   */\n      0x00\n        /* \"#utility.yul\":19218:19227   */\n      dup4\n        /* \"#utility.yul\":19214:19231   */\n      add\n        /* \"#utility.yul\":19207:19254   */\n      mstore\n        /* \"#utility.yul\":19271:19402   */\n      tag_601\n        /* \"#utility.yul\":19397:19401   */\n      dup2\n        /* \"#utility.yul\":19271:19402   */\n      tag_381\n      jump\t// in\n    tag_601:\n        /* \"#utility.yul\":19263:19402   */\n      swap1\n      pop\n        /* \"#utility.yul\":18990:19409   */\n      swap2\n      swap1\n      pop\n      jump\t// out\n        /* \"#utility.yul\":19415:19578   */\n    tag_382:\n        /* \"#utility.yul\":19555:19570   */\n      0x496e76616c69642070726f6f6600000000000000000000000000000000000000\n        /* \"#utility.yul\":19551:19552   */\n      0x00\n        /* \"#utility.yul\":19543:19549   */\n      dup3\n        /* \"#utility.yul\":19539:19553   */\n      add\n        /* \"#utility.yul\":19532:19571   */\n      mstore\n        /* \"#utility.yul\":19415:19578   */\n      pop\n      jump\t// out\n        /* \"#utility.yul\":19584:19950   */\n    tag_383:\n        /* \"#utility.yul\":19726:19729   */\n      0x00\n        /* \"#utility.yul\":19747:19814   */\n      tag_604\n        /* \"#utility.yul\":19811:19813   */\n      0x0d\n        /* \"#utility.yul\":19806:19809   */\n      dup4\n        /* \"#utility.yul\":19747:19814   */\n      tag_331\n      jump\t// in\n    tag_604:\n        /* \"#utility.yul\":19740:19814   */\n      swap2\n      pop\n        /* \"#utility.yul\":19823:19916   */\n      tag_605\n        /* \"#utility.yul\":19912:19915   */\n      dup3\n        /* \"#utility.yul\":19823:19916   */\n      tag_382\n      jump\t// in\n    tag_605:\n        /* \"#utility.yul\":19941:19943   */\n      0x20\n        /* \"#utility.yul\":19936:19939   */\n      dup3\n        /* \"#utility.yul\":19932:19944   */\n      add\n        /* \"#utility.yul\":19925:19944   */\n      swap1\n      pop\n        /* \"#utility.yul\":19584:19950   */\n      swap2\n      swap1\n      pop\n      jump\t// out\n        /* \"#utility.yul\":19956:20375   */\n    tag_247:\n        /* \"#utility.yul\":20122:20126   */\n      0x00\n        /* \"#utility.yul\":20160:20162   */\n      0x20\n        /* \"#utility.yul\":20149:20158   */\n      dup3\n        /* \"#utility.yul\":20145:20163   */\n      add\n        /* \"#utility.yul\":20137:20163   */\n      swap1\n      pop\n        /* \"#utility.yul\":20209:20218   */\n      dup2\n        /* \"#utility.yul\":20203:20207   */\n      dup2\n        /* \"#utility.yul\":20199:20219   */\n      sub\n        /* \"#utility.yul\":20195:20196   */\n      0x00\n        /* \"#utility.yul\":20184:20193   */\n      dup4\n        /* \"#utility.yul\":20180:20197   */\n      add\n        /* \"#utility.yul\":20173:20220   */\n      mstore\n        /* \"#utility.yul\":20237:20368   */\n      tag_607\n        /* \"#utility.yul\":20363:20367   */\n      dup2\n        /* \"#utility.yul\":20237:20368   */\n      tag_383\n      jump\t// in\n    tag_607:\n        /* \"#utility.yul\":20229:20368   */\n      swap1\n      pop\n        /* \"#utility.yul\":19956:20375   */\n      swap2\n      swap1\n      pop\n      jump\t// out\n        /* \"#utility.yul\":20381:20554   */\n    tag_384:\n        /* \"#utility.yul\":20521:20546   */\n      0x4f6e6c79206f776e65722063616e2073657420726f6f74000000000000000000\n        /* \"#utility.yul\":20517:20518   */\n      0x00\n        /* \"#utility.yul\":20509:20515   */\n      dup3\n        /* \"#utility.yul\":20505:20519   */\n      add\n        /* \"#utility.yul\":20498:20547   */\n      mstore\n        /* \"#utility.yul\":20381:20554   */\n      pop\n      jump\t// out\n        /* \"#utility.yul\":20560:20926   */\n    tag_385:\n        /* \"#utility.yul\":20702:20705   */\n      0x00\n        /* \"#utility.yul\":20723:20790   */\n      tag_610\n        /* \"#utility.yul\":20787:20789   */\n      0x17\n        /* \"#utility.yul\":20782:20785   */\n      dup4\n        /* \"#utility.yul\":20723:20790   */\n      tag_331\n      jump\t// in\n    tag_610:\n        /* \"#utility.yul\":20716:20790   */\n      swap2\n      pop\n        /* \"#utility.yul\":20799:20892   */\n      tag_611\n        /* \"#utility.yul\":20888:20891   */\n      dup3\n        /* \"#utility.yul\":20799:20892   */\n      tag_384\n      jump\t// in\n    tag_611:\n        /* \"#utility.yul\":20917:20919   */\n      0x20\n        /* \"#utility.yul\":20912:20915   */\n      dup3\n        /* \"#utility.yul\":20908:20920   */\n      add\n        /* \"#utility.yul\":20901:20920   */\n      swap1\n      pop\n        /* \"#utility.yul\":20560:20926   */\n      swap2\n      swap1\n      pop\n      jump\t// out\n        /* \"#utility.yul\":20932:21351   */\n    tag_256:\n        /* \"#utility.yul\":21098:21102   */\n      0x00\n        /* \"#utility.yul\":21136:21138   */\n      0x20\n        /* \"#utility.yul\":21125:21134   */\n      dup3\n        /* \"#utility.yul\":21121:21139   */\n      add\n        /* \"#utility.yul\":21113:21139   */\n      swap1\n      pop\n        /* \"#utility.yul\":21185:21194   */\n      dup2\n        /* \"#utility.yul\":21179:21183   */\n      dup2\n        /* \"#utility.yul\":21175:21195   */\n      sub\n        /* \"#utility.yul\":21171:21172   */\n      0x00\n        /* \"#utility.yul\":21160:21169   */\n      dup4\n        /* \"#utility.yul\":21156:21173   */\n      add\n        /* \"#utility.yul\":21149:21196   */\n      mstore\n        /* \"#utility.yul\":21213:21344   */\n      tag_613\n        /* \"#utility.yul\":21339:21343   */\n      dup2\n        /* \"#utility.yul\":21213:21344   */\n      tag_385\n      jump\t// in\n    tag_613:\n        /* \"#utility.yul\":21205:21344   */\n      swap1\n      pop\n        /* \"#utility.yul\":20932:21351   */\n      swap2\n      swap1\n      pop\n      jump\t// out\n        /* \"#utility.yul\":21357:21580   */\n    tag_386:\n        /* \"#utility.yul\":21497:21531   */\n      0x45524332303a20617070726f76652066726f6d20746865207a65726f20616464\n        /* \"#utility.yul\":21493:21494   */\n      0x00\n        /* \"#utility.yul\":21485:21491   */\n      dup3\n        /* \"#utility.yul\":21481:21495   */\n      add\n        /* \"#utility.yul\":21474:21532   */\n      mstore\n        /* \"#utility.yul\":21566:21572   */\n      0x7265737300000000000000000000000000000000000000000000000000000000\n        /* \"#utility.yul\":21561:21563   */\n      0x20\n        /* \"#utility.yul\":21553:21559   */\n      dup3\n        /* \"#utility.yul\":21549:21564   */\n      add\n        /* \"#utility.yul\":21542:21573   */\n      mstore\n        /* \"#utility.yul\":21357:21580   */\n      pop\n      jump\t// out\n        /* \"#utility.yul\":21586:21952   */\n    tag_387:\n        /* \"#utility.yul\":21728:21731   */\n      0x00\n        /* \"#utility.yul\":21749:21816   */\n      tag_616\n        /* \"#utility.yul\":21813:21815   */\n      0x24\n        /* \"#utility.yul\":21808:21811   */\n      dup4\n        /* \"#utility.yul\":21749:21816   */\n      tag_331\n      jump\t// in\n    tag_616:\n        /* \"#utility.yul\":21742:21816   */\n      swap2\n      pop\n        /* \"#utility.yul\":21825:21918   */\n      tag_617\n        /* \"#utility.yul\":21914:21917   */\n      dup3\n        /* \"#utility.yul\":21825:21918   */\n      tag_386\n      jump\t// in\n    tag_617:\n        /* \"#utility.yul\":21943:21945   */\n      0x40\n        /* \"#utility.yul\":21938:21941   */\n      dup3\n        /* \"#utility.yul\":21934:21946   */\n      add\n        /* \"#utility.yul\":21927:21946   */\n      swap1\n      pop\n        /* \"#utility.yul\":21586:21952   */\n      swap2\n      swap1\n      pop\n      jump\t// out\n        /* \"#utility.yul\":21958:22377   */\n    tag_262:\n        /* \"#utility.yul\":22124:22128   */\n      0x00\n        /* \"#utility.yul\":22162:22164   */\n      0x20\n        /* \"#utility.yul\":22151:22160   */\n      dup3\n        /* \"#utility.yul\":22147:22165   */\n      add\n        /* \"#utility.yul\":22139:22165   */\n      swap1\n      pop\n        /* \"#utility.yul\":22211:22220   */\n      dup2\n        /* \"#utility.yul\":22205:22209   */\n      dup2\n        /* \"#utility.yul\":22201:22221   */\n      sub\n        /* \"#utility.yul\":22197:22198   */\n      0x00\n        /* \"#utility.yul\":22186:22195   */\n      dup4\n        /* \"#utility.yul\":22182:22199   */\n      add\n        /* \"#utility.yul\":22175:22222   */\n      mstore\n        /* \"#utility.yul\":22239:22370   */\n      tag_619\n        /* \"#utility.yul\":22365:22369   */\n      dup2\n        /* \"#utility.yul\":22239:22370   */\n      tag_387\n      jump\t// in\n    tag_619:\n        /* \"#utility.yul\":22231:22370   */\n      swap1\n      pop\n        /* \"#utility.yul\":21958:22377   */\n      swap2\n      swap1\n      pop\n      jump\t// out\n        /* \"#utility.yul\":22383:22604   */\n    tag_388:\n        /* \"#utility.yul\":22523:22557   */\n      0x45524332303a20617070726f766520746f20746865207a65726f206164647265\n        /* \"#utility.yul\":22519:22520   */\n      0x00\n        /* \"#utility.yul\":22511:22517   */\n      dup3\n        /* \"#utility.yul\":22507:22521   */\n      add\n        /* \"#utility.yul\":22500:22558   */\n      mstore\n        /* \"#utility.yul\":22592:22596   */\n      0x7373000000000000000000000000000000000000000000000000000000000000\n        /* \"#utility.yul\":22587:22589   */\n      0x20\n        /* \"#utility.yul\":22579:22585   */\n      dup3\n        /* \"#utility.yul\":22575:22590   */\n      add\n        /* \"#utility.yul\":22568:22597   */\n      mstore\n        /* \"#utility.yul\":22383:22604   */\n      pop\n      jump\t// out\n        /* \"#utility.yul\":22610:22976   */\n    tag_389:\n        /* \"#utility.yul\":22752:22755   */\n      0x00\n        /* \"#utility.yul\":22773:22840   */\n      tag_622\n        /* \"#utility.yul\":22837:22839   */\n      0x22\n        /* \"#utility.yul\":22832:22835   */\n      dup4\n        /* \"#utility.yul\":22773:22840   */\n      tag_331\n      jump\t// in\n    tag_622:\n        /* \"#utility.yul\":22766:22840   */\n      swap2\n      pop\n        /* \"#utility.yul\":22849:22942   */\n      tag_623\n        /* \"#utility.yul\":22938:22941   */\n      dup3\n        /* \"#utility.yul\":22849:22942   */\n      tag_388\n      jump\t// in\n    tag_623:\n        /* \"#utility.yul\":22967:22969   */\n      0x40\n        /* \"#utility.yul\":22962:22965   */\n      dup3\n        /* \"#utility.yul\":22958:22970   */\n      add\n        /* \"#utility.yul\":22951:22970   */\n      swap1\n      pop\n        /* \"#utility.yul\":22610:22976   */\n      swap2\n      swap1\n      pop\n      jump\t// out\n        /* \"#utility.yul\":22982:23401   */\n    tag_265:\n        /* \"#utility.yul\":23148:23152   */\n      0x00\n        /* \"#utility.yul\":23186:23188   */\n      0x20\n        /* \"#utility.yul\":23175:23184   */\n      dup3\n        /* \"#utility.yul\":23171:23189   */\n      add\n        /* \"#utility.yul\":23163:23189   */\n      swap1\n      pop\n        /* \"#utility.yul\":23235:23244   */\n      dup2\n        /* \"#utility.yul\":23229:23233   */\n      dup2\n        /* \"#utility.yul\":23225:23245   */\n      sub\n        /* \"#utility.yul\":23221:23222   */\n      0x00\n        /* \"#utility.yul\":23210:23219   */\n      dup4\n        /* \"#utility.yul\":23206:23223   */\n      add\n        /* \"#utility.yul\":23199:23246   */\n      mstore\n        /* \"#utility.yul\":23263:23394   */\n      tag_625\n        /* \"#utility.yul\":23389:23393   */\n      dup2\n        /* \"#utility.yul\":23263:23394   */\n      tag_389\n      jump\t// in\n    tag_625:\n        /* \"#utility.yul\":23255:23394   */\n      swap1\n      pop\n        /* \"#utility.yul\":22982:23401   */\n      swap2\n      swap1\n      pop\n      jump\t// out\n        /* \"#utility.yul\":23407:23586   */\n    tag_390:\n        /* \"#utility.yul\":23547:23578   */\n      0x45524332303a20696e73756666696369656e7420616c6c6f77616e6365000000\n        /* \"#utility.yul\":23543:23544   */\n      0x00\n        /* \"#utility.yul\":23535:23541   */\n      dup3\n        /* \"#utility.yul\":23531:23545   */\n      add\n        /* \"#utility.yul\":23524:23579   */\n      mstore\n        /* \"#utility.yul\":23407:23586   */\n      pop\n      jump\t// out\n        /* \"#utility.yul\":23592:23958   */\n    tag_391:\n        /* \"#utility.yul\":23734:23737   */\n      0x00\n        /* \"#utility.yul\":23755:23822   */\n      tag_628\n        /* \"#utility.yul\":23819:23821   */\n      0x1d\n        /* \"#utility.yul\":23814:23817   */\n      dup4\n        /* \"#utility.yul\":23755:23822   */\n      tag_331\n      jump\t// in\n    tag_628:\n        /* \"#utility.yul\":23748:23822   */\n      swap2\n      pop\n        /* \"#utility.yul\":23831:23924   */\n      tag_629\n        /* \"#utility.yul\":23920:23923   */\n      dup3\n        /* \"#utility.yul\":23831:23924   */\n      tag_390\n      jump\t// in\n    tag_629:\n        /* \"#utility.yul\":23949:23951   */\n      0x20\n        /* \"#utility.yul\":23944:23947   */\n      dup3\n        /* \"#utility.yul\":23940:23952   */\n      add\n        /* \"#utility.yul\":23933:23952   */\n      swap1\n      pop\n        /* \"#utility.yul\":23592:23958   */\n      swap2\n      swap1\n      pop\n      jump\t// out\n        /* \"#utility.yul\":23964:24383   */\n    tag_272:\n        /* \"#utility.yul\":24130:24134   */\n      0x00\n        /* \"#utility.yul\":24168:24170   */\n      0x20\n        /* \"#utility.yul\":24157:24166   */\n      dup3\n        /* \"#utility.yul\":24153:24171   */\n      add\n        /* \"#utility.yul\":24145:24171   */\n      swap1\n      pop\n        /* \"#utility.yul\":24217:24226   */\n      dup2\n        /* \"#utility.yul\":24211:24215   */\n      dup2\n        /* \"#utility.yul\":24207:24227   */\n      sub\n        /* \"#utility.yul\":24203:24204   */\n      0x00\n        /* \"#utility.yul\":24192:24201   */\n      dup4\n        /* \"#utility.yul\":24188:24205   */\n      add\n        /* \"#utility.yul\":24181:24228   */\n      mstore\n        /* \"#utility.yul\":24245:24376   */\n      tag_631\n        /* \"#utility.yul\":24371:24375   */\n      dup2\n        /* \"#utility.yul\":24245:24376   */\n      tag_391\n      jump\t// in\n    tag_631:\n        /* \"#utility.yul\":24237:24376   */\n      swap1\n      pop\n        /* \"#utility.yul\":23964:24383   */\n      swap2\n      swap1\n      pop\n      jump\t// out\n        /* \"#utility.yul\":24389:24613   */\n    tag_392:\n        /* \"#utility.yul\":24529:24563   */\n      0x45524332303a207472616e736665722066726f6d20746865207a65726f206164\n        /* \"#utility.yul\":24525:24526   */\n      0x00\n        /* \"#utility.yul\":24517:24523   */\n      dup3\n        /* \"#utility.yul\":24513:24527   */\n      add\n        /* \"#utility.yul\":24506:24564   */\n      mstore\n        /* \"#utility.yul\":24598:24605   */\n      0x6472657373000000000000000000000000000000000000000000000000000000\n        /* \"#utility.yul\":24593:24595   */\n      0x20\n        /* \"#utility.yul\":24585:24591   */\n      dup3\n        /* \"#utility.yul\":24581:24596   */\n      add\n        /* \"#utility.yul\":24574:24606   */\n      mstore\n        /* \"#utility.yul\":24389:24613   */\n      pop\n      jump\t// out\n        /* \"#utility.yul\":24619:24985   */\n    tag_393:\n        /* \"#utility.yul\":24761:24764   */\n      0x00\n        /* \"#utility.yul\":24782:24849   */\n      tag_634\n        /* \"#utility.yul\":24846:24848   */\n      0x25\n        /* \"#utility.yul\":24841:24844   */\n      dup4\n        /* \"#utility.yul\":24782:24849   */\n      tag_331\n      jump\t// in\n    tag_634:\n        /* \"#utility.yul\":24775:24849   */\n      swap2\n      pop\n        /* \"#utility.yul\":24858:24951   */\n      tag_635\n        /* \"#utility.yul\":24947:24950   */\n      dup3\n        /* \"#utility.yul\":24858:24951   */\n      tag_392\n      jump\t// in\n    tag_635:\n        /* \"#utility.yul\":24976:24978   */\n      0x40\n        /* \"#utility.yul\":24971:24974   */\n      dup3\n        /* \"#utility.yul\":24967:24979   */\n      add\n        /* \"#utility.yul\":24960:24979   */\n      swap1\n      pop\n        /* \"#utility.yul\":24619:24985   */\n      swap2\n      swap1\n      pop\n      jump\t// out\n        /* \"#utility.yul\":24991:25410   */\n    tag_277:\n        /* \"#utility.yul\":25157:25161   */\n      0x00\n        /* \"#utility.yul\":25195:25197   */\n      0x20\n        /* \"#utility.yul\":25184:25193   */\n      dup3\n        /* \"#utility.yul\":25180:25198   */\n      add\n        /* \"#utility.yul\":25172:25198   */\n      swap1\n      pop\n        /* \"#utility.yul\":25244:25253   */\n      dup2\n        /* \"#utility.yul\":25238:25242   */\n      dup2\n        /* \"#utility.yul\":25234:25254   */\n      sub\n        /* \"#utility.yul\":25230:25231   */\n      0x00\n        /* \"#utility.yul\":25219:25228   */\n      dup4\n        /* \"#utility.yul\":25215:25232   */\n      add\n        /* \"#utility.yul\":25208:25255   */\n      mstore\n        /* \"#utility.yul\":25272:25403   */\n      tag_637\n        /* \"#utility.yul\":25398:25402   */\n      dup2\n        /* \"#utility.yul\":25272:25403   */\n      tag_393\n      jump\t// in\n    tag_637:\n        /* \"#utility.yul\":25264:25403   */\n      swap1\n      pop\n        /* \"#utility.yul\":24991:25410   */\n      swap2\n      swap1\n      pop\n      jump\t// out\n        /* \"#utility.yul\":25416:25638   */\n    tag_394:\n        /* \"#utility.yul\":25556:25590   */\n      0x45524332303a207472616e7366657220746f20746865207a65726f2061646472\n        /* \"#utility.yul\":25552:25553   */\n      0x00\n        /* \"#utility.yul\":25544:25550   */\n      dup3\n        /* \"#utility.yul\":25540:25554   */\n      add\n        /* \"#utility.yul\":25533:25591   */\n      mstore\n        /* \"#utility.yul\":25625:25630   */\n      0x6573730000000000000000000000000000000000000000000000000000000000\n        /* \"#utility.yul\":25620:25622   */\n      0x20\n        /* \"#utility.yul\":25612:25618   */\n      dup3\n        /* \"#utility.yul\":25608:25623   */\n      add\n        /* \"#utility.yul\":25601:25631   */\n      mstore\n        /* \"#utility.yul\":25416:25638   */\n      pop\n      jump\t// out\n        /* \"#utility.yul\":25644:26010   */\n    tag_395:\n        /* \"#utility.yul\":25786:25789   */\n      0x00\n        /* \"#utility.yul\":25807:25874   */\n      tag_640\n        /* \"#utility.yul\":25871:25873   */\n      0x23\n        /* \"#utility.yul\":25866:25869   */\n      dup4\n        /* \"#utility.yul\":25807:25874   */\n      tag_331\n      jump\t// in\n    tag_640:\n        /* \"#utility.yul\":25800:25874   */\n      swap2\n      pop\n        /* \"#utility.yul\":25883:25976   */\n      tag_641\n        /* \"#utility.yul\":25972:25975   */\n      dup3\n        /* \"#utility.yul\":25883:25976   */\n      tag_394\n      jump\t// in\n    tag_641:\n        /* \"#utility.yul\":26001:26003   */\n      0x40\n        /* \"#utility.yul\":25996:25999   */\n      dup3\n        /* \"#utility.yul\":25992:26004   */\n      add\n        /* \"#utility.yul\":25985:26004   */\n      swap1\n      pop\n        /* \"#utility.yul\":25644:26010   */\n      swap2\n      swap1\n      pop\n      jump\t// out\n        /* \"#utility.yul\":26016:26435   */\n    tag_280:\n        /* \"#utility.yul\":26182:26186   */\n      0x00\n        /* \"#utility.yul\":26220:26222   */\n      0x20\n        /* \"#utility.yul\":26209:26218   */\n      dup3\n        /* \"#utility.yul\":26205:26223   */\n      add\n        /* \"#utility.yul\":26197:26223   */\n      swap1\n      pop\n        /* \"#utility.yul\":26269:26278   */\n      dup2\n        /* \"#utility.yul\":26263:26267   */\n      dup2\n        /* \"#utility.yul\":26259:26279   */\n      sub\n        /* \"#utility.yul\":26255:26256   */\n      0x00\n        /* \"#utility.yul\":26244:26253   */\n      dup4\n        /* \"#utility.yul\":26240:26257   */\n      add\n        /* \"#utility.yul\":26233:26280   */\n      mstore\n        /* \"#utility.yul\":26297:26428   */\n      tag_643\n        /* \"#utility.yul\":26423:26427   */\n      dup2\n        /* \"#utility.yul\":26297:26428   */\n      tag_395\n      jump\t// in\n    tag_643:\n        /* \"#utility.yul\":26289:26428   */\n      swap1\n      pop\n        /* \"#utility.yul\":26016:26435   */\n      swap2\n      swap1\n      pop\n      jump\t// out\n        /* \"#utility.yul\":26441:26666   */\n    tag_396:\n        /* \"#utility.yul\":26581:26615   */\n      0x45524332303a207472616e7366657220616d6f756e7420657863656564732062\n        /* \"#utility.yul\":26577:26578   */\n      0x00\n        /* \"#utility.yul\":26569:26575   */\n      dup3\n        /* \"#utility.yul\":26565:26579   */\n      add\n        /* \"#utility.yul\":26558:26616   */\n      mstore\n        /* \"#utility.yul\":26650:26658   */\n      0x616c616e63650000000000000000000000000000000000000000000000000000\n        /* \"#utility.yul\":26645:26647   */\n      0x20\n        /* \"#utility.yul\":26637:26643   */\n      dup3\n        /* \"#utility.yul\":26633:26648   */\n      add\n        /* \"#utility.yul\":26626:26659   */\n      mstore\n        /* \"#utility.yul\":26441:26666   */\n      pop\n      jump\t// out\n        /* \"#utility.yul\":26672:27038   */\n    tag_397:\n        /* \"#utility.yul\":26814:26817   */\n      0x00\n        /* \"#utility.yul\":26835:26902   */\n      tag_646\n        /* \"#utility.yul\":26899:26901   */\n      0x26\n        /* \"#utility.yul\":26894:26897   */\n      dup4\n        /* \"#utility.yul\":26835:26902   */\n      tag_331\n      jump\t// in\n    tag_646:\n        /* \"#utility.yul\":26828:26902   */\n      swap2\n      pop\n        /* \"#utility.yul\":26911:27004   */\n      tag_647\n        /* \"#utility.yul\":27000:27003   */\n      dup3\n        /* \"#utility.yul\":26911:27004   */\n      tag_396\n      jump\t// in\n    tag_647:\n        /* \"#utility.yul\":27029:27031   */\n      0x40\n        /* \"#utility.yul\":27024:27027   */\n      dup3\n        /* \"#utility.yul\":27020:27032   */\n      add\n        /* \"#utility.yul\":27013:27032   */\n      swap1\n      pop\n        /* \"#utility.yul\":26672:27038   */\n      swap2\n      swap1\n      pop\n      jump\t// out\n        /* \"#utility.yul\":27044:27463   */\n    tag_285:\n        /* \"#utility.yul\":27210:27214   */\n      0x00\n        /* \"#utility.yul\":27248:27250   */\n      0x20\n        /* \"#utility.yul\":27237:27246   */\n      dup3\n        /* \"#utility.yul\":27233:27251   */\n      add\n        /* \"#utility.yul\":27225:27251   */\n      swap1\n      pop\n        /* \"#utility.yul\":27297:27306   */\n      dup2\n        /* \"#utility.yul\":27291:27295   */\n      dup2\n        /* \"#utility.yul\":27287:27307   */\n      sub\n        /* \"#utility.yul\":27283:27284   */\n      0x00\n        /* \"#utility.yul\":27272:27281   */\n      dup4\n        /* \"#utility.yul\":27268:27285   */\n      add\n        /* \"#utility.yul\":27261:27308   */\n      mstore\n        /* \"#utility.yul\":27325:27456   */\n      tag_649\n        /* \"#utility.yul\":27451:27455   */\n      dup2\n        /* \"#utility.yul\":27325:27456   */\n      tag_397\n      jump\t// in\n    tag_649:\n        /* \"#utility.yul\":27317:27456   */\n      swap1\n      pop\n        /* \"#utility.yul\":27044:27463   */\n      swap2\n      swap1\n      pop\n      jump\t// out\n        /* \"#utility.yul\":27469:27650   */\n    tag_398:\n        /* \"#utility.yul\":27609:27642   */\n      0x45524332303a206d696e7420746f20746865207a65726f206164647265737300\n        /* \"#utility.yul\":27605:27606   */\n      0x00\n        /* \"#utility.yul\":27597:27603   */\n      dup3\n        /* \"#utility.yul\":27593:27607   */\n      add\n        /* \"#utility.yul\":27586:27643   */\n      mstore\n        /* \"#utility.yul\":27469:27650   */\n      pop\n      jump\t// out\n        /* \"#utility.yul\":27656:28022   */\n    tag_399:\n        /* \"#utility.yul\":27798:27801   */\n      0x00\n        /* \"#utility.yul\":27819:27886   */\n      tag_652\n        /* \"#utility.yul\":27883:27885   */\n      0x1f\n        /* \"#utility.yul\":27878:27881   */\n      dup4\n        /* \"#utility.yul\":27819:27886   */\n      tag_331\n      jump\t// in\n    tag_652:\n        /* \"#utility.yul\":27812:27886   */\n      swap2\n      pop\n        /* \"#utility.yul\":27895:27988   */\n      tag_653\n        /* \"#utility.yul\":27984:27987   */\n      dup3\n        /* \"#utility.yul\":27895:27988   */\n      tag_398\n      jump\t// in\n    tag_653:\n        /* \"#utility.yul\":28013:28015   */\n      0x20\n        /* \"#utility.yul\":28008:28011   */\n      dup3\n        /* \"#utility.yul\":28004:28016   */\n      add\n        /* \"#utility.yul\":27997:28016   */\n      swap1\n      pop\n        /* \"#utility.yul\":27656:28022   */\n      swap2\n      swap1\n      pop\n      jump\t// out\n        /* \"#utility.yul\":28028:28447   */\n    tag_292:\n        /* \"#utility.yul\":28194:28198   */\n      0x00\n        /* \"#utility.yul\":28232:28234   */\n      0x20\n        /* \"#utility.yul\":28221:28230   */\n      dup3\n        /* \"#utility.yul\":28217:28235   */\n      add\n        /* \"#utility.yul\":28209:28235   */\n      swap1\n      pop\n        /* \"#utility.yul\":28281:28290   */\n      dup2\n        /* \"#utility.yul\":28275:28279   */\n      dup2\n        /* \"#utility.yul\":28271:28291   */\n      sub\n        /* \"#utility.yul\":28267:28268   */\n      0x00\n        /* \"#utility.yul\":28256:28265   */\n      dup4\n        /* \"#utility.yul\":28252:28269   */\n      add\n        /* \"#utility.yul\":28245:28292   */\n      mstore\n        /* \"#utility.yul\":28309:28440   */\n      tag_655\n        /* \"#utility.yul\":28435:28439   */\n      dup2\n        /* \"#utility.yul\":28309:28440   */\n      tag_399\n      jump\t// in\n    tag_655:\n        /* \"#utility.yul\":28301:28440   */\n      swap1\n      pop\n        /* \"#utility.yul\":28028:28447   */\n      swap2\n      swap1\n      pop\n      jump\t// out\n        /* \"#utility.yul\":28453:28673   */\n    tag_400:\n        /* \"#utility.yul\":28593:28627   */\n      0x45524332303a206275726e2066726f6d20746865207a65726f20616464726573\n        /* \"#utility.yul\":28589:28590   */\n      0x00\n        /* \"#utility.yul\":28581:28587   */\n      dup3\n        /* \"#utility.yul\":28577:28591   */\n      add\n        /* \"#utility.yul\":28570:28628   */\n      mstore\n        /* \"#utility.yul\":28662:28665   */\n      0x7300000000000000000000000000000000000000000000000000000000000000\n        /* \"#utility.yul\":28657:28659   */\n      0x20\n        /* \"#utility.yul\":28649:28655   */\n      dup3\n        /* \"#utility.yul\":28645:28660   */\n      add\n        /* \"#utility.yul\":28638:28666   */\n      mstore\n        /* \"#utility.yul\":28453:28673   */\n      pop\n      jump\t// out\n        /* \"#utility.yul\":28679:29045   */\n    tag_401:\n        /* \"#utility.yul\":28821:28824   */\n      0x00\n        /* \"#utility.yul\":28842:28909   */\n      tag_658\n        /* \"#utility.yul\":28906:28908   */\n      0x21\n        /* \"#utility.yul\":28901:28904   */\n      dup4\n        /* \"#utility.yul\":28842:28909   */\n      tag_331\n      jump\t// in\n    tag_658:\n        /* \"#utility.yul\":28835:28909   */\n      swap2\n      pop\n        /* \"#utility.yul\":28918:29011   */\n      tag_659\n        /* \"#utility.yul\":29007:29010   */\n      dup3\n        /* \"#utility.yul\":28918:29011   */\n      tag_400\n      jump\t// in\n    tag_659:\n        /* \"#utility.yul\":29036:29038   */\n      0x40\n        /* \"#utility.yul\":29031:29034   */\n      dup3\n        /* \"#utility.yul\":29027:29039   */\n      add\n        /* \"#utility.yul\":29020:29039   */\n      swap1\n      pop\n        /* \"#utility.yul\":28679:29045   */\n      swap2\n      swap1\n      pop\n      jump\t// out\n        /* \"#utility.yul\":29051:29470   */\n    tag_303:\n        /* \"#utility.yul\":29217:29221   */\n      0x00\n        /* \"#utility.yul\":29255:29257   */\n      0x20\n        /* \"#utility.yul\":29244:29253   */\n      dup3\n        /* \"#utility.yul\":29240:29258   */\n      add\n        /* \"#utility.yul\":29232:29258   */\n      swap1\n      pop\n        /* \"#utility.yul\":29304:29313   */\n      dup2\n        /* \"#utility.yul\":29298:29302   */\n      dup2\n        /* \"#utility.yul\":29294:29314   */\n      sub\n        /* \"#utility.yul\":29290:29291   */\n      0x00\n        /* \"#utility.yul\":29279:29288   */\n      dup4\n        /* \"#utility.yul\":29275:29292   */\n      add\n        /* \"#utility.yul\":29268:29315   */\n      mstore\n        /* \"#utility.yul\":29332:29463   */\n      tag_661\n        /* \"#utility.yul\":29458:29462   */\n      dup2\n        /* \"#utility.yul\":29332:29463   */\n      tag_401\n      jump\t// in\n    tag_661:\n        /* \"#utility.yul\":29324:29463   */\n      swap1\n      pop\n        /* \"#utility.yul\":29051:29470   */\n      swap2\n      swap1\n      pop\n      jump\t// out\n        /* \"#utility.yul\":29476:29697   */\n    tag_402:\n        /* \"#utility.yul\":29616:29650   */\n      0x45524332303a206275726e20616d6f756e7420657863656564732062616c616e\n        /* \"#utility.yul\":29612:29613   */\n      0x00\n        /* \"#utility.yul\":29604:29610   */\n      dup3\n        /* \"#utility.yul\":29600:29614   */\n      add\n        /* \"#utility.yul\":29593:29651   */\n      mstore\n        /* \"#utility.yul\":29685:29689   */\n      0x6365000000000000000000000000000000000000000000000000000000000000\n        /* \"#utility.yul\":29680:29682   */\n      0x20\n        /* \"#utility.yul\":29672:29678   */\n      dup3\n        /* \"#utility.yul\":29668:29683   */\n      add\n        /* \"#utility.yul\":29661:29690   */\n      mstore\n        /* \"#utility.yul\":29476:29697   */\n      pop\n      jump\t// out\n        /* \"#utility.yul\":29703:30069   */\n    tag_403:\n        /* \"#utility.yul\":29845:29848   */\n      0x00\n        /* \"#utility.yul\":29866:29933   */\n      tag_664\n        /* \"#utility.yul\":29930:29932   */\n      0x22\n        /* \"#utility.yul\":29925:29928   */\n      dup4\n        /* \"#utility.yul\":29866:29933   */\n      tag_331\n      jump\t// in\n    tag_664:\n        /* \"#utility.yul\":29859:29933   */\n      swap2\n      pop\n        /* \"#utility.yul\":29942:30035   */\n      tag_665\n        /* \"#utility.yul\":30031:30034   */\n      dup3\n        /* \"#utility.yul\":29942:30035   */\n      tag_402\n      jump\t// in\n    tag_665:\n        /* \"#utility.yul\":30060:30062   */\n      0x40\n        /* \"#utility.yul\":30055:30058   */\n      dup3\n        /* \"#utility.yul\":30051:30063   */\n      add\n        /* \"#utility.yul\":30044:30063   */\n      swap1\n      pop\n        /* \"#utility.yul\":29703:30069   */\n      swap2\n      swap1\n      pop\n      jump\t// out\n        /* \"#utility.yul\":30075:30494   */\n    tag_307:\n        /* \"#utility.yul\":30241:30245   */\n      0x00\n        /* \"#utility.yul\":30279:30281   */\n      0x20\n        /* \"#utility.yul\":30268:30277   */\n      dup3\n        /* \"#utility.yul\":30264:30282   */\n      add\n        /* \"#utility.yul\":30256:30282   */\n      swap1\n      pop\n        /* \"#utility.yul\":30328:30337   */\n      dup2\n        /* \"#utility.yul\":30322:30326   */\n      dup2\n        /* \"#utility.yul\":30318:30338   */\n      sub\n        /* \"#utility.yul\":30314:30315   */\n      0x00\n        /* \"#utility.yul\":30303:30312   */\n      dup4\n        /* \"#utility.yul\":30299:30316   */\n      add\n        /* \"#utility.yul\":30292:30339   */\n      mstore\n        /* \"#utility.yul\":30356:30487   */\n      tag_667\n        /* \"#utility.yul\":30482:30486   */\n      dup2\n        /* \"#utility.yul\":30356:30487   */\n      tag_403\n      jump\t// in\n    tag_667:\n        /* \"#utility.yul\":30348:30487   */\n      swap1\n      pop\n        /* \"#utility.yul\":30075:30494   */\n      swap2\n      swap1\n      pop\n      jump\t// out\n        /* \"#utility.yul\":30500:30680   */\n    tag_319:\n        /* \"#utility.yul\":30548:30625   */\n      0x4e487b7100000000000000000000000000000000000000000000000000000000\n        /* \"#utility.yul\":30545:30546   */\n      0x00\n        /* \"#utility.yul\":30538:30626   */\n      mstore\n        /* \"#utility.yul\":30645:30649   */\n      0x32\n        /* \"#utility.yul\":30642:30643   */\n      0x04\n        /* \"#utility.yul\":30635:30650   */\n      mstore\n        /* \"#utility.yul\":30669:30673   */\n      0x24\n        /* \"#utility.yul\":30666:30667   */\n      0x00\n        /* \"#utility.yul\":30659:30674   */\n      revert\n        /* \"#utility.yul\":30686:30919   */\n    tag_322:\n        /* \"#utility.yul\":30725:30728   */\n      0x00\n        /* \"#utility.yul\":30748:30772   */\n      tag_670\n        /* \"#utility.yul\":30766:30771   */\n      dup3\n        /* \"#utility.yul\":30748:30772   */\n      tag_342\n      jump\t// in\n    tag_670:\n        /* \"#utility.yul\":30739:30772   */\n      swap2\n      pop\n        /* \"#utility.yul\":30794:30860   */\n      0xffffffffffffffffffffffffffffffffffffffffffffffffffffffffffffffff\n        /* \"#utility.yul\":30787:30792   */\n      dup3\n        /* \"#utility.yul\":30784:30861   */\n      sub\n        /* \"#utility.yul\":30781:30884   */\n      tag_671\n      jumpi\n        /* \"#utility.yul\":30864:30882   */\n      tag_672\n      tag_365\n      jump\t// in\n    tag_672:\n        /* \"#utility.yul\":30781:30884   */\n    tag_671:\n        /* \"#utility.yul\":30911:30912   */\n      0x01\n        /* \"#utility.yul\":30904:30909   */\n      dup3\n        /* \"#utility.yul\":30900:30913   */\n      add\n        /* \"#utility.yul\":30893:30913   */\n      swap1\n      pop\n        /* \"#utility.yul\":30686:30919   */\n      swap2\n      swap1\n      pop\n      jump\t// out\n\n    auxdata: 0xa264697066735822122001720c8c064899d1a6e67539eef5ebe0b4e45dbefec088a359c0e439cb91d89064736f6c63430008110033\n}\n",
				"bytecode": {
					"linkReferences": {},
					"object": "60806040523480156200001157600080fd5b50604051620031a9380380620031a98339818101604052810190620000379190620002d8565b838381600390816200004a9190620005c9565b5080600490816200005c9190620005c9565b50505081600660146101000a81548160ff021916908360ff16021790555033600660006101000a81548173ffffffffffffffffffffffffffffffffffffffff021916908373ffffffffffffffffffffffffffffffffffffffff1602179055508060088190555050505050620006b0565b6000604051905090565b600080fd5b600080fd5b600080fd5b600080fd5b6000601f19601f8301169050919050565b7f4e487b7100000000000000000000000000000000000000000000000000000000600052604160045260246000fd5b6200013582620000ea565b810181811067ffffffffffffffff82111715620001575762000156620000fb565b5b80604052505050565b60006200016c620000cc565b90506200017a82826200012a565b919050565b600067ffffffffffffffff8211156200019d576200019c620000fb565b5b620001a882620000ea565b9050602081019050919050565b60005b83811015620001d5578082015181840152602081019050620001b8565b60008484015250505050565b6000620001f8620001f2846200017f565b62000160565b905082815260208101848484011115620002175762000216620000e5565b5b62000224848285620001b5565b509392505050565b600082601f830112620002445762000243620000e0565b5b815162000256848260208601620001e1565b91505092915050565b600060ff82169050919050565b62000277816200025f565b81146200028357600080fd5b50565b60008151905062000297816200026c565b92915050565b6000819050919050565b620002b2816200029d565b8114620002be57600080fd5b50565b600081519050620002d281620002a7565b92915050565b60008060008060808587031215620002f557620002f4620000d6565b5b600085015167ffffffffffffffff811115620003165762000315620000db565b5b62000324878288016200022c565b945050602085015167ffffffffffffffff811115620003485762000347620000db565b5b62000356878288016200022c565b9350506040620003698782880162000286565b92505060606200037c87828801620002c1565b91505092959194509250565b600081519050919050565b7f4e487b7100000000000000000000000000000000000000000000000000000000600052602260045260246000fd5b60006002820490506001821680620003db57607f821691505b602082108103620003f157620003f062000393565b5b50919050565b60008190508160005260206000209050919050565b60006020601f8301049050919050565b600082821b905092915050565b6000600883026200045b7fffffffffffffffffffffffffffffffffffffffffffffffffffffffffffffffff826200041c565b6200046786836200041c565b95508019841693508086168417925050509392505050565b6000819050919050565b6000620004aa620004a46200049e846200029d565b6200047f565b6200029d565b9050919050565b6000819050919050565b620004c68362000489565b620004de620004d582620004b1565b84845462000429565b825550505050565b600090565b620004f5620004e6565b62000502818484620004bb565b505050565b5b818110156200052a576200051e600082620004eb565b60018101905062000508565b5050565b601f82111562000579576200054381620003f7565b6200054e846200040c565b810160208510156200055e578190505b620005766200056d856200040c565b83018262000507565b50505b505050565b600082821c905092915050565b60006200059e600019846008026200057e565b1980831691505092915050565b6000620005b983836200058b565b9150826002028217905092915050565b620005d48262000388565b67ffffffffffffffff811115620005f057620005ef620000fb565b5b620005fc8254620003c2565b620006098282856200052e565b600060209050601f8311600181146200064157600084156200062c578287015190505b620006388582620005ab565b865550620006a8565b601f1984166200065186620003f7565b60005b828110156200067b5784890151825560018201915060208501945060208101905062000654565b868310156200069b578489015162000697601f8916826200058b565b8355505b6001600288020188555050505b505050505050565b612ae980620006c06000396000f3fe6080604052600436106101355760003560e01c806397611638116100ab578063a9059cbb1161006f578063a9059cbb14610430578063b53e5dba1461046d578063cce3061c14610496578063dab5f340146104bf578063dd62ed3e146104e8578063ebf0c7171461052557610135565b806397611638146103485780639dc29fac14610385578063a0712d68146103ae578063a457c2d7146103ca578063a7b0d36f1461040757610135565b806339509351116100fd57806339509351146102355780634ec319cf146102725780635d82cf6e1461029b57806370a08231146102c4578063868ff4a21461030157806395d89b411461031d57610135565b806306fdde031461013a578063095ea7b31461016557806318160ddd146101a257806323b872dd146101cd578063313ce5671461020a575b600080fd5b34801561014657600080fd5b5061014f610550565b60405161015c9190611aa4565b60405180910390f35b34801561017157600080fd5b5061018c60048036038101906101879190611b6e565b6105e2565b6040516101999190611bc9565b60405180910390f35b3480156101ae57600080fd5b506101b7610605565b6040516101c49190611bf3565b60405180910390f35b3480156101d957600080fd5b506101f460048036038101906101ef9190611c0e565b61060f565b6040516102019190611bc9565b60405180910390f35b34801561021657600080fd5b5061021f61063e565b60405161022c9190611c7d565b60405180910390f35b34801561024157600080fd5b5061025c60048036038101906102579190611b6e565b610655565b6040516102699190611bc9565b60405180910390f35b34801561027e57600080fd5b5061029960048036038101906102949190611c98565b61068c565b005b3480156102a757600080fd5b506102c260048036038101906102bd9190611c98565b610726565b005b3480156102d057600080fd5b506102eb60048036038101906102e69190611cc5565b6107c0565b6040516102f89190611bf3565b60405180910390f35b61031b60048036038101906103169190611c98565b610808565b005b34801561032957600080fd5b506103326109a4565b60405161033f9190611aa4565b60405180910390f35b34801561035457600080fd5b5061036f600480360381019061036a9190611e70565b610a36565b60405161037c9190611bc9565b60405180910390f35b34801561039157600080fd5b506103ac60048036038101906103a79190611b6e565b610a72565b005b6103c860048036038101906103c39190611c98565b610b57565b005b3480156103d657600080fd5b506103f160048036038101906103ec9190611b6e565b610d5f565b6040516103fe9190611bc9565b60405180910390f35b34801561041357600080fd5b5061042e60048036038101906104299190611c98565b610dd6565b005b34801561043c57600080fd5b5061045760048036038101906104529190611b6e565b610e70565b6040516104649190611bc9565b60405180910390f35b34801561047957600080fd5b50610494600480360381019061048f9190611f14565b610e93565b005b3480156104a257600080fd5b506104bd60048036038101906104b89190611c98565b610fa4565b005b3480156104cb57600080fd5b506104e660048036038101906104e19190611f61565b61103e565b005b3480156104f457600080fd5b5061050f600480360381019061050a9190611f8e565b6110d8565b60405161051c9190611bf3565b60405180910390f35b34801561053157600080fd5b5061053a61115f565b6040516105479190611fdd565b60405180910390f35b60606003805461055f90612027565b80601f016020809104026020016040519081016040528092919081815260200182805461058b90612027565b80156105d85780601f106105ad576101008083540402835291602001916105d8565b820191906000526020600020905b8154815290600101906020018083116105bb57829003601f168201915b5050505050905090565b6000806105ed611165565b90506105fa81858561116d565b600191505092915050565b6000600254905090565b60008061061a611165565b9050610627858285611336565b6106328585856113c2565b60019150509392505050565b6000600660149054906101000a900460ff16905090565b600080610660611165565b905061068181858561067285896110d8565b61067c9190612087565b61116d565b600191505092915050565b600660009054906101000a900473ffffffffffffffffffffffffffffffffffffffff1673ffffffffffffffffffffffffffffffffffffffff163373ffffffffffffffffffffffffffffffffffffffff161461071c576040517f08c379a00000000000000000000000000000000000000000000000000000000081526004016107139061212d565b60405180910390fd5b8060098190555050565b600660009054906101000a900473ffffffffffffffffffffffffffffffffffffffff1673ffffffffffffffffffffffffffffffffffffffff163373ffffffffffffffffffffffffffffffffffffffff16146107b6576040517f08c379a00000000000000000000000000000000000000000000000000000000081526004016107ad9061212d565b60405180910390fd5b80600c8190555050565b60008060008373ffffffffffffffffffffffffffffffffffffffff1673ffffffffffffffffffffffffffffffffffffffff168152602001908152602001600020549050919050565b600754600854101561084f576040517f08c379a000000000000000000000000000000000000000000000000000000000815260040161084690612199565b60405180910390fd5b60011515600d60003373ffffffffffffffffffffffffffffffffffffffff1673ffffffffffffffffffffffffffffffffffffffff16815260200190815260200160002060009054906101000a900460ff161515146108e2576040517f08c379a00000000000000000000000000000000000000000000000000000000081526004016108d99061222b565b60405180910390fd5b600b54816108f0919061224b565b341015610932576040517f08c379a0000000000000000000000000000000000000000000000000000000008152600401610929906122d9565b60405180910390fd5b6000600b5482610942919061224b565b3461094d91906122f9565b90506109593383611638565b3373ffffffffffffffffffffffffffffffffffffffff166108fc829081150290604051600060405180830381858888f1935050505015801561099f573d6000803e3d6000fd5b505050565b6060600480546109b390612027565b80601f01602080910402602001604051908101604052809291908181526020018280546109df90612027565b8015610a2c5780601f10610a0157610100808354040283529160200191610a2c565b820191906000526020600020905b815481529060010190602001808311610a0f57829003601f168201915b5050505050905090565b6000610a6b8260055433604051602001610a509190612375565b6040516020818303038152906040528051906020012061178e565b9050919050565b600660009054906101000a900473ffffffffffffffffffffffffffffffffffffffff1673ffffffffffffffffffffffffffffffffffffffff163373ffffffffffffffffffffffffffffffffffffffff1614610b02576040517f08c379a0000000000000000000000000000000000000000000000000000000008152600401610af99061212d565b60405180910390fd5b6007546008541015610b49576040517f08c379a0000000000000000000000000000000000000000000000000000000008152600401610b4090612199565b60405180910390fd5b610b5382826117a5565b5050565b600660009054906101000a900473ffffffffffffffffffffffffffffffffffffffff1673ffffffffffffffffffffffffffffffffffffffff163373ffffffffffffffffffffffffffffffffffffffff1614610be7576040517f08c379a0000000000000000000000000000000000000000000000000000000008152600401610bde9061212d565b60405180910390fd5b6007546008541015610c2e576040517f08c379a0000000000000000000000000000000000000000000000000000000008152600401610c2590612199565b60405180910390fd5b600073ffffffffffffffffffffffffffffffffffffffff163373ffffffffffffffffffffffffffffffffffffffff1603610c9d576040517f08c379a0000000000000000000000000000000000000000000000000000000008152600401610c94906123dc565b60405180910390fd5b600c5481610cab919061224b565b341015610ced576040517f08c379a0000000000000000000000000000000000000000000000000000000008152600401610ce4906122d9565b60405180910390fd5b6000600c5482610cfd919061224b565b34610d0891906122f9565b9050610d143383611638565b3373ffffffffffffffffffffffffffffffffffffffff166108fc829081150290604051600060405180830381858888f19350505050158015610d5a573d6000803e3d6000fd5b505050565b600080610d6a611165565b90506000610d7882866110d8565b905083811015610dbd576040517f08c379a0000000000000000000000000000000000000000000000000000000008152600401610db49061246e565b60405180910390fd5b610dca828686840361116d565b60019250505092915050565b600660009054906101000a900473ffffffffffffffffffffffffffffffffffffffff1673ffffffffffffffffffffffffffffffffffffffff163373ffffffffffffffffffffffffffffffffffffffff1614610e66576040517f08c379a0000000000000000000000000000000000000000000000000000000008152600401610e5d9061212d565b60405180910390fd5b80600b8190555050565b600080610e7b611165565b9050610e888185856113c2565b600191505092915050565b818180806020026020016040519081016040528093929190818152602001838360200280828437600081840152601f19601f82011690508083019250505050505050610f088160055433604051602001610eed9190612375565b6040516020818303038152906040528051906020012061178e565b610f47576040517f08c379a0000000000000000000000000000000000000000000000000000000008152600401610f3e906124da565b60405180910390fd5b6001600d60003373ffffffffffffffffffffffffffffffffffffffff1673ffffffffffffffffffffffffffffffffffffffff16815260200190815260200160002060006101000a81548160ff021916908315150217905550505050565b600660009054906101000a900473ffffffffffffffffffffffffffffffffffffffff1673ffffffffffffffffffffffffffffffffffffffff163373ffffffffffffffffffffffffffffffffffffffff1614611034576040517f08c379a000000000000000000000000000000000000000000000000000000000815260040161102b9061212d565b60405180910390fd5b80600a8190555050565b600660009054906101000a900473ffffffffffffffffffffffffffffffffffffffff1673ffffffffffffffffffffffffffffffffffffffff163373ffffffffffffffffffffffffffffffffffffffff16146110ce576040517f08c379a00000000000000000000000000000000000000000000000000000000081526004016110c590612546565b60405180910390fd5b8060058190555050565b6000600160008473ffffffffffffffffffffffffffffffffffffffff1673ffffffffffffffffffffffffffffffffffffffff16815260200190815260200160002060008373ffffffffffffffffffffffffffffffffffffffff1673ffffffffffffffffffffffffffffffffffffffff16815260200190815260200160002054905092915050565b60055481565b600033905090565b600073ffffffffffffffffffffffffffffffffffffffff168373ffffffffffffffffffffffffffffffffffffffff16036111dc576040517f08c379a00000000000000000000000000000000000000000000000000000000081526004016111d3906125d8565b60405180910390fd5b600073ffffffffffffffffffffffffffffffffffffffff168273ffffffffffffffffffffffffffffffffffffffff160361124b576040517f08c379a00000000000000000000000000000000000000000000000000000000081526004016112429061266a565b60405180910390fd5b80600160008573ffffffffffffffffffffffffffffffffffffffff1673ffffffffffffffffffffffffffffffffffffffff16815260200190815260200160002060008473ffffffffffffffffffffffffffffffffffffffff1673ffffffffffffffffffffffffffffffffffffffff168152602001908152602001600020819055508173ffffffffffffffffffffffffffffffffffffffff168373ffffffffffffffffffffffffffffffffffffffff167f8c5be1e5ebec7d5bd14f71427d1e84f3dd0314c0f7b2291e5b200ac8c7c3b925836040516113299190611bf3565b60405180910390a3505050565b600061134284846110d8565b90507fffffffffffffffffffffffffffffffffffffffffffffffffffffffffffffffff81146113bc57818110156113ae576040517f08c379a00000000000000000000000000000000000000000000000000000000081526004016113a5906126d6565b60405180910390fd5b6113bb848484840361116d565b5b50505050565b600073ffffffffffffffffffffffffffffffffffffffff168373ffffffffffffffffffffffffffffffffffffffff1603611431576040517f08c379a000000000000000000000000000000000000000000000000000000000815260040161142890612768565b60405180910390fd5b600073ffffffffffffffffffffffffffffffffffffffff168273ffffffffffffffffffffffffffffffffffffffff16036114a0576040517f08c379a0000000000000000000000000000000000000000000000000000000008152600401611497906127fa565b60405180910390fd5b6114ab838383611972565b60008060008573ffffffffffffffffffffffffffffffffffffffff1673ffffffffffffffffffffffffffffffffffffffff16815260200190815260200160002054905081811015611531576040517f08c379a00000000000000000000000000000000000000000000000000000000081526004016115289061288c565b60405180910390fd5b8181036000808673ffffffffffffffffffffffffffffffffffffffff1673ffffffffffffffffffffffffffffffffffffffff16815260200190815260200160002081905550816000808573ffffffffffffffffffffffffffffffffffffffff1673ffffffffffffffffffffffffffffffffffffffff168152602001908152602001600020600082825401925050819055508273ffffffffffffffffffffffffffffffffffffffff168473ffffffffffffffffffffffffffffffffffffffff167fddf252ad1be2c89b69c2b068fc378daa952ba7f163c4a11628f55a4df523b3ef8460405161161f9190611bf3565b60405180910390a3611632848484611977565b50505050565b600073ffffffffffffffffffffffffffffffffffffffff168273ffffffffffffffffffffffffffffffffffffffff16036116a7576040517f08c379a000000000000000000000000000000000000000000000000000000000815260040161169e906128f8565b60405180910390fd5b6116b360008383611972565b80600260008282546116c59190612087565b92505081905550806000808473ffffffffffffffffffffffffffffffffffffffff1673ffffffffffffffffffffffffffffffffffffffff168152602001908152602001600020600082825401925050819055508173ffffffffffffffffffffffffffffffffffffffff16600073ffffffffffffffffffffffffffffffffffffffff167fddf252ad1be2c89b69c2b068fc378daa952ba7f163c4a11628f55a4df523b3ef836040516117769190611bf3565b60405180910390a361178a60008383611977565b5050565b60008261179b858461197c565b1490509392505050565b600073ffffffffffffffffffffffffffffffffffffffff168273ffffffffffffffffffffffffffffffffffffffff1603611814576040517f08c379a000000000000000000000000000000000000000000000000000000000815260040161180b9061298a565b60405180910390fd5b61182082600083611972565b60008060008473ffffffffffffffffffffffffffffffffffffffff1673ffffffffffffffffffffffffffffffffffffffff168152602001908152602001600020549050818110156118a6576040517f08c379a000000000000000000000000000000000000000000000000000000000815260040161189d90612a1c565b60405180910390fd5b8181036000808573ffffffffffffffffffffffffffffffffffffffff1673ffffffffffffffffffffffffffffffffffffffff1681526020019081526020016000208190555081600260008282540392505081905550600073ffffffffffffffffffffffffffffffffffffffff168373ffffffffffffffffffffffffffffffffffffffff167fddf252ad1be2c89b69c2b068fc378daa952ba7f163c4a11628f55a4df523b3ef846040516119599190611bf3565b60405180910390a361196d83600084611977565b505050565b505050565b505050565b60008082905060005b84518110156119c7576119b2828683815181106119a5576119a4612a3c565b5b60200260200101516119d2565b915080806119bf90612a6b565b915050611985565b508091505092915050565b60008183106119ea576119e582846119fd565b6119f5565b6119f483836119fd565b5b905092915050565b600082600052816020526040600020905092915050565b600081519050919050565b600082825260208201905092915050565b60005b83811015611a4e578082015181840152602081019050611a33565b60008484015250505050565b6000601f19601f8301169050919050565b6000611a7682611a14565b611a808185611a1f565b9350611a90818560208601611a30565b611a9981611a5a565b840191505092915050565b60006020820190508181036000830152611abe8184611a6b565b905092915050565b6000604051905090565b600080fd5b600080fd5b600073ffffffffffffffffffffffffffffffffffffffff82169050919050565b6000611b0582611ada565b9050919050565b611b1581611afa565b8114611b2057600080fd5b50565b600081359050611b3281611b0c565b92915050565b6000819050919050565b611b4b81611b38565b8114611b5657600080fd5b50565b600081359050611b6881611b42565b92915050565b60008060408385031215611b8557611b84611ad0565b5b6000611b9385828601611b23565b9250506020611ba485828601611b59565b9150509250929050565b60008115159050919050565b611bc381611bae565b82525050565b6000602082019050611bde6000830184611bba565b92915050565b611bed81611b38565b82525050565b6000602082019050611c086000830184611be4565b92915050565b600080600060608486031215611c2757611c26611ad0565b5b6000611c3586828701611b23565b9350506020611c4686828701611b23565b9250506040611c5786828701611b59565b9150509250925092565b600060ff82169050919050565b611c7781611c61565b82525050565b6000602082019050611c926000830184611c6e565b92915050565b600060208284031215611cae57611cad611ad0565b5b6000611cbc84828501611b59565b91505092915050565b600060208284031215611cdb57611cda611ad0565b5b6000611ce984828501611b23565b91505092915050565b600080fd5b7f4e487b7100000000000000000000000000000000000000000000000000000000600052604160045260246000fd5b611d2f82611a5a565b810181811067ffffffffffffffff82111715611d4e57611d4d611cf7565b5b80604052505050565b6000611d61611ac6565b9050611d6d8282611d26565b919050565b600067ffffffffffffffff821115611d8d57611d8c611cf7565b5b602082029050602081019050919050565b600080fd5b6000819050919050565b611db681611da3565b8114611dc157600080fd5b50565b600081359050611dd381611dad565b92915050565b6000611dec611de784611d72565b611d57565b90508083825260208201905060208402830185811115611e0f57611e0e611d9e565b5b835b81811015611e385780611e248882611dc4565b845260208401935050602081019050611e11565b5050509392505050565b600082601f830112611e5757611e56611cf2565b5b8135611e67848260208601611dd9565b91505092915050565b600060208284031215611e8657611e85611ad0565b5b600082013567ffffffffffffffff811115611ea457611ea3611ad5565b5b611eb084828501611e42565b91505092915050565b600080fd5b60008083601f840112611ed457611ed3611cf2565b5b8235905067ffffffffffffffff811115611ef157611ef0611eb9565b5b602083019150836020820283011115611f0d57611f0c611d9e565b5b9250929050565b60008060208385031215611f2b57611f2a611ad0565b5b600083013567ffffffffffffffff811115611f4957611f48611ad5565b5b611f5585828601611ebe565b92509250509250929050565b600060208284031215611f7757611f76611ad0565b5b6000611f8584828501611dc4565b91505092915050565b60008060408385031215611fa557611fa4611ad0565b5b6000611fb385828601611b23565b9250506020611fc485828601611b23565b9150509250929050565b611fd781611da3565b82525050565b6000602082019050611ff26000830184611fce565b92915050565b7f4e487b7100000000000000000000000000000000000000000000000000000000600052602260045260246000fd5b6000600282049050600182168061203f57607f821691505b60208210810361205257612051611ff8565b5b50919050565b7f4e487b7100000000000000000000000000000000000000000000000000000000600052601160045260246000fd5b600061209282611b38565b915061209d83611b38565b92508282019050808211156120b5576120b4612058565b5b92915050565b7f546869732066756e6374696f6e206f6e6c79206f776e65722063616e2075736560008201527f2e00000000000000000000000000000000000000000000000000000000000000602082015250565b6000612117602183611a1f565b9150612122826120bb565b604082019050919050565b600060208201905081810360008301526121468161210a565b9050919050565b7f49742773206f76657220546f6b656e206c696d69742121000000000000000000600082015250565b6000612183601783611a1f565b915061218e8261214d565b602082019050919050565b600060208201905081810360008301526121b281612176565b9050919050565b7f596f75722061646472657373206973206e6f7420696e2057686974656c69737460008201527f7e00000000000000000000000000000000000000000000000000000000000000602082015250565b6000612215602183611a1f565b9150612220826121b9565b604082019050919050565b6000602082019050818103600083015261224481612208565b9050919050565b600061225682611b38565b915061226183611b38565b925082820261226f81611b38565b9150828204841483151761228657612285612058565b5b5092915050565b7f7468652062616c616e6365206973206e6f7420656e6f7567682e000000000000600082015250565b60006122c3601a83611a1f565b91506122ce8261228d565b602082019050919050565b600060208201905081810360008301526122f2816122b6565b9050919050565b600061230482611b38565b915061230f83611b38565b925082820390508181111561232757612326612058565b5b92915050565b60008160601b9050919050565b60006123458261232d565b9050919050565b60006123578261233a565b9050919050565b61236f61236a82611afa565b61234c565b82525050565b6000612381828461235e565b60148201915081905092915050565b7f596f75722061646472657373206973206e6f7420657869737400000000000000600082015250565b60006123c6601983611a1f565b91506123d182612390565b602082019050919050565b600060208201905081810360008301526123f5816123b9565b9050919050565b7f45524332303a2064656372656173656420616c6c6f77616e63652062656c6f7760008201527f207a65726f000000000000000000000000000000000000000000000000000000602082015250565b6000612458602583611a1f565b9150612463826123fc565b604082019050919050565b600060208201905081810360008301526124878161244b565b9050919050565b7f496e76616c69642070726f6f6600000000000000000000000000000000000000600082015250565b60006124c4600d83611a1f565b91506124cf8261248e565b602082019050919050565b600060208201905081810360008301526124f3816124b7565b9050919050565b7f4f6e6c79206f776e65722063616e2073657420726f6f74000000000000000000600082015250565b6000612530601783611a1f565b915061253b826124fa565b602082019050919050565b6000602082019050818103600083015261255f81612523565b9050919050565b7f45524332303a20617070726f76652066726f6d20746865207a65726f2061646460008201527f7265737300000000000000000000000000000000000000000000000000000000602082015250565b60006125c2602483611a1f565b91506125cd82612566565b604082019050919050565b600060208201905081810360008301526125f1816125b5565b9050919050565b7f45524332303a20617070726f766520746f20746865207a65726f20616464726560008201527f7373000000000000000000000000000000000000000000000000000000000000602082015250565b6000612654602283611a1f565b915061265f826125f8565b604082019050919050565b6000602082019050818103600083015261268381612647565b9050919050565b7f45524332303a20696e73756666696369656e7420616c6c6f77616e6365000000600082015250565b60006126c0601d83611a1f565b91506126cb8261268a565b602082019050919050565b600060208201905081810360008301526126ef816126b3565b9050919050565b7f45524332303a207472616e736665722066726f6d20746865207a65726f20616460008201527f6472657373000000000000000000000000000000000000000000000000000000602082015250565b6000612752602583611a1f565b915061275d826126f6565b604082019050919050565b6000602082019050818103600083015261278181612745565b9050919050565b7f45524332303a207472616e7366657220746f20746865207a65726f206164647260008201527f6573730000000000000000000000000000000000000000000000000000000000602082015250565b60006127e4602383611a1f565b91506127ef82612788565b604082019050919050565b60006020820190508181036000830152612813816127d7565b9050919050565b7f45524332303a207472616e7366657220616d6f756e742065786365656473206260008201527f616c616e63650000000000000000000000000000000000000000000000000000602082015250565b6000612876602683611a1f565b91506128818261281a565b604082019050919050565b600060208201905081810360008301526128a581612869565b9050919050565b7f45524332303a206d696e7420746f20746865207a65726f206164647265737300600082015250565b60006128e2601f83611a1f565b91506128ed826128ac565b602082019050919050565b60006020820190508181036000830152612911816128d5565b9050919050565b7f45524332303a206275726e2066726f6d20746865207a65726f2061646472657360008201527f7300000000000000000000000000000000000000000000000000000000000000602082015250565b6000612974602183611a1f565b915061297f82612918565b604082019050919050565b600060208201905081810360008301526129a381612967565b9050919050565b7f45524332303a206275726e20616d6f756e7420657863656564732062616c616e60008201527f6365000000000000000000000000000000000000000000000000000000000000602082015250565b6000612a06602283611a1f565b9150612a11826129aa565b604082019050919050565b60006020820190508181036000830152612a35816129f9565b9050919050565b7f4e487b7100000000000000000000000000000000000000000000000000000000600052603260045260246000fd5b6000612a7682611b38565b91507fffffffffffffffffffffffffffffffffffffffffffffffffffffffffffffffff8203612aa857612aa7612058565b5b60018201905091905056fea264697066735822122001720c8c064899d1a6e67539eef5ebe0b4e45dbefec088a359c0e439cb91d89064736f6c63430008110033",
					"opcodes": "PUSH1 0x80 PUSH1 0x40 MSTORE CALLVALUE DUP1 ISZERO PUSH3 0x11 JUMPI PUSH1 0x0 DUP1 REVERT JUMPDEST POP PUSH1 0x40 MLOAD PUSH3 0x31A9 CODESIZE SUB DUP1 PUSH3 0x31A9 DUP4 CODECOPY DUP2 DUP2 ADD PUSH1 0x40 MSTORE DUP2 ADD SWAP1 PUSH3 0x37 SWAP2 SWAP1 PUSH3 0x2D8 JUMP JUMPDEST DUP4 DUP4 DUP2 PUSH1 0x3 SWAP1 DUP2 PUSH3 0x4A SWAP2 SWAP1 PUSH3 0x5C9 JUMP JUMPDEST POP DUP1 PUSH1 0x4 SWAP1 DUP2 PUSH3 0x5C SWAP2 SWAP1 PUSH3 0x5C9 JUMP JUMPDEST POP POP POP DUP2 PUSH1 0x6 PUSH1 0x14 PUSH2 0x100 EXP DUP2 SLOAD DUP2 PUSH1 0xFF MUL NOT AND SWAP1 DUP4 PUSH1 0xFF AND MUL OR SWAP1 SSTORE POP CALLER PUSH1 0x6 PUSH1 0x0 PUSH2 0x100 EXP DUP2 SLOAD DUP2 PUSH20 0xFFFFFFFFFFFFFFFFFFFFFFFFFFFFFFFFFFFFFFFF MUL NOT AND SWAP1 DUP4 PUSH20 0xFFFFFFFFFFFFFFFFFFFFFFFFFFFFFFFFFFFFFFFF AND MUL OR SWAP1 SSTORE POP DUP1 PUSH1 0x8 DUP2 SWAP1 SSTORE POP POP POP POP POP PUSH3 0x6B0 JUMP JUMPDEST PUSH1 0x0 PUSH1 0x40 MLOAD SWAP1 POP SWAP1 JUMP JUMPDEST PUSH1 0x0 DUP1 REVERT JUMPDEST PUSH1 0x0 DUP1 REVERT JUMPDEST PUSH1 0x0 DUP1 REVERT JUMPDEST PUSH1 0x0 DUP1 REVERT JUMPDEST PUSH1 0x0 PUSH1 0x1F NOT PUSH1 0x1F DUP4 ADD AND SWAP1 POP SWAP2 SWAP1 POP JUMP JUMPDEST PUSH32 0x4E487B7100000000000000000000000000000000000000000000000000000000 PUSH1 0x0 MSTORE PUSH1 0x41 PUSH1 0x4 MSTORE PUSH1 0x24 PUSH1 0x0 REVERT JUMPDEST PUSH3 0x135 DUP3 PUSH3 0xEA JUMP JUMPDEST DUP2 ADD DUP2 DUP2 LT PUSH8 0xFFFFFFFFFFFFFFFF DUP3 GT OR ISZERO PUSH3 0x157 JUMPI PUSH3 0x156 PUSH3 0xFB JUMP JUMPDEST JUMPDEST DUP1 PUSH1 0x40 MSTORE POP POP POP JUMP JUMPDEST PUSH1 0x0 PUSH3 0x16C PUSH3 0xCC JUMP JUMPDEST SWAP1 POP PUSH3 0x17A DUP3 DUP3 PUSH3 0x12A JUMP JUMPDEST SWAP2 SWAP1 POP JUMP JUMPDEST PUSH1 0x0 PUSH8 0xFFFFFFFFFFFFFFFF DUP3 GT ISZERO PUSH3 0x19D JUMPI PUSH3 0x19C PUSH3 0xFB JUMP JUMPDEST JUMPDEST PUSH3 0x1A8 DUP3 PUSH3 0xEA JUMP JUMPDEST SWAP1 POP PUSH1 0x20 DUP2 ADD SWAP1 POP SWAP2 SWAP1 POP JUMP JUMPDEST PUSH1 0x0 JUMPDEST DUP4 DUP2 LT ISZERO PUSH3 0x1D5 JUMPI DUP1 DUP3 ADD MLOAD DUP2 DUP5 ADD MSTORE PUSH1 0x20 DUP2 ADD SWAP1 POP PUSH3 0x1B8 JUMP JUMPDEST PUSH1 0x0 DUP5 DUP5 ADD MSTORE POP POP POP POP JUMP JUMPDEST PUSH1 0x0 PUSH3 0x1F8 PUSH3 0x1F2 DUP5 PUSH3 0x17F JUMP JUMPDEST PUSH3 0x160 JUMP JUMPDEST SWAP1 POP DUP3 DUP2 MSTORE PUSH1 0x20 DUP2 ADD DUP5 DUP5 DUP5 ADD GT ISZERO PUSH3 0x217 JUMPI PUSH3 0x216 PUSH3 0xE5 JUMP JUMPDEST JUMPDEST PUSH3 0x224 DUP5 DUP3 DUP6 PUSH3 0x1B5 JUMP JUMPDEST POP SWAP4 SWAP3 POP POP POP JUMP JUMPDEST PUSH1 0x0 DUP3 PUSH1 0x1F DUP4 ADD SLT PUSH3 0x244 JUMPI PUSH3 0x243 PUSH3 0xE0 JUMP JUMPDEST JUMPDEST DUP2 MLOAD PUSH3 0x256 DUP5 DUP3 PUSH1 0x20 DUP7 ADD PUSH3 0x1E1 JUMP JUMPDEST SWAP2 POP POP SWAP3 SWAP2 POP POP JUMP JUMPDEST PUSH1 0x0 PUSH1 0xFF DUP3 AND SWAP1 POP SWAP2 SWAP1 POP JUMP JUMPDEST PUSH3 0x277 DUP2 PUSH3 0x25F JUMP JUMPDEST DUP2 EQ PUSH3 0x283 JUMPI PUSH1 0x0 DUP1 REVERT JUMPDEST POP JUMP JUMPDEST PUSH1 0x0 DUP2 MLOAD SWAP1 POP PUSH3 0x297 DUP2 PUSH3 0x26C JUMP JUMPDEST SWAP3 SWAP2 POP POP JUMP JUMPDEST PUSH1 0x0 DUP2 SWAP1 POP SWAP2 SWAP1 POP JUMP JUMPDEST PUSH3 0x2B2 DUP2 PUSH3 0x29D JUMP JUMPDEST DUP2 EQ PUSH3 0x2BE JUMPI PUSH1 0x0 DUP1 REVERT JUMPDEST POP JUMP JUMPDEST PUSH1 0x0 DUP2 MLOAD SWAP1 POP PUSH3 0x2D2 DUP2 PUSH3 0x2A7 JUMP JUMPDEST SWAP3 SWAP2 POP POP JUMP JUMPDEST PUSH1 0x0 DUP1 PUSH1 0x0 DUP1 PUSH1 0x80 DUP6 DUP8 SUB SLT ISZERO PUSH3 0x2F5 JUMPI PUSH3 0x2F4 PUSH3 0xD6 JUMP JUMPDEST JUMPDEST PUSH1 0x0 DUP6 ADD MLOAD PUSH8 0xFFFFFFFFFFFFFFFF DUP2 GT ISZERO PUSH3 0x316 JUMPI PUSH3 0x315 PUSH3 0xDB JUMP JUMPDEST JUMPDEST PUSH3 0x324 DUP8 DUP3 DUP9 ADD PUSH3 0x22C JUMP JUMPDEST SWAP5 POP POP PUSH1 0x20 DUP6 ADD MLOAD PUSH8 0xFFFFFFFFFFFFFFFF DUP2 GT ISZERO PUSH3 0x348 JUMPI PUSH3 0x347 PUSH3 0xDB JUMP JUMPDEST JUMPDEST PUSH3 0x356 DUP8 DUP3 DUP9 ADD PUSH3 0x22C JUMP JUMPDEST SWAP4 POP POP PUSH1 0x40 PUSH3 0x369 DUP8 DUP3 DUP9 ADD PUSH3 0x286 JUMP JUMPDEST SWAP3 POP POP PUSH1 0x60 PUSH3 0x37C DUP8 DUP3 DUP9 ADD PUSH3 0x2C1 JUMP JUMPDEST SWAP2 POP POP SWAP3 SWAP6 SWAP2 SWAP5 POP SWAP3 POP JUMP JUMPDEST PUSH1 0x0 DUP2 MLOAD SWAP1 POP SWAP2 SWAP1 POP JUMP JUMPDEST PUSH32 0x4E487B7100000000000000000000000000000000000000000000000000000000 PUSH1 0x0 MSTORE PUSH1 0x22 PUSH1 0x4 MSTORE PUSH1 0x24 PUSH1 0x0 REVERT JUMPDEST PUSH1 0x0 PUSH1 0x2 DUP3 DIV SWAP1 POP PUSH1 0x1 DUP3 AND DUP1 PUSH3 0x3DB JUMPI PUSH1 0x7F DUP3 AND SWAP2 POP JUMPDEST PUSH1 0x20 DUP3 LT DUP2 SUB PUSH3 0x3F1 JUMPI PUSH3 0x3F0 PUSH3 0x393 JUMP JUMPDEST JUMPDEST POP SWAP2 SWAP1 POP JUMP JUMPDEST PUSH1 0x0 DUP2 SWAP1 POP DUP2 PUSH1 0x0 MSTORE PUSH1 0x20 PUSH1 0x0 KECCAK256 SWAP1 POP SWAP2 SWAP1 POP JUMP JUMPDEST PUSH1 0x0 PUSH1 0x20 PUSH1 0x1F DUP4 ADD DIV SWAP1 POP SWAP2 SWAP1 POP JUMP JUMPDEST PUSH1 0x0 DUP3 DUP3 SHL SWAP1 POP SWAP3 SWAP2 POP POP JUMP JUMPDEST PUSH1 0x0 PUSH1 0x8 DUP4 MUL PUSH3 0x45B PUSH32 0xFFFFFFFFFFFFFFFFFFFFFFFFFFFFFFFFFFFFFFFFFFFFFFFFFFFFFFFFFFFFFFFF DUP3 PUSH3 0x41C JUMP JUMPDEST PUSH3 0x467 DUP7 DUP4 PUSH3 0x41C JUMP JUMPDEST SWAP6 POP DUP1 NOT DUP5 AND SWAP4 POP DUP1 DUP7 AND DUP5 OR SWAP3 POP POP POP SWAP4 SWAP3 POP POP POP JUMP JUMPDEST PUSH1 0x0 DUP2 SWAP1 POP SWAP2 SWAP1 POP JUMP JUMPDEST PUSH1 0x0 PUSH3 0x4AA PUSH3 0x4A4 PUSH3 0x49E DUP5 PUSH3 0x29D JUMP JUMPDEST PUSH3 0x47F JUMP JUMPDEST PUSH3 0x29D JUMP JUMPDEST SWAP1 POP SWAP2 SWAP1 POP JUMP JUMPDEST PUSH1 0x0 DUP2 SWAP1 POP SWAP2 SWAP1 POP JUMP JUMPDEST PUSH3 0x4C6 DUP4 PUSH3 0x489 JUMP JUMPDEST PUSH3 0x4DE PUSH3 0x4D5 DUP3 PUSH3 0x4B1 JUMP JUMPDEST DUP5 DUP5 SLOAD PUSH3 0x429 JUMP JUMPDEST DUP3 SSTORE POP POP POP POP JUMP JUMPDEST PUSH1 0x0 SWAP1 JUMP JUMPDEST PUSH3 0x4F5 PUSH3 0x4E6 JUMP JUMPDEST PUSH3 0x502 DUP2 DUP5 DUP5 PUSH3 0x4BB JUMP JUMPDEST POP POP POP JUMP JUMPDEST JUMPDEST DUP2 DUP2 LT ISZERO PUSH3 0x52A JUMPI PUSH3 0x51E PUSH1 0x0 DUP3 PUSH3 0x4EB JUMP JUMPDEST PUSH1 0x1 DUP2 ADD SWAP1 POP PUSH3 0x508 JUMP JUMPDEST POP POP JUMP JUMPDEST PUSH1 0x1F DUP3 GT ISZERO PUSH3 0x579 JUMPI PUSH3 0x543 DUP2 PUSH3 0x3F7 JUMP JUMPDEST PUSH3 0x54E DUP5 PUSH3 0x40C JUMP JUMPDEST DUP2 ADD PUSH1 0x20 DUP6 LT ISZERO PUSH3 0x55E JUMPI DUP2 SWAP1 POP JUMPDEST PUSH3 0x576 PUSH3 0x56D DUP6 PUSH3 0x40C JUMP JUMPDEST DUP4 ADD DUP3 PUSH3 0x507 JUMP JUMPDEST POP POP JUMPDEST POP POP POP JUMP JUMPDEST PUSH1 0x0 DUP3 DUP3 SHR SWAP1 POP SWAP3 SWAP2 POP POP JUMP JUMPDEST PUSH1 0x0 PUSH3 0x59E PUSH1 0x0 NOT DUP5 PUSH1 0x8 MUL PUSH3 0x57E JUMP JUMPDEST NOT DUP1 DUP4 AND SWAP2 POP POP SWAP3 SWAP2 POP POP JUMP JUMPDEST PUSH1 0x0 PUSH3 0x5B9 DUP4 DUP4 PUSH3 0x58B JUMP JUMPDEST SWAP2 POP DUP3 PUSH1 0x2 MUL DUP3 OR SWAP1 POP SWAP3 SWAP2 POP POP JUMP JUMPDEST PUSH3 0x5D4 DUP3 PUSH3 0x388 JUMP JUMPDEST PUSH8 0xFFFFFFFFFFFFFFFF DUP2 GT ISZERO PUSH3 0x5F0 JUMPI PUSH3 0x5EF PUSH3 0xFB JUMP JUMPDEST JUMPDEST PUSH3 0x5FC DUP3 SLOAD PUSH3 0x3C2 JUMP JUMPDEST PUSH3 0x609 DUP3 DUP3 DUP6 PUSH3 0x52E JUMP JUMPDEST PUSH1 0x0 PUSH1 0x20 SWAP1 POP PUSH1 0x1F DUP4 GT PUSH1 0x1 DUP2 EQ PUSH3 0x641 JUMPI PUSH1 0x0 DUP5 ISZERO PUSH3 0x62C JUMPI DUP3 DUP8 ADD MLOAD SWAP1 POP JUMPDEST PUSH3 0x638 DUP6 DUP3 PUSH3 0x5AB JUMP JUMPDEST DUP7 SSTORE POP PUSH3 0x6A8 JUMP JUMPDEST PUSH1 0x1F NOT DUP5 AND PUSH3 0x651 DUP7 PUSH3 0x3F7 JUMP JUMPDEST PUSH1 0x0 JUMPDEST DUP3 DUP2 LT ISZERO PUSH3 0x67B JUMPI DUP5 DUP10 ADD MLOAD DUP3 SSTORE PUSH1 0x1 DUP3 ADD SWAP2 POP PUSH1 0x20 DUP6 ADD SWAP5 POP PUSH1 0x20 DUP2 ADD SWAP1 POP PUSH3 0x654 JUMP JUMPDEST DUP7 DUP4 LT ISZERO PUSH3 0x69B JUMPI DUP5 DUP10 ADD MLOAD PUSH3 0x697 PUSH1 0x1F DUP10 AND DUP3 PUSH3 0x58B JUMP JUMPDEST DUP4 SSTORE POP JUMPDEST PUSH1 0x1 PUSH1 0x2 DUP9 MUL ADD DUP9 SSTORE POP POP POP JUMPDEST POP POP POP POP POP POP JUMP JUMPDEST PUSH2 0x2AE9 DUP1 PUSH3 0x6C0 PUSH1 0x0 CODECOPY PUSH1 0x0 RETURN INVALID PUSH1 0x80 PUSH1 0x40 MSTORE PUSH1 0x4 CALLDATASIZE LT PUSH2 0x135 JUMPI PUSH1 0x0 CALLDATALOAD PUSH1 0xE0 SHR DUP1 PUSH4 0x97611638 GT PUSH2 0xAB JUMPI DUP1 PUSH4 0xA9059CBB GT PUSH2 0x6F JUMPI DUP1 PUSH4 0xA9059CBB EQ PUSH2 0x430 JUMPI DUP1 PUSH4 0xB53E5DBA EQ PUSH2 0x46D JUMPI DUP1 PUSH4 0xCCE3061C EQ PUSH2 0x496 JUMPI DUP1 PUSH4 0xDAB5F340 EQ PUSH2 0x4BF JUMPI DUP1 PUSH4 0xDD62ED3E EQ PUSH2 0x4E8 JUMPI DUP1 PUSH4 0xEBF0C717 EQ PUSH2 0x525 JUMPI PUSH2 0x135 JUMP JUMPDEST DUP1 PUSH4 0x97611638 EQ PUSH2 0x348 JUMPI DUP1 PUSH4 0x9DC29FAC EQ PUSH2 0x385 JUMPI DUP1 PUSH4 0xA0712D68 EQ PUSH2 0x3AE JUMPI DUP1 PUSH4 0xA457C2D7 EQ PUSH2 0x3CA JUMPI DUP1 PUSH4 0xA7B0D36F EQ PUSH2 0x407 JUMPI PUSH2 0x135 JUMP JUMPDEST DUP1 PUSH4 0x39509351 GT PUSH2 0xFD JUMPI DUP1 PUSH4 0x39509351 EQ PUSH2 0x235 JUMPI DUP1 PUSH4 0x4EC319CF EQ PUSH2 0x272 JUMPI DUP1 PUSH4 0x5D82CF6E EQ PUSH2 0x29B JUMPI DUP1 PUSH4 0x70A08231 EQ PUSH2 0x2C4 JUMPI DUP1 PUSH4 0x868FF4A2 EQ PUSH2 0x301 JUMPI DUP1 PUSH4 0x95D89B41 EQ PUSH2 0x31D JUMPI PUSH2 0x135 JUMP JUMPDEST DUP1 PUSH4 0x6FDDE03 EQ PUSH2 0x13A JUMPI DUP1 PUSH4 0x95EA7B3 EQ PUSH2 0x165 JUMPI DUP1 PUSH4 0x18160DDD EQ PUSH2 0x1A2 JUMPI DUP1 PUSH4 0x23B872DD EQ PUSH2 0x1CD JUMPI DUP1 PUSH4 0x313CE567 EQ PUSH2 0x20A JUMPI JUMPDEST PUSH1 0x0 DUP1 REVERT JUMPDEST CALLVALUE DUP1 ISZERO PUSH2 0x146 JUMPI PUSH1 0x0 DUP1 REVERT JUMPDEST POP PUSH2 0x14F PUSH2 0x550 JUMP JUMPDEST PUSH1 0x40 MLOAD PUSH2 0x15C SWAP2 SWAP1 PUSH2 0x1AA4 JUMP JUMPDEST PUSH1 0x40 MLOAD DUP1 SWAP2 SUB SWAP1 RETURN JUMPDEST CALLVALUE DUP1 ISZERO PUSH2 0x171 JUMPI PUSH1 0x0 DUP1 REVERT JUMPDEST POP PUSH2 0x18C PUSH1 0x4 DUP1 CALLDATASIZE SUB DUP2 ADD SWAP1 PUSH2 0x187 SWAP2 SWAP1 PUSH2 0x1B6E JUMP JUMPDEST PUSH2 0x5E2 JUMP JUMPDEST PUSH1 0x40 MLOAD PUSH2 0x199 SWAP2 SWAP1 PUSH2 0x1BC9 JUMP JUMPDEST PUSH1 0x40 MLOAD DUP1 SWAP2 SUB SWAP1 RETURN JUMPDEST CALLVALUE DUP1 ISZERO PUSH2 0x1AE JUMPI PUSH1 0x0 DUP1 REVERT JUMPDEST POP PUSH2 0x1B7 PUSH2 0x605 JUMP JUMPDEST PUSH1 0x40 MLOAD PUSH2 0x1C4 SWAP2 SWAP1 PUSH2 0x1BF3 JUMP JUMPDEST PUSH1 0x40 MLOAD DUP1 SWAP2 SUB SWAP1 RETURN JUMPDEST CALLVALUE DUP1 ISZERO PUSH2 0x1D9 JUMPI PUSH1 0x0 DUP1 REVERT JUMPDEST POP PUSH2 0x1F4 PUSH1 0x4 DUP1 CALLDATASIZE SUB DUP2 ADD SWAP1 PUSH2 0x1EF SWAP2 SWAP1 PUSH2 0x1C0E JUMP JUMPDEST PUSH2 0x60F JUMP JUMPDEST PUSH1 0x40 MLOAD PUSH2 0x201 SWAP2 SWAP1 PUSH2 0x1BC9 JUMP JUMPDEST PUSH1 0x40 MLOAD DUP1 SWAP2 SUB SWAP1 RETURN JUMPDEST CALLVALUE DUP1 ISZERO PUSH2 0x216 JUMPI PUSH1 0x0 DUP1 REVERT JUMPDEST POP PUSH2 0x21F PUSH2 0x63E JUMP JUMPDEST PUSH1 0x40 MLOAD PUSH2 0x22C SWAP2 SWAP1 PUSH2 0x1C7D JUMP JUMPDEST PUSH1 0x40 MLOAD DUP1 SWAP2 SUB SWAP1 RETURN JUMPDEST CALLVALUE DUP1 ISZERO PUSH2 0x241 JUMPI PUSH1 0x0 DUP1 REVERT JUMPDEST POP PUSH2 0x25C PUSH1 0x4 DUP1 CALLDATASIZE SUB DUP2 ADD SWAP1 PUSH2 0x257 SWAP2 SWAP1 PUSH2 0x1B6E JUMP JUMPDEST PUSH2 0x655 JUMP JUMPDEST PUSH1 0x40 MLOAD PUSH2 0x269 SWAP2 SWAP1 PUSH2 0x1BC9 JUMP JUMPDEST PUSH1 0x40 MLOAD DUP1 SWAP2 SUB SWAP1 RETURN JUMPDEST CALLVALUE DUP1 ISZERO PUSH2 0x27E JUMPI PUSH1 0x0 DUP1 REVERT JUMPDEST POP PUSH2 0x299 PUSH1 0x4 DUP1 CALLDATASIZE SUB DUP2 ADD SWAP1 PUSH2 0x294 SWAP2 SWAP1 PUSH2 0x1C98 JUMP JUMPDEST PUSH2 0x68C JUMP JUMPDEST STOP JUMPDEST CALLVALUE DUP1 ISZERO PUSH2 0x2A7 JUMPI PUSH1 0x0 DUP1 REVERT JUMPDEST POP PUSH2 0x2C2 PUSH1 0x4 DUP1 CALLDATASIZE SUB DUP2 ADD SWAP1 PUSH2 0x2BD SWAP2 SWAP1 PUSH2 0x1C98 JUMP JUMPDEST PUSH2 0x726 JUMP JUMPDEST STOP JUMPDEST CALLVALUE DUP1 ISZERO PUSH2 0x2D0 JUMPI PUSH1 0x0 DUP1 REVERT JUMPDEST POP PUSH2 0x2EB PUSH1 0x4 DUP1 CALLDATASIZE SUB DUP2 ADD SWAP1 PUSH2 0x2E6 SWAP2 SWAP1 PUSH2 0x1CC5 JUMP JUMPDEST PUSH2 0x7C0 JUMP JUMPDEST PUSH1 0x40 MLOAD PUSH2 0x2F8 SWAP2 SWAP1 PUSH2 0x1BF3 JUMP JUMPDEST PUSH1 0x40 MLOAD DUP1 SWAP2 SUB SWAP1 RETURN JUMPDEST PUSH2 0x31B PUSH1 0x4 DUP1 CALLDATASIZE SUB DUP2 ADD SWAP1 PUSH2 0x316 SWAP2 SWAP1 PUSH2 0x1C98 JUMP JUMPDEST PUSH2 0x808 JUMP JUMPDEST STOP JUMPDEST CALLVALUE DUP1 ISZERO PUSH2 0x329 JUMPI PUSH1 0x0 DUP1 REVERT JUMPDEST POP PUSH2 0x332 PUSH2 0x9A4 JUMP JUMPDEST PUSH1 0x40 MLOAD PUSH2 0x33F SWAP2 SWAP1 PUSH2 0x1AA4 JUMP JUMPDEST PUSH1 0x40 MLOAD DUP1 SWAP2 SUB SWAP1 RETURN JUMPDEST CALLVALUE DUP1 ISZERO PUSH2 0x354 JUMPI PUSH1 0x0 DUP1 REVERT JUMPDEST POP PUSH2 0x36F PUSH1 0x4 DUP1 CALLDATASIZE SUB DUP2 ADD SWAP1 PUSH2 0x36A SWAP2 SWAP1 PUSH2 0x1E70 JUMP JUMPDEST PUSH2 0xA36 JUMP JUMPDEST PUSH1 0x40 MLOAD PUSH2 0x37C SWAP2 SWAP1 PUSH2 0x1BC9 JUMP JUMPDEST PUSH1 0x40 MLOAD DUP1 SWAP2 SUB SWAP1 RETURN JUMPDEST CALLVALUE DUP1 ISZERO PUSH2 0x391 JUMPI PUSH1 0x0 DUP1 REVERT JUMPDEST POP PUSH2 0x3AC PUSH1 0x4 DUP1 CALLDATASIZE SUB DUP2 ADD SWAP1 PUSH2 0x3A7 SWAP2 SWAP1 PUSH2 0x1B6E JUMP JUMPDEST PUSH2 0xA72 JUMP JUMPDEST STOP JUMPDEST PUSH2 0x3C8 PUSH1 0x4 DUP1 CALLDATASIZE SUB DUP2 ADD SWAP1 PUSH2 0x3C3 SWAP2 SWAP1 PUSH2 0x1C98 JUMP JUMPDEST PUSH2 0xB57 JUMP JUMPDEST STOP JUMPDEST CALLVALUE DUP1 ISZERO PUSH2 0x3D6 JUMPI PUSH1 0x0 DUP1 REVERT JUMPDEST POP PUSH2 0x3F1 PUSH1 0x4 DUP1 CALLDATASIZE SUB DUP2 ADD SWAP1 PUSH2 0x3EC SWAP2 SWAP1 PUSH2 0x1B6E JUMP JUMPDEST PUSH2 0xD5F JUMP JUMPDEST PUSH1 0x40 MLOAD PUSH2 0x3FE SWAP2 SWAP1 PUSH2 0x1BC9 JUMP JUMPDEST PUSH1 0x40 MLOAD DUP1 SWAP2 SUB SWAP1 RETURN JUMPDEST CALLVALUE DUP1 ISZERO PUSH2 0x413 JUMPI PUSH1 0x0 DUP1 REVERT JUMPDEST POP PUSH2 0x42E PUSH1 0x4 DUP1 CALLDATASIZE SUB DUP2 ADD SWAP1 PUSH2 0x429 SWAP2 SWAP1 PUSH2 0x1C98 JUMP JUMPDEST PUSH2 0xDD6 JUMP JUMPDEST STOP JUMPDEST CALLVALUE DUP1 ISZERO PUSH2 0x43C JUMPI PUSH1 0x0 DUP1 REVERT JUMPDEST POP PUSH2 0x457 PUSH1 0x4 DUP1 CALLDATASIZE SUB DUP2 ADD SWAP1 PUSH2 0x452 SWAP2 SWAP1 PUSH2 0x1B6E JUMP JUMPDEST PUSH2 0xE70 JUMP JUMPDEST PUSH1 0x40 MLOAD PUSH2 0x464 SWAP2 SWAP1 PUSH2 0x1BC9 JUMP JUMPDEST PUSH1 0x40 MLOAD DUP1 SWAP2 SUB SWAP1 RETURN JUMPDEST CALLVALUE DUP1 ISZERO PUSH2 0x479 JUMPI PUSH1 0x0 DUP1 REVERT JUMPDEST POP PUSH2 0x494 PUSH1 0x4 DUP1 CALLDATASIZE SUB DUP2 ADD SWAP1 PUSH2 0x48F SWAP2 SWAP1 PUSH2 0x1F14 JUMP JUMPDEST PUSH2 0xE93 JUMP JUMPDEST STOP JUMPDEST CALLVALUE DUP1 ISZERO PUSH2 0x4A2 JUMPI PUSH1 0x0 DUP1 REVERT JUMPDEST POP PUSH2 0x4BD PUSH1 0x4 DUP1 CALLDATASIZE SUB DUP2 ADD SWAP1 PUSH2 0x4B8 SWAP2 SWAP1 PUSH2 0x1C98 JUMP JUMPDEST PUSH2 0xFA4 JUMP JUMPDEST STOP JUMPDEST CALLVALUE DUP1 ISZERO PUSH2 0x4CB JUMPI PUSH1 0x0 DUP1 REVERT JUMPDEST POP PUSH2 0x4E6 PUSH1 0x4 DUP1 CALLDATASIZE SUB DUP2 ADD SWAP1 PUSH2 0x4E1 SWAP2 SWAP1 PUSH2 0x1F61 JUMP JUMPDEST PUSH2 0x103E JUMP JUMPDEST STOP JUMPDEST CALLVALUE DUP1 ISZERO PUSH2 0x4F4 JUMPI PUSH1 0x0 DUP1 REVERT JUMPDEST POP PUSH2 0x50F PUSH1 0x4 DUP1 CALLDATASIZE SUB DUP2 ADD SWAP1 PUSH2 0x50A SWAP2 SWAP1 PUSH2 0x1F8E JUMP JUMPDEST PUSH2 0x10D8 JUMP JUMPDEST PUSH1 0x40 MLOAD PUSH2 0x51C SWAP2 SWAP1 PUSH2 0x1BF3 JUMP JUMPDEST PUSH1 0x40 MLOAD DUP1 SWAP2 SUB SWAP1 RETURN JUMPDEST CALLVALUE DUP1 ISZERO PUSH2 0x531 JUMPI PUSH1 0x0 DUP1 REVERT JUMPDEST POP PUSH2 0x53A PUSH2 0x115F JUMP JUMPDEST PUSH1 0x40 MLOAD PUSH2 0x547 SWAP2 SWAP1 PUSH2 0x1FDD JUMP JUMPDEST PUSH1 0x40 MLOAD DUP1 SWAP2 SUB SWAP1 RETURN JUMPDEST PUSH1 0x60 PUSH1 0x3 DUP1 SLOAD PUSH2 0x55F SWAP1 PUSH2 0x2027 JUMP JUMPDEST DUP1 PUSH1 0x1F ADD PUSH1 0x20 DUP1 SWAP2 DIV MUL PUSH1 0x20 ADD PUSH1 0x40 MLOAD SWAP1 DUP2 ADD PUSH1 0x40 MSTORE DUP1 SWAP3 SWAP2 SWAP1 DUP2 DUP2 MSTORE PUSH1 0x20 ADD DUP3 DUP1 SLOAD PUSH2 0x58B SWAP1 PUSH2 0x2027 JUMP JUMPDEST DUP1 ISZERO PUSH2 0x5D8 JUMPI DUP1 PUSH1 0x1F LT PUSH2 0x5AD JUMPI PUSH2 0x100 DUP1 DUP4 SLOAD DIV MUL DUP4 MSTORE SWAP2 PUSH1 0x20 ADD SWAP2 PUSH2 0x5D8 JUMP JUMPDEST DUP3 ADD SWAP2 SWAP1 PUSH1 0x0 MSTORE PUSH1 0x20 PUSH1 0x0 KECCAK256 SWAP1 JUMPDEST DUP2 SLOAD DUP2 MSTORE SWAP1 PUSH1 0x1 ADD SWAP1 PUSH1 0x20 ADD DUP1 DUP4 GT PUSH2 0x5BB JUMPI DUP3 SWAP1 SUB PUSH1 0x1F AND DUP3 ADD SWAP2 JUMPDEST POP POP POP POP POP SWAP1 POP SWAP1 JUMP JUMPDEST PUSH1 0x0 DUP1 PUSH2 0x5ED PUSH2 0x1165 JUMP JUMPDEST SWAP1 POP PUSH2 0x5FA DUP2 DUP6 DUP6 PUSH2 0x116D JUMP JUMPDEST PUSH1 0x1 SWAP2 POP POP SWAP3 SWAP2 POP POP JUMP JUMPDEST PUSH1 0x0 PUSH1 0x2 SLOAD SWAP1 POP SWAP1 JUMP JUMPDEST PUSH1 0x0 DUP1 PUSH2 0x61A PUSH2 0x1165 JUMP JUMPDEST SWAP1 POP PUSH2 0x627 DUP6 DUP3 DUP6 PUSH2 0x1336 JUMP JUMPDEST PUSH2 0x632 DUP6 DUP6 DUP6 PUSH2 0x13C2 JUMP JUMPDEST PUSH1 0x1 SWAP2 POP POP SWAP4 SWAP3 POP POP POP JUMP JUMPDEST PUSH1 0x0 PUSH1 0x6 PUSH1 0x14 SWAP1 SLOAD SWAP1 PUSH2 0x100 EXP SWAP1 DIV PUSH1 0xFF AND SWAP1 POP SWAP1 JUMP JUMPDEST PUSH1 0x0 DUP1 PUSH2 0x660 PUSH2 0x1165 JUMP JUMPDEST SWAP1 POP PUSH2 0x681 DUP2 DUP6 DUP6 PUSH2 0x672 DUP6 DUP10 PUSH2 0x10D8 JUMP JUMPDEST PUSH2 0x67C SWAP2 SWAP1 PUSH2 0x2087 JUMP JUMPDEST PUSH2 0x116D JUMP JUMPDEST PUSH1 0x1 SWAP2 POP POP SWAP3 SWAP2 POP POP JUMP JUMPDEST PUSH1 0x6 PUSH1 0x0 SWAP1 SLOAD SWAP1 PUSH2 0x100 EXP SWAP1 DIV PUSH20 0xFFFFFFFFFFFFFFFFFFFFFFFFFFFFFFFFFFFFFFFF AND PUSH20 0xFFFFFFFFFFFFFFFFFFFFFFFFFFFFFFFFFFFFFFFF AND CALLER PUSH20 0xFFFFFFFFFFFFFFFFFFFFFFFFFFFFFFFFFFFFFFFF AND EQ PUSH2 0x71C JUMPI PUSH1 0x40 MLOAD PUSH32 0x8C379A000000000000000000000000000000000000000000000000000000000 DUP2 MSTORE PUSH1 0x4 ADD PUSH2 0x713 SWAP1 PUSH2 0x212D JUMP JUMPDEST PUSH1 0x40 MLOAD DUP1 SWAP2 SUB SWAP1 REVERT JUMPDEST DUP1 PUSH1 0x9 DUP2 SWAP1 SSTORE POP POP JUMP JUMPDEST PUSH1 0x6 PUSH1 0x0 SWAP1 SLOAD SWAP1 PUSH2 0x100 EXP SWAP1 DIV PUSH20 0xFFFFFFFFFFFFFFFFFFFFFFFFFFFFFFFFFFFFFFFF AND PUSH20 0xFFFFFFFFFFFFFFFFFFFFFFFFFFFFFFFFFFFFFFFF AND CALLER PUSH20 0xFFFFFFFFFFFFFFFFFFFFFFFFFFFFFFFFFFFFFFFF AND EQ PUSH2 0x7B6 JUMPI PUSH1 0x40 MLOAD PUSH32 0x8C379A000000000000000000000000000000000000000000000000000000000 DUP2 MSTORE PUSH1 0x4 ADD PUSH2 0x7AD SWAP1 PUSH2 0x212D JUMP JUMPDEST PUSH1 0x40 MLOAD DUP1 SWAP2 SUB SWAP1 REVERT JUMPDEST DUP1 PUSH1 0xC DUP2 SWAP1 SSTORE POP POP JUMP JUMPDEST PUSH1 0x0 DUP1 PUSH1 0x0 DUP4 PUSH20 0xFFFFFFFFFFFFFFFFFFFFFFFFFFFFFFFFFFFFFFFF AND PUSH20 0xFFFFFFFFFFFFFFFFFFFFFFFFFFFFFFFFFFFFFFFF AND DUP2 MSTORE PUSH1 0x20 ADD SWAP1 DUP2 MSTORE PUSH1 0x20 ADD PUSH1 0x0 KECCAK256 SLOAD SWAP1 POP SWAP2 SWAP1 POP JUMP JUMPDEST PUSH1 0x7 SLOAD PUSH1 0x8 SLOAD LT ISZERO PUSH2 0x84F JUMPI PUSH1 0x40 MLOAD PUSH32 0x8C379A000000000000000000000000000000000000000000000000000000000 DUP2 MSTORE PUSH1 0x4 ADD PUSH2 0x846 SWAP1 PUSH2 0x2199 JUMP JUMPDEST PUSH1 0x40 MLOAD DUP1 SWAP2 SUB SWAP1 REVERT JUMPDEST PUSH1 0x1 ISZERO ISZERO PUSH1 0xD PUSH1 0x0 CALLER PUSH20 0xFFFFFFFFFFFFFFFFFFFFFFFFFFFFFFFFFFFFFFFF AND PUSH20 0xFFFFFFFFFFFFFFFFFFFFFFFFFFFFFFFFFFFFFFFF AND DUP2 MSTORE PUSH1 0x20 ADD SWAP1 DUP2 MSTORE PUSH1 0x20 ADD PUSH1 0x0 KECCAK256 PUSH1 0x0 SWAP1 SLOAD SWAP1 PUSH2 0x100 EXP SWAP1 DIV PUSH1 0xFF AND ISZERO ISZERO EQ PUSH2 0x8E2 JUMPI PUSH1 0x40 MLOAD PUSH32 0x8C379A000000000000000000000000000000000000000000000000000000000 DUP2 MSTORE PUSH1 0x4 ADD PUSH2 0x8D9 SWAP1 PUSH2 0x222B JUMP JUMPDEST PUSH1 0x40 MLOAD DUP1 SWAP2 SUB SWAP1 REVERT JUMPDEST PUSH1 0xB SLOAD DUP2 PUSH2 0x8F0 SWAP2 SWAP1 PUSH2 0x224B JUMP JUMPDEST CALLVALUE LT ISZERO PUSH2 0x932 JUMPI PUSH1 0x40 MLOAD PUSH32 0x8C379A000000000000000000000000000000000000000000000000000000000 DUP2 MSTORE PUSH1 0x4 ADD PUSH2 0x929 SWAP1 PUSH2 0x22D9 JUMP JUMPDEST PUSH1 0x40 MLOAD DUP1 SWAP2 SUB SWAP1 REVERT JUMPDEST PUSH1 0x0 PUSH1 0xB SLOAD DUP3 PUSH2 0x942 SWAP2 SWAP1 PUSH2 0x224B JUMP JUMPDEST CALLVALUE PUSH2 0x94D SWAP2 SWAP1 PUSH2 0x22F9 JUMP JUMPDEST SWAP1 POP PUSH2 0x959 CALLER DUP4 PUSH2 0x1638 JUMP JUMPDEST CALLER PUSH20 0xFFFFFFFFFFFFFFFFFFFFFFFFFFFFFFFFFFFFFFFF AND PUSH2 0x8FC DUP3 SWAP1 DUP2 ISZERO MUL SWAP1 PUSH1 0x40 MLOAD PUSH1 0x0 PUSH1 0x40 MLOAD DUP1 DUP4 SUB DUP2 DUP6 DUP9 DUP9 CALL SWAP4 POP POP POP POP ISZERO DUP1 ISZERO PUSH2 0x99F JUMPI RETURNDATASIZE PUSH1 0x0 DUP1 RETURNDATACOPY RETURNDATASIZE PUSH1 0x0 REVERT JUMPDEST POP POP POP JUMP JUMPDEST PUSH1 0x60 PUSH1 0x4 DUP1 SLOAD PUSH2 0x9B3 SWAP1 PUSH2 0x2027 JUMP JUMPDEST DUP1 PUSH1 0x1F ADD PUSH1 0x20 DUP1 SWAP2 DIV MUL PUSH1 0x20 ADD PUSH1 0x40 MLOAD SWAP1 DUP2 ADD PUSH1 0x40 MSTORE DUP1 SWAP3 SWAP2 SWAP1 DUP2 DUP2 MSTORE PUSH1 0x20 ADD DUP3 DUP1 SLOAD PUSH2 0x9DF SWAP1 PUSH2 0x2027 JUMP JUMPDEST DUP1 ISZERO PUSH2 0xA2C JUMPI DUP1 PUSH1 0x1F LT PUSH2 0xA01 JUMPI PUSH2 0x100 DUP1 DUP4 SLOAD DIV MUL DUP4 MSTORE SWAP2 PUSH1 0x20 ADD SWAP2 PUSH2 0xA2C JUMP JUMPDEST DUP3 ADD SWAP2 SWAP1 PUSH1 0x0 MSTORE PUSH1 0x20 PUSH1 0x0 KECCAK256 SWAP1 JUMPDEST DUP2 SLOAD DUP2 MSTORE SWAP1 PUSH1 0x1 ADD SWAP1 PUSH1 0x20 ADD DUP1 DUP4 GT PUSH2 0xA0F JUMPI DUP3 SWAP1 SUB PUSH1 0x1F AND DUP3 ADD SWAP2 JUMPDEST POP POP POP POP POP SWAP1 POP SWAP1 JUMP JUMPDEST PUSH1 0x0 PUSH2 0xA6B DUP3 PUSH1 0x5 SLOAD CALLER PUSH1 0x40 MLOAD PUSH1 0x20 ADD PUSH2 0xA50 SWAP2 SWAP1 PUSH2 0x2375 JUMP JUMPDEST PUSH1 0x40 MLOAD PUSH1 0x20 DUP2 DUP4 SUB SUB DUP2 MSTORE SWAP1 PUSH1 0x40 MSTORE DUP1 MLOAD SWAP1 PUSH1 0x20 ADD KECCAK256 PUSH2 0x178E JUMP JUMPDEST SWAP1 POP SWAP2 SWAP1 POP JUMP JUMPDEST PUSH1 0x6 PUSH1 0x0 SWAP1 SLOAD SWAP1 PUSH2 0x100 EXP SWAP1 DIV PUSH20 0xFFFFFFFFFFFFFFFFFFFFFFFFFFFFFFFFFFFFFFFF AND PUSH20 0xFFFFFFFFFFFFFFFFFFFFFFFFFFFFFFFFFFFFFFFF AND CALLER PUSH20 0xFFFFFFFFFFFFFFFFFFFFFFFFFFFFFFFFFFFFFFFF AND EQ PUSH2 0xB02 JUMPI PUSH1 0x40 MLOAD PUSH32 0x8C379A000000000000000000000000000000000000000000000000000000000 DUP2 MSTORE PUSH1 0x4 ADD PUSH2 0xAF9 SWAP1 PUSH2 0x212D JUMP JUMPDEST PUSH1 0x40 MLOAD DUP1 SWAP2 SUB SWAP1 REVERT JUMPDEST PUSH1 0x7 SLOAD PUSH1 0x8 SLOAD LT ISZERO PUSH2 0xB49 JUMPI PUSH1 0x40 MLOAD PUSH32 0x8C379A000000000000000000000000000000000000000000000000000000000 DUP2 MSTORE PUSH1 0x4 ADD PUSH2 0xB40 SWAP1 PUSH2 0x2199 JUMP JUMPDEST PUSH1 0x40 MLOAD DUP1 SWAP2 SUB SWAP1 REVERT JUMPDEST PUSH2 0xB53 DUP3 DUP3 PUSH2 0x17A5 JUMP JUMPDEST POP POP JUMP JUMPDEST PUSH1 0x6 PUSH1 0x0 SWAP1 SLOAD SWAP1 PUSH2 0x100 EXP SWAP1 DIV PUSH20 0xFFFFFFFFFFFFFFFFFFFFFFFFFFFFFFFFFFFFFFFF AND PUSH20 0xFFFFFFFFFFFFFFFFFFFFFFFFFFFFFFFFFFFFFFFF AND CALLER PUSH20 0xFFFFFFFFFFFFFFFFFFFFFFFFFFFFFFFFFFFFFFFF AND EQ PUSH2 0xBE7 JUMPI PUSH1 0x40 MLOAD PUSH32 0x8C379A000000000000000000000000000000000000000000000000000000000 DUP2 MSTORE PUSH1 0x4 ADD PUSH2 0xBDE SWAP1 PUSH2 0x212D JUMP JUMPDEST PUSH1 0x40 MLOAD DUP1 SWAP2 SUB SWAP1 REVERT JUMPDEST PUSH1 0x7 SLOAD PUSH1 0x8 SLOAD LT ISZERO PUSH2 0xC2E JUMPI PUSH1 0x40 MLOAD PUSH32 0x8C379A000000000000000000000000000000000000000000000000000000000 DUP2 MSTORE PUSH1 0x4 ADD PUSH2 0xC25 SWAP1 PUSH2 0x2199 JUMP JUMPDEST PUSH1 0x40 MLOAD DUP1 SWAP2 SUB SWAP1 REVERT JUMPDEST PUSH1 0x0 PUSH20 0xFFFFFFFFFFFFFFFFFFFFFFFFFFFFFFFFFFFFFFFF AND CALLER PUSH20 0xFFFFFFFFFFFFFFFFFFFFFFFFFFFFFFFFFFFFFFFF AND SUB PUSH2 0xC9D JUMPI PUSH1 0x40 MLOAD PUSH32 0x8C379A000000000000000000000000000000000000000000000000000000000 DUP2 MSTORE PUSH1 0x4 ADD PUSH2 0xC94 SWAP1 PUSH2 0x23DC JUMP JUMPDEST PUSH1 0x40 MLOAD DUP1 SWAP2 SUB SWAP1 REVERT JUMPDEST PUSH1 0xC SLOAD DUP2 PUSH2 0xCAB SWAP2 SWAP1 PUSH2 0x224B JUMP JUMPDEST CALLVALUE LT ISZERO PUSH2 0xCED JUMPI PUSH1 0x40 MLOAD PUSH32 0x8C379A000000000000000000000000000000000000000000000000000000000 DUP2 MSTORE PUSH1 0x4 ADD PUSH2 0xCE4 SWAP1 PUSH2 0x22D9 JUMP JUMPDEST PUSH1 0x40 MLOAD DUP1 SWAP2 SUB SWAP1 REVERT JUMPDEST PUSH1 0x0 PUSH1 0xC SLOAD DUP3 PUSH2 0xCFD SWAP2 SWAP1 PUSH2 0x224B JUMP JUMPDEST CALLVALUE PUSH2 0xD08 SWAP2 SWAP1 PUSH2 0x22F9 JUMP JUMPDEST SWAP1 POP PUSH2 0xD14 CALLER DUP4 PUSH2 0x1638 JUMP JUMPDEST CALLER PUSH20 0xFFFFFFFFFFFFFFFFFFFFFFFFFFFFFFFFFFFFFFFF AND PUSH2 0x8FC DUP3 SWAP1 DUP2 ISZERO MUL SWAP1 PUSH1 0x40 MLOAD PUSH1 0x0 PUSH1 0x40 MLOAD DUP1 DUP4 SUB DUP2 DUP6 DUP9 DUP9 CALL SWAP4 POP POP POP POP ISZERO DUP1 ISZERO PUSH2 0xD5A JUMPI RETURNDATASIZE PUSH1 0x0 DUP1 RETURNDATACOPY RETURNDATASIZE PUSH1 0x0 REVERT JUMPDEST POP POP POP JUMP JUMPDEST PUSH1 0x0 DUP1 PUSH2 0xD6A PUSH2 0x1165 JUMP JUMPDEST SWAP1 POP PUSH1 0x0 PUSH2 0xD78 DUP3 DUP7 PUSH2 0x10D8 JUMP JUMPDEST SWAP1 POP DUP4 DUP2 LT ISZERO PUSH2 0xDBD JUMPI PUSH1 0x40 MLOAD PUSH32 0x8C379A000000000000000000000000000000000000000000000000000000000 DUP2 MSTORE PUSH1 0x4 ADD PUSH2 0xDB4 SWAP1 PUSH2 0x246E JUMP JUMPDEST PUSH1 0x40 MLOAD DUP1 SWAP2 SUB SWAP1 REVERT JUMPDEST PUSH2 0xDCA DUP3 DUP7 DUP7 DUP5 SUB PUSH2 0x116D JUMP JUMPDEST PUSH1 0x1 SWAP3 POP POP POP SWAP3 SWAP2 POP POP JUMP JUMPDEST PUSH1 0x6 PUSH1 0x0 SWAP1 SLOAD SWAP1 PUSH2 0x100 EXP SWAP1 DIV PUSH20 0xFFFFFFFFFFFFFFFFFFFFFFFFFFFFFFFFFFFFFFFF AND PUSH20 0xFFFFFFFFFFFFFFFFFFFFFFFFFFFFFFFFFFFFFFFF AND CALLER PUSH20 0xFFFFFFFFFFFFFFFFFFFFFFFFFFFFFFFFFFFFFFFF AND EQ PUSH2 0xE66 JUMPI PUSH1 0x40 MLOAD PUSH32 0x8C379A000000000000000000000000000000000000000000000000000000000 DUP2 MSTORE PUSH1 0x4 ADD PUSH2 0xE5D SWAP1 PUSH2 0x212D JUMP JUMPDEST PUSH1 0x40 MLOAD DUP1 SWAP2 SUB SWAP1 REVERT JUMPDEST DUP1 PUSH1 0xB DUP2 SWAP1 SSTORE POP POP JUMP JUMPDEST PUSH1 0x0 DUP1 PUSH2 0xE7B PUSH2 0x1165 JUMP JUMPDEST SWAP1 POP PUSH2 0xE88 DUP2 DUP6 DUP6 PUSH2 0x13C2 JUMP JUMPDEST PUSH1 0x1 SWAP2 POP POP SWAP3 SWAP2 POP POP JUMP JUMPDEST DUP2 DUP2 DUP1 DUP1 PUSH1 0x20 MUL PUSH1 0x20 ADD PUSH1 0x40 MLOAD SWAP1 DUP2 ADD PUSH1 0x40 MSTORE DUP1 SWAP4 SWAP3 SWAP2 SWAP1 DUP2 DUP2 MSTORE PUSH1 0x20 ADD DUP4 DUP4 PUSH1 0x20 MUL DUP1 DUP3 DUP5 CALLDATACOPY PUSH1 0x0 DUP2 DUP5 ADD MSTORE PUSH1 0x1F NOT PUSH1 0x1F DUP3 ADD AND SWAP1 POP DUP1 DUP4 ADD SWAP3 POP POP POP POP POP POP POP PUSH2 0xF08 DUP2 PUSH1 0x5 SLOAD CALLER PUSH1 0x40 MLOAD PUSH1 0x20 ADD PUSH2 0xEED SWAP2 SWAP1 PUSH2 0x2375 JUMP JUMPDEST PUSH1 0x40 MLOAD PUSH1 0x20 DUP2 DUP4 SUB SUB DUP2 MSTORE SWAP1 PUSH1 0x40 MSTORE DUP1 MLOAD SWAP1 PUSH1 0x20 ADD KECCAK256 PUSH2 0x178E JUMP JUMPDEST PUSH2 0xF47 JUMPI PUSH1 0x40 MLOAD PUSH32 0x8C379A000000000000000000000000000000000000000000000000000000000 DUP2 MSTORE PUSH1 0x4 ADD PUSH2 0xF3E SWAP1 PUSH2 0x24DA JUMP JUMPDEST PUSH1 0x40 MLOAD DUP1 SWAP2 SUB SWAP1 REVERT JUMPDEST PUSH1 0x1 PUSH1 0xD PUSH1 0x0 CALLER PUSH20 0xFFFFFFFFFFFFFFFFFFFFFFFFFFFFFFFFFFFFFFFF AND PUSH20 0xFFFFFFFFFFFFFFFFFFFFFFFFFFFFFFFFFFFFFFFF AND DUP2 MSTORE PUSH1 0x20 ADD SWAP1 DUP2 MSTORE PUSH1 0x20 ADD PUSH1 0x0 KECCAK256 PUSH1 0x0 PUSH2 0x100 EXP DUP2 SLOAD DUP2 PUSH1 0xFF MUL NOT AND SWAP1 DUP4 ISZERO ISZERO MUL OR SWAP1 SSTORE POP POP POP POP JUMP JUMPDEST PUSH1 0x6 PUSH1 0x0 SWAP1 SLOAD SWAP1 PUSH2 0x100 EXP SWAP1 DIV PUSH20 0xFFFFFFFFFFFFFFFFFFFFFFFFFFFFFFFFFFFFFFFF AND PUSH20 0xFFFFFFFFFFFFFFFFFFFFFFFFFFFFFFFFFFFFFFFF AND CALLER PUSH20 0xFFFFFFFFFFFFFFFFFFFFFFFFFFFFFFFFFFFFFFFF AND EQ PUSH2 0x1034 JUMPI PUSH1 0x40 MLOAD PUSH32 0x8C379A000000000000000000000000000000000000000000000000000000000 DUP2 MSTORE PUSH1 0x4 ADD PUSH2 0x102B SWAP1 PUSH2 0x212D JUMP JUMPDEST PUSH1 0x40 MLOAD DUP1 SWAP2 SUB SWAP1 REVERT JUMPDEST DUP1 PUSH1 0xA DUP2 SWAP1 SSTORE POP POP JUMP JUMPDEST PUSH1 0x6 PUSH1 0x0 SWAP1 SLOAD SWAP1 PUSH2 0x100 EXP SWAP1 DIV PUSH20 0xFFFFFFFFFFFFFFFFFFFFFFFFFFFFFFFFFFFFFFFF AND PUSH20 0xFFFFFFFFFFFFFFFFFFFFFFFFFFFFFFFFFFFFFFFF AND CALLER PUSH20 0xFFFFFFFFFFFFFFFFFFFFFFFFFFFFFFFFFFFFFFFF AND EQ PUSH2 0x10CE JUMPI PUSH1 0x40 MLOAD PUSH32 0x8C379A000000000000000000000000000000000000000000000000000000000 DUP2 MSTORE PUSH1 0x4 ADD PUSH2 0x10C5 SWAP1 PUSH2 0x2546 JUMP JUMPDEST PUSH1 0x40 MLOAD DUP1 SWAP2 SUB SWAP1 REVERT JUMPDEST DUP1 PUSH1 0x5 DUP2 SWAP1 SSTORE POP POP JUMP JUMPDEST PUSH1 0x0 PUSH1 0x1 PUSH1 0x0 DUP5 PUSH20 0xFFFFFFFFFFFFFFFFFFFFFFFFFFFFFFFFFFFFFFFF AND PUSH20 0xFFFFFFFFFFFFFFFFFFFFFFFFFFFFFFFFFFFFFFFF AND DUP2 MSTORE PUSH1 0x20 ADD SWAP1 DUP2 MSTORE PUSH1 0x20 ADD PUSH1 0x0 KECCAK256 PUSH1 0x0 DUP4 PUSH20 0xFFFFFFFFFFFFFFFFFFFFFFFFFFFFFFFFFFFFFFFF AND PUSH20 0xFFFFFFFFFFFFFFFFFFFFFFFFFFFFFFFFFFFFFFFF AND DUP2 MSTORE PUSH1 0x20 ADD SWAP1 DUP2 MSTORE PUSH1 0x20 ADD PUSH1 0x0 KECCAK256 SLOAD SWAP1 POP SWAP3 SWAP2 POP POP JUMP JUMPDEST PUSH1 0x5 SLOAD DUP2 JUMP JUMPDEST PUSH1 0x0 CALLER SWAP1 POP SWAP1 JUMP JUMPDEST PUSH1 0x0 PUSH20 0xFFFFFFFFFFFFFFFFFFFFFFFFFFFFFFFFFFFFFFFF AND DUP4 PUSH20 0xFFFFFFFFFFFFFFFFFFFFFFFFFFFFFFFFFFFFFFFF AND SUB PUSH2 0x11DC JUMPI PUSH1 0x40 MLOAD PUSH32 0x8C379A000000000000000000000000000000000000000000000000000000000 DUP2 MSTORE PUSH1 0x4 ADD PUSH2 0x11D3 SWAP1 PUSH2 0x25D8 JUMP JUMPDEST PUSH1 0x40 MLOAD DUP1 SWAP2 SUB SWAP1 REVERT JUMPDEST PUSH1 0x0 PUSH20 0xFFFFFFFFFFFFFFFFFFFFFFFFFFFFFFFFFFFFFFFF AND DUP3 PUSH20 0xFFFFFFFFFFFFFFFFFFFFFFFFFFFFFFFFFFFFFFFF AND SUB PUSH2 0x124B JUMPI PUSH1 0x40 MLOAD PUSH32 0x8C379A000000000000000000000000000000000000000000000000000000000 DUP2 MSTORE PUSH1 0x4 ADD PUSH2 0x1242 SWAP1 PUSH2 0x266A JUMP JUMPDEST PUSH1 0x40 MLOAD DUP1 SWAP2 SUB SWAP1 REVERT JUMPDEST DUP1 PUSH1 0x1 PUSH1 0x0 DUP6 PUSH20 0xFFFFFFFFFFFFFFFFFFFFFFFFFFFFFFFFFFFFFFFF AND PUSH20 0xFFFFFFFFFFFFFFFFFFFFFFFFFFFFFFFFFFFFFFFF AND DUP2 MSTORE PUSH1 0x20 ADD SWAP1 DUP2 MSTORE PUSH1 0x20 ADD PUSH1 0x0 KECCAK256 PUSH1 0x0 DUP5 PUSH20 0xFFFFFFFFFFFFFFFFFFFFFFFFFFFFFFFFFFFFFFFF AND PUSH20 0xFFFFFFFFFFFFFFFFFFFFFFFFFFFFFFFFFFFFFFFF AND DUP2 MSTORE PUSH1 0x20 ADD SWAP1 DUP2 MSTORE PUSH1 0x20 ADD PUSH1 0x0 KECCAK256 DUP2 SWAP1 SSTORE POP DUP2 PUSH20 0xFFFFFFFFFFFFFFFFFFFFFFFFFFFFFFFFFFFFFFFF AND DUP4 PUSH20 0xFFFFFFFFFFFFFFFFFFFFFFFFFFFFFFFFFFFFFFFF AND PUSH32 0x8C5BE1E5EBEC7D5BD14F71427D1E84F3DD0314C0F7B2291E5B200AC8C7C3B925 DUP4 PUSH1 0x40 MLOAD PUSH2 0x1329 SWAP2 SWAP1 PUSH2 0x1BF3 JUMP JUMPDEST PUSH1 0x40 MLOAD DUP1 SWAP2 SUB SWAP1 LOG3 POP POP POP JUMP JUMPDEST PUSH1 0x0 PUSH2 0x1342 DUP5 DUP5 PUSH2 0x10D8 JUMP JUMPDEST SWAP1 POP PUSH32 0xFFFFFFFFFFFFFFFFFFFFFFFFFFFFFFFFFFFFFFFFFFFFFFFFFFFFFFFFFFFFFFFF DUP2 EQ PUSH2 0x13BC JUMPI DUP2 DUP2 LT ISZERO PUSH2 0x13AE JUMPI PUSH1 0x40 MLOAD PUSH32 0x8C379A000000000000000000000000000000000000000000000000000000000 DUP2 MSTORE PUSH1 0x4 ADD PUSH2 0x13A5 SWAP1 PUSH2 0x26D6 JUMP JUMPDEST PUSH1 0x40 MLOAD DUP1 SWAP2 SUB SWAP1 REVERT JUMPDEST PUSH2 0x13BB DUP5 DUP5 DUP5 DUP5 SUB PUSH2 0x116D JUMP JUMPDEST JUMPDEST POP POP POP POP JUMP JUMPDEST PUSH1 0x0 PUSH20 0xFFFFFFFFFFFFFFFFFFFFFFFFFFFFFFFFFFFFFFFF AND DUP4 PUSH20 0xFFFFFFFFFFFFFFFFFFFFFFFFFFFFFFFFFFFFFFFF AND SUB PUSH2 0x1431 JUMPI PUSH1 0x40 MLOAD PUSH32 0x8C379A000000000000000000000000000000000000000000000000000000000 DUP2 MSTORE PUSH1 0x4 ADD PUSH2 0x1428 SWAP1 PUSH2 0x2768 JUMP JUMPDEST PUSH1 0x40 MLOAD DUP1 SWAP2 SUB SWAP1 REVERT JUMPDEST PUSH1 0x0 PUSH20 0xFFFFFFFFFFFFFFFFFFFFFFFFFFFFFFFFFFFFFFFF AND DUP3 PUSH20 0xFFFFFFFFFFFFFFFFFFFFFFFFFFFFFFFFFFFFFFFF AND SUB PUSH2 0x14A0 JUMPI PUSH1 0x40 MLOAD PUSH32 0x8C379A000000000000000000000000000000000000000000000000000000000 DUP2 MSTORE PUSH1 0x4 ADD PUSH2 0x1497 SWAP1 PUSH2 0x27FA JUMP JUMPDEST PUSH1 0x40 MLOAD DUP1 SWAP2 SUB SWAP1 REVERT JUMPDEST PUSH2 0x14AB DUP4 DUP4 DUP4 PUSH2 0x1972 JUMP JUMPDEST PUSH1 0x0 DUP1 PUSH1 0x0 DUP6 PUSH20 0xFFFFFFFFFFFFFFFFFFFFFFFFFFFFFFFFFFFFFFFF AND PUSH20 0xFFFFFFFFFFFFFFFFFFFFFFFFFFFFFFFFFFFFFFFF AND DUP2 MSTORE PUSH1 0x20 ADD SWAP1 DUP2 MSTORE PUSH1 0x20 ADD PUSH1 0x0 KECCAK256 SLOAD SWAP1 POP DUP2 DUP2 LT ISZERO PUSH2 0x1531 JUMPI PUSH1 0x40 MLOAD PUSH32 0x8C379A000000000000000000000000000000000000000000000000000000000 DUP2 MSTORE PUSH1 0x4 ADD PUSH2 0x1528 SWAP1 PUSH2 0x288C JUMP JUMPDEST PUSH1 0x40 MLOAD DUP1 SWAP2 SUB SWAP1 REVERT JUMPDEST DUP2 DUP2 SUB PUSH1 0x0 DUP1 DUP7 PUSH20 0xFFFFFFFFFFFFFFFFFFFFFFFFFFFFFFFFFFFFFFFF AND PUSH20 0xFFFFFFFFFFFFFFFFFFFFFFFFFFFFFFFFFFFFFFFF AND DUP2 MSTORE PUSH1 0x20 ADD SWAP1 DUP2 MSTORE PUSH1 0x20 ADD PUSH1 0x0 KECCAK256 DUP2 SWAP1 SSTORE POP DUP2 PUSH1 0x0 DUP1 DUP6 PUSH20 0xFFFFFFFFFFFFFFFFFFFFFFFFFFFFFFFFFFFFFFFF AND PUSH20 0xFFFFFFFFFFFFFFFFFFFFFFFFFFFFFFFFFFFFFFFF AND DUP2 MSTORE PUSH1 0x20 ADD SWAP1 DUP2 MSTORE PUSH1 0x20 ADD PUSH1 0x0 KECCAK256 PUSH1 0x0 DUP3 DUP3 SLOAD ADD SWAP3 POP POP DUP2 SWAP1 SSTORE POP DUP3 PUSH20 0xFFFFFFFFFFFFFFFFFFFFFFFFFFFFFFFFFFFFFFFF AND DUP5 PUSH20 0xFFFFFFFFFFFFFFFFFFFFFFFFFFFFFFFFFFFFFFFF AND PUSH32 0xDDF252AD1BE2C89B69C2B068FC378DAA952BA7F163C4A11628F55A4DF523B3EF DUP5 PUSH1 0x40 MLOAD PUSH2 0x161F SWAP2 SWAP1 PUSH2 0x1BF3 JUMP JUMPDEST PUSH1 0x40 MLOAD DUP1 SWAP2 SUB SWAP1 LOG3 PUSH2 0x1632 DUP5 DUP5 DUP5 PUSH2 0x1977 JUMP JUMPDEST POP POP POP POP JUMP JUMPDEST PUSH1 0x0 PUSH20 0xFFFFFFFFFFFFFFFFFFFFFFFFFFFFFFFFFFFFFFFF AND DUP3 PUSH20 0xFFFFFFFFFFFFFFFFFFFFFFFFFFFFFFFFFFFFFFFF AND SUB PUSH2 0x16A7 JUMPI PUSH1 0x40 MLOAD PUSH32 0x8C379A000000000000000000000000000000000000000000000000000000000 DUP2 MSTORE PUSH1 0x4 ADD PUSH2 0x169E SWAP1 PUSH2 0x28F8 JUMP JUMPDEST PUSH1 0x40 MLOAD DUP1 SWAP2 SUB SWAP1 REVERT JUMPDEST PUSH2 0x16B3 PUSH1 0x0 DUP4 DUP4 PUSH2 0x1972 JUMP JUMPDEST DUP1 PUSH1 0x2 PUSH1 0x0 DUP3 DUP3 SLOAD PUSH2 0x16C5 SWAP2 SWAP1 PUSH2 0x2087 JUMP JUMPDEST SWAP3 POP POP DUP2 SWAP1 SSTORE POP DUP1 PUSH1 0x0 DUP1 DUP5 PUSH20 0xFFFFFFFFFFFFFFFFFFFFFFFFFFFFFFFFFFFFFFFF AND PUSH20 0xFFFFFFFFFFFFFFFFFFFFFFFFFFFFFFFFFFFFFFFF AND DUP2 MSTORE PUSH1 0x20 ADD SWAP1 DUP2 MSTORE PUSH1 0x20 ADD PUSH1 0x0 KECCAK256 PUSH1 0x0 DUP3 DUP3 SLOAD ADD SWAP3 POP POP DUP2 SWAP1 SSTORE POP DUP2 PUSH20 0xFFFFFFFFFFFFFFFFFFFFFFFFFFFFFFFFFFFFFFFF AND PUSH1 0x0 PUSH20 0xFFFFFFFFFFFFFFFFFFFFFFFFFFFFFFFFFFFFFFFF AND PUSH32 0xDDF252AD1BE2C89B69C2B068FC378DAA952BA7F163C4A11628F55A4DF523B3EF DUP4 PUSH1 0x40 MLOAD PUSH2 0x1776 SWAP2 SWAP1 PUSH2 0x1BF3 JUMP JUMPDEST PUSH1 0x40 MLOAD DUP1 SWAP2 SUB SWAP1 LOG3 PUSH2 0x178A PUSH1 0x0 DUP4 DUP4 PUSH2 0x1977 JUMP JUMPDEST POP POP JUMP JUMPDEST PUSH1 0x0 DUP3 PUSH2 0x179B DUP6 DUP5 PUSH2 0x197C JUMP JUMPDEST EQ SWAP1 POP SWAP4 SWAP3 POP POP POP JUMP JUMPDEST PUSH1 0x0 PUSH20 0xFFFFFFFFFFFFFFFFFFFFFFFFFFFFFFFFFFFFFFFF AND DUP3 PUSH20 0xFFFFFFFFFFFFFFFFFFFFFFFFFFFFFFFFFFFFFFFF AND SUB PUSH2 0x1814 JUMPI PUSH1 0x40 MLOAD PUSH32 0x8C379A000000000000000000000000000000000000000000000000000000000 DUP2 MSTORE PUSH1 0x4 ADD PUSH2 0x180B SWAP1 PUSH2 0x298A JUMP JUMPDEST PUSH1 0x40 MLOAD DUP1 SWAP2 SUB SWAP1 REVERT JUMPDEST PUSH2 0x1820 DUP3 PUSH1 0x0 DUP4 PUSH2 0x1972 JUMP JUMPDEST PUSH1 0x0 DUP1 PUSH1 0x0 DUP5 PUSH20 0xFFFFFFFFFFFFFFFFFFFFFFFFFFFFFFFFFFFFFFFF AND PUSH20 0xFFFFFFFFFFFFFFFFFFFFFFFFFFFFFFFFFFFFFFFF AND DUP2 MSTORE PUSH1 0x20 ADD SWAP1 DUP2 MSTORE PUSH1 0x20 ADD PUSH1 0x0 KECCAK256 SLOAD SWAP1 POP DUP2 DUP2 LT ISZERO PUSH2 0x18A6 JUMPI PUSH1 0x40 MLOAD PUSH32 0x8C379A000000000000000000000000000000000000000000000000000000000 DUP2 MSTORE PUSH1 0x4 ADD PUSH2 0x189D SWAP1 PUSH2 0x2A1C JUMP JUMPDEST PUSH1 0x40 MLOAD DUP1 SWAP2 SUB SWAP1 REVERT JUMPDEST DUP2 DUP2 SUB PUSH1 0x0 DUP1 DUP6 PUSH20 0xFFFFFFFFFFFFFFFFFFFFFFFFFFFFFFFFFFFFFFFF AND PUSH20 0xFFFFFFFFFFFFFFFFFFFFFFFFFFFFFFFFFFFFFFFF AND DUP2 MSTORE PUSH1 0x20 ADD SWAP1 DUP2 MSTORE PUSH1 0x20 ADD PUSH1 0x0 KECCAK256 DUP2 SWAP1 SSTORE POP DUP2 PUSH1 0x2 PUSH1 0x0 DUP3 DUP3 SLOAD SUB SWAP3 POP POP DUP2 SWAP1 SSTORE POP PUSH1 0x0 PUSH20 0xFFFFFFFFFFFFFFFFFFFFFFFFFFFFFFFFFFFFFFFF AND DUP4 PUSH20 0xFFFFFFFFFFFFFFFFFFFFFFFFFFFFFFFFFFFFFFFF AND PUSH32 0xDDF252AD1BE2C89B69C2B068FC378DAA952BA7F163C4A11628F55A4DF523B3EF DUP5 PUSH1 0x40 MLOAD PUSH2 0x1959 SWAP2 SWAP1 PUSH2 0x1BF3 JUMP JUMPDEST PUSH1 0x40 MLOAD DUP1 SWAP2 SUB SWAP1 LOG3 PUSH2 0x196D DUP4 PUSH1 0x0 DUP5 PUSH2 0x1977 JUMP JUMPDEST POP POP POP JUMP JUMPDEST POP POP POP JUMP JUMPDEST POP POP POP JUMP JUMPDEST PUSH1 0x0 DUP1 DUP3 SWAP1 POP PUSH1 0x0 JUMPDEST DUP5 MLOAD DUP2 LT ISZERO PUSH2 0x19C7 JUMPI PUSH2 0x19B2 DUP3 DUP7 DUP4 DUP2 MLOAD DUP2 LT PUSH2 0x19A5 JUMPI PUSH2 0x19A4 PUSH2 0x2A3C JUMP JUMPDEST JUMPDEST PUSH1 0x20 MUL PUSH1 0x20 ADD ADD MLOAD PUSH2 0x19D2 JUMP JUMPDEST SWAP2 POP DUP1 DUP1 PUSH2 0x19BF SWAP1 PUSH2 0x2A6B JUMP JUMPDEST SWAP2 POP POP PUSH2 0x1985 JUMP JUMPDEST POP DUP1 SWAP2 POP POP SWAP3 SWAP2 POP POP JUMP JUMPDEST PUSH1 0x0 DUP2 DUP4 LT PUSH2 0x19EA JUMPI PUSH2 0x19E5 DUP3 DUP5 PUSH2 0x19FD JUMP JUMPDEST PUSH2 0x19F5 JUMP JUMPDEST PUSH2 0x19F4 DUP4 DUP4 PUSH2 0x19FD JUMP JUMPDEST JUMPDEST SWAP1 POP SWAP3 SWAP2 POP POP JUMP JUMPDEST PUSH1 0x0 DUP3 PUSH1 0x0 MSTORE DUP2 PUSH1 0x20 MSTORE PUSH1 0x40 PUSH1 0x0 KECCAK256 SWAP1 POP SWAP3 SWAP2 POP POP JUMP JUMPDEST PUSH1 0x0 DUP2 MLOAD SWAP1 POP SWAP2 SWAP1 POP JUMP JUMPDEST PUSH1 0x0 DUP3 DUP3 MSTORE PUSH1 0x20 DUP3 ADD SWAP1 POP SWAP3 SWAP2 POP POP JUMP JUMPDEST PUSH1 0x0 JUMPDEST DUP4 DUP2 LT ISZERO PUSH2 0x1A4E JUMPI DUP1 DUP3 ADD MLOAD DUP2 DUP5 ADD MSTORE PUSH1 0x20 DUP2 ADD SWAP1 POP PUSH2 0x1A33 JUMP JUMPDEST PUSH1 0x0 DUP5 DUP5 ADD MSTORE POP POP POP POP JUMP JUMPDEST PUSH1 0x0 PUSH1 0x1F NOT PUSH1 0x1F DUP4 ADD AND SWAP1 POP SWAP2 SWAP1 POP JUMP JUMPDEST PUSH1 0x0 PUSH2 0x1A76 DUP3 PUSH2 0x1A14 JUMP JUMPDEST PUSH2 0x1A80 DUP2 DUP6 PUSH2 0x1A1F JUMP JUMPDEST SWAP4 POP PUSH2 0x1A90 DUP2 DUP6 PUSH1 0x20 DUP7 ADD PUSH2 0x1A30 JUMP JUMPDEST PUSH2 0x1A99 DUP2 PUSH2 0x1A5A JUMP JUMPDEST DUP5 ADD SWAP2 POP POP SWAP3 SWAP2 POP POP JUMP JUMPDEST PUSH1 0x0 PUSH1 0x20 DUP3 ADD SWAP1 POP DUP2 DUP2 SUB PUSH1 0x0 DUP4 ADD MSTORE PUSH2 0x1ABE DUP2 DUP5 PUSH2 0x1A6B JUMP JUMPDEST SWAP1 POP SWAP3 SWAP2 POP POP JUMP JUMPDEST PUSH1 0x0 PUSH1 0x40 MLOAD SWAP1 POP SWAP1 JUMP JUMPDEST PUSH1 0x0 DUP1 REVERT JUMPDEST PUSH1 0x0 DUP1 REVERT JUMPDEST PUSH1 0x0 PUSH20 0xFFFFFFFFFFFFFFFFFFFFFFFFFFFFFFFFFFFFFFFF DUP3 AND SWAP1 POP SWAP2 SWAP1 POP JUMP JUMPDEST PUSH1 0x0 PUSH2 0x1B05 DUP3 PUSH2 0x1ADA JUMP JUMPDEST SWAP1 POP SWAP2 SWAP1 POP JUMP JUMPDEST PUSH2 0x1B15 DUP2 PUSH2 0x1AFA JUMP JUMPDEST DUP2 EQ PUSH2 0x1B20 JUMPI PUSH1 0x0 DUP1 REVERT JUMPDEST POP JUMP JUMPDEST PUSH1 0x0 DUP2 CALLDATALOAD SWAP1 POP PUSH2 0x1B32 DUP2 PUSH2 0x1B0C JUMP JUMPDEST SWAP3 SWAP2 POP POP JUMP JUMPDEST PUSH1 0x0 DUP2 SWAP1 POP SWAP2 SWAP1 POP JUMP JUMPDEST PUSH2 0x1B4B DUP2 PUSH2 0x1B38 JUMP JUMPDEST DUP2 EQ PUSH2 0x1B56 JUMPI PUSH1 0x0 DUP1 REVERT JUMPDEST POP JUMP JUMPDEST PUSH1 0x0 DUP2 CALLDATALOAD SWAP1 POP PUSH2 0x1B68 DUP2 PUSH2 0x1B42 JUMP JUMPDEST SWAP3 SWAP2 POP POP JUMP JUMPDEST PUSH1 0x0 DUP1 PUSH1 0x40 DUP4 DUP6 SUB SLT ISZERO PUSH2 0x1B85 JUMPI PUSH2 0x1B84 PUSH2 0x1AD0 JUMP JUMPDEST JUMPDEST PUSH1 0x0 PUSH2 0x1B93 DUP6 DUP3 DUP7 ADD PUSH2 0x1B23 JUMP JUMPDEST SWAP3 POP POP PUSH1 0x20 PUSH2 0x1BA4 DUP6 DUP3 DUP7 ADD PUSH2 0x1B59 JUMP JUMPDEST SWAP2 POP POP SWAP3 POP SWAP3 SWAP1 POP JUMP JUMPDEST PUSH1 0x0 DUP2 ISZERO ISZERO SWAP1 POP SWAP2 SWAP1 POP JUMP JUMPDEST PUSH2 0x1BC3 DUP2 PUSH2 0x1BAE JUMP JUMPDEST DUP3 MSTORE POP POP JUMP JUMPDEST PUSH1 0x0 PUSH1 0x20 DUP3 ADD SWAP1 POP PUSH2 0x1BDE PUSH1 0x0 DUP4 ADD DUP5 PUSH2 0x1BBA JUMP JUMPDEST SWAP3 SWAP2 POP POP JUMP JUMPDEST PUSH2 0x1BED DUP2 PUSH2 0x1B38 JUMP JUMPDEST DUP3 MSTORE POP POP JUMP JUMPDEST PUSH1 0x0 PUSH1 0x20 DUP3 ADD SWAP1 POP PUSH2 0x1C08 PUSH1 0x0 DUP4 ADD DUP5 PUSH2 0x1BE4 JUMP JUMPDEST SWAP3 SWAP2 POP POP JUMP JUMPDEST PUSH1 0x0 DUP1 PUSH1 0x0 PUSH1 0x60 DUP5 DUP7 SUB SLT ISZERO PUSH2 0x1C27 JUMPI PUSH2 0x1C26 PUSH2 0x1AD0 JUMP JUMPDEST JUMPDEST PUSH1 0x0 PUSH2 0x1C35 DUP7 DUP3 DUP8 ADD PUSH2 0x1B23 JUMP JUMPDEST SWAP4 POP POP PUSH1 0x20 PUSH2 0x1C46 DUP7 DUP3 DUP8 ADD PUSH2 0x1B23 JUMP JUMPDEST SWAP3 POP POP PUSH1 0x40 PUSH2 0x1C57 DUP7 DUP3 DUP8 ADD PUSH2 0x1B59 JUMP JUMPDEST SWAP2 POP POP SWAP3 POP SWAP3 POP SWAP3 JUMP JUMPDEST PUSH1 0x0 PUSH1 0xFF DUP3 AND SWAP1 POP SWAP2 SWAP1 POP JUMP JUMPDEST PUSH2 0x1C77 DUP2 PUSH2 0x1C61 JUMP JUMPDEST DUP3 MSTORE POP POP JUMP JUMPDEST PUSH1 0x0 PUSH1 0x20 DUP3 ADD SWAP1 POP PUSH2 0x1C92 PUSH1 0x0 DUP4 ADD DUP5 PUSH2 0x1C6E JUMP JUMPDEST SWAP3 SWAP2 POP POP JUMP JUMPDEST PUSH1 0x0 PUSH1 0x20 DUP3 DUP5 SUB SLT ISZERO PUSH2 0x1CAE JUMPI PUSH2 0x1CAD PUSH2 0x1AD0 JUMP JUMPDEST JUMPDEST PUSH1 0x0 PUSH2 0x1CBC DUP5 DUP3 DUP6 ADD PUSH2 0x1B59 JUMP JUMPDEST SWAP2 POP POP SWAP3 SWAP2 POP POP JUMP JUMPDEST PUSH1 0x0 PUSH1 0x20 DUP3 DUP5 SUB SLT ISZERO PUSH2 0x1CDB JUMPI PUSH2 0x1CDA PUSH2 0x1AD0 JUMP JUMPDEST JUMPDEST PUSH1 0x0 PUSH2 0x1CE9 DUP5 DUP3 DUP6 ADD PUSH2 0x1B23 JUMP JUMPDEST SWAP2 POP POP SWAP3 SWAP2 POP POP JUMP JUMPDEST PUSH1 0x0 DUP1 REVERT JUMPDEST PUSH32 0x4E487B7100000000000000000000000000000000000000000000000000000000 PUSH1 0x0 MSTORE PUSH1 0x41 PUSH1 0x4 MSTORE PUSH1 0x24 PUSH1 0x0 REVERT JUMPDEST PUSH2 0x1D2F DUP3 PUSH2 0x1A5A JUMP JUMPDEST DUP2 ADD DUP2 DUP2 LT PUSH8 0xFFFFFFFFFFFFFFFF DUP3 GT OR ISZERO PUSH2 0x1D4E JUMPI PUSH2 0x1D4D PUSH2 0x1CF7 JUMP JUMPDEST JUMPDEST DUP1 PUSH1 0x40 MSTORE POP POP POP JUMP JUMPDEST PUSH1 0x0 PUSH2 0x1D61 PUSH2 0x1AC6 JUMP JUMPDEST SWAP1 POP PUSH2 0x1D6D DUP3 DUP3 PUSH2 0x1D26 JUMP JUMPDEST SWAP2 SWAP1 POP JUMP JUMPDEST PUSH1 0x0 PUSH8 0xFFFFFFFFFFFFFFFF DUP3 GT ISZERO PUSH2 0x1D8D JUMPI PUSH2 0x1D8C PUSH2 0x1CF7 JUMP JUMPDEST JUMPDEST PUSH1 0x20 DUP3 MUL SWAP1 POP PUSH1 0x20 DUP2 ADD SWAP1 POP SWAP2 SWAP1 POP JUMP JUMPDEST PUSH1 0x0 DUP1 REVERT JUMPDEST PUSH1 0x0 DUP2 SWAP1 POP SWAP2 SWAP1 POP JUMP JUMPDEST PUSH2 0x1DB6 DUP2 PUSH2 0x1DA3 JUMP JUMPDEST DUP2 EQ PUSH2 0x1DC1 JUMPI PUSH1 0x0 DUP1 REVERT JUMPDEST POP JUMP JUMPDEST PUSH1 0x0 DUP2 CALLDATALOAD SWAP1 POP PUSH2 0x1DD3 DUP2 PUSH2 0x1DAD JUMP JUMPDEST SWAP3 SWAP2 POP POP JUMP JUMPDEST PUSH1 0x0 PUSH2 0x1DEC PUSH2 0x1DE7 DUP5 PUSH2 0x1D72 JUMP JUMPDEST PUSH2 0x1D57 JUMP JUMPDEST SWAP1 POP DUP1 DUP4 DUP3 MSTORE PUSH1 0x20 DUP3 ADD SWAP1 POP PUSH1 0x20 DUP5 MUL DUP4 ADD DUP6 DUP2 GT ISZERO PUSH2 0x1E0F JUMPI PUSH2 0x1E0E PUSH2 0x1D9E JUMP JUMPDEST JUMPDEST DUP4 JUMPDEST DUP2 DUP2 LT ISZERO PUSH2 0x1E38 JUMPI DUP1 PUSH2 0x1E24 DUP9 DUP3 PUSH2 0x1DC4 JUMP JUMPDEST DUP5 MSTORE PUSH1 0x20 DUP5 ADD SWAP4 POP POP PUSH1 0x20 DUP2 ADD SWAP1 POP PUSH2 0x1E11 JUMP JUMPDEST POP POP POP SWAP4 SWAP3 POP POP POP JUMP JUMPDEST PUSH1 0x0 DUP3 PUSH1 0x1F DUP4 ADD SLT PUSH2 0x1E57 JUMPI PUSH2 0x1E56 PUSH2 0x1CF2 JUMP JUMPDEST JUMPDEST DUP2 CALLDATALOAD PUSH2 0x1E67 DUP5 DUP3 PUSH1 0x20 DUP7 ADD PUSH2 0x1DD9 JUMP JUMPDEST SWAP2 POP POP SWAP3 SWAP2 POP POP JUMP JUMPDEST PUSH1 0x0 PUSH1 0x20 DUP3 DUP5 SUB SLT ISZERO PUSH2 0x1E86 JUMPI PUSH2 0x1E85 PUSH2 0x1AD0 JUMP JUMPDEST JUMPDEST PUSH1 0x0 DUP3 ADD CALLDATALOAD PUSH8 0xFFFFFFFFFFFFFFFF DUP2 GT ISZERO PUSH2 0x1EA4 JUMPI PUSH2 0x1EA3 PUSH2 0x1AD5 JUMP JUMPDEST JUMPDEST PUSH2 0x1EB0 DUP5 DUP3 DUP6 ADD PUSH2 0x1E42 JUMP JUMPDEST SWAP2 POP POP SWAP3 SWAP2 POP POP JUMP JUMPDEST PUSH1 0x0 DUP1 REVERT JUMPDEST PUSH1 0x0 DUP1 DUP4 PUSH1 0x1F DUP5 ADD SLT PUSH2 0x1ED4 JUMPI PUSH2 0x1ED3 PUSH2 0x1CF2 JUMP JUMPDEST JUMPDEST DUP3 CALLDATALOAD SWAP1 POP PUSH8 0xFFFFFFFFFFFFFFFF DUP2 GT ISZERO PUSH2 0x1EF1 JUMPI PUSH2 0x1EF0 PUSH2 0x1EB9 JUMP JUMPDEST JUMPDEST PUSH1 0x20 DUP4 ADD SWAP2 POP DUP4 PUSH1 0x20 DUP3 MUL DUP4 ADD GT ISZERO PUSH2 0x1F0D JUMPI PUSH2 0x1F0C PUSH2 0x1D9E JUMP JUMPDEST JUMPDEST SWAP3 POP SWAP3 SWAP1 POP JUMP JUMPDEST PUSH1 0x0 DUP1 PUSH1 0x20 DUP4 DUP6 SUB SLT ISZERO PUSH2 0x1F2B JUMPI PUSH2 0x1F2A PUSH2 0x1AD0 JUMP JUMPDEST JUMPDEST PUSH1 0x0 DUP4 ADD CALLDATALOAD PUSH8 0xFFFFFFFFFFFFFFFF DUP2 GT ISZERO PUSH2 0x1F49 JUMPI PUSH2 0x1F48 PUSH2 0x1AD5 JUMP JUMPDEST JUMPDEST PUSH2 0x1F55 DUP6 DUP3 DUP7 ADD PUSH2 0x1EBE JUMP JUMPDEST SWAP3 POP SWAP3 POP POP SWAP3 POP SWAP3 SWAP1 POP JUMP JUMPDEST PUSH1 0x0 PUSH1 0x20 DUP3 DUP5 SUB SLT ISZERO PUSH2 0x1F77 JUMPI PUSH2 0x1F76 PUSH2 0x1AD0 JUMP JUMPDEST JUMPDEST PUSH1 0x0 PUSH2 0x1F85 DUP5 DUP3 DUP6 ADD PUSH2 0x1DC4 JUMP JUMPDEST SWAP2 POP POP SWAP3 SWAP2 POP POP JUMP JUMPDEST PUSH1 0x0 DUP1 PUSH1 0x40 DUP4 DUP6 SUB SLT ISZERO PUSH2 0x1FA5 JUMPI PUSH2 0x1FA4 PUSH2 0x1AD0 JUMP JUMPDEST JUMPDEST PUSH1 0x0 PUSH2 0x1FB3 DUP6 DUP3 DUP7 ADD PUSH2 0x1B23 JUMP JUMPDEST SWAP3 POP POP PUSH1 0x20 PUSH2 0x1FC4 DUP6 DUP3 DUP7 ADD PUSH2 0x1B23 JUMP JUMPDEST SWAP2 POP POP SWAP3 POP SWAP3 SWAP1 POP JUMP JUMPDEST PUSH2 0x1FD7 DUP2 PUSH2 0x1DA3 JUMP JUMPDEST DUP3 MSTORE POP POP JUMP JUMPDEST PUSH1 0x0 PUSH1 0x20 DUP3 ADD SWAP1 POP PUSH2 0x1FF2 PUSH1 0x0 DUP4 ADD DUP5 PUSH2 0x1FCE JUMP JUMPDEST SWAP3 SWAP2 POP POP JUMP JUMPDEST PUSH32 0x4E487B7100000000000000000000000000000000000000000000000000000000 PUSH1 0x0 MSTORE PUSH1 0x22 PUSH1 0x4 MSTORE PUSH1 0x24 PUSH1 0x0 REVERT JUMPDEST PUSH1 0x0 PUSH1 0x2 DUP3 DIV SWAP1 POP PUSH1 0x1 DUP3 AND DUP1 PUSH2 0x203F JUMPI PUSH1 0x7F DUP3 AND SWAP2 POP JUMPDEST PUSH1 0x20 DUP3 LT DUP2 SUB PUSH2 0x2052 JUMPI PUSH2 0x2051 PUSH2 0x1FF8 JUMP JUMPDEST JUMPDEST POP SWAP2 SWAP1 POP JUMP JUMPDEST PUSH32 0x4E487B7100000000000000000000000000000000000000000000000000000000 PUSH1 0x0 MSTORE PUSH1 0x11 PUSH1 0x4 MSTORE PUSH1 0x24 PUSH1 0x0 REVERT JUMPDEST PUSH1 0x0 PUSH2 0x2092 DUP3 PUSH2 0x1B38 JUMP JUMPDEST SWAP2 POP PUSH2 0x209D DUP4 PUSH2 0x1B38 JUMP JUMPDEST SWAP3 POP DUP3 DUP3 ADD SWAP1 POP DUP1 DUP3 GT ISZERO PUSH2 0x20B5 JUMPI PUSH2 0x20B4 PUSH2 0x2058 JUMP JUMPDEST JUMPDEST SWAP3 SWAP2 POP POP JUMP JUMPDEST PUSH32 0x546869732066756E6374696F6E206F6E6C79206F776E65722063616E20757365 PUSH1 0x0 DUP3 ADD MSTORE PUSH32 0x2E00000000000000000000000000000000000000000000000000000000000000 PUSH1 0x20 DUP3 ADD MSTORE POP JUMP JUMPDEST PUSH1 0x0 PUSH2 0x2117 PUSH1 0x21 DUP4 PUSH2 0x1A1F JUMP JUMPDEST SWAP2 POP PUSH2 0x2122 DUP3 PUSH2 0x20BB JUMP JUMPDEST PUSH1 0x40 DUP3 ADD SWAP1 POP SWAP2 SWAP1 POP JUMP JUMPDEST PUSH1 0x0 PUSH1 0x20 DUP3 ADD SWAP1 POP DUP2 DUP2 SUB PUSH1 0x0 DUP4 ADD MSTORE PUSH2 0x2146 DUP2 PUSH2 0x210A JUMP JUMPDEST SWAP1 POP SWAP2 SWAP1 POP JUMP JUMPDEST PUSH32 0x49742773206F76657220546F6B656E206C696D69742121000000000000000000 PUSH1 0x0 DUP3 ADD MSTORE POP JUMP JUMPDEST PUSH1 0x0 PUSH2 0x2183 PUSH1 0x17 DUP4 PUSH2 0x1A1F JUMP JUMPDEST SWAP2 POP PUSH2 0x218E DUP3 PUSH2 0x214D JUMP JUMPDEST PUSH1 0x20 DUP3 ADD SWAP1 POP SWAP2 SWAP1 POP JUMP JUMPDEST PUSH1 0x0 PUSH1 0x20 DUP3 ADD SWAP1 POP DUP2 DUP2 SUB PUSH1 0x0 DUP4 ADD MSTORE PUSH2 0x21B2 DUP2 PUSH2 0x2176 JUMP JUMPDEST SWAP1 POP SWAP2 SWAP1 POP JUMP JUMPDEST PUSH32 0x596F75722061646472657373206973206E6F7420696E2057686974656C697374 PUSH1 0x0 DUP3 ADD MSTORE PUSH32 0x7E00000000000000000000000000000000000000000000000000000000000000 PUSH1 0x20 DUP3 ADD MSTORE POP JUMP JUMPDEST PUSH1 0x0 PUSH2 0x2215 PUSH1 0x21 DUP4 PUSH2 0x1A1F JUMP JUMPDEST SWAP2 POP PUSH2 0x2220 DUP3 PUSH2 0x21B9 JUMP JUMPDEST PUSH1 0x40 DUP3 ADD SWAP1 POP SWAP2 SWAP1 POP JUMP JUMPDEST PUSH1 0x0 PUSH1 0x20 DUP3 ADD SWAP1 POP DUP2 DUP2 SUB PUSH1 0x0 DUP4 ADD MSTORE PUSH2 0x2244 DUP2 PUSH2 0x2208 JUMP JUMPDEST SWAP1 POP SWAP2 SWAP1 POP JUMP JUMPDEST PUSH1 0x0 PUSH2 0x2256 DUP3 PUSH2 0x1B38 JUMP JUMPDEST SWAP2 POP PUSH2 0x2261 DUP4 PUSH2 0x1B38 JUMP JUMPDEST SWAP3 POP DUP3 DUP3 MUL PUSH2 0x226F DUP2 PUSH2 0x1B38 JUMP JUMPDEST SWAP2 POP DUP3 DUP3 DIV DUP5 EQ DUP4 ISZERO OR PUSH2 0x2286 JUMPI PUSH2 0x2285 PUSH2 0x2058 JUMP JUMPDEST JUMPDEST POP SWAP3 SWAP2 POP POP JUMP JUMPDEST PUSH32 0x7468652062616C616E6365206973206E6F7420656E6F7567682E000000000000 PUSH1 0x0 DUP3 ADD MSTORE POP JUMP JUMPDEST PUSH1 0x0 PUSH2 0x22C3 PUSH1 0x1A DUP4 PUSH2 0x1A1F JUMP JUMPDEST SWAP2 POP PUSH2 0x22CE DUP3 PUSH2 0x228D JUMP JUMPDEST PUSH1 0x20 DUP3 ADD SWAP1 POP SWAP2 SWAP1 POP JUMP JUMPDEST PUSH1 0x0 PUSH1 0x20 DUP3 ADD SWAP1 POP DUP2 DUP2 SUB PUSH1 0x0 DUP4 ADD MSTORE PUSH2 0x22F2 DUP2 PUSH2 0x22B6 JUMP JUMPDEST SWAP1 POP SWAP2 SWAP1 POP JUMP JUMPDEST PUSH1 0x0 PUSH2 0x2304 DUP3 PUSH2 0x1B38 JUMP JUMPDEST SWAP2 POP PUSH2 0x230F DUP4 PUSH2 0x1B38 JUMP JUMPDEST SWAP3 POP DUP3 DUP3 SUB SWAP1 POP DUP2 DUP2 GT ISZERO PUSH2 0x2327 JUMPI PUSH2 0x2326 PUSH2 0x2058 JUMP JUMPDEST JUMPDEST SWAP3 SWAP2 POP POP JUMP JUMPDEST PUSH1 0x0 DUP2 PUSH1 0x60 SHL SWAP1 POP SWAP2 SWAP1 POP JUMP JUMPDEST PUSH1 0x0 PUSH2 0x2345 DUP3 PUSH2 0x232D JUMP JUMPDEST SWAP1 POP SWAP2 SWAP1 POP JUMP JUMPDEST PUSH1 0x0 PUSH2 0x2357 DUP3 PUSH2 0x233A JUMP JUMPDEST SWAP1 POP SWAP2 SWAP1 POP JUMP JUMPDEST PUSH2 0x236F PUSH2 0x236A DUP3 PUSH2 0x1AFA JUMP JUMPDEST PUSH2 0x234C JUMP JUMPDEST DUP3 MSTORE POP POP JUMP JUMPDEST PUSH1 0x0 PUSH2 0x2381 DUP3 DUP5 PUSH2 0x235E JUMP JUMPDEST PUSH1 0x14 DUP3 ADD SWAP2 POP DUP2 SWAP1 POP SWAP3 SWAP2 POP POP JUMP JUMPDEST PUSH32 0x596F75722061646472657373206973206E6F7420657869737400000000000000 PUSH1 0x0 DUP3 ADD MSTORE POP JUMP JUMPDEST PUSH1 0x0 PUSH2 0x23C6 PUSH1 0x19 DUP4 PUSH2 0x1A1F JUMP JUMPDEST SWAP2 POP PUSH2 0x23D1 DUP3 PUSH2 0x2390 JUMP JUMPDEST PUSH1 0x20 DUP3 ADD SWAP1 POP SWAP2 SWAP1 POP JUMP JUMPDEST PUSH1 0x0 PUSH1 0x20 DUP3 ADD SWAP1 POP DUP2 DUP2 SUB PUSH1 0x0 DUP4 ADD MSTORE PUSH2 0x23F5 DUP2 PUSH2 0x23B9 JUMP JUMPDEST SWAP1 POP SWAP2 SWAP1 POP JUMP JUMPDEST PUSH32 0x45524332303A2064656372656173656420616C6C6F77616E63652062656C6F77 PUSH1 0x0 DUP3 ADD MSTORE PUSH32 0x207A65726F000000000000000000000000000000000000000000000000000000 PUSH1 0x20 DUP3 ADD MSTORE POP JUMP JUMPDEST PUSH1 0x0 PUSH2 0x2458 PUSH1 0x25 DUP4 PUSH2 0x1A1F JUMP JUMPDEST SWAP2 POP PUSH2 0x2463 DUP3 PUSH2 0x23FC JUMP JUMPDEST PUSH1 0x40 DUP3 ADD SWAP1 POP SWAP2 SWAP1 POP JUMP JUMPDEST PUSH1 0x0 PUSH1 0x20 DUP3 ADD SWAP1 POP DUP2 DUP2 SUB PUSH1 0x0 DUP4 ADD MSTORE PUSH2 0x2487 DUP2 PUSH2 0x244B JUMP JUMPDEST SWAP1 POP SWAP2 SWAP1 POP JUMP JUMPDEST PUSH32 0x496E76616C69642070726F6F6600000000000000000000000000000000000000 PUSH1 0x0 DUP3 ADD MSTORE POP JUMP JUMPDEST PUSH1 0x0 PUSH2 0x24C4 PUSH1 0xD DUP4 PUSH2 0x1A1F JUMP JUMPDEST SWAP2 POP PUSH2 0x24CF DUP3 PUSH2 0x248E JUMP JUMPDEST PUSH1 0x20 DUP3 ADD SWAP1 POP SWAP2 SWAP1 POP JUMP JUMPDEST PUSH1 0x0 PUSH1 0x20 DUP3 ADD SWAP1 POP DUP2 DUP2 SUB PUSH1 0x0 DUP4 ADD MSTORE PUSH2 0x24F3 DUP2 PUSH2 0x24B7 JUMP JUMPDEST SWAP1 POP SWAP2 SWAP1 POP JUMP JUMPDEST PUSH32 0x4F6E6C79206F776E65722063616E2073657420726F6F74000000000000000000 PUSH1 0x0 DUP3 ADD MSTORE POP JUMP JUMPDEST PUSH1 0x0 PUSH2 0x2530 PUSH1 0x17 DUP4 PUSH2 0x1A1F JUMP JUMPDEST SWAP2 POP PUSH2 0x253B DUP3 PUSH2 0x24FA JUMP JUMPDEST PUSH1 0x20 DUP3 ADD SWAP1 POP SWAP2 SWAP1 POP JUMP JUMPDEST PUSH1 0x0 PUSH1 0x20 DUP3 ADD SWAP1 POP DUP2 DUP2 SUB PUSH1 0x0 DUP4 ADD MSTORE PUSH2 0x255F DUP2 PUSH2 0x2523 JUMP JUMPDEST SWAP1 POP SWAP2 SWAP1 POP JUMP JUMPDEST PUSH32 0x45524332303A20617070726F76652066726F6D20746865207A65726F20616464 PUSH1 0x0 DUP3 ADD MSTORE PUSH32 0x7265737300000000000000000000000000000000000000000000000000000000 PUSH1 0x20 DUP3 ADD MSTORE POP JUMP JUMPDEST PUSH1 0x0 PUSH2 0x25C2 PUSH1 0x24 DUP4 PUSH2 0x1A1F JUMP JUMPDEST SWAP2 POP PUSH2 0x25CD DUP3 PUSH2 0x2566 JUMP JUMPDEST PUSH1 0x40 DUP3 ADD SWAP1 POP SWAP2 SWAP1 POP JUMP JUMPDEST PUSH1 0x0 PUSH1 0x20 DUP3 ADD SWAP1 POP DUP2 DUP2 SUB PUSH1 0x0 DUP4 ADD MSTORE PUSH2 0x25F1 DUP2 PUSH2 0x25B5 JUMP JUMPDEST SWAP1 POP SWAP2 SWAP1 POP JUMP JUMPDEST PUSH32 0x45524332303A20617070726F766520746F20746865207A65726F206164647265 PUSH1 0x0 DUP3 ADD MSTORE PUSH32 0x7373000000000000000000000000000000000000000000000000000000000000 PUSH1 0x20 DUP3 ADD MSTORE POP JUMP JUMPDEST PUSH1 0x0 PUSH2 0x2654 PUSH1 0x22 DUP4 PUSH2 0x1A1F JUMP JUMPDEST SWAP2 POP PUSH2 0x265F DUP3 PUSH2 0x25F8 JUMP JUMPDEST PUSH1 0x40 DUP3 ADD SWAP1 POP SWAP2 SWAP1 POP JUMP JUMPDEST PUSH1 0x0 PUSH1 0x20 DUP3 ADD SWAP1 POP DUP2 DUP2 SUB PUSH1 0x0 DUP4 ADD MSTORE PUSH2 0x2683 DUP2 PUSH2 0x2647 JUMP JUMPDEST SWAP1 POP SWAP2 SWAP1 POP JUMP JUMPDEST PUSH32 0x45524332303A20696E73756666696369656E7420616C6C6F77616E6365000000 PUSH1 0x0 DUP3 ADD MSTORE POP JUMP JUMPDEST PUSH1 0x0 PUSH2 0x26C0 PUSH1 0x1D DUP4 PUSH2 0x1A1F JUMP JUMPDEST SWAP2 POP PUSH2 0x26CB DUP3 PUSH2 0x268A JUMP JUMPDEST PUSH1 0x20 DUP3 ADD SWAP1 POP SWAP2 SWAP1 POP JUMP JUMPDEST PUSH1 0x0 PUSH1 0x20 DUP3 ADD SWAP1 POP DUP2 DUP2 SUB PUSH1 0x0 DUP4 ADD MSTORE PUSH2 0x26EF DUP2 PUSH2 0x26B3 JUMP JUMPDEST SWAP1 POP SWAP2 SWAP1 POP JUMP JUMPDEST PUSH32 0x45524332303A207472616E736665722066726F6D20746865207A65726F206164 PUSH1 0x0 DUP3 ADD MSTORE PUSH32 0x6472657373000000000000000000000000000000000000000000000000000000 PUSH1 0x20 DUP3 ADD MSTORE POP JUMP JUMPDEST PUSH1 0x0 PUSH2 0x2752 PUSH1 0x25 DUP4 PUSH2 0x1A1F JUMP JUMPDEST SWAP2 POP PUSH2 0x275D DUP3 PUSH2 0x26F6 JUMP JUMPDEST PUSH1 0x40 DUP3 ADD SWAP1 POP SWAP2 SWAP1 POP JUMP JUMPDEST PUSH1 0x0 PUSH1 0x20 DUP3 ADD SWAP1 POP DUP2 DUP2 SUB PUSH1 0x0 DUP4 ADD MSTORE PUSH2 0x2781 DUP2 PUSH2 0x2745 JUMP JUMPDEST SWAP1 POP SWAP2 SWAP1 POP JUMP JUMPDEST PUSH32 0x45524332303A207472616E7366657220746F20746865207A65726F2061646472 PUSH1 0x0 DUP3 ADD MSTORE PUSH32 0x6573730000000000000000000000000000000000000000000000000000000000 PUSH1 0x20 DUP3 ADD MSTORE POP JUMP JUMPDEST PUSH1 0x0 PUSH2 0x27E4 PUSH1 0x23 DUP4 PUSH2 0x1A1F JUMP JUMPDEST SWAP2 POP PUSH2 0x27EF DUP3 PUSH2 0x2788 JUMP JUMPDEST PUSH1 0x40 DUP3 ADD SWAP1 POP SWAP2 SWAP1 POP JUMP JUMPDEST PUSH1 0x0 PUSH1 0x20 DUP3 ADD SWAP1 POP DUP2 DUP2 SUB PUSH1 0x0 DUP4 ADD MSTORE PUSH2 0x2813 DUP2 PUSH2 0x27D7 JUMP JUMPDEST SWAP1 POP SWAP2 SWAP1 POP JUMP JUMPDEST PUSH32 0x45524332303A207472616E7366657220616D6F756E7420657863656564732062 PUSH1 0x0 DUP3 ADD MSTORE PUSH32 0x616C616E63650000000000000000000000000000000000000000000000000000 PUSH1 0x20 DUP3 ADD MSTORE POP JUMP JUMPDEST PUSH1 0x0 PUSH2 0x2876 PUSH1 0x26 DUP4 PUSH2 0x1A1F JUMP JUMPDEST SWAP2 POP PUSH2 0x2881 DUP3 PUSH2 0x281A JUMP JUMPDEST PUSH1 0x40 DUP3 ADD SWAP1 POP SWAP2 SWAP1 POP JUMP JUMPDEST PUSH1 0x0 PUSH1 0x20 DUP3 ADD SWAP1 POP DUP2 DUP2 SUB PUSH1 0x0 DUP4 ADD MSTORE PUSH2 0x28A5 DUP2 PUSH2 0x2869 JUMP JUMPDEST SWAP1 POP SWAP2 SWAP1 POP JUMP JUMPDEST PUSH32 0x45524332303A206D696E7420746F20746865207A65726F206164647265737300 PUSH1 0x0 DUP3 ADD MSTORE POP JUMP JUMPDEST PUSH1 0x0 PUSH2 0x28E2 PUSH1 0x1F DUP4 PUSH2 0x1A1F JUMP JUMPDEST SWAP2 POP PUSH2 0x28ED DUP3 PUSH2 0x28AC JUMP JUMPDEST PUSH1 0x20 DUP3 ADD SWAP1 POP SWAP2 SWAP1 POP JUMP JUMPDEST PUSH1 0x0 PUSH1 0x20 DUP3 ADD SWAP1 POP DUP2 DUP2 SUB PUSH1 0x0 DUP4 ADD MSTORE PUSH2 0x2911 DUP2 PUSH2 0x28D5 JUMP JUMPDEST SWAP1 POP SWAP2 SWAP1 POP JUMP JUMPDEST PUSH32 0x45524332303A206275726E2066726F6D20746865207A65726F20616464726573 PUSH1 0x0 DUP3 ADD MSTORE PUSH32 0x7300000000000000000000000000000000000000000000000000000000000000 PUSH1 0x20 DUP3 ADD MSTORE POP JUMP JUMPDEST PUSH1 0x0 PUSH2 0x2974 PUSH1 0x21 DUP4 PUSH2 0x1A1F JUMP JUMPDEST SWAP2 POP PUSH2 0x297F DUP3 PUSH2 0x2918 JUMP JUMPDEST PUSH1 0x40 DUP3 ADD SWAP1 POP SWAP2 SWAP1 POP JUMP JUMPDEST PUSH1 0x0 PUSH1 0x20 DUP3 ADD SWAP1 POP DUP2 DUP2 SUB PUSH1 0x0 DUP4 ADD MSTORE PUSH2 0x29A3 DUP2 PUSH2 0x2967 JUMP JUMPDEST SWAP1 POP SWAP2 SWAP1 POP JUMP JUMPDEST PUSH32 0x45524332303A206275726E20616D6F756E7420657863656564732062616C616E PUSH1 0x0 DUP3 ADD MSTORE PUSH32 0x6365000000000000000000000000000000000000000000000000000000000000 PUSH1 0x20 DUP3 ADD MSTORE POP JUMP JUMPDEST PUSH1 0x0 PUSH2 0x2A06 PUSH1 0x22 DUP4 PUSH2 0x1A1F JUMP JUMPDEST SWAP2 POP PUSH2 0x2A11 DUP3 PUSH2 0x29AA JUMP JUMPDEST PUSH1 0x40 DUP3 ADD SWAP1 POP SWAP2 SWAP1 POP JUMP JUMPDEST PUSH1 0x0 PUSH1 0x20 DUP3 ADD SWAP1 POP DUP2 DUP2 SUB PUSH1 0x0 DUP4 ADD MSTORE PUSH2 0x2A35 DUP2 PUSH2 0x29F9 JUMP JUMPDEST SWAP1 POP SWAP2 SWAP1 POP JUMP JUMPDEST PUSH32 0x4E487B7100000000000000000000000000000000000000000000000000000000 PUSH1 0x0 MSTORE PUSH1 0x32 PUSH1 0x4 MSTORE PUSH1 0x24 PUSH1 0x0 REVERT JUMPDEST PUSH1 0x0 PUSH2 0x2A76 DUP3 PUSH2 0x1B38 JUMP JUMPDEST SWAP2 POP PUSH32 0xFFFFFFFFFFFFFFFFFFFFFFFFFFFFFFFFFFFFFFFFFFFFFFFFFFFFFFFFFFFFFFFF DUP3 SUB PUSH2 0x2AA8 JUMPI PUSH2 0x2AA7 PUSH2 0x2058 JUMP JUMPDEST JUMPDEST PUSH1 0x1 DUP3 ADD SWAP1 POP SWAP2 SWAP1 POP JUMP INVALID LOG2 PUSH5 0x6970667358 0x22 SLT KECCAK256 ADD PUSH19 0xC8C064899D1A6E67539EEF5EBE0B4E45DBEFE 0xC0 DUP9 LOG3 MSIZE 0xC0 0xE4 CODECOPY 0xCB SWAP2 0xD8 SWAP1 PUSH5 0x736F6C6343 STOP ADDMOD GT STOP CALLER "
				},
				"gasEstimates": {
					"creation": {
						"codeDepositCost": "2197000",
						"executionCost": "infinite",
						"totalCost": "infinite"
					},
					"external": {
						"CheckwhitelistMint(bytes32[])": "infinite",
						"SetPublicMaxNumberofToken(uint256)": "24756",
						"SetWhitelistMaxNumberofToken(uint256)": "24735",
						"SetWhitelistMintPrice(uint256)": "24801",
						"allowance(address,address)": "infinite",
						"approve(address,uint256)": "infinite",
						"balanceOf(address)": "2930",
						"burn(address,uint256)": "infinite",
						"decimals()": "2641",
						"decreaseAllowance(address,uint256)": "infinite",
						"increaseAllowance(address,uint256)": "infinite",
						"mint(uint256)": "infinite",
						"name()": "infinite",
						"root()": "2561",
						"setPublicMintPrice(uint256)": "24757",
						"setRoot(bytes32)": "24778",
						"symbol()": "infinite",
						"totalSupply()": "2505",
						"transfer(address,uint256)": "infinite",
						"transferFrom(address,address,uint256)": "infinite",
						"verify(bytes32[])": "infinite",
						"whitelistMint(uint256)": "infinite"
					}
				},
				"methodIdentifiers": {
					"CheckwhitelistMint(bytes32[])": "b53e5dba",
					"SetPublicMaxNumberofToken(uint256)": "cce3061c",
					"SetWhitelistMaxNumberofToken(uint256)": "4ec319cf",
					"SetWhitelistMintPrice(uint256)": "a7b0d36f",
					"allowance(address,address)": "dd62ed3e",
					"approve(address,uint256)": "095ea7b3",
					"balanceOf(address)": "70a08231",
					"burn(address,uint256)": "9dc29fac",
					"decimals()": "313ce567",
					"decreaseAllowance(address,uint256)": "a457c2d7",
					"increaseAllowance(address,uint256)": "39509351",
					"mint(uint256)": "a0712d68",
					"name()": "06fdde03",
					"root()": "ebf0c717",
					"setPublicMintPrice(uint256)": "5d82cf6e",
					"setRoot(bytes32)": "dab5f340",
					"symbol()": "95d89b41",
					"totalSupply()": "18160ddd",
					"transfer(address,uint256)": "a9059cbb",
					"transferFrom(address,address,uint256)": "23b872dd",
					"verify(bytes32[])": "97611638",
					"whitelistMint(uint256)": "868ff4a2"
				}
			},
			"storageLayout": {
				"storage": [
					{
						"astId": 128,
						"contract": "Subject/ERC-20_subject.sol:FirstToken",
						"label": "_balances",
						"offset": 0,
						"slot": "0",
						"type": "t_mapping(t_address,t_uint256)"
					},
					{
						"astId": 134,
						"contract": "Subject/ERC-20_subject.sol:FirstToken",
						"label": "_allowances",
						"offset": 0,
						"slot": "1",
						"type": "t_mapping(t_address,t_mapping(t_address,t_uint256))"
					},
					{
						"astId": 136,
						"contract": "Subject/ERC-20_subject.sol:FirstToken",
						"label": "_totalSupply",
						"offset": 0,
						"slot": "2",
						"type": "t_uint256"
					},
					{
						"astId": 138,
						"contract": "Subject/ERC-20_subject.sol:FirstToken",
						"label": "_name",
						"offset": 0,
						"slot": "3",
						"type": "t_string_storage"
					},
					{
						"astId": 140,
						"contract": "Subject/ERC-20_subject.sol:FirstToken",
						"label": "_symbol",
						"offset": 0,
						"slot": "4",
						"type": "t_string_storage"
					},
					{
						"astId": 1335,
						"contract": "Subject/ERC-20_subject.sol:FirstToken",
						"label": "root",
						"offset": 0,
						"slot": "5",
						"type": "t_bytes32"
					},
					{
						"astId": 1337,
						"contract": "Subject/ERC-20_subject.sol:FirstToken",
						"label": "Owner",
						"offset": 0,
						"slot": "6",
						"type": "t_address"
					},
					{
						"astId": 1339,
						"contract": "Subject/ERC-20_subject.sol:FirstToken",
						"label": "decimals_",
						"offset": 20,
						"slot": "6",
						"type": "t_uint8"
					},
					{
						"astId": 1341,
						"contract": "Subject/ERC-20_subject.sol:FirstToken",
						"label": "_totalSupply",
						"offset": 0,
						"slot": "7",
						"type": "t_uint256"
					},
					{
						"astId": 1343,
						"contract": "Subject/ERC-20_subject.sol:FirstToken",
						"label": "_TokentotalSupply",
						"offset": 0,
						"slot": "8",
						"type": "t_uint256"
					},
					{
						"astId": 1345,
						"contract": "Subject/ERC-20_subject.sol:FirstToken",
						"label": "WhitelistMaxNumberofToken",
						"offset": 0,
						"slot": "9",
						"type": "t_uint256"
					},
					{
						"astId": 1347,
						"contract": "Subject/ERC-20_subject.sol:FirstToken",
						"label": "PublicMaxNumberofToken",
						"offset": 0,
						"slot": "10",
						"type": "t_uint256"
					},
					{
						"astId": 1349,
						"contract": "Subject/ERC-20_subject.sol:FirstToken",
						"label": "WhitelistMintPrice",
						"offset": 0,
						"slot": "11",
						"type": "t_uint256"
					},
					{
						"astId": 1351,
						"contract": "Subject/ERC-20_subject.sol:FirstToken",
						"label": "PublicMintPrice",
						"offset": 0,
						"slot": "12",
						"type": "t_uint256"
					},
					{
						"astId": 1355,
						"contract": "Subject/ERC-20_subject.sol:FirstToken",
						"label": "Whitelist",
						"offset": 0,
						"slot": "13",
						"type": "t_mapping(t_address,t_bool)"
					}
				],
				"types": {
					"t_address": {
						"encoding": "inplace",
						"label": "address",
						"numberOfBytes": "20"
					},
					"t_bool": {
						"encoding": "inplace",
						"label": "bool",
						"numberOfBytes": "1"
					},
					"t_bytes32": {
						"encoding": "inplace",
						"label": "bytes32",
						"numberOfBytes": "32"
					},
					"t_mapping(t_address,t_bool)": {
						"encoding": "mapping",
						"key": "t_address",
						"label": "mapping(address => bool)",
						"numberOfBytes": "32",
						"value": "t_bool"
					},
					"t_mapping(t_address,t_mapping(t_address,t_uint256))": {
						"encoding": "mapping",
						"key": "t_address",
						"label": "mapping(address => mapping(address => uint256))",
						"numberOfBytes": "32",
						"value": "t_mapping(t_address,t_uint256)"
					},
					"t_mapping(t_address,t_uint256)": {
						"encoding": "mapping",
						"key": "t_address",
						"label": "mapping(address => uint256)",
						"numberOfBytes": "32",
						"value": "t_uint256"
					},
					"t_string_storage": {
						"encoding": "bytes",
						"label": "string",
						"numberOfBytes": "32"
					},
					"t_uint256": {
						"encoding": "inplace",
						"label": "uint256",
						"numberOfBytes": "32"
					},
					"t_uint8": {
						"encoding": "inplace",
						"label": "uint8",
						"numberOfBytes": "1"
					}
				}
			},
			"userdoc": {
				"kind": "user",
				"methods": {},
				"version": 1
			}
		}
	}
}