{
	"data": {
		"bytecode": {
			"linkReferences": {},
			"object": "608060405260006007556064600860006101000a81548160ff021916908360ff1602179055503480156200003257600080fd5b5060405162002d2f38038062002d2f83398181016040528101906200005891906200025c565b818181600090816200006b91906200052c565b5080600190816200007d91906200052c565b50505033600660006101000a81548173ffffffffffffffffffffffffffffffffffffffff021916908373ffffffffffffffffffffffffffffffffffffffff160217905550505062000613565b6000604051905090565b600080fd5b600080fd5b600080fd5b600080fd5b6000601f19601f8301169050919050565b7f4e487b7100000000000000000000000000000000000000000000000000000000600052604160045260246000fd5b6200013282620000e7565b810181811067ffffffffffffffff82111715620001545762000153620000f8565b5b80604052505050565b600062000169620000c9565b905062000177828262000127565b919050565b600067ffffffffffffffff8211156200019a5762000199620000f8565b5b620001a582620000e7565b9050602081019050919050565b60005b83811015620001d2578082015181840152602081019050620001b5565b60008484015250505050565b6000620001f5620001ef846200017c565b6200015d565b905082815260208101848484011115620002145762000213620000e2565b5b62000221848285620001b2565b509392505050565b600082601f830112620002415762000240620000dd565b5b815162000253848260208601620001de565b91505092915050565b60008060408385031215620002765762000275620000d3565b5b600083015167ffffffffffffffff811115620002975762000296620000d8565b5b620002a58582860162000229565b925050602083015167ffffffffffffffff811115620002c957620002c8620000d8565b5b620002d78582860162000229565b9150509250929050565b600081519050919050565b7f4e487b7100000000000000000000000000000000000000000000000000000000600052602260045260246000fd5b600060028204905060018216806200033457607f821691505b6020821081036200034a5762000349620002ec565b5b50919050565b60008190508160005260206000209050919050565b60006020601f8301049050919050565b600082821b905092915050565b600060088302620003b47fffffffffffffffffffffffffffffffffffffffffffffffffffffffffffffffff8262000375565b620003c0868362000375565b95508019841693508086168417925050509392505050565b6000819050919050565b6000819050919050565b60006200040d620004076200040184620003d8565b620003e2565b620003d8565b9050919050565b6000819050919050565b6200042983620003ec565b62000441620004388262000414565b84845462000382565b825550505050565b600090565b6200045862000449565b620004658184846200041e565b505050565b5b818110156200048d57620004816000826200044e565b6001810190506200046b565b5050565b601f821115620004dc57620004a68162000350565b620004b18462000365565b81016020851015620004c1578190505b620004d9620004d08562000365565b8301826200046a565b50505b505050565b600082821c905092915050565b60006200050160001984600802620004e1565b1980831691505092915050565b60006200051c8383620004ee565b9150826002028217905092915050565b6200053782620002e1565b67ffffffffffffffff811115620005535762000552620000f8565b5b6200055f82546200031b565b6200056c82828562000491565b600060209050601f831160018114620005a457600084156200058f578287015190505b6200059b85826200050e565b8655506200060b565b601f198416620005b48662000350565b60005b82811015620005de57848901518255600182019150602085019450602081019050620005b7565b86831015620005fe5784890151620005fa601f891682620004ee565b8355505b6001600288020188555050505b505050505050565b61270c80620006236000396000f3fe608060405234801561001057600080fd5b50600436106101005760003560e01c80636352211e11610097578063b88d4fde11610066578063b88d4fde14610299578063c87b56dd146102b5578063e985e9c5146102e5578063fba3c39c1461031557610100565b80636352211e146101ff57806370a082311461022f57806395d89b411461025f578063a22cb4651461027d57610100565b80631249c58b116100d35780631249c58b1461019f57806317d70f7c146101a957806323b872dd146101c757806342842e0e146101e357610100565b806301ffc9a71461010557806306fdde0314610135578063081812fc14610153578063095ea7b314610183575b600080fd5b61011f600480360381019061011a9190611897565b610333565b60405161012c91906118df565b60405180910390f35b61013d610415565b60405161014a919061198a565b60405180910390f35b61016d600480360381019061016891906119e2565b6104a7565b60405161017a9190611a50565b60405180910390f35b61019d60048036038101906101989190611a97565b6104ed565b005b6101a7610604565b005b6101b1610681565b6040516101be9190611ae6565b60405180910390f35b6101e160048036038101906101dc9190611b01565b610687565b005b6101fd60048036038101906101f89190611b01565b6106e7565b005b610219600480360381019061021491906119e2565b610707565b6040516102269190611a50565b60405180910390f35b61024960048036038101906102449190611b54565b61078d565b6040516102569190611ae6565b60405180910390f35b610267610844565b604051610274919061198a565b60405180910390f35b61029760048036038101906102929190611bad565b6108d6565b005b6102b360048036038101906102ae9190611d22565b6108ec565b005b6102cf60048036038101906102ca91906119e2565b61094e565b6040516102dc919061198a565b60405180910390f35b6102ff60048036038101906102fa9190611da5565b6109b6565b60405161030c91906118df565b60405180910390f35b61031d610a4a565b60405161032a9190611e01565b60405180910390f35b60007f80ac58cd000000000000000000000000000000000000000000000000000000007bffffffffffffffffffffffffffffffffffffffffffffffffffffffff1916827bffffffffffffffffffffffffffffffffffffffffffffffffffffffff191614806103fe57507f5b5e139f000000000000000000000000000000000000000000000000000000007bffffffffffffffffffffffffffffffffffffffffffffffffffffffff1916827bffffffffffffffffffffffffffffffffffffffffffffffffffffffff1916145b8061040e575061040d82610a5d565b5b9050919050565b60606000805461042490611e4b565b80601f016020809104026020016040519081016040528092919081815260200182805461045090611e4b565b801561049d5780601f106104725761010080835404028352916020019161049d565b820191906000526020600020905b81548152906001019060200180831161048057829003601f168201915b5050505050905090565b60006104b282610ac7565b6004600083815260200190815260200160002060009054906101000a900473ffffffffffffffffffffffffffffffffffffffff169050919050565b60006104f882610707565b90508073ffffffffffffffffffffffffffffffffffffffff168373ffffffffffffffffffffffffffffffffffffffff1603610568576040517f08c379a000000000000000000000000000000000000000000000000000000000815260040161055f90611eee565b60405180910390fd5b8073ffffffffffffffffffffffffffffffffffffffff16610587610b12565b73ffffffffffffffffffffffffffffffffffffffff1614806105b657506105b5816105b0610b12565b6109b6565b5b6105f5576040517f08c379a00000000000000000000000000000000000000000000000000000000081526004016105ec90611f80565b60405180910390fd5b6105ff8383610b1a565b505050565b600860009054906101000a900460ff1660ff16600754111561065b576040517f08c379a000000000000000000000000000000000000000000000000000000000815260040161065290611fec565b60405180910390fd5b6007600081548092919061066e9061203b565b919050555061067f33600754610bd3565b565b60075481565b610698610692610b12565b82610bf1565b6106d7576040517f08c379a00000000000000000000000000000000000000000000000000000000081526004016106ce906120f5565b60405180910390fd5b6106e2838383610c86565b505050565b610702838383604051806020016040528060008152506108ec565b505050565b60008061071383610f7f565b9050600073ffffffffffffffffffffffffffffffffffffffff168173ffffffffffffffffffffffffffffffffffffffff1603610784576040517f08c379a000000000000000000000000000000000000000000000000000000000815260040161077b90612161565b60405180910390fd5b80915050919050565b60008073ffffffffffffffffffffffffffffffffffffffff168273ffffffffffffffffffffffffffffffffffffffff16036107fd576040517f08c379a00000000000000000000000000000000000000000000000000000000081526004016107f4906121f3565b60405180910390fd5b600360008373ffffffffffffffffffffffffffffffffffffffff1673ffffffffffffffffffffffffffffffffffffffff168152602001908152602001600020549050919050565b60606001805461085390611e4b565b80601f016020809104026020016040519081016040528092919081815260200182805461087f90611e4b565b80156108cc5780601f106108a1576101008083540402835291602001916108cc565b820191906000526020600020905b8154815290600101906020018083116108af57829003601f168201915b5050505050905090565b6108e86108e1610b12565b8383610fbc565b5050565b6108fd6108f7610b12565b83610bf1565b61093c576040517f08c379a0000000000000000000000000000000000000000000000000000000008152600401610933906120f5565b60405180910390fd5b61094884848484611128565b50505050565b606061095982610ac7565b6000610963611184565b9050600081511161098357604051806020016040528060008152506109ae565b8061098d8461119b565b60405160200161099e92919061229b565b6040516020818303038152906040525b915050919050565b6000600560008473ffffffffffffffffffffffffffffffffffffffff1673ffffffffffffffffffffffffffffffffffffffff16815260200190815260200160002060008373ffffffffffffffffffffffffffffffffffffffff1673ffffffffffffffffffffffffffffffffffffffff16815260200190815260200160002060009054906101000a900460ff16905092915050565b600860009054906101000a900460ff1681565b60007f01ffc9a7000000000000000000000000000000000000000000000000000000007bffffffffffffffffffffffffffffffffffffffffffffffffffffffff1916827bffffffffffffffffffffffffffffffffffffffffffffffffffffffff1916149050919050565b610ad081611269565b610b0f576040517f08c379a0000000000000000000000000000000000000000000000000000000008152600401610b0690612161565b60405180910390fd5b50565b600033905090565b816004600083815260200190815260200160002060006101000a81548173ffffffffffffffffffffffffffffffffffffffff021916908373ffffffffffffffffffffffffffffffffffffffff160217905550808273ffffffffffffffffffffffffffffffffffffffff16610b8d83610707565b73ffffffffffffffffffffffffffffffffffffffff167f8c5be1e5ebec7d5bd14f71427d1e84f3dd0314c0f7b2291e5b200ac8c7c3b92560405160405180910390a45050565b610bed8282604051806020016040528060008152506112aa565b5050565b600080610bfd83610707565b90508073ffffffffffffffffffffffffffffffffffffffff168473ffffffffffffffffffffffffffffffffffffffff161480610c3f5750610c3e81856109b6565b5b80610c7d57508373ffffffffffffffffffffffffffffffffffffffff16610c65846104a7565b73ffffffffffffffffffffffffffffffffffffffff16145b91505092915050565b8273ffffffffffffffffffffffffffffffffffffffff16610ca682610707565b73ffffffffffffffffffffffffffffffffffffffff1614610cfc576040517f08c379a0000000000000000000000000000000000000000000000000000000008152600401610cf39061233c565b60405180910390fd5b600073ffffffffffffffffffffffffffffffffffffffff168273ffffffffffffffffffffffffffffffffffffffff1603610d6b576040517f08c379a0000000000000000000000000000000000000000000000000000000008152600401610d62906123ce565b60405180910390fd5b610d788383836001611305565b8273ffffffffffffffffffffffffffffffffffffffff16610d9882610707565b73ffffffffffffffffffffffffffffffffffffffff1614610dee576040517f08c379a0000000000000000000000000000000000000000000000000000000008152600401610de59061233c565b60405180910390fd5b6004600082815260200190815260200160002060006101000a81549073ffffffffffffffffffffffffffffffffffffffff02191690556001600360008573ffffffffffffffffffffffffffffffffffffffff1673ffffffffffffffffffffffffffffffffffffffff168152602001908152602001600020600082825403925050819055506001600360008473ffffffffffffffffffffffffffffffffffffffff1673ffffffffffffffffffffffffffffffffffffffff16815260200190815260200160002060008282540192505081905550816002600083815260200190815260200160002060006101000a81548173ffffffffffffffffffffffffffffffffffffffff021916908373ffffffffffffffffffffffffffffffffffffffff160217905550808273ffffffffffffffffffffffffffffffffffffffff168473ffffffffffffffffffffffffffffffffffffffff167fddf252ad1be2c89b69c2b068fc378daa952ba7f163c4a11628f55a4df523b3ef60405160405180910390a4610f7a838383600161130b565b505050565b60006002600083815260200190815260200160002060009054906101000a900473ffffffffffffffffffffffffffffffffffffffff169050919050565b8173ffffffffffffffffffffffffffffffffffffffff168373ffffffffffffffffffffffffffffffffffffffff160361102a576040517f08c379a00000000000000000000000000000000000000000000000000000000081526004016110219061243a565b60405180910390fd5b80600560008573ffffffffffffffffffffffffffffffffffffffff1673ffffffffffffffffffffffffffffffffffffffff16815260200190815260200160002060008473ffffffffffffffffffffffffffffffffffffffff1673ffffffffffffffffffffffffffffffffffffffff16815260200190815260200160002060006101000a81548160ff0219169083151502179055508173ffffffffffffffffffffffffffffffffffffffff168373ffffffffffffffffffffffffffffffffffffffff167f17307eab39ab6107e8899845ad3d59bd9653f200f220920489ca2b5937696c318360405161111b91906118df565b60405180910390a3505050565b611133848484610c86565b61113f84848484611311565b61117e576040517f08c379a0000000000000000000000000000000000000000000000000000000008152600401611175906124cc565b60405180910390fd5b50505050565b606060405180602001604052806000815250905090565b6060600060016111aa84611498565b01905060008167ffffffffffffffff8111156111c9576111c8611bf7565b5b6040519080825280601f01601f1916602001820160405280156111fb5781602001600182028036833780820191505090505b509050600082602001820190505b60011561125e578080600190039150507f3031323334353637383961626364656600000000000000000000000000000000600a86061a8153600a8581611252576112516124ec565b5b04945060008503611209575b819350505050919050565b60008073ffffffffffffffffffffffffffffffffffffffff1661128b83610f7f565b73ffffffffffffffffffffffffffffffffffffffff1614159050919050565b6112b483836115eb565b6112c16000848484611311565b611300576040517f08c379a00000000000000000000000000000000000000000000000000000000081526004016112f7906124cc565b60405180910390fd5b505050565b50505050565b50505050565b60006113328473ffffffffffffffffffffffffffffffffffffffff16611808565b1561148b578373ffffffffffffffffffffffffffffffffffffffff1663150b7a0261135b610b12565b8786866040518563ffffffff1660e01b815260040161137d9493929190612570565b6020604051808303816000875af19250505080156113b957506040513d601f19601f820116820180604052508101906113b691906125d1565b60015b61143b573d80600081146113e9576040519150601f19603f3d011682016040523d82523d6000602084013e6113ee565b606091505b506000815103611433576040517f08c379a000000000000000000000000000000000000000000000000000000000815260040161142a906124cc565b60405180910390fd5b805181602001fd5b63150b7a0260e01b7bffffffffffffffffffffffffffffffffffffffffffffffffffffffff1916817bffffffffffffffffffffffffffffffffffffffffffffffffffffffff191614915050611490565b600190505b949350505050565b600080600090507a184f03e93ff9f4daa797ed6e38ed64bf6a1f01000000000000000083106114f6577a184f03e93ff9f4daa797ed6e38ed64bf6a1f01000000000000000083816114ec576114eb6124ec565b5b0492506040810190505b6d04ee2d6d415b85acef81000000008310611533576d04ee2d6d415b85acef81000000008381611529576115286124ec565b5b0492506020810190505b662386f26fc10000831061156257662386f26fc100008381611558576115576124ec565b5b0492506010810190505b6305f5e100831061158b576305f5e1008381611581576115806124ec565b5b0492506008810190505b61271083106115b05761271083816115a6576115a56124ec565b5b0492506004810190505b606483106115d357606483816115c9576115c86124ec565b5b0492506002810190505b600a83106115e2576001810190505b80915050919050565b600073ffffffffffffffffffffffffffffffffffffffff168273ffffffffffffffffffffffffffffffffffffffff160361165a576040517f08c379a00000000000000000000000000000000000000000000000000000000081526004016116519061264a565b60405180910390fd5b61166381611269565b156116a3576040517f08c379a000000000000000000000000000000000000000000000000000000000815260040161169a906126b6565b60405180910390fd5b6116b1600083836001611305565b6116ba81611269565b156116fa576040517f08c379a00000000000000000000000000000000000000000000000000000000081526004016116f1906126b6565b60405180910390fd5b6001600360008473ffffffffffffffffffffffffffffffffffffffff1673ffffffffffffffffffffffffffffffffffffffff16815260200190815260200160002060008282540192505081905550816002600083815260200190815260200160002060006101000a81548173ffffffffffffffffffffffffffffffffffffffff021916908373ffffffffffffffffffffffffffffffffffffffff160217905550808273ffffffffffffffffffffffffffffffffffffffff16600073ffffffffffffffffffffffffffffffffffffffff167fddf252ad1be2c89b69c2b068fc378daa952ba7f163c4a11628f55a4df523b3ef60405160405180910390a461180460008383600161130b565b5050565b6000808273ffffffffffffffffffffffffffffffffffffffff163b119050919050565b6000604051905090565b600080fd5b600080fd5b60007fffffffff0000000000000000000000000000000000000000000000000000000082169050919050565b6118748161183f565b811461187f57600080fd5b50565b6000813590506118918161186b565b92915050565b6000602082840312156118ad576118ac611835565b5b60006118bb84828501611882565b91505092915050565b60008115159050919050565b6118d9816118c4565b82525050565b60006020820190506118f460008301846118d0565b92915050565b600081519050919050565b600082825260208201905092915050565b60005b83811015611934578082015181840152602081019050611919565b60008484015250505050565b6000601f19601f8301169050919050565b600061195c826118fa565b6119668185611905565b9350611976818560208601611916565b61197f81611940565b840191505092915050565b600060208201905081810360008301526119a48184611951565b905092915050565b6000819050919050565b6119bf816119ac565b81146119ca57600080fd5b50565b6000813590506119dc816119b6565b92915050565b6000602082840312156119f8576119f7611835565b5b6000611a06848285016119cd565b91505092915050565b600073ffffffffffffffffffffffffffffffffffffffff82169050919050565b6000611a3a82611a0f565b9050919050565b611a4a81611a2f565b82525050565b6000602082019050611a656000830184611a41565b92915050565b611a7481611a2f565b8114611a7f57600080fd5b50565b600081359050611a9181611a6b565b92915050565b60008060408385031215611aae57611aad611835565b5b6000611abc85828601611a82565b9250506020611acd858286016119cd565b9150509250929050565b611ae0816119ac565b82525050565b6000602082019050611afb6000830184611ad7565b92915050565b600080600060608486031215611b1a57611b19611835565b5b6000611b2886828701611a82565b9350506020611b3986828701611a82565b9250506040611b4a868287016119cd565b9150509250925092565b600060208284031215611b6a57611b69611835565b5b6000611b7884828501611a82565b91505092915050565b611b8a816118c4565b8114611b9557600080fd5b50565b600081359050611ba781611b81565b92915050565b60008060408385031215611bc457611bc3611835565b5b6000611bd285828601611a82565b9250506020611be385828601611b98565b9150509250929050565b600080fd5b600080fd5b7f4e487b7100000000000000000000000000000000000000000000000000000000600052604160045260246000fd5b611c2f82611940565b810181811067ffffffffffffffff82111715611c4e57611c4d611bf7565b5b80604052505050565b6000611c6161182b565b9050611c6d8282611c26565b919050565b600067ffffffffffffffff821115611c8d57611c8c611bf7565b5b611c9682611940565b9050602081019050919050565b82818337600083830152505050565b6000611cc5611cc084611c72565b611c57565b905082815260208101848484011115611ce157611ce0611bf2565b5b611cec848285611ca3565b509392505050565b600082601f830112611d0957611d08611bed565b5b8135611d19848260208601611cb2565b91505092915050565b60008060008060808587031215611d3c57611d3b611835565b5b6000611d4a87828801611a82565b9450506020611d5b87828801611a82565b9350506040611d6c878288016119cd565b925050606085013567ffffffffffffffff811115611d8d57611d8c61183a565b5b611d9987828801611cf4565b91505092959194509250565b60008060408385031215611dbc57611dbb611835565b5b6000611dca85828601611a82565b9250506020611ddb85828601611a82565b9150509250929050565b600060ff82169050919050565b611dfb81611de5565b82525050565b6000602082019050611e166000830184611df2565b92915050565b7f4e487b7100000000000000000000000000000000000000000000000000000000600052602260045260246000fd5b60006002820490506001821680611e6357607f821691505b602082108103611e7657611e75611e1c565b5b50919050565b7f4552433732313a20617070726f76616c20746f2063757272656e74206f776e6560008201527f7200000000000000000000000000000000000000000000000000000000000000602082015250565b6000611ed8602183611905565b9150611ee382611e7c565b604082019050919050565b60006020820190508181036000830152611f0781611ecb565b9050919050565b7f4552433732313a20617070726f76652063616c6c6572206973206e6f7420746f60008201527f6b656e206f776e6572206f7220617070726f76656420666f7220616c6c000000602082015250565b6000611f6a603d83611905565b9150611f7582611f0e565b604082019050919050565b60006020820190508181036000830152611f9981611f5d565b9050919050565b7f546865204e4654206861642073656c6c6f75742e000000000000000000000000600082015250565b6000611fd6601483611905565b9150611fe182611fa0565b602082019050919050565b6000602082019050818103600083015261200581611fc9565b9050919050565b7f4e487b7100000000000000000000000000000000000000000000000000000000600052601160045260246000fd5b6000612046826119ac565b91507fffffffffffffffffffffffffffffffffffffffffffffffffffffffffffffffff82036120785761207761200c565b5b600182019050919050565b7f4552433732313a2063616c6c6572206973206e6f7420746f6b656e206f776e6560008201527f72206f7220617070726f76656400000000000000000000000000000000000000602082015250565b60006120df602d83611905565b91506120ea82612083565b604082019050919050565b6000602082019050818103600083015261210e816120d2565b9050919050565b7f4552433732313a20696e76616c696420746f6b656e2049440000000000000000600082015250565b600061214b601883611905565b915061215682612115565b602082019050919050565b6000602082019050818103600083015261217a8161213e565b9050919050565b7f4552433732313a2061646472657373207a65726f206973206e6f74206120766160008201527f6c6964206f776e65720000000000000000000000000000000000000000000000602082015250565b60006121dd602983611905565b91506121e882612181565b604082019050919050565b6000602082019050818103600083015261220c816121d0565b9050919050565b600081905092915050565b6000612229826118fa565b6122338185612213565b9350612243818560208601611916565b80840191505092915050565b7f2e6a736f6e000000000000000000000000000000000000000000000000000000600082015250565b6000612285600583612213565b91506122908261224f565b600582019050919050565b60006122a7828561221e565b91506122b3828461221e565b91506122be82612278565b91508190509392505050565b7f4552433732313a207472616e736665722066726f6d20696e636f72726563742060008201527f6f776e6572000000000000000000000000000000000000000000000000000000602082015250565b6000612326602583611905565b9150612331826122ca565b604082019050919050565b6000602082019050818103600083015261235581612319565b9050919050565b7f4552433732313a207472616e7366657220746f20746865207a65726f2061646460008201527f7265737300000000000000000000000000000000000000000000000000000000602082015250565b60006123b8602483611905565b91506123c38261235c565b604082019050919050565b600060208201905081810360008301526123e7816123ab565b9050919050565b7f4552433732313a20617070726f766520746f2063616c6c657200000000000000600082015250565b6000612424601983611905565b915061242f826123ee565b602082019050919050565b6000602082019050818103600083015261245381612417565b9050919050565b7f4552433732313a207472616e7366657220746f206e6f6e20455243373231526560008201527f63656976657220696d706c656d656e7465720000000000000000000000000000602082015250565b60006124b6603283611905565b91506124c18261245a565b604082019050919050565b600060208201905081810360008301526124e5816124a9565b9050919050565b7f4e487b7100000000000000000000000000000000000000000000000000000000600052601260045260246000fd5b600081519050919050565b600082825260208201905092915050565b60006125428261251b565b61254c8185612526565b935061255c818560208601611916565b61256581611940565b840191505092915050565b60006080820190506125856000830187611a41565b6125926020830186611a41565b61259f6040830185611ad7565b81810360608301526125b18184612537565b905095945050505050565b6000815190506125cb8161186b565b92915050565b6000602082840312156125e7576125e6611835565b5b60006125f5848285016125bc565b91505092915050565b7f4552433732313a206d696e7420746f20746865207a65726f2061646472657373600082015250565b6000612634602083611905565b915061263f826125fe565b602082019050919050565b6000602082019050818103600083015261266381612627565b9050919050565b7f4552433732313a20746f6b656e20616c7265616479206d696e74656400000000600082015250565b60006126a0601c83611905565b91506126ab8261266a565b602082019050919050565b600060208201905081810360008301526126cf81612693565b905091905056fea264697066735822122085df6fbc86fdfcd213f5bbecf7c145cb4a334498034289d4a5d8c19a2724a2b364736f6c63430008110033",
			"opcodes": "PUSH1 0x80 PUSH1 0x40 MSTORE PUSH1 0x0 PUSH1 0x7 SSTORE PUSH1 0x64 PUSH1 0x8 PUSH1 0x0 PUSH2 0x100 EXP DUP2 SLOAD DUP2 PUSH1 0xFF MUL NOT AND SWAP1 DUP4 PUSH1 0xFF AND MUL OR SWAP1 SSTORE POP CALLVALUE DUP1 ISZERO PUSH3 0x32 JUMPI PUSH1 0x0 DUP1 REVERT JUMPDEST POP PUSH1 0x40 MLOAD PUSH3 0x2D2F CODESIZE SUB DUP1 PUSH3 0x2D2F DUP4 CODECOPY DUP2 DUP2 ADD PUSH1 0x40 MSTORE DUP2 ADD SWAP1 PUSH3 0x58 SWAP2 SWAP1 PUSH3 0x25C JUMP JUMPDEST DUP2 DUP2 DUP2 PUSH1 0x0 SWAP1 DUP2 PUSH3 0x6B SWAP2 SWAP1 PUSH3 0x52C JUMP JUMPDEST POP DUP1 PUSH1 0x1 SWAP1 DUP2 PUSH3 0x7D SWAP2 SWAP1 PUSH3 0x52C JUMP JUMPDEST POP POP POP CALLER PUSH1 0x6 PUSH1 0x0 PUSH2 0x100 EXP DUP2 SLOAD DUP2 PUSH20 0xFFFFFFFFFFFFFFFFFFFFFFFFFFFFFFFFFFFFFFFF MUL NOT AND SWAP1 DUP4 PUSH20 0xFFFFFFFFFFFFFFFFFFFFFFFFFFFFFFFFFFFFFFFF AND MUL OR SWAP1 SSTORE POP POP POP PUSH3 0x613 JUMP JUMPDEST PUSH1 0x0 PUSH1 0x40 MLOAD SWAP1 POP SWAP1 JUMP JUMPDEST PUSH1 0x0 DUP1 REVERT JUMPDEST PUSH1 0x0 DUP1 REVERT JUMPDEST PUSH1 0x0 DUP1 REVERT JUMPDEST PUSH1 0x0 DUP1 REVERT JUMPDEST PUSH1 0x0 PUSH1 0x1F NOT PUSH1 0x1F DUP4 ADD AND SWAP1 POP SWAP2 SWAP1 POP JUMP JUMPDEST PUSH32 0x4E487B7100000000000000000000000000000000000000000000000000000000 PUSH1 0x0 MSTORE PUSH1 0x41 PUSH1 0x4 MSTORE PUSH1 0x24 PUSH1 0x0 REVERT JUMPDEST PUSH3 0x132 DUP3 PUSH3 0xE7 JUMP JUMPDEST DUP2 ADD DUP2 DUP2 LT PUSH8 0xFFFFFFFFFFFFFFFF DUP3 GT OR ISZERO PUSH3 0x154 JUMPI PUSH3 0x153 PUSH3 0xF8 JUMP JUMPDEST JUMPDEST DUP1 PUSH1 0x40 MSTORE POP POP POP JUMP JUMPDEST PUSH1 0x0 PUSH3 0x169 PUSH3 0xC9 JUMP JUMPDEST SWAP1 POP PUSH3 0x177 DUP3 DUP3 PUSH3 0x127 JUMP JUMPDEST SWAP2 SWAP1 POP JUMP JUMPDEST PUSH1 0x0 PUSH8 0xFFFFFFFFFFFFFFFF DUP3 GT ISZERO PUSH3 0x19A JUMPI PUSH3 0x199 PUSH3 0xF8 JUMP JUMPDEST JUMPDEST PUSH3 0x1A5 DUP3 PUSH3 0xE7 JUMP JUMPDEST SWAP1 POP PUSH1 0x20 DUP2 ADD SWAP1 POP SWAP2 SWAP1 POP JUMP JUMPDEST PUSH1 0x0 JUMPDEST DUP4 DUP2 LT ISZERO PUSH3 0x1D2 JUMPI DUP1 DUP3 ADD MLOAD DUP2 DUP5 ADD MSTORE PUSH1 0x20 DUP2 ADD SWAP1 POP PUSH3 0x1B5 JUMP JUMPDEST PUSH1 0x0 DUP5 DUP5 ADD MSTORE POP POP POP POP JUMP JUMPDEST PUSH1 0x0 PUSH3 0x1F5 PUSH3 0x1EF DUP5 PUSH3 0x17C JUMP JUMPDEST PUSH3 0x15D JUMP JUMPDEST SWAP1 POP DUP3 DUP2 MSTORE PUSH1 0x20 DUP2 ADD DUP5 DUP5 DUP5 ADD GT ISZERO PUSH3 0x214 JUMPI PUSH3 0x213 PUSH3 0xE2 JUMP JUMPDEST JUMPDEST PUSH3 0x221 DUP5 DUP3 DUP6 PUSH3 0x1B2 JUMP JUMPDEST POP SWAP4 SWAP3 POP POP POP JUMP JUMPDEST PUSH1 0x0 DUP3 PUSH1 0x1F DUP4 ADD SLT PUSH3 0x241 JUMPI PUSH3 0x240 PUSH3 0xDD JUMP JUMPDEST JUMPDEST DUP2 MLOAD PUSH3 0x253 DUP5 DUP3 PUSH1 0x20 DUP7 ADD PUSH3 0x1DE JUMP JUMPDEST SWAP2 POP POP SWAP3 SWAP2 POP POP JUMP JUMPDEST PUSH1 0x0 DUP1 PUSH1 0x40 DUP4 DUP6 SUB SLT ISZERO PUSH3 0x276 JUMPI PUSH3 0x275 PUSH3 0xD3 JUMP JUMPDEST JUMPDEST PUSH1 0x0 DUP4 ADD MLOAD PUSH8 0xFFFFFFFFFFFFFFFF DUP2 GT ISZERO PUSH3 0x297 JUMPI PUSH3 0x296 PUSH3 0xD8 JUMP JUMPDEST JUMPDEST PUSH3 0x2A5 DUP6 DUP3 DUP7 ADD PUSH3 0x229 JUMP JUMPDEST SWAP3 POP POP PUSH1 0x20 DUP4 ADD MLOAD PUSH8 0xFFFFFFFFFFFFFFFF DUP2 GT ISZERO PUSH3 0x2C9 JUMPI PUSH3 0x2C8 PUSH3 0xD8 JUMP JUMPDEST JUMPDEST PUSH3 0x2D7 DUP6 DUP3 DUP7 ADD PUSH3 0x229 JUMP JUMPDEST SWAP2 POP POP SWAP3 POP SWAP3 SWAP1 POP JUMP JUMPDEST PUSH1 0x0 DUP2 MLOAD SWAP1 POP SWAP2 SWAP1 POP JUMP JUMPDEST PUSH32 0x4E487B7100000000000000000000000000000000000000000000000000000000 PUSH1 0x0 MSTORE PUSH1 0x22 PUSH1 0x4 MSTORE PUSH1 0x24 PUSH1 0x0 REVERT JUMPDEST PUSH1 0x0 PUSH1 0x2 DUP3 DIV SWAP1 POP PUSH1 0x1 DUP3 AND DUP1 PUSH3 0x334 JUMPI PUSH1 0x7F DUP3 AND SWAP2 POP JUMPDEST PUSH1 0x20 DUP3 LT DUP2 SUB PUSH3 0x34A JUMPI PUSH3 0x349 PUSH3 0x2EC JUMP JUMPDEST JUMPDEST POP SWAP2 SWAP1 POP JUMP JUMPDEST PUSH1 0x0 DUP2 SWAP1 POP DUP2 PUSH1 0x0 MSTORE PUSH1 0x20 PUSH1 0x0 KECCAK256 SWAP1 POP SWAP2 SWAP1 POP JUMP JUMPDEST PUSH1 0x0 PUSH1 0x20 PUSH1 0x1F DUP4 ADD DIV SWAP1 POP SWAP2 SWAP1 POP JUMP JUMPDEST PUSH1 0x0 DUP3 DUP3 SHL SWAP1 POP SWAP3 SWAP2 POP POP JUMP JUMPDEST PUSH1 0x0 PUSH1 0x8 DUP4 MUL PUSH3 0x3B4 PUSH32 0xFFFFFFFFFFFFFFFFFFFFFFFFFFFFFFFFFFFFFFFFFFFFFFFFFFFFFFFFFFFFFFFF DUP3 PUSH3 0x375 JUMP JUMPDEST PUSH3 0x3C0 DUP7 DUP4 PUSH3 0x375 JUMP JUMPDEST SWAP6 POP DUP1 NOT DUP5 AND SWAP4 POP DUP1 DUP7 AND DUP5 OR SWAP3 POP POP POP SWAP4 SWAP3 POP POP POP JUMP JUMPDEST PUSH1 0x0 DUP2 SWAP1 POP SWAP2 SWAP1 POP JUMP JUMPDEST PUSH1 0x0 DUP2 SWAP1 POP SWAP2 SWAP1 POP JUMP JUMPDEST PUSH1 0x0 PUSH3 0x40D PUSH3 0x407 PUSH3 0x401 DUP5 PUSH3 0x3D8 JUMP JUMPDEST PUSH3 0x3E2 JUMP JUMPDEST PUSH3 0x3D8 JUMP JUMPDEST SWAP1 POP SWAP2 SWAP1 POP JUMP JUMPDEST PUSH1 0x0 DUP2 SWAP1 POP SWAP2 SWAP1 POP JUMP JUMPDEST PUSH3 0x429 DUP4 PUSH3 0x3EC JUMP JUMPDEST PUSH3 0x441 PUSH3 0x438 DUP3 PUSH3 0x414 JUMP JUMPDEST DUP5 DUP5 SLOAD PUSH3 0x382 JUMP JUMPDEST DUP3 SSTORE POP POP POP POP JUMP JUMPDEST PUSH1 0x0 SWAP1 JUMP JUMPDEST PUSH3 0x458 PUSH3 0x449 JUMP JUMPDEST PUSH3 0x465 DUP2 DUP5 DUP5 PUSH3 0x41E JUMP JUMPDEST POP POP POP JUMP JUMPDEST JUMPDEST DUP2 DUP2 LT ISZERO PUSH3 0x48D JUMPI PUSH3 0x481 PUSH1 0x0 DUP3 PUSH3 0x44E JUMP JUMPDEST PUSH1 0x1 DUP2 ADD SWAP1 POP PUSH3 0x46B JUMP JUMPDEST POP POP JUMP JUMPDEST PUSH1 0x1F DUP3 GT ISZERO PUSH3 0x4DC JUMPI PUSH3 0x4A6 DUP2 PUSH3 0x350 JUMP JUMPDEST PUSH3 0x4B1 DUP5 PUSH3 0x365 JUMP JUMPDEST DUP2 ADD PUSH1 0x20 DUP6 LT ISZERO PUSH3 0x4C1 JUMPI DUP2 SWAP1 POP JUMPDEST PUSH3 0x4D9 PUSH3 0x4D0 DUP6 PUSH3 0x365 JUMP JUMPDEST DUP4 ADD DUP3 PUSH3 0x46A JUMP JUMPDEST POP POP JUMPDEST POP POP POP JUMP JUMPDEST PUSH1 0x0 DUP3 DUP3 SHR SWAP1 POP SWAP3 SWAP2 POP POP JUMP JUMPDEST PUSH1 0x0 PUSH3 0x501 PUSH1 0x0 NOT DUP5 PUSH1 0x8 MUL PUSH3 0x4E1 JUMP JUMPDEST NOT DUP1 DUP4 AND SWAP2 POP POP SWAP3 SWAP2 POP POP JUMP JUMPDEST PUSH1 0x0 PUSH3 0x51C DUP4 DUP4 PUSH3 0x4EE JUMP JUMPDEST SWAP2 POP DUP3 PUSH1 0x2 MUL DUP3 OR SWAP1 POP SWAP3 SWAP2 POP POP JUMP JUMPDEST PUSH3 0x537 DUP3 PUSH3 0x2E1 JUMP JUMPDEST PUSH8 0xFFFFFFFFFFFFFFFF DUP2 GT ISZERO PUSH3 0x553 JUMPI PUSH3 0x552 PUSH3 0xF8 JUMP JUMPDEST JUMPDEST PUSH3 0x55F DUP3 SLOAD PUSH3 0x31B JUMP JUMPDEST PUSH3 0x56C DUP3 DUP3 DUP6 PUSH3 0x491 JUMP JUMPDEST PUSH1 0x0 PUSH1 0x20 SWAP1 POP PUSH1 0x1F DUP4 GT PUSH1 0x1 DUP2 EQ PUSH3 0x5A4 JUMPI PUSH1 0x0 DUP5 ISZERO PUSH3 0x58F JUMPI DUP3 DUP8 ADD MLOAD SWAP1 POP JUMPDEST PUSH3 0x59B DUP6 DUP3 PUSH3 0x50E JUMP JUMPDEST DUP7 SSTORE POP PUSH3 0x60B JUMP JUMPDEST PUSH1 0x1F NOT DUP5 AND PUSH3 0x5B4 DUP7 PUSH3 0x350 JUMP JUMPDEST PUSH1 0x0 JUMPDEST DUP3 DUP2 LT ISZERO PUSH3 0x5DE JUMPI DUP5 DUP10 ADD MLOAD DUP3 SSTORE PUSH1 0x1 DUP3 ADD SWAP2 POP PUSH1 0x20 DUP6 ADD SWAP5 POP PUSH1 0x20 DUP2 ADD SWAP1 POP PUSH3 0x5B7 JUMP JUMPDEST DUP7 DUP4 LT ISZERO PUSH3 0x5FE JUMPI DUP5 DUP10 ADD MLOAD PUSH3 0x5FA PUSH1 0x1F DUP10 AND DUP3 PUSH3 0x4EE JUMP JUMPDEST DUP4 SSTORE POP JUMPDEST PUSH1 0x1 PUSH1 0x2 DUP9 MUL ADD DUP9 SSTORE POP POP POP JUMPDEST POP POP POP POP POP POP JUMP JUMPDEST PUSH2 0x270C DUP1 PUSH3 0x623 PUSH1 0x0 CODECOPY PUSH1 0x0 RETURN INVALID PUSH1 0x80 PUSH1 0x40 MSTORE CALLVALUE DUP1 ISZERO PUSH2 0x10 JUMPI PUSH1 0x0 DUP1 REVERT JUMPDEST POP PUSH1 0x4 CALLDATASIZE LT PUSH2 0x100 JUMPI PUSH1 0x0 CALLDATALOAD PUSH1 0xE0 SHR DUP1 PUSH4 0x6352211E GT PUSH2 0x97 JUMPI DUP1 PUSH4 0xB88D4FDE GT PUSH2 0x66 JUMPI DUP1 PUSH4 0xB88D4FDE EQ PUSH2 0x299 JUMPI DUP1 PUSH4 0xC87B56DD EQ PUSH2 0x2B5 JUMPI DUP1 PUSH4 0xE985E9C5 EQ PUSH2 0x2E5 JUMPI DUP1 PUSH4 0xFBA3C39C EQ PUSH2 0x315 JUMPI PUSH2 0x100 JUMP JUMPDEST DUP1 PUSH4 0x6352211E EQ PUSH2 0x1FF JUMPI DUP1 PUSH4 0x70A08231 EQ PUSH2 0x22F JUMPI DUP1 PUSH4 0x95D89B41 EQ PUSH2 0x25F JUMPI DUP1 PUSH4 0xA22CB465 EQ PUSH2 0x27D JUMPI PUSH2 0x100 JUMP JUMPDEST DUP1 PUSH4 0x1249C58B GT PUSH2 0xD3 JUMPI DUP1 PUSH4 0x1249C58B EQ PUSH2 0x19F JUMPI DUP1 PUSH4 0x17D70F7C EQ PUSH2 0x1A9 JUMPI DUP1 PUSH4 0x23B872DD EQ PUSH2 0x1C7 JUMPI DUP1 PUSH4 0x42842E0E EQ PUSH2 0x1E3 JUMPI PUSH2 0x100 JUMP JUMPDEST DUP1 PUSH4 0x1FFC9A7 EQ PUSH2 0x105 JUMPI DUP1 PUSH4 0x6FDDE03 EQ PUSH2 0x135 JUMPI DUP1 PUSH4 0x81812FC EQ PUSH2 0x153 JUMPI DUP1 PUSH4 0x95EA7B3 EQ PUSH2 0x183 JUMPI JUMPDEST PUSH1 0x0 DUP1 REVERT JUMPDEST PUSH2 0x11F PUSH1 0x4 DUP1 CALLDATASIZE SUB DUP2 ADD SWAP1 PUSH2 0x11A SWAP2 SWAP1 PUSH2 0x1897 JUMP JUMPDEST PUSH2 0x333 JUMP JUMPDEST PUSH1 0x40 MLOAD PUSH2 0x12C SWAP2 SWAP1 PUSH2 0x18DF JUMP JUMPDEST PUSH1 0x40 MLOAD DUP1 SWAP2 SUB SWAP1 RETURN JUMPDEST PUSH2 0x13D PUSH2 0x415 JUMP JUMPDEST PUSH1 0x40 MLOAD PUSH2 0x14A SWAP2 SWAP1 PUSH2 0x198A JUMP JUMPDEST PUSH1 0x40 MLOAD DUP1 SWAP2 SUB SWAP1 RETURN JUMPDEST PUSH2 0x16D PUSH1 0x4 DUP1 CALLDATASIZE SUB DUP2 ADD SWAP1 PUSH2 0x168 SWAP2 SWAP1 PUSH2 0x19E2 JUMP JUMPDEST PUSH2 0x4A7 JUMP JUMPDEST PUSH1 0x40 MLOAD PUSH2 0x17A SWAP2 SWAP1 PUSH2 0x1A50 JUMP JUMPDEST PUSH1 0x40 MLOAD DUP1 SWAP2 SUB SWAP1 RETURN JUMPDEST PUSH2 0x19D PUSH1 0x4 DUP1 CALLDATASIZE SUB DUP2 ADD SWAP1 PUSH2 0x198 SWAP2 SWAP1 PUSH2 0x1A97 JUMP JUMPDEST PUSH2 0x4ED JUMP JUMPDEST STOP JUMPDEST PUSH2 0x1A7 PUSH2 0x604 JUMP JUMPDEST STOP JUMPDEST PUSH2 0x1B1 PUSH2 0x681 JUMP JUMPDEST PUSH1 0x40 MLOAD PUSH2 0x1BE SWAP2 SWAP1 PUSH2 0x1AE6 JUMP JUMPDEST PUSH1 0x40 MLOAD DUP1 SWAP2 SUB SWAP1 RETURN JUMPDEST PUSH2 0x1E1 PUSH1 0x4 DUP1 CALLDATASIZE SUB DUP2 ADD SWAP1 PUSH2 0x1DC SWAP2 SWAP1 PUSH2 0x1B01 JUMP JUMPDEST PUSH2 0x687 JUMP JUMPDEST STOP JUMPDEST PUSH2 0x1FD PUSH1 0x4 DUP1 CALLDATASIZE SUB DUP2 ADD SWAP1 PUSH2 0x1F8 SWAP2 SWAP1 PUSH2 0x1B01 JUMP JUMPDEST PUSH2 0x6E7 JUMP JUMPDEST STOP JUMPDEST PUSH2 0x219 PUSH1 0x4 DUP1 CALLDATASIZE SUB DUP2 ADD SWAP1 PUSH2 0x214 SWAP2 SWAP1 PUSH2 0x19E2 JUMP JUMPDEST PUSH2 0x707 JUMP JUMPDEST PUSH1 0x40 MLOAD PUSH2 0x226 SWAP2 SWAP1 PUSH2 0x1A50 JUMP JUMPDEST PUSH1 0x40 MLOAD DUP1 SWAP2 SUB SWAP1 RETURN JUMPDEST PUSH2 0x249 PUSH1 0x4 DUP1 CALLDATASIZE SUB DUP2 ADD SWAP1 PUSH2 0x244 SWAP2 SWAP1 PUSH2 0x1B54 JUMP JUMPDEST PUSH2 0x78D JUMP JUMPDEST PUSH1 0x40 MLOAD PUSH2 0x256 SWAP2 SWAP1 PUSH2 0x1AE6 JUMP JUMPDEST PUSH1 0x40 MLOAD DUP1 SWAP2 SUB SWAP1 RETURN JUMPDEST PUSH2 0x267 PUSH2 0x844 JUMP JUMPDEST PUSH1 0x40 MLOAD PUSH2 0x274 SWAP2 SWAP1 PUSH2 0x198A JUMP JUMPDEST PUSH1 0x40 MLOAD DUP1 SWAP2 SUB SWAP1 RETURN JUMPDEST PUSH2 0x297 PUSH1 0x4 DUP1 CALLDATASIZE SUB DUP2 ADD SWAP1 PUSH2 0x292 SWAP2 SWAP1 PUSH2 0x1BAD JUMP JUMPDEST PUSH2 0x8D6 JUMP JUMPDEST STOP JUMPDEST PUSH2 0x2B3 PUSH1 0x4 DUP1 CALLDATASIZE SUB DUP2 ADD SWAP1 PUSH2 0x2AE SWAP2 SWAP1 PUSH2 0x1D22 JUMP JUMPDEST PUSH2 0x8EC JUMP JUMPDEST STOP JUMPDEST PUSH2 0x2CF PUSH1 0x4 DUP1 CALLDATASIZE SUB DUP2 ADD SWAP1 PUSH2 0x2CA SWAP2 SWAP1 PUSH2 0x19E2 JUMP JUMPDEST PUSH2 0x94E JUMP JUMPDEST PUSH1 0x40 MLOAD PUSH2 0x2DC SWAP2 SWAP1 PUSH2 0x198A JUMP JUMPDEST PUSH1 0x40 MLOAD DUP1 SWAP2 SUB SWAP1 RETURN JUMPDEST PUSH2 0x2FF PUSH1 0x4 DUP1 CALLDATASIZE SUB DUP2 ADD SWAP1 PUSH2 0x2FA SWAP2 SWAP1 PUSH2 0x1DA5 JUMP JUMPDEST PUSH2 0x9B6 JUMP JUMPDEST PUSH1 0x40 MLOAD PUSH2 0x30C SWAP2 SWAP1 PUSH2 0x18DF JUMP JUMPDEST PUSH1 0x40 MLOAD DUP1 SWAP2 SUB SWAP1 RETURN JUMPDEST PUSH2 0x31D PUSH2 0xA4A JUMP JUMPDEST PUSH1 0x40 MLOAD PUSH2 0x32A SWAP2 SWAP1 PUSH2 0x1E01 JUMP JUMPDEST PUSH1 0x40 MLOAD DUP1 SWAP2 SUB SWAP1 RETURN JUMPDEST PUSH1 0x0 PUSH32 0x80AC58CD00000000000000000000000000000000000000000000000000000000 PUSH28 0xFFFFFFFFFFFFFFFFFFFFFFFFFFFFFFFFFFFFFFFFFFFFFFFFFFFFFFFF NOT AND DUP3 PUSH28 0xFFFFFFFFFFFFFFFFFFFFFFFFFFFFFFFFFFFFFFFFFFFFFFFFFFFFFFFF NOT AND EQ DUP1 PUSH2 0x3FE JUMPI POP PUSH32 0x5B5E139F00000000000000000000000000000000000000000000000000000000 PUSH28 0xFFFFFFFFFFFFFFFFFFFFFFFFFFFFFFFFFFFFFFFFFFFFFFFFFFFFFFFF NOT AND DUP3 PUSH28 0xFFFFFFFFFFFFFFFFFFFFFFFFFFFFFFFFFFFFFFFFFFFFFFFFFFFFFFFF NOT AND EQ JUMPDEST DUP1 PUSH2 0x40E JUMPI POP PUSH2 0x40D DUP3 PUSH2 0xA5D JUMP JUMPDEST JUMPDEST SWAP1 POP SWAP2 SWAP1 POP JUMP JUMPDEST PUSH1 0x60 PUSH1 0x0 DUP1 SLOAD PUSH2 0x424 SWAP1 PUSH2 0x1E4B JUMP JUMPDEST DUP1 PUSH1 0x1F ADD PUSH1 0x20 DUP1 SWAP2 DIV MUL PUSH1 0x20 ADD PUSH1 0x40 MLOAD SWAP1 DUP2 ADD PUSH1 0x40 MSTORE DUP1 SWAP3 SWAP2 SWAP1 DUP2 DUP2 MSTORE PUSH1 0x20 ADD DUP3 DUP1 SLOAD PUSH2 0x450 SWAP1 PUSH2 0x1E4B JUMP JUMPDEST DUP1 ISZERO PUSH2 0x49D JUMPI DUP1 PUSH1 0x1F LT PUSH2 0x472 JUMPI PUSH2 0x100 DUP1 DUP4 SLOAD DIV MUL DUP4 MSTORE SWAP2 PUSH1 0x20 ADD SWAP2 PUSH2 0x49D JUMP JUMPDEST DUP3 ADD SWAP2 SWAP1 PUSH1 0x0 MSTORE PUSH1 0x20 PUSH1 0x0 KECCAK256 SWAP1 JUMPDEST DUP2 SLOAD DUP2 MSTORE SWAP1 PUSH1 0x1 ADD SWAP1 PUSH1 0x20 ADD DUP1 DUP4 GT PUSH2 0x480 JUMPI DUP3 SWAP1 SUB PUSH1 0x1F AND DUP3 ADD SWAP2 JUMPDEST POP POP POP POP POP SWAP1 POP SWAP1 JUMP JUMPDEST PUSH1 0x0 PUSH2 0x4B2 DUP3 PUSH2 0xAC7 JUMP JUMPDEST PUSH1 0x4 PUSH1 0x0 DUP4 DUP2 MSTORE PUSH1 0x20 ADD SWAP1 DUP2 MSTORE PUSH1 0x20 ADD PUSH1 0x0 KECCAK256 PUSH1 0x0 SWAP1 SLOAD SWAP1 PUSH2 0x100 EXP SWAP1 DIV PUSH20 0xFFFFFFFFFFFFFFFFFFFFFFFFFFFFFFFFFFFFFFFF AND SWAP1 POP SWAP2 SWAP1 POP JUMP JUMPDEST PUSH1 0x0 PUSH2 0x4F8 DUP3 PUSH2 0x707 JUMP JUMPDEST SWAP1 POP DUP1 PUSH20 0xFFFFFFFFFFFFFFFFFFFFFFFFFFFFFFFFFFFFFFFF AND DUP4 PUSH20 0xFFFFFFFFFFFFFFFFFFFFFFFFFFFFFFFFFFFFFFFF AND SUB PUSH2 0x568 JUMPI PUSH1 0x40 MLOAD PUSH32 0x8C379A000000000000000000000000000000000000000000000000000000000 DUP2 MSTORE PUSH1 0x4 ADD PUSH2 0x55F SWAP1 PUSH2 0x1EEE JUMP JUMPDEST PUSH1 0x40 MLOAD DUP1 SWAP2 SUB SWAP1 REVERT JUMPDEST DUP1 PUSH20 0xFFFFFFFFFFFFFFFFFFFFFFFFFFFFFFFFFFFFFFFF AND PUSH2 0x587 PUSH2 0xB12 JUMP JUMPDEST PUSH20 0xFFFFFFFFFFFFFFFFFFFFFFFFFFFFFFFFFFFFFFFF AND EQ DUP1 PUSH2 0x5B6 JUMPI POP PUSH2 0x5B5 DUP2 PUSH2 0x5B0 PUSH2 0xB12 JUMP JUMPDEST PUSH2 0x9B6 JUMP JUMPDEST JUMPDEST PUSH2 0x5F5 JUMPI PUSH1 0x40 MLOAD PUSH32 0x8C379A000000000000000000000000000000000000000000000000000000000 DUP2 MSTORE PUSH1 0x4 ADD PUSH2 0x5EC SWAP1 PUSH2 0x1F80 JUMP JUMPDEST PUSH1 0x40 MLOAD DUP1 SWAP2 SUB SWAP1 REVERT JUMPDEST PUSH2 0x5FF DUP4 DUP4 PUSH2 0xB1A JUMP JUMPDEST POP POP POP JUMP JUMPDEST PUSH1 0x8 PUSH1 0x0 SWAP1 SLOAD SWAP1 PUSH2 0x100 EXP SWAP1 DIV PUSH1 0xFF AND PUSH1 0xFF AND PUSH1 0x7 SLOAD GT ISZERO PUSH2 0x65B JUMPI PUSH1 0x40 MLOAD PUSH32 0x8C379A000000000000000000000000000000000000000000000000000000000 DUP2 MSTORE PUSH1 0x4 ADD PUSH2 0x652 SWAP1 PUSH2 0x1FEC JUMP JUMPDEST PUSH1 0x40 MLOAD DUP1 SWAP2 SUB SWAP1 REVERT JUMPDEST PUSH1 0x7 PUSH1 0x0 DUP2 SLOAD DUP1 SWAP3 SWAP2 SWAP1 PUSH2 0x66E SWAP1 PUSH2 0x203B JUMP JUMPDEST SWAP2 SWAP1 POP SSTORE POP PUSH2 0x67F CALLER PUSH1 0x7 SLOAD PUSH2 0xBD3 JUMP JUMPDEST JUMP JUMPDEST PUSH1 0x7 SLOAD DUP2 JUMP JUMPDEST PUSH2 0x698 PUSH2 0x692 PUSH2 0xB12 JUMP JUMPDEST DUP3 PUSH2 0xBF1 JUMP JUMPDEST PUSH2 0x6D7 JUMPI PUSH1 0x40 MLOAD PUSH32 0x8C379A000000000000000000000000000000000000000000000000000000000 DUP2 MSTORE PUSH1 0x4 ADD PUSH2 0x6CE SWAP1 PUSH2 0x20F5 JUMP JUMPDEST PUSH1 0x40 MLOAD DUP1 SWAP2 SUB SWAP1 REVERT JUMPDEST PUSH2 0x6E2 DUP4 DUP4 DUP4 PUSH2 0xC86 JUMP JUMPDEST POP POP POP JUMP JUMPDEST PUSH2 0x702 DUP4 DUP4 DUP4 PUSH1 0x40 MLOAD DUP1 PUSH1 0x20 ADD PUSH1 0x40 MSTORE DUP1 PUSH1 0x0 DUP2 MSTORE POP PUSH2 0x8EC JUMP JUMPDEST POP POP POP JUMP JUMPDEST PUSH1 0x0 DUP1 PUSH2 0x713 DUP4 PUSH2 0xF7F JUMP JUMPDEST SWAP1 POP PUSH1 0x0 PUSH20 0xFFFFFFFFFFFFFFFFFFFFFFFFFFFFFFFFFFFFFFFF AND DUP2 PUSH20 0xFFFFFFFFFFFFFFFFFFFFFFFFFFFFFFFFFFFFFFFF AND SUB PUSH2 0x784 JUMPI PUSH1 0x40 MLOAD PUSH32 0x8C379A000000000000000000000000000000000000000000000000000000000 DUP2 MSTORE PUSH1 0x4 ADD PUSH2 0x77B SWAP1 PUSH2 0x2161 JUMP JUMPDEST PUSH1 0x40 MLOAD DUP1 SWAP2 SUB SWAP1 REVERT JUMPDEST DUP1 SWAP2 POP POP SWAP2 SWAP1 POP JUMP JUMPDEST PUSH1 0x0 DUP1 PUSH20 0xFFFFFFFFFFFFFFFFFFFFFFFFFFFFFFFFFFFFFFFF AND DUP3 PUSH20 0xFFFFFFFFFFFFFFFFFFFFFFFFFFFFFFFFFFFFFFFF AND SUB PUSH2 0x7FD JUMPI PUSH1 0x40 MLOAD PUSH32 0x8C379A000000000000000000000000000000000000000000000000000000000 DUP2 MSTORE PUSH1 0x4 ADD PUSH2 0x7F4 SWAP1 PUSH2 0x21F3 JUMP JUMPDEST PUSH1 0x40 MLOAD DUP1 SWAP2 SUB SWAP1 REVERT JUMPDEST PUSH1 0x3 PUSH1 0x0 DUP4 PUSH20 0xFFFFFFFFFFFFFFFFFFFFFFFFFFFFFFFFFFFFFFFF AND PUSH20 0xFFFFFFFFFFFFFFFFFFFFFFFFFFFFFFFFFFFFFFFF AND DUP2 MSTORE PUSH1 0x20 ADD SWAP1 DUP2 MSTORE PUSH1 0x20 ADD PUSH1 0x0 KECCAK256 SLOAD SWAP1 POP SWAP2 SWAP1 POP JUMP JUMPDEST PUSH1 0x60 PUSH1 0x1 DUP1 SLOAD PUSH2 0x853 SWAP1 PUSH2 0x1E4B JUMP JUMPDEST DUP1 PUSH1 0x1F ADD PUSH1 0x20 DUP1 SWAP2 DIV MUL PUSH1 0x20 ADD PUSH1 0x40 MLOAD SWAP1 DUP2 ADD PUSH1 0x40 MSTORE DUP1 SWAP3 SWAP2 SWAP1 DUP2 DUP2 MSTORE PUSH1 0x20 ADD DUP3 DUP1 SLOAD PUSH2 0x87F SWAP1 PUSH2 0x1E4B JUMP JUMPDEST DUP1 ISZERO PUSH2 0x8CC JUMPI DUP1 PUSH1 0x1F LT PUSH2 0x8A1 JUMPI PUSH2 0x100 DUP1 DUP4 SLOAD DIV MUL DUP4 MSTORE SWAP2 PUSH1 0x20 ADD SWAP2 PUSH2 0x8CC JUMP JUMPDEST DUP3 ADD SWAP2 SWAP1 PUSH1 0x0 MSTORE PUSH1 0x20 PUSH1 0x0 KECCAK256 SWAP1 JUMPDEST DUP2 SLOAD DUP2 MSTORE SWAP1 PUSH1 0x1 ADD SWAP1 PUSH1 0x20 ADD DUP1 DUP4 GT PUSH2 0x8AF JUMPI DUP3 SWAP1 SUB PUSH1 0x1F AND DUP3 ADD SWAP2 JUMPDEST POP POP POP POP POP SWAP1 POP SWAP1 JUMP JUMPDEST PUSH2 0x8E8 PUSH2 0x8E1 PUSH2 0xB12 JUMP JUMPDEST DUP4 DUP4 PUSH2 0xFBC JUMP JUMPDEST POP POP JUMP JUMPDEST PUSH2 0x8FD PUSH2 0x8F7 PUSH2 0xB12 JUMP JUMPDEST DUP4 PUSH2 0xBF1 JUMP JUMPDEST PUSH2 0x93C JUMPI PUSH1 0x40 MLOAD PUSH32 0x8C379A000000000000000000000000000000000000000000000000000000000 DUP2 MSTORE PUSH1 0x4 ADD PUSH2 0x933 SWAP1 PUSH2 0x20F5 JUMP JUMPDEST PUSH1 0x40 MLOAD DUP1 SWAP2 SUB SWAP1 REVERT JUMPDEST PUSH2 0x948 DUP5 DUP5 DUP5 DUP5 PUSH2 0x1128 JUMP JUMPDEST POP POP POP POP JUMP JUMPDEST PUSH1 0x60 PUSH2 0x959 DUP3 PUSH2 0xAC7 JUMP JUMPDEST PUSH1 0x0 PUSH2 0x963 PUSH2 0x1184 JUMP JUMPDEST SWAP1 POP PUSH1 0x0 DUP2 MLOAD GT PUSH2 0x983 JUMPI PUSH1 0x40 MLOAD DUP1 PUSH1 0x20 ADD PUSH1 0x40 MSTORE DUP1 PUSH1 0x0 DUP2 MSTORE POP PUSH2 0x9AE JUMP JUMPDEST DUP1 PUSH2 0x98D DUP5 PUSH2 0x119B JUMP JUMPDEST PUSH1 0x40 MLOAD PUSH1 0x20 ADD PUSH2 0x99E SWAP3 SWAP2 SWAP1 PUSH2 0x229B JUMP JUMPDEST PUSH1 0x40 MLOAD PUSH1 0x20 DUP2 DUP4 SUB SUB DUP2 MSTORE SWAP1 PUSH1 0x40 MSTORE JUMPDEST SWAP2 POP POP SWAP2 SWAP1 POP JUMP JUMPDEST PUSH1 0x0 PUSH1 0x5 PUSH1 0x0 DUP5 PUSH20 0xFFFFFFFFFFFFFFFFFFFFFFFFFFFFFFFFFFFFFFFF AND PUSH20 0xFFFFFFFFFFFFFFFFFFFFFFFFFFFFFFFFFFFFFFFF AND DUP2 MSTORE PUSH1 0x20 ADD SWAP1 DUP2 MSTORE PUSH1 0x20 ADD PUSH1 0x0 KECCAK256 PUSH1 0x0 DUP4 PUSH20 0xFFFFFFFFFFFFFFFFFFFFFFFFFFFFFFFFFFFFFFFF AND PUSH20 0xFFFFFFFFFFFFFFFFFFFFFFFFFFFFFFFFFFFFFFFF AND DUP2 MSTORE PUSH1 0x20 ADD SWAP1 DUP2 MSTORE PUSH1 0x20 ADD PUSH1 0x0 KECCAK256 PUSH1 0x0 SWAP1 SLOAD SWAP1 PUSH2 0x100 EXP SWAP1 DIV PUSH1 0xFF AND SWAP1 POP SWAP3 SWAP2 POP POP JUMP JUMPDEST PUSH1 0x8 PUSH1 0x0 SWAP1 SLOAD SWAP1 PUSH2 0x100 EXP SWAP1 DIV PUSH1 0xFF AND DUP2 JUMP JUMPDEST PUSH1 0x0 PUSH32 0x1FFC9A700000000000000000000000000000000000000000000000000000000 PUSH28 0xFFFFFFFFFFFFFFFFFFFFFFFFFFFFFFFFFFFFFFFFFFFFFFFFFFFFFFFF NOT AND DUP3 PUSH28 0xFFFFFFFFFFFFFFFFFFFFFFFFFFFFFFFFFFFFFFFFFFFFFFFFFFFFFFFF NOT AND EQ SWAP1 POP SWAP2 SWAP1 POP JUMP JUMPDEST PUSH2 0xAD0 DUP2 PUSH2 0x1269 JUMP JUMPDEST PUSH2 0xB0F JUMPI PUSH1 0x40 MLOAD PUSH32 0x8C379A000000000000000000000000000000000000000000000000000000000 DUP2 MSTORE PUSH1 0x4 ADD PUSH2 0xB06 SWAP1 PUSH2 0x2161 JUMP JUMPDEST PUSH1 0x40 MLOAD DUP1 SWAP2 SUB SWAP1 REVERT JUMPDEST POP JUMP JUMPDEST PUSH1 0x0 CALLER SWAP1 POP SWAP1 JUMP JUMPDEST DUP2 PUSH1 0x4 PUSH1 0x0 DUP4 DUP2 MSTORE PUSH1 0x20 ADD SWAP1 DUP2 MSTORE PUSH1 0x20 ADD PUSH1 0x0 KECCAK256 PUSH1 0x0 PUSH2 0x100 EXP DUP2 SLOAD DUP2 PUSH20 0xFFFFFFFFFFFFFFFFFFFFFFFFFFFFFFFFFFFFFFFF MUL NOT AND SWAP1 DUP4 PUSH20 0xFFFFFFFFFFFFFFFFFFFFFFFFFFFFFFFFFFFFFFFF AND MUL OR SWAP1 SSTORE POP DUP1 DUP3 PUSH20 0xFFFFFFFFFFFFFFFFFFFFFFFFFFFFFFFFFFFFFFFF AND PUSH2 0xB8D DUP4 PUSH2 0x707 JUMP JUMPDEST PUSH20 0xFFFFFFFFFFFFFFFFFFFFFFFFFFFFFFFFFFFFFFFF AND PUSH32 0x8C5BE1E5EBEC7D5BD14F71427D1E84F3DD0314C0F7B2291E5B200AC8C7C3B925 PUSH1 0x40 MLOAD PUSH1 0x40 MLOAD DUP1 SWAP2 SUB SWAP1 LOG4 POP POP JUMP JUMPDEST PUSH2 0xBED DUP3 DUP3 PUSH1 0x40 MLOAD DUP1 PUSH1 0x20 ADD PUSH1 0x40 MSTORE DUP1 PUSH1 0x0 DUP2 MSTORE POP PUSH2 0x12AA JUMP JUMPDEST POP POP JUMP JUMPDEST PUSH1 0x0 DUP1 PUSH2 0xBFD DUP4 PUSH2 0x707 JUMP JUMPDEST SWAP1 POP DUP1 PUSH20 0xFFFFFFFFFFFFFFFFFFFFFFFFFFFFFFFFFFFFFFFF AND DUP5 PUSH20 0xFFFFFFFFFFFFFFFFFFFFFFFFFFFFFFFFFFFFFFFF AND EQ DUP1 PUSH2 0xC3F JUMPI POP PUSH2 0xC3E DUP2 DUP6 PUSH2 0x9B6 JUMP JUMPDEST JUMPDEST DUP1 PUSH2 0xC7D JUMPI POP DUP4 PUSH20 0xFFFFFFFFFFFFFFFFFFFFFFFFFFFFFFFFFFFFFFFF AND PUSH2 0xC65 DUP5 PUSH2 0x4A7 JUMP JUMPDEST PUSH20 0xFFFFFFFFFFFFFFFFFFFFFFFFFFFFFFFFFFFFFFFF AND EQ JUMPDEST SWAP2 POP POP SWAP3 SWAP2 POP POP JUMP JUMPDEST DUP3 PUSH20 0xFFFFFFFFFFFFFFFFFFFFFFFFFFFFFFFFFFFFFFFF AND PUSH2 0xCA6 DUP3 PUSH2 0x707 JUMP JUMPDEST PUSH20 0xFFFFFFFFFFFFFFFFFFFFFFFFFFFFFFFFFFFFFFFF AND EQ PUSH2 0xCFC JUMPI PUSH1 0x40 MLOAD PUSH32 0x8C379A000000000000000000000000000000000000000000000000000000000 DUP2 MSTORE PUSH1 0x4 ADD PUSH2 0xCF3 SWAP1 PUSH2 0x233C JUMP JUMPDEST PUSH1 0x40 MLOAD DUP1 SWAP2 SUB SWAP1 REVERT JUMPDEST PUSH1 0x0 PUSH20 0xFFFFFFFFFFFFFFFFFFFFFFFFFFFFFFFFFFFFFFFF AND DUP3 PUSH20 0xFFFFFFFFFFFFFFFFFFFFFFFFFFFFFFFFFFFFFFFF AND SUB PUSH2 0xD6B JUMPI PUSH1 0x40 MLOAD PUSH32 0x8C379A000000000000000000000000000000000000000000000000000000000 DUP2 MSTORE PUSH1 0x4 ADD PUSH2 0xD62 SWAP1 PUSH2 0x23CE JUMP JUMPDEST PUSH1 0x40 MLOAD DUP1 SWAP2 SUB SWAP1 REVERT JUMPDEST PUSH2 0xD78 DUP4 DUP4 DUP4 PUSH1 0x1 PUSH2 0x1305 JUMP JUMPDEST DUP3 PUSH20 0xFFFFFFFFFFFFFFFFFFFFFFFFFFFFFFFFFFFFFFFF AND PUSH2 0xD98 DUP3 PUSH2 0x707 JUMP JUMPDEST PUSH20 0xFFFFFFFFFFFFFFFFFFFFFFFFFFFFFFFFFFFFFFFF AND EQ PUSH2 0xDEE JUMPI PUSH1 0x40 MLOAD PUSH32 0x8C379A000000000000000000000000000000000000000000000000000000000 DUP2 MSTORE PUSH1 0x4 ADD PUSH2 0xDE5 SWAP1 PUSH2 0x233C JUMP JUMPDEST PUSH1 0x40 MLOAD DUP1 SWAP2 SUB SWAP1 REVERT JUMPDEST PUSH1 0x4 PUSH1 0x0 DUP3 DUP2 MSTORE PUSH1 0x20 ADD SWAP1 DUP2 MSTORE PUSH1 0x20 ADD PUSH1 0x0 KECCAK256 PUSH1 0x0 PUSH2 0x100 EXP DUP2 SLOAD SWAP1 PUSH20 0xFFFFFFFFFFFFFFFFFFFFFFFFFFFFFFFFFFFFFFFF MUL NOT AND SWAP1 SSTORE PUSH1 0x1 PUSH1 0x3 PUSH1 0x0 DUP6 PUSH20 0xFFFFFFFFFFFFFFFFFFFFFFFFFFFFFFFFFFFFFFFF AND PUSH20 0xFFFFFFFFFFFFFFFFFFFFFFFFFFFFFFFFFFFFFFFF AND DUP2 MSTORE PUSH1 0x20 ADD SWAP1 DUP2 MSTORE PUSH1 0x20 ADD PUSH1 0x0 KECCAK256 PUSH1 0x0 DUP3 DUP3 SLOAD SUB SWAP3 POP POP DUP2 SWAP1 SSTORE POP PUSH1 0x1 PUSH1 0x3 PUSH1 0x0 DUP5 PUSH20 0xFFFFFFFFFFFFFFFFFFFFFFFFFFFFFFFFFFFFFFFF AND PUSH20 0xFFFFFFFFFFFFFFFFFFFFFFFFFFFFFFFFFFFFFFFF AND DUP2 MSTORE PUSH1 0x20 ADD SWAP1 DUP2 MSTORE PUSH1 0x20 ADD PUSH1 0x0 KECCAK256 PUSH1 0x0 DUP3 DUP3 SLOAD ADD SWAP3 POP POP DUP2 SWAP1 SSTORE POP DUP2 PUSH1 0x2 PUSH1 0x0 DUP4 DUP2 MSTORE PUSH1 0x20 ADD SWAP1 DUP2 MSTORE PUSH1 0x20 ADD PUSH1 0x0 KECCAK256 PUSH1 0x0 PUSH2 0x100 EXP DUP2 SLOAD DUP2 PUSH20 0xFFFFFFFFFFFFFFFFFFFFFFFFFFFFFFFFFFFFFFFF MUL NOT AND SWAP1 DUP4 PUSH20 0xFFFFFFFFFFFFFFFFFFFFFFFFFFFFFFFFFFFFFFFF AND MUL OR SWAP1 SSTORE POP DUP1 DUP3 PUSH20 0xFFFFFFFFFFFFFFFFFFFFFFFFFFFFFFFFFFFFFFFF AND DUP5 PUSH20 0xFFFFFFFFFFFFFFFFFFFFFFFFFFFFFFFFFFFFFFFF AND PUSH32 0xDDF252AD1BE2C89B69C2B068FC378DAA952BA7F163C4A11628F55A4DF523B3EF PUSH1 0x40 MLOAD PUSH1 0x40 MLOAD DUP1 SWAP2 SUB SWAP1 LOG4 PUSH2 0xF7A DUP4 DUP4 DUP4 PUSH1 0x1 PUSH2 0x130B JUMP JUMPDEST POP POP POP JUMP JUMPDEST PUSH1 0x0 PUSH1 0x2 PUSH1 0x0 DUP4 DUP2 MSTORE PUSH1 0x20 ADD SWAP1 DUP2 MSTORE PUSH1 0x20 ADD PUSH1 0x0 KECCAK256 PUSH1 0x0 SWAP1 SLOAD SWAP1 PUSH2 0x100 EXP SWAP1 DIV PUSH20 0xFFFFFFFFFFFFFFFFFFFFFFFFFFFFFFFFFFFFFFFF AND SWAP1 POP SWAP2 SWAP1 POP JUMP JUMPDEST DUP2 PUSH20 0xFFFFFFFFFFFFFFFFFFFFFFFFFFFFFFFFFFFFFFFF AND DUP4 PUSH20 0xFFFFFFFFFFFFFFFFFFFFFFFFFFFFFFFFFFFFFFFF AND SUB PUSH2 0x102A JUMPI PUSH1 0x40 MLOAD PUSH32 0x8C379A000000000000000000000000000000000000000000000000000000000 DUP2 MSTORE PUSH1 0x4 ADD PUSH2 0x1021 SWAP1 PUSH2 0x243A JUMP JUMPDEST PUSH1 0x40 MLOAD DUP1 SWAP2 SUB SWAP1 REVERT JUMPDEST DUP1 PUSH1 0x5 PUSH1 0x0 DUP6 PUSH20 0xFFFFFFFFFFFFFFFFFFFFFFFFFFFFFFFFFFFFFFFF AND PUSH20 0xFFFFFFFFFFFFFFFFFFFFFFFFFFFFFFFFFFFFFFFF AND DUP2 MSTORE PUSH1 0x20 ADD SWAP1 DUP2 MSTORE PUSH1 0x20 ADD PUSH1 0x0 KECCAK256 PUSH1 0x0 DUP5 PUSH20 0xFFFFFFFFFFFFFFFFFFFFFFFFFFFFFFFFFFFFFFFF AND PUSH20 0xFFFFFFFFFFFFFFFFFFFFFFFFFFFFFFFFFFFFFFFF AND DUP2 MSTORE PUSH1 0x20 ADD SWAP1 DUP2 MSTORE PUSH1 0x20 ADD PUSH1 0x0 KECCAK256 PUSH1 0x0 PUSH2 0x100 EXP DUP2 SLOAD DUP2 PUSH1 0xFF MUL NOT AND SWAP1 DUP4 ISZERO ISZERO MUL OR SWAP1 SSTORE POP DUP2 PUSH20 0xFFFFFFFFFFFFFFFFFFFFFFFFFFFFFFFFFFFFFFFF AND DUP4 PUSH20 0xFFFFFFFFFFFFFFFFFFFFFFFFFFFFFFFFFFFFFFFF AND PUSH32 0x17307EAB39AB6107E8899845AD3D59BD9653F200F220920489CA2B5937696C31 DUP4 PUSH1 0x40 MLOAD PUSH2 0x111B SWAP2 SWAP1 PUSH2 0x18DF JUMP JUMPDEST PUSH1 0x40 MLOAD DUP1 SWAP2 SUB SWAP1 LOG3 POP POP POP JUMP JUMPDEST PUSH2 0x1133 DUP5 DUP5 DUP5 PUSH2 0xC86 JUMP JUMPDEST PUSH2 0x113F DUP5 DUP5 DUP5 DUP5 PUSH2 0x1311 JUMP JUMPDEST PUSH2 0x117E JUMPI PUSH1 0x40 MLOAD PUSH32 0x8C379A000000000000000000000000000000000000000000000000000000000 DUP2 MSTORE PUSH1 0x4 ADD PUSH2 0x1175 SWAP1 PUSH2 0x24CC JUMP JUMPDEST PUSH1 0x40 MLOAD DUP1 SWAP2 SUB SWAP1 REVERT JUMPDEST POP POP POP POP JUMP JUMPDEST PUSH1 0x60 PUSH1 0x40 MLOAD DUP1 PUSH1 0x20 ADD PUSH1 0x40 MSTORE DUP1 PUSH1 0x0 DUP2 MSTORE POP SWAP1 POP SWAP1 JUMP JUMPDEST PUSH1 0x60 PUSH1 0x0 PUSH1 0x1 PUSH2 0x11AA DUP5 PUSH2 0x1498 JUMP JUMPDEST ADD SWAP1 POP PUSH1 0x0 DUP2 PUSH8 0xFFFFFFFFFFFFFFFF DUP2 GT ISZERO PUSH2 0x11C9 JUMPI PUSH2 0x11C8 PUSH2 0x1BF7 JUMP JUMPDEST JUMPDEST PUSH1 0x40 MLOAD SWAP1 DUP1 DUP3 MSTORE DUP1 PUSH1 0x1F ADD PUSH1 0x1F NOT AND PUSH1 0x20 ADD DUP3 ADD PUSH1 0x40 MSTORE DUP1 ISZERO PUSH2 0x11FB JUMPI DUP2 PUSH1 0x20 ADD PUSH1 0x1 DUP3 MUL DUP1 CALLDATASIZE DUP4 CALLDATACOPY DUP1 DUP3 ADD SWAP2 POP POP SWAP1 POP JUMPDEST POP SWAP1 POP PUSH1 0x0 DUP3 PUSH1 0x20 ADD DUP3 ADD SWAP1 POP JUMPDEST PUSH1 0x1 ISZERO PUSH2 0x125E JUMPI DUP1 DUP1 PUSH1 0x1 SWAP1 SUB SWAP2 POP POP PUSH32 0x3031323334353637383961626364656600000000000000000000000000000000 PUSH1 0xA DUP7 MOD BYTE DUP2 MSTORE8 PUSH1 0xA DUP6 DUP2 PUSH2 0x1252 JUMPI PUSH2 0x1251 PUSH2 0x24EC JUMP JUMPDEST JUMPDEST DIV SWAP5 POP PUSH1 0x0 DUP6 SUB PUSH2 0x1209 JUMPI JUMPDEST DUP2 SWAP4 POP POP POP POP SWAP2 SWAP1 POP JUMP JUMPDEST PUSH1 0x0 DUP1 PUSH20 0xFFFFFFFFFFFFFFFFFFFFFFFFFFFFFFFFFFFFFFFF AND PUSH2 0x128B DUP4 PUSH2 0xF7F JUMP JUMPDEST PUSH20 0xFFFFFFFFFFFFFFFFFFFFFFFFFFFFFFFFFFFFFFFF AND EQ ISZERO SWAP1 POP SWAP2 SWAP1 POP JUMP JUMPDEST PUSH2 0x12B4 DUP4 DUP4 PUSH2 0x15EB JUMP JUMPDEST PUSH2 0x12C1 PUSH1 0x0 DUP5 DUP5 DUP5 PUSH2 0x1311 JUMP JUMPDEST PUSH2 0x1300 JUMPI PUSH1 0x40 MLOAD PUSH32 0x8C379A000000000000000000000000000000000000000000000000000000000 DUP2 MSTORE PUSH1 0x4 ADD PUSH2 0x12F7 SWAP1 PUSH2 0x24CC JUMP JUMPDEST PUSH1 0x40 MLOAD DUP1 SWAP2 SUB SWAP1 REVERT JUMPDEST POP POP POP JUMP JUMPDEST POP POP POP POP JUMP JUMPDEST POP POP POP POP JUMP JUMPDEST PUSH1 0x0 PUSH2 0x1332 DUP5 PUSH20 0xFFFFFFFFFFFFFFFFFFFFFFFFFFFFFFFFFFFFFFFF AND PUSH2 0x1808 JUMP JUMPDEST ISZERO PUSH2 0x148B JUMPI DUP4 PUSH20 0xFFFFFFFFFFFFFFFFFFFFFFFFFFFFFFFFFFFFFFFF AND PUSH4 0x150B7A02 PUSH2 0x135B PUSH2 0xB12 JUMP JUMPDEST DUP8 DUP7 DUP7 PUSH1 0x40 MLOAD DUP6 PUSH4 0xFFFFFFFF AND PUSH1 0xE0 SHL DUP2 MSTORE PUSH1 0x4 ADD PUSH2 0x137D SWAP5 SWAP4 SWAP3 SWAP2 SWAP1 PUSH2 0x2570 JUMP JUMPDEST PUSH1 0x20 PUSH1 0x40 MLOAD DUP1 DUP4 SUB DUP2 PUSH1 0x0 DUP8 GAS CALL SWAP3 POP POP POP DUP1 ISZERO PUSH2 0x13B9 JUMPI POP PUSH1 0x40 MLOAD RETURNDATASIZE PUSH1 0x1F NOT PUSH1 0x1F DUP3 ADD AND DUP3 ADD DUP1 PUSH1 0x40 MSTORE POP DUP2 ADD SWAP1 PUSH2 0x13B6 SWAP2 SWAP1 PUSH2 0x25D1 JUMP JUMPDEST PUSH1 0x1 JUMPDEST PUSH2 0x143B JUMPI RETURNDATASIZE DUP1 PUSH1 0x0 DUP2 EQ PUSH2 0x13E9 JUMPI PUSH1 0x40 MLOAD SWAP2 POP PUSH1 0x1F NOT PUSH1 0x3F RETURNDATASIZE ADD AND DUP3 ADD PUSH1 0x40 MSTORE RETURNDATASIZE DUP3 MSTORE RETURNDATASIZE PUSH1 0x0 PUSH1 0x20 DUP5 ADD RETURNDATACOPY PUSH2 0x13EE JUMP JUMPDEST PUSH1 0x60 SWAP2 POP JUMPDEST POP PUSH1 0x0 DUP2 MLOAD SUB PUSH2 0x1433 JUMPI PUSH1 0x40 MLOAD PUSH32 0x8C379A000000000000000000000000000000000000000000000000000000000 DUP2 MSTORE PUSH1 0x4 ADD PUSH2 0x142A SWAP1 PUSH2 0x24CC JUMP JUMPDEST PUSH1 0x40 MLOAD DUP1 SWAP2 SUB SWAP1 REVERT JUMPDEST DUP1 MLOAD DUP2 PUSH1 0x20 ADD REVERT JUMPDEST PUSH4 0x150B7A02 PUSH1 0xE0 SHL PUSH28 0xFFFFFFFFFFFFFFFFFFFFFFFFFFFFFFFFFFFFFFFFFFFFFFFFFFFFFFFF NOT AND DUP2 PUSH28 0xFFFFFFFFFFFFFFFFFFFFFFFFFFFFFFFFFFFFFFFFFFFFFFFFFFFFFFFF NOT AND EQ SWAP2 POP POP PUSH2 0x1490 JUMP JUMPDEST PUSH1 0x1 SWAP1 POP JUMPDEST SWAP5 SWAP4 POP POP POP POP JUMP JUMPDEST PUSH1 0x0 DUP1 PUSH1 0x0 SWAP1 POP PUSH27 0x184F03E93FF9F4DAA797ED6E38ED64BF6A1F010000000000000000 DUP4 LT PUSH2 0x14F6 JUMPI PUSH27 0x184F03E93FF9F4DAA797ED6E38ED64BF6A1F010000000000000000 DUP4 DUP2 PUSH2 0x14EC JUMPI PUSH2 0x14EB PUSH2 0x24EC JUMP JUMPDEST JUMPDEST DIV SWAP3 POP PUSH1 0x40 DUP2 ADD SWAP1 POP JUMPDEST PUSH14 0x4EE2D6D415B85ACEF8100000000 DUP4 LT PUSH2 0x1533 JUMPI PUSH14 0x4EE2D6D415B85ACEF8100000000 DUP4 DUP2 PUSH2 0x1529 JUMPI PUSH2 0x1528 PUSH2 0x24EC JUMP JUMPDEST JUMPDEST DIV SWAP3 POP PUSH1 0x20 DUP2 ADD SWAP1 POP JUMPDEST PUSH7 0x2386F26FC10000 DUP4 LT PUSH2 0x1562 JUMPI PUSH7 0x2386F26FC10000 DUP4 DUP2 PUSH2 0x1558 JUMPI PUSH2 0x1557 PUSH2 0x24EC JUMP JUMPDEST JUMPDEST DIV SWAP3 POP PUSH1 0x10 DUP2 ADD SWAP1 POP JUMPDEST PUSH4 0x5F5E100 DUP4 LT PUSH2 0x158B JUMPI PUSH4 0x5F5E100 DUP4 DUP2 PUSH2 0x1581 JUMPI PUSH2 0x1580 PUSH2 0x24EC JUMP JUMPDEST JUMPDEST DIV SWAP3 POP PUSH1 0x8 DUP2 ADD SWAP1 POP JUMPDEST PUSH2 0x2710 DUP4 LT PUSH2 0x15B0 JUMPI PUSH2 0x2710 DUP4 DUP2 PUSH2 0x15A6 JUMPI PUSH2 0x15A5 PUSH2 0x24EC JUMP JUMPDEST JUMPDEST DIV SWAP3 POP PUSH1 0x4 DUP2 ADD SWAP1 POP JUMPDEST PUSH1 0x64 DUP4 LT PUSH2 0x15D3 JUMPI PUSH1 0x64 DUP4 DUP2 PUSH2 0x15C9 JUMPI PUSH2 0x15C8 PUSH2 0x24EC JUMP JUMPDEST JUMPDEST DIV SWAP3 POP PUSH1 0x2 DUP2 ADD SWAP1 POP JUMPDEST PUSH1 0xA DUP4 LT PUSH2 0x15E2 JUMPI PUSH1 0x1 DUP2 ADD SWAP1 POP JUMPDEST DUP1 SWAP2 POP POP SWAP2 SWAP1 POP JUMP JUMPDEST PUSH1 0x0 PUSH20 0xFFFFFFFFFFFFFFFFFFFFFFFFFFFFFFFFFFFFFFFF AND DUP3 PUSH20 0xFFFFFFFFFFFFFFFFFFFFFFFFFFFFFFFFFFFFFFFF AND SUB PUSH2 0x165A JUMPI PUSH1 0x40 MLOAD PUSH32 0x8C379A000000000000000000000000000000000000000000000000000000000 DUP2 MSTORE PUSH1 0x4 ADD PUSH2 0x1651 SWAP1 PUSH2 0x264A JUMP JUMPDEST PUSH1 0x40 MLOAD DUP1 SWAP2 SUB SWAP1 REVERT JUMPDEST PUSH2 0x1663 DUP2 PUSH2 0x1269 JUMP JUMPDEST ISZERO PUSH2 0x16A3 JUMPI PUSH1 0x40 MLOAD PUSH32 0x8C379A000000000000000000000000000000000000000000000000000000000 DUP2 MSTORE PUSH1 0x4 ADD PUSH2 0x169A SWAP1 PUSH2 0x26B6 JUMP JUMPDEST PUSH1 0x40 MLOAD DUP1 SWAP2 SUB SWAP1 REVERT JUMPDEST PUSH2 0x16B1 PUSH1 0x0 DUP4 DUP4 PUSH1 0x1 PUSH2 0x1305 JUMP JUMPDEST PUSH2 0x16BA DUP2 PUSH2 0x1269 JUMP JUMPDEST ISZERO PUSH2 0x16FA JUMPI PUSH1 0x40 MLOAD PUSH32 0x8C379A000000000000000000000000000000000000000000000000000000000 DUP2 MSTORE PUSH1 0x4 ADD PUSH2 0x16F1 SWAP1 PUSH2 0x26B6 JUMP JUMPDEST PUSH1 0x40 MLOAD DUP1 SWAP2 SUB SWAP1 REVERT JUMPDEST PUSH1 0x1 PUSH1 0x3 PUSH1 0x0 DUP5 PUSH20 0xFFFFFFFFFFFFFFFFFFFFFFFFFFFFFFFFFFFFFFFF AND PUSH20 0xFFFFFFFFFFFFFFFFFFFFFFFFFFFFFFFFFFFFFFFF AND DUP2 MSTORE PUSH1 0x20 ADD SWAP1 DUP2 MSTORE PUSH1 0x20 ADD PUSH1 0x0 KECCAK256 PUSH1 0x0 DUP3 DUP3 SLOAD ADD SWAP3 POP POP DUP2 SWAP1 SSTORE POP DUP2 PUSH1 0x2 PUSH1 0x0 DUP4 DUP2 MSTORE PUSH1 0x20 ADD SWAP1 DUP2 MSTORE PUSH1 0x20 ADD PUSH1 0x0 KECCAK256 PUSH1 0x0 PUSH2 0x100 EXP DUP2 SLOAD DUP2 PUSH20 0xFFFFFFFFFFFFFFFFFFFFFFFFFFFFFFFFFFFFFFFF MUL NOT AND SWAP1 DUP4 PUSH20 0xFFFFFFFFFFFFFFFFFFFFFFFFFFFFFFFFFFFFFFFF AND MUL OR SWAP1 SSTORE POP DUP1 DUP3 PUSH20 0xFFFFFFFFFFFFFFFFFFFFFFFFFFFFFFFFFFFFFFFF AND PUSH1 0x0 PUSH20 0xFFFFFFFFFFFFFFFFFFFFFFFFFFFFFFFFFFFFFFFF AND PUSH32 0xDDF252AD1BE2C89B69C2B068FC378DAA952BA7F163C4A11628F55A4DF523B3EF PUSH1 0x40 MLOAD PUSH1 0x40 MLOAD DUP1 SWAP2 SUB SWAP1 LOG4 PUSH2 0x1804 PUSH1 0x0 DUP4 DUP4 PUSH1 0x1 PUSH2 0x130B JUMP JUMPDEST POP POP JUMP JUMPDEST PUSH1 0x0 DUP1 DUP3 PUSH20 0xFFFFFFFFFFFFFFFFFFFFFFFFFFFFFFFFFFFFFFFF AND EXTCODESIZE GT SWAP1 POP SWAP2 SWAP1 POP JUMP JUMPDEST PUSH1 0x0 PUSH1 0x40 MLOAD SWAP1 POP SWAP1 JUMP JUMPDEST PUSH1 0x0 DUP1 REVERT JUMPDEST PUSH1 0x0 DUP1 REVERT JUMPDEST PUSH1 0x0 PUSH32 0xFFFFFFFF00000000000000000000000000000000000000000000000000000000 DUP3 AND SWAP1 POP SWAP2 SWAP1 POP JUMP JUMPDEST PUSH2 0x1874 DUP2 PUSH2 0x183F JUMP JUMPDEST DUP2 EQ PUSH2 0x187F JUMPI PUSH1 0x0 DUP1 REVERT JUMPDEST POP JUMP JUMPDEST PUSH1 0x0 DUP2 CALLDATALOAD SWAP1 POP PUSH2 0x1891 DUP2 PUSH2 0x186B JUMP JUMPDEST SWAP3 SWAP2 POP POP JUMP JUMPDEST PUSH1 0x0 PUSH1 0x20 DUP3 DUP5 SUB SLT ISZERO PUSH2 0x18AD JUMPI PUSH2 0x18AC PUSH2 0x1835 JUMP JUMPDEST JUMPDEST PUSH1 0x0 PUSH2 0x18BB DUP5 DUP3 DUP6 ADD PUSH2 0x1882 JUMP JUMPDEST SWAP2 POP POP SWAP3 SWAP2 POP POP JUMP JUMPDEST PUSH1 0x0 DUP2 ISZERO ISZERO SWAP1 POP SWAP2 SWAP1 POP JUMP JUMPDEST PUSH2 0x18D9 DUP2 PUSH2 0x18C4 JUMP JUMPDEST DUP3 MSTORE POP POP JUMP JUMPDEST PUSH1 0x0 PUSH1 0x20 DUP3 ADD SWAP1 POP PUSH2 0x18F4 PUSH1 0x0 DUP4 ADD DUP5 PUSH2 0x18D0 JUMP JUMPDEST SWAP3 SWAP2 POP POP JUMP JUMPDEST PUSH1 0x0 DUP2 MLOAD SWAP1 POP SWAP2 SWAP1 POP JUMP JUMPDEST PUSH1 0x0 DUP3 DUP3 MSTORE PUSH1 0x20 DUP3 ADD SWAP1 POP SWAP3 SWAP2 POP POP JUMP JUMPDEST PUSH1 0x0 JUMPDEST DUP4 DUP2 LT ISZERO PUSH2 0x1934 JUMPI DUP1 DUP3 ADD MLOAD DUP2 DUP5 ADD MSTORE PUSH1 0x20 DUP2 ADD SWAP1 POP PUSH2 0x1919 JUMP JUMPDEST PUSH1 0x0 DUP5 DUP5 ADD MSTORE POP POP POP POP JUMP JUMPDEST PUSH1 0x0 PUSH1 0x1F NOT PUSH1 0x1F DUP4 ADD AND SWAP1 POP SWAP2 SWAP1 POP JUMP JUMPDEST PUSH1 0x0 PUSH2 0x195C DUP3 PUSH2 0x18FA JUMP JUMPDEST PUSH2 0x1966 DUP2 DUP6 PUSH2 0x1905 JUMP JUMPDEST SWAP4 POP PUSH2 0x1976 DUP2 DUP6 PUSH1 0x20 DUP7 ADD PUSH2 0x1916 JUMP JUMPDEST PUSH2 0x197F DUP2 PUSH2 0x1940 JUMP JUMPDEST DUP5 ADD SWAP2 POP POP SWAP3 SWAP2 POP POP JUMP JUMPDEST PUSH1 0x0 PUSH1 0x20 DUP3 ADD SWAP1 POP DUP2 DUP2 SUB PUSH1 0x0 DUP4 ADD MSTORE PUSH2 0x19A4 DUP2 DUP5 PUSH2 0x1951 JUMP JUMPDEST SWAP1 POP SWAP3 SWAP2 POP POP JUMP JUMPDEST PUSH1 0x0 DUP2 SWAP1 POP SWAP2 SWAP1 POP JUMP JUMPDEST PUSH2 0x19BF DUP2 PUSH2 0x19AC JUMP JUMPDEST DUP2 EQ PUSH2 0x19CA JUMPI PUSH1 0x0 DUP1 REVERT JUMPDEST POP JUMP JUMPDEST PUSH1 0x0 DUP2 CALLDATALOAD SWAP1 POP PUSH2 0x19DC DUP2 PUSH2 0x19B6 JUMP JUMPDEST SWAP3 SWAP2 POP POP JUMP JUMPDEST PUSH1 0x0 PUSH1 0x20 DUP3 DUP5 SUB SLT ISZERO PUSH2 0x19F8 JUMPI PUSH2 0x19F7 PUSH2 0x1835 JUMP JUMPDEST JUMPDEST PUSH1 0x0 PUSH2 0x1A06 DUP5 DUP3 DUP6 ADD PUSH2 0x19CD JUMP JUMPDEST SWAP2 POP POP SWAP3 SWAP2 POP POP JUMP JUMPDEST PUSH1 0x0 PUSH20 0xFFFFFFFFFFFFFFFFFFFFFFFFFFFFFFFFFFFFFFFF DUP3 AND SWAP1 POP SWAP2 SWAP1 POP JUMP JUMPDEST PUSH1 0x0 PUSH2 0x1A3A DUP3 PUSH2 0x1A0F JUMP JUMPDEST SWAP1 POP SWAP2 SWAP1 POP JUMP JUMPDEST PUSH2 0x1A4A DUP2 PUSH2 0x1A2F JUMP JUMPDEST DUP3 MSTORE POP POP JUMP JUMPDEST PUSH1 0x0 PUSH1 0x20 DUP3 ADD SWAP1 POP PUSH2 0x1A65 PUSH1 0x0 DUP4 ADD DUP5 PUSH2 0x1A41 JUMP JUMPDEST SWAP3 SWAP2 POP POP JUMP JUMPDEST PUSH2 0x1A74 DUP2 PUSH2 0x1A2F JUMP JUMPDEST DUP2 EQ PUSH2 0x1A7F JUMPI PUSH1 0x0 DUP1 REVERT JUMPDEST POP JUMP JUMPDEST PUSH1 0x0 DUP2 CALLDATALOAD SWAP1 POP PUSH2 0x1A91 DUP2 PUSH2 0x1A6B JUMP JUMPDEST SWAP3 SWAP2 POP POP JUMP JUMPDEST PUSH1 0x0 DUP1 PUSH1 0x40 DUP4 DUP6 SUB SLT ISZERO PUSH2 0x1AAE JUMPI PUSH2 0x1AAD PUSH2 0x1835 JUMP JUMPDEST JUMPDEST PUSH1 0x0 PUSH2 0x1ABC DUP6 DUP3 DUP7 ADD PUSH2 0x1A82 JUMP JUMPDEST SWAP3 POP POP PUSH1 0x20 PUSH2 0x1ACD DUP6 DUP3 DUP7 ADD PUSH2 0x19CD JUMP JUMPDEST SWAP2 POP POP SWAP3 POP SWAP3 SWAP1 POP JUMP JUMPDEST PUSH2 0x1AE0 DUP2 PUSH2 0x19AC JUMP JUMPDEST DUP3 MSTORE POP POP JUMP JUMPDEST PUSH1 0x0 PUSH1 0x20 DUP3 ADD SWAP1 POP PUSH2 0x1AFB PUSH1 0x0 DUP4 ADD DUP5 PUSH2 0x1AD7 JUMP JUMPDEST SWAP3 SWAP2 POP POP JUMP JUMPDEST PUSH1 0x0 DUP1 PUSH1 0x0 PUSH1 0x60 DUP5 DUP7 SUB SLT ISZERO PUSH2 0x1B1A JUMPI PUSH2 0x1B19 PUSH2 0x1835 JUMP JUMPDEST JUMPDEST PUSH1 0x0 PUSH2 0x1B28 DUP7 DUP3 DUP8 ADD PUSH2 0x1A82 JUMP JUMPDEST SWAP4 POP POP PUSH1 0x20 PUSH2 0x1B39 DUP7 DUP3 DUP8 ADD PUSH2 0x1A82 JUMP JUMPDEST SWAP3 POP POP PUSH1 0x40 PUSH2 0x1B4A DUP7 DUP3 DUP8 ADD PUSH2 0x19CD JUMP JUMPDEST SWAP2 POP POP SWAP3 POP SWAP3 POP SWAP3 JUMP JUMPDEST PUSH1 0x0 PUSH1 0x20 DUP3 DUP5 SUB SLT ISZERO PUSH2 0x1B6A JUMPI PUSH2 0x1B69 PUSH2 0x1835 JUMP JUMPDEST JUMPDEST PUSH1 0x0 PUSH2 0x1B78 DUP5 DUP3 DUP6 ADD PUSH2 0x1A82 JUMP JUMPDEST SWAP2 POP POP SWAP3 SWAP2 POP POP JUMP JUMPDEST PUSH2 0x1B8A DUP2 PUSH2 0x18C4 JUMP JUMPDEST DUP2 EQ PUSH2 0x1B95 JUMPI PUSH1 0x0 DUP1 REVERT JUMPDEST POP JUMP JUMPDEST PUSH1 0x0 DUP2 CALLDATALOAD SWAP1 POP PUSH2 0x1BA7 DUP2 PUSH2 0x1B81 JUMP JUMPDEST SWAP3 SWAP2 POP POP JUMP JUMPDEST PUSH1 0x0 DUP1 PUSH1 0x40 DUP4 DUP6 SUB SLT ISZERO PUSH2 0x1BC4 JUMPI PUSH2 0x1BC3 PUSH2 0x1835 JUMP JUMPDEST JUMPDEST PUSH1 0x0 PUSH2 0x1BD2 DUP6 DUP3 DUP7 ADD PUSH2 0x1A82 JUMP JUMPDEST SWAP3 POP POP PUSH1 0x20 PUSH2 0x1BE3 DUP6 DUP3 DUP7 ADD PUSH2 0x1B98 JUMP JUMPDEST SWAP2 POP POP SWAP3 POP SWAP3 SWAP1 POP JUMP JUMPDEST PUSH1 0x0 DUP1 REVERT JUMPDEST PUSH1 0x0 DUP1 REVERT JUMPDEST PUSH32 0x4E487B7100000000000000000000000000000000000000000000000000000000 PUSH1 0x0 MSTORE PUSH1 0x41 PUSH1 0x4 MSTORE PUSH1 0x24 PUSH1 0x0 REVERT JUMPDEST PUSH2 0x1C2F DUP3 PUSH2 0x1940 JUMP JUMPDEST DUP2 ADD DUP2 DUP2 LT PUSH8 0xFFFFFFFFFFFFFFFF DUP3 GT OR ISZERO PUSH2 0x1C4E JUMPI PUSH2 0x1C4D PUSH2 0x1BF7 JUMP JUMPDEST JUMPDEST DUP1 PUSH1 0x40 MSTORE POP POP POP JUMP JUMPDEST PUSH1 0x0 PUSH2 0x1C61 PUSH2 0x182B JUMP JUMPDEST SWAP1 POP PUSH2 0x1C6D DUP3 DUP3 PUSH2 0x1C26 JUMP JUMPDEST SWAP2 SWAP1 POP JUMP JUMPDEST PUSH1 0x0 PUSH8 0xFFFFFFFFFFFFFFFF DUP3 GT ISZERO PUSH2 0x1C8D JUMPI PUSH2 0x1C8C PUSH2 0x1BF7 JUMP JUMPDEST JUMPDEST PUSH2 0x1C96 DUP3 PUSH2 0x1940 JUMP JUMPDEST SWAP1 POP PUSH1 0x20 DUP2 ADD SWAP1 POP SWAP2 SWAP1 POP JUMP JUMPDEST DUP3 DUP2 DUP4 CALLDATACOPY PUSH1 0x0 DUP4 DUP4 ADD MSTORE POP POP POP JUMP JUMPDEST PUSH1 0x0 PUSH2 0x1CC5 PUSH2 0x1CC0 DUP5 PUSH2 0x1C72 JUMP JUMPDEST PUSH2 0x1C57 JUMP JUMPDEST SWAP1 POP DUP3 DUP2 MSTORE PUSH1 0x20 DUP2 ADD DUP5 DUP5 DUP5 ADD GT ISZERO PUSH2 0x1CE1 JUMPI PUSH2 0x1CE0 PUSH2 0x1BF2 JUMP JUMPDEST JUMPDEST PUSH2 0x1CEC DUP5 DUP3 DUP6 PUSH2 0x1CA3 JUMP JUMPDEST POP SWAP4 SWAP3 POP POP POP JUMP JUMPDEST PUSH1 0x0 DUP3 PUSH1 0x1F DUP4 ADD SLT PUSH2 0x1D09 JUMPI PUSH2 0x1D08 PUSH2 0x1BED JUMP JUMPDEST JUMPDEST DUP2 CALLDATALOAD PUSH2 0x1D19 DUP5 DUP3 PUSH1 0x20 DUP7 ADD PUSH2 0x1CB2 JUMP JUMPDEST SWAP2 POP POP SWAP3 SWAP2 POP POP JUMP JUMPDEST PUSH1 0x0 DUP1 PUSH1 0x0 DUP1 PUSH1 0x80 DUP6 DUP8 SUB SLT ISZERO PUSH2 0x1D3C JUMPI PUSH2 0x1D3B PUSH2 0x1835 JUMP JUMPDEST JUMPDEST PUSH1 0x0 PUSH2 0x1D4A DUP8 DUP3 DUP9 ADD PUSH2 0x1A82 JUMP JUMPDEST SWAP5 POP POP PUSH1 0x20 PUSH2 0x1D5B DUP8 DUP3 DUP9 ADD PUSH2 0x1A82 JUMP JUMPDEST SWAP4 POP POP PUSH1 0x40 PUSH2 0x1D6C DUP8 DUP3 DUP9 ADD PUSH2 0x19CD JUMP JUMPDEST SWAP3 POP POP PUSH1 0x60 DUP6 ADD CALLDATALOAD PUSH8 0xFFFFFFFFFFFFFFFF DUP2 GT ISZERO PUSH2 0x1D8D JUMPI PUSH2 0x1D8C PUSH2 0x183A JUMP JUMPDEST JUMPDEST PUSH2 0x1D99 DUP8 DUP3 DUP9 ADD PUSH2 0x1CF4 JUMP JUMPDEST SWAP2 POP POP SWAP3 SWAP6 SWAP2 SWAP5 POP SWAP3 POP JUMP JUMPDEST PUSH1 0x0 DUP1 PUSH1 0x40 DUP4 DUP6 SUB SLT ISZERO PUSH2 0x1DBC JUMPI PUSH2 0x1DBB PUSH2 0x1835 JUMP JUMPDEST JUMPDEST PUSH1 0x0 PUSH2 0x1DCA DUP6 DUP3 DUP7 ADD PUSH2 0x1A82 JUMP JUMPDEST SWAP3 POP POP PUSH1 0x20 PUSH2 0x1DDB DUP6 DUP3 DUP7 ADD PUSH2 0x1A82 JUMP JUMPDEST SWAP2 POP POP SWAP3 POP SWAP3 SWAP1 POP JUMP JUMPDEST PUSH1 0x0 PUSH1 0xFF DUP3 AND SWAP1 POP SWAP2 SWAP1 POP JUMP JUMPDEST PUSH2 0x1DFB DUP2 PUSH2 0x1DE5 JUMP JUMPDEST DUP3 MSTORE POP POP JUMP JUMPDEST PUSH1 0x0 PUSH1 0x20 DUP3 ADD SWAP1 POP PUSH2 0x1E16 PUSH1 0x0 DUP4 ADD DUP5 PUSH2 0x1DF2 JUMP JUMPDEST SWAP3 SWAP2 POP POP JUMP JUMPDEST PUSH32 0x4E487B7100000000000000000000000000000000000000000000000000000000 PUSH1 0x0 MSTORE PUSH1 0x22 PUSH1 0x4 MSTORE PUSH1 0x24 PUSH1 0x0 REVERT JUMPDEST PUSH1 0x0 PUSH1 0x2 DUP3 DIV SWAP1 POP PUSH1 0x1 DUP3 AND DUP1 PUSH2 0x1E63 JUMPI PUSH1 0x7F DUP3 AND SWAP2 POP JUMPDEST PUSH1 0x20 DUP3 LT DUP2 SUB PUSH2 0x1E76 JUMPI PUSH2 0x1E75 PUSH2 0x1E1C JUMP JUMPDEST JUMPDEST POP SWAP2 SWAP1 POP JUMP JUMPDEST PUSH32 0x4552433732313A20617070726F76616C20746F2063757272656E74206F776E65 PUSH1 0x0 DUP3 ADD MSTORE PUSH32 0x7200000000000000000000000000000000000000000000000000000000000000 PUSH1 0x20 DUP3 ADD MSTORE POP JUMP JUMPDEST PUSH1 0x0 PUSH2 0x1ED8 PUSH1 0x21 DUP4 PUSH2 0x1905 JUMP JUMPDEST SWAP2 POP PUSH2 0x1EE3 DUP3 PUSH2 0x1E7C JUMP JUMPDEST PUSH1 0x40 DUP3 ADD SWAP1 POP SWAP2 SWAP1 POP JUMP JUMPDEST PUSH1 0x0 PUSH1 0x20 DUP3 ADD SWAP1 POP DUP2 DUP2 SUB PUSH1 0x0 DUP4 ADD MSTORE PUSH2 0x1F07 DUP2 PUSH2 0x1ECB JUMP JUMPDEST SWAP1 POP SWAP2 SWAP1 POP JUMP JUMPDEST PUSH32 0x4552433732313A20617070726F76652063616C6C6572206973206E6F7420746F PUSH1 0x0 DUP3 ADD MSTORE PUSH32 0x6B656E206F776E6572206F7220617070726F76656420666F7220616C6C000000 PUSH1 0x20 DUP3 ADD MSTORE POP JUMP JUMPDEST PUSH1 0x0 PUSH2 0x1F6A PUSH1 0x3D DUP4 PUSH2 0x1905 JUMP JUMPDEST SWAP2 POP PUSH2 0x1F75 DUP3 PUSH2 0x1F0E JUMP JUMPDEST PUSH1 0x40 DUP3 ADD SWAP1 POP SWAP2 SWAP1 POP JUMP JUMPDEST PUSH1 0x0 PUSH1 0x20 DUP3 ADD SWAP1 POP DUP2 DUP2 SUB PUSH1 0x0 DUP4 ADD MSTORE PUSH2 0x1F99 DUP2 PUSH2 0x1F5D JUMP JUMPDEST SWAP1 POP SWAP2 SWAP1 POP JUMP JUMPDEST PUSH32 0x546865204E4654206861642073656C6C6F75742E000000000000000000000000 PUSH1 0x0 DUP3 ADD MSTORE POP JUMP JUMPDEST PUSH1 0x0 PUSH2 0x1FD6 PUSH1 0x14 DUP4 PUSH2 0x1905 JUMP JUMPDEST SWAP2 POP PUSH2 0x1FE1 DUP3 PUSH2 0x1FA0 JUMP JUMPDEST PUSH1 0x20 DUP3 ADD SWAP1 POP SWAP2 SWAP1 POP JUMP JUMPDEST PUSH1 0x0 PUSH1 0x20 DUP3 ADD SWAP1 POP DUP2 DUP2 SUB PUSH1 0x0 DUP4 ADD MSTORE PUSH2 0x2005 DUP2 PUSH2 0x1FC9 JUMP JUMPDEST SWAP1 POP SWAP2 SWAP1 POP JUMP JUMPDEST PUSH32 0x4E487B7100000000000000000000000000000000000000000000000000000000 PUSH1 0x0 MSTORE PUSH1 0x11 PUSH1 0x4 MSTORE PUSH1 0x24 PUSH1 0x0 REVERT JUMPDEST PUSH1 0x0 PUSH2 0x2046 DUP3 PUSH2 0x19AC JUMP JUMPDEST SWAP2 POP PUSH32 0xFFFFFFFFFFFFFFFFFFFFFFFFFFFFFFFFFFFFFFFFFFFFFFFFFFFFFFFFFFFFFFFF DUP3 SUB PUSH2 0x2078 JUMPI PUSH2 0x2077 PUSH2 0x200C JUMP JUMPDEST JUMPDEST PUSH1 0x1 DUP3 ADD SWAP1 POP SWAP2 SWAP1 POP JUMP JUMPDEST PUSH32 0x4552433732313A2063616C6C6572206973206E6F7420746F6B656E206F776E65 PUSH1 0x0 DUP3 ADD MSTORE PUSH32 0x72206F7220617070726F76656400000000000000000000000000000000000000 PUSH1 0x20 DUP3 ADD MSTORE POP JUMP JUMPDEST PUSH1 0x0 PUSH2 0x20DF PUSH1 0x2D DUP4 PUSH2 0x1905 JUMP JUMPDEST SWAP2 POP PUSH2 0x20EA DUP3 PUSH2 0x2083 JUMP JUMPDEST PUSH1 0x40 DUP3 ADD SWAP1 POP SWAP2 SWAP1 POP JUMP JUMPDEST PUSH1 0x0 PUSH1 0x20 DUP3 ADD SWAP1 POP DUP2 DUP2 SUB PUSH1 0x0 DUP4 ADD MSTORE PUSH2 0x210E DUP2 PUSH2 0x20D2 JUMP JUMPDEST SWAP1 POP SWAP2 SWAP1 POP JUMP JUMPDEST PUSH32 0x4552433732313A20696E76616C696420746F6B656E2049440000000000000000 PUSH1 0x0 DUP3 ADD MSTORE POP JUMP JUMPDEST PUSH1 0x0 PUSH2 0x214B PUSH1 0x18 DUP4 PUSH2 0x1905 JUMP JUMPDEST SWAP2 POP PUSH2 0x2156 DUP3 PUSH2 0x2115 JUMP JUMPDEST PUSH1 0x20 DUP3 ADD SWAP1 POP SWAP2 SWAP1 POP JUMP JUMPDEST PUSH1 0x0 PUSH1 0x20 DUP3 ADD SWAP1 POP DUP2 DUP2 SUB PUSH1 0x0 DUP4 ADD MSTORE PUSH2 0x217A DUP2 PUSH2 0x213E JUMP JUMPDEST SWAP1 POP SWAP2 SWAP1 POP JUMP JUMPDEST PUSH32 0x4552433732313A2061646472657373207A65726F206973206E6F742061207661 PUSH1 0x0 DUP3 ADD MSTORE PUSH32 0x6C6964206F776E65720000000000000000000000000000000000000000000000 PUSH1 0x20 DUP3 ADD MSTORE POP JUMP JUMPDEST PUSH1 0x0 PUSH2 0x21DD PUSH1 0x29 DUP4 PUSH2 0x1905 JUMP JUMPDEST SWAP2 POP PUSH2 0x21E8 DUP3 PUSH2 0x2181 JUMP JUMPDEST PUSH1 0x40 DUP3 ADD SWAP1 POP SWAP2 SWAP1 POP JUMP JUMPDEST PUSH1 0x0 PUSH1 0x20 DUP3 ADD SWAP1 POP DUP2 DUP2 SUB PUSH1 0x0 DUP4 ADD MSTORE PUSH2 0x220C DUP2 PUSH2 0x21D0 JUMP JUMPDEST SWAP1 POP SWAP2 SWAP1 POP JUMP JUMPDEST PUSH1 0x0 DUP2 SWAP1 POP SWAP3 SWAP2 POP POP JUMP JUMPDEST PUSH1 0x0 PUSH2 0x2229 DUP3 PUSH2 0x18FA JUMP JUMPDEST PUSH2 0x2233 DUP2 DUP6 PUSH2 0x2213 JUMP JUMPDEST SWAP4 POP PUSH2 0x2243 DUP2 DUP6 PUSH1 0x20 DUP7 ADD PUSH2 0x1916 JUMP JUMPDEST DUP1 DUP5 ADD SWAP2 POP POP SWAP3 SWAP2 POP POP JUMP JUMPDEST PUSH32 0x2E6A736F6E000000000000000000000000000000000000000000000000000000 PUSH1 0x0 DUP3 ADD MSTORE POP JUMP JUMPDEST PUSH1 0x0 PUSH2 0x2285 PUSH1 0x5 DUP4 PUSH2 0x2213 JUMP JUMPDEST SWAP2 POP PUSH2 0x2290 DUP3 PUSH2 0x224F JUMP JUMPDEST PUSH1 0x5 DUP3 ADD SWAP1 POP SWAP2 SWAP1 POP JUMP JUMPDEST PUSH1 0x0 PUSH2 0x22A7 DUP3 DUP6 PUSH2 0x221E JUMP JUMPDEST SWAP2 POP PUSH2 0x22B3 DUP3 DUP5 PUSH2 0x221E JUMP JUMPDEST SWAP2 POP PUSH2 0x22BE DUP3 PUSH2 0x2278 JUMP JUMPDEST SWAP2 POP DUP2 SWAP1 POP SWAP4 SWAP3 POP POP POP JUMP JUMPDEST PUSH32 0x4552433732313A207472616E736665722066726F6D20696E636F727265637420 PUSH1 0x0 DUP3 ADD MSTORE PUSH32 0x6F776E6572000000000000000000000000000000000000000000000000000000 PUSH1 0x20 DUP3 ADD MSTORE POP JUMP JUMPDEST PUSH1 0x0 PUSH2 0x2326 PUSH1 0x25 DUP4 PUSH2 0x1905 JUMP JUMPDEST SWAP2 POP PUSH2 0x2331 DUP3 PUSH2 0x22CA JUMP JUMPDEST PUSH1 0x40 DUP3 ADD SWAP1 POP SWAP2 SWAP1 POP JUMP JUMPDEST PUSH1 0x0 PUSH1 0x20 DUP3 ADD SWAP1 POP DUP2 DUP2 SUB PUSH1 0x0 DUP4 ADD MSTORE PUSH2 0x2355 DUP2 PUSH2 0x2319 JUMP JUMPDEST SWAP1 POP SWAP2 SWAP1 POP JUMP JUMPDEST PUSH32 0x4552433732313A207472616E7366657220746F20746865207A65726F20616464 PUSH1 0x0 DUP3 ADD MSTORE PUSH32 0x7265737300000000000000000000000000000000000000000000000000000000 PUSH1 0x20 DUP3 ADD MSTORE POP JUMP JUMPDEST PUSH1 0x0 PUSH2 0x23B8 PUSH1 0x24 DUP4 PUSH2 0x1905 JUMP JUMPDEST SWAP2 POP PUSH2 0x23C3 DUP3 PUSH2 0x235C JUMP JUMPDEST PUSH1 0x40 DUP3 ADD SWAP1 POP SWAP2 SWAP1 POP JUMP JUMPDEST PUSH1 0x0 PUSH1 0x20 DUP3 ADD SWAP1 POP DUP2 DUP2 SUB PUSH1 0x0 DUP4 ADD MSTORE PUSH2 0x23E7 DUP2 PUSH2 0x23AB JUMP JUMPDEST SWAP1 POP SWAP2 SWAP1 POP JUMP JUMPDEST PUSH32 0x4552433732313A20617070726F766520746F2063616C6C657200000000000000 PUSH1 0x0 DUP3 ADD MSTORE POP JUMP JUMPDEST PUSH1 0x0 PUSH2 0x2424 PUSH1 0x19 DUP4 PUSH2 0x1905 JUMP JUMPDEST SWAP2 POP PUSH2 0x242F DUP3 PUSH2 0x23EE JUMP JUMPDEST PUSH1 0x20 DUP3 ADD SWAP1 POP SWAP2 SWAP1 POP JUMP JUMPDEST PUSH1 0x0 PUSH1 0x20 DUP3 ADD SWAP1 POP DUP2 DUP2 SUB PUSH1 0x0 DUP4 ADD MSTORE PUSH2 0x2453 DUP2 PUSH2 0x2417 JUMP JUMPDEST SWAP1 POP SWAP2 SWAP1 POP JUMP JUMPDEST PUSH32 0x4552433732313A207472616E7366657220746F206E6F6E204552433732315265 PUSH1 0x0 DUP3 ADD MSTORE PUSH32 0x63656976657220696D706C656D656E7465720000000000000000000000000000 PUSH1 0x20 DUP3 ADD MSTORE POP JUMP JUMPDEST PUSH1 0x0 PUSH2 0x24B6 PUSH1 0x32 DUP4 PUSH2 0x1905 JUMP JUMPDEST SWAP2 POP PUSH2 0x24C1 DUP3 PUSH2 0x245A JUMP JUMPDEST PUSH1 0x40 DUP3 ADD SWAP1 POP SWAP2 SWAP1 POP JUMP JUMPDEST PUSH1 0x0 PUSH1 0x20 DUP3 ADD SWAP1 POP DUP2 DUP2 SUB PUSH1 0x0 DUP4 ADD MSTORE PUSH2 0x24E5 DUP2 PUSH2 0x24A9 JUMP JUMPDEST SWAP1 POP SWAP2 SWAP1 POP JUMP JUMPDEST PUSH32 0x4E487B7100000000000000000000000000000000000000000000000000000000 PUSH1 0x0 MSTORE PUSH1 0x12 PUSH1 0x4 MSTORE PUSH1 0x24 PUSH1 0x0 REVERT JUMPDEST PUSH1 0x0 DUP2 MLOAD SWAP1 POP SWAP2 SWAP1 POP JUMP JUMPDEST PUSH1 0x0 DUP3 DUP3 MSTORE PUSH1 0x20 DUP3 ADD SWAP1 POP SWAP3 SWAP2 POP POP JUMP JUMPDEST PUSH1 0x0 PUSH2 0x2542 DUP3 PUSH2 0x251B JUMP JUMPDEST PUSH2 0x254C DUP2 DUP6 PUSH2 0x2526 JUMP JUMPDEST SWAP4 POP PUSH2 0x255C DUP2 DUP6 PUSH1 0x20 DUP7 ADD PUSH2 0x1916 JUMP JUMPDEST PUSH2 0x2565 DUP2 PUSH2 0x1940 JUMP JUMPDEST DUP5 ADD SWAP2 POP POP SWAP3 SWAP2 POP POP JUMP JUMPDEST PUSH1 0x0 PUSH1 0x80 DUP3 ADD SWAP1 POP PUSH2 0x2585 PUSH1 0x0 DUP4 ADD DUP8 PUSH2 0x1A41 JUMP JUMPDEST PUSH2 0x2592 PUSH1 0x20 DUP4 ADD DUP7 PUSH2 0x1A41 JUMP JUMPDEST PUSH2 0x259F PUSH1 0x40 DUP4 ADD DUP6 PUSH2 0x1AD7 JUMP JUMPDEST DUP2 DUP2 SUB PUSH1 0x60 DUP4 ADD MSTORE PUSH2 0x25B1 DUP2 DUP5 PUSH2 0x2537 JUMP JUMPDEST SWAP1 POP SWAP6 SWAP5 POP POP POP POP POP JUMP JUMPDEST PUSH1 0x0 DUP2 MLOAD SWAP1 POP PUSH2 0x25CB DUP2 PUSH2 0x186B JUMP JUMPDEST SWAP3 SWAP2 POP POP JUMP JUMPDEST PUSH1 0x0 PUSH1 0x20 DUP3 DUP5 SUB SLT ISZERO PUSH2 0x25E7 JUMPI PUSH2 0x25E6 PUSH2 0x1835 JUMP JUMPDEST JUMPDEST PUSH1 0x0 PUSH2 0x25F5 DUP5 DUP3 DUP6 ADD PUSH2 0x25BC JUMP JUMPDEST SWAP2 POP POP SWAP3 SWAP2 POP POP JUMP JUMPDEST PUSH32 0x4552433732313A206D696E7420746F20746865207A65726F2061646472657373 PUSH1 0x0 DUP3 ADD MSTORE POP JUMP JUMPDEST PUSH1 0x0 PUSH2 0x2634 PUSH1 0x20 DUP4 PUSH2 0x1905 JUMP JUMPDEST SWAP2 POP PUSH2 0x263F DUP3 PUSH2 0x25FE JUMP JUMPDEST PUSH1 0x20 DUP3 ADD SWAP1 POP SWAP2 SWAP1 POP JUMP JUMPDEST PUSH1 0x0 PUSH1 0x20 DUP3 ADD SWAP1 POP DUP2 DUP2 SUB PUSH1 0x0 DUP4 ADD MSTORE PUSH2 0x2663 DUP2 PUSH2 0x2627 JUMP JUMPDEST SWAP1 POP SWAP2 SWAP1 POP JUMP JUMPDEST PUSH32 0x4552433732313A20746F6B656E20616C7265616479206D696E74656400000000 PUSH1 0x0 DUP3 ADD MSTORE POP JUMP JUMPDEST PUSH1 0x0 PUSH2 0x26A0 PUSH1 0x1C DUP4 PUSH2 0x1905 JUMP JUMPDEST SWAP2 POP PUSH2 0x26AB DUP3 PUSH2 0x266A JUMP JUMPDEST PUSH1 0x20 DUP3 ADD SWAP1 POP SWAP2 SWAP1 POP JUMP JUMPDEST PUSH1 0x0 PUSH1 0x20 DUP3 ADD SWAP1 POP DUP2 DUP2 SUB PUSH1 0x0 DUP4 ADD MSTORE PUSH2 0x26CF DUP2 PUSH2 0x2693 JUMP JUMPDEST SWAP1 POP SWAP2 SWAP1 POP JUMP INVALID LOG2 PUSH5 0x6970667358 0x22 SLT KECCAK256 DUP6 0xDF PUSH16 0xBC86FDFCD213F5BBECF7C145CB4A3344 SWAP9 SUB TIMESTAMP DUP10 0xD4 0xA5 0xD8 0xC1 SWAP11 0x27 0x24 LOG2 0xB3 PUSH5 0x736F6C6343 STOP ADDMOD GT STOP CALLER "
		},
		"gasEstimates": {
			"creation": {
				"codeDepositCost": "1999200",
				"executionCost": "infinite",
				"totalCost": "infinite"
			},
			"external": {
				"_MaxNftNum()": "2559",
				"approve(address,uint256)": "infinite",
				"balanceOf(address)": "2921",
				"getApproved(uint256)": "5300",
				"isApprovedForAll(address,address)": "infinite",
				"mint()": "infinite",
				"name()": "infinite",
				"ownerOf(uint256)": "3022",
				"safeTransferFrom(address,address,uint256)": "infinite",
				"safeTransferFrom(address,address,uint256,bytes)": "infinite",
				"setApprovalForAll(address,bool)": "infinite",
				"supportsInterface(bytes4)": "797",
				"symbol()": "infinite",
				"tokenId()": "2474",
				"tokenURI(uint256)": "3437",
				"transferFrom(address,address,uint256)": "infinite"
			},
			"internal": {
				"_baseURI()": "infinite"
			}
		},
		"methodIdentifiers": {
			"_MaxNftNum()": "fba3c39c",
			"approve(address,uint256)": "095ea7b3",
			"balanceOf(address)": "70a08231",
			"getApproved(uint256)": "081812fc",
			"isApprovedForAll(address,address)": "e985e9c5",
			"mint()": "1249c58b",
			"name()": "06fdde03",
			"ownerOf(uint256)": "6352211e",
			"safeTransferFrom(address,address,uint256)": "42842e0e",
			"safeTransferFrom(address,address,uint256,bytes)": "b88d4fde",
			"setApprovalForAll(address,bool)": "a22cb465",
			"supportsInterface(bytes4)": "01ffc9a7",
			"symbol()": "95d89b41",
			"tokenId()": "17d70f7c",
			"tokenURI(uint256)": "c87b56dd",
			"transferFrom(address,address,uint256)": "23b872dd"
		}
	},
	"abi": [
		{
			"inputs": [
				{
					"internalType": "string",
					"name": "_name",
					"type": "string"
				},
				{
					"internalType": "string",
					"name": "_symbol",
					"type": "string"
				}
			],
			"stateMutability": "nonpayable",
			"type": "constructor"
		},
		{
			"anonymous": false,
			"inputs": [
				{
					"indexed": true,
					"internalType": "address",
					"name": "owner",
					"type": "address"
				},
				{
					"indexed": true,
					"internalType": "address",
					"name": "approved",
					"type": "address"
				},
				{
					"indexed": true,
					"internalType": "uint256",
					"name": "tokenId",
					"type": "uint256"
				}
			],
			"name": "Approval",
			"type": "event"
		},
		{
			"anonymous": false,
			"inputs": [
				{
					"indexed": true,
					"internalType": "address",
					"name": "owner",
					"type": "address"
				},
				{
					"indexed": true,
					"internalType": "address",
					"name": "operator",
					"type": "address"
				},
				{
					"indexed": false,
					"internalType": "bool",
					"name": "approved",
					"type": "bool"
				}
			],
			"name": "ApprovalForAll",
			"type": "event"
		},
		{
			"anonymous": false,
			"inputs": [
				{
					"indexed": true,
					"internalType": "address",
					"name": "from",
					"type": "address"
				},
				{
					"indexed": true,
					"internalType": "address",
					"name": "to",
					"type": "address"
				},
				{
					"indexed": true,
					"internalType": "uint256",
					"name": "tokenId",
					"type": "uint256"
				}
			],
			"name": "Transfer",
			"type": "event"
		},
		{
			"inputs": [],
			"name": "_MaxNftNum",
			"outputs": [
				{
					"internalType": "uint8",
					"name": "",
					"type": "uint8"
				}
			],
			"stateMutability": "view",
			"type": "function"
		},
		{
			"inputs": [
				{
					"internalType": "address",
					"name": "to",
					"type": "address"
				},
				{
					"internalType": "uint256",
					"name": "tokenId",
					"type": "uint256"
				}
			],
			"name": "approve",
			"outputs": [],
			"stateMutability": "nonpayable",
			"type": "function"
		},
		{
			"inputs": [
				{
					"internalType": "address",
					"name": "owner",
					"type": "address"
				}
			],
			"name": "balanceOf",
			"outputs": [
				{
					"internalType": "uint256",
					"name": "",
					"type": "uint256"
				}
			],
			"stateMutability": "view",
			"type": "function"
		},
		{
			"inputs": [
				{
					"internalType": "uint256",
					"name": "tokenId",
					"type": "uint256"
				}
			],
			"name": "getApproved",
			"outputs": [
				{
					"internalType": "address",
					"name": "",
					"type": "address"
				}
			],
			"stateMutability": "view",
			"type": "function"
		},
		{
			"inputs": [
				{
					"internalType": "address",
					"name": "owner",
					"type": "address"
				},
				{
					"internalType": "address",
					"name": "operator",
					"type": "address"
				}
			],
			"name": "isApprovedForAll",
			"outputs": [
				{
					"internalType": "bool",
					"name": "",
					"type": "bool"
				}
			],
			"stateMutability": "view",
			"type": "function"
		},
		{
			"inputs": [],
			"name": "mint",
			"outputs": [],
			"stateMutability": "nonpayable",
			"type": "function"
		},
		{
			"inputs": [],
			"name": "name",
			"outputs": [
				{
					"internalType": "string",
					"name": "",
					"type": "string"
				}
			],
			"stateMutability": "view",
			"type": "function"
		},
		{
			"inputs": [
				{
					"internalType": "uint256",
					"name": "tokenId",
					"type": "uint256"
				}
			],
			"name": "ownerOf",
			"outputs": [
				{
					"internalType": "address",
					"name": "",
					"type": "address"
				}
			],
			"stateMutability": "view",
			"type": "function"
		},
		{
			"inputs": [
				{
					"internalType": "address",
					"name": "from",
					"type": "address"
				},
				{
					"internalType": "address",
					"name": "to",
					"type": "address"
				},
				{
					"internalType": "uint256",
					"name": "tokenId",
					"type": "uint256"
				}
			],
			"name": "safeTransferFrom",
			"outputs": [],
			"stateMutability": "nonpayable",
			"type": "function"
		},
		{
			"inputs": [
				{
					"internalType": "address",
					"name": "from",
					"type": "address"
				},
				{
					"internalType": "address",
					"name": "to",
					"type": "address"
				},
				{
					"internalType": "uint256",
					"name": "tokenId",
					"type": "uint256"
				},
				{
					"internalType": "bytes",
					"name": "data",
					"type": "bytes"
				}
			],
			"name": "safeTransferFrom",
			"outputs": [],
			"stateMutability": "nonpayable",
			"type": "function"
		},
		{
			"inputs": [
				{
					"internalType": "address",
					"name": "operator",
					"type": "address"
				},
				{
					"internalType": "bool",
					"name": "approved",
					"type": "bool"
				}
			],
			"name": "setApprovalForAll",
			"outputs": [],
			"stateMutability": "nonpayable",
			"type": "function"
		},
		{
			"inputs": [
				{
					"internalType": "bytes4",
					"name": "interfaceId",
					"type": "bytes4"
				}
			],
			"name": "supportsInterface",
			"outputs": [
				{
					"internalType": "bool",
					"name": "",
					"type": "bool"
				}
			],
			"stateMutability": "view",
			"type": "function"
		},
		{
			"inputs": [],
			"name": "symbol",
			"outputs": [
				{
					"internalType": "string",
					"name": "",
					"type": "string"
				}
			],
			"stateMutability": "view",
			"type": "function"
		},
		{
			"inputs": [],
			"name": "tokenId",
			"outputs": [
				{
					"internalType": "uint256",
					"name": "",
					"type": "uint256"
				}
			],
			"stateMutability": "view",
			"type": "function"
		},
		{
			"inputs": [
				{
					"internalType": "uint256",
					"name": "_tokenId",
					"type": "uint256"
				}
			],
			"name": "tokenURI",
			"outputs": [
				{
					"internalType": "string",
					"name": "",
					"type": "string"
				}
			],
			"stateMutability": "view",
			"type": "function"
		},
		{
			"inputs": [
				{
					"internalType": "address",
					"name": "from",
					"type": "address"
				},
				{
					"internalType": "address",
					"name": "to",
					"type": "address"
				},
				{
					"internalType": "uint256",
					"name": "tokenId",
					"type": "uint256"
				}
			],
			"name": "transferFrom",
			"outputs": [],
			"stateMutability": "nonpayable",
			"type": "function"
		}
	]
}